:020000040000FA
:0400000093EF00F08A
:100008005B82FACF01F0FBCF02F0D9CF03F0DACF51
:1000180004F0F2AC12EF00F014EF00F089EF00F0FA
:100028000E01C5AD1AEF00F01CEF00F032EF00F042
:10003800CDAD21EF00F023EF00F032EF00F002D851
:1000480030EF00F00500FA6E0101F651FD6EF75130
:10005800FE6EFF6AFA50120089EF00F0C5AF37EF65
:1000680000F039EF00F04FEF00F0CDAF3EEF00F0B9
:1000780040EF00F04FEF00F002D84DEF00F0050020
:10008800FA6E0101F451FD6EF551FE6EFF6AFA50E9
:10009800120089EF00F0C5A954EF00F056EF00F008
:1000A8006CEF00F0CDA95BEF00F05DEF00F06CEFB6
:1000B80000F002D86AEF00F00500FA6E0101F25173
:1000C800FD6EF351FE6EFF6AFA50120089EF00F0E0
:1000D800C5AB71EF00F073EF00F089EF00F0CDAB26
:1000E80078EF00F07AEF00F089EF00F002D887EFA0
:1000F80000F00500FA6E0101F051FD6EF151FE6E3F
:10010800FF6AFA50120089EF00F004C0DAFF03C05A
:10011800D9FF02C0FBFF01C0FAFF5B92110009EF93
:1001280016F04BC0D9FF4CC0DAFFDECFF6FFDDCFAB
:10013800F7FFF86A0800F550250AD8A4A6EF00F0E2
:10014800A8EF00F03DEF03F04BC0D9FF4CC0DAFF39
:10015800DE2A000EDD22000E0001A46F000EA36F40
:10016800A3C057F0A4C058F0A569A669000E6C6F2B
:10017800000E6B6F07EF01F057804BC0D9FF4CC0E2
:10018800DAFFDE2A000EDD2207EF01F05782C1EF09
:1001980000F05784C1EF00F05786C1EF00F0578890
:1001A800C1EF00F0000E6C6F010E6B6F07EF01F0EE
:1001B8004BC0D9FF4CC0DAFFDECFF6FFDDCFF7FF2B
:1001C800F86A0800F5504F6E506A5050000AD8B4CB
:1001D800F0EF00F0D6EF00F04F50200AD8B4D0EF7F
:1001E80000F0030AD8B4D3EF00F0080AD8B4CDEF72
:1001F80000F0060AD8B4C0EF00F01D0AD8B4CAEF60
:1002080000F0D6EF00F06B516C11D8B40EEF01F08E
:1002180010EF01F0DCEF00F057A015EF01F017EF39
:1002280001F018EF01F057924BC0D9FF4CC0DAFF2C
:10023800DECFF6FFDDCFF7FFF86A0800F5502A0A8F
:10024800D8A429EF01F02BEF01F054EF01F04BC0D7
:10025800D9FF4CC0DAFFDE2A000EDD224DC0D9FFDF
:100268004EC0DAFFDFCF4FF0020EDE26DFCF50F0B0
:10027800000EDD224FC0D9FF50C0DAFFDECFA3F059
:10028800DDCFA4F0A4BF4DEF01F04BEF01F099EFE3
:1002980001F05780A36DA41FD8B0A42B99EF01F0EB
:1002A8004BC0D9FF4CC0DAFFDECF0CF0DDCF0DF02C
:1002B80043EC0EF00CC0A3F00DC0A4F06BEF01F0FE
:1002C8004BC0D9FF4CC0DAFFDE2A000EDD22D00E6B
:1002D8004F6EFF0E506E4BC0D9FF4CC0DAFFDECF19
:1002E800F6FFDDCFF7FFF86A0800F550516E526A45
:1002F8004F5051265050522252500AE10A0E515C7A
:10030800D8A089EF01F08CEF01F0010E8DEF01F01C
:10031800000E00016D6F6E6B6D516E11D8A497EFD2
:1003280001F099EF01F064EF01F04BC0D9FF4CC028
:10033800DAFFDECFF6FFDDCFF7FFF86A0800F550E9
:10034800640AD8B4AAEF01F0ACEF01F0BFEF01F0F6
:100358004BC0D9FF4CC0DAFFDECFF6FFDDCFF7FF89
:10036800F86A0800F550690AD8A4BDEF01F0BFEF9C
:1003780001F0FFEF01F04BC0D9FF4CC0DAFFDE2AD5
:10038800000EDD224DC0D9FF4EC0DAFFDFCF4FF09F
:10039800020EDE26DFCF50F0000EDD224FC0D9FF5F
:1003A80050C0DAFFDECF60F0DDCF61F0000E61BF34
:1003B800FF0E626F636F646F656F666F676F49C02A
:1003C80022F04AC023F060C024F061C025F062C06A
:1003D80026F063C027F064C028F065C029F066C025
:1003E8002AF067C02BF084EC05F022C049F023C046
:1003F8004AF059EF03F04BC0D9FF4CC0DAFFDECF0B
:10040800F6FFDDCFF7FFF86A0800F550730AD8A4A5
:1004180010EF02F012EF02F03DEF02F04BC0D9FFEF
:100428004CC0DAFFDE2A000EDD224DC0D9FF4EC0D7
:10043800DAFFDFCF4FF0020EDE26DFCF50F0000EDE
:10044800DD224FC0D9FF50C0DAFFDECF68F0DDCF24
:1004580069F049C010F04AC011F068C012F069C0D4
:1004680013F076EC0DF010C049F011C04AF059EFC6
:1004780003F04BC0D9FF4CC0DAFFDECFF6FFDDCF6B
:10048800F7FFF86A0800F550750AD8A44EEF02F095
:1004980050EF02F091EF02F04BC0D9FF4CC0DAFFE9
:1004A800DE2A000EDD224DC0D9FF4EC0DAFFDFCFB5
:1004B8004FF0020EDE26DFCF50F0000EDD224FC0D7
:1004C800D9FF50C0DAFFDECF51F0DDCF52F051C076
:1004D8006FF052C070F0716B726B736B746B756BED
:1004E800766B49C022F04AC023F06FC024F070C078
:1004F80025F071C026F072C027F073C028F074C0D0
:1005080029F075C02AF076C02BF0CEEC0AF022C094
:1005180049F023C04AF059EF03F04BC0D9FF4CC053
:10052800DAFFDECFF6FFDDCFF7FFF86A0800F550F7
:10053800780AD8B4A2EF02F0A4EF02F0B7EF02F005
:100548004BC0D9FF4CC0DAFFDECFF6FFDDCFF7FF97
:10055800F86A0800F550580AD8A4B5EF02F0B7EFCA
:1005680002F006EF03F04BC0D9FF4CC0DAFFDECF34
:10057800F6FFDDCFF7FFF86A0800F5CF6AF04BC049
:10058800D9FF4CC0DAFFDE2A000EDD224DC0D9FFAC
:100598004EC0DAFFDFCF4FF0020EDE26DFCF50F07D
:1005A800000EDD224FC0D9FF50C0DAFFDECF51F078
:1005B800DDCF52F051C06FF052C070F0716B726BAA
:1005C800736B746B756B766B49C022F04AC023F06D
:1005D8006FC024F070C025F071C026F072C027F0FB
:1005E80073C028F074C029F075C02AF076C02BF0CB
:1005F8006AC02CF0F4EC06F022C049F023C04AF09F
:1006080059EF03F04BC0D9FF4CC0DAFFDECFF6FF3D
:10061800DDCFF7FFF86A0800F550250AD8A417EFD0
:1006280003F019EF03F030EF03F04BC0D9FF4CC0D3
:10063800DAFFDE2A000EDD22000E086E250E076E98
:1006480049C009F04AC00AF0E4EC17F0000E4A6EFF
:10065800010E496E59EF03F04BC0D9FF4CC0DAFFC9
:10066800DE2A000EDD22000E4A6E000E496E59EF9A
:1006780003F04BC0D9FF4CC0DAFFDECFF6FFDDCF69
:10068800F7FFF86A0800F550076E086A49C009F0D4
:100698004AC00AF0E4EC17F04BC0D9FF4CC0DAFFAF
:1006A800DE2A000EDD222AEF03F01200000E000100
:1006B800AA6F000EA96F0201005100018D6F8E6BA9
:1006C800D890A935D96EAA35DA6E410ED926010E11
:1006D800DA228DC0DEFF8EC0DDFFA94BAA2B0201F6
:1006E800015100018D6F8E6BD890A935D96EAA354E
:1006F800DA6E410ED926010EDA228DC0DEFF8EC0D9
:10070800DDFFA94BAA2B02010551020DD89000016B
:10071800A935D96EAA35DA6E410ED926010EDA222C
:10072800F3CFDEFFF4CFDDFFA94BAA2BDCEF03F0FC
:10073800A10E7D6FFF0E7E6F2BEC1EF00BEF04F009
:10074800C80E7D6FFF0E7E6F2BEC1EF00BEF04F0D2
:10075800D30E7D6FFF0E7E6F2BEC1EF00BEF04F0B7
:10076800AF0E7D6FFF0E7E6F2BEC1EF00BEF04F0CB
:10077800830E7D6FFF0E7E6F2BEC1EF00BEF04F0E7
:10078800740E7D6FFF0E7E6F2BEC1EF00BEF04F0E6
:10079800920E7D6FFF0E7E6F2BEC1EF00BEF04F0B8
:1007A800100E7D6FFF0E7E6F2BEC1EF00BEF04F02A
:1007B8000201025100018D6F8E6B8E51000AD8B470
:1007C800E8EF03F00BEF04F08D51000AD8B49CEF6A
:1007D80003F0010AD8B4A4EF03F0030AD8B4ACEFCD
:1007E80003F0010AD8B4B4EF03F0070AD8B4BCEF99
:1007F80003F0010AD8B4C4EF03F0030AD8B4CCEF6D
:1008080003F0010AD8B4D4EF03F00BEF04F0000EA4
:100818000001926F000E916F18EF05F0030E0201B0
:100828000219D8A41AEF04F01CEF04F04DEF04F0FD
:100838000351000191258D6F000E92218E6FD89083
:100848008D378E37180E8D25D96E010E8E21DA6EF2
:10085800DECF8FF0DDCF90F08F51BD6FBE6B020100
:100868000351000191258D6F000E92218E6FD89053
:100878008D378E37180E8D25D96E010E8E21DA6EC2
:10088800DECF8FF0DDCF90F09051A76FA86BF7EF18
:1008980004F00205D8A453EF04F055EF04F086EFF6
:1008A80004F00351000191258D6F000E92218E6F87
:1008B800D8908D378E37000E8D25D96E010E8E217A
:1008C800DA6EDECF8FF0DDCF90F08F51BD6FBE6B4B
:1008D80002010351000191258D6F000E92218E6F48
:1008E800D8908D378E37000E8D25D96E010E8E214A
:1008F800DA6EDECF8FF0DDCF90F09051A76FA86B46
:10090800F7EF04F0020E0219D8A48DEF04F08FEF70
:1009180004F0C0EF04F00351000191258D6F000E23
:1009280092218E6FD8908D378E373F0E8D25D96ED8
:10093800010E8E21DA6EDECF8FF0DDCF90F08F5171
:10094800BD6FBE6B02010351000191258D6F000E32
:1009580092218E6FD8908D378E373F0E8D25D96EA8
:10096800010E8E21DA6EDECF8FF0DDCF90F0905140
:10097800A76FA86BF7EF04F00251D8A4C6EF04F0F4
:10098800C8EF04F0F7EF04F00351000191258D6FD3
:10099800000E92218E6FD8908D378E37400E8D25A0
:1009A800D96E030E8E21DA6EDECF8FF0DDCF90F098
:1009B8008F51BD6FBE6B02010351000191258D6FF0
:1009C800000E92218E6FD8908D378E37400E8D2570
:1009D800D96E030E8E21DA6EDECF8FF0DDCF90F068
:1009E8009051A76FA86BD8900001A935D96EAA3588
:1009F800DA6E410ED926010EDA22A7C0DEFFA8C0A2
:100A0800DDFFA94BAA2BD890A935D96EAA35DA6E85
:100A1800410ED926010EDA22BDC0DEFFBEC0DDFFC1
:100A2800A94BAA2B914B922B0201055100018D6F06
:100A38008E6B8D51915D9251800A8F6F8E51800A15
:100A48008F59D8A02AEF05F02CEF05F012EF04F02B
:100A5800A9C005F0AAC006F0010E076E59EC14F003
:100A680005C0A7F006C0A8F0A9C005F0AAC006F006
:100A7800000E076E59EC14F005C0BDF006C0BEF0BC
:100A8800D8900001A935D96EAA35DA6E410ED9265B
:100A9800010EDA22A7C0DEFFA8C0DDFFD890A93575
:100AA800D96EAA35DA6E430ED926010EDA22BDC0F8
:100AB800DEFFBEC0DDFF020EA925A96F000EAA2128
:100AC800AA6FB005D8A46BEF05F06DEF05F079EFCC
:100AD80005F0B10E7D6FFD0E7E6FA9C07FF0AAC034
:100AE80080F02BEC1EF0E3EC13F0410E066E010EC5
:100AF800076EA9C008F0AAC009F033EC1AF012007A
:100B080024C03CF025C03DF026C03EF027C03FF091
:100B180028C040F029C041F02AC042F02BC043F061
:100B280043BE99EF05F09CEF05F0010E9DEF05F02F
:100B3800000E3A6E3B6A3A503B10D8B4A6EF05F067
:100B4800A8EF05F0B8EF05F0431E421E411E401EF7
:100B58003F1E3E1E3D1E3C6C000E3D223E223F22A3
:100B680040224122422243220001A6BFBEEF05F0E7
:100B7800C0EF05F0C1EF05F05792A6BFCEEF05F024
:100B8800A65106E1A505D8B0CCEF05F0CEEF05F0EB
:100B9800D4EF05F0000E376E010E366ED8EF05F073
:100BA800A5C036F0A6C037F0A3C038F0A4C039F00D
:100BB8003A503B10D8A4E3EF05F0E5EF05F0ECEF71
:100BC80005F057A4EAEF05F0ECEF05F0EFEF05F0BC
:100BD8003806D8A03906000E456E1F0E446E000E6A
:100BE8000101D36F74EF06F04406D8A04506B40E91
:100BF8004424D96E010E4520DA6E3CC005F03DC094
:100C080006F03EC007F03FC008F040C009F041C000
:100C18000AF042C00BF043C00CF00A0E0D6E000E35
:100C28000E6E000E0F6E000E106E000E116E000E8E
:100C3800126E000E136E000E146ED4EC0FF005C089
:100C48002CF006C02DF007C02EF008C02FF009C008
:100C580030F00AC031F00BC032F00CC033F02CC0B9
:100C680017F02EC018F033EC1DF01750300FDF6E60
:100C78003606D8A037063806D8A039063CC005F095
:100C88003DC006F03EC007F03FC008F040C009F084
:100C980041C00AF042C00BF043C00CF00A0E0D6EC2
:100CA800000E0E6E000E0F6E000E106E000E116E0E
:100CB800000E126E000E136E000E146E10EC0FF084
:100CC80005C03CF006C03DF007C03EF008C03FF04C
:100CD80009C040F00AC041F00BC042F00CC043F01C
:100CE80045BE7FEF06F0455008E14404D8A07FEFE9
:100CF80006F081EF06F0B1EF06F03C503D103E10D3
:100D08003F104010411042104310D8A48EEF06F057
:100D180090EF06F0F8EF05F037BE9DEF06F037507C
:100D280006E13604D8B09BEF06F09DEF06F0F8EF29
:100D380005F039BEA8EF06F0395008E13804D8A00C
:100D4800A8EF06F0AAEF06F0B1EF06F057B2AFEF42
:100D580006F0B1EF06F0F8EF05F03A503B10D8A4D2
:100D6800B8EF06F0BAEF06F0C1EF06F057A4BFEFF0
:100D780006F0C1EF06F0DFEF06F04406D8A04506FE
:100D88003A503B10D8A4CBEF06F0CDEF06F0D3EFE6
:100D980006F0000E356E2B0E346ED7EF06F0000EFF
:100DA800356E2D0E346EB40E4424D96E010E4520D6
:100DB800DA6E34C0DFFF22C017F023C018F0B40E7B
:100DC8004424196E010E45201A6E38C01BF039C034
:100DD8001CF06CEC16F017C022F018C023F01200BB
:100DE8000001A6BFFAEF06F0FCEF06F0FDEF06F0F3
:100DF8005792A6BF0AEF07F0A65106E1A505D8B09D
:100E080008EF07F00AEF07F010EF07F0000E3A6E50
:100E1800010E396E14EF07F0A5C039F0A6C03AF0FC
:100E2800A3C03BF0A4C03CF057A81DEF07F01FEF8C
:100E380007F023EF07F0FE0E3B26FF0E3C2224C0EE
:100E48003DF025C03EF026C03FF027C040F028C046
:100E580041F029C042F02AC043F02BC044F0000EF4
:100E6800466E1F0E456E000E0101D36FEFEF07F0BF
:100E78004506D8A046060F0E3D14476E486A48BE80
:100E88004FEF07F0485009E10A0E475CD8A04FEF32
:100E980007F051EF07F059EF07F0570E4724476E58
:100EA800000E4820486E5FEF07F0300E4724476E6B
:100EB800000E4820486EBF0E2D6EFF0E2E6E2C5071
:100EC8002F6E306A2D502F262E50302230500AE1D6
:100ED8001A0E2F5CD8A073EF07F076EF07F0010E1B
:100EE80077EF07F0000E356E366A35503610D8B4F5
:100EF80080EF07F082EF07F0B2EF07F09F0E2D6E3C
:100F0800FF0E2E6E200E47102F6E000E4810306E0A
:100F18002D502F262E50302230500AE11A0E2F5C09
:100F2800D8A099EF07F09CEF07F0010E9DEF07F0AE
:100F3800000E376E386A37503810D8B4A6EF07F06D
:100F4800A8EF07F0B2EF07F047C00BF048C00CF06D
:100F580031EC1BF00BC047F00CC048F0B40E452430
:100F6800D96E010E4620DA6E47C0DFFF3906D8A0D9
:100F78003A063B06D8A03C063DC02DF03EC02EF0F8
:100F88003FC02FF040C030F041C031F042C032F0D5
:100F980043C033F044C034F0050EDCEF07F0D890BE
:100FA800343233323232313230322F322E322D3225
:100FB800E82ED3EF07F02DC03DF02EC03EF02FC035
:100FC8003FF030C040F031C041F032C042F033C091
:100FD80043F034C044F046BEFBEF07F0465009E149
:100FE800020E455CD8A0FBEF07F0FDEF07F02DEFF0
:100FF80008F03D503E103F10401041104210431081
:101008004410D8A40AEF08F00CEF08F03CEF07F002
:101018003ABE19EF08F03A5006E13904D8B017EF94
:1010280008F019EF08F03CEF07F03CBE24EF08F099
:101038003C5008E13B04D8A024EF08F026EF08F064
:101048002DEF08F057B22BEF08F02DEF08F03CEF2A
:1010580007F057A832EF08F034EF08F04AEF08F02D
:101068004506D8A04606B40E4524D96E010E462082
:10107800DA6E2CC0DFFF4506D8A04606B40E45241C
:10108800D96E010E4620DA6E300EDF6E22C017F0E0
:1010980023C018F0B40E4524196E010E46201A6EAE
:1010A8003BC01BF03CC01CF06CEC16F017C022F0E3
:1010B80018C023F0120093C09DF094C09EF0EB0E70
:1010C80000017D6FFE0E7E6F2BEC1EF0B10E00014D
:1010D8007D6FFA0E7E6F8FC07FF090C080F091C058
:1010E80081F092C082F093C083F094C084F095C0E0
:1010F80085F096C086F02BEC1EF0320E00017D6F55
:10110800FC0E7E6F8FC07FF090C080F095C081F09C
:1011180096C082F02BEC1EF0D40E096E010E0A6EFA
:101128009D0E0B6EFB0E0C6ED3EC1AF095C08BF077
:1011380096C08CF034EC11F000018B518C11D8B4AE
:10114800A8EF08F0AAEF08F09AEF08F0BF0E7D6F3D
:10115800FC0E7E6FD40E7F6F010E806F2BEC1EF09D
:1011680080EC1EF00009D8B4BCEF08F0BEEF08F020
:10117800B4EF08F08FEC1BF000019C6F790E9C19FE
:10118800D8B4C9EF08F0CBEF08F0D4EF08F0590E47
:101198009C19D8A4D2EF08F0D4EF08F0A8EF09F012
:1011A800E90E7D6FFD0E7E6F2BEC1EF0D40E056EE2
:1011B800010E066E10EC1CF005C099F006C09AF0FE
:1011C800220E00017D6FFF0E7E6F99C07FF09AC0DE
:1011D80080F02BEC1EF093C08BF094C08CF095C07F
:1011E8008DF096C08EF07BEC19F0000E0001A06F18
:1011F800000E9F6F36EF09F0040E7D6FFE0E7E6FB6
:10120800D40E9F25D96E010EA021DA6EDF50976F9C
:1012180097517F6F806B9DC081F09EC082F02BEC50
:101228001EF09DC005F09EC006F0D40E00019F255B
:10123800D96E010EA021DA6EDF50076ECDEC1CF0DE
:1012480000019D4B9E2B030E0001986F080E976FAF
:10125800770EE82EFED7972FFCD7982FFAD70001E4
:101268009F4BA02BD40E056E010E066E10EC1CF0E1
:10127800055000019F5D0650A059D8A046EF09F01F
:1012880048EF09F000EF09F0360E7D6FFE0E7E6F15
:101298002BEC1EF093C09DF094C09EF0030E00014D
:1012A800986F080E976F770EE82EFED7972FFCD70A
:1012B800982FFAD7000E0001A06F000E9F6F8CEFD9
:1012C80009F09DC005F09EC006F08CEC1EF00001F0
:1012D8009B6F210E7D6FFD0E7E6F9BC07FF0806B34
:1012E8009DC081F09EC082F02BEC1EF000019D4B4A
:1012F8009E2B030E0001986F080E976F770EE82E4D
:10130800FED7972FFCD7982FFAD700019F4BA02B19
:10131800D40E056E010E066E10EC1CF0055000018F
:101328009F5D0650A059D8A09CEF09F09EEF09F0E8
:1013380065EF09F0D40E096E010E0A6E9D0E0B6E54
:10134800FB0E0C6ED3EC1AF01200000E0001966F23
:10135800000E956F000E926F000E916F000EAA6F2F
:10136800000EA96F0201005100018D6F8E6BD8909D
:10137800A935D96EAA35DA6E410ED926010EDA22C0
:101388008DC0DEFF8EC0DDFFA94BAA2B02010151E3
:1013980000018D6F8E6BD890A935D96EAA35DA6E9B
:1013A800410ED926010EDA228DC0DEFF8EC0DDFF88
:1013B800A94BAA2B0201025100018D6F8E6BD890A8
:1013C800A935D96EAA35DA6E410ED926010EDA2270
:1013D8008DC0DEFF8EC0DDFFA94BAA2B0201035191
:1013E80000018D6F8E6BD890A935D96EAA35DA6E4B
:1013F800410ED926010EDA228DC0DEFF8EC0DDFF38
:10140800A94BAA2B0201045100018D6F8E6BD89055
:10141800A935D96EAA35DA6E410ED926010EDA221F
:101428008DC0DEFF8EC0DDFFA94BAA2B020105513E
:1014380000018D6F8E6BD890A935D96EAA35DA6EFA
:10144800410ED926010EDA228DC0DEFF8EC0DDFFE7
:10145800A94BAA2B000E946F000E936F6AEF0AF047
:10146800080E9525D96E020E9621DA6EDF508D6F23
:10147800070E9525D96E020E9621DA6EDF508E6F13
:101488008E51906F8F6B8D518F25916F000E90212B
:10149800926F020E9525956F000E9621966F0201A8
:1014A8000351000193258D6F000E94218E6FD89003
:1014B8008D378E37000E8D25D96E030E8E21DA6E8C
:1014C80091C0DEFF92C0DDFF934B942B02010551C2
:1014D80000018D6F8E6B8D51935D9451800A8F6FD3
:1014E8008E51800A8F59D8A07CEF0AF07EEF0AF05F
:1014F80034EF0AF0A9C005F0AAC006F0010E076E85
:1015080059EC14F005C0A7F006C0A8F0A9C005F072
:10151800AAC006F0000E076E59EC14F005C0BDF025
:1015280006C0BEF0D8900001A935D96EAA35DA6E8A
:10153800410ED926010EDA22A7C0DEFFA8C0DDFFC2
:10154800D890A935D96EAA35DA6E430ED926010E80
:10155800DA22BDC0DEFFBEC0DDFF020EA925A96FDD
:10156800000EAA21AA6FB005D8A4BDEF0AF0BFEFFC
:101578000AF0C3EF0AF06DEC1AF0E3EC13F0410E39
:10158800066E010E076EA9C008F0AAC009F033EC78
:101598001AF012000001A6BFD4EF0AF0D6EF0AF045
:1015A800D7EF0AF05792A6BFE4EF0AF0A65106E17A
:1015B800A505D8B0E2EF0AF0E4EF0AF0EAEF0AF086
:1015C800000E356E010E346EEEEF0AF0A5C034F051
:1015D800A6C035F0A3C036F0A4C037F024C038F058
:1015E80025C039F026C03AF027C03BF028C03CF0AF
:1015F80029C03DF02AC03EF02BC03FF0000E416EDE
:101608001F0E406E000E0101D36F81EF0BF04006F4
:10161800D8A04106B40E4024D96E010E4120DA6EDE
:1016280038C005F039C006F03AC007F03BC008F0F2
:101638003CC009F03DC00AF03EC00BF03FC00CF0C2
:101648000A0E0D6E000E0E6E000E0F6E000E106E5E
:10165800000E116E000E126E000E136E000E146E48
:10166800A1EC15F005C02CF006C02DF007C02EF037
:1016780008C02FF009C030F00AC031F00BC032F0BA
:101688000CC033F02C50300FDF6E3406D8A035066E
:101698003606D8A0370638C005F039C006F03AC07B
:1016A80007F03BC008F03CC009F03DC00AF03EC05E
:1016B8000BF03FC00CF00A0E0D6E000E0E6E000E01
:1016C8000F6E000E106E000E116E000E126E000EE0
:1016D800136E000E146E6BEC13F005C038F006C0E4
:1016E80039F007C03AF008C03BF009C03CF00AC026
:1016F8003DF00BC03EF00CC03FF040504110D8B454
:1017080088EF0BF08AEF0BF0BAEF0BF03850391076
:101718003A103B103C103D103E103F10D8A497EFF4
:101728000BF099EF0BF00BEF0BF035BEA6EF0BF0BB
:10173800355006E13404D8B0A4EF0BF0A6EF0BF057
:101748000BEF0BF037BEB1EF0BF0375008E1360462
:10175800D8A0B1EF0BF0B3EF0BF0BAEF0BF057B224
:10176800B8EF0BF0BAEF0BF00BEF0BF022C017F04D
:1017780023C018F0B40E4024196E010E41201A6ED1
:1017880036C01BF037C01CF06CEC16F017C022F006
:1017980018C023F0120018EC1FF0A4EC1EF000098A
:1017A800D8B4D9EF0BF0DBEF0BF0A5EF0CF000018C
:1017B800B005D8A4E2EF0BF0E4EF0BF0EAEF0BF082
:1017C800660E7D6FFE0E7E6F2BEC1EF0A4EC1EF0F5
:1017D8000009D8B4F2EF0BF0F4EF0BF02BEF0CF09C
:1017E8001EEF0CF0BBEC1BF0566E000E0001AB2593
:1017F800D96E040EAC21DA6E56C0DFFFB005D8A44E
:1018080008EF0CF00AEF0CF01BEF0CF0640E7D6F84
:10181800FF0E7E6F000EAB25D96E040EAC21DA6E7A
:10182800DF50566E56507F6F806B2BEC1EF0000118
:10183800AB4BAC2BA4EC1EF00009D8A426EF0CF09F
:1018480028EF0CF0F6EF0BF0010E0001AF6F00016E
:10185800AF05D8A432EF0CF034EF0CF050EF0CF0D9
:1018680038EC15F084EC1CF0000E0001AF6F000E90
:10187800AC6F000EAB6F83B844EF0CF047EF0CF081
:10188800010E48EF0CF0000EFF0A566E563A8350D0
:101898005618EF0B5618836EB005D8A456EF0CF007
:1018A80058EF0CF066EF0CF0E00E7D6FFC0E7E6FCB
:1018B800ADC07FF0AEC080F03DC181F03EC182F086
:1018C8002BEC1EF001013D510001AD1909E10101A8
:1018D8003E510001AE19D8A474EF0CF076EF0CF06D
:1018E800EAEF0BF083BA7BEF0CF07EEF0CF0010E01
:1018F8007FEF0CF0000EFF0A566E563A564683509C
:101908005618DF0B5618836E86EC10F0E806D8A43C
:1019180090EF0CF092EF0CF09BEF0CF04E0E0001E4
:101928007D6FFE0E7E6F2BEC1EF0A2EF0CF0FE0E0C
:1019380000017D6FFE0E7E6F2BEC1EF0010EA6EFF0
:101948000CF0000E12005C0E00017D6FFD0E7E6F24
:10195800D40E7F6F010E806F2BEC1EF0D40E056E37
:10196800010E066EEE0E076EFF0E086EF9EC19F00A
:1019780005500610D8A4C3EF0CF0C5EF0CF0CAEF61
:101988000CF08FEC1DF0010E75EF0DF0D40E056E06
:10199800010E066EFD0E076EFF0E086EF9EC19F0CB
:1019A80005500610D8A4DBEF0CF0DDEF0CF0E1EFEA
:1019B8000CF08DEC17F0C7EF0CF0D40E056E010E8D
:1019C800066EE70E076EFF0E086EF9EC19F005506B
:1019D8000610D8A4F2EF0CF0F4EF0CF012EF0DF0B3
:1019E80022EED7F015EE00F0130EDBCFE3FFE8068A
:1019F800FCE2000E00018F6F050E906F030E926FD0
:101A0800000E916F030E946F000E936F000E966F89
:101A18000A0E956F5FEC08F0DDEF0CF0D40E056E42
:101A2800010E066EF40E076EFF0E086EF9EC19F043
:101A380005500610D8A423EF0DF025EF0DF043EF65
:101A48000DF022EEC3F015EE14F0130EDBCFE3FF1A
:101A5800E806FCE2140E00018F6F050E906F010E70
:101A6800926F000E916F010E946F000E936F000E2F
:101A7800966F100E956F5FEC08F0C7EF0CF0D40E60
:101A8800056E010E066EF90E076EFF0E086EF9EC74
:101A980019F005500610D8A454EF0DF056EF0DF0CC
:101AA80074EF0DF022EEAFF015EE28F0130EDBCF39
:101AB800E3FFE806FCE2280E00018F6F050E906F29
:101AC800020E926F000E916F020E946F000E936FCC
:101AD800000E966F020E956F5FEC08F0C7EF0CF0E2
:101AE800000E120021EE22F010EE15F0060EDBCFEC
:101AF800E3FFE806FCE212C020F013C021F02050FA
:101B08002110D8A48AEF0DF08CEF0DF090EF0DF0B6
:101B1800150E206E000E216E20C005F021C006F0C3
:101B280010EC1CF005C024F006C025F0A5C022F07A
:101B3800A6C023F023BEA3EF0DF0A5EF0DF0BAEF7A
:101B48000DF02450225C2350800A146E2550800A20
:101B58001458D8A0B2EF0DF0B4EF0DF0B6EF0DF0B9
:101B6800BAEF0DF022C024F023C025F024C022F0E3
:101B780025C023F0A3C01EF0A4C01FF057B0C7EFC4
:101B88000DF0C9EF0DF0E6EF0DF0D7EF0DF0000EF8
:101B9800086E200E076E10C009F011C00AF0E4ECC0
:101BA80017F0244A252A1E50245C2550800A146EFA
:101BB8001F50800A1458D8A0E4EF0DF0E6EF0DF09E
:101BC800CBEF0DF0000E1D6E000E1C6E0BEF0EF02D
:101BD80020C0F6FF21C0F7FF000EF86E0E0EF76466
:101BE80003D00800F55005D0F6CFE9FFF7CFEAFF9C
:101BF800EF50146E1450076E086A10C009F011C037
:101C08000AF0E4EC17F0204A212A1C4A1D2A225027
:101C18001C5C1D50800A146E2350800A1458D8A0EA
:101C280018EF0EF01AEF0EF0ECEF0DF057A01FEFC3
:101C38000EF021EF0EF03EEF0EF02FEF0EF0000E3B
:101C4800086E200E076E10C009F011C00AF0E4EC0F
:101C580017F0244A252A1E50245C2550800A146E49
:101C68001F50800A1458D8A03CEF0EF03EEF0EF03B
:101C780023EF0EF024C010F025C011F01200000E62
:101C88001A6E000E196E000E136E000E126E4FEFD4
:101C98000EF00C4A0D2A010E186E0CC0F6FF0DC08E
:101CA800F7FFF86A0800F550200AD8B45EEF0EF086
:101CB80060EF0EF07EEF0EF0F70E0E6EFF0E0F6E59
:101CC8000CC0F6FF0DC0F7FFF86A0800F550106E5B
:101CD800116A0E5010260F501122115009E1050EFD
:101CE800105CD8A07AEF0EF07CEF0EF07EEF0EF0CD
:101CF800000E186E18C014F0156A14501510D8A4E8
:101D080088EF0EF08AEF0EF04DEF0EF094EF0EF024
:101D1800000E136E010E126E0C4A0D2ACBEF0EF058
:101D28000CC0F6FF0DC0F7FFF86A0800F5500E6EFC
:101D38000F6A0F50000AD8B4A4EF0EF0CBEF0EF0E4
:101D48000E502B0AD8B490EF0EF0060AD8B48CEFD8
:101D58000EF0CBEF0EF019C005F01AC006F0000E19
:101D6800086E0A0E076E52EC1EF00CC0F6FF0DC08E
:101D7800F7FFF86A0800F550055E000E065A300EA7
:101D88000524196E000E06201A6E90EF0EF0D00E84
:101D98000E6EFF0E0F6E0CC0F6FF0DC0F7FFF86A4F
:101DA8000800F550106E116A0E5010260F501122BF
:101DB80011500AE10A0E105CD8A0E5EF0EF0E8EF2A
:101DC8000EF0010EE9EF0EF0000E166E176A1650AF
:101DD8001710D8A4F2EF0EF0F4EF0EF0AFEF0EF0FC
:101DE80012501310D8A4FBEF0EF0FDEF0EF00BEF1E
:101DF8000FF019C00EF01AC00FF00E1E0F1E0E4A7B
:101E08000F2A0EC00CF00FC00DF00FEF0FF019C025
:101E18000CF01AC00DF01200000E166E14BE19EF69
:101E28000FF017EF0FF02BEF0FF0141E131E121EFA
:101E3800111E101E0F1E0E1E0D6C000E0E220F22FC
:101E480010221122122213221422010E166E0CBE29
:101E580032EF0FF030EF0FF044EF0FF00C1E0B1EB7
:101E68000A1E091E081E071E061E056C000E062205
:101E78000722082209220A220B220C22010E161A16
:101E880020EE17F0070EDE6AE806FDE20D500E1090
:101E98000F1010101110121013101410D8B457EF9F
:101EA8000FF059EF0FF0ABEF0FF0010E156E67EF63
:101EB8000FF0D8900D360E360F3610361136123612
:101EC80013361436152A14AE6CEF0FF06EEF0FF0C0
:101ED8005DEF0FF0D8901736183619361A361B36BC
:101EE8001C361D361E360D50055C0E5006580F5018
:101EF8000758105008581150095812500A581350D2
:101F08000B5814500C58D8A08CEF0FF08EEF0FF030
:101F18009FEF0FF00D50055E0E50065A0F50075AEE
:101F28001050085A1150095A12500A5A13500B5A95
:101F380014500C5A1780D8901432133212321132BE
:101F480010320F320E320D32152E6EEF0FF0165082
:101F5800D8B4B1EF0FF0B3EF0FF0C3EF0FF01E1EC0
:101F68001D1E1C1E1B1E1A1E191E181E176C000E85
:101F7800182219221A221B221C221D221E2217C0D7
:101F880005F018C006F019C007F01AC008F01BC009
:101F980009F01CC00AF01DC00BF01EC00CF01200A6
:101FA800000E166E0CBEDDEF0FF0DBEF0FF0EFEF5B
:101FB8000FF00C1E0B1E0A1E091E081E071E061E09
:101FC800056C000E06220722082209220A220B228B
:101FD8000C22010E166E14BEF6EF0FF0F4EF0FF0A0
:101FE80006EF10F0141E131E121E111E101E0F1ED7
:101FF8000E1E0D6C000E0E220F221022112212222C
:10200800132214220D500E100F1010101110121060
:1020180013101410D8B413EF10F015EF10F05DEF93
:1020280010F0010E156E23EF10F0D8900D360E3615
:102038000F3610361136123613361436152A14AEEA
:1020480028EF10F02AEF10F019EF10F00D50055C92
:102058000E5006580F50075810500858115009587C
:1020680012500A5813500B5814500C58D8A03FEF70
:1020780010F041EF10F051EF10F00D50055E0E50CA
:10208800065A0F50075A1050085A1150095A125040
:102098000A5A13500B5A14500C5AD890143213324F
:1020A8001232113210320F320E320D32152E2AEF43
:1020B80010F01650D8B463EF10F065EF10F075EF1C
:1020C80010F00C1E0B1E0A1E091E081E071E061EF7
:1020D800056C000E06220722082209220A220B227A
:1020E8000C2205C005F006C006F007C007F008C0BE
:1020F80008F009C009F00AC00AF00BC00BF00CC0C8
:102108000CF01200000196699769000E936F000E9B
:10211800926F000E956F000E946F000E996F000E6F
:10212800986FC6EF10F0000E9825D96E020E99210F
:10213800DA6EDF508B6F8B51961B000E956F080E71
:10214800946F96A1AAEF10F0ACEF10F0B5EF10F075
:10215800D89097339633010E961BA00E971BB8EFB5
:1021680010F0D890973396339407D8A095079451D8
:102178009511D8A4C2EF10F0C4EF10F0A5EF10F03D
:10218800984B992BFE0E8B6FFF0E8C6FADC08DF0A8
:10219800AEC08EF08B518D278C518E238D51985D5A
:1021A8009951800A8F6F8E51800A8F59D8A0DFEF1E
:1021B80010F0E1EF10F097EF10F09651906F916BDF
:1021C80096C08BF097C08CF08CC08BF08C6B8B51C9
:1021D800926F936BB005D8A4F4EF10F0F6EF10F0FF
:1021E80004EF11F0560E7D6FFC0E7E6F90C07FF0ED
:1021F80091C080F092C081F093C082F02BEC1EF069
:10220800000E00019825D96E020E9921DA6EDF5072
:102218008B6F8C6B90518B1907E191518C19D8A455
:1022280018EF11F01AEF11F032EF11F0010E9825A6
:10223800D96E020E9921DA6EDF508B6F8C6B92513A
:102248008B1907E193518C19D8A42DEF11F02FEFBA
:1022580011F032EF11F0010E33EF11F0000E120001
:1022680039C155F03AC156F080EC1EF00009D8B4D7
:1022780040EF11F042EF11F0CBEF11F080EC1EF0BF
:102288000009D8B44AEF11F04CEF11F0A7EF11F0A4
:102298008FEC1BF0556E555060EC1BF00D0E551869
:1022A800D8B459EF11F05BEF11F065EF11F0D40ECF
:1022B800136E010E146E550E156E000E166E3FEC61
:1022C8001EF0D40E056E010E066E10EC1CF00550C3
:1022D80000018B5D06508C59D8B075EF11F077EF7F
:1022E80011F096EF11F0D40E096E010E0A6ED50E9C
:1022F8000B6E010E0C6ED40E056E010E066E10EC00
:102308001CF005C00DF006C00EF0CAEC14F07A0EF1
:1023180000017D6FFC0E7E6FD40E7F6F010E806F03
:102328002BEC1EF00D0E5518D8A49DEF11F09FEF61
:1023380011F0A7EF11F07A0E556E8BC08BF08CC0A0
:102348008CF0D0EF11F00D0E5518D8A4AEEF11F0A7
:10235800B0EF11F042EF11F0D40E056E010E066ECB
:1023680010EC1CF0D30E0524D96E010E0620DA6E8F
:10237800000EDF6E9A0E00017D6FFB0E7E6F2BEC58
:102388001EF0D40E056E010E066E10EC1CF0000E49
:1023980000018C6F000E8B6F1200000E106E000E85
:1023A8000F6E000E126E000E116E030E0C6E000EF4
:1023B8000B6E000E106E000E0F6E0BC005F00CC0F9
:1023C80006F08CEC1EF00D6E030E0A6E080E096EF8
:1023D800770EE82EFED7092EFCD70A2EFAD700F082
:1023E8000D28D8B4FAEF11F0FCEF11F006EF12F057
:1023F80011500724D96E12500820DA6E0DC0DFFF85
:10240800114A122A0B4A0C2A0BC005F00CC006F020
:102418008CEC1EF00E6E0B4A0C2A030E0A6E080E88
:10242800096E770EE82EFED7092EFCD70A2EFAD7AA
:1024380000F00E28D8B423EF12F025EF12F02FEF9A
:1024480012F011500724D96E12500820DA6E0EC00F
:10245800DFFF114A122A0E500DC009F00A6A09C09E
:102468000AF0096A0926000E0A22D8900F34D96E9C
:102478001034DA6E180ED926010EDA2209C0DEFFF2
:102488000AC0DDFF0F4A102A10BE54EF12F0105098
:1024980009E1050E0F5CD8A054EF12F056EF12F0C8
:1024A800E1EF11F011500724D96E12500820DA6EAE
:1024B800000EDF6E120073EC1EF0F28EF28C839821
:1024C800839A839C839E8DEC17F018EC1FF084ECA4
:1024D8001CF038EC1CF0CFEC0BF0E806D8A477EF32
:1024E80012F079EF12F0C2EF12F00001B005D8A493
:1024F80080EF12F082EF12F0A5EF12F076EC18F0F0
:10250800A5EF12F05AEC03F0BCEF12F0C30E7D6F8A
:10251800FE0E7E6F2BEC1EF06DEC1AF0A9EC09F0A4
:10252800BCEF12F0CD0E7D6FFD0E7E6F2BEC1EF012
:10253800000E00018E6F010E8D6FE5EC12F0BCEFFE
:1025480012F0020101510001A16FA26BA251000A11
:10255800D8B4B1EF12F096EF12F0A151030AD8B433
:1025680086EF12F0130AD8B48AEF12F096EF12F041
:102578005EEC1CF038EC1CF06FEF12F0000E00015E
:102588008C6F100E8B6F34EC11F000018B518C1195
:10259800D8B4D1EF12F0D3EF12F0E1EF12F0A7ECBC
:1025A8000CF0D40E096E010E0A6E9D0E0B6EFB0E1A
:1025B8000C6ED3EC1AF06FEF12F06FEF12F093EF8E
:1025C80000F0000E0001AA6F000EA96F0201005171
:1025D80000018F6F906BD890A935D96EAA35DA6E45
:1025E800410ED926010EDA228FC0DEFF90C0DDFF32
:1025F800A94BAA2B0201015100018F6F906B800E2D
:102608008F27000E9023D890A935D96EAA35DA6E97
:10261800410ED926010EDA228FC0DEFF90C0DDFF01
:10262800A94BAA2BD890A935D96EAA35DA6E410ED6
:10263800D926010EDA228DC0DEFF8EC0DDFFA94B40
:10264800AA2BA9C005F0AAC006F0010E076E59EC26
:1026580014F005C0A7F006C0A8F0A9C005F0AAC0EC
:1026680006F0000E076E59EC14F005C0BDF006C068
:10267800BEF0D8900001A935D96EAA35DA6E410EA0
:10268800D926010EDA22A7C0DEFFA8C0DDFFD89048
:10269800A935D96EAA35DA6E430ED926010EDA228B
:1026A800BDC0DEFFBEC0DDFF020EA925A96F000E6A
:1026B800AA21AA6FE3EC13F0410E066E010E076E15
:1026C800A9C008F0AAC009F033EC1AF0120020EEF5
:1026D80015F0070EDE6AE806FDE20D500E100F1029
:1026E80010101110121013101410D8B47EEF13F03C
:1026F80080EF13F0D2EF13F0010E1D6E8EEF13F082
:10270800D8900D360E360F3610361136123613366F
:1027180014361D2A14AE93EF13F095EF13F084EFDF
:1027280013F0D890153616361736183619361A3665
:102738001B361C360D50055C0E5006580F500758B6
:10274800105008581150095812500A5813500B5875
:1027580014500C58D8A0B3EF13F0B5EF13F0C6EF30
:1027680013F00D50055E0E50065A0F50075A1050C0
:10277800085A1150095A12500A5A13500B5A145039
:102788000C5A1580D890143213321232113210328A
:102798000F320E320D321D2E95EF13F015C005F0D5
:1027A80016C006F017C007F018C008F019C009F0E5
:1027B8001AC00AF01BC00BF01CC00CF01200B10EBE
:1027C80000017D6FFD0E7E6FA9C07FF0AAC080F06A
:1027D8002BEC1EF0BCEC1EF00009D8B4F6EF13F099
:1027E800F8EF13F0EEEF13F0000E00018C6F000EFF
:1027F8008B6F2EEF14F0BCEC1EF00009D8B407EF75
:1028080014F009EF14F0FFEF13F01D0E00017D6FB7
:10281800FE0E7E6F8BC07FF08CC080F0D8908B3519
:10282800D96E8C35DA6E410ED926010EDA22DECF4A
:1028380081F0DDCF82F02BEC1EF0C8EC1EF0000911
:10284800D8B429EF14F02BEF14F021EF14F00001A5
:102858008B4B8C2BA9518B5D8C51800A556EAA51DC
:10286800800A5558D8A03BEF14F03DEF14F0FFEF65
:1028780013F0BCEC1EF00009D8B445EF14F047EF94
:1028880014F03DEF14F09A0E00017D6FFB0E7E6F81
:102898002BEC1EF0C8EC1EF00009D8B456EF14F06B
:1028A80058EF14F04EEF14F0120012681368000E7F
:1028B8000D6E000E0C6E000E116E000E106E000EE6
:1028C8000F6E000E0E6E9BEF14F0D8900E34D96E7A
:1028D8000F34DA6E410ED926010EDA22DE50121AB2
:1028E800DD50131A000E116E080E106E12A07FEF45
:1028F80014F081EF14F08AEF14F0D89013321232EA
:10290800010E121AA00E131A8DEF14F0D89013327C
:1029180012321006D8A0110610501110D8A497EF43
:1029280014F099EF14F07AEF14F00E4A0F2A0550BC
:102938000E5C0F50800A086E0650800A0858D8A00E
:10294800A8EF14F0AAEF14F069EF14F012500A6E11
:102958000B6A12C008F013C009F009C008F0096A30
:1029680008500C6E0D6A0704D8A4BDEF14F0BFEF31
:1029780014F0C5EF14F00AC005F00BC006F0C9EF5B
:1029880014F00CC005F00DC006F012000BC013F0D7
:102998000CC014F009C011F00AC012F01150135CF9
:1029A80012501458D8B0DBEF14F0DDEF14F014EF28
:1029B80015F00D5013240F6E0E501420106E0F508A
:1029C800115C10501258D8B0ECEF14F0EEEF14F080
:1029D80014EF15F00D5013260E5014220D50112629
:1029E8000E5012221306D8A0140613C0D9FF14C023
:1029F800DAFF1106D8A0120611C0E1FF12C0E2FFEB
:102A0800DFCFE7FF0D06D8A00E060D500E10D8A494
:102A180010EF15F012EF15F0F6EF14F037EF15F090
:102A28000D500E10D8B41BEF15F01DEF15F037EF51
:102A380015F013C0D9FF14C0DAFF11C0E1FF12C0AE
:102A4800E2FFDFCFE7FF134A142A114A122A0D06C4
:102A5800D8A00E060D500E10D8A435EF15F037EF9C
:102A680015F01DEF15F01200000E00018C6F000E1E
:102A78008B6F000E8C6F000E8B6F55EF15F0000EEC
:102A88008B25D96E040E8C21DA6E000EAD25E16E11
:102A9800020EAE21E26EDFCFE7FFAD4BAE2B8B4BC4
:102AA8008C2BAB518B5D8C51800A556EAC51800AD2
:102AB8005558D8A062EF15F064EF15F043EF15F004
:102AC800B005D8A46AEF15F06CEF15F07DEF15F09E
:102AD8009E0E7D6FFB0E7E6F2BEC1EF0950E000197
:102AE8007D6FFD0E7E6FADC07FF0AEC080F02BEC29
:102AF8001EF00F0E02010119D8A485EF15F087EF1B
:102B080015F090EF15F0090E062501013D6F3E6B9B
:102B1800000E3E23A0EF15F0100E0119D8A497EF70
:102B280015F099EF15F09BEF15F087EF15F0000EF3
:102B380001013E6F080E3D6F12000D500E100F1070
:102B480010101110121013101410D8B4AEEF15F0A5
:102B5800B0EF15F0F8EF15F0010E156EBEEF15F099
:102B6800D8900D360E360F3610361136123613360B
:102B78001436152A14AEC3EF15F0C5EF15F0B4EFEF
:102B880015F00D50055C0E5006580F5007581050A0
:102B980008581150095812500A5813500B5814501D
:102BA8000C58D8A0DAEF15F0DCEF15F0ECEF15F0C3
:102BB8000D50055E0E50065A0F50075A1050085A0D
:102BC8001150095A12500A5A13500B5A14500C5AE1
:102BD800D890143213321232113210320F320E32B0
:102BE8000D32152EC5EF15F005C005F006C006F02C
:102BF80007C007F008C008F009C009F00AC00AF0C9
:102C08000BC00BF00CC00CF01200F50EF66E310E76
:102C1800F76E000EF86E03EE00F010EE80F009007B
:102C2800F5CFEEFFE550E150FAE1A60EF66E3A0E4A
:102C3800F76E000EF86E02EEAFF010EE3CF00900F1
:102C4800F5CFEEFFE550E150FAE1740EF66E310E65
:102C5800F76E000EF86E01EE00F010EE81F009003C
:102C6800F5CFEEFFE550E150FAE1520EF66E3E0E5A
:102C7800F76E000EF86E0900F5CFBDF00900F5CF2C
:102C8800BEF004EE00F0C80EEE6AE806FDE103EEC1
:102C980080F0640EEE6AE806FDE102EE00F0AF0E89
:102CA800EE6AE806FDE101EE81F0630EEE6AE806E1
:102CB800FDE100EEA3F0180EEE6AE806FDE15A6A9F
:102CC800596A586A576A5B905B9200015FEF12F08D
:102CD80057A071EF16F073EF16F07DEF16F019C0DC
:102CE80010F01AC011F017C012F018C013F0EFEC72
:102CF8001CF01CBE82EF16F084EF16F08AEF16F077
:102D08001BC020F01CC021F08EEF16F0000E216EC3
:102D1800000E206E000E1F6E000E1E6EA0EF16F045
:102D2800000E086E200E076E17C009F018C00AF0D2
:102D3800E4EC17F01E4A1F2A20501E5C1F50800A20
:102D48001D6E2150800A1D58D8A0ADEF16F0AFEFC8
:102D580016F094EF16F057B0B4EF16F0B6EF16F081
:102D6800C0EF16F019C010F01AC011F017C012F019
:102D780018C013F0EFEC1CF019C005F01AC006F0EB
:102D880010EC1CF020500524176E21500620186EF8
:102D98001200810E5A24D96EDA6A010EDA22000E68
:102DA800DF6E0E019DA5DBEF16F0DDEF16F0F1EFFB
:102DB80016F0810E5A24D96EDA6A010EDA22010160
:102DC800DF8202D8F1EF16F00500FA6EEE51FD6EC3
:102DD800EF51FE6EFF6AFA5012000E019DA3F7EF45
:102DE80016F0F9EF16F00DEF17F0810E5A24D96E90
:102DF800DA6A010EDA220101DF8402D80DEF17F03A
:102E08000500FA6EEC51FD6EED51FE6EFF6AFA5048
:102E18001200810E5A24D96EDA6A010EDA22DF50C6
:102E2800D8B419EF17F01BEF17F02AEF17F002D8F4
:102E380028EF17F00500FA6E0101EA51FD6EEB511B
:102E4800FE6EFF6AFA5012002CEF17F0FFEC1DF02F
:102E58001200800E5924D96EDA6A030EDA22000EA7
:102E6800DF6E9DA43AEF17F03CEF17F051EF17F023
:102E7800800E5924D96EDA6A030EDA220301DF8242
:102E880002D851EF17F00500FA6E0101E851FD6E06
:102E9800E951FE6EFF6AFA5012009DA256EF17F034
:102EA80058EF17F06DEF17F0800E5924D96EDA6AD3
:102EB800030EDA220301DF8402D86DEF17F0050054
:102EC800FA6E0101E651FD6EE751FE6EFF6AFA5097
:102ED8001200800E5924D96EDA6A030EDA22DF5006
:102EE800D8B479EF17F07BEF17F08AEF17F002D814
:102EF80088EF17F00500FA6E0101E451FD6EE55107
:102F0800FE6EFF6AFA5012008CEF17F015EC1EF0F7
:102F1800120020EE8BF00A0EDE6AE806FDE28B0E48
:102F2800076E000E086ED1EC11F0F40E00017D6FF3
:102F3800FA0E7E6F2BEC1EF02AEC1FF0D80E000163
:102F48007D6FFE0E7E6F8B0E7F6F000E806F2BECF9
:102F58001EF0AD0E00017D6FFE0E7E6F2BEC1EF095
:102F6800080E00017D6FFC0E7E6FBC0E7F6FFF0E9A
:102F7800806FDE0E816FFF0E826F080E846F340E35
:102F8800836F2BEC1EF0790E00017D6FFD0E7E6FB6
:102F98002BEC1EF0D40E00017D6FFB0E7E6F2BEC28
:102FA8001EF0680E00017D6FFB0E7E6F2BEC1EF08D
:102FB8009D0E00017D6FFC0E7E6F2BEC1EF0120043
:102FC80009500A10D8B4EBEF17F0EDEF17F0F6EF51
:102FD80017F009500A10D8A4F4EF17F0F6EF17F01D
:102FE800FBEF17F007500FEC1FF02EEF18F020EE54
:102FF80004F00950D9260A50DA22DE50DE10D8B47F
:1030080008EF18F00AEF18F025EF18F020EE04F09A
:103018000950D9260A50DA2210EE02F00950E126AA
:103028000A50E222DE50E65CE650800A0F6EDE505F
:10303800800A0F58D8B023EF18F025EF18F02EEFBC
:1030480018F020EE02F00950D9260A50DA22DE2ABA
:10305800000EDD221200000E876E000E866E000E36
:10306800836E000E846E000E856E070E8C6E070E42
:10307800886EBF0E896EBF0E8A6EFE0E8B6E0F01B4
:1030880026693B0E216F370E196F070E2E6F1169D7
:10309800000E256F000E2D6F000E186F000E106FBA
:1030A800000E206F000E2C6F000E0F6F000E176FB2
:1030B800000E1F6F000E246F0E6916691E692369C2
:1030C800070E2B6F0D6915691D6922690F0E2A6F8E
:1030D800170E0E01B56F0B0EF56F090EFD6F0F0E73
:1030E8008D6F1200010E00017D6FFD0E7E6F2BECBF
:1030F8001EF00001B005D8A484EF18F086EF18F090
:10310800B9EF18F0000E8C6F000E8B6FA4EF18F05B
:10311800960E7D6FFE0E7E6F8BC07FF08CC080F0A8
:10312800000E8B25D96E020E8C21DA6EDF50556E9B
:103138005550816F826B2BEC1EF000018B4B8C2B52
:10314800AD518B5D8C51800A556EAE51800A555831
:10315800D8A0B1EF18F0B3EF18F08CEF18F09A0E72
:103168007D6FFB0E7E6F2BEC1EF01200504130304D
:10317800363033303330302D003255412047393026
:103188003032313232313433363538373039286ECF
:10319800756C6C29005A04F100C401373135333994
:1031A800344D0030305A00FFFF08000400FFFF00D4
:1031B8000000000000000000000000000000000007
:1031C80000000000000000000000000000000000F7
:1031D80000000000000000000000000000000000E7
:1031E8000000000000000000000000000020001F98
:1031F800001E001D001C001B001A001900180017F3
:103208000016001500140013001200110010000F22
:10321800000E000D000C000B000A00090008000752
:10322800000600050004000300020001000100027E
:103238000003000400050006000700080009000A52
:10324800000B000C000D000E000F00100011001202
:103258000013001400150016001700180019001AB2
:0D326800001B001C001D001E001F002000A8
:103276000E01C59B5A0E056E2E0E066EFBEC1EF059
:103286000E01C599220E056E3A0E066EF6EC1EF07C
:10329600080E9F6E900E9D6E240E9E6EA00E9B6E67
:1032A600030E9C6E010E9C6E580E056E3E0E066E4B
:1032B60005EC1FF0420E056E3E0E066E00EC1FF08A
:1032C600480E056E3E0E066E0AEC1FF0000E00015B
:1032D600B16F000EB56F000EB46F100EBB6F000E0F
:1032E600596E000EB36F000EB26F0E01C58B120041
:1032F600310E00017D6FFB0E7E6F8BC07FF08CC0A0
:1033060080F08DC081F08EC082F02BEC1EF0000E96
:10331600566E000E556EADEF19F08B515524056EA5
:103326008C515620066EFF0E076ECDEC1CF03F0E3C
:1033360000017D6FFD0E7E6F8B5155247F6F8C5182
:103346005620806F8DC081F08EC082F02BEC1EF06F
:10335600554A562A00018D51555C8E515658D8A0B3
:10336600B7EF19F0B9EF19F090EF19F012000E014E
:10337600C59F9A0E056E2D0E066EE2EC1EF00E012E
:10338600C59D520E056E390E066EDDEC1EF0080E5A
:103396000E019F6F900E9D6F240E9E6FA00E9B6F69
:1033A600010E9C6F560E056E3E0E066EECEC1EF080
:1033B600280E056E3E0E066EE7EC1EF03C0E056E00
:1033C6003E0E066EF1EC1EF0000E0001B66F000E0A
:1033D600BA6F000EB96F200EBC6F000E5A6E000E4B
:1033E600B86F000EB76F0E01C58F1200FFEF19F010
:1033F600054A062A074A082A05C0D9FF06C0DAFF89
:10340600DF50096E07C0F6FF08C0F7FFF86A08002C
:10341600F5500918D8A412EF1AF014EF1AF020EF9D
:103426001AF005C0D9FF06C0DAFFDF50D8A41EEF98
:103436001AF020EF1AF0FBEF19F005C0D9FF06C00D
:10344600DAFFDF50096E07C0F6FF08C0F7FFF86A1B
:103456000800F550095C056E066AD8A0060612003B
:103466001BEC1FF0B0EC1EF00009D8B43DEF1AF0CB
:103476003FEF1AF035EF1AF0000E0C6E000E0B6ED1
:103486005DEF1AF0D8900B34D96E0C34DA6E065014
:10349600D9260750DA22DF5002EC1BF0D3EC1EF0DF
:1034A6000009D8B459EF1AF05BEF1AF051EF1AF091
:1034B6000B4A0C2A08500B5C0C50800A0A6E095005
:1034C600800A0A58D8A06AEF1AF06CEF1AF045EF96
:1034D6001AF01200540E00017D6FFF0E7E6F2BEC6A
:1034E6001EF0000E566E000E556E7E0E00017D6FAC
:1034F600FE0E7E6F55C07FF056C080F0D8905534D2
:10350600D96E5634DA6E000ED926030EDA22DECFD5
:1035160081F0DDCF82F02BEC1EF0554A562A56BEBE
:103526009EEF1AF0565009E1200E555CD8A09EEF8A
:103536001AF0A0EF1AF078EF1AF0120079C053F0E3
:103546007AC054F0000E0101B26F000EB16FBFEFEA
:103556001AF077C049F078C04AF0530E4B6E000E51
:103566004C6E7BC04DF07CC04EF095EC00F049509F
:103576000101B1274A50B22353C0F6FF54C0F7FFEA
:10358600F86A0800F5500009D8A4CCEF1AF0CEEF7F
:103596001AF0ACEF1AF0B1C177F0B2C178F01200B0
:1035A6000BC00FF00CC010F009C011F00AC012F0E9
:1035B6000F500D6E10500E6E0F4A102A0DC0F6FFFA
:1035C6000EC0F7FF000EF86E11C0D9FF12C0DAFF69
:1035D600114A122A0E0EF76403D00800F55005D0E2
:1035E600F6CFE9FFF7CFEAFFEF50DF6EDF50D8A442
:1035F600FFEF1AF001EF1BF0DBEF1AF01200056E79
:103606000001BB51D8B40AEF1BF00CEF1BF003EF1F
:103616001BF00E01C5B912EF1BF014EF1BF018EFEB
:103626001BF005C09AFF2EEF1BF0C599A10E0001F5
:10363600B525D96EDA6A010EDA2205C0DFFFB52B91
:103646000F0EB56529EF1BF02BEF1BF02DEF1BF0CE
:10365600000EB56FBB070E01C58912009F0E0D6ED9
:10366600FF0E0E6E0BC00FF00CC010F00D500F26A3
:103676000E50102210500AE11A0E0F5CD8A046EF29
:103686001BF049EF1BF0010E4AEF1BF0000E116E06
:10369600126A11501210D8B453EF1BF055EF1BF0FD
:1036A6005BEF1BF05F0E0B140B6E0C6A5FEF1BF0EB
:1036B6000BC00BF00CC00CF01200056E0001BC51E3
:1036C600D8B468EF1BF06AEF1BF061EF1BF00E0138
:1036D600C5BD70EF1BF072EF1BF076EF1BF005C057
:1036E6009AFE8CEF1BF0C59D840E0001BA25D96E9B
:1036F600DA6A020EDA2205C0DFFFBA2B1F0EBA65A0
:1037060087EF1BF089EF1BF08BEF1BF0000EBA6FF3
:10371600BC070E01C58D12000001B751D8B496EF53
:103726001BF098EF1BF08FEF1BF0810EB825D96EBA
:10373600DA6A010EDA22DF50B66F640EB825D96E4A
:10374600DA6A020EDA22DF50056EB82B1F0EB86554
:10375600AFEF1BF0B1EF1BF0B3EF1BF0000EB86F2D
:103766000E01C59F0001B7070E01C58F0550120057
:103776000001B251D8B4C2EF1BF0C4EF1BF0BBEF8F
:103786001BF0800EB325D96EDA6A030EDA22DF50FB
:10379600B16F640EB325D96EDA6A040EDA22DF50F1
:1037A600056EB32B630EB365DBEF1BF0DDEF1BF08D
:1037B600DFEF1BF0000EB36F0E01C59B0001B207D1
:1037C6000E01C58B05501200010E0B6E200E05185A
:1037D6000610D8B4F1EF1BF0F3EF1BF00CEF1CF062
:1037E600F70E076EFF0E086E05C009F006C00AF058
:1037F6000750092608500A220A5009E1050E095CFD
:10380600D8A008EF1CF00AEF1CF00CEF1CF0000E1D
:103816000B6E0BC005F0066A120005C007F006C065
:1038260008F018EF1CF0054A062A05C0F6FF06C088
:10383600F7FF000EF86E0E0EF76403D00800F55081
:1038460005D0F6CFE9FFF7CFEAFFEF500009D8A47D
:103856002FEF1CF031EF1CF016EF1CF00750055C43
:10386600056E08500658066E1200000E066E000E13
:10387600056E000E066E000E056ED8900534D96EE4
:103886000634DA6E410ED926010EDA22FF0EDE6EFE
:10389600FF0EDD6E054A062A06BE5BEF1CF00650DB
:1038A60009E1200E055CD8A05BEF1CF05DEF1CF073
:1038B60040EF1CF01200000E066E000E056E000EA4
:1038C600066E000E056E000E0524D96E020E062049
:1038D600DA6EFF0EDF6E054A062A06BE7CEF1CF086
:1038E600065009E1630E055CD8A07CEF1CF07EEF64
:1038F6001CF066EF1CF0000E0001AE6F000EAD6FFF
:103906001200000E076E000E066E000E076E000E09
:10391600066E98EF1CF0000E0624D96E040E0720E2
:10392600DA6EFF0EDF6E064A072A0001AB51065C0F
:103936000750800A056EAC51800A0558D8A0A6EF3C
:103946001CF0A8EF1CF08EEF1CF01200200E0001F8
:10395600BC61B0EF1CF0B2EF1CF0CAEF1CF0840E95
:10396600B925D96EDA6A020EDA22DF500E019A6F95
:103976000001B92B1F0EB965C3EF1CF0C5EF1CF093
:10398600C7EF1CF0000EB96FBC2BCCEF1CF00E017C
:10399600C59D1200000EF2BE010E086E0650030B06
:1039A6007F6E05C07EFF07C080FF3F0E81168184B3
:1039B600F29E550E826EAA0E826E818281B2E6EF6B
:1039C6001CF0E8EF1CF0E1EF1CF0819408B002D087
:1039D600F29E01D0F28E1200000E166E000E156ECB
:1039E60000EF1DF014C007F0086A12C009F013C0FA
:1039F6000AF0E4EC17F0154A162A15501024D96E71
:103A060016501120DA6EDF50146E1450D8A40EEF43
:103A16001DF010EF1DF0F5EF1CF01200100E000166
:103A2600BB6118EF1DF01AEF1DF030EF1DF0A10E6F
:103A3600B425D96EDA6A010EDA22DF509A6EB42BFB
:103A46000F0EB46529EF1DF02BEF1DF02DEF1DF0C5
:103A5600000EB46FBB2B32EF1DF00E01C59912009C
:103A660018BE40EF1DF0185006E11704D8B03EEF1F
:103A76001DF040EF1DF04EEF1DF017C019F018C0F5
:103A86001AF0191E1A1E194A1A2A19C017F01AC056
:103A960018F052EF1DF017C017F018C018F01200FA
:103AA6005265766973696F6E0000000000000000C1
:103AB6000000000050617274204E756D62657200E0
:103AC600000000000000000053657269616C204E22
:103AD600756D626572000000000000009F0E076EA3
:103AE600FF0E086E200E0510096E000E06100A6EF7
:103AF6000750092608500A220A500AE11A0E095CE4
:103B0600D8A088EF1DF08BEF1DF0010E8CEF1DF095
:103B1600000E056E066A12000001B051D8A496EF99
:103B26001DF098EF1DF0A2EF1DF0010EB06F440ED0
:103B36007D6FFF0E7E6F2BEC1EF0AAEF1DF0000EC0
:103B4600B06F330E7D6FFF0E7E6F2BEC1EF01200F2
:103B56009F0E076EFF0E086E05C009F006C00AF03C
:103B66000750092608500A220A500AE11A0E095C73
:103B7600D8A0C0EF1DF0C3EF1DF0010EC4EF1DF07D
:103B8600000E056E066A1200BF0E076EFF0E086E67
:103B960005C009F006C00AF00750092608500A2297
:103BA6000A500AE11A0E095CD8A0DCEF1DF0DFEF1F
:103BB6001DF0010EE0EF1DF0000E056E066A120004
:103BC600D00E076EFF0E086E05C009F006C00AF09B
:103BD6000750092608500A220A500AE10A0E095C13
:103BE600D8A0F8EF1DF0FBEF1DF0010EFCEF1DF065
:103BF600000E056E066A1200640E5A24D96EDA6A41
:103C0600020EDA2299CEDFFF5A2A1F0E5A640EEFF1
:103C16001EF010EF1EF012EF1EF0000E5A6E00019D
:103C2600B72B1200640E5924D96EDA6A040EDA2212
:103C360099CFDFFF592A630E596424EF1EF026EF51
:103C46001EF028EF1EF0000E596E0001B22B120076
:103C56007F0E0001896F000E8A6F000E776F000ECF
:103C6600786F7DC079F07EC07AF0890E7B6F000E8A
:103C76007C6FA1EC1AF0120013C005F014C006F018
:103C860010EC1CF005501324096E065014200A6E21
:103C960015C00BF016C00CF0D3EC1AF0120005504C
:103CA6000702F3CF09F0F4CF0AF005500802F350EB
:103CB6000A2606500702F3500A2609C005F00AC074
:103CC60006F01200000E0E01E16F000EE26F000E0C
:103CD600E36F000EE46F000EE56F000EE66F120054
:103CE60027EC1FF065EC1EF02FEC18F098EC1EF098
:103CF6003BEC19F0BAEC19F012000001B751D8A448
:103D060087EF1EF08AEF1EF0010E8BEF1EF0000EFD
:103D160012000650030B7F6E05C07EFF3F0E811614
:103D2600818000F000F080501200600E0E01D86F06
:103D3600000EDA6F000EDC6F060EDE6F000EDD6F12
:103D460012000001B251D8A4ABEF1EF0AEEF1EF088
:103D5600010EAFEF1EF0000E12000001BB51D8A4F9
:103D6600B7EF1EF0BAEF1EF0010EBBEF1EF0000E0D
:103D760012000001BC51D8A4C3EF1EF0C6EF1EF01E
:103D8600010EC7EF1EF0000E12000E019EB3CEEF1D
:103D96001EF0D1EF1EF0010ED2EF1EF0000E120043
:103DA6009EB2D8EF1EF0DBEF1EF0010EDCEF1EF028
:103DB600000E120005C0F6F106C0F7F1120005C0AC
:103DC600F4F106C0F5F1120005C0ECF106C0EDF104
:103DD600120005C0EEF106C0EFF1120005C0EAF1CF
:103DE60006C0EBF1120005C0F2F106C0F3F11200B5
:103DF60005C0F0F106C0F1F1120005C0E6F106C0FB
:103E0600E7F1120005C0E8F106C0E9F1120005C0AD
:103E1600E4F106C0E5F11200066E065060EC1BF0F8
:103E260012000E019D999D891200869083961200BC
:103E3600868083861200FFEC1DF012009D989D88F7
:103E4600120015EC1EF01200F29A1200FF0012008A
:043E56001200120044
:10FAB000004E616D653A20257320204D42416464FB
:10FAC000726573733A2030782530347820202064B2
:10FAD0006174616565416464723A20307825303420
:10FAE000782020204E756D42797465733A2025691F
:10FAF000200D0A000D44616E20616E642053616D1B
:10FB00002773204D6F64627573204750494F20451D
:10FB10007870616E73696F6E202D204150303030E7
:10FB200037303132352D303120526576202D0D0A97
:10FB300000436C656172696E6720454550524F4DB8
:10FB40002066726F6D20416464726573733A203071
:10FB500078253034782C204E756D20427974657389
:10FB60003A202569200D0A002020203078313020ED
:10FB70002D205772697465204D756C7469706C65C1
:10FB80002052656769737465727320284D6178200F
:10FB9000333278203136626974290D0A0A00436FC6
:10FBA0006D706C6574656420416464696E67207271
:10FBB00078446174612042756666657220746F20B6
:10FBC0004D6F646275734461746120417272617932
:10FBD0000D0A0A0020202030783033202D20526575
:10FBE0006164204D756C7469706C6520526567693D
:10FBF000737465727320284D617820333278203118
:10FC000036626974290D0A00436F6D70696C656412
:10FC1000206F6E2025732061742025732062792067
:10FC20005843382076657273696F6E2025750D0A0A
:10FC30000A00456E7465722063617264202573202A
:10FC4000286D61782025692063686172616374653D
:10FC50007273293A2000637263486967683A2030FA
:10FC6000782530327820206372634C6F773A2030E9
:10FC7000782530327820200D0A0044656C204669D2
:10FC800072737420436861722C206E6F7720636FEB
:10FC90006E7461696E73202573200D0A00496E69C8
:10FCA00074616C69736174696F6E20436F6D706C01
:10FCB000657465202D2052656164790D0A0A000D76
:10FCC0000A456E74657265643A202573200D0A201A
:10FCD000436F6E6669726D2020597C4E3F3A20005A
:10FCE0004D6F64446174436E743A202569204578F1
:10FCF00070657465644279746573202569200D0A06
:10FD0000004D6F64627573204461746120436170BB
:10FD10007475726520436F6D706C6574653A0D0A79
:10FD200000454550524F4D3A2030782530327820EA
:10FD30004164643A20307825303278200D0A00433F
:10FD40006C65617220307825303478204E756D42B4
:10FD50007974653A20202569200D0A000D0A205685
:10FD6000616C69646174696E6720436F6D6D616E6B
:10FD7000643A202573200D0A0046756E6374696F1E
:10FD80006E20436F64657320537570706F72746575
:10FD9000643A0D0A004D6F6444617461436E7420CF
:10FDA00073697474696E672061742025690D0A0A8D
:10FDB000004D6F6462757320526573706F6E73656A
:10FDC00020436F756E742025693A0D0A00556E73D5
:10FDD0007570706F727465642046756E6374696FB8
:10FDE0006E20436F64650D0A00590D0A53617669F0
:10FDF0006E672053657269616C204E756D62657225
:10FE0000200D0A0043686172203078253032782056
:10FE1000696E20307825303278200D0A00202020AD
:10FE2000427974652025303269203A2030782530B7
:10FE30003278200D0A0053657269616C204E756D31
:10FE40006265722053617665642E200D0A004D6F45
:10FE50006462757320527820476F6F6420476F6F1C
:10FE6000642E0D0A0A00536F6D657468696E672011
:10FE7000696E2045535541525431200D0A00526598
:10FE8000673A20256920446174613A203078253032
:10FE90003478200D0A0020202042797465202569DD
:10FEA000203A20307825303278200D0A00436172E4
:10FEB0006420416464726573732E2030783035207D
:10FEC0000D0A0046756E6374696F6E20436F64653A
:10FED00020307831300D0A0043617264205365721E
:10FEE000204E6F2E202573200D0A00536176696E17
:10FEF00067204361726420446174610D0A004D6F94
:10FF000064627573205278204261642E0D0A0A00E3
:10FF1000416E616C6F67756520496E707574730D05
:10FF20000A004E756D2043686172733A202569207E
:10FF30000D0A0044656275672044697361626C65EF
:10FF4000640D0A00446562756720456E61626C65E8
:10FF5000640D0A00557064617465644D423430303C
:10FF6000200D0A00526561643A20307825303278DD
:10FF7000200D0A00436F6D70696C652054696D65D2
:10FF80000D0A00436F6D70696C6520446174650DE6
:10FF90000A00436F6D70696C6572205665720D0AB8
:10FFA0000043697263756974204765740D0A0053D4
:10FFB000657269616C204E6F2E0D0A004D617220D2
:10FFC000313920323032310050617274204E6F2E40
:10FFD0000D0A005265766973696F6E0D0A0031393A
:10FFE0003A30373A30380073657269616C00646585
:10FFF000627567007061727400726576003F000080
:020000040020DA
:10000000FF0FFF0FFF0FFF0FFF0FFF0FFF0FFF0F80
:020000040030CA
:0C000000ECFFFFFF9FFFFFFFFFFFFFFF73
:00000001FF
