:020000040000FA
:0400000093EF00F08A
:100008005B82FACF01F0FBCF02F0D9CF03F0DACF51
:1000180004F0F2AC12EF00F014EF00F089EF00F0FA
:100028000E01C5AD1AEF00F01CEF00F032EF00F042
:10003800CDAD21EF00F023EF00F032EF00F002D851
:1000480030EF00F00500FA6E0001F751FD6EF8512F
:10005800FE6EFF6AFA50120089EF00F0C5AF37EF65
:1000680000F039EF00F04FEF00F0CDAF3EEF00F0B9
:1000780040EF00F04FEF00F002D84DEF00F0050020
:10008800FA6E0001F551FD6EF651FE6EFF6AFA50E8
:10009800120089EF00F0C5A954EF00F056EF00F008
:1000A8006CEF00F0CDA95BEF00F05DEF00F06CEFB6
:1000B80000F002D86AEF00F00500FA6E0001F35173
:1000C800FD6EF451FE6EFF6AFA50120089EF00F0DF
:1000D800C5AB71EF00F073EF00F089EF00F0CDAB26
:1000E80078EF00F07AEF00F089EF00F002D887EFA0
:1000F80000F00500FA6E0001F151FD6EF251FE6E3E
:10010800FF6AFA50120089EF00F004C0DAFF03C05A
:10011800D9FF02C0FBFF01C0FAFF5B921100A7EFF5
:0201280011F0D4
:100F000000455553415254205265616420436F6D32
:100F1000706C6574652E0D0A0A004279746520258F
:100F2000692E2056616C3A20307825303278200DB9
:100F30000A00496E6974616C697365640D0A0A0080
:010F400000B0
:100F42004BC0D9FF4CC0DAFFDECFF6FFDDCFF7FF93
:100F5200F86A0800F550250AD8A4B2EF07F0B4EFFA
:100F620007F0B7EF09F04BC0D9FF4CC0DAFFDE2A19
:100F7200000EDD22000E0001AB6F000EAA6FAAC0A8
:100F820057F0ABC058F0AC69AD69000ECF6F000EE0
:100F9200CE6F13EF08F057804BC0D9FF4CC0DAFF79
:100FA200DE2A000EDD2213EF08F05782CDEF07F0A4
:100FB2005784CDEF07F05786CDEF07F05788CDEF76
:100FC20007F0000ECF6F010ECE6F13EF08F04BC08B
:100FD200D9FF4CC0DAFFDECFF6FFDDCFF7FFF86AAC
:100FE2000800F5504F6E506A5050000AD8B4FCEF1A
:100FF20007F0E2EF07F04F50200AD8B4DCEF07F019
:10100200030AD8B4DFEF07F0080AD8B4D9EF07F023
:10101200060AD8B4CCEF07F01D0AD8B4D6EF07F011
:10102200E2EF07F0CE51CF11D8B41AEF08F01CEF5F
:1010320008F0E8EF07F057A021EF08F023EF08F0DF
:1010420024EF08F057924BC0D9FF4CC0DAFFDECF35
:10105200F6FFDDCFF7FFF86A0800F5502A0AD8A498
:1010620035EF08F037EF08F060EF08F04BC0D9FF1A
:101072004CC0DAFFDE2A000EDD224DC0D9FF4EC081
:10108200DAFFDFCF4FF0020EDE26DFCF50F0000E88
:10109200DD224FC0D9FF50C0DAFFDECFAAF0DDCF8C
:1010A200ABF0ABBF59EF08F057EF08F0A5EF08F02F
:1010B2005780AA6DAB1FD8B0AB2BA5EF08F04BC081
:1010C200D9FF4CC0DAFFDECF0CF0DDCF0DF0AFEC74
:1010D2000CF00CC0AAF00DC0ABF077EF08F04BC0DB
:1010E200D9FF4CC0DAFFDE2A000EDD22D00E4F6E91
:1010F200FF0E506E4BC0D9FF4CC0DAFFDECFF6FFB9
:10110200DDCFF7FFF86A0800F550516E526A4F5072
:1011120051265050522252500AE10A0E515CD8A078
:1011220095EF08F098EF08F0010E99EF08F0000E25
:101132000001D06FD16BD051D111D8A4A3EF08F028
:10114200A5EF08F070EF08F04BC0D9FF4CC0DAFFF2
:10115200DECFF6FFDDCFF7FFF86A0800F550640A2C
:10116200D8B4B6EF08F0B8EF08F0CBEF08F04BC0F8
:10117200D9FF4CC0DAFFDECFF6FFDDCFF7FFF86A0A
:101182000800F550690AD8A4C9EF08F0CBEF08F0BF
:101192000BEF09F04BC0D9FF4CC0DAFFDE2A000E7C
:1011A200DD224DC0D9FF4EC0DAFFDFCF4FF0020E75
:1011B200DE26DFCF50F0000EDD224FC0D9FF50C037
:1011C200DAFFDECFBEF0DDCFBFF0000EBFBFFF0EF5
:1011D200C06FC16FC26FC36FC46FC56F49C022F0C9
:1011E2004AC023F0BEC024F0BFC025F0C0C026F024
:1011F200C1C027F0C2C028F0C3C029F0C4C02AF081
:10120200C5C02BF0D4EC09F022C049F023C04AF04B
:10121200D3EF09F04BC0D9FF4CC0DAFFDECFF6FFA7
:10122200DDCFF7FFF86A0800F550780AD8B41CEF52
:1012320009F01EEF09F031EF09F04BC0D9FF4CC0A5
:10124200DAFFDECFF6FFDDCFF7FFF86A0800F550D0
:10125200580AD8A42FEF09F031EF09F080EF09F016
:101262004BC0D9FF4CC0DAFFDECFF6FFDDCFF7FF70
:10127200F86A0800F5CFD2F04BC0D9FF4CC0DAFFB4
:10128200DE2A000EDD224DC0D9FF4EC0DAFFDFCFCD
:101292004FF0020EDE26DFCF50F0000EDD224FC0EF
:1012A200D9FF50C0DAFFDECF51F0DDCF52F051C08E
:1012B200C6F052C0C7F0C86BC96BCA6BCB6BCC6BA4
:1012C200CD6B49C022F04AC023F0C6C024F0C7C08B
:1012D20025F0C8C026F0C9C027F0CAC028F0CBC08C
:1012E20029F0CCC02AF0CDC02BF0D2C02CF044ECB7
:1012F2000BF022C049F023C04AF0D3EF09F04BC0F3
:10130200D9FF4CC0DAFFDECFF6FFDDCFF7FFF86A78
:101312000800F550250AD8A491EF09F093EF09F0DF
:10132200AAEF09F04BC0D9FF4CC0DAFFDE2A000E4B
:10133200DD22000E086E250E076E49C009F04AC074
:101342000AF066EC10F0000E4A6E010E496ED3EF01
:1013520009F04BC0D9FF4CC0DAFFDE2A000EDD22B5
:10136200000E4A6E000E496ED3EF09F04BC0D9FF52
:101372004CC0DAFFDECFF6FFDDCFF7FFF86A0800D8
:10138200F550076E086A49C009F04AC00AF066ECD7
:1013920010F04BC0D9FF4CC0DAFFDE2A000EDD226E
:1013A200A4EF09F0120024C03CF025C03DF026C095
:1013B2003EF027C03FF028C040F029C041F02AC0CB
:1013C20042F02BC043F043BEE9EF09F0ECEF09F025
:1013D200010EEDEF09F0000E3A6E3B6A3A503B10F7
:1013E200D8B4F6EF09F0F8EF09F008EF0AF0431E5F
:1013F200421E411E401E3F1E3E1E3D1E3C6C000E04
:101402003D223E223F22402241224222432200012B
:10141200ADBF0EEF0AF010EF0AF011EF0AF057928B
:10142200ADBF1EEF0AF0AD5106E1AC05D8B01CEF1E
:101432000AF01EEF0AF024EF0AF0000E376E010EDA
:10144200366E28EF0AF0ACC036F0ADC037F0AAC055
:1014520038F0ABC039F03A503B10D8A433EF0AF061
:1014620035EF0AF03CEF0AF057A43AEF0AF03CEFEE
:101472000AF03FEF0AF03806D8A03906000E456E92
:101482001F0E446E000E01011F6FC4EF0AF04406E6
:10149200D8A04506000E4424D96E010E4520DA6E0E
:1014A2003CC005F03DC006F03EC007F03FC008F06A
:1014B20040C009F041C00AF042C00BF043C00CF03A
:1014C2000A0E0D6E000E0E6E000E0F6E000E106EE6
:1014D200000E116E000E126E000E136E000E146ED0
:1014E20040EC0EF005C02CF006C02DF007C02EF027
:1014F20008C02FF009C030F00AC031F00BC032F042
:101502000CC033F02CC017F02EC018F044EC13F0CE
:101512001750300FDF6E3606D8A037063806D8A02F
:1015220039063CC005F03DC006F03EC007F03FC0A2
:1015320008F040C009F041C00AF042C00BF043C0BD
:101542000CF00A0E0D6E000E0E6E000E0F6E000EE7
:10155200106E000E116E000E126E000E136E000E53
:10156200146E7CEC0DF005C03CF006C03DF007C0E7
:101572003EF008C03FF009C040F00AC041F00BC085
:1015820042F00CC043F045BECFEF0AF0455008E1EF
:101592004404D8A0CFEF0AF0D1EF0AF001EF0BF02C
:1015A2003C503D103E103F1040104110421043107D
:1015B200D8A4DEEF0AF0E0EF0AF048EF0AF037BEF7
:1015C200EDEF0AF0375006E13604D8B0EBEF0AF03F
:1015D200EDEF0AF048EF0AF039BEF8EF0AF03950A1
:1015E20008E13804D8A0F8EF0AF0FAEF0AF001EFA8
:1015F2000BF057B2FFEF0AF001EF0BF048EF0AF0E1
:101602003A503B10D8A408EF0BF00AEF0BF011EFA1
:101612000BF057A40FEF0BF011EF0BF02FEF0BF0C5
:101622004406D8A045063A503B10D8A41BEF0BF055
:101632001DEF0BF023EF0BF0000E356E2B0E346E08
:1016420027EF0BF0000E356E2D0E346E000E442483
:10165200D96E010E4520DA6E34C0DFFF22C017F0CA
:1016620023C018F0000E4424196E010E45201A6E94
:1016720038C01BF039C01CF0F2EC0EF017C022F09B
:1016820018C023F012000001ADBF4AEF0BF04CEF7F
:101692000BF04DEF0BF05792ADBF5AEF0BF0AD517F
:1016A20006E1AC05D8B058EF0BF05AEF0BF060EF43
:1016B2000BF0000E3A6E010E396E64EF0BF0ACC007
:1016C20039F0ADC03AF0AAC03BF0ABC03CF057A82D
:1016D2006DEF0BF06FEF0BF073EF0BF0FE0E3B268E
:1016E200FF0E3C2224C03DF025C03EF026C03FF054
:1016F20027C040F028C041F029C042F02AC043F080
:101702002BC044F0000E466E1F0E456E000E010106
:101712001F6F3FEF0CF04506D8A046060F0E3D1492
:10172200476E486A48BE9FEF0BF0485009E10A0E27
:10173200475CD8A09FEF0BF0A1EF0BF0A9EF0BF0E5
:10174200570E4724476E000E4820486EAFEF0BF04D
:10175200300E4724476E000E4820486EBF0E2D6E95
:10176200FF0E2E6E2C502F6E306A2D502F262E50CB
:10177200302230500AE11A0E2F5CD8A0C3EF0BF0D2
:10178200C6EF0BF0010EC7EF0BF0000E356E366A96
:1017920035503610D8B4D0EF0BF0D2EF0BF002EF89
:1017A2000CF09F0E2D6EFF0E2E6E200E47102F6E28
:1017B200000E4810306E2D502F262E503022305001
:1017C2000AE11A0E2F5CD8A0E9EF0BF0ECEF0BF058
:1017D200010EEDEF0BF0000E376E386A37503810FD
:1017E200D8B4F6EF0BF0F8EF0BF002EF0CF047C0B5
:1017F2000BF048C00CF008EC12F00BC047F00CC024
:1018020048F0000E4524D96E010E4620DA6E47C01C
:10181200DFFF3906D8A03A063B06D8A03C063DC0F9
:101822002DF03EC02EF03FC02FF040C030F041C03E
:1018320031F042C032F043C033F044C034F0050E00
:101842002CEF0CF0D8903432333232323132303223
:101852002F322E322D32E82E23EF0CF02DC03DF028
:101862002EC03EF02FC03FF030C040F031C041F0FA
:1018720032C042F033C043F034C044F046BE4BEFB6
:101882000CF0465009E1020E455CD8A04BEF0CF07B
:101892004DEF0CF07DEF0CF03D503E103F1040102C
:1018A2004110421043104410D8A45AEF0CF05CEFE0
:1018B2000CF08CEF0BF03ABE69EF0CF03A5006E1F7
:1018C2003904D8B067EF0CF069EF0CF08CEF0BF035
:1018D2003CBE74EF0CF03C5008E13B04D8A074EF1E
:1018E2000CF076EF0CF07DEF0CF057B27BEF0CF0C2
:1018F2007DEF0CF08CEF0BF057A882EF0CF084EF29
:101902000CF09AEF0CF04506D8A04606000E4524CE
:10191200D96E010E4620DA6E2CC0DFFF4506D8A034
:101922004606000E4524D96E010E4620DA6E300EB0
:10193200DF6E22C017F023C018F0000E4524196E86
:10194200010E46201A6E3BC01BF03CC01CF0F2ECAC
:101952000EF017C022F018C023F01200000E1A6E0B
:10196200000E196E000E136E000E126EBBEF0CF01D
:101972000C4A0D2A010E186E0CC0F6FF0DC0F7FFBF
:10198200F86A0800F550200AD8B4CAEF0CF0CCEF80
:101992000CF0EAEF0CF0F70E0E6EFF0E0F6E0CC09D
:1019A200F6FF0DC0F7FFF86A0800F550106E116AD5
:1019B2000E5010260F501122115009E1050E105C35
:1019C200D8A0E6EF0CF0E8EF0CF0EAEF0CF0000E16
:1019D200186E18C014F0156A14501510D8A4F4EF3C
:1019E2000CF0F6EF0CF0B9EF0CF000EF0DF0000E7A
:1019F200136E010E126E0C4A0D2A37EF0DF00CC059
:101A0200F6FF0DC0F7FFF86A0800F5500E6E0F6A78
:101A12000F50000AD8B410EF0DF037EF0DF00E5052
:101A22002B0AD8B4FCEF0CF0060AD8B4F8EF0CF08D
:101A320037EF0DF019C005F01AC006F0000E086E5F
:101A42000A0E076E31EC14F00CC0F6FF0DC0F7FF62
:101A5200F86A0800F550055E000E065A300E05249D
:101A6200196E000E06201A6EFCEF0CF0D00E0E6EF0
:101A7200FF0E0F6E0CC0F6FF0DC0F7FFF86A0800EC
:101A8200F550106E116A0E5010260F50112211508F
:101A92000AE10A0E105CD8A051EF0DF054EF0DF0E0
:101AA200010E55EF0DF0000E166E176A1650171044
:101AB200D8A45EEF0DF060EF0DF01BEF0DF01250A9
:101AC2001310D8A467EF0DF069EF0DF077EF0DF06A
:101AD20019C00EF01AC00FF00E1E0F1E0E4A0F2A6A
:101AE2000EC00CF00FC00DF07BEF0DF019C00CF022
:101AF2001AC00DF01200000E166E14BE85EF0DF026
:101B020083EF0DF097EF0DF0141E131E121E111E1F
:101B1200101E0F1E0E1E0D6C000E0E220F22102222
:101B22001122122213221422010E166E0CBE9EEFF7
:101B32000DF09CEF0DF0B0EF0DF00C1E0B1E0A1E07
:101B4200091E081E071E061E056C000E062207222D
:101B5200082209220A220B220C22010E161A20EE5A
:101B620017F0070EDE6AE806FDE20D500E100F10A8
:101B720010101110121013101410D8B4C3EF0DF07E
:101B8200C5EF0DF017EF0EF0010E156ED3EF0DF04D
:101B9200D8900D360E360F361036113612361336F1
:101BA2001436152A14AED8EF0DF0DAEF0DF0C9EFA6
:101BB2000DF0D8901736183619361A361B361C36E1
:101BC2001D361E360D50055C0E5006580F50075834
:101BD200105008581150095812500A5813500B58F7
:101BE20014500C58D8A0F8EF0DF0FAEF0DF00BEFEF
:101BF2000EF00D50055E0E50065A0F50075A105047
:101C0200085A1150095A12500A5A13500B5A1450BA
:101C12000C5A1780D8901432133212321132103209
:101C22000F320E320D32152EDAEF0DF01650D8B4F7
:101C32001DEF0EF01FEF0EF02FEF0EF01E1E1D1EF9
:101C42001C1E1B1E1A1E191E181E176C000E1822AF
:101C520019221A221B221C221D221E2217C005F045
:101C620018C006F019C007F01AC008F01BC009F02E
:101C72001CC00AF01DC00BF01EC00CF01200000EBA
:101C8200166E0CBE49EF0EF047EF0EF05BEF0EF052
:101C92000C1E0B1E0A1E091E081E071E061E056CC0
:101CA200000E06220722082209220A220B220C22F7
:101CB200010E166E14BE62EF0EF060EF0EF072EFC0
:101CC2000EF0141E131E121E111E101E0F1E0E1ECB
:101CD2000D6C000E0E220F2210221122122213224C
:101CE20014220D500E100F1010101110121013109C
:101CF2001410D8B47FEF0EF081EF0EF0C9EF0EF0A2
:101D0200010E156E8FEF0EF0D8900D360E360F368F
:101D120010361136123613361436152A14AE94EFD5
:101D22000EF096EF0EF085EF0EF00D50055C0E50A2
:101D320006580F50075810500858115009581250A1
:101D42000A5813500B5814500C58D8A0ABEF0EF091
:101D5200ADEF0EF0BDEF0EF00D50055E0E50065ABF
:101D62000F50075A1050085A1150095A12500A5A65
:101D720013500B5A14500C5AD89014321332123298
:101D8200113210320F320E320D32152E96EF0EF046
:101D92001650D8B4CFEF0EF0D1EF0EF0E1EF0EF007
:101DA2000C1E0B1E0A1E091E081E071E061E056CAF
:101DB200000E06220722082209220A220B220C22E6
:101DC20005C005F006C006F007C007F008C008F01D
:101DD20009C009F00AC00AF00BC00BF00CC00CF0ED
:101DE200120057A0F7EF0EF0F9EF0EF003EF0FF02D
:101DF20019C010F01AC011F017C012F018C013F079
:101E0200DFEC12F01CBE08EF0FF00AEF0FF010EF3C
:101E12000FF01BC020F01CC021F014EF0FF0000ED9
:101E2200216E000E206E000E1F6E000E1E6E26EF3B
:101E32000FF0000E086E200E076E17C009F018C0D2
:101E42000AF066EC10F01E4A1F2A20501E5C1F503A
:101E5200800A1D6E2150800A1D58D8A033EF0FF062
:101E620035EF0FF01AEF0FF057B03AEF0FF03CEFEB
:101E72000FF046EF0FF019C010F01AC011F017C0A2
:101E820012F018C013F0DFEC12F019C005F01AC0FE
:101E920006F0D6EC13F020500524176E21500620D0
:101EA200186E1200900E5A24D96EDA6A000EDA22E7
:101EB200000EDF6E0E019DA561EF0FF063EF0FF0D4
:101EC20077EF0FF0900E5A24D96EDA6A000EDA22FA
:101ED2000001DF8202D877EF0FF00500FA6EEF51B2
:101EE200FD6EF051FE6EFF6AFA5012000E019DA3C4
:101EF2007DEF0FF07FEF0FF093EF0FF0900E5A246B
:101F0200D96EDA6A000EDA220001DF8402D893EF7A
:101F12000FF00500FA6EED51FD6EEE51FE6EFF6A96
:101F2200FA501200900E5A24D96EDA6A000EDA22A2
:101F3200DF50D8B49FEF0FF0A1EF0FF0B0EF0FF02A
:101F420002D8AEEF0FF00500FA6E0001EB51FD6E04
:101F5200EC51FE6EFF6AFA501200B2EF0FF0F1EC94
:101F620013F01200600E5924D96EDA6A000EDA22DA
:101F7200000EDF6E9DA4C0EF0FF0C2EF0FF0D6EFA0
:101F82000FF0600E5924D96EDA6A000EDA220001CF
:101F9200DF8202D8D6EF0FF00500FA6EE951FD6E2E
:101FA200EA51FE6EFF6AFA5012009DA2DBEF0FF0BB
:101FB200DDEF0FF0F1EF0FF0600E5924D96EDA6AFF
:101FC200000EDA220001DF8402D8F1EF0FF00500E3
:101FD200FA6EE751FD6EE851FE6EFF6AFA5012008A
:101FE200600E5924D96EDA6A000EDA22DF50D8B4B4
:101FF200FDEF0FF0FFEF0FF00EEF10F002D80CEF35
:1020020010F00500FA6E0001E551FD6EE651FE6E1C
:10201200FF6AFA50120010EF10F007EC14F01200F1
:102022005FEC14F0F28EF28C8398839A839C839EE9
:10203200320E0001D96F0F0EDA6F1DEC14F0BFECF7
:1020420014F023EC13F0D8EC11F078EC14F0000942
:10205200D8B42EEF10F030EF10F026EF10F0000E93
:102062000001AF6F000EAE6F4DEF10F066EC12F094
:10207200566E200E0001AE25D96E010EAF21DA6E2A
:1020820056C0DFFF340E566EF20EE82EFED7562EE5
:10209200FCD70001AE4BAF2B78EC14F00009D8A4AA
:1020A20055EF10F057EF10F037EF10F0010E00016E
:1020B200D96F0F0EDA6F1DEC14F0D8EC11F023EC8F
:1020C20013F026EF10F093EF00F009500A10D8B485
:1020D2006DEF10F06FEF10F078EF10F009500A106A
:1020E200D8A476EF10F078EF10F07DEF10F00750E3
:1020F200B6EC14F0B0EF10F020EE04F00950D9263F
:102102000A50DA22DE50DE10D8B48AEF10F08CEFDB
:1021120010F0A7EF10F020EE04F00950D9260A5073
:10212200DA2210EE02F00950E1260A50E222DE50D5
:10213200E65CE650800A0F6EDE50800A0F58D8B077
:10214200A5EF10F0A7EF10F0B0EF10F020EE02F0C4
:102152000950D9260A50DA22DE2A000EDD221200A8
:10216200000E876E000E866E000E836E000E846E69
:10217200000E856E070E8C6E070E886EBF0E896E7E
:10218200BF0E8A6EFE0E8B6E0F0126693B0E216F0B
:10219200370E196F070E2E6F1169000E256F000E94
:1021A2002D6F000E186F000E106F000E206F000EC4
:1021B2002C6F000E0F6F000E176F000E1F6F000EB8
:1021C200246F0E6916691E692369070E2B6F0D694C
:1021D20015691D6922690F0E2A6F170E0E01B56F60
:1021E2000B0EF56F090EFD6F0F0E8D6F12000E01B3
:1021F200C59FA60E056E1E0E066E89EC14F00E012A
:10220200C59D760E056E250E066E84EC14F0080E42
:102212000E019F6F900E9D6F240E9E6F400E9B6F5E
:10222200030E9C6F9C0E056E290E066E93EC14F045
:10223200760E056E290E066E8EEC14F0840E056E77
:10224200290E066E98EC14F0000E0001B96F000E14
:10225200BD6F000EBC6F080EFA6F000E5A6E000EB4
:10226200BB6F000EBA6F0E01C58F12000E01C59B27
:10227200660E056E1F0E066EA2EC14F00E01C599D5
:10228200020E056E260E066E9DEC14F0080E9F6E71
:10229200900E9D6E240E9E6E400E9B6E030E9C6EE3
:1022A2009E0E056E290E066EACEC14F08A0E056EBB
:1022B200290E066EA7EC14F0900E056E290E066E1E
:1022C200B1EC14F0000E0001B46F000EB86F000EF6
:1022D200B76F100EF96F000E596E000EB66F000E3A
:1022E200B56F0E01C58B1200D5C053F0D6C054F0A5
:1022F200000E0001A96F000EA86F93EF11F0D3C07A
:1023020049F0D4C04AF0530E4B6E000E4C6ED7C04B
:102312004DF0D8C04EF0A1EC07F049500001A827BB
:102322004A50A92353C0F6FF54C0F7FFF86A0800C9
:10233200F5500009D8A4A0EF11F0A2EF11F080EF40
:1023420011F0A8C0D3F0A9C0D4F01200A40EF66E0A
:10235200280EF76E000EF86E01EE20F010EE1AF065
:102362000900F5CFEEFFE550E150FAE19A0EF66E64
:10237200290EF76E000EF86E0900F5CFFBF009008A
:10238200F5CFFCF001EE00F0200EEE6AE806FDE16A
:1023920000EE60F05E0EEE6AE806FDE15A6A596AE6
:1023A200586A576A5B905B92000111EF10F0000EC1
:1023B2000001E46F000EE36F000EE46F000EE36FA6
:1023C2001A0ED96F0F0EDA6FE3C0DBF0E4C0DCF057
:1023D200200EE325D96E010EE421DA6EDF50556E30
:1023E2005550DD6FDE6B1DEC14F00001E34BE42B66
:1023F200E4BF05EF12F0E45109E1320EE35DD8A02B
:1024020005EF12F007EF12F0E1EF11F012009F0E4C
:102412000D6EFF0E0E6E0BC00FF00CC010F00D50C3
:102422000F260E50102210500AE11A0E0F5CD8A08F
:102432001DEF12F020EF12F0010E21EF12F0000E4C
:10244200116E126A11501210D8B42AEF12F02CEF4A
:1024520012F032EF12F05F0E0B140B6E0C6A36EFB5
:1024620012F00BC00BF00CC00CF01200056E000154
:10247200FA51D8B43FEF12F041EF12F038EF12F0F8
:102482000E01C5BD47EF12F049EF12F04DEF12F009
:1024920005C09AFE63EF12F0C59DA00E0001BD2596
:1024A200D96EDA6A000EDA2205C0DFFFBD2B070EF5
:1024B200BD655EEF12F060EF12F062EF12F0000EF7
:1024C200BD6FFA070E01C58D12000001B551D8B4D7
:1024D2006DEF12F06FEF12F066EF12F0600EB6259C
:1024E200D96EDA6A000EDA22DF50B46F700EB625AA
:1024F200D96EDA6A000EDA22DF50056EB62B0F0EA5
:10250200B66586EF12F088EF12F08AEF12F0000E35
:10251200B66F0E01C59B0001B5070E01C58B0550B4
:102522001200010E0B6E200E05180610D8B49CEF97
:1025320012F09EEF12F0B7EF12F0F70E076EFF0ED9
:10254200086E05C009F006C00AF0075009260850B7
:102552000A220A5009E1050E095CD8A0B3EF12F075
:10256200B5EF12F0B7EF12F0000E0B6E0BC005F0D4
:10257200066A1200080E0001FA61C2EF12F0C4EFFF
:1025820012F0DCEF12F0A00EBC25D96EDA6A000E52
:10259200DA22DF500E019A6F0001BC2B070EBC65D8
:1025A200D5EF12F0D7EF12F0D9EF12F0000EBC6F98
:1025B200FA2BDEEF12F00E01C59D1200000E166E10
:1025C200000E156EF0EF12F014C007F0086A12C088
:1025D20009F013C00AF066EC10F0154A162A1550DD
:1025E2001024D96E16501120DA6EDF50146E14507A
:1025F200D8A4FEEF12F000EF13F0E5EF12F0120094
:10260200100E0001F96108EF13F00AEF13F020EF4A
:1026120013F0800EB725D96EDA6A000EDA22DF5087
:102622009A6EB72B0F0EB76519EF13F01BEF13F06D
:102632001DEF13F0000EB76FF92B22EF13F00E010E
:10264200C5991200000E066E000E056E000E066E93
:10265200000E056E200E0524D96E010E0620DA6EDC
:10266200FF0EDF6E054A062A06BE41EF13F0065042
:1026720009E1320E055CD8A041EF13F043EF13F0ED
:102682002BEF13F0120018BE51EF13F0185006E1B1
:102692001704D8B04FEF13F051EF13F05FEF13F0C0
:1026A20017C019F018C01AF0191E1A1E194A1A2A50
:1026B20019C017F01AC018F063EF13F017C017F023
:1026C20018C018F012009F0E076EFF0E086E200E43
:1026D2000510096E000E06100A6E075009260850F2
:1026E2000A220A500AE11A0E095CD8A07BEF13F005
:1026F2007EEF13F0010E7FEF13F0000E056E066AF7
:1027020012009F0E076EFF0E086E05C009F006C08C
:102712000AF00750092608500A220A500AE11A0E46
:10272200095CD8A097EF13F09AEF13F0010E9BEF1C
:1027320013F0000E056E066A1200BF0E076EFF0E42
:10274200086E05C009F006C00AF0075009260850B5
:102752000A220A500AE11A0E095CD8A0B3EF13F05C
:10276200B6EF13F0010EB7EF13F0000E056E066A16
:102772001200D00E076EFF0E086E05C009F006C0EB
:102782000AF00750092608500A220A500AE10A0EE6
:10279200095CD8A0CFEF13F0D2EF13F0010ED3EF04
:1027A20013F0000E056E066A120005C007F006C09F
:1027B20008F0DEEF13F0054A062A05C0D9FF06C06D
:1027C200DAFFDF50D8A4E8EF13F0EAEF13F0DCEF02
:1027D20013F00750055C056E08500658066E12008D
:1027E200980E5A24D96EDA6A000EDA2299CEDFFFE9
:1027F2005A2A070E5A6400EF14F002EF14F004EFA5
:1028020014F0000E5A6E0001BA2B1200700E5924F9
:10281200D96EDA6A000EDA2299CFDFFF592A0F0E3B
:10282200596416EF14F018EF14F01AEF14F0000EBA
:10283200596E0001B52B1200DB0E0001E16F000E94
:10284200E26F000ED36F000ED46FD9C0D5F0DAC09C
:10285200D6F0E10ED76F000ED86F75EC11F01200B2
:1028620005500702F3CF09F0F4CF0AF00550080231
:10287200F3500A2606500702F3500A2609C005F053
:102882000AC006F01200000E0E01E16F000EE26FA8
:10289200000EE36F000EE46F000EE56F000EE66FB0
:1028A2001200CCCCCCCCCCCCCCCCCCCCCCCCCCCCEC
:1028B200CC110306AE415652434049ADCBEC14F065
:1028C20044EC14F0B1EC10F06CEC14F037EC11F0B5
:1028D200F8EC10F01200600E0E01D86F000EDA6FE5
:1028E200000EDC6F060EDE6F000EDD6F12000001BF
:1028F200B551D8A47FEF14F082EF14F0010E83EFEC
:1029020014F0000E120005C0F7F006C0F8F0120035
:1029120005C0F5F006C0F6F0120005C0EDF006C0E5
:10292200EEF0120005C0EFF006C0F0F0120005C094
:10293200EBF006C0ECF0120005C0F3F006C0F4F0B4
:10294200120005C0F1F006C0F2F0120005C0E7F077
:1029520006C0E8F0120005C0E9F006C0EAF0120075
:1029620005C0E5F006C0E6F01200066E065037EC30
:1029720012F012000E019D999D8912008690839695
:102982001200F1EC13F012009D989D88120007ECE2
:0E29920014F01200F29A12005A001200120005
:020000040020DA
:10000000FF0FFF0FFF0FFF0FFF0FFF0FFF0FFF0F80
:020000040030CA
:0C000000ECFFFFFF9FFFFFFFFFFFFFFF73
:00000001FF
