:020000040000FA
:0400000093EF00F08A
:100008005B82FACF01F0FBCF02F0D9CF03F0DACF51
:1000180004F0F2AC12EF00F014EF00F089EF00F0FA
:100028000E01C5AD1AEF00F01CEF00F032EF00F042
:10003800CDAD21EF00F023EF00F032EF00F002D851
:1000480030EF00F00500FA6E0101EB51FD6EEC5146
:10005800FE6EFF6AFA50120089EF00F0C5AF37EF65
:1000680000F039EF00F04FEF00F0CDAF3EEF00F0B9
:1000780040EF00F04FEF00F002D84DEF00F0050020
:10008800FA6E0101E951FD6EEA51FE6EFF6AFA50FF
:10009800120089EF00F0C5A954EF00F056EF00F008
:1000A8006CEF00F0CDA95BEF00F05DEF00F06CEFB6
:1000B80000F002D86AEF00F00500FA6E0101E7517E
:1000C800FD6EE851FE6EFF6AFA50120089EF00F0EB
:1000D800C5AB71EF00F073EF00F089EF00F0CDAB26
:1000E80078EF00F07AEF00F089EF00F002D887EFA0
:1000F80000F00500FA6E0101E551FD6EE651FE6E55
:10010800FF6AFA50120089EF00F004C0DAFF03C05A
:10011800D9FF02C0FBFF01C0FAFF5B9211008EEF0E
:100128001BF0000E0001976F000ED86F000ED76FFE
:10013800570ED725D96E020ED821DA6E00C1DFFF1F
:10014800D74BD82B570ED725D96E020ED821DA6E89
:1001580001C1DFFFD74BD82B01010551020D570E06
:100168000001D725D96E020ED821DA6EF3CFDFFF52
:10017800D74BD82BC1EF04F0C40E7D6FFD0E7E6FF8
:100188003DEC26F0010102510001906F8F6B0101D7
:10019800055104C191F00001926B91C092F0916BEE
:1001A8009127000E92238F5191279051922301019C
:1001B800035100019127000E922392BFE6EF00F051
:1001C800E8EF00F011EF01F0010102510001906F1A
:1001D8008F6B0101055104C191F00001926B91C030
:1001E80092F0916B9127000E92238F519127905195
:1001F80092230101035100019127000E922392BF1F
:100208000FEF01F0925109E1210E915DD8A00FEF97
:1002180001F011EF01F0ECEF04F07E0E7D6FF70EA8
:100228007E6F3DEC26F0370E00017D6FFD0E7E6F70
:10023800010102510001906F8F6B01010351000110
:100248008F257F6F0101000E00019021806F010151
:1002580004510001926F916B0101035102C193F0A7
:100268000001946B93C094F0936B9327000E942332
:10027800915193279251942301010551000193252F
:10028800816F0101000E00019421826F3DEC26F080
:10029800010E0001976FECEF04F0970E7D6FFE0ED4
:1002A8007E6F3DEC26F0010102510001906F8F6BCB
:1002B8000101055104C191F00001926B91C092F0C7
:1002C800916B9127000E92238F5191279051922381
:1002D8000101035100019127000E922392BF7BEF89
:1002E80001F09205D8A07BEF01F07DEF01F0A6EFB9
:1002F80001F0010102510001906F8F6B010105515E
:1003080004C191F00001926B91C092F0916B91271A
:10031800000E92238F51912790519223010103518E
:1003280000019127000E922392BFA4EF01F0090E5D
:10033800915D010E9259D8A0A4EF01F0A6EF01F04B
:10034800ECEF04F0820E7D6FF80E7E6F3DEC26F028
:10035800370E00017D6FFD0E7E6F01010251000115
:10036800906F8F6B0101035100018F257F6F010191
:10037800000E00019021806F010104510001926F6D
:10038800916B0101035102C193F00001946B93C07A
:1003980094F0936B9327000E9423915193279251D5
:1003A80094230101055100019325816F0101000E7D
:1003B80000019421826F3DEC26F04CEF01F0C10E54
:1003C8007D6FFE0E7E6F3DEC26F0010102510001AB
:1003D800906F8F6B0101055104C191F00001926B80
:1003E80091C092F0916B9127000E92238F51912723
:1003F800905192230101035100019127000E92238D
:1004080092BF0EEF02F0020E925DD8A00EEF02F03E
:1004180010EF02F038EF02F0010102510001906F75
:100428008F6B0101055104C191F00001926B91C0DD
:1004380092F0916B9127000E92238F519127905142
:1004480092230101035100019127000E922392BFCC
:1004580036EF02F09105020E9259D8A036EF02F05D
:1004680038EF02F0ECEF04F0610E7D6FF90E7E6F4D
:100478003DEC26F0370E00017D6FFD0E7E6F010109
:1004880002510001906F8F6B0101035100018F250C
:100498007F6F0101000E00019021806F010104515E
:1004A8000001926F916B0101035102C193F00001A9
:1004B800946B93C094F0936B9327000E94239151FF
:1004C8009327925194230101055100019325816FCF
:1004D8000101000E00019421826F3DEC26F04CEFE3
:1004E80001F03F0E7D6FFE0E7E6F3DEC26F00101A0
:1004F80002510001906F8F6B0101055104C191F009
:100508000001926B91C092F0916B9127000E92239B
:100518008F51912790519223010103510001912796
:10052800000E922392BFA0EF02F0030E925DD8A0B6
:10053800A0EF02F0A2EF02F0CBEF02F001010251AE
:100548000001906F8F6B0101055104C191F000010A
:10055800926B91C092F0916B9127000E92238F516C
:100568009127905192230101035100019127000E18
:10057800922392BFC9EF02F0050E915D030E9259C6
:10058800D8A0C9EF02F0CBEF02F0ECEF04F01A0E9E
:100598007D6FF80E7E6F3DEC26F0370E00017D6F03
:1005A800FD0E7E6F010102510001906F8F6B0101FA
:1005B800035100018F257F6F0101000E000190217A
:1005C800806F010104510001926F916B0101035189
:1005D80002C193F00001946B93C094F0936B93273E
:1005E800000E9423915193279251942301010551B0
:1005F80000019325816F0101000E00019421826F93
:100608003DEC26F04CEF01F0F60E7D6FFD0E7E6F8F
:100618003DEC26F0010102510001906F8F6B010142
:10062800055104C191F00001926B91C092F0916B59
:100638009127000E92238F51912790519223010107
:10064800035100019127000E922392BF33EF03F06C
:10065800040E925DD8A033EF03F035EF03F05EEFA0
:1006680003F0010102510001906F8F6B01010551E8
:1006780004C191F00001926B91C092F0916B9127A7
:10068800000E92238F51912790519223010103511B
:1006980000019127000E922392BF5CEF03F0060E33
:1006A800915D040E9259D8A05CEF03F05EEF03F061
:1006B800ECEF04F04E0E7D6FF80E7E6F3DEC26F0E9
:1006C800370E00017D6FFD0E7E6F010102510001A2
:1006D800906F8F6B0101035100018F257F6F01011E
:1006E800000E00019021806F010104510001926FFA
:1006F800916B0101035102C193F00001946B93C007
:1007080094F0936B9327000E942391519327925161
:1007180094230101055100019325816F0101000E09
:1007280000019421826F3DEC26F04CEF01F0DD0EC4
:100738007D6FFD0E7E6F3DEC26F001010251000138
:10074800906F8F6B0101055104C191F00001926B0C
:1007580091C092F0916B9127000E92238F519127AF
:10076800905192230101035100019127000E922319
:1007780092BFC6EF03F0050E925DD8A0C6EF03F056
:10078800C8EF03F0F1EF03F0010102510001906F8F
:100798008F6B0101055104C191F00001926B91C06A
:1007A80092F0916B9127000E92238F5191279051CF
:1007B80092230101035100019127000E922392BF59
:1007C800EFEF03F0040E915D050E9259D8A0EFEFFC
:1007D80003F0F1EF03F0ECEF04F0E60E7D6FF70E97
:1007E8007E6F3DEC26F0370E00017D6FFD0E7E6FAB
:1007F800010102510001906F8F6B0101035100014B
:100808008F257F6F0101000E00019021806F01018B
:1008180004510001926F916B0101035102C193F0E1
:100828000001946B93C094F0936B9327000E94236C
:100838009151932792519423010105510001932569
:10084800816F0101000E00019421826F3DEC26F0BA
:100858004CEF01F0710E7D6FFD0E7E6F3DEC26F0C2
:10086800010102510001906F8F6B0101055104C114
:1008780091F00001926B91C092F0916B9127000E5C
:1008880092238F5191279051922301010351000126
:100898009127000E922392BF59EF04F0060E925D45
:1008A800D8A059EF04F05BEF04F084EF04F00101E5
:1008B80002510001906F8F6B0101055104C191F045
:1008C8000001926B91C092F0916B9127000E9223D8
:1008D8008F519127905192230101035100019127D3
:1008E800000E922392BF82EF04F0030E915D060E74
:1008F8009259D8A082EF04F084EF04F0ECEF04F0F2
:10090800B20E7D6FF70E7E6F3DEC26F0370E0001BC
:100918007D6FFD0E7E6F010102510001906F8F6B9C
:100928000101035100018F257F6F0101000E0001B5
:100938009021806F010104510001926F916B0101B8
:10094800035102C193F00001946B93C094F0936B30
:100958009327000E942391519327925194230101D8
:10096800055100019325816F0101000E00019421BA
:10097800826F3DEC26F04CEF01F0010102510001BD
:100988008F6F906B9051000AD8B4CDEF04F0ECEF64
:1009980004F08F51000AD8B4C0EF00F0010AD8B4AF
:1009A80051EF01F0030AD8B4E3EF01F0010AD8B41B
:1009B80075EF02F0070AD8B408EF03F0010AD8B4BB
:1009C8009BEF03F0030AD8B42EEF04F0ECEF04F029
:1009D8009751D8A4F2EF04F0F4EF04F0DFEF06F03B
:1009E800000E996F000E986F90EF06F0030E01014C
:1009F8000219D8A402EF05F004EF05F035EF05F071
:100A08000351000198258F6F000E9921906FD8909F
:100A18008F379037EA0E8F25D96E000E9021DA6E47
:100A2800DECF91F0DDCF92F09151F66FF76B0101B7
:100A38000351000198258F6F000E9921906FD8906F
:100A48008F379037EA0E8F25D96E000E9021DA6E17
:100A5800DECF91F0DDCF92F09251D56FD66B79EF62
:100A680006F00205D8A43BEF05F03DEF05F06EEF68
:100A780005F00351000198258F6F000E9921906FA2
:100A8800D8908F379037640E8F25D96E010E90213C
:100A9800DA6EDECF91F0DDCF92F09151F66FF76B01
:100AA80001010351000198258F6F000E9921906F65
:100AB800D8908F379037640E8F25D96E010E90210C
:100AC800DA6EDECF91F0DDCF92F09251D56FD66B12
:100AD80079EF06F0020E0219D8A475EF05F077EF4A
:100AE80005F0A8EF05F00351000198258F6F000E5F
:100AF8009921906FD8908F379037FC0E8F25D96E3B
:100B0800000E9021DA6EDECF91F0DDCF92F0915198
:100B1800F66FF76B01010351000198258F6F000EE6
:100B28009921906FD8908F379037FC0E8F25D96E0A
:100B3800000E9021DA6EDECF91F0DDCF92F0925167
:100B4800D56FD66B79EF06F0040E0219D8A4AFEF73
:100B580005F0B1EF05F0E2EF05F00351000198252B
:100B68008F6F000E9921906FD8908F379037720E43
:100B78008F25D96E010E9021DA6EDECF91F0DDCF90
:100B880092F09151F66FF76B01010351000198251E
:100B98008F6F000E9921906FD8908F379037720E13
:100BA8008F25D96E010E9021DA6EDECF91F0DDCF60
:100BB80092F09251D56FD66B79EF06F0050E0219B7
:100BC800D8A4E9EF05F0EBEF05F01CEF06F00351B0
:100BD800000198258F6F000E9921906FD8908F375C
:100BE80090373C0E8F25D96E020E9021DA6EDECF3B
:100BF80091F0DDCF92F09151F66FF76B010103513F
:100C0800000198258F6F000E9921906FD8908F372B
:100C180090373C0E8F25D96E020E9021DA6EDECF0A
:100C280091F0DDCF92F09251D56FD66B79EF06F047
:100C38000251D8A422EF06F024EF06F055EF06F093
:100C48000351000198258F6F000E9921906FD8905D
:100C58008F379037B70E8F25D96E030E9021DA6E35
:100C6800DECF91F0DDCF92F09151F66FF76B010175
:100C78000351000198258F6F000E9921906FD8902D
:100C88008F379037B70E8F25D96E030E9021DA6E05
:100C9800DECF91F0DDCF92F09251D56FD66B79EF20
:100CA80006F0060E0219D8A45CEF06F05EEF06F017
:100CB80079EF06F0000EFAEC25F005C095F006C0B5
:100CC80096F0990E00017D6FFF0E7E6F95C07FF044
:100CD80096C080F03DEC26F000019551F66FF76B59
:100CE8009651D56FD66B79EF06F0570E0001D725D0
:100CF800D96E020ED821DA6ED5C0DFFFD74BD82BBC
:100D0800570ED725D96E020ED821DA6EF6C0DFFF4E
:100D1800D74BD82B984B992B0101055100018F6FA8
:100D2800906B8F51985D9951800A916F9051800A0C
:100D38009159D8A0A2EF06F0A4EF06F0FAEF04F05C
:100D4800D7C005F0D8C006F0010E076EF1EC1CF014
:100D580005C0D5F006C0D6F0D7C005F0D8C006F05B
:100D6800000E076EF1EC1CF005C0F6F006C0F7F0B7
:100D7800570E0001D725D96E020ED821DA6ED5C0DC
:100D8800DFFF580ED725D96E020ED821DA6EF6C0CD
:100D9800DFFF020ED725D76F000ED821D86F570E68
:100DA800066E020E076ED7C008F0D8C009F0BEEC78
:100DB80021F0E5EF06F0000E156E020E146EF3EC4E
:100DC8001EF012004BC0D9FF4CC0DAFFDECFF6FF91
:100DD800DDCFF7FFF86A0800F550250AD8A4F7EF29
:100DE80006F0F9EF06F08EEF09F04BC0D9FF4CC0C2
:100DF800DAFFDE2A000EDD22000E0001D06F000EA1
:100E0800CF6FCFC057F0D0C058F0D169D269000E6B
:100E18006C6F000E6B6F58EF07F057804BC0D9FF0F
:100E28004CC0DAFFDE2A000EDD2258EF07F05782A9
:100E380012EF07F0578412EF07F0578612EF07F00A
:100E4800578812EF07F0000E6C6F010E6B6F58EFAA
:100E580007F04BC0D9FF4CC0DAFFDECFF6FFDDCF7D
:100E6800F7FFF86A0800F5504F6E506A5050000AB4
:100E7800D8B441EF07F027EF07F04F50200AD8B455
:100E880021EF07F0030AD8B424EF07F0080AD8B412
:100E98001EEF07F0060AD8B411EF07F01D0AD8B400
:100EA8001BEF07F027EF07F06B516C11D8B45FEF19
:100EB80007F061EF07F02DEF07F057A066EF07F096
:100EC80068EF07F069EF07F057924BC0D9FF4CC0A5
:100ED800DAFFDECFF6FFDDCFF7FFF86A0800F5503E
:100EE8002A0AD8A47AEF07F07CEF07F0A5EF07F0FD
:100EF8004BC0D9FF4CC0DAFFDE2A000EDD224DC000
:100F0800D9FF4EC0DAFFDFCF4FF0020EDE26DFCF6B
:100F180050F0000EDD224FC0D9FF50C0DAFFDECFFF
:100F2800CFF0DDCFD0F0D0BF9EEF07F09CEF07F0F9
:100F3800EAEF07F05780CF6DD01FD8B0D02BEAEF7B
:100F480007F04BC0D9FF4CC0DAFFDECF0CF0DDCF85
:100F58000DF0BFEC16F00CC0CFF00DC0D0F0BCEF18
:100F680007F04BC0D9FF4CC0DAFFDE2A000EDD22A5
:100F7800D00E4F6EFF0E506E4BC0D9FF4CC0DAFF3B
:100F8800DECFF6FFDDCFF7FFF86A0800F550516EA7
:100F9800526A4F5051265050522252500AE10A0EBE
:100FA800515CD8A0DAEF07F0DDEF07F0010EDEEFB5
:100FB80007F0000E00016D6F6E6B6D516E11D8A4B5
:100FC800E8EF07F0EAEF07F0B5EF07F04BC0D9FFFD
:100FD8004CC0DAFFDECFF6FFDDCFF7FFF86A080076
:100FE800F550640AD8B4FBEF07F0FDEF07F010EFF7
:100FF80008F04BC0D9FF4CC0DAFFDECFF6FFDDCFDB
:10100800F7FFF86A0800F550690AD8A40EEF08F04F
:1010180010EF08F050EF08F04BC0D9FF4CC0DAFFD2
:10102800DE2A000EDD224DC0D9FF4EC0DAFFDFCF29
:101038004FF0020EDE26DFCF50F0000EDD224FC04B
:10104800D9FF50C0DAFFDECF60F0DDCF61F0000ECF
:1010580061BFFF0E626F636F646F656F666F676F66
:1010680049C022F04AC023F060C024F061C025F0D6
:1010780062C026F063C027F064C028F065C029F07C
:1010880066C02AF067C02BF0EBEC0CF022C049F0E8
:1010980023C04AF0AAEF09F04BC0D9FF4CC0DAFFD1
:1010A800DECFF6FFDDCFF7FFF86A0800F550730AC8
:1010B800D8A461EF08F063EF08F08EEF08F04BC09A
:1010C800D9FF4CC0DAFFDE2A000EDD224DC0D9FF61
:1010D8004EC0DAFFDFCF4FF0020EDE26DFCF50F032
:1010E800000EDD224FC0D9FF50C0DAFFDECF68F016
:1010F800DDCF69F049C010F04AC011F068C012F0A5
:1011080069C013F0F2EC15F010C049F011C04AF0B4
:10111800AAEF09F04BC0D9FF4CC0DAFFDECFF6FFCB
:10112800DDCFF7FFF86A0800F550750AD8A49FEFDD
:1011380008F0A1EF08F0E2EF08F04BC0D9FF4CC06F
:10114800DAFFDE2A000EDD224DC0D9FF4EC0DAFFDD
:10115800DFCF4FF0020EDE26DFCF50F0000EDD228B
:101168004FC0D9FF50C0DAFFDECF51F0DDCF52F0CB
:1011780051C06FF052C070F0716B726B736B746B0F
:10118800756B766B49C022F04AC023F06FC024F01B
:1011980070C025F071C026F072C027F073C028F027
:1011A80074C029F075C02AF076C02BF043EC12F019
:1011B80022C049F023C04AF0AAEF09F04BC0D9FF7A
:1011C8004CC0DAFFDECFF6FFDDCFF7FFF86A080084
:1011D800F550780AD8B4F3EF08F0F5EF08F008EF07
:1011E80009F04BC0D9FF4CC0DAFFDECFF6FFDDCFE8
:1011F800F7FFF86A0800F550580AD8A406EF09F076
:1012080008EF09F057EF09F04BC0D9FF4CC0DAFFDF
:10121800DECFF6FFDDCFF7FFF86A0800F5CF6AF0FA
:101228004BC0D9FF4CC0DAFFDE2A000EDD224DC0CC
:10123800D9FF4EC0DAFFDFCF4FF0020EDE26DFCF38
:1012480050F0000EDD224FC0D9FF50C0DAFFDECFCC
:1012580051F0DDCF52F051C06FF052C070F0716B99
:10126800726B736B746B756B766B49C022F04AC0F6
:1012780023F06FC024F070C025F071C026F072C052
:1012880027F073C028F074C029F075C02AF076C022
:101298002BF06AC02CF05BEC0EF022C049F023C0A2
:1012A8004AF0AAEF09F04BC0D9FF4CC0DAFFDECFF5
:1012B800F6FFDDCFF7FFF86A0800F550250AD8A435
:1012C80068EF09F06AEF09F081EF09F04BC0D9FF28
:1012D8004CC0DAFFDE2A000EDD22000E086E250E55
:1012E800076E49C009F04AC00AF063EC20F0000E0E
:1012F8004A6E010E496EAAEF09F04BC0D9FF4CC0E7
:10130800DAFFDE2A000EDD22000E4A6E000E496E5C
:10131800AAEF09F04BC0D9FF4CC0DAFFDECFF6FFC9
:10132800DDCFF7FFF86A0800F550076E086A49C074
:1013380009F04AC00AF063EC20F04BC0D9FF4CC05A
:10134800DAFFDE2A000EDD227BEF09F01200000131
:10135800C06F20EEB5F00A0EDE6AE806FDE2D60E92
:101368000A6EFF0E0B6EB50E0C6E000E0D6E030EA0
:101378000F6E000E0E6E000E116E050E106E44EC10
:1013880013F020EE8FF0120EDE6AE806FDE2EA0E98
:101398000A6EFF0E0B6E8F0E0C6E000E0D6E010E98
:1013A8000F6E000E0E6E000E116E080E106E44ECDD
:1013B80013F0000E0001C46F000EC36FF40E0A6E26
:1013C800FF0E0B6EC30E0C6E000E0D6E020E0F6E2E
:1013D800000E0E6E000E116E010E106E44EC13F02E
:1013E800B30E00017D6FF90E7E6F3DEC26F0FF0E07
:1013F80000017D6FFE0E7E6FB50E7F6F000E806F51
:101408003DEC26F0EB0E00017D6FFE0E7E6F8F0E19
:101418007F6F000E806F3DEC26F0820E00017D6F1D
:10142800FE0E7E6FC30E7F6F000E806F3DEC26F0C0
:10143800560E00017D6FFE0E7E6F3DEC26F00D0E00
:1014480000017D6FF90E7E6FC10E7F6FFF0E806FFA
:10145800CD0E816FFF0E826F080E846F340E836F7E
:101468003DEC26F0000E0001C86F000EC76F22EE9B
:101478004CF010EEA2F00A0EDBCFE3FFE806FCE228
:10148800000ECA6F000EC96FA20EC925D96E000ED4
:10149800CA21DA6EDF50C56F010EC925556E000EE0
:1014A800CA21566EA20E5524D96E000E5620DA6E49
:1014B800DF50C66FC651C5C055F0566A55C056F0C4
:1014C800556A5526000E5622D890C735D96EC835AC
:1014D800DA6E720ED926010EDA2255C0DEFF56C02A
:1014E800DDFFC74BC82B020EC925C96F000ECA21E4
:1014F800CA6FCABF89EF0AF0CA5109E10C0EC95D6B
:10150800D8A089EF0AF08BEF0AF048EF0AF0000E36
:10151800C86F000EC76F21EE7EF010EEADF0070E1B
:10152800DBCFE3FFE806FCE2000ECC6F000ECB6FCA
:10153800AD0ECB25D96E000ECC21DA6EDF50C56F0B
:10154800010ECB25556E000ECC21566EAD0E5524DE
:10155800D96E000E5620DA6EDF50C66FC651C5C070
:1015680055F0566A55C056F0556A5526000E562253
:10157800D890C735D96EC835DA6E3C0ED926020E1A
:10158800DA2255C0DEFF56C0DDFFC74BC82B020E5E
:10159800CB25CB6F000ECC21CC6FCCBFDDEF0AF092
:1015A800CC5109E1080ECB5DD8A0DDEF0AF0DFEFE2
:1015B8000AF09CEF0AF0C005D8B4E5EF0AF0E7EFAF
:1015C8000AF076EF0BF0BC0E7D6FFB0E7E6F3DECE4
:1015D80026F02D0E00017D6FFB0E7E6F3DEC26F090
:1015E800370E00017D6FF90E7E6F3DEC26F0C60EBA
:1015F80000017D6FF40E7E6F3DEC26F0E20E0001D7
:101608007D6FF80E7E6F3DEC26F0BF0E00017D6FFA
:10161800FC0E7E6F3DEC26F08B0E00017D6FF90EFF
:101628007E6F3DEC26F04A0E00017D6FF70E7E6F4F
:101638003DEC26F0070E00017D6FF60E7E6F3DEC47
:1016480026F00F0E00017D6FF50E7E6F3DEC26F043
:10165800150E00017D6FF70E7E6F3DEC26F07B0EB8
:1016680000017D6FF40E7E6F3DEC26F06C0E0001DC
:101678007D6FFE0E7E6F3DEC26F0B60E00017D6F8D
:10168800F80E7E6F3DEC26F0990E00017D6FFA0E84
:101698007E6F3DEC26F0DE0E00017D6FFB0E7E6F47
:1016A8003DEC26F0200E00017D6FFC0E7E6F3DECB8
:1016B80026F0250E00017D6FFF0E7E6F3DEC26F0B3
:1016C800000EFAEC25F005C0C1F006C0C2F0990E74
:1016D80000017D6FFF0E7E6FC1C07FF0C2C080F039
:1016E8003DEC26F01200120E00017D6FFF0E7E6F9A
:1016F8003DEC26F0030E02015819D8A486EF0BF032
:1017080088EF0BF045EF0CF0750E00017D6FFB0EB6
:101718007E6F57C27FF0806B3DEC26F0730E0001A0
:101728007D6FF60E7E6F58C27FF0806B3DEC26F021
:10173800010E00017D6FFA0E7E6F59C27FF0806B3B
:101748003DEC26F0000E0001936F010E926F000E23
:10175800956F000E946F00EF0CF0A90E7D6FF60EDA
:101768007E6F010E94257F6F000E9521806F5A0EB3
:101778009425D96E020E9521DA6EDF508F6F8F5146
:10178800816F826B92C083F093C084F002C185F0B0
:10179800866B0101035100019225906F000E932181
:1017A800916FFF0E9025876FFF0E9121886F3DEC9A
:1017B80026F00001944B952B990E7D6FFB0E7E6FE2
:1017C800010E94257F6F000E9521806F5A0E942587
:1017D800D96E020E9521DA6EDF508F6F8F51816FAF
:1017E800826B92C083F093C084F03DEC26F0000138
:1017F800924B932B944B952B0201595100018F6FFB
:10180800906B8F51945D9551800A916F9051800A29
:101818009159D8A012EF0CF014EF0CF0B1EF0BF0C7
:10182800600E7D6FFC0E7E6F010E94257F6F000E9B
:101838009521806F5A0E9425D96E020E9521DA6E85
:10184800DF508F6F8F51816F826B3DEC26F0800ED9
:1018580000017D6FFC0E7E6F020E94257F6F000ED7
:101868009521806F5B0E9425D96E020E9521DA6E54
:10187800DF508F6F8F51816F826B3DEC26F0E3EF65
:101888000CF0100E5819D8A44CEF0CF04EEF0CF0D9
:10189800A0EF0CF0750E00017D6FFB0E7E6F57C236
:1018A8007FF0806B3DEC26F0730E00017D6FF60E25
:1018B8007E6F58C27FF0806B3DEC26F04D0E000124
:1018C8007D6FFA0E7E6F59C27FF0806B3DEC26F07B
:1018D800730E00017D6FFA0E7E6F5AC27FF0806B27
:1018E8003DEC26F0E30E00017D6FFA0E7E6F5BC2C1
:1018F8007FF0806B3DEC26F0080E00017D6FFB0E3B
:101908007E6F5CC27FF0806B3DEC26F0DD0E00013F
:101918007D6FFC0E7E6F5DC27FF0806B3DEC26F024
:10192800FB0E00017D6FFC0E7E6F5EC27FF0806B48
:101938003DEC26F0E3EF0CF0000E0001956F000E71
:10194800946FD4EF0CF0BAEC26F00009D8B4AFEFDE
:101958000CF0B1EF0CF0A7EF0CF0270E00017D6F33
:10196800FE0E7E6F94C07FF095C080F0570E9425D0
:10197800D96E020E9521DA6EDF508F6F8F51816F0D
:10198800826B3DEC26F0DEEC26F00009D8B4CFEFF0
:101998000CF0D1EF0CF0C7EF0CF00001944B952B35
:1019A800D751945D9551800A8F6FD851800A8F590D
:1019B800D8A0E1EF0CF0E3EF0CF0A7EF0CF0500E1D
:1019C80000017D6FF50E7E6F3DEC26F0120024C0FD
:1019D8003CF025C03DF026C03EF027C03FF028C0AF
:1019E80040F029C041F02AC042F02BC043F043BE6A
:1019F80000EF0DF003EF0DF0010E04EF0DF0000EF7
:101A08003A6E3B6A3A503B10D8B40DEF0DF00FEF29
:101A18000DF01FEF0DF0431E421E411E401E3F1EDB
:101A28003E1E3D1E3C6C000E3D223E223F224022BF
:101A38004122422243220001D2BF25EF0DF027EFB9
:101A48000DF028EF0DF05792D2BF35EF0DF0D251BF
:101A580006E1D105D8B033EF0DF035EF0DF03BEFCF
:101A68000DF0000E376E010E366E3FEF0DF0D1C04F
:101A780036F0D2C037F0CFC038F0D0C039F03A5085
:101A88003B10D8A44AEF0DF04CEF0DF053EF0DF0DA
:101A980057A451EF0DF053EF0DF056EF0DF0380647
:101AA800D8A03906000E456E1F0E446E000E0201C6
:101AB800FC6FDBEF0DF04406D8A04506DD0E44248C
:101AC800D96E020E4520DA6E3CC005F03DC006F026
:101AD8003EC007F03FC008F040C009F041C00AF01E
:101AE80042C00BF043C00CF00A0E0D6E000E0E6ED5
:101AF800000E0F6E000E106E000E116E000E126EAC
:101B0800000E136E000E146E0EEC19F005C02CF0CA
:101B180006C02DF007C02EF008C02FF009C030F025
:101B28000AC031F00BC032F00CC033F02CC017F0F3
:101B38002EC018F04CEC25F01750300FDF6E36062B
:101B4800D8A037063806D8A039063CC005F03DC0F5
:101B580006F03EC007F03FC008F040C009F041C0A1
:101B68000AF042C00BF043C00CF00A0E0D6E000ED6
:101B78000E6E000E0F6E000E106E000E116E000E2F
:101B8800126E000E136E000E146E8CEC17F005C06A
:101B98003CF006C03DF007C03EF008C03FF009C069
:101BA80040F00AC041F00BC042F00CC043F045BE03
:101BB800E6EF0DF0455008E14404D8A0E6EF0DF03B
:101BC800E8EF0DF018EF0EF03C503D103E103F10BE
:101BD8004010411042104310D8A4F5EF0DF0F7EF74
:101BE8000DF05FEF0DF037BE04EF0EF0375006E151
:101BF8003604D8B002EF0EF004EF0EF05FEF0DF0F0
:101C080039BE0FEF0EF0395008E13804D8A00FEFB5
:101C18000EF011EF0EF018EF0EF057B216EF0EF0AF
:101C280018EF0EF05FEF0DF03A503B10D8A41FEFFD
:101C38000EF021EF0EF028EF0EF057A426EF0EF06D
:101C480028EF0EF046EF0EF04406D8A045063A50AD
:101C58003B10D8A432EF0EF034EF0EF03AEF0EF04E
:101C6800000E356E2B0E346E3EEF0EF0000E356E04
:101C78002D0E346EDD0E4424D96E020E4520DA6E28
:101C880034C0DFFF22C017F023C018F0DD0E442453
:101C9800196E020E45201A6E38C01BF039C01CF0B0
:101CA80092EC1EF017C022F018C023F012000001B9
:101CB800D2BF61EF0EF063EF0EF064EF0EF05792B3
:101CC800D2BF71EF0EF0D25106E1D105D8B06FEF57
:101CD8000EF071EF0EF077EF0EF0000E3A6E010E77
:101CE800396E7BEF0EF0D1C039F0D2C03AF0CFC0D8
:101CF8003BF0D0C03CF057A884EF0EF086EF0EF012
:101D08008AEF0EF0FE0E3B26FF0E3C2224C03DF06B
:101D180025C03EF026C03FF027C040F028C041F063
:101D280029C042F02AC043F02BC044F0000E466E92
:101D38001F0E456E000E0201FC6F56EF0FF04506B0
:101D4800D8A046060F0E3D14476E486A48BEB6EF47
:101D58000EF0485009E10A0E475CD8A0B6EF0EF025
:101D6800B8EF0EF0C0EF0EF0570E4724476E000E86
:101D78004820486EC6EF0EF0300E4724476E000E1E
:101D88004820486EBF0E2D6EFF0E2E6E2C502F6E03
:101D9800306A2D502F262E50302230500AE11A0E6C
:101DA8002F5CD8A0DAEF0EF0DDEF0EF0010EDEEFBB
:101DB8000EF0000E356E366A35503610D8B4E7EF9F
:101DC8000EF0E9EF0EF019EF0FF09F0E2D6EFF0EDB
:101DD8002E6E200E47102F6E000E4810306E2D50BC
:101DE8002F262E50302230500AE11A0E2F5CD8A030
:101DF80000EF0FF003EF0FF0010E04EF0FF0000EED
:101E0800376E386A37503810D8B40DEF0FF00FEF2F
:101E18000FF019EF0FF047C00BF048C00CF08AEC38
:101E280022F00BC047F00CC048F0DD0E4524D96EF7
:101E3800020E4620DA6E47C0DFFF3906D8A03A0600
:101E48003B06D8A03C063DC02DF03EC02EF03FC05A
:101E58002FF040C030F041C031F042C032F043C0F2
:101E680033F044C034F0050E43EF0FF0D89034320D
:101E780033323232313230322F322E322D32E82E96
:101E88003AEF0FF02DC03DF02EC03EF02FC03FF0CE
:101E980030C040F031C041F032C042F033C043F0AE
:101EA80034C044F046BE62EF0FF0465009E1020E1E
:101EB800455CD8A062EF0FF064EF0FF094EF0FF0DD
:101EC8003D503E103F104010411042104310441046
:101ED800D8A471EF0FF073EF0FF0A3EF0EF03ABE36
:101EE80080EF0FF03A5006E13904D8B07EEF0FF0DA
:101EF80080EF0FF0A3EF0EF03CBE8BEF0FF03C50DD
:101F080008E13B04D8A08BEF0FF08DEF0FF094EFB2
:101F18000FF057B292EF0FF094EF0FF0A3EF0EF01F
:101F280057A899EF0FF09BEF0FF0B1EF0FF04506B0
:101F3800D8A04606DD0E4524D96E020E4620DA6E7C
:101F48002CC0DFFF4506D8A04606DD0E4524D96E15
:101F5800020E4620DA6E300EDF6E22C017F023C064
:101F680018F0DD0E4524196E020E46201A6E3BC08D
:101F78001BF03CC01CF092EC1EF017C022F018C0F9
:101F880023F01200AC0E00017D6FFE0E7E6F3DEC5B
:101F980026F0030E01010119D8A4D5EF0FF0D7EFF1
:101FA8000FF029EF10F0750E00017D6FFB0E7E6FAC
:101FB80000C17FF0806B3DEC26F0730E00017D6F51
:101FC800F60E7E6F01C17FF0806B3DEC26F04D0E62
:101FD80000017D6FFA0E7E6F02C17FF0806B3DECD1
:101FE80026F0730E00017D6FFA0E7E6F03C17FF03D
:101FF800806B3DEC26F0E30E00017D6FFA0E7E6FDC
:1020080004C17FF0806B3DEC26F0080E00017D6F67
:10201800FB0E7E6F05C17FF0806B3DEC26F0DD0E78
:1020280000017D6FFC0E7E6F06C17FF0806B3DEC7A
:1020380026F0190E00017D6FFD0E7E6F07C17FF03F
:10204800806B3DEC26F024EF11F0100E0119D8A496
:1020580030EF10F032EF10F024EF11F0750E0001A0
:102068007D6FFB0E7E6F00C17FF0806B3DEC26F02C
:10207800D00E00017D6FF50E7E6F01C17FF0806B81
:102088003DEC26F04D0E00017D6FFA0E7E6F02C109
:102098007FF0806B3DEC26F0730E00017D6FFA0E29
:1020A8007E6F03C17FF0806B3DEC26F0E30E0001EC
:1020B8007D6FFA0E7E6F04C17FF0806B3DEC26F0D9
:1020C800080E00017D6FFB0E7E6F05C17FF0806BEF
:1020D8003DEC26F0270E00017D6FFA0E7E6F06C1DB
:1020E8007FF0806B3DEC26F0000E0001956F010E2D
:1020F800946F000E976F070E966FDCEF10F0540E7A
:102108007D6FF50E7E6F96C07FF097C080F0000E51
:102118009625D96E010E9721DA6EDF508F6F8F5199
:10212800816F826B94C083F095C084F002C185F002
:10213800866B0101035100019425906F000E9521D3
:10214800916FFF0E9025876FFF0E9121886F010117
:10215800035100019425926F000E9521936FFF0E95
:102168009225896FFF0E93218A6F3DEC26F00001BE
:10217800964B972B990E7D6FFB0E7E6F96C07FF066
:1021880097C080F0000E9625D96E010E9721DA6E61
:10219800DF508F6F8F51816F826B94C083F095C031
:1021A80084F03DEC26F00001944B952B964B972B31
:1021B800FE0E8F6FFF0E906FDBC091F0DCC092F0C7
:1021C8008F519127905192239151965D9751800A92
:1021D800936F9251800A9359D8A0F5EF10F0F7EF5A
:1021E80010F083EF10F0600E7D6FFC0E7E6F96C0CE
:1021F8007FF097C080F0000E9625D96E010E9721CA
:10220800DA6EDF508F6F8F51816F826B3DEC26F055
:10221800800E00017D6FFC0E7E6F010E96257F6F8C
:10222800000E9721806F010E9625D96E010E972119
:10223800DA6EDF508F6F8F51816F826B3DEC26F025
:10224800720E00017D6FFB0E7E6F3DEC26F01200D2
:10225800000E0001996F000E986F000E946F000E2B
:10226800936F000E956F010102510001906F8F6B03
:102278000101055104C191F00001926B91C092F0E7
:10228800916B9127000E92238F51912790519223A1
:102298000101035100019127000E922392BF5EEFC6
:1022A80011F0925109E1210E915DD8A05EEF11F075
:1022B80060EF11F069EF11F0DF0E7D6FF60E7E6FA3
:1022C8003DEC26F0010E0001956F9551D8A46FEFF3
:1022D80011F071EF11F03CEF12F0000ED86F000E04
:1022E800D76F570ED725D96E020ED821DA6E00C1E6
:1022F800DFFFD74BD82B570ED725D96E020ED82122
:10230800DA6E01C1DFFFD74BD82B570ED725D96E10
:10231800020ED821DA6E02C1DFFFD74BD82B570E39
:10232800D725D96E020ED821DA6E03C1DFFFD74B4D
:10233800D82B570ED725D96E020ED821DA6E04C1D4
:10234800DFFFD74BD82B570ED725D96E020ED821D1
:10235800DA6E05C1DFFFD74BD82B000E976F000E42
:10236800966FEDEF11F0080E9825D96E010E9921A0
:10237800DA6EDF508F6F070E9825D96E010E9921FE
:10238800DA6EDF50906F9051926F916B8F5191255B
:10239800936F000E9221946F020E9825986F000E8D
:1023A8009921996F01010351000196258F6F000E45
:1023B8009721906FD8908F379037640E8F25D96EFC
:1023C800040E9021DA6E93C0DEFF94C0DDFF964BB9
:1023D800972B0101055100018F6F906B8F51965D0E
:1023E8009751800A916F9051800A9159D8A0FFEFB8
:1023F80011F001EF12F0B7EF11F0D7C005F0D8C017
:1024080006F0010E076EF1EC1CF005C0D5F006C011
:10241800D6F0D7C005F0D8C006F0000E076EF1EC74
:102428001CF005C0F6F006C0F7F0570E0001D725DE
:10243800D96E020ED821DA6ED5C0DFFF580ED72527
:10244800D96E020ED821DA6EF6C0DFFF020ED7254C
:10245800D76F000ED821D86F570E066E020E076E82
:10246800D7C008F0D8C009F0BEEC21F042EF12F056
:10247800000E156E020E146EF3EC1EF01200000131
:10248800D2BF49EF12F04BEF12F04CEF12F0579217
:10249800D2BF59EF12F0D25106E1D105D8B057EFAB
:1024A80012F059EF12F05FEF12F0000E356E010EC8
:1024B800346E63EF12F0D1C034F0D2C035F0CFC023
:1024C80036F0D0C037F024C038F025C039F026C027
:1024D8003AF027C03BF028C03CF029C03DF02AC0A4
:1024E8003EF02BC03FF0000E416E1F0E406E000EF6
:1024F8000201FC6FF6EF12F04006D8A04106DD0E8F
:102508004024D96E020E4120DA6E38C005F039C079
:1025180006F03AC007F03BC008F03CC009F03DC0E7
:102528000AF03EC00BF03FC00CF00A0E0D6E000E14
:102538000E6E000E0F6E000E106E000E116E000E65
:10254800126E000E136E000E146EC8EC1DF005C05E
:102558002CF006C02DF007C02EF008C02FF009C0DF
:1025680030F00AC031F00BC032F00CC033F02C5000
:10257800300FDF6E3406D8A035063606D8A03706E9
:1025880038C005F039C006F03AC007F03BC008F083
:102598003CC009F03DC00AF03EC00BF03FC00CF053
:1025A8000A0E0D6E000E0E6E000E0F6E000E106EEF
:1025B800000E116E000E126E000E136E000E146ED9
:1025C8000BEC1CF005C038F006C039F007C03AF033
:1025D80008C03BF009C03CF00AC03DF00BC03EF01B
:1025E8000CC03FF040504110D8B4FDEF12F0FFEF9F
:1025F80012F02FEF13F0385039103A103B103C10FE
:102608003D103E103F10D8A40CEF13F00EEF13F05E
:1026180080EF12F035BE1BEF13F0355006E134049D
:10262800D8B019EF13F01BEF13F080EF12F037BE9C
:1026380026EF13F0375008E13604D8A026EF13F040
:1026480028EF13F02FEF13F057B22DEF13F02FEF01
:1026580013F080EF12F022C017F023C018F0DD0E3F
:102668004024196E020E41201A6E36C01BF037C086
:102678001CF092EC1EF017C022F018C023F01200D4
:10268800000E176E000E166E000E156E000E146EFC
:10269800000E176E000E166E24EF14F00EC005F033
:1026A8000FC006F0A2EC26F0186E030E136E080E8B
:1026B800126E770EE82EFED7122EFCD7132EFAD7FD
:1026C80000F01828D8B46BEF13F06DEF13F077EF24
:1026D80013F014500C24D96E15500D20DA6E18C062
:1026E800DFFF144A152A0E4A0F2A0EC005F00FC044
:1026F80006F0A2EC26F0196E0E4A0F2A030E136E8E
:10270800080E126E770EE82EFED7122EFCD7132E67
:10271800FAD700F01928D8B494EF13F096EF13F015
:10272800A0EF13F014500C24D96E15500D20DA6E5A
:1027380019C0DFFF144A152AD60E056EFF0E066E65
:102748000AC007F00BC008F0B3EC1FF005500610E4
:10275800D8A4B1EF13F0B3EF13F0CCEF13F0195086
:1027680018C012F0136A12C013F0126A1226000E73
:102778001322D8901634D96E1734DA6EEA0ED92699
:10278800000EDA2212C0DEFF13C0DDFF22EF14F0C4
:10279800EA0E056EFF0E066E0AC007F00BC008F0C1
:1027A800B3EC1FF005500610D8A4DDEF13F0DFEFEF
:1027B80013F0F8EF13F0195018C012F0136A12C092
:1027C80013F0126A1226000E1322D8901634D96E0E
:1027D8001734DA6E640ED926010EDA2212C0DEFF33
:1027E80013C0DDFF22EF14F0F40E056EFF0E066E27
:1027F8000AC007F00BC008F0B3EC1FF00550061034
:10280800D8A409EF14F00BEF14F022EF14F01950CC
:1028180018C012F0136A12C013F0126A1226000EC2
:102828001322D8901634D96E1734DA6EFC0ED926D6
:10283800000EDA2212C0DEFF13C0DDFF164A172A87
:102848001050165C1750800A126E1150800A1258E8
:10285800D8A031EF14F033EF14F052EF13F0145006
:102868000C24D96E15500D20DA6E000EDF6E1200A2
:1028780097C09FF098C0A0F0DB0E00017D6FF90EA5
:102888007E6F93C07FF094C080F099C081F09AC0A9
:1028980082F03DEC26F0ED0E096E010E0A6E530E25
:1028A8000B6EF50E0C6E5BEC22F099C08FF09AC09F
:1028B80090F06EEC1AF000018F519011D8B467EFC8
:1028C80014F069EF14F059EF14F0FF0E7D6FFB0E52
:1028D8007E6FED0E7F6F010E806F3DEC26F096EC5B
:1028E80026F00009D8B47BEF14F07DEF14F073EFF5
:1028F80014F045EC23F00001A36F790EA319D8B4A6
:1029080088EF14F08AEF14F093EF14F0590EA3191E
:10291800D8A491EF14F093EF14F00BEF15F08A0E92
:102928007D6FFF0E7E6F93C07FF094C080F03DEC0A
:1029380026F0ED0E056E010E066EEEEC23F005C0D6
:102948009DF006C09EF0380E00017D6FFF0E7E6F71
:102958009DC07FF09EC080F03DEC26F097C08FF0C0
:1029680098C090F099C091F09AC092F017EC23F0BB
:10297800000E0001A26F000EA16FE3EF14F09FC0DC
:1029880005F0A0C006F0ED0EA125D96E010EA2211A
:10299800DA6EDF50076E85EC24F000019F4BA02B08
:1029A800030E00019C6F080E9B6F770EE82EFED772
:1029B8009B2FFCD79C2FFAD70001A14BA22BED0E21
:1029C800056E010E066EEEEC23F005500001A15DC8
:1029D8000650A259D8A0F3EF14F0F5EF14F0C3EFA6
:1029E80014F0A80E7D6FFF0E7E6F93C07FF094C029
:1029F80080F03DEC26F0ED0E096E010E0A6E530EC6
:102A08000B6EF50E0C6E5BEC22F023EF15F04E0EFC
:102A1800A319D8B412EF15F014EF15F01DEF15F047
:102A28006E0EA319D8A41BEF15F01DEF15F023EFB8
:102A380015F0B50E7D6FFF0E7E6F3DEC26F012008F
:102A4800ED0E056E010E066EE40E076EFF0E086EA3
:102A5800B3EC1FF005500610D8A435EF15F037EF8A
:102A680015F03CEF15F08AEC25F0010EF1EF15F0AA
:102A7800ED0E056E010E066EFC0E076EFF0E086E5B
:102A8800B3EC1FF005500610D8A44DEF15F04FEF2A
:102A980015F054EF15F0000EABEC09F039EF15F016
:102AA800ED0E056E010E066EDD0E076EFF0E086E4A
:102AB800B3EC1FF005500610D8A465EF15F067EFCA
:102AC80015F088EF15F022EE28F011EE93F0130EB2
:102AD800DBCFE3FFE806FCE2930E0001936F010EE3
:102AE800946F030E966F000E956F030E986F000E8D
:102AF800976F000E9A6F0A0E996F3CEC14F0010E56
:102B0800ABEC09F039EF15F0ED0E056E010E066E0F
:102B1800EF0E076EFF0E086EB3EC1FF0055006109F
:102B2800D8A499EF15F09BEF15F0BCEF15F022EE45
:102B380014F011EEA7F0130EDBCFE3FFE806FCE27A
:102B4800A70E0001936F010E946F010E966F000E91
:102B5800956F010E986F000E976F000E9A6F100E0A
:102B6800996F3CEC14F0010EABEC09F039EF15F05D
:102B7800ED0E056E010E066EF80E076EFF0E086E5E
:102B8800B3EC1FF005500610D8A4CDEF15F0CFEF29
:102B980015F0F0EF15F022EE00F011EEBBF0130E79
:102BA800DBCFE3FFE806FCE2BB0E0001936F010EEA
:102BB800946F020E966F000E956F020E986F000EBE
:102BC800976F000E9A6F020E996F3CEC14F0010E8D
:102BD800ABEC09F039EF15F0000E120021EE86F08B
:102BE80010EE15F0060EDBCFE3FFE806FCE212C09C
:102BF80020F013C021F020502110D8A406EF16F0C1
:102C080008EF16F00CEF16F0150E206E000E216E70
:102C180020C005F021C006F0EEEC23F005C024F03A
:102C280006C025F0D1C022F0D2C023F023BE1FEF8A
:102C380016F021EF16F036EF16F02450225C2350E0
:102C4800800A146E2550800A1458D8A02EEF16F06A
:102C580030EF16F032EF16F036EF16F022C024F0FF
:102C680023C025F024C022F025C023F0CFC01EF0D9
:102C7800D0C01FF057B043EF16F045EF16F062EFE3
:102C880016F053EF16F0000E086E200E076E10C0F7
:102C980009F011C00AF063EC20F0244A252A1E50DE
:102CA800245C2550800A146E1F50800A1458D8A03E
:102CB80060EF16F062EF16F047EF16F0000E1D6E8B
:102CC800000E1C6E87EF16F020C0F6FF21C0F7FF3C
:102CD800000EF86E0E0EF76403D00800F55005D00C
:102CE800F6CFE9FFF7CFEAFFEF50146E1450076EE6
:102CF800086A10C009F011C00AF063EC20F0204AFD
:102D0800212A1C4A1D2A22501C5C1D50800A146E60
:102D18002350800A1458D8A094EF16F096EF16F0B6
:102D280068EF16F057A09BEF16F09DEF16F0BAEF7C
:102D380016F0ABEF16F0000E086E200E076E10C0EE
:102D480009F011C00AF063EC20F0244A252A1E502D
:102D5800245C2550800A146E1F50800A1458D8A08D
:102D6800B8EF16F0BAEF16F09FEF16F024C010F087
:102D780025C011F01200000E1A6E000E196E000E1A
:102D8800136E000E126ECBEF16F00C4A0D2A010ED0
:102D9800186E0CC0F6FF0DC0F7FFF86A0800F55072
:102DA800200AD8B4DAEF16F0DCEF16F0FAEF16F0D6
:102DB800F70E0E6EFF0E0F6E0CC0F6FF0DC0F7FF7C
:102DC800F86A0800F550106E116A0E5010260F5060
:102DD8001122115009E1050E105CD8A0F6EF16F08B
:102DE800F8EF16F0FAEF16F0000E186E18C014F08F
:102DF800156A14501510D8A404EF17F006EF17F051
:102E0800C9EF16F010EF17F0000E136E010E126ED8
:102E18000C4A0D2A47EF17F00CC0F6FF0DC0F7FF5C
:102E2800F86A0800F5500E6E0F6A0F50000AD8B401
:102E380020EF17F047EF17F00E502B0AD8B40CEF1D
:102E480017F0060AD8B408EF17F047EF17F019C0C3
:102E580005F01AC006F0000E086E0A0E076E64EC44
:102E680026F00CC0F6FF0DC0F7FFF86A0800F55011
:102E7800055E000E065A300E0524196E000E062057
:102E88001A6E0CEF17F0D00E0E6EFF0E0F6E0CC000
:102E9800F6FF0DC0F7FFF86A0800F550106E116ACA
:102EA8000E5010260F50112211500AE10A0E105C24
:102EB800D8A061EF17F064EF17F0010E65EF17F077
:102EC800000E166E176A16501710D8A46EEF17F07A
:102ED80070EF17F02BEF17F012501310D8A477EFFC
:102EE80017F079EF17F087EF17F019C00EF01AC036
:102EF8000FF00E1E0F1E0E4A0F2A0EC00CF00FC048
:102F08000DF08BEF17F019C00CF01AC00DF012007D
:102F1800000E166E14BE95EF17F093EF17F0A7EF9B
:102F280017F0141E131E121E111E101E0F1E0E1E49
:102F38000D6C000E0E220F221022112212221322D3
:102F48001422010E166E0CBEAEEF17F0ACEF17F0A0
:102F5800C0EF17F00C1E0B1E0A1E091E081E071EC6
:102F6800061E056C000E06220722082209220A22E4
:102F78000B220C22010E161A20EE17F0070EDE6A3D
:102F8800E806FDE20D500E100F101010111012106F
:102F980013101410D8B4D3EF17F0D5EF17F027EFAC
:102FA80018F0010E156EE3EF17F0D8900D360E36B7
:102FB8000F3610361136123613361436152A14AE5B
:102FC800E8EF17F0EAEF17F0D9EF17F0D8901736B7
:102FD800183619361A361B361C361D361E360D5055
:102FE800055C0E5006580F500758105008581150DD
:102FF800095812500A5813500B5814500C58D8A09E
:1030080008EF18F00AEF18F01BEF18F00D50055EE6
:103018000E50065A0F50075A1050085A1150095AA4
:1030280012500A5A13500B5A14500C5A1780D89041
:10303800143213321232113210320F320E320D3274
:10304800152EEAEF17F01650D8B42DEF18F02FEF21
:1030580018F03FEF18F01E1E1D1E1C1E1B1E1A1E08
:10306800191E181E176C000E182219221A221B226C
:103078001C221D221E2217C005F018C006F019C018
:1030880007F01AC008F01BC009F01CC00AF01DC0E8
:103098000BF01EC00CF0120038EC27F0C6EC26F03E
:1030A8000009D8B45AEF18F05CEF18F00CEF19F0DB
:1030B8000001DF05D8A463EF18F065EF18F06BEF97
:1030C80018F00F0E7D6FFE0E7E6F3DEC26F0C6ECFD
:1030D80026F00009D8B473EF18F075EF18F0ACEFCC
:1030E80018F09FEF18F071EC23F0566E000E0001F7
:1030F800D925D96E050EDA21DA6E56C0DFFFDF0555
:10310800D8A489EF18F08BEF18F09CEF18F07A0E1E
:103118007D6FFF0E7E6F000ED925D96E050EDA2160
:10312800DA6EDF50566E56507F6F806B3DEC26F09E
:103138000001D94BDA2BC6EC26F00009D8A4A7EF7A
:1031480018F0A9EF18F077EF18F0010E0001DE6F04
:103158000001DE05D8A4B3EF18F0B5EF18F0D1EFF1
:1031680018F05FEC1DF03CEC24F0000E0001DE6F5F
:10317800000EDA6F000ED96F83B8C5EF18F0C8EFEC
:1031880018F0010EC9EF18F0000EFF0A566E563AF5
:1031980083505618EF0B5618836EFA51DB1907E166
:1031A800FB51DC19D8A4DBEF18F0DDEF18F06BEF5A
:1031B80018F083BAE2EF18F0E5EF18F0010EE6EF29
:1031C80018F0000EFF0A566E563A564683505618A7
:1031D800DF0B5618836EC0EC19F0E806D8A4F7EF99
:1031E80018F0F9EF18F002EF19F0BE0E00017D6F2C
:1031F800FA0E7E6F3DEC26F009EF19F0400E000143
:103208007D6FFC0E7E6F3DEC26F0010E0DEF19F080
:10321800000E1200000E166E0CBE17EF19F015EF17
:1032280019F029EF19F00C1E0B1E0A1E091E081EA4
:10323800071E061E056C000E062207220822092218
:103248000A220B220C22010E166E14BE30EF19F062
:103258002EEF19F040EF19F0141E131E121E111E46
:10326800101E0F1E0E1E0D6C000E0E220F221022B5
:1032780011221222132214220D500E100F101010BA
:103288001110121013101410D8B44DEF19F04FEF9D
:1032980019F097EF19F0010E156E5DEF19F0D8903F
:1032A8000D360E360F3610361136123613361436E2
:1032B800152A14AE62EF19F064EF19F053EF19F004
:1032C8000D50055C0E5006580F50075810500858FE
:1032D8001150095812500A5813500B5814500C58D2
:1032E800D8A079EF19F07BEF19F08BEF19F00D509A
:1032F800055E0E50065A0F50075A1050085A1150C2
:10330800095A12500A5A13500B5A14500C5AD89092
:10331800143213321232113210320F320E320D3291
:10332800152E64EF19F01650D8B49DEF19F09FEFE1
:1033380019F0AFEF19F00C1E0B1E0A1E091E081E0D
:10334800071E061E056C000E062207220822092207
:103358000A220B220C2205C005F006C006F007C0A1
:1033680007F008C008F009C009F00AC00AF00BC04D
:103378000BF00CC00CF0120000019A699B69000E5A
:10338800976F000E966F000E996F000E986F000EE3
:103398009D6F000E9C6F00EF1AF0000E9C25D96EF1
:1033A800010E9D21DA6EDF508F6F8F519A1B000E30
:1033B800996F080E986F9AA1E4EF19F0E6EF19F0EB
:1033C800EFEF19F0D8909B339A33010E9A1BA00E99
:1033D8009B1BF2EF19F0D8909B339A339807D8A02B
:1033E800990798519911D8A4FCEF19F0FEEF19F03C
:1033F800DFEF19F09C4B9D2BFE0E8F6FFF0E906F29
:10340800DBC091F0DCC092F08F519127905192234C
:1034180091519C5D9D51800A936F9251800A9359F6
:10342800D8A019EF1AF01BEF1AF0D1EF19F09A5142
:10343800946F956B9AC08FF09BC090F090C08FF0FE
:10344800906B8F51966F976BDF05D8A42EEF1AF00B
:1034580030EF1AF03EEF1AF0510E7D6FFB0E7E6FC3
:1034680094C07FF095C080F096C081F097C082F03C
:103478003DEC26F0000E00019C25D96E010E9D2121
:10348800DA6EDF508F6F906B94518F1907E1955169
:103498009019D8A452EF1AF054EF1AF06CEF1AF002
:1034A800010E9C25D96E010E9D21DA6EDF508F6FBB
:1034B800906B96518F1907E197519019D8A467EF2F
:1034C8001AF069EF1AF06CEF1AF0010E6DEF1AF0AE
:1034D800000E1200F4C055F0F5C056F096EC26F038
:1034E8000009D8B47AEF1AF07CEF1AF0FAEF1AF064
:1034F80096EC26F00009D8B484EF1AF086EF1AF09B
:10350800D6EF1AF045EC23F0556E5550B9EC22F081
:103518000D0E5518D8B493EF1AF095EF1AF09FEFE7
:103528001AF0ED0E136E010E146E550E156E000E88
:10353800166E51EC26F0ED0E056E010E066EEEECE1
:1035480023F0055000018F5D06509059D8B0AFEFB9
:103558001AF0B1EF1AF0C5EF1AF0ED0E096E010E70
:103568000A6EEE0E0B6E010E0C6EED0E056E010E60
:10357800066EEEEC23F005C00DF006C00EF083ECED
:103588001CF00D0E5518D8A4CCEF1AF0CEEF1AF097
:10359800D6EF1AF07A0E556E8FC08FF090C090F06B
:1035A800FFEF1AF00D0E5518D8A4DDEF1AF0DFEF73
:1035B8001AF07CEF1AF0ED0E056E010E066EEEECB9
:1035C80023F0EC0E0524D96E010E0620DA6E000EEB
:1035D800DF6E500E00017D6FF50E7E6F3DEC26F01C
:1035E800ED0E056E010E066EEEEC23F0000E0001E6
:1035F800906F000E8F6F120077EC26F0F28EF28C2F
:103608008398839A839C839E000EABEC09F038EC78
:1036180027F03CEC24F0EBEC24F050EC18F0E80632
:10362800D8A419EF1BF01BEF1BF064EF1BF044EF5D
:103638001BF095EC00F05AEF1BF0D60E00017D6FE1
:10364800FE0E7E6F3DEC26F0A00E00017D6FFC0E95
:103658007E6F3DEC26F0F5EC21F02CEC11F05AEFE2
:103668001BF08D0E00017D6FFD0E7E6F3DEC26F088
:10367800000E156E010E146EF3EC1EF05AEF1BF0DF
:1036880001010151D76FD86BD851000AD8B44FEF58
:103698001BF035EF1BF0D751030AD8B41DEF1BF010
:1036A800130AD8B421EF1BF035EF1BF0C6EC0FF06E
:1036B80077EC0BF016EC24F0EBEC24F011EF1BF098
:1036C800000E0001906F100E8F6F6EEC1AF0000163
:1036D8008F519011D8B473EF1BF075EF1BF08AEF80
:1036E8001BF024EC15F0250E00017D6FFF0E7E6F98
:1036F8003DEC26F0ED0E096E010E0A6E530E0B6EB0
:10370800F50E0C6E5BEC22F011EF1BF011EF1BF0C5
:1037180093EF00F0580EF66E4A0EF76E000EF86E34
:1037280004EE64F010EE40F00900F5CFEEFFE5502E
:10373800E150FAE1180EF66E4A0EF76E000EF86EBA
:1037480003EEB7F010EE40F00900F5CFEEFFE550BC
:10375800E150FAE1240EF66E400EF76E000EF86E98
:1037680002EE00F010EEA2F00900F5CFEEFFE550F2
:10377800E150FAE15C0EF66E410EF76E000EF86E3F
:1037880001EE00F010EE93F00900F5CFEEFFE550E2
:10379800E150FAE1D20EF66E4D0EF76E000EF86E9D
:1037A80000EEEAF010EE14F00900F5CFEEFFE55058
:1037B800E150FAE105EE00F0640EEE6AE806FDE17C
:1037C80004EE00F0640EEE6AE806FDE103EE00F098
:1037D800B70EEE6AE806FDE102EEA2F05B0EEE6AB5
:1037E800E806FDE101EEEDF0100EEE6AE806FDE1F7
:1037F80000EECDF01D0EEE6AE806FDE15A6A596A40
:10380800586A576A5B905B92000100EF1BF020EE4C
:1038180015F0070EDE6AE806FDE20D500E100F10D7
:1038280010101110121013101410D8B41EEF1CF041
:1038380020EF1CF072EF1CF0010E1D6E2EEF1CF035
:10384800D8900D360E360F3610361136123613361E
:1038580014361D2A14AE33EF1CF035EF1CF024EF9C
:103868001CF0D890153616361736183619361A360B
:103878001B361C360D50055C0E5006580F50075865
:10388800105008581150095812500A5813500B5824
:1038980014500C58D8A053EF1CF055EF1CF066EFED
:1038A8001CF00D50055E0E50065A0F50075A105066
:1038B800085A1150095A12500A5A13500B5A1450E8
:1038C8000C5A1580D8901432133212321132103239
:1038D8000F320E320D321D2E35EF1CF015C005F0DB
:1038E80016C006F017C007F018C008F019C009F094
:1038F8001AC00AF01BC00BF01CC00CF012000BC061
:1039080013F00CC014F009C011F00AC012F01150E5
:10391800135C12501458D8B094EF1CF096EF1CF0BA
:10392800CDEF1CF00D5013240F6E0E501420106EA6
:103938000F50115C10501258D8B0A5EF1CF0A7EF2B
:103948001CF0CDEF1CF00D5013260E5014220D5014
:1039580011260E5012221306D8A0140613C0D9FF40
:1039680014C0DAFF1106D8A0120611C0E1FF12C078
:10397800E2FFDFCFE7FF0D06D8A00E060D500E10B0
:10398800D8A4C9EF1CF0CBEF1CF0AFEF1CF0F0EFA0
:103998001CF00D500E10D8B4D4EF1CF0D6EF1CF06C
:1039A800F0EF1CF013C0D9FF14C0DAFF11C0E1FF1B
:1039B80012C0E2FFDFCFE7FF134A142A114A122A86
:1039C8000D06D8A00E060D500E10D8A4EEEF1CF070
:1039D800F0EF1CF0D6EF1CF0120012681368000E0E
:1039E8000D6E000E0C6E000E116E000E106E000EA5
:1039F8000F6E000E0E6E30EF1DF0570E0E24D96EAE
:103A0800020E0F20DA6EDF50086E0850121A000EF0
:103A1800116E080E106E12A014EF1DF016EF1DF0B7
:103A28001FEF1DF0D89013321232010E121AA00E99
:103A3800131A22EF1DF0D890133212321006D8A0B4
:103A4800110610501110D8A42CEF1DF02EEF1DF008
:103A58000FEF1DF00E4A0F2A05500E5C0F50800A1A
:103A6800086E0650800A0858D8A03DEF1DF03FEFB9
:103A78001DF001EF1DF012500A6E0B6A12C008F01B
:103A880013C009F009C008F0096A08500C6E0D6AE5
:103A98000704D8A452EF1DF054EF1DF05AEF1DF0A3
:103AA8000AC005F00BC006F05EEF1DF00CC005F073
:103AB8000DC006F01200000E0001906F000E8F6F0F
:103AC800000E906F000E8F6F7CEF1DF0000E8F259B
:103AD800D96E050E9021DA6E000EDB25E16E010E1F
:103AE800DC21E26EDFCFE7FFDB4BDC2B8F4B902B2B
:103AF800D9518F5D9051800A556EDA51800A555818
:103B0800D8A089EF1DF08BEF1DF06AEF1DF0DF05DF
:103B1800D8A491EF1DF093EF1DF0A4EF1DF03D0E1A
:103B28007D6FF60E7E6F3DEC26F0550E00017D6F21
:103B3800FD0E7E6FDBC07FF0DCC080F03DEC26F030
:103B48000F0E01010119D8A4ACEF1DF0AEEF1DF066
:103B5800B7EF1DF0090E06250001FA6FFB6B000E8A
:103B6800FB23C7EF1DF0100E0119D8A4BEEF1DF0FE
:103B7800C0EF1DF0C2EF1DF0AEEF1DF0000E00010A
:103B8800FB6F080EFA6F12000D500E100F10101078
:103B98001110121013101410D8B4D5EF1DF0D7EF70
:103BA8001DF01FEF1EF0010E156EE5EF1DF0D89009
:103BB8000D360E360F3610361136123613361436C9
:103BC800152A14AEEAEF1DF0ECEF1DF0DBEF1DF047
:103BD8000D50055C0E5006580F50075810500858E5
:103BE8001150095812500A5813500B5814500C58B9
:103BF800D8A001EF1EF003EF1EF013EF1EF00D50DA
:103C0800055E0E50065A0F50075A1050085A1150A8
:103C1800095A12500A5A13500B5A14500C5AD89079
:103C2800143213321232113210320F320E320D3278
:103C3800152EECEF1DF005C005F006C006F007C014
:103C480007F008C008F009C009F00AC00AF00BC064
:103C58000BF00CC00CF01200A20E5A24D96EDA6ACE
:103C6800020EDA22000EDF6E0E019DA53EEF1EF059
:103C780040EF1EF055EF1EF0A20E5A24D96EDA6AF4
:103C8800020EDA220201DF8202D855EF1EF005008B
:103C9800FA6E0101E351FD6EE451FE6EFF6AFA50BF
:103CA80012000E019DA35BEF1EF05DEF1EF072EF98
:103CB8001EF0A20E5A24D96EDA6A020EDA22020126
:103CC800DF8402D872EF1EF00500FA6E0101E1519F
:103CD800FD6EE251FE6EFF6AFA501200A20E5A24DF
:103CE800D96EDA6A020EDA22DF50D8B47EEF1EF0FF
:103CF80080EF1EF08FEF1EF002D88DEF1EF005004A
:103D0800FA6E0101DF51FD6EE051FE6EFF6AFA5056
:103D1800120091EF1EF011EC26F0120057A097EF59
:103D28001EF099EF1EF0A3EF1EF019C010F01AC094
:103D380011F017C012F018C013F0A7EC24F01CBE45
:103D4800A8EF1EF0AAEF1EF0B0EF1EF01BC020F087
:103D58001CC021F0B4EF1EF0000E216E000E206E84
:103D6800000E1F6E000E1E6EC6EF1EF0000E086ECF
:103D7800200E076E17C009F018C00AF063EC20F097
:103D88001E4A1F2A20501E5C1F50800A1D6E21509B
:103D9800800A1D58D8A0D3EF1EF0D5EF1EF0BAEF59
:103DA8001EF057B0DAEF1EF0DCEF1EF0E6EF1EF063
:103DB80019C010F01AC011F017C012F018C013F093
:103DC800A7EC24F019C005F01AC006F0EEEC23F0B9
:103DD80020500524176E21500620186E1200000E80
:103DE8000001D86F000ED76F570ED725D96E020E77
:103DF800D821DA6E00C1DFFFD74BD82B570ED72555
:103E0800D96E020ED821DA6E01010151800FDF6EE2
:103E18000001D74BD82B570ED725D96E020ED821C3
:103E2800DA6E14C0DFFFD74BD82BD7C005F0D8C047
:103E380006F0010E076EF1EC1CF005C0D5F006C0C7
:103E4800D6F0D7C005F0D8C006F0000E076EF1EC2A
:103E58001CF005C0F6F006C0F7F0570E0001D72594
:103E6800D96E020ED821DA6ED5C0DFFF580ED725DD
:103E7800D96E020ED821DA6EF6C0DFFF020ED72502
:103E8800D76F000ED821D86F570E066E020E076E38
:103E9800D7C008F0D8C009F0BEEC21F01200000E1F
:103EA8005924D96EDA6A030EDA22000EDF6E9DA459
:103EB80060EF1FF062EF1FF077EF1FF0000E59243C
:103EC800D96EDA6A030EDA220301DF8202D877EFAD
:103ED8001FF00500FA6E0101DD51FD6EDE51FE6E28
:103EE800FF6AFA5012009DA27CEF1FF07EEF1FF0D0
:103EF80093EF1FF0000E5924D96EDA6A030EDA2206
:103F08000301DF8402D893EF1FF00500FA6E010168
:103F1800DB51FD6EDC51FE6EFF6AFA501200000E96
:103F28005924D96EDA6A030EDA22DF50D8B49FEF2B
:103F38001FF0A1EF1FF0B0EF1FF002D8AEEF1FF097
:103F48000500FA6E0101D951FD6EDA51FE6EFF6A65
:103F5800FA501200B2EF1FF027EC26F01200B9EF6A
:103F68001FF0054A062A074A082A07C0F6FF08C0B4
:103F7800F7FFF86A0800F5CF09F005C0F6FF06C09C
:103F8800F7FF000EF86E0E0EF76403D00800F55028
:103F980005D0F6CFE9FFF7CFEAFFEF500918D8A40C
:103FA800D8EF1FF0DAEF1FF0F3EF1FF005C0F6FFB0
:103FB80006C0F7FF000EF86E0E0EF76403D0080077
:103FC800F55005D0F6CFE9FFF7CFEAFFEF5000092B
:103FD800D8A4F1EF1FF0F3EF1FF0B5EF1FF005C005
:103FE800F6FF06C0F7FF000EF86E0E0EF76403D05A
:103FF8000800F55005D0F6CFE9FFF7CFEAFFEF50FC
:10400800096E07C0F6FF08C0F7FFF86A0800F55008
:10401800095C056E066AD8A0060612005265766924
:1040280073696F6E000000000000000000000000CF
:1040380050617274204E756D626572000000000058
:104048000000000053657269616C204E756D6265F1
:104058007200000000000000FF00000000000000E7
:1040680000000000000000004D617220323520324F
:10407800303231FF000000000000000000000000A6
:104088000000000000000000000000000000000028
:104098000000000000000000000000000000000018
:1040A8000000000000000000000000000000000008
:1040B800000000000000000000000000000009509F
:1040C8000A10D8B46AEF20F06CEF20F075EF20F0FA
:1040D80009500A10D8A473EF20F075EF20F07AEF9A
:1040E80020F007502FEC27F0ADEF20F020EE04F081
:1040F8000950D9260A50DA22DE50DE10D8B487EFEC
:1041080020F089EF20F0A4EF20F020EE04F0095011
:10411800D9260A50DA2210EE02F00950E1260A5098
:10412800E222DE50E65CE650800A0F6EDE50800A1E
:104138000F58D8B0A2EF20F0A4EF20F0ADEF20F098
:1041480020EE02F00950D9260A50DA22DE2A000EA3
:10415800DD221200FF000000000000000000000047
:104168000000000000000000000000000000000047
:104178000000000000000000000000000000000037
:104188000000000000000000000000000000000027
:104198000000000000000000000000000000000017
:1041A8000000000000000000000000000000000007
:1041B800000000000000000050413030363033303D
:1041C8003330302D0032FF000000000000000000F6
:1041D800000030303A32343A3030286E756C6C2931
:0741E80000FF0000000000D1
:1041F000000E876E000E866E000E836E000E846EBB
:10420000000E856E070E8C6E070E886EBF0E896ECF
:10421000BF0E8A6EFE0E8B6E0F0126693B0E216F5C
:10422000370E196F070E2E6F1169000E256F000EE5
:104230002D6F000E186F000E106F000E206F000E15
:104240002C6F000E0F6F000E176F000E1F6F000E09
:10425000246F0E6916691E692369070E2B6F0D699D
:1042600015691D6922690F0E2A6F170E0E01B56FB1
:104270000B0EF56F090EFD6F0F0E8D6F12000E0104
:10428000C59BA60E056E3E0E066E1BEC27F00E01BA
:10429000C599920E056E490E066E16EC27F0080EB3
:1042A0009F6E900E9D6E240E9E6EA00E9B6E030E52
:1042B0009C6E010E9C6E980E056E4E0E066E25ECE1
:1042C00027F0820E056E4E0E066E20EC27F0880E4B
:1042D000056E4E0E066E2AEC27F0000E0001E06F10
:1042E000000EE46F000EE36F100EFE6F000E596EAD
:1042F000000EE26F000EE16F0E01C58B12000E0181
:10430000C59F600E056E3C0E066E02EC27F00E0196
:10431000C59DC20E056E480E066EFDEC26F0080E19
:104320000E019F6F900E9D6F240E9E6FA00E9B6FCF
:10433000010E9C6F960E056E4E0E066E0CEC27F06D
:10434000680E056E4E0E066E07EC27F07C0E056EAD
:104350004E0E066E11EC27F0000E0001E56F000E08
:10436000E96F000EE86F200EFF6F000E5A6E000E10
:10437000E76F000EE66F0E01C58F12003BEC27F0D1
:10438000D2EC26F00009D8B4C8EF21F0CAEF21F032
:10439000C0EF21F0000E0C6E000E0B6EE5EF21F069
:1043A0000B500624D96E0C500720DA6EDF50E8EC73
:1043B00022F0F3EC26F00009D8B4E1EF21F0E3EFAE
:1043C00021F0D9EF21F00B4A0C2A08500B5C0C505D
:1043D000800A0A6E0950800A0A58D8A0F2EF21F02C
:1043E000F4EF21F0D0EF21F012006A0E00017D6F92
:1043F000FF0E7E6F3DEC26F0000E566E000E556EE1
:10440000A90E00017D6FFD0E7E6F55C07FF056C076
:1044100080F0D8905534D96E5634DA6E640ED926B1
:10442000040EDA22DECF81F0DDCF82F03DEC26F003
:10443000554A562A56BE26EF22F0565009E1200E64
:10444000555CD8A026EF22F028EF22F000EF22F0F2
:10445000120079C053F07AC054F0000E0001CE6F04
:10446000000ECD6F47EF22F077C049F078C04AF0D8
:10447000530E4B6E000E4C6E7BC04DF07CC04EF068
:10448000E6EC06F049500001CD274A50CE2353C038
:10449000F6FF54C0F7FFF86A0800F5500009D8A4E9
:1044A00054EF22F056EF22F034EF22F0CDC077F037
:1044B000CEC078F012000BC00FF00CC010F009C095
:1044C00011F00AC012F00F500D6E10500E6E0F4A10
:1044D000102A0DC0F6FF0EC0F7FF000EF86E11C0D7
:1044E000D9FF12C0DAFF114A122A0E0EF76403D068
:1044F0000800F55005D0F6CFE9FFF7CFEAFFEF50FF
:10450000DF6EDF50D8A487EF22F089EF22F063EF4F
:1045100022F012009F0E0D6EFF0E0E6E0BC00FF0FC
:104520000CC010F00D500F260E50102210500AE152
:104530001A0E0F5CD8A09FEF22F0A2EF22F0010E1E
:10454000A3EF22F0000E116E126A11501210D8B4AF
:10455000ACEF22F0AEEF22F0B4EF22F05F0E0B14BE
:104560000B6E0C6AB8EF22F00BC00BF00CC00CF015
:104570001200056E0001FF51D8B4C1EF22F0C3EF65
:1045800022F0BAEF22F00E01C5BDC9EF22F0CBEF49
:1045900022F0CFEF22F005C09AFEE5EF22F0C59D94
:1045A000840E0001E925D96EDA6A030EDA2205C00D
:1045B000DFFFE92B1F0EE965E0EF22F0E2EF22F0CA
:1045C000E4EF22F0000EE96FFF070E01C58D120027
:1045D000056E0001FE51D8B4F0EF22F0F2EF22F0A8
:1045E000E9EF22F00E01C5B9F8EF22F0FAEF22F060
:1045F000FEEF22F005C09AFF14EF23F0C599C20E1A
:104600000001E425D96EDA6A020EDA2205C0DFFF66
:10461000E42B0F0EE4650FEF23F011EF23F013EFFF
:1046200023F0000EE46FFE070E01C5891200960EFE
:1046300000017D6FF50E7E6F8FC07FF090C080F01F
:1046400091C081F092C082F03DEC26F0000E566ED3
:10465000000E556E38EF23F08F515524056E9051A2
:104660005620066EFF0E076E85EC24F0554A562A3A
:1046700000019151555C92515658D8A042EF23F059
:1046800044EF23F02CEF23F012000001E651D8B4E0
:104690004CEF23F04EEF23F045EF23F0A20EE72579
:1046A000D96EDA6A020EDA22DF50E56F640EE72572
:1046B000D96EDA6A030EDA22DF50056EE72B1F0E81
:1046C000E76565EF23F067EF23F069EF23F0000E55
:1046D000E76F0E01C59F0001E6070E01C58F05506B
:1046E00012000001E151D8B478EF23F07AEF23F003
:1046F00071EF23F0000EE225D96EDA6A030EDA229A
:10470000DF50E06F000EE225D96EDA6A040EDA227D
:10471000DF50056EE22B630EE26591EF23F093EF1D
:1047200023F095EF23F0000EE26F0E01C59B000110
:10473000E1070E01C58B05501200010E0B6E200E15
:1047400005180610D8B4A7EF23F0A9EF23F0C2EFA5
:1047500023F0F70E076EFF0E086E05C009F006C0C5
:104760000AF00750092608500A220A5009E1050EEE
:10477000095CD8A0BEEF23F0C0EF23F0C2EF23F016
:10478000000E0B6E0BC005F0066A1200000E6A6E7A
:10479000000E6B6E000E6C6E000E6D6E000E686E7D
:1047A000000E696E000E666E000E0F015F6F000E48
:1047B0005D6F000E5E6F000E596F000E5A6F000E97
:1047C0005B6F000E656E000E586F000E566F000E88
:1047D000576F940E606E0A0E5C6F120005C007F0F2
:1047E00006C008F0F6EF23F0054A062A05C0F6FFDA
:1047F00006C0F7FF000EF86E0E0EF76403D0080037
:10480000F55005D0F6CFE9FFF7CFEAFFEF500009EA
:10481000D8A40DEF24F00FEF24F0F4EF23F00750AD
:10482000055C056E08500658066E1200000E066EF6
:10483000000E056E000E066E000E056E000E0524BD
:10484000D96E010E0620DA6EFF0EDF6E054A062ACB
:1048500006BE34EF24F0065009E1630E055CD8A0D3
:1048600034EF24F036EF24F01EEF24F0000E0001A8
:10487000DC6F000EDB6F1200000E076E000E066E7E
:10488000000E076E000E066E50EF24F0000E062498
:10489000D96E050E0720DA6EFF0EDF6E064A072A74
:1048A0000001D951065C0750800A056EDA51800A72
:1048B0000558D8A05EEF24F060EF24F046EF24F016
:1048C0001200200E0001FF6168EF24F06AEF24F06F
:1048D00082EF24F0840EE825D96EDA6A030EDA221C
:1048E000DF500E019A6F0001E82B1F0EE8657BEF89
:1048F00024F07DEF24F07FEF24F0000EE86FFF2B13
:1049000084EF24F00E01C59D1200000EF2BE010ED0
:10491000086E0650030B7F6E05C07EFF07C080FF48
:104920003F0E81168184F29E550E826EAA0E826E13
:10493000818281B29EEF24F0A0EF24F099EF24F061
:10494000819408B002D0F29E01D0F28E1200000EC7
:10495000166E000E156EB8EF24F014C007F0086A4A
:1049600012C009F013C00AF063EC20F0154A162AB1
:1049700015501024D96E16501120DA6EDF50146EC7
:104980001450D8A4C6EF24F0C8EF24F0ADEF24F003
:104990001200100E0001FE61D0EF24F0D2EF24F0DF
:1049A000E8EF24F0C20EE325D96EDA6A020EDA22AD
:1049B000DF509A6EE32B0F0EE365E1EF24F0E3EF97
:1049C00024F0E5EF24F0000EE36FFE2BEAEF24F075
:1049D0000E01C5991200000E066E000E056E000E47
:1049E000066E000E056E570E0524D96E020E0620C7
:1049F000DA6EFF0EDF6E054A062A06BE09EF25F0C5
:104A0000065009E1200E055CD8A009EF25F00BEF58
:104A100025F0F3EF24F0120001000200030004006F
:104A2000050006000700080009000A000B000C0042
:104A30000D000E000F0010001100120013001400F2
:104A4000150016001700180019001A001B001C00A2
:104A50001D001E001F00200020001F001E001D0062
:104A60001C001B001A001900180017001600150082
:104A7000140013001200110010000F000E000D00B2
:104A80000C000B000A0009000800070006000500E2
:104A9000040003000200010018BE59EF25F0185071
:104AA00006E11704D8B057EF25F059EF25F067EF6E
:104AB00025F017C019F018C01AF0191E1A1E194A4D
:104AC0001A2A19C017F01AC018F06BEF25F017C09A
:104AD00017F018C018F012009F0E076EFF0E086E38
:104AE000200E0510096E000E06100A6E07500926EA
:104AF00008500A220A500AE11A0E095CD8A083EF76
:104B000025F086EF25F0010E87EF25F0000E056EEB
:104B1000066A12000001DF51D8A491EF25F093EF4F
:104B200025F09DEF25F0010EDF6F5A0E7D6FFF0E11
:104B30007E6F3DEC26F0A5EF25F0000EDF6F490EED
:104B40007D6FFF0E7E6F3DEC26F012009F0E076E0C
:104B5000FF0E086E05C009F006C00AF007500926CE
:104B600008500A220A500AE11A0E095CD8A0BBEFCD
:104B700025F0BEEF25F0010EBFEF25F0000E056E0B
:104B8000066A1200BF0E076EFF0E086E05C009F020
:104B900006C00AF00750092608500A220A500AE106
:104BA0001A0E095CD8A0D7EF25F0DAEF25F0010E38
:104BB000DBEF25F0000E056E066A1200D00E076EC0
:104BC000FF0E086E05C009F006C00AF0075009265E
:104BD00008500A220A500AE10A0E095CD8A0F3EF35
:104BE00025F0F6EF25F0010EF7EF25F0000E056E2B
:104BF000066A1200096E09C05FFF608E609C6080CB
:104C000060B005EF26F007EF26F000EF26F06450C5
:104C1000086E076A63500724056E000E0820066EB2
:104C20001200640E5A24D96EDA6A030EDA2299CE83
:104C3000DFFF5A2A1F0E5A6420EF26F022EF26F0DB
:104C400024EF26F0000E5A6E0001E62B1200000E33
:104C50005924D96EDA6A040EDA2299CFDFFF592A75
:104C6000630E596436EF26F038EF26F03AEF26F05F
:104C7000000E596E0001E12B12007F0E00018D6FB6
:104C8000000E8E6F000E776F000E786F7DC079F08A
:104C90007EC07AF08D0E7B6F000E7C6F29EC22F0C7
:104CA000120013C005F014C006F0EEEC23F005501E
:104CB0001324096E065014200A6E15C00BF016C09E
:104CC0000CF05BEC22F0120005500702F3CF09F064
:104CD000F4CF0AF005500802F3500A2606500702E6
:104CE000F3500A2609C005F00AC006F0120047EC8E
:104CF00027F088EC26F0F8EC20F0AEEC26F03FEC44
:104D000021F07FEC21F0C6EC23F049EC27F01200F3
:104D1000000E0E01E16F000EE26F000EE36F000E59
:104D2000E46F000EE56F000EE66F12000001E65121
:104D3000D8A49DEF26F0A0EF26F0010EA1EF26F0FB
:104D4000000E12000650030B7F6E05C07EFF3F0E63
:104D50008116818000F000F080501200600E0E017C
:104D6000D86F000EDA6F000EDC6F060EDE6F000EDD
:104D7000DD6F12000001FF51D8A4C1EF26F0C4EF8F
:104D800026F0010EC5EF26F0000E12000001E151E1
:104D9000D8A4CDEF26F0D0EF26F0010ED1EF26F00B
:104DA000000E12000001FE51D8A4D9EF26F0DCEF6E
:104DB00026F0010EDDEF26F0000E12000E019EB36C
:104DC000E4EF26F0E7EF26F0010EE8EF26F0000E04
:104DD0001200323134333635383730395A00FF005B
:104DE000FFFF080004009EB2F8EF26F0FBEF26F06C
:104DF000010EFCEF26F0000E120005C0EBF106C01C
:104E0000ECF1120005C0E9F106C0EAF1120005C09C
:104E1000E1F106C0E2F1120005C0E3F106C0E4F1E1
:104E2000120005C0DFF106C0E0F1120005C0E7F195
:104E300006C0E8F1120005C0E5F106C0E6F1120077
:104E400005C0DBF106C0DCF1120005C0DDF106C0D3
:104E5000DEF1120005C0D9F106C0DAF11200066ECB
:104E60000650B9EC22F012000E019D999D891200A6
:104E700086908396120086808386120011EC26F0BD
:104E800012009D989D88120027EC26F01200F29ADD
:0A4E90001200609C120012001200D4
:10F47A000020202020202041646420307830303061
:10F48A003020746F20307830303331202D203332E1
:10F49A0078204369726375697420536574205374C4
:10F4AA00617475732020286C6F77657220386269E1
:10F4BA007473206F6E6C79290D0A0A0020202020AF
:10F4CA0020204164642030783030303020746F203E
:10F4DA00307830303331202D20333278204369722E
:10F4EA006375697420476574205374617475732059
:10F4FA00286C6F776572203862697473206F6E6C3E
:10F50A0079290D0A0020202020202041646420301F
:10F51A00783036303020746F2030783036303220F0
:10F52A002D20337820416E616C6F67756520496EB6
:10F53A00707574732028307830303020746F203022
:10F54A007830336666290D0A0A0020202042797431
:10F55A006520253032693A20307825303278202DDE
:10F56A002052656720256920486920284164642E55
:10F57A002030782530327825303278202F204369A0
:10F58A007263756974202569290D0A00436C6561E7
:10F59A0072696E6720454550524F4D2066726F6DF5
:10F5AA0020416464726573733A2030782530347868
:10F5BA0020666F72206E756D2062797465733A20C9
:10F5CA002569200D0A0020202042797465203031F7
:10F5DA003A20307825303278202D2046756E6374B3
:10F5EA00696F6E20436F64652028577269746520BD
:10F5FA004D756C746920526567290D0A0020202018
:10F60A002020204164642030783035303020746FF7
:10F61A0020307830353034202D20436F6D70696C7E
:10F62A00652054696D65202D202841534349492995
:10F63A000D0A00436F6D706C6574656420416464E3
:10F64A00696E6720727844617461204275666665E6
:10F65A007220746F204D6F64627573446174612007
:10F66A0041727261790D0A0A00202020427974657C
:10F67A002030313A20307825303278202D204675D6
:10F68A006E6374696F6E20436F64652028526561EA
:10F69A0064204D756C746920526567290D0A002033
:10F6AA0020204279746520253032693A2030782545
:10F6BA00303278202D20526567202569204869203C
:10F6CA00284164642E203078253032782025303263
:10F6DA0078290D0A00526571756573746564207224
:10F6EA006567697374657273206F7574206F66201D
:10F6FA0072616E67652E2020307830303030207489
:10F70A006F2030783032302E0D0A002020203078D9
:10F71A003130202D205772697465204D756C7469DB
:10F72A00706C652052656769737465727320284D21
:10F73A00617820333278203136626974290D0A00E3
:10F74A00202020202020416464203078303430305A
:10F75A0020746F20307830343035202D20436F6D7F
:10F76A0070696C6520446174652028415343494996
:10F77A00290D0A00526567697374657273206F7583
:10F78A0074206F662072616E67652E0D0A56616C71
:10F79A0069643A2030783030303020746F20307805
:10F7AA00303033312E0D0A00526567697374657201
:10F7BA0073206F7574206F662072616E67652E0DF7
:10F7CA000A56616C69643A203078303630302074D9
:10F7DA006F203078303630322E0D0A005265676954
:10F7EA007374657273206F7574206F662072616E10
:10F7FA0067652E0D0A56616C69643A203078303597
:10F80A00303020746F203078303530332E0D0A00B6
:10F81A00526567697374657273206F7574206F66B9
:10F82A002072616E67652E0D0A56616C69643A2012
:10F83A0030783033303020746F20307830333034C1
:10F84A002E0D0A00526567697374657273206F75AD
:10F85A0074206F662072616E67652E0D0A56616CA0
:10F86A0069643A2030783034303020746F20307830
:10F87A00303430352E0D0A0052656769737465722B
:10F88A0073206F7574206F662072616E67652E0D26
:10F89A000A56616C69643A2030783031303020740D
:10F8AA006F203078303130382E0D0A002020203F6A
:10F8BA00202D20496E6974616C69736520616E64DC
:10F8CA0020646973706C6179206361726420646575
:10F8DA007461696C730D0A00202020202020416485
:10F8EA00642030783031303020746F2030783031F5
:10F8FA003038202D2050617274204E756D62657209
:10F90A000D0A00436F6D70696C6564206F6E202567
:10F91A007320617420257320627920584338207639
:10F92A00657273696F6E2025750D0A0A0020202002
:10F93A0030783033202D2052656164204D756C7407
:10F94A0069706C6520313662697420526567697323
:10F95A00746572730D0A0052656769737465727310
:10F96A00206F7574206F662072616E67652E0D0AAE
:10F97A0056616C69643A203078303531322E0D0A7E
:10F98A000020202020202041646420307830333049
:10F99A003020746F20307830333034202D20526577
:10F9AA00766973696F6E0D0A000D0A44616E2061F3
:10F9BA006E642053616D2773204D6F6462757320E6
:10F9CA004750494F20457870616E73696F6E0D0A12
:10F9DA00000D0A456E746572206361726420257396
:10F9EA0020286D61782025692063686172616374DB
:10F9FA00657273293A2000202020427974652030EC
:10FA0A00323A20307825303278202D204E756D20FC
:10FA1A004279746573204D6F72650D0A00202020AB
:10FA2A00427974652030363A203078253032782091
:10FA3A002D204E756D204279746573204D6F726565
:10FA4A000D0A00202020427974652030323A203095
:10FA5A007825303278202D20317374205265672042
:10FA6A004164642048690D0A0020202042797465A7
:10FA7A002030333A20307825303278202D203173E7
:10FA8A00742052656720416464204C6F0D0A00207F
:10FA9A00202073657269616C202D20536574206380
:10FAAA006172642073657269616C206E756D62653E
:10FABA00720D0A000D0A5265636569766564204D08
:10FACA006F646275732043524320636865636B6594
:10FADA0064206F75742E0D0A002020204279746507
:10FAEA002030343A20307825303278202D204E7557
:10FAFA006D206F66205265672048690D0A00202034
:10FB0A0020427974652030353A20307825303278B1
:10FB1A00202D204E756D206F6620526567204C6F30
:10FB2A000D0A004D6F646275732046756E637469C1
:10FB3A006F6E20436F64657320537570706F7274B3
:10FB4A0065643A0D0A0A00637263486967683A2075
:10FB5A0030782530327820206372634C6F773A20F0
:10FB6A0030782530327820200D0A00202020427972
:10FB7A0074652030303A20307825303278202D20B4
:10FB8A004361726420416464726573730D0A0020D4
:10FB9A0020204279746520253032693A2030782550
:10FBAA00303278202D20526567202569204C6F0D50
:10FBBA000A00496E6974616C69736174696F6E20B9
:10FBCA00436F6D706C657465202D20526561647990
:10FBDA000D0A0A0020202070617274202D205365BE
:10FBEA007420636172642070617274206E756D6234
:10FBFA0065720D0A000D0A456E74657265643A20D5
:10FC0A002573200D0A20436F6E6669726D20205994
:10FC1A007C4E3F3A2000202020726576202D20530A
:10FC2A00657420636172642070617274206E756DF0
:10FC3A006265720D0A000D0A52656365697665642C
:10FC4A00204D6F64627573204352432069732062AA
:10FC5A0061642E0D0A002020204279746520253027
:10FC6A0032693A20307825303278202D20435243A9
:10FC7A002048690D0A002020204279746520253029
:10FC8A0032693A20307825303278202D2043524389
:10FC9A00204C6F0D0A004D6F6462757320526567C0
:10FCAA006973746572204265666F72652055706467
:10FCBA006174653A002020202020204164642030AD
:10FCCA007830323030202D205265766973696F6E34
:10FCDA000D0A00202020427974652030363A2030FF
:10FCEA007825303278202D204352432048690D0A66
:10FCFA0000202020427974652030373A2030782558
:10FD0A00303278202D204352432048690D0A0020C2
:10FD1A002020427974652030373A203078253032F5
:10FD2A0078202D20435243204C6F0D0A00526571F2
:10FD3A007565737465643A20307825303478207498
:10FD4A006F203078253034780D0A004D6F64446195
:10FD5A007461436E742073697474696E6720617488
:10FD6A002025690D0A0A0052657175657374656408
:10FD7A0020416E616C6F67756520496E707574738A
:10FD8A000D0A00556E737570706F72746564204643
:10FD9A00756E6374696F6E20436F64650D0A002087
:10FDAA0020205265673A20256920446174613A200F
:10FDBA00307825303478200D0A00526571756573E4
:10FDCA00746564204369726375697420446174615F
:10FDDA000D0A0052657175657374656420436F6D11
:10FDEA0070696C652054696D650D0A0052657175FC
:10FDFA00657374656420436F6D70696C6520446136
:10FE0A0074650D0A00536F6D657468696E672069C1
:10FE1A006E2045535541525431200D0A00202020AE
:10FE2A004279746520253032693A2030782530329B
:10FE3A0078200D0A005265717565737465642053E4
:10FE4A00657269616C204E6F2E0D0A0043617264FF
:10FE5A0020416464726573732E2030783035200D2A
:10FE6A000A00436F6D6D616E647320537570706F15
:10FE7A00727465643A0D0A004361726420526576B1
:10FE8A006973696F6E2E202573200D0A0052657101
:10FE9A007565737465642050617274204E6F2E0DFF
:10FEAA000A000D0A4D6F64627573205265636569B5
:10FEBA007665643A0D0A00526571756573746564F6
:10FECA00205265766973696F6E0D0A0046756E6316
:10FEDA0074696F6E20436F646520307831300D0A83
:10FEEA0000436172642050617274204E6F2E202587
:10FEFA0073200D0A004361726420536572204E6FAD
:10FF0A002E202573200D0A004D6F646275732052EE
:10FF1A006573706F6E73653A0D0A000D0A456E744B
:10FF2A00657220436F6D6D616E64203A20004E75D4
:10FF3A006D2043686172733A202569200D0A0044D6
:10FF4A00656275672044697361626C65640D0A00B5
:10FF5A00446562756720456E61626C65640D0A00CE
:10FF6A00557064617465644D42343030200D0A0066
:10FF7A00526561643A20307825303278200D0A00C3
:10FF8A00590D0A536176696E672025730D0A00417F
:10FF9A0044433A20307825303478200D0A002573FE
:10FFAA002053617665642E200D0A004E6F7420730B
:10FFBA00617665640D0A004D617220323520323057
:10FFCA0032310030303A32343A3030005365726997
:10FFDA00616C0073657269616C00646562756700C3
:10FFEA0050617274007061727400526576007265B5
:05FFFA0076003F00004D
:020000040020DA
:10000000FF0FFF0FFF0FFF0FFF0FFF0FFF0FFF0F80
:020000040030CA
:0C000000ECFFFFFF9FFFFFFFFFFFFFFF73
:00000001FF
