:020000040000FA
:0400000093EF00F08A
:100008005B82FACF01F0FBCF02F0D9CF03F0DACF51
:1000180004F0F2AC12EF00F014EF00F089EF00F0FA
:100028000E01C5AD1AEF00F01CEF00F032EF00F042
:10003800CDAD21EF00F023EF00F032EF00F002D851
:1000480030EF00F00500FA6E0201F851FD6EF9512B
:10005800FE6EFF6AFA50120089EF00F0C5AF37EF65
:1000680000F039EF00F04FEF00F0CDAF3EEF00F0B9
:1000780040EF00F04FEF00F002D84DEF00F0050020
:10008800FA6E0201F651FD6EF751FE6EFF6AFA50E4
:10009800120089EF00F0C5A954EF00F056EF00F008
:1000A8006CEF00F0CDA95BEF00F05DEF00F06CEFB6
:1000B80000F002D86AEF00F00500FA6E0201F45170
:1000C800FD6EF551FE6EFF6AFA50120089EF00F0DE
:1000D800C5AB71EF00F073EF00F089EF00F0CDAB26
:1000E80078EF00F07AEF00F089EF00F002D887EFA0
:1000F80000F00500FA6E0201F251FD6EF351FE6E3A
:10010800FF6AFA50120089EF00F004C0DAFF03C05A
:10011800D9FF02C0FBFF01C0FAFF5B9211005EEF3E
:1001280021F0000E00019B6F000EAE6F000EAD6F48
:10013800400EAD25D96E020EAE21DA6E00C1DFFF8A
:10014800AD4BAE2B400EAD25D96E020EAE21DA6E48
:1001580001C1DFFFAD4BAE2B01010551020D400E71
:100168000001AD25D96E020EAE21DA6EF3CFDFFFA6
:10017800AD4BAE2BF7EF05F0D50E7D6FFD0E7E6F04
:1001880086EC2CF0010102510001906F8F6B010188
:10019800055104C191F00001926B91C092F0916BEE
:1001A8009127000E92238F5191279051922301019C
:1001B800035100019127000E9223FF0E9125FF0E97
:1001C8009221800BD8A4EBEF00F0EDEF00F029EFBF
:1001D80001F0FF0E8F6FFF0E906F010102510001B9
:1001E800926F916B0101055104C193F00001946B6A
:1001F80093C094F0936B9327000E94239151932707
:10020800925194230101035100019327000E942376
:100218008F51932790519423FF0E956FFF0E966F81
:1002280020EEC1F0DECF97F0DDCF98F095519727FB
:10023800965198239351975D94519859D8B027EFC8
:1002480001F029EF01F026EF06F03B0E7D6FF80E66
:100258007E6FFF0EC1257F6FFF0EC221806F86EC77
:100268002CF0FE0E00017D6FFC0E7E6F0101025125
:100278000001906F8F6B0101035100018F257F6F83
:100288000101000E00019021806F0101045100015D
:10029800926F916B0101035102C193F00001946BBD
:1002A80093C094F0936B9327000E94239151932756
:1002B800925194230101055100019327000E9423C4
:1002C800FF0E9325816FFF0E9421826F86EC2CF030
:1002D800010E00019B6F26EF06F0A50E7D6FFE0E46
:1002E8007E6F86EC2CF0FF0E00018F6FFF0E906F73
:1002F800010102510001926F916B0101055104C186
:1003080093F00001946B93C094F0936B9327000EC5
:100318009423915193279251942301010351000191
:100328009327000E94238F5193279051942394BFC1
:10033800A4EF01F09405D8A0A4EF01F0A6EF01F016
:10034800D7EF01F0FF0E8F6FFF0E906F0101025182
:100358000001926F916B0101055104C193F00001F6
:10036800946B93C094F0936B9327000E9423915150
:100378009327925194230101035100019327000E02
:1003880094238F5193279051942394BFD5EF01F074
:10039800080E935D010E9459D8A0D5EF01F0D7EF60
:1003A80001F026EF06F0D30E7D6FF70E7E6F86EC18
:1003B8002CF0FE0E00017D6FFC0E7E6F01010251D4
:1003C8000001906F8F6B0101035100018F257F6F32
:1003D8000101000E00019021806F0101045100010C
:1003E800926F916B0101035102C193F00001946B6C
:1003F80093C094F0936B9327000E94239151932705
:10040800925194230101055100019327000E942372
:10041800FF0E9325816FFF0E9421826F86EC2CF0DE
:100428006CEF01F0CF0E7D6FFE0E7E6F86EC2CF028
:10043800FF0E00018F6FFF0E906F01010251000146
:10044800926F916B0101055104C193F00001946B07
:1004580093C094F0936B9327000E942391519327A4
:10046800925194230101035100019327000E942314
:100478008F5193279051942394BF4AEF02F0020EB4
:10048800945DD8A04AEF02F04CEF02F07CEF02F046
:10049800FF0E8F6FFF0E906F010102510001926FE6
:1004A800916B0101055104C193F00001946B93C055
:1004B80094F0936B9327000E9423915193279251B4
:1004C80094230101035100019327000E94238F51B7
:1004D80093279051942394BF7AEF02F09305020E6C
:1004E8009459D8A07AEF02F07CEF02F026EF06F0DC
:1004F8004E0E7D6FF90E7E6F86EC2CF0FE0E00011D
:100508007D6FFC0E7E6F010102510001906F8F6BB1
:100518000101035100018F257F6F0101000E0001C9
:100528009021806F010104510001926F916B0101CC
:10053800035102C193F00001946B93C094F0936B44
:100548009327000E942391519327925194230101EC
:10055800055100019327000E9423FF0E9325816F08
:10056800FF0E9421826F86EC2CF06CEF01F0380EB0
:100578007D6FFE0E7E6F86EC2CF0FF0E00018F6FF4
:10058800FF0E906F010102510001926F916B010102
:10059800055104C193F00001946B93C094F0936BE0
:1005A8009327000E9423915193279251942301018C
:1005B800035100019327000E94238F5193279051E4
:1005C800942394BFEFEF02F0030E945DD8A0EFEFF1
:1005D80002F0F1EF02F022EF03F0FF0E8F6FFF0E33
:1005E800906F010102510001926F916B0101055159
:1005F80004C193F00001946B93C094F0936B93271C
:10060800000E942391519327925194230101035191
:1006180000019327000E94238F5193279051942320
:1006280094BF20EF03F0050E935D030E9459D8A0F4
:1006380020EF03F022EF03F026EF06F0370E7D6F70
:10064800F70E7E6F86EC2CF0FE0E00017D6FFC0E1F
:100658007E6F010102510001906F8F6B0101035100
:1006680000018F257F6F0101000E00019021806F2E
:10067800010104510001926F916B0101035102C104
:1006880093F00001946B93C094F0936B9327000E42
:10069800942391519327925194230101055100010C
:1006A8009327000E9423FF0E9325816FFF0E94214C
:1006B800826F86EC2CF06CEF01F0070E7D6FFE0E5A
:1006C8007E6F86EC2CF0FF0E00018F6FFF0E906F8F
:1006D800010102510001926F916B0101055104C1A2
:1006E80093F00001946B93C094F0936B9327000EE2
:1006F80094239151932792519423010103510001AE
:100708009327000E94238F5193279051942394BFDD
:1007180095EF03F0040E945DD8A095EF03F097EFE2
:1007280003F0C8EF03F0FF0E8F6FFF0E906F01010B
:1007380002510001926F916B0101055104C193F0C0
:100748000001946B93C094F0936B9327000E94234D
:10075800915193279251942301010351000193274A
:10076800000E94238F5193279051942394BFC6EF82
:1007780003F0060E935D040E9459D8A0C6EF03F05B
:10078800C8EF03F026EF06F09F0E7D6FF70E7E6F21
:1007980086EC2CF0FE0E00017D6FFC0E7E6F0101D1
:1007A80002510001906F8F6B0101035100018F25E9
:1007B8007F6F0101000E00019021806F010104513B
:1007C8000001926F916B0101035102C193F0000186
:1007D800946B93C094F0936B9327000E94239151DC
:1007E8009327925194230101055100019327000E8C
:1007F8009423FF0E9325816FFF0E9421826F86EC60
:100808002CF06CEF01F0EE0E7D6FFD0E7E6F86EC26
:100818002CF0FF0E00018F6FFF0E906F0101025147
:100828000001926F916B0101055104C193F0000121
:10083800946B93C094F0936B9327000E942391517B
:100848009327925194230101035100019327000E2D
:1008580094238F5193279051942394BF3BEF04F036
:10086800050E945DD8A03BEF04F03DEF04F06EEF69
:1008780004F0FF0E8F6FFF0E906F0101025100010F
:10088800926F916B0101055104C193F00001946BC3
:1008980093C094F0936B9327000E94239151932760
:1008A800925194230101035100019327000E9423D0
:1008B8008F5193279051942394BF6CEF04F0040E4A
:1008C800935D050E9459D8A06CEF04F06EEF04F018
:1008D80026EF06F0030E7D6FF70E7E6F86EC2CF088
:1008E800FE0E00017D6FFC0E7E6F010102510001BA
:1008F800906F8F6B0101035100018F257F6F0101FC
:10090800000E00019021806F010104510001926FD7
:10091800916B0101035102C193F00001946B93C0E4
:1009280094F0936B9327000E94239151932792513F
:1009380094230101055100019325816F0101000EE7
:1009480000019421826F86EC2CF06CEF01F0860E8A
:100958007D6FFC0E7E6F86EC2CF0FF0E00018F6F12
:10096800FF0E906F010102510001926F916B01011E
:10097800055104C193F00001946B93C094F0936BFC
:100988009327000E942391519327925194230101A8
:10099800035100019327000E94238F519327905100
:1009A800942394BFDFEF04F0060E945DD8A0DFEF28
:1009B80004F0E1EF04F012EF05F0FF0E8F6FFF0E69
:1009C800906F010102510001926F916B0101055175
:1009D80004C193F00001946B93C094F0936B932738
:1009E800000E9423915193279251942301010351AE
:1009F80000019327000E94238F519327905194233D
:100A080094BF10EF05F0020E935D060E9459D8A01E
:100A180010EF05F012EF05F026EF06F09B0E7D6F44
:100A2800F60E7E6F86EC2CF0FE0E00017D6FFC0E3C
:100A38007E6F010102510001906F8F6B010103511C
:100A480000018F257F6F0101000E00019021806F4A
:100A5800010104510001926F916B0101035102C120
:100A680093F00001946B93C094F0936B9327000E5E
:100A78009423915193279251942301010551000128
:100A88009327000E9423FF0E9325816FFF0E942168
:100A9800826F86EC2CF06CEF01F01C0E7D6FFD0E62
:100AA8007E6F86EC2CF0FF0E00018F6FFF0E906FAB
:100AB800010102510001926F916B0101055104C1BE
:100AC80093F00001946B93C094F0936B9327000EFE
:100AD80094239151932792519423010103510001CA
:100AE8009327000E94238F5193279051942394BFFA
:100AF80085EF05F0070E945DD8A085EF05F087EF28
:100B080005F0B8EF05F0FF0E8F6FFF0E906F010133
:100B180002510001926F916B0101055104C193F0DC
:100B28000001946B93C094F0936B9327000E942369
:100B38009151932792519423010103510001932766
:100B4800000E94238F5193279051942394BFB6EFAE
:100B580005F0050E935D070E9459D8A0B6EF05F081
:100B6800B8EF05F026EF06F06B0E7D6FF70E7E6F7F
:100B780086EC2CF0FE0E00017D6FFC0E7E6F0101ED
:100B880002510001906F8F6B0101035100018F2505
:100B98007F6F0101000E00019021806F0101045157
:100BA8000001926F916B0101035102C193F00001A2
:100BB800946B93C094F0936B9327000E94239151F8
:100BC8009327925194230101055100019327000EA8
:100BD8009423FF0E9325816FFF0E9421826F86EC7C
:100BE8002CF06CEF01F00101025100018F6F906B46
:100BF8009051000AD8B403EF06F026EF06F08F51A3
:100C0800000AD8B4C0EF00F0010AD8B471EF01F0BF
:100C1800030AD8B416EF02F0010AD8B4BBEF02F009
:100C2800070AD8B461EF03F0010AD8B407EF04F05B
:100C3800030AD8B4ABEF04F0010AD8B451EF05F0B9
:100C480026EF06F09B51D8A42CEF06F02EEF06F005
:100C58005AEF08F0000E9D6F000E9C6F04EF08F02D
:100C6800030E01010219D8A43CEF06F03EEF06F08E
:100C78006FEF06F0035100019C258F6F000E9D2138
:100C8800906FD8908F379037640E8F25D96E010EEC
:100C98009021DA6EDECF91F0DDCF92F09151C56FE1
:100CA800C66B0101035100019C258F6F000E9D2129
:100CB800906FD8908F379037640E8F25D96E010EBC
:100CC8009021DA6EDECF91F0DDCF92F09251AB6FCA
:100CD800AC6BEDEF07F00205D8A475EF06F077EFDF
:100CE80006F0A8EF06F0035100019C258F6F000E57
:100CF8009D21906FD8908F379037000E8F25D96E31
:100D0800020E9021DA6EDECF91F0DDCF92F0915194
:100D1800C56FC66B0101035100019C258F6F000E42
:100D28009D21906FD8908F379037000E8F25D96E00
:100D3800020E9021DA6EDECF91F0DDCF92F0925163
:100D4800AB6FAC6BEDEF07F0020E0219D8A4AFEF52
:100D580006F0B1EF06F0E2EF06F0035100019C2522
:100D68008F6F000E9D21906FD8908F379037CD0EE2
:100D78008F25D96E000E9021DA6EDECF91F0DDCF8F
:100D880092F09151C56FC66B0101035100019C257A
:100D98008F6F000E9D21906FD8908F379037CD0EB2
:100DA8008F25D96E000E9021DA6EDECF91F0DDCF5F
:100DB80092F09251AB6FAC6BEDEF07F0040E021995
:100DC800D8A4E9EF06F0EBEF06F01CEF07F00351AB
:100DD80000019C258F6F000E9D21906FD8908F3752
:100DE8009037100E8F25D96E020E9021DA6EDECF65
:100DF80091F0DDCF92F09151C56FC66B010103519F
:100E080000019C258F6F000E9D21906FD8908F3721
:100E18009037100E8F25D96E020E9021DA6EDECF34
:100E280091F0DDCF92F09251AB6FAC6BEDEF07F024
:100E3800050E0219D8A423EF07F025EF07F056EFA7
:100E480007F0035100019C258F6F000E9D21906FC4
:100E5800D8908F3790376E0E8F25D96E010E90215E
:100E6800DA6EDECF91F0DDCF92F09151C56FC66B8F
:100E78000101035100019C258F6F000E9D21906F89
:100E8800D8908F3790376E0E8F25D96E010E90212E
:100E9800DA6EDECF91F0DDCF92F09251AB6FAC6B92
:100EA800EDEF07F00251D8A45CEF07F05EEF07F012
:100EB8008FEF07F0035100019C258F6F000E9D21D5
:100EC800906FD8908F379037640E8F25D96E040EA7
:100ED8009021DA6EDECF91F0DDCF92F09151C56F9F
:100EE800C66B0101035100019C258F6F000E9D21E7
:100EF800906FD8908F379037640E8F25D96E040E77
:100F08009021DA6EDECF91F0DDCF92F09251AB6F87
:100F1800AC6BEDEF07F0060E0219D8A496EF07F0B8
:100F280098EF07F0C9EF07F0035100019C258F6F78
:100F3800000E9D21906FD8908F379037BF0E8F2568
:100F4800D96E000E9021DA6EDECF91F0DDCF92F0EF
:100F58009151C56FC66B0101035100019C258F6F2C
:100F6800000E9D21906FD8908F379037BF0E8F2538
:100F7800D96E000E9021DA6EDECF91F0DDCF92F0BF
:100F88009251AB6FAC6BEDEF07F0070E0219D8A4C6
:100F9800D0EF07F0D2EF07F0EDEF07F0000E43ECCB
:100FA8002CF005C099F006C09AF0850E00017D6FFF
:100FB800FF0E7E6F99C07FF09AC080F086EC2CF00F
:100FC80000019951C56FC66B9A51AB6FAC6BEDEFD1
:100FD80007F0400E0001AD25D96E020EAE21DA6E83
:100FE800ABC0DFFFAD4BAE2B400EAD25D96E020E68
:100FF800AE21DA6EC5C0DFFFAD4BAE2B9C4B9D2BEF
:101008000101055100018F6F906B8F519C5D9D51BF
:10101800800A916F9051800A9159D8A016EF08F074
:1010280018EF08F034EF06F0ADC005F0AEC006F0DA
:10103800010E076E36EC23F005C0ABF006C0ACF02D
:10104800ADC005F0AEC006F0000E076E36EC23F01A
:1010580005C0C5F006C0C6F0400E0001AD25D96E2A
:10106800020EAE21DA6EABC0DFFF410EAD25D96EA0
:10107800020EAE21DA6EC5C0DFFF020EAD25AD6FE0
:10108800000EAE21AE6F400E066E020E076EADC0AA
:1010980008F0AEC009F05BEC28F0BC0E00017D6FD3
:1010A800FD0E7E6F86EC2CF067EF08F0000E156ED3
:1010B800020E146ECFEC24F0900E00017D6FFE0E30
:1010C8007E6F86EC2CF012004BC0D9FF4CC0DAFFC3
:1010D800DECFF6FFDDCFF7FFF86A0800F550250AE6
:1010E800D8A479EF08F07BEF08F010EF0BF04BC0B5
:1010F800D9FF4CC0DAFFDE2A000EDD22000E000107
:10110800A86F000EA76FA7C057F0A8C058F0A9692C
:10111800AA69000E6C6F000E6B6FDAEF08F057804B
:101128004BC0D9FF4CC0DAFFDE2A000EDD22DAEF11
:1011380008F0578294EF08F0578494EF08F0578628
:1011480094EF08F0578894EF08F0000E6C6F010ECA
:101158006B6FDAEF08F04BC0D9FF4CC0DAFFDECF77
:10116800F6FFDDCFF7FFF86A0800F5504F6E506ABA
:101178005050000AD8B4C3EF08F0A9EF08F04F5058
:10118800200AD8B4A3EF08F0030AD8B4A6EF08F0F1
:10119800080AD8B4A0EF08F0060AD8B493EF08F00C
:1011A8001D0AD8B49DEF08F0A9EF08F06B516C1137
:1011B800D8B4E1EF08F0E3EF08F0AFEF08F057A07C
:1011C800E8EF08F0EAEF08F0EBEF08F057924BC0B1
:1011D800D9FF4CC0DAFFDECFF6FFDDCFF7FFF86AA4
:1011E8000800F5502A0AD8A4FCEF08F0FEEF08F032
:1011F80027EF09F04BC0D9FF4CC0DAFFDE2A000EFA
:10120800DD224DC0D9FF4EC0DAFFDFCF4FF0020E0E
:10121800DE26DFCF50F0000EDD224FC0D9FF50C0D0
:10122800DAFFDECFA7F0DDCFA8F0A8BF20EF09F0E6
:101238001EEF09F06CEF09F05780A76DA81FD8B012
:10124800A82B6CEF09F04BC0D9FF4CC0DAFFDECFFA
:101258000CF0DDCF0DF060EC1BF00CC0A7F00DC05A
:10126800A8F03EEF09F04BC0D9FF4CC0DAFFDE2AE8
:10127800000EDD22D00E4F6EFF0E506E4BC0D9FF10
:101288004CC0DAFFDECFF6FFDDCFF7FFF86A0800C3
:10129800F550516E526A4F505126505052225250BA
:1012A8000AE10A0E515CD8A05CEF09F05FEF09F083
:1012B800010E60EF09F0000E00016D6F6E6B6D514D
:1012C8006E11D8A46AEF09F06CEF09F037EF09F056
:1012D8004BC0D9FF4CC0DAFFDECFF6FFDDCFF7FFFA
:1012E800F86A0800F550640AD8B47DEF09F07FEF7A
:1012F80009F092EF09F04BC0D9FF4CC0DAFFDECFFE
:10130800F6FFDDCFF7FFF86A0800F550690AD8A4A0
:1013180090EF09F092EF09F0D2EF09F04BC0D9FF36
:101328004CC0DAFFDE2A000EDD224DC0D9FF4EC0C8
:10133800DAFFDFCF4FF0020EDE26DFCF50F0000ECF
:10134800DD224FC0D9FF50C0DAFFDECF60F0DDCF1D
:1013580061F0000E61BFFF0E626F636F646F656FAF
:10136800666F676F49C022F04AC023F060C024F05E
:1013780061C025F062C026F063C027F064C028F081
:1013880065C029F066C02AF067C02BF0CDEC13F0D9
:1013980022C049F023C04AF02CEF0BF04BC0D9FF14
:1013A8004CC0DAFFDECFF6FFDDCFF7FFF86A0800A2
:1013B800F550730AD8A4E3EF09F0E5EF09F010EF50
:1013C8000AF04BC0D9FF4CC0DAFFDE2A000EDD223E
:1013D8004DC0D9FF4EC0DAFFDFCF4FF0020EDE2638
:1013E800DFCF50F0000EDD224FC0D9FF50C0DAFF2A
:1013F800DECF68F0DDCF69F049C010F04AC011F0C7
:1014080068C012F069C013F032EC1DF010C049F04A
:1014180011C04AF02CEF0BF04BC0D9FF4CC0DAFFDB
:10142800DECFF6FFDDCFF7FFF86A0800F550750A42
:10143800D8A421EF0AF023EF0AF064EF0AF04BC0BA
:10144800D9FF4CC0DAFFDE2A000EDD224DC0D9FFDD
:101458004EC0DAFFDFCF4FF0020EDE26DFCF50F0AE
:10146800000EDD224FC0D9FF50C0DAFFDECF51F0A9
:10147800DDCF52F051C06FF052C070F0716B726BDB
:10148800736B746B756B766B49C022F04AC023F09E
:101498006FC024F070C025F071C026F072C027F02C
:1014A80073C028F074C029F075C02AF076C02BF0FC
:1014B8005FEC1AF022C049F023C04AF02CEF0BF081
:1014C8004BC0D9FF4CC0DAFFDECFF6FFDDCFF7FF08
:1014D800F86A0800F550780AD8B475EF0AF077EF83
:1014E8000AF08AEF0AF04BC0D9FF4CC0DAFFDECF12
:1014F800F6FFDDCFF7FFF86A0800F550580AD8A4C0
:1015080088EF0AF08AEF0AF0D9EF0AF04BC0D9FF4A
:101518004CC0DAFFDECFF6FFDDCFF7FFF86A080030
:10152800F5CF6AF04BC0D9FF4CC0DAFFDE2A000EB7
:10153800DD224DC0D9FF4EC0DAFFDFCF4FF0020EDB
:10154800DE26DFCF50F0000EDD224FC0D9FF50C09D
:10155800DAFFDECF51F0DDCF52F051C06FF052C04C
:1015680070F0716B726B736B746B756B766B49C0D3
:1015780022F04AC023F06FC024F070C025F071C07B
:1015880026F072C027F073C028F074C029F075C027
:101598002AF076C02BF06AC02CF03DEC15F022C082
:1015A80049F023C04AF02CEF0BF04BC0D9FF4CC0D8
:1015B800DAFFDECFF6FFDDCFF7FFF86A0800F55057
:1015C800250AD8A4EAEF0AF0ECEF0AF003EF0BF0D3
:1015D8004BC0D9FF4CC0DAFFDE2A000EDD22000E18
:1015E800086E250E076E49C009F04AC00AF091EC52
:1015F80026F0000E4A6E010E496E2CEF0BF04BC020
:10160800D9FF4CC0DAFFDE2A000EDD22000E4A6E3A
:10161800000E496E2CEF0BF04BC0D9FF4CC0DAFF1F
:10162800DECFF6FFDDCFF7FFF86A0800F550076E4A
:10163800086A49C009F04AC00AF091EC26F04BC08C
:10164800D9FF4CC0DAFFDE2A000EDD22FDEF0AF0DA
:1016580012000101AD6F21EE9CF00A0EDE6AE80669
:10166800FDE2C20E0B6EFF0E0C6E9C0E0D6E010E8F
:101678000E6E010E106E200E0F6E000E126E050E0D
:10168800116E04EC18F021EE76F0120EDE6AE80610
:10169800FDE2EA0E0B6EFF0E0C6E760E0D6E010E5D
:1016A8000E6E010E106E000E0F6E000E126E080EFA
:1016B800116E04EC18F0000E0101B06F000EB16F4E
:1016C800000EB26FF40E0B6EFF0E0C6EB00E0D6EA8
:1016D800010E0E6E010E106E100E0F6E000E126EC1
:1016E800010E116E04EC18F0000E0101A76F000E38
:1016F800A86F000EA96FD60E0B6EFF0E0C6EA70E0C
:101708000D6E010E0E6E010E106E300E0F6E000E75
:10171800126E010E116E04EC18F0000E0101AA6F92
:10172800000EAB6F000EAC6FDB0E0B6EFF0E0C6E77
:10173800AA0E0D6E010E0E6E010E106E320E0F6E99
:10174800000E126E010E116E04EC18F0780E0001F6
:101758007D6FF90E7E6F86EC2CF0F80E00017D6F20
:10176800FE0E7E6F9C0E7F6F010E806F86EC2CF054
:10177800E40E00017D6FFE0E7E6F760E7F6F010E08
:10178800806F86EC2CF07B0E00017D6FFE0E7E6F65
:10179800B00E7F6F010E806F86EC2CF04F0E0001AB
:1017A8007D6FFE0E7E6F86EC2CF0FA0E00017D6FC9
:1017B800F80E7E6FAD0E7F6FFF0E806FB90E816FD2
:1017C800FF0E826F080E846F340E836F86EC2CF048
:1017D800A30E00017D6FFD0E7E6FBFC07FF0C0C0FD
:1017E80080F086EC2CF06F0E00017D6FFD0E7E6F91
:1017F800C1C07FF0C2C080F086EC2CF0000E010161
:10180800B66F000EB56F22EE1CF011EE89F00A0ECD
:10181800DBCFE3FFE806FCE2000EB86F000EB76FFF
:10182800890EB725D96E010EB821DA6EDF50B36F75
:10183800010EB725556E000EB821566E890E552437
:10184800D96E010E5620DA6EDF50B46FB451B3C1B1
:1018580055F0566A55C056F0556A5526000E562260
:10186800D890B535D96EB635DA6E100ED926020E77
:10187800DA2255C0DEFF56C0DDFFB54BB62B020E8F
:10188800B725B76F000EB821B86FB8BF55EF0CF089
:10189800B85109E10C0EB75DD8A055EF0CF057EF21
:1018A8000CF014EF0CF0000EB66F000EB56F22EEC0
:1018B80031F011EE94F0070EDBCFE3FFE806FCE20F
:1018C800000EBA6F000EB96F940EB925D96E010ECD
:1018D800BA21DA6EDF50B36F010EB925556E000ECE
:1018E800BA21566E940E5524D96E010E5620DA6E22
:1018F800DF50B46FB451B3C155F0566A55C056F0B5
:10190800556A5526000E5622D890B535D96EB6358B
:10191800DA6E6E0ED926010EDA2255C0DEFF56C0E9
:10192800DDFFB54BB62B020EB925B96F000EBA21F3
:10193800BA6FBABFA9EF0CF0BA5109E1080EB95D48
:10194800D8A0A9EF0CF0ABEF0CF068EF0CF0AD05E8
:10195800D8B4B1EF0CF0B3EF0CF05FEF0DF05E0E02
:1019680000017D6FFB0E7E6F86EC2CF0F30E0001FC
:101978007D6FFA0E7E6F86EC2CF0240E00017D6FD1
:10198800F90E7E6F86EC2CF0A20E00017D6FF20E30
:101998007E6F86EC2CF06F0E00017D6FF80E7E6F67
:1019A80086EC2CF0A00E00017D6FF90E7E6F86ECA0
:1019B8002CF0C80E00017D6FF50E7E6F86EC2CF0C2
:1019C800670E00017D6FF60E7E6F86EC2CF0260EFA
:1019D80000017D6FF50E7E6F86EC2CF0F90E00018C
:1019E8007D6FF30E7E6F86EC2CF03A0E00017D6F52
:1019F800F40E7E6F86EC2CF0EB0E00017D6FF20E7C
:101A08007E6F86EC2CF0300E00017D6FF30E7E6F3A
:101A180086EC2CF0570E00017D6FF20E7E6F86EC7F
:101A28002CF0740E00017D6FF30E7E6F86EC2CF0A7
:101A38000C0E00017D6FF20E7E6F86EC2CF0650EA9
:101A480000017D6FFE0E7E6F86EC2CF0A20E000169
:101A58007D6FF80E7E6F86EC2CF0840E00017D6F92
:101A6800FA0E7E6F86EC2CF0A20E00017D6FFB0E45
:101A78007E6F86EC2CF0260E00017D6FFC0E7E6FCB
:101A880086EC2CF0590E00017D6FF10E7E6F86EC0E
:101A98002CF0000E43EC2CF005C0AEF106C0AFF1FF
:101AA800560E00017D6FFF0E7E6FAEC17FF0AFC195
:101AB80080F086EC2CF01200000E0001996F000EE9
:101AC800AE6F000EAD6F400EAD25D96E020EAE2181
:101AD800DA6E00C1DFFFAD4BAE2B400EAD25D96EDF
:101AE800020EAE21DA6E01C1DFFFAD4BAE2B010154
:101AF8000551020D400E0001AD25D96E020EAE2132
:101B0800DA6EF3CFDFFFAD4BAE2B71EF0EF00101B4
:101B180002510001906F8F6B0101055104C191F0D2
:101B28000001926B91C092F0916B9127000E922365
:101B38008F51912790519223010103510001912760
:101B4800000E9223FF0E9125FF0E9221800BD8A440
:101B5800B0EF0DF0B2EF0DF0ECEF0DF0FF0E8F6F60
:101B6800FF0E906F010102510001926F916B01010C
:101B7800055104C193F00001946B93C094F0936BEA
:101B88009327000E94239151932792519423010196
:101B9800035100019327000E94238F5193279051EE
:101BA8009423FF0E956FFF0E966FBFC097F0C0C0CD
:101BB80098F095519727965198239351975D945192
:101BC8009859D8B0EAEF0DF0ECEF0DF084EF0EF075
:101BD8003B0E7D6FF80E7E6FFF0EBF257F6FFF0EE9
:101BE800C021806F86EC2CF0FE0E00017D6FFC0E8C
:101BF8007E6F010102510001906F8F6B010103514B
:101C080000018F257F6F0101000E00019021806F78
:101C1800010104510001926F916B0101035102C14E
:101C280093F00001946B93C094F0936B9327000E8C
:101C38009423915193279251942301010551000156
:101C48009327000E9423FF0E9325816FFF0E942196
:101C5800826F86EC2CF0010E0001996F84EF0EF074
:101C6800CF0E7D6FF60E7E6F86EC2CF0FE0E000117
:101C78007D6FFC0E7E6F010102510001906F8F6B2A
:101C88000101035100018F257F6F0101000E000142
:101C98009021806F010104510001926F916B010145
:101CA800035102C193F00001946B93C094F0936BBD
:101CB8009327000E94239151932792519423010165
:101CC800055100019325816F0101000E0001942147
:101CD800826F86EC2CF02FEF0EF00101025100010B
:101CE8008F6F906B9051000AD8B47DEF0EF034EFEF
:101CF8000EF08F51000AD8B48BEF0DF034EF0EF0D0
:101D08009951D8A48AEF0EF08CEF0EF037EF0FF050
:101D1800000E9B6F000E9A6FE1EF0EF00101025169
:101D2800D8A499EF0EF09BEF0EF0CAEF0EF0035116
:101D380000019A258F6F000E9B21906FD8908F37E6
:101D48009037000E8F25D96E030E9021DA6EDECF04
:101D580091F0DDCF92F09151C56FC66B010103512F
:101D680000019A258F6F000E9B21906FD8908F37B6
:101D78009037000E8F25D96E030E9021DA6EDECFD4
:101D880091F0DDCF92F09251AB6FAC6B400E000139
:101D9800AD25D96E020EAE21DA6EABC0DFFFAD4BBA
:101DA800AE2B400EAD25D96E020EAE21DA6EC5C03F
:101DB800DFFFAD4BAE2B9A4B9B2B01010551000168
:101DC8008F6F906B8F519A5D9B51800A916F9051E4
:101DD800800A9159D8A0F3EF0EF0F5EF0EF092EFCC
:101DE8000EF0ADC005F0AEC006F0010E076E36EC81
:101DF80023F005C0ABF006C0ACF0ADC005F0AEC036
:101E080006F0000E076E36EC23F005C0C5F006C0DC
:101E1800C6F0400E0001AD25D96E020EAE21DA6E75
:101E2800ABC0DFFF410EAD25D96E020EAE21DA6ED2
:101E3800C5C0DFFF020EAD25AD6F000EAE21AE6F3F
:101E4800400E066E020E076EADC008F0AEC009F077
:101E58005BEC28F0BC0E00017D6FFD0E7E6F86ECFA
:101E68002CF044EF0FF0000E156E020E146ECFEC3E
:101E780024F0900E00017D6FFE0E7E6F86EC2CF034
:101E88001200000E00019F6F000E9E6F000E9A6FE9
:101E9800000E996F000E9B6F010102510001906FB7
:101EA8008F6B0101055104C191F00001926B91C043
:101EB80092F0916B9127000E92238F5191279051A8
:101EC80092230101035100019127000E9223FF0E76
:101ED8009125FF0E9221800BD8A475EF0FF077EFB4
:101EE8000FF0B1EF0FF0FF0E8F6FFF0E906F010133
:101EF80002510001926F916B0101055104C193F0E9
:101F08000001946B93C094F0936B9327000E942375
:101F18009151932792519423010103510001932772
:101F2800000E94238F51932790519423FF0E956FA1
:101F3800FF0E966FBFC097F0C0C098F095519727D5
:101F4800965198239351975D94519859D8B0AFEF13
:101F58000FF0B1EF0FF0F7EF0FF03B0E7D6FF80EBB
:101F68007E6FFF0EBF257F6FFF0EC021806F86EC4E
:101F78002CF0FE0E00017D6FFC0E7E6F01010251F8
:101F88000001906F8F6B0101035100018F257F6F56
:101F98000101000E00019021806F01010451000130
:101FA800926F916B0101035102C193F00001946B90
:101FB80093C094F0936B9327000E94239151932729
:101FC800925194230101055100019327000E942397
:101FD800FF0E9325816FFF0E9421826F86EC2CF003
:101FE800010E00019B6F9B51D8A4FDEF0FF0FFEF8E
:101FF8000FF0D1EF10F0000EAE6F000EAD6F400E77
:10200800AD25D96E020EAE21DA6E00C1DFFFAD4BF1
:10201800AE2B400EAD25D96E020EAE21DA6E01C18F
:10202800DFFFAD4BAE2B400EAD25D96E020EAE21B3
:10203800DA6E02C1DFFFAD4BAE2B400EAD25D96E77
:10204800020EAE21DA6E03C1DFFFAD4BAE2B400EA0
:10205800AD25D96E020EAE21DA6E04C1DFFFAD4B9D
:10206800AE2B400EAD25D96E020EAE21DA6E05C13B
:10207800DFFFAD4BAE2B000E9D6F000E9C6F7BEF0C
:1020880010F0080E9E25D96E010E9F21DA6EDF50E2
:102098008F6F070E9E25D96E010E9F21DA6EDF50D5
:1020A800906F9051926F916B8F519125996F000E9F
:1020B80092219A6F020E9E259E6F000E9F219F6FA0
:1020C8000101035100019C258F6F000E9D21906F27
:1020D800D8908F379037000E8F25D96E030E902138
:1020E800DA6E99C0DEFF9AC0DDFF9C4B9D2B010183
:1020F800055100018F6F906B8F519C5D9D51800A37
:10210800916F9051800A9159D8A08DEF10F08FEF00
:1021180010F045EF10F0ADC005F0AEC006F0010EAE
:10212800076E36EC23F005C0ABF006C0ACF0ADC0CE
:1021380005F0AEC006F0000E076E36EC23F005C0C1
:10214800C5F006C0C6F0400E0001AD25D96E020EDE
:10215800AE21DA6EABC0DFFF410EAD25D96E020E9F
:10216800AE21DA6EC5C0DFFF020EAD25AD6F000EE1
:10217800AE21AE6F400E066E020E076EADC008F0BF
:10218800AEC009F05BEC28F0BC0E00017D6FFD0EBF
:102198007E6F86EC2CF0DEEF10F0000E156E020E4E
:1021A800146ECFEC24F0900E00017D6FFE0E7E6F52
:1021B80086EC2CF012001E0E00017D6FFF0E7E6F64
:1021C80086EC2CF0030E02014119D8B4EEEF10F0A2
:1021D800F0EF10F0F9EF10F0040E4119D8A4F7EF62
:1021E80010F0F9EF10F0B6EF11F0170E00017D6F47
:1021F800FB0E7E6F40C27FF0806B86EC2CF05C0E8D
:1022080000017D6FF50E7E6F41C27FF0806B86EC1A
:102218002CF0EC0E00017D6FF90E7E6F42C27FF04C
:10222800806B86EC2CF0000E0001936F010E926F0C
:10223800000E956F000E946F71EF11F0920E7D6F86
:10224800F50E7E6F010E94257F6F000E9521806F2D
:10225800430E9425D96E020E9521DA6EDF508F6FEA
:102268008F51816F826B92C083F093C084F002C15A
:1022780085F0866B0101035100019225906F000ED5
:102288009321916FFF0E9025876FFF0E9121886F24
:1022980086EC2CF00001944B952B3B0E7D6FFB0ECA
:1022A8007E6F010E94257F6F000E9521806F430E7F
:1022B8009425D96E020E9521DA6EDF508F6F8F51FB
:1022C800816F826B92C083F093C084F086EC2CF00F
:1022D8000001924B932B944B952B02014251000124
:1022E8008F6F906B8F51945D9551800A916F9051CB
:1022F800800A9159D8A083EF11F085EF11F022EFF1
:1023080011F0460E7D6FFC0E7E6F010E94257F6FD7
:10231800000E9521806F430E9425D96E020E9521EB
:10232800DA6EDF508F6F8F51816F826B86EC2CF0E5
:10233800660E00017D6FFC0E7E6F020E94257F6F86
:10234800000E9521806F440E9425D96E020E9521BA
:10235800DA6EDF508F6F8F51816F826B86EC2CF0B5
:1023680054EF12F0100E4119D8A4BDEF11F0BFEFD1
:1023780011F011EF12F0170E00017D6FFB0E7E6F4A
:1023880040C27FF0806B86EC2CF05C0E00017D6F04
:10239800F50E7E6F41C27FF0806B86EC2CF0380E14
:1023A80000017D6FFA0E7E6F42C27FF0806B86EC73
:1023B8002CF05E0E00017D6FFA0E7E6F43C27FF037
:1023C800806B86EC2CF0A90E00017D6FFA0E7E6FF3
:1023D80044C27FF0806B86EC2CF0CE0E00017D6F3E
:1023E800FA0E7E6F45C27FF0806B86EC2CF0A40E4F
:1023F80000017D6FFC0E7E6F46C27FF0806B86EC1D
:102408002CF0C20E00017D6FFC0E7E6F47C27FF07C
:10241800806B86EC2CF054EF12F0000E0001956FE3
:10242800000E946F45EF12F003EC2DF00009D8B4BC
:1024380020EF12F022EF12F018EF12F0200E000138
:102448007D6FFE0E7E6F94C07FF095C080F0400EC9
:102458009425D96E020E9521DA6EDF508F6F8F5159
:10246800816F826B86EC2CF027EC2DF00009D8B434
:1024780040EF12F042EF12F038EF12F00001944BE7
:10248800952BAD51945D9551800A8F6FAE51800A9E
:102498008F59D8A052EF12F054EF12F018EF12F043
:1024A800850E00017D6FFD0E7E6F86EC2CF012000C
:1024B800BA0E00017D6FFE0E7E6F86EC2CF0030EC7
:1024C80001010119D8B46BEF12F06DEF12F076EF3D
:1024D80012F0040E0119D8A474EF12F076EF12F07E
:1024E800C8EF12F0170E00017D6FFB0E7E6F00C162
:1024F8007FF0806B86EC2CF05C0E00017D6FF50E92
:102508007E6F01C17FF0806B86EC2CF0380E0001E5
:102518007D6FFA0E7E6F02C17FF0806B86EC2CF027
:102528005E0E00017D6FFA0E7E6F03C17FF0806B37
:1025380086EC2CF0A90E00017D6FFA0E7E6F04C1A7
:102548007FF0806B86EC2CF0CE0E00017D6FFA0ECA
:102558007E6F05C17FF0806B86EC2CF0A40E000125
:102568007D6FFC0E7E6F06C17FF0806B86EC2CF0D1
:10257800E00E00017D6FFC0E7E6F07C17FF0806B5F
:1025880086EC2CF0C5EF13F0100E0119D8A4CFEF8C
:1025980012F0D1EF12F0C5EF13F0170E00017D6FA6
:1025A800FB0E7E6F00C17FF0806B86EC2CF0EF0E87
:1025B80000017D6FF40E7E6F01C17FF0806B86ECA9
:1025C8002CF0380E00017D6FFA0E7E6F02C17FF08D
:1025D800806B86EC2CF05E0E00017D6FFA0E7E6F2C
:1025E80003C17FF0806B86EC2CF0A90E00017D6F93
:1025F800FA0E7E6F04C17FF0806B86EC2CF0CE0E55
:1026080000017D6FFA0E7E6F05C17FF0806B86EC4E
:102618002CF0120E00017D6FFA0E7E6F06C17FF05E
:10262800806B86EC2CF0000E0001956F010E946F04
:10263800000E976F070E966F7DEF13F0B70E7D6F44
:10264800F30E7E6FFF0E96257F6FFF0E9721806F2A
:10265800000E9625D96E010E9721DA6EDF508F6F26
:102668008F51816F826B94C083F095C084F002C152
:1026780085F0866B0101035100019425906F000ECF
:102688009521916FFF0E9025876FFF0E9121886F1E
:102698000101035100019425926F000E9521936F5B
:1026A800FF0E9225896FFF0E93218A6F86EC2CF01E
:1026B8000001964B972B3B0E7D6FFB0E7E6F96C0ED
:1026C8007FF097C080F0000E9625D96E010E9721F5
:1026D800DA6EDF508F6F8F51816F826B94C083F0F9
:1026E80095C084F086EC2CF00001944B952B964B0A
:1026F800972BFE0E8F6FFF0E906FB1C091F0B2C096
:1027080092F08F519127905192239151965D975154
:10271800800A936F9251800A9359D8A096EF13F0CC
:1027280098EF13F022EF13F0460E7D6FFC0E7E6FCC
:1027380096C07FF097C080F0000E9625D96E010EE6
:102748009721DA6EDF508F6F8F51816F826B86EC25
:102758002CF0660E00017D6FFC0E7E6F010E962533
:102768007F6F000E9721806F010E9625D96E010E9E
:102778009721DA6EDF508F6F8F51816F826B86ECF5
:102788002CF09E0E00017D6FFF0E7E6F86EC2CF004
:10279800120024C03CF025C03DF026C03EF027C002
:1027A8003FF028C040F029C041F02AC042F02BC0B9
:1027B80043F043BEE2EF13F0E5EF13F0010EE6EF4E
:1027C80013F0000E3A6E3B6A3A503B10D8B4EFEF64
:1027D80013F0F1EF13F001EF14F0431E421E411EF7
:1027E800401E3F1E3E1E3D1E3C6C000E3D223E22FA
:1027F8003F2240224122422243220001AABF07EF82
:1028080014F009EF14F00AEF14F05792AABF17EF6B
:1028180014F0AA5106E1A905D8B015EF14F017EF86
:1028280014F01DEF14F0000E376E010E366E21EF16
:1028380014F0A9C036F0AAC037F0A7C038F0A8C075
:1028480039F03A503B10D8A42CEF14F02EEF14F0C6
:1028580035EF14F057A433EF14F035EF14F038EFD8
:1028680014F03806D8A03906000E456E1F0E446EC7
:10287800000E0201E56FBDEF14F04406D8A045062E
:10288800C60E4424D96E020E4520DA6E3CC005F00F
:102898003DC006F03EC007F03FC008F040C009F058
:1028A80041C00AF042C00BF043C00CF00A0E0D6E96
:1028B800000E0E6E000E0F6E000E106E000E116EE2
:1028C800000E126E000E136E000E146E84EC1FF0D4
:1028D80005C02CF006C02DF007C02EF008C02FF060
:1028E80009C030F00AC031F00BC032F00CC033F030
:1028F8002CC017F02EC018F095EC2BF01750300FA5
:10290800DF6E3606D8A037063806D8A039063CC090
:1029180005F03DC006F03EC007F03FC008F040C0DB
:1029280009F041C00AF042C00BF043C00CF00A0E97
:102938000D6E000E0E6E000E0F6E000E106E000E65
:10294800116E000E126E000E136E000E146EFFEC68
:102958001DF005C03CF006C03DF007C03EF008C0C1
:102968003FF009C040F00AC041F00BC042F00CC073
:1029780043F045BEC8EF14F0455008E14404D8A020
:10298800C8EF14F0CAEF14F0FAEF14F03C503D1001
:102998003E103F104010411042104310D8A4D7EF0A
:1029A80014F0D9EF14F041EF14F037BEE6EF14F04D
:1029B800375006E13604D8B0E4EF14F0E6EF14F02F
:1029C80041EF14F039BEF1EF14F0395008E1380442
:1029D800D8A0F1EF14F0F3EF14F0FAEF14F057B2B7
:1029E800F8EF14F0FAEF14F041EF14F03A503B10FE
:1029F800D8A401EF15F003EF15F00AEF15F057A46E
:102A080008EF15F00AEF15F028EF15F04406D8A0E6
:102A180045063A503B10D8A414EF15F016EF15F000
:102A28001CEF15F0000E356E2B0E346E20EF15F0EE
:102A3800000E356E2D0E346EC60E4424D96E020E6D
:102A48004520DA6E34C0DFFF22C017F023C018F02B
:102A5800C60E4424196E020E45201A6E38C01BF0AB
:102A680039C01CF06EEC24F017C022F018C023F017
:102A780012000001AABF43EF15F045EF15F046EF2D
:102A880015F05792AABF53EF15F0AA5106E1A90510
:102A9800D8B051EF15F053EF15F059EF15F0000EBF
:102AA8003A6E010E396E5DEF15F0A9C039F0AAC073
:102AB8003AF0A7C03BF0A8C03CF057A866EF15F065
:102AC80068EF15F06CEF15F0FE0E3B26FF0E3C226A
:102AD80024C03DF025C03EF026C03FF027C040F09E
:102AE80028C041F029C042F02AC043F02BC044F06E
:102AF800000E466E1F0E456E000E0201E56F38EFA0
:102B080016F04506D8A046060F0E3D14476E486AD3
:102B180048BE98EF15F0485009E10A0E475CD8A066
:102B280098EF15F09AEF15F0A2EF15F0570E47241D
:102B3800476E000E4820486EA8EF15F0300E472467
:102B4800476E000E4820486EBF0E2D6EFF0E2E6E8B
:102B58002C502F6E306A2D502F262E503022305098
:102B68000AE11A0E2F5CD8A0BCEF15F0BFEF15F0E4
:102B7800010EC0EF15F0000E356E366A355036106E
:102B8800D8B4C9EF15F0CBEF15F0FBEF15F09F0E99
:102B98002D6EFF0E2E6E200E47102F6E000E481061
:102BA800306E2D502F262E50302230500AE11A0E4A
:102BB8002F5CD8A0E2EF15F0E5EF15F0010EE6EF77
:102BC80015F0000E376E386A37503810D8B4EFEF6A
:102BD80015F0F1EF15F0FBEF15F047C00BF048C00A
:102BE8000CF0F3EC28F00BC047F00CC048F0C60E10
:102BF8004524D96E020E4620DA6E47C0DFFF39063B
:102C0800D8A03A063B06D8A03C063DC02DF03EC0F1
:102C18002EF03FC02FF040C030F041C031F042C02C
:102C280032F043C033F044C034F0050E25EF16F0FF
:102C3800D890343233323232313230322F322E326F
:102C48002D32E82E1CEF16F02DC03DF02EC03EF0C0
:102C58002FC03FF030C040F031C041F032C042F0E8
:102C680033C043F034C044F046BE44EF16F046503B
:102C780009E1020E455CD8A044EF16F046EF16F0C5
:102C880076EF16F03D503E103F10401041104210B4
:102C980043104410D8A453EF16F055EF16F085EF03
:102CA80015F03ABE62EF16F03A5006E13904D8B092
:102CB80060EF16F062EF16F085EF15F03CBE6DEF91
:102CC80016F03C5008E13B04D8A06DEF16F06FEF0A
:102CD80016F076EF16F057B274EF16F076EF16F09E
:102CE80085EF15F057A87BEF16F07DEF16F093EF00
:102CF80016F04506D8A04606C60E4524D96E020E23
:102D08004620DA6E2CC0DFFF4506D8A04606C60E60
:102D18004524D96E020E4620DA6E300EDF6E22C0D0
:102D280017F023C018F0C60E4524196E020E46206F
:102D38001A6E3BC01BF03CC01CF06EEC24F017C0B0
:102D480022F018C023F01200C40E056E010E066EA4
:102D5800D00E076EFF0E086E53EC22F005500610D9
:102D6800D8A4B9EF16F0BBEF16F0C0EF16F0D3EC0D
:102D78002BF0010E03EF18F0C40E056E010E066E5F
:102D8800FC0E076EFF0E086E53EC22F0055006107D
:102D9800D8A4D1EF16F0D3EF16F0D8EF16F0000E46
:102DA8002DEC0BF0BDEF16F0C40E056E010E066E8D
:102DB800C90E076EFF0E086E53EC22F00550061080
:102DC800D8A4E9EF16F0EBEF16F00CEF17F023EEAE
:102DD80090F016EE00F0130EDBCFE3FFE806FCE2FE
:102DE800000E0001936F060E946F030E966F000E8F
:102DF800956F010E986F200E976F000E9A6F0A0E4E
:102E0800996F32EC19F0010E2DEC0BF0BDEF16F0B6
:102E1800C40E056E010E066EEF0E076EFF0E086EED
:102E280053EC22F005500610D8A41DEF17F01FEF41
:102E380017F040EF17F023EE7CF016EE14F0130EA7
:102E4800DBCFE3FFE806FCE2140E0001936F060EE9
:102E5800946F010E966F000E956F010E986F000E1D
:102E6800976F000E9A6F100E996F32EC19F0010EE1
:102E78002DEC0BF0BDEF16F0C40E056E010E066EBC
:102E8800F80E076EFF0E086E53EC22F00550061080
:102E9800D8A451EF17F053EF17F074EF17F023EEA3
:102EA80068F016EE28F0130EDBCFE3FFE806FCE22D
:102EB800280E0001936F060E946F020E966F000E97
:102EC800956F010E986F100E976F000E9A6F020E95
:102ED800996F32EC19F0010E2DEC0BF0BDEF16F0E6
:102EE800C40E056E010E066ED60E076EFF0E086E36
:102EF80053EC22F005500610D8B485EF17F087EF91
:102F080017F09AEF17F0C40E056E010E066EE00E6C
:102F1800076EFF0E086E53EC22F005500610D8A479
:102F280098EF17F09AEF17F0BBEF17F023EE54F075
:102F380016EE3CF0130EDBCFE3FFE806FCE23C0E96
:102F48000001936F060E946F060E966F000E956F34
:102F5800010E986F300E976F000E9A6F020E996FE0
:102F680032EC19F0010E2DEC0BF0BDEF16F0C40E8B
:102F7800056E010E066EDB0E076EFF0E086E53EC33
:102F880022F005500610D8B4CCEF17F0CEEF17F0AA
:102F9800E1EF17F0C40E056E010E066EE50E076E22
:102FA800FF0E086E53EC22F005500610D8A4DFEF90
:102FB80017F0E1EF17F002EF18F023EE40F016EEED
:102FC80050F0130EDBCFE3FFE806FCE2500E0001E1
:102FD800936F060E946F060E966F010E956F010E95
:102FE800986F320E976F000E9A6F020E996F32EC3F
:102FF80019F0010E2DEC0BF0BDEF16F0000E1200CB
:10300800000E186E000E176E000E166E000E156E6E
:10301800000E186E000E176E1AEF19F00FC005F0AB
:1030280010C006F0EBEC2CF0196ED00E136ECA0E21
:10303800E82EFED7132EFCD71928D8B426EF18F09F
:1030480028EF18F032EF18F015500D24D96E1650ED
:103058000E20DA6E19C0DFFF154A162A0F4A102A09
:103068000FC005F010C006F0EBEC2CF01A6E0F4AFA
:10307800102AD00E136ECA0EE82EFED7132EFCD7D8
:103088001A28D8B44AEF18F04CEF18F056EF18F099
:1030980015500D24D96E16500E20DA6E1AC0DFFFB7
:1030A800154A162AC20E056EFF0E066E0BC007F0F3
:1030B8000CC008F053EC22F005500610D8A467EFB6
:1030C80018F069EF18F082EF18F01A5019C013F0D1
:1030D800146A13C014F0136A1326000E1422D89031
:1030E8001734D96E1834DA6E640ED926010EDA2236
:1030F80013C0DEFF14C0DDFF18EF19F0EA0E056EED
:10310800FF0E066E0BC007F00CC008F053EC22F05F
:1031180005500610D8A493EF18F095EF18F0AEEF0D
:1031280018F01A5019C013F0146A13C014F0136A77
:103138001326000E1422D8901734D96E1834DA6E7C
:10314800000ED926020EDA2213C0DEFF14C0DDFFFE
:1031580018EF19F0F40E056EFF0E066E0BC007F09F
:103168000CC008F053EC22F005500610D8A4BFEFAD
:1031780018F0C1EF18F0DAEF18F01A5019C013F070
:10318800146A13C014F0136A1326000E1422D89080
:103198001734D96E1834DA6ECD0ED926000EDA221D
:1031A80013C0DEFF14C0DDFF18EF19F0D60E056E50
:1031B800FF0E066E0BC007F00CC008F053EC22F0AF
:1031C80005500610D8A4EBEF18F0EDEF18F0F9EF62
:1031D80018F01950146E136A1A5013240001BF6FA7
:1031E800000E1420C06F18EF19F0DB0E056EFF0EED
:1031F800066E0BC007F00CC008F053EC22F0055027
:103208000610D8A40AEF19F00CEF19F018EF19F00E
:103218001950146E136A1A5013240001C16F000E5E
:103228001420C26F18EF19F0174A182A1150175CAA
:103238001850800A136E1250800A1358D8A027EF2E
:1032480019F029EF19F012EF18F015500D24D96E66
:1032580016500E20DA6E000EDF6E1200BF0E00014F
:103268007D6FF10E7E6F93C07FF094C080F095C0A3
:1032780081F096C082F097C083F098C084F099C01E
:1032880085F09AC086F086EC2CF097C0A0F098C024
:10329800A1F0C60E00017D6FF90E7E6F93C07FF01E
:1032A80094C080F099C081F09AC082F086EC2CF02E
:1032B800C40E096E010E0A6E880E0B6EFD0E0C6EA2
:1032C800C4EC28F099C08FF09AC090F0CCEC20F0B4
:1032D80000018F519011D8B474EF19F076EF19F0FE
:1032E80066EF19F0C30E7D6FFB0E7E6FC40E7F6F05
:1032F800010E806F86EC2CF0DFEC2CF00009D8B4BE
:1033080088EF19F08AEF19F080EF19F0AEEC29F088
:103318000001A26F790EA219D8B495EF19F097EFB2
:1033280019F0A0EF19F0590EA219D8A49EEF19F0C0
:10333800A0EF19F046EF1AF0760E7D6FFF0E7E6F44
:1033480093C07FF094C080F086EC2CF097C08FF08B
:1033580098C090F099C091F09AC092F080EC29F052
:10336800D60E056EFF0E066E93C007F094C008F0E7
:1033780053EC22F005500610D8B4C5EF19F0C7EF8A
:1033880019F0DAEF19F0DB0E056EFF0E066E93C02A
:1033980007F094C008F053EC22F005500610D8A4AA
:1033A800D8EF19F0DAEF19F0F9EF19F0C40E0C6E36
:1033B800010E0D6E60EC1BF00CC09CF00DC09DF072
:1033C800A0C005F0A1C006F0000E076EEEEC2AF0D2
:1033D8000001A04BA12BA0C005F0A1C006F09CC025
:1033E80007F0EEEC2AF02FEF1AF0000E00019F6FA5
:1033F800000E9E6F1DEF1AF0A0C005F0A1C006F0E8
:10340800C40E9E25D96E010E9F21DA6EDF50076E1D
:10341800EEEC2AF00001A04BA12BD00E00019B6F0F
:10342800C90EE82EFED79B2FFCD700D000019E4B7B
:103438009F2BC40E056E010E066E57EC2AF0055040
:1034480000019E5D06509F59D8A02DEF1AF02FEF6E
:103458001AF000EF1AF0940E00017D6FFF0E7E6FD8
:1034680093C07FF094C080F086EC2CF0C40E096EF7
:10347800010E0A6E880E0B6EFD0E0C6EC4EC28F061
:103488005EEF1AF04E0EA219D8B44DEF1AF04FEFB6
:103498001AF058EF1AF06E0EA219D8A456EF1AF0C7
:1034A80058EF1AF05EEF1AF0A10E7D6FFF0E7E6FD7
:1034B80086EC2CF012000001AABF65EF1AF067EF46
:1034C8001AF068EF1AF05792AABF75EF1AF0AA51CE
:1034D80006E1A905D8B073EF1AF075EF1AF07BEF83
:1034E8001AF0000E356E010E346E7FEF1AF0A9C087
:1034F80034F0AAC035F0A7C036F0A8C037F024C011
:1035080038F025C039F026C03AF027C03BF028C073
:103518003CF029C03DF02AC03EF02BC03FF0000E21
:10352800416E1F0E406E000E0201E56F12EF1BF098
:103538004006D8A04106C60E4024D96E020E41208E
:10354800DA6E38C005F039C006F03AC007F03BC063
:1035580008F03CC009F03DC00AF03EC00BF03FC087
:103568000CF00A0E0D6E000E0E6E000E0F6E000EA1
:10357800106E000E116E000E126E000E136E000E0D
:10358800146EA4EC23F005C02CF006C02DF007C083
:103598002EF008C02FF009C030F00AC031F00BC07F
:1035A80032F00CC033F02C50300FDF6E3406D8A048
:1035B80035063606D8A0370638C005F039C006F0FB
:1035C8003AC007F03BC008F03CC009F03DC00AF023
:1035D8003EC00BF03FC00CF00A0E0D6E000E0E6ED2
:1035E800000E0F6E000E106E000E116E000E126EA1
:1035F800000E136E000E146EDBEC21F005C038F0DF
:1036080006C039F007C03AF008C03BF009C03CF0EA
:103618000AC03DF00BC03EF00CC03FF040504110D6
:10362800D8B419EF1BF01BEF1BF04BEF1BF0385011
:1036380039103A103B103C103D103E103F10D8A4F2
:1036480028EF1BF02AEF1BF09CEF1AF035BE37EF7E
:103658001BF0355006E13404D8B035EF1BF037EFD6
:103668001BF09CEF1AF037BE42EF1BF0375008E111
:103678003604D8A042EF1BF044EF1BF04BEF1BF0D1
:1036880057B249EF1BF04BEF1BF09CEF1AF022C02A
:1036980017F023C018F0C60E4024196E020E412000
:1036A8001A6E36C01BF037C01CF06EEC24F017C041
:1036B80022F018C023F01200000E1A6E000E196EC8
:1036C800000E136E000E126E6CEF1BF00C4A0D2AE2
:1036D800010E186E0CC0F6FF0DC0F7FF000EF86E55
:1036E8000E0EF76403D00800F55005D0F6CFE9FFB9
:1036F800F7CFEAFFEF50200AD8B485EF1BF087EF29
:103708001BF0AFEF1BF0F70E0E6EFF0E0F6E0CC026
:10371800F6FF0DC0F7FF000EF86E0E0EF76403D02B
:103728000800F55005D0F6CFE9FFF7CFEAFFEF50D4
:10373800106E116A0E5010260F501122115009E117
:10374800050E105CD8A0ABEF1BF0ADEF1BF0AFEF90
:103758001BF0000E186E18C014F0156A14501510DE
:10376800D8A4B9EF1BF0BBEF1BF06AEF1BF0C5EF55
:103778001BF0000E136E010E126E0C4A0D2A12EF8A
:103788001CF00CC0F6FF0DC0F7FF000EF86E0E0E11
:10379800F76403D00800F55005D0F6CFE9FFF7CF5E
:1037A800EAFFEF500E6E0F6A0F50000AD8B4DFEF31
:1037B8001BF012EF1CF00E502B0AD8B4C1EF1BF00F
:1037C800060AD8B4BDEF1BF012EF1CF019C005F0C3
:1037D8001AC006F0000E086E0A0E076EADEC2CF04B
:1037E8000CC0F6FF0DC0F7FF000EF86E0E0EF76462
:1037F80003D00800F55005D0F6CFE9FFF7CFEAFF70
:10380800EF500E6E0E50055E000E065A300E05245F
:10381800196E000E06201A6EC1EF1BF0D00E0E6E48
:10382800FF0E0F6E0CC0F6FF0DC0F7FF000EF86E0E
:103838000E0EF76403D00800F55005D0F6CFE9FF67
:10384800F7CFEAFFEF50106E116A0E5010260F5096
:10385800112211500AE10A0E105CD8A036EF1CF0B4
:1038680039EF1CF0010E3AEF1CF0000E166E176AC5
:1038780016501710D8A443EF1CF045EF1CF0EAEFE0
:103888001BF012501310D8A44CEF1CF04EEF1CF094
:103898005CEF1CF019C00EF01AC00FF00E1E0F1EC0
:1038A8000E4A0F2A0EC00CF00FC00DF060EF1CF08E
:1038B80019C00CF01AC00DF01200C0EC2CF0F28EFA
:1038C800F28C8398839A839C839E000E2DEC0BF0D8
:1038D80080EC2DF0A5EC2AF054EC2BF0330E00010F
:1038E8007D6FFF0E7E6F86EC2CF0C3EC1EF0E806B1
:1038F800D8A481EF1CF083EF1CF008EF1DF0D3EF84
:103908001CF0320E7D6FF60E7E6F86EC2CF060ECAC
:103918000DF0EEEF1CF0B50E7D6FF40E7E6F86ECA9
:103928002CF00001CF05D8A49CEF1CF09EEF1CF0F2
:10393800A6EF1CF0800E7D6FFB0E7E6F86EC2CF0E0
:1039480021EC28F045EC0FF00001CF05D8A4AFEF2B
:103958001CF0B1EF1CF0EEEF1CF0050E7D6FFC0EB5
:103968007E6F86EC2CF021EC28F0EEEF1CF0CE0EEA
:103978007D6FF80E7E6F86EC2CF095EC00F0EEEF84
:103988001CF0380E7D6FFD0E7E6F86EC2CF0000E5D
:10399800156E010E146ECFEC24F0EEEF1CF0010151
:1039A80001510001A36FA46BA451000AD8B4DFEF42
:1039B8001CF0C5EF1CF0A351030AD8B485EF1CF026
:1039C800070AD8B4BBEF1CF0140AD8B48FEF1CF068
:1039D800C5EF1CF00001CF05D8A4F5EF1CF0F7EFF8
:1039E8001CF0FBEF1CF05CEC12F0DFEC10F07FEC4D
:1039F8002AF054EC2BF0660E00017D6FFF0E7E6FEF
:103A080086EC2CF079EF1CF0000E0001906F100E80
:103A18008F6FCCEC20F000018F519011D8B417EFC4
:103A28001DF019EF1DF02EEF1DF0A8EC16F0310E69
:103A380000017D6FFF0E7E6F86EC2CF0C40E096EC0
:103A4800010E0A6E880E0B6EFD0E0C6EC4EC28F08B
:103A580079EF1CF079EF1CF093EF00F022EE39F0CB
:103A680010EE15F0060EDBCFE3FFE806FCE212C00D
:103A780020F013C021F020502110D8A446EF1DF0EB
:103A880048EF1DF04CEF1DF0150E206E000E216E54
:103A980020C005F021C006F057EC2AF005C024F03C
:103AA80006C025F0A9C022F0AAC023F023BE5FEF0C
:103AB8001DF061EF1DF076EF1DF02450225C2350BD
:103AC800800A146E2550800A1458D8A06EEF1DF095
:103AD80070EF1DF072EF1DF076EF1DF022C024F09C
:103AE80023C025F024C022F025C023F0A7C01EF073
:103AF800A8C01FF057B083EF1DF085EF1DF0A2EFAF
:103B08001DF093EF1DF0000E086E200E076E10C01A
:103B180009F011C00AF091EC26F0244A252A1E501B
:103B2800245C2550800A146E1F50800A1458D8A0AF
:103B3800A0EF1DF0A2EF1DF087EF1DF0000E1D6E27
:103B4800000E1C6EC7EF1DF020C0F6FF21C0F7FF66
:103B5800000EF86E0E0EF76403D00800F55005D07D
:103B6800F6CFE9FFF7CFEAFFEF50146E1450076E57
:103B7800086A10C009F011C00AF091EC26F0204A3A
:103B8800212A1C4A1D2A22501C5C1D50800A146ED2
:103B98002350800A1458D8A0D4EF1DF0D6EF1DF09A
:103BA800A8EF1DF057A0DBEF1DF0DDEF1DF0FAEFD9
:103BB8001DF0EBEF1DF0000E086E200E076E10C012
:103BC80009F011C00AF091EC26F0244A252A1E506B
:103BD800245C2550800A146E1F50800A1458D8A0FF
:103BE800F8EF1DF0FAEF1DF0DFEF1DF024C010F024
:103BF80025C011F01200000E166E14BE08EF1EF05C
:103C080006EF1EF01AEF1EF0141E131E121E111ED0
:103C1800101E0F1E0E1E0D6C000E0E220F221022FB
:103C28001122122213221422010E166E0CBE21EF4D
:103C38001EF01FEF1EF033EF1EF00C1E0B1E0A1EA7
:103C4800091E081E071E061E056C000E0622072206
:103C5800082209220A220B220C22010E161A20EE33
:103C680017F0070EDE6AE806FDE20D500E100F1081
:103C780010101110121013101410D8B446EF1EF0C3
:103C880048EF1EF09AEF1EF0010E156E56EF1EF06B
:103C9800D8900D360E360F361036113612361336CA
:103CA8001436152A14AE5BEF1EF05DEF1EF04CEFD4
:103CB8001EF0D8901736183619361A361B361C36A9
:103CC8001D361E360D50055C0E5006580F5007580D
:103CD800105008581150095812500A5813500B58D0
:103CE80014500C58D8A07BEF1EF07DEF1EF08EEF1D
:103CF8001EF00D50055E0E50065A0F50075A105010
:103D0800085A1150095A12500A5A13500B5A145093
:103D18000C5A1780D89014321332123211321032E2
:103D28000F320E320D32152E5DEF1EF01650D8B43C
:103D3800A0EF1EF0A2EF1EF0B2EF1EF01E1E1D1E19
:103D48001C1E1B1E1A1E191E181E176C000E182288
:103D580019221A221B221C221D221E2217C005F01E
:103D680018C006F019C007F01AC008F01BC009F007
:103D78001CC00AF01DC00BF01EC00CF0120080EC35
:103D88002DF00FEC2DF00009D8B4CDEF1EF0CFEFD9
:103D98001EF077EF1FF00001CF05D8A4D6EF1EF074
:103DA800D8EF1EF0DEEF1EF0890E7D6FFD0E7E6FE0
:103DB80086EC2CF00FEC2DF00009D8B4E6EF1EF0DD
:103DC800E8EF1EF005EF1FF0F8EF1EF0DAEC29F02F
:103DD800556E000E0001AF25D96E050EB021DA6EC2
:103DE80055C0DFFFAF4BB02B0FEC2DF00009D8A466
:103DF80000EF1FF002EF1FF0EAEF1EF0010E0001C6
:103E0800B46F0001B405D8A40CEF1FF00EEF1FF03B
:103E18002AEF1FF041EC26F0A5EC2AF0000E000175
:103E2800B46F000EB06F000EAF6F83B81EEF1FF0B7
:103E380021EF1FF0010E22EF1FF0000EFF0A556E52
:103E4800553A83505518EF0B5518836EC951B1195F
:103E580007E1CA51B219D8A434EF1FF036EF1FF0AA
:103E6800DEEF1EF083BA3BEF1FF03EEF1FF0010EAE
:103E78003FEF1FF0000EFF0A556E553A5546835026
:103E88005518DF0B5518836E36EC20F0E806D8A4D9
:103E980050EF1FF052EF1FF07AEF1FF0050E0101EF
:103EA8000019D8B45AEF1FF05CEF1FF064EF1FF051
:103EB8000051D8A462EF1FF064EF1FF06EEF1FF0FF
:103EC800070E00017D6FF80E7E6F86EC2CF0010E58
:103ED80083EF1FF0FD0E00017D6FF50E7E6F86ECFF
:103EE8002CF07FEC2AF0000E83EF1FF0E40E0001A7
:103EF8007D6FFB0E7E6F86EC2CF077EF1FF01200C3
:103F0800000E166E0CBE8DEF1FF08BEF1FF09FEFAB
:103F18001FF00C1E0B1E0A1E091E081E071E061E79
:103F2800056C000E06220722082209220A220B220B
:103F38000C22010E166E14BEA6EF1FF0A4EF1FF0A0
:103F4800B6EF1FF0141E131E121E111E101E0F1E98
:103F58000E1E0D6C000E0E220F22102211221222AC
:103F6800132214220D500E100F10101011101210E1
:103F780013101410D8B4C3EF1FF0C5EF1FF00DEFE6
:103F880020F0010E156ED3EF1FF0D8900D360E36C7
:103F98000F3610361136123613361436152A14AE6B
:103FA800D8EF1FF0DAEF1FF0C9EF1FF00D50055CD6
:103FB8000E5006580F5007581050085811500958FD
:103FC80012500A5813500B5814500C58D8A0EFEF41
:103FD8001FF0F1EF1FF001EF20F00D50055E0E50BD
:103FE800065A0F50075A1050085A1150095A1250C1
:103FF8000A5A13500B5A14500C5AD89014321332D0
:104008001232113210320F320E320D32152EDAEF13
:104018001FF01650D8B413EF20F015EF20F025EF5D
:1040280020F00C1E0B1E0A1E091E081E071E061E67
:10403800056C000E06220722082209220A220B22FA
:104048000C2205C005F006C006F007C007F008C03E
:1040580008F009C009F00AC00AF00BC00BF00CC048
:104068000CF0120010681168000E0D6E000E0C6E38
:10407800000E0F6E000E0E6E000E136E000E126E06
:1040880075EF20F0000E1224D96E010E1320DA6E9F
:10409800DF50056E0550101A000E0F6E080E0E6EDA
:1040A80010A059EF20F05BEF20F064EF20F0D890DB
:1040B80011321032010E101AA00E111A67EF20F0FB
:1040C800D890113210320E06D8A00F060E500F10DD
:1040D800D8A471EF20F073EF20F054EF20F0124ACB
:1040E800132AFE0E056EFF0E066EB1C007F0B2C0B1
:1040F80008F005500726065008220750125C135096
:10410800800A096E0850800A0958D8A08EEF20F05E
:1041180090EF20F046EF20F010500A6E0B6A10C0A6
:1041280005F011C006F006C005F0066A05500C6ED1
:104138000D6A000E1224D96E010E1320DA6EDF50BC
:10414800056E066A0A50051807E10B500618D8A430
:10415800B0EF20F0B2EF20F0CAEF20F0010E1224E9
:10416800D96E010E1320DA6EDF50056E066A0C5008
:10417800051807E10D500618D8A4C5EF20F0C7EFC1
:1041880020F0CAEF20F0010ECBEF20F0000E120055
:10419800C3C055F0C4C056F0DFEC2CF00009D8B409
:1041A800D8EF20F0DAEF20F058EF21F0DFEC2CF018
:1041B8000009D8B4E2EF20F0E4EF20F034EF21F06A
:1041C800AEEC29F0556E555022EC29F00D0E55181D
:1041D800D8B4F1EF20F0F3EF20F0FDEF20F0C40E9B
:1041E800136E010E146E550E156E000E166E9AECB7
:1041F8002CF0C40E056E010E066E57EC2AF0055021
:1042080000018F5D06509059D8B00DEF21F00FEFE7
:1042180021F023EF21F0C40E096E010E0A6EC50EBF
:104228000B6E010E0C6EC40E056E010E066E57EC79
:104238002AF005C00DF006C00EF0C8EC22F00D0EF5
:104248005518D8A42AEF21F02CEF21F034EF21F0F3
:104258007A0E556E8FC08FF090C090F05DEF21F010
:104268000D0E5518D8A43BEF21F03DEF21F0DAEF01
:1042780020F0C40E056E010E066E57EC2AF0C30E30
:104288000524D96E010E0620DA6E000EDF6E850E4B
:1042980000017D6FFD0E7E6F86EC2CF0C40E056E5E
:1042A800010E066E57EC2AF0000E0001906F000E0A
:1042B8008F6F1200EA0EF66E560EF76E000EF86E4D
:1042C80004EE64F010EE40F00900F5CFEEFFE55083
:1042D800E150FAE1DE0EF66E4B0EF76E000EF86E48
:1042E80003EE00F010EEA4F00900F5CFEEFFE55064
:1042F800E150FAE1460EF66E4E0EF76E000EF86EBD
:1043080002EE00F010EE8BF00900F5CFEEFFE5505D
:10431800E150FAE1CC0EF66E4F0EF76E000EF86E15
:1043280001EE00F010EE76F00900F5CFEEFFE55053
:10433800E150FAE1780EF66E5A0EF76E000EF86E3E
:1043480000EEBFF010EE11F00900F5CFEEFFE550DA
:10435800E150FAE105EE00F0C80EEE6AE806FDE16C
:1043680004EE00F0640EEE6AE806FDE103EEA4F048
:10437800530EEE6AE806FDE102EE8BF05B0EEE6A84
:10438800E806FDE101EEBBF0190EEE6AE806FDE174
:1043980000EEA5F01A0EEE6AE806FDE15A6A596ABF
:1043A800586A576A5B905B92000161EF1CF020EE3F
:1043B80015F0070EDE6AE806FDE20D500E100F102C
:1043C80010101110121013101410D8B4EEEF21F0C1
:1043D800F0EF21F042EF22F0010E1D6EFEEF21F00A
:1043E800D8900D360E360F36103611361236133673
:1043F80014361D2A14AE03EF22F005EF22F0F4EF75
:1044080021F0D890153616361736183619361A365A
:104418001B361C360D50055C0E5006580F500758B9
:10442800105008581150095812500A5813500B5878
:1044380014500C58D8A023EF22F025EF22F036EFC5
:1044480022F00D50055E0E50065A0F50075A1050B4
:10445800085A1150095A12500A5A13500B5A14503C
:104468000C5A1580D890143213321232113210328D
:104478000F320E320D321D2E05EF22F015C005F059
:1044880016C006F017C007F018C008F019C009F0E8
:104498001AC00AF01BC00BF01CC00CF0120059EF38
:1044A80022F0054A062A074A082A07C0F6FF08C06C
:1044B800F7FF000EF86E0E0EF76403D00800F550F3
:1044C80005D0F6CFE9FFF7CFEAFFEF50096E05C038
:1044D800F6FF06C0F7FF000EF86E0E0EF76403D065
:1044E8000800F55005D0F6CFE9FFF7CFEAFFEF5007
:1044F8000918D8A482EF22F084EF22F09DEF22F071
:1045080005C0F6FF06C0F7FF000EF86E0E0EF76442
:1045180003D00800F55005D0F6CFE9FFF7CFEAFF42
:10452800EF500009D8A49BEF22F09DEF22F055EF41
:1045380022F005C0F6FF06C0F7FF000EF86E0E0E5B
:10454800F76403D00800F55005D0F6CFE9FFF7CFA0
:10455800EAFFEF50096E07C0F6FF08C0F7FF000E2C
:10456800F86E0E0EF76403D00800F55005D0F6CFAC
:10457800E9FFF7CFEAFFEF500A6E0A50095C056EB3
:10458800066AD8A0060612000BC013F00CC014F07F
:1045980009C011F00AC012F01150135C12501458DF
:1045A800D8B0D9EF22F0DBEF22F012EF23F00D5054
:1045B80013240F6E0E501420106E0F50115C105003
:1045C8001258D8B0EAEF22F0ECEF22F012EF23F005
:1045D8000D5013260E5014220D5011260E50122283
:1045E8001306D8A0140613C0D9FF14C0DAFF1106A9
:1045F800D8A0120611C0E1FF12C0E2FFDFCFE7FF2B
:104608000D06D8A00E060D500E10D8A40EEF23F0FC
:1046180010EF23F0F4EF22F035EF23F00D500E10D9
:10462800D8B419EF23F01BEF23F035EF23F013C0B4
:10463800D9FF14C0DAFF11C0E1FF12C0E2FFDFCFDB
:10464800E7FF134A142A114A122A0D06D8A00E06AB
:104658000D500E10D8A433EF23F035EF23F01BEFE5
:1046680023F0120012681368000E0D6E000E0C6E17
:10467800000E116E000E106E000E0F6E000E0E6E04
:1046880075EF23F0400E0E24D96E020E0F20DA6E5D
:10469800DF50086E0850121A000E116E080E106EC8
:1046A80012A059EF23F05BEF23F064EF23F0D890CA
:1046B80013321232010E121AA00E131A67EF23F0EA
:1046C800D890133212321006D8A0110610501110CB
:1046D800D8A471EF23F073EF23F054EF23F00E4AC0
:1046E8000F2A05500E5C0F50800A086E0650800A8B
:1046F8000858D8A082EF23F084EF23F046EF23F088
:1047080012500A6E0B6A12C008F013C009F009C0F3
:1047180008F0096A08500C6E0D6A0704D8A497EFD0
:1047280023F099EF23F09FEF23F00AC005F00BC0A8
:1047380006F0A3EF23F00CC005F00DC006F0120040
:104748000D500E100F10101011101210131014101D
:10475800D8B4B1EF23F0B3EF23F0FBEF23F0010E51
:10476800156EC1EF23F0D8900D360E360F36103681
:104778001136123613361436152A14AEC6EF23F046
:10478800C8EF23F0B7EF23F00D50055C0E50065824
:104798000F500758105008581150095812500A580D
:1047A80013500B5814500C58D8A0DDEF23F0DFEF4E
:1047B80023F0EFEF23F00D50055E0E50065A0F5010
:1047C800075A1050085A1150095A12500A5A1350D1
:1047D8000B5A14500C5AD890143213321232113228
:1047E80010320F320E320D32152EC8EF23F005C0ED
:1047F80005F006C006F007C007F008C008F009C0B9
:1048080009F00AC00AF00BC00BF00CC00CF0120043
:10481800000E0A6E08BE15EF24F013EF24F01BEF0C
:1048280024F0076C081ED8B0082A010E0A6E06BECE
:1048380022EF24F020EF24F028EF24F0056C061E68
:10484800D8B0062A010E0A1A000E0C6E000E0B6E66
:1048580007500810D8B433EF24F035EF24F05DEF9B
:1048680024F0010E096E3DEF24F0D8900736083683
:10487800092A08AE42EF24F044EF24F039EF24F07F
:10488800D8900B360C360750055C08500658D8A04F
:1048980050EF24F052EF24F057EF24F00750055E54
:1048A8000850065A0B80D89008320732092E44EF78
:1048B80024F00A50D8B463EF24F065EF24F069EFD0
:1048C80024F00B6C0C1ED8B00C2A0BC005F00CC0E1
:1048D80006F0120057A073EF24F075EF24F07FEF75
:1048E80024F019C010F01AC011F017C012F018C047
:1048F80013F010EC2BF01CBE84EF24F086EF24F0AC
:104908008CEF24F01BC020F01CC021F090EF24F0A5
:10491800000E216E000E206E000E1F6E000E1E6E21
:10492800A2EF24F0000E086E200E076E17C009F0E3
:1049380018C00AF091EC26F01E4A1F2A20501E5C6F
:104948001F50800A1D6E2150800A1D58D8A0AFEF55
:1049580024F0B1EF24F096EF24F057B0B6EF24F02E
:10496800B8EF24F0C2EF24F019C010F01AC011F00B
:1049780017C012F018C013F010EC2BF019C005F096
:104988001AC006F057EC2AF020500524176E215063
:104998000620186E1200000E0001AE6F000EAD6FFB
:1049A800400EAD25D96E020EAE21DA6E00C1DFFFD2
:1049B800AD4BAE2B400EAD25D96E020EAE21DA6E90
:1049C80001010151800FDF6E0001AD4BAE2B400E8F
:1049D800AD25D96E020EAE21DA6E14C0DFFFAD4BE5
:1049E800AE2BADC005F0AEC006F0010E076E36EC7A
:1049F80023F005C0ABF006C0ACF0ADC005F0AEC00A
:104A080006F0000E076E36EC23F005C0C5F006C0B0
:104A1800C6F0400E0001AD25D96E020EAE21DA6E49
:104A2800ABC0DFFF410EAD25D96E020EAE21DA6EA6
:104A3800C5C0DFFF020EAD25AD6F000EAE21AE6F13
:104A4800400E066E020E076EADC008F0AEC009F04B
:104A58005BEC28F012008B0E5A24D96EDA6A020E2B
:104A6800DA22000EDF6E0E019DA53DEF25F03FEF27
:104A780025F053EF25F08B0E5A24D96EDA6A020E10
:104A8800DA220201DF8202D853EF25F00500FA6E20
:104A9800F051FD6EF151FE6EFF6AFA5012000E01E0
:104AA8009DA359EF25F05BEF25F06FEF25F08B0EF6
:104AB8005A24D96EDA6A020EDA220201DF8402D899
:104AC8006FEF25F00500FA6EEE51FD6EEF51FE6EA8
:104AD800FF6AFA5012008B0E5A24D96EDA6A020E57
:104AE800DA22DF50D8B47BEF25F07DEF25F08CEF8C
:104AF80025F002D88AEF25F00500FA6E0201EC5184
:104B0800FD6EED51FE6EFF6AFA5012008EEF25F031
:104B18005AEC2CF01200000E5924D96EDA6A040EF1
:104B2800DA22000EDF6E9DA49CEF25F09EEF25F0A3
:104B3800B3EF25F0000E5924D96EDA6A040EDA2292
:104B48000401DF8202D8B3EF25F00500FA6E0201F6
:104B5800EA51FD6EEB51FE6EFF6AFA5012009DA2FB
:104B6800B8EF25F0BAEF25F0CFEF25F0000E592465
:104B7800D96EDA6A040EDA220401DF8402D8CFEF94
:104B880025F00500FA6E0201E851FD6EE951FE6E4E
:104B9800FF6AFA501200000E5924D96EDA6A040E20
:104BA800DA22DF50D8B4DBEF25F0DDEF25F0ECEFAB
:104BB80025F002D8EAEF25F00500FA6E0201E65169
:104BC800FD6EE751FE6EFF6AFA501200EEEF25F017
:104BD80070EC2CF0120020001F001E001D001C00AD
:104BE8001B001A0019001800170016001500140001
:104BF80013001200110010000F000E000D000C0031
:104C08000B000A0009000800070006000500040060
:104C18000300020001005049534F0000000000004B
:104C2800000000000000000000005349504F000041
:104C380000000000000000000000000000005265B5
:104C4800766973696F6E00000000000000000000C4
:104C5800000050617274204E756D6265720000002C
:104C680000000000000053657269616C204E756D8C
:104C780062657200000000000000000E076E000E62
:104C8800066E000E076E000E066E5DEF26F0000E33
:104C98000624D96E050E0720DA6E000EB125E16EE6
:104CA800010EB221E26EDFCFE7FFB14BB22B064A0D
:104CB800072A0001AF51065C0750800A056EB05103
:104CC800800A0558D8A06BEF26F06DEF26F04BEF61
:104CD80026F00F0E01010119D8A475EF26F077EF21
:104CE80026F080EF26F0090E06250001C96FCA6B71
:104CF800000ECA2390EF26F0100E0119D8A487EFF2
:104D080026F089EF26F08BEF26F077EF26F0000EDD
:104D18000001CA6F080EC96F120009500A10D8B4F2
:104D280098EF26F09AEF26F0A3EF26F009500A1024
:104D3800D8A4A1EF26F0A3EF26F0A8EF26F007509D
:104D480077EC2DF0DBEF26F020EE04F00950D926A1
:104D58000A50DA22DE50DE10D8B4B5EF26F0B7EFED
:104D680026F0D2EF26F020EE04F00950D9260A509A
:104D7800DA2210EE02F00950E1260A50E222DE5053
:104D8800E65CE650800A0F6EDE50800A0F58D8B0F5
:104D9800D0EF26F0D2EF26F0DBEF26F020EE02F07F
:104DA8000950D9260A50DA22DE2A000EDD22120026
:104DB800000E876E000E866E000E836E000E846EE7
:104DC800000E856E070E8C6E070E886EFE0E896EBD
:104DD800BF0E8A6EFE0E8B6E0F0126693B0E216F89
:104DE800B50E196F070E2E6F1169000E256F000E94
:104DF8002D6F000E186F000E106F000E206F000E42
:104E08002C6F000E0F6F000E176F000E1F6F000E35
:104E1800246F0E6916691E692369070E2B6F0D69C9
:104E280015691D6922690F0E2A6F170E0E01B56FDD
:104E38000B0EEF6F090EFD6F090E8D6F1200FFFF4D
:104E48000000000000000000000000000000FFFF5C
:104E580000000000000000000000417072203130A6
:104E68002032303231FFFF00000000000000003126
:104E7800393A32393A3436286E756C6C2900FF009D
:104E8800000000000000000000000000000000001A
:104E9800000000000000000000000000000000000A
:104EA80000000000000000000000000000000000FA
:104EB80000000000000000000000000000000000EA
:094EC800000000000000000000E1
:104ED2000E01C59F5E0E056E4A0E066E4AEC2DF05F
:104EE2000E01C59D940E056E550E066E45EC2DF015
:104EF200080E0E019F6F900E9D6F240E9E6FA00EE6
:104F02009B6F010E9C6F260E056E5B0E066E54ECB7
:104F12002DF0F80E056E5A0E066E4FEC2DF00C0EAB
:104F2200056E5B0E066E59EC2DF0000E0001BA6F95
:104F3200000EBE6F000EBD6F200ED16F000E5A6EB6
:104F4200000EBC6F000EBB6F0E01C58F12000E016A
:104F5200C59B1E0E056E4B0E066E63EC2DF00E0108
:104F6200C599640E056E560E066E5EEC2DF0080EA7
:104F72009F6E900E9D6E240E9E6EA00E9B6E010E75
:104F82009C6E280E056E5B0E066E6DEC2DF0120EF9
:104F9200056E5B0E066E68EC2DF0180E056E5B0E4C
:104FA200066E72EC2DF0000E0001B56F000EB96FA7
:104FB200000EB86F100ED06F000E596E000EB76F54
:104FC200000EB66F0E01C58B1200FF00000000003C
:104FD20000000000000000000000000000000000CF
:104FE20000000000000000000000000000000000BF
:104FF20000000000000000000000000000000000AF
:10500200000000000000000000000000000000009E
:10501200000000000000000000000000000000008E
:105022000000000000000000000000000000FFFF80
:105032000000000000000000FFFF00000000000070
:1050420003C18FF00001906B41EF28F0540E7D6F89
:10505200FD0E7E6F8FC07FF090C080F0D8908F35AC
:10506200D96E9035DA6E000ED926030EDA22DECF23
:1050720081F0DDCF82F086EC2CF000018F4B902B7B
:1050820006C105F0066A000E086E020E076E0CECF1
:1050920024F0055000018F5D9051800A556E065034
:1050A200800A5558D8A058EF28F05AEF28F027EF79
:1050B20028F0120083EC2DF01BEC2DF00009D8B47F
:1050C20065EF28F067EF28F05DEF28F0000E0C6E18
:1050D200000E0B6E82EF28F00B500624D96E0C5096
:1050E2000720DA6EDF5051EC29F032EC2DF0000986
:1050F200D8B47EEF28F080EF28F076EF28F00B4A44
:105102000C2A08500B5C0C50800A0A6E0950800A67
:105112000A58D8A08FEF28F091EF28F06DEF28F011
:10512200120079C053F07AC054F0000E0001A66F4D
:10513200000EA56FB0EF28F077C049F078C04AF0B2
:10514200530E4B6E000E4C6E7BC04DF07CC04EF089
:1051520068EC08F049500001A5274A50A62353C025
:10516200F6FF54C0F7FFF86A0800F5500009D8A40A
:10517200BDEF28F0BFEF28F09DEF28F0A5C077F033
:10518200A6C078F012000BC00FF00CC010F009C0DE
:1051920011F00AC012F00F500D6E10500E6E0F4A31
:1051A200102A0DC0F6FF0EC0F7FF000EF86E11C0F8
:1051B200D9FF12C0DAFF114A122A0E0EF76403D089
:1051C2000800F55005D0F6CFE9FFF7CFEAFFEF5020
:1051D200DF6EDF50D8A4F0EF28F0F2EF28F0CCEF2A
:1051E20028F012009F0E0D6EFF0E0E6E0BC00FF018
:1051F2000CC010F00D500F260E50102210500AE174
:105202001A0E0F5CD8A008EF29F00BEF29F0010E5F
:105212000CEF29F0000E116E126A11501210D8B460
:1052220015EF29F017EF29F01DEF29F05F0E0B148F
:105232000B6E0C6A21EF29F00BC00BF00CC00CF0C6
:105242001200056E0001D151D8B42AEF29F02CEFDB
:1052520029F023EF29F00E01C5BD32EF29F034EF1A
:1052620029F038EF29F005C09AFE4EEF29F0C59DCE
:10527200C40E0001BE25D96EDA6A030EDA2205C019
:10528200DFFFBE2B1F0EBE6549EF29F04BEF29F061
:105292004DEF29F0000EBE6FD1070E01C58D120031
:1052A200056E0001D051D8B459EF29F05BEF29F017
:1052B20052EF29F00E01C5B961EF29F063EF29F031
:1052C20067EF29F005C09AFF7DEF29F0C599AB0E73
:1052D2000001B925D96EDA6A020EDA2205C0DFFFB3
:1052E200B92B0F0EB96578EF29F07AEF29F07CEF30
:1052F20029F0000EB96FD0070E01C58912007B0E8E
:1053020000017D6FF40E7E6F8FC07FF090C080F041
:1053120091C081F092C082F086EC2CF0000E566EA5
:10532200000E556EA1EF29F08F515524056E905154
:105332005620066EFF0E076EEEEC2AF0554A562AEC
:1053420000019151555C92515658D8A0ABEF29F00B
:10535200ADEF29F095EF29F012000001BB51D8B44E
:10536200B5EF29F0B7EF29F0AEEF29F08B0EBC258F
:10537200D96EDA6A020EDA22DF50BA6FA40EBC25A9
:10538200D96EDA6A030EDA22DF50056EBC2B1F0ECD
:10539200BC65CEEF29F0D0EF29F0D2EF29F0000E54
:1053A200BC6F0E01C59F0001BB070E01C58F0550E2
:1053B20012000001B651D8B4E1EF29F0E3EF29F071
:1053C200DAEF29F0000EB725D96EDA6A040EDA2276
:1053D200DF50B56F640EB725D96EDA6A050EDA2290
:1053E200DF50056EB72B630EB765FAEF29F0FCEFBD
:1053F20029F0FEEF29F0000EB76F0E01C59B0001E8
:10540200B6070E01C58B05501200010E0B6E200E61
:1054120005180610D8B410EF2AF012EF2AF02BEF7D
:105422002AF0F70E076EFF0E086E05C009F006C0DF
:105432000AF00750092608500A220A5009E1050E0F
:10544200095CD8A027EF2AF029EF2AF02BEF2AF0E7
:10545200000E0B6E0BC005F0066A1200000E6A6E9B
:10546200000E6B6E000E6C6E000E6D6E000E686E9E
:10547200000E696E000E666E000E0F015F6F000E69
:105482005D6F000E5E6F000E596F000E5A6F000EB8
:105492005B6F000E656E000E586F000E566F000EA9
:1054A200576F940E606E0A0E5C6F120005C007F013
:1054B20006C008F05FEF2AF0054A062A05C0F6FF8B
:1054C20006C0F7FF000EF86E0E0EF76403D0080058
:1054D200F55005D0F6CFE9FFF7CFEAFFEF5000090C
:1054E200D8A476EF2AF078EF2AF05DEF2AF0075081
:1054F200055C056E08500658066E1200000E066E18
:10550200000E056E000E066E000E056E000E0524DE
:10551200D96E010E0620DA6EFF0EDF6E054A062AEC
:1055220006BE9DEF2AF0065009E1630E055CD8A085
:105532009DEF2AF09FEF2AF087EF2AF0000E00017C
:10554200B26F000EB16F1200000E076E000E066EF3
:10555200000E076E000E066EB9EF2AF0000E06244A
:10556200D96E050E0720DA6EFF0EDF6E064A072A95
:105572000001AF51065C0750800A056EB051800AE7
:105582000558D8A0C7EF2AF0C9EF2AF0AFEF2AF0EA
:105592001200200E0001D161D1EF2AF0D3EF2AF0E0
:1055A200EBEF2AF0C40EBD25D96EDA6A030EDA22B9
:1055B200DF500E019A6F0001BD2B1F0EBD65E4EF97
:1055C2002AF0E6EF2AF0E8EF2AF0000EBD6FD12BA9
:1055D200EDEF2AF00E01C59D1200000EF2BE010E83
:1055E200086E0650030B7F6E05C07EFF07C080FF6A
:1055F2003F0E81168184F29E550E826EAA0E826E35
:10560200818281B207EF2BF009EF2BF002EF2BF032
:10561200819408B002D0F29E01D0F28E1200000EE8
:10562200166E000E156E21EF2BF014C007F0086AFB
:1056320012C009F013C00AF091EC26F0154A162A9E
:1056420015501024D96E16501120DA6EDF50146EE8
:105652001450D8A42FEF2BF031EF2BF016EF2BF0D4
:105662001200100E0001D06139EF2BF03BEF2BF04E
:1056720051EF2BF0AB0EB825D96EDA6A020EDA22A0
:10568200DF509A6EB82B0F0EB8654AEF2BF04CEF35
:105692002BF04EEF2BF0000EB86FD02B53EF2BF008
:1056A2000E01C5991200000E066E000E056E000E68
:1056B200066E000E056E400E0524D96E020E0620FF
:1056C200DA6EFF0EDF6E054A062A06BE72EF2BF077
:1056D200065009E1200E055CD8A072EF2BF074EFA2
:1056E2002BF05CEF2BF0120001000200030004001B
:1056F200050006000700080009000A000B000C0064
:105702000D000E000F001000110012001300140013
:10571200150016001700180019001A001B001C00C3
:105722001D001E001F00200018BEA2EF2BF0185013
:1057320006E11704D8B0A0EF2BF0A2EF2BF0B0EFE8
:105742002BF017C019F018C01AF0191E1A1E194AA8
:105752001A2A19C017F01AC018F0B4EF2BF017C0AC
:1057620017F018C018F012009F0E076EFF0E086E99
:10577200200E0510096E000E06100A6E075009264B
:1057820008500A220A500AE11A0E095CD8A0CCEF8E
:105792002BF0CFEF2BF0010ED0EF2BF0000E056EA9
:1057A200066A12000001CF51D8A4DAEF2BF0DCEF29
:1057B2002BF0E6EF2BF0010ECF6F440E7D6FFF0E44
:1057C2007E6F86EC2CF0EEEF2BF0000ECF6F0B0EFF
:1057D2007D6FFF0E7E6F86EC2CF012009F0E076E1F
:1057E200FF0E086E05C009F006C00AF00750092630
:1057F20008500A220A500AE11A0E095CD8A004EFE6
:105802002CF007EF2CF0010E08EF2CF0000E056EC5
:10581200066A1200BF0E076EFF0E086E05C009F081
:1058220006C00AF00750092608500A220A500AE167
:105832001A0E095CD8A020EF2CF023EF2CF0010EF9
:1058420024EF2CF0000E056E066A1200D00E076ED1
:10585200FF0E086E05C009F006C00AF007500926BF
:1058620008500A220A500AE10A0E095CD8A03CEF4D
:105872002CF03FEF2CF0010E40EF2CF0000E056EE5
:10588200066A1200096E09C05FFF608E609C60802C
:1058920060B04EEF2CF050EF2CF049EF2CF064503A
:1058A200086E076A63500724056E000E0820066E14
:1058B2001200A40E5A24D96EDA6A030EDA2299CEA5
:1058C200DFFF5A2A1F0E5A6469EF2CF06BEF2CF09F
:1058D2006DEF2CF0000E5A6E0001BB2B1200640E0D
:1058E2005924D96EDA6A050EDA2299CFDFFF592AD6
:1058F200630E59647FEF2CF081EF2CF083EF2CF0D4
:10590200000E596E0001B62B12007F0E00018D6F42
:10591200000E8E6F000E776F000E786F7DC079F0EB
:105922007EC07AF08D0E7B6F000E7C6F92EC28F0B9
:10593200120013C005F014C006F057EC2AF005500F
:105942001324096E065014200A6E15C00BF016C0FF
:105952000CF0C4EC28F0120005500702F3CF09F056
:10596200F4CF0AF005500802F3500A260650070247
:10597200F3500A2609C005F00AC006F012008FECA7
:105982002DF0D1EC2CF0DCEC26F0F7EC2CF0A8ECAE
:1059920027F069EC27F02FEC2AF091EC2DF01200A1
:1059A200000E0E01E16F000EE26F000EE36F000EBB
:1059B200E46F000EE56F000EE66F12000001BB51AE
:1059C200D8A4E6EF2CF0E9EF2CF0010EEAEF2CF070
:1059D200000E12000650030B7F6E05C07EFF3F0EC5
:1059E2008116818000F000F080501200600E0E01DE
:1059F200D86F000EDA6F000EDC6F060EDE6F000E3F
:105A0200DD6F12000001D151D8A40AEF2DF00DEF85
:105A12002DF0010E0EEF2DF0000E12000001B65116
:105A2200D8A416EF2DF019EF2DF0010E1AEF2DF07C
:105A3200000E12000001D051D8A422EF2DF025EF64
:105A42002DF0010E26EF2DF0000E12000E019EB376
:105A52002DEF2DF030EF2DF0010E31EF2DF0000E75
:105A620012009EB237EF2DF03AEF2DF0010E3BEF10
:105A72002DF0000E12000C000F005A00FF00FFFF75
:075A820008000500FFFF0111
:105A8A0005C0F8F206C0F9F2120005C0F6F206C027
:105A9A00F7F2120005C0EEF206C0EFF2120005C0DE
:105AAA00F0F206C0F1F2120005C0ECF206C0EDF207
:105ABA00120005C0F4F206C0F5F2120005C0F2F2B7
:105ACA0006C0F3F2120005C0E8F206C0E9F21200BD
