:020000040000FA
:0400000093EF00F08A
:100008005A82FACF01F0FBCF02F0D9CF03F0DACF52
:1000180004F0F2AC12EF00F014EF00F089EF00F0FA
:100028000E01C5AD1AEF00F01CEF00F032EF00F042
:10003800CDAD21EF00F023EF00F032EF00F002D851
:1000480030EF00F00500FA6E0001DC51FD6EDD5165
:10005800FE6EFF6AFA50120089EF00F0C5AF37EF65
:1000680000F039EF00F04FEF00F0CDAF3EEF00F0B9
:1000780040EF00F04FEF00F002D84DEF00F0050020
:10008800FA6E0001DA51FD6EDB51FE6EFF6AFA501E
:10009800120089EF00F0C5A954EF00F056EF00F008
:1000A8006CEF00F0CDA95BEF00F05DEF00F06CEFB6
:1000B80000F002D86AEF00F00500FA6E0001D8518E
:1000C800FD6ED951FE6EFF6AFA50120089EF00F0FA
:1000D800C5AB71EF00F073EF00F089EF00F0CDAB26
:1000E80078EF00F07AEF00F089EF00F002D887EFA0
:1000F80000F00500FA6E0001D651FD6ED751FE6E74
:10010800FF6AFA50120089EF00F004C0DAFF03C05A
:10011800D9FF02C0FBFF01C0FAFF5A92110053EF4A
:100128000FF04BC0D9FF4CC0DAFFDECFF6FFDDCFB2
:10013800F7FFF86A0800F550250AD8A4A6EF00F0E2
:10014800A8EF00F03DEF03F04BC0D9FF4CC0DAFF39
:10015800DE2A000EDD22000E00018B6F000E8A6F72
:100168008AC056F08BC057F08C698D69000EAB6F52
:10017800000EAA6F07EF01F056804BC0D9FF4CC0A4
:10018800DAFFDE2A000EDD2207EF01F05682C1EF0A
:1001980000F05684C1EF00F05686C1EF00F0568893
:1001A800C1EF00F0000EAB6F010EAA6F07EF01F070
:1001B8004BC0D9FF4CC0DAFFDECFF6FFDDCFF7FF2B
:1001C800F86A0800F5504F6E506A5050000AD8B4CB
:1001D800F0EF00F0D6EF00F04F50200AD8B4D0EF7F
:1001E80000F0030AD8B4D3EF00F0080AD8B4CDEF72
:1001F80000F0060AD8B4C0EF00F01D0AD8B4CAEF60
:1002080000F0D6EF00F0AA51AB11D8B40EEF01F010
:1002180010EF01F0DCEF00F056A015EF01F017EF3A
:1002280001F018EF01F056924BC0D9FF4CC0DAFF2D
:10023800DECFF6FFDDCFF7FFF86A0800F5502A0A8F
:10024800D8A429EF01F02BEF01F054EF01F04BC0D7
:10025800D9FF4CC0DAFFDE2A000EDD224DC0D9FFDF
:100268004EC0DAFFDFCF4FF0020EDE26DFCF50F0B0
:10027800000EDD224FC0D9FF50C0DAFFDECF8AF072
:10028800DDCF8BF08BBF4DEF01F04BEF01F099EF15
:1002980001F056808A6D8B1FD8B08B2B99EF01F037
:1002A8004BC0D9FF4CC0DAFFDECF0CF0DDCF0DF02C
:1002B80003EC08F00CC08AF00DC08BF06BEF01F076
:1002C8004BC0D9FF4CC0DAFFDE2A000EDD22D00E6B
:1002D8004F6EFF0E506E4BC0D9FF4CC0DAFFDECF19
:1002E800F6FFDDCFF7FFF86A0800F550516E526A45
:1002F8004F5051265050522252500AE10A0E515C7A
:10030800D8A089EF01F08CEF01F0010E8DEF01F01C
:10031800000E0001AC6FAD6BAC51AD11D8A497EFD6
:1003280001F099EF01F064EF01F04BC0D9FF4CC028
:10033800DAFFDECFF6FFDDCFF7FFF86A0800F550E9
:10034800640AD8B4AAEF01F0ACEF01F0BFEF01F0F6
:100358004BC0D9FF4CC0DAFFDECFF6FFDDCFF7FF89
:10036800F86A0800F550690AD8A4BDEF01F0BFEF9C
:1003780001F0FFEF01F04BC0D9FF4CC0DAFFDE2AD5
:10038800000EDD224DC0D9FF4EC0DAFFDFCF4FF09F
:10039800020EDE26DFCF50F0000EDD224FC0D9FF5F
:1003A80050C0DAFFDECF9FF0DDCFA0F0000EA0BF77
:1003B800FF0EA16FA26FA36FA46FA56FA66F49C0B0
:1003C80022F04AC023F09FC024F0A0C025F0A1C0AD
:1003D80026F0A2C027F0A3C028F0A4C029F0A5C029
:1003E8002AF0A6C02BF05AEC03F022C049F023C033
:1003F8004AF059EF03F04BC0D9FF4CC0DAFFDECF0B
:10040800F6FFDDCFF7FFF86A0800F550730AD8A4A5
:1004180010EF02F012EF02F03DEF02F04BC0D9FFEF
:100428004CC0DAFFDE2A000EDD224DC0D9FF4EC0D7
:10043800DAFFDFCF4FF0020EDE26DFCF50F0000EDE
:10044800DD224FC0D9FF50C0DAFFDECFA7F0DDCFE5
:10045800A8F049C010F04AC011F0A7C012F0A8C017
:1004680013F036EC07F010C049F011C04AF059EF0C
:1004780003F04BC0D9FF4CC0DAFFDECFF6FFDDCF6B
:10048800F7FFF86A0800F550750AD8A44EEF02F095
:1004980050EF02F091EF02F04BC0D9FF4CC0DAFFE9
:1004A800DE2A000EDD224DC0D9FF4EC0DAFFDFCFB5
:1004B8004FF0020EDE26DFCF50F0000EDD224FC0D7
:1004C800D9FF50C0DAFFDECF51F0DDCF52F051C076
:1004D800AEF052C0AFF0B06BB16BB26BB36BB46B34
:1004E800B56B49C022F04AC023F0AEC024F0AFC0BB
:1004F80025F0B0C026F0B1C027F0B2C028F0B3C0D4
:1005080029F0B4C02AF0B5C02BF035EC06F022C0B3
:1005180049F023C04AF059EF03F04BC0D9FF4CC053
:10052800DAFFDECFF6FFDDCFF7FFF86A0800F550F7
:10053800780AD8B4A2EF02F0A4EF02F0B7EF02F005
:100548004BC0D9FF4CC0DAFFDECFF6FFDDCFF7FF97
:10055800F86A0800F550580AD8A4B5EF02F0B7EFCA
:1005680002F006EF03F04BC0D9FF4CC0DAFFDECF34
:10057800F6FFDDCFF7FFF86A0800F5CFA9F04BC00A
:10058800D9FF4CC0DAFFDE2A000EDD224DC0D9FFAC
:100598004EC0DAFFDFCF4FF0020EDE26DFCF50F07D
:1005A800000EDD224FC0D9FF50C0DAFFDECF51F078
:1005B800DDCF52F051C0AEF052C0AFF0B06BB16BAE
:1005C800B26BB36BB46BB56B49C022F04AC023F071
:1005D800AEC024F0AFC025F0B0C026F0B1C027F0FF
:1005E800B2C028F0B3C029F0B4C02AF0B5C02BF0CF
:1005F800A9C02CF0CAEC04F022C049F023C04AF08C
:1006080059EF03F04BC0D9FF4CC0DAFFDECFF6FF3D
:10061800DDCFF7FFF86A0800F550250AD8A417EFD0
:1006280003F019EF03F030EF03F04BC0D9FF4CC0D3
:10063800DAFFDE2A000EDD22000E086E250E076E98
:1006480049C009F04AC00AF010EC0DF0000E4A6EDD
:10065800010E496E59EF03F04BC0D9FF4CC0DAFFC9
:10066800DE2A000EDD22000E4A6E000E496E59EF9A
:1006780003F04BC0D9FF4CC0DAFFDECFF6FFDDCF69
:10068800F7FFF86A0800F550076E086A49C009F0D4
:100698004AC00AF010EC0DF04BC0D9FF4CC0DAFF8D
:1006A800DE2A000EDD222AEF03F0120024C03CF0FF
:1006B80025C03DF026C03EF027C03FF028C040F0DE
:1006C80029C041F02AC042F02BC043F043BE6FEF6F
:1006D80003F072EF03F0010E73EF03F0000E3A6EB1
:1006E8003B6A3A503B10D8B47CEF03F07EEF03F03E
:1006F8008EEF03F0431E421E411E401E3F1E3E1E4B
:100708003D1E3C6C000E3D223E223F2240224122EB
:100718004222432200018DBF94EF03F096EF03F0CD
:1007280097EF03F056928DBFA4EF03F08D5106E1C9
:100738008C05D8B0A2EF03F0A4EF03F0AAEF03F002
:10074800000E376E010E366EAEEF03F08CC036F039
:100758008DC037F08AC038F08BC039F03A503B1062
:10076800D8A4B9EF03F0BBEF03F0C2EF03F056A42F
:10077800C0EF03F0C2EF03F0C5EF03F03806D8A0CE
:100788003906000E456E1F0E446E000E0101E76F1C
:100798004AEF04F04406D8A04506C80E4424D96E92
:1007A800010E4520DA6E3CC005F03DC006F03EC0A3
:1007B80007F03FC008F040C009F041C00AF042C04D
:1007C8000BF043C00CF00A0E0D6E000E0E6E000EFC
:1007D8000F6E000E106E000E116E000E126E000EDF
:1007E800136E000E146E94EC09F005C02CF006C0D0
:1007F8002DF007C02EF008C02FF009C030F00AC055
:1008080031F00BC032F00CC033F02CC017F02EC002
:1008180018F09DEC10F01750300FDF6E3606D8A098
:1008280037063806D8A039063CC005F03DC006F0AA
:100838003EC007F03FC008F040C009F041C00AF0D0
:1008480042C00BF043C00CF00A0E0D6E000E0E6E87
:10085800000E0F6E000E106E000E116E000E126E5E
:10086800000E136E000E146ED0EC08F005C03CF0BC
:1008780006C03DF007C03EF008C03FF009C040F098
:100888000AC041F00BC042F00CC043F045BE55EF22
:1008980004F0455008E14404D8A055EF04F057EFA0
:1008A80004F087EF04F03C503D103E103F1040101C
:1008B800411042104310D8A464EF04F066EF04F02E
:1008C800CEEF03F037BE73EF04F0375006E136047D
:1008D800D8B071EF04F073EF04F0CEEF03F039BE37
:1008E8007EEF04F0395008E13804D8A07EEF04F018
:1008F80080EF04F087EF04F056B285EF04F087EF3D
:1009080004F0CEEF03F03A503B10D8A48EEF04F079
:1009180090EF04F097EF04F056A495EF04F097EFEA
:1009280004F0B5EF04F04406D8A045063A503B1051
:10093800D8A4A1EF04F0A3EF04F0A9EF04F0000E8F
:10094800356E2B0E346EADEF04F0000E356E2D0EA5
:10095800346EC80E4424D96E010E4520DA6E34C0B8
:10096800DFFF22C017F023C018F0C80E4424196E08
:10097800010E45201A6E38C01BF039C01CF09FECE0
:100988000BF017C022F018C023F0120000018DBF31
:10099800D0EF04F0D2EF04F0D3EF04F056928DBFFD
:1009A800E0EF04F08D5106E18C05D8B0DEEF04F0DD
:1009B800E0EF04F0E6EF04F0000E3A6E010E396E37
:1009C800EAEF04F08CC039F08DC03AF08AC03BF0F1
:1009D8008BC03CF056A8F3EF04F0F5EF04F0F9EF04
:1009E80004F0FE0E3B26FF0E3C2224C03DF025C03D
:1009F8003EF026C03FF027C040F028C041F029C093
:100A080042F02AC043F02BC044F0000E466E1F0E81
:100A1800456E000E0101E76FC5EF05F04506D8A049
:100A280046060F0E3D14476E486A48BE25EF05F08E
:100A3800485009E10A0E475CD8A025EF05F027EFDA
:100A480005F02FEF05F0570E4724476E000E48209B
:100A5800486E35EF05F0300E4724476E000E4820EB
:100A6800486EBF0E2D6EFF0E2E6E2C502F6E306A04
:100A78002D502F262E50302230500AE11A0E2F5CAE
:100A8800D8A049EF05F04CEF05F0010E4DEF05F049
:100A9800000E356E366A35503610D8B456EF05F06C
:100AA80058EF05F088EF05F09F0E2D6EFF0E2E6EA5
:100AB800200E47102F6E000E4810306E2D502F2636
:100AC8002E50302230500AE11A0E2F5CD8A06FEF5A
:100AD80005F072EF05F0010E73EF05F0000E376EAA
:100AE800386A37503810D8B47CEF05F07EEF05F03F
:100AF80088EF05F047C00BF048C00CF0C9EC0EF0C9
:100B08000BC047F00CC048F0C80E4524D96E010E42
:100B18004620DA6E47C0DFFF3906D8A03A063B0602
:100B2800D8A03C063DC02DF03EC02EF03FC02FF0AF
:100B380040C030F041C031F042C032F043C033F021
:100B480044C034F0050EB2EF05F0D8903432333299
:100B58003232313230322F322E322D32E82EA9EF96
:100B680005F02DC03DF02EC03EF02FC03FF030C044
:100B780040F031C041F032C042F033C043F034C0DD
:100B880044F046BED1EF05F0465009E1020E455C3F
:100B9800D8A0D1EF05F0D3EF05F003EF06F03D50F4
:100BA8003E103F1040104110421043104410D8A48A
:100BB800E0EF05F0E2EF05F012EF05F03ABEEFEFD7
:100BC80005F03A5006E13904D8B0EDEF05F0EFEF43
:100BD80005F012EF05F03CBEFAEF05F03C5008E1D5
:100BE8003B04D8A0FAEF05F0FCEF05F003EF06F0A0
:100BF80056B201EF06F003EF06F012EF05F056A823
:100C080008EF06F00AEF06F020EF06F04506D8A038
:100C18004606C80E4524D96E010E4620DA6E2CC051
:100C2800DFFF4506D8A04606C80E4524D96E010E3A
:100C38004620DA6E300EDF6E22C017F023C018F09F
:100C4800C80E4524196E010E46201A6E3BC01BF0D3
:100C58003CC01CF09FEC0BF017C022F018C023F02A
:100C6800120000018DBF3BEF06F03DEF06F03EEFAE
:100C780006F056928DBF4BEF06F08D5106E18C05BC
:100C8800D8B049EF06F04BEF06F051EF06F0000E32
:100C9800356E010E346E55EF06F08CC034F08DC001
:100CA80035F08AC036F08BC037F024C038F025C044
:100CB80039F026C03AF027C03BF028C03CF029C0E4
:100CC8003DF02AC03EF02BC03FF0000E416E1F0ED3
:100CD800406E000E0101E76FE8EF06F04006D8A06D
:100CE8004106C80E4024D96E010E4120DA6E38C084
:100CF80005F039C006F03AC007F03BC008F03CC028
:100D080009F03DC00AF03EC00BF03FC00CF00A0EDF
:100D18000D6E000E0E6E000E0F6E000E106E000EA1
:100D2800116E000E126E000E136E000E146E37EC6C
:100D38000BF005C02CF006C02DF007C02EF008C03F
:100D48002FF009C030F00AC031F00BC032F00CC0EF
:100D580033F02C50300FDF6E3406D8A03506360637
:100D6800D8A0370638C005F039C006F03AC007F0F9
:100D78003BC008F03CC009F03DC00AF03EC00BF093
:100D88003FC00CF00A0E0D6E000E0E6E000E0F6EB8
:100D9800000E106E000E116E000E126E000E136E15
:100DA800000E146EBFEC0AF005C038F006C039F02A
:100DB80007C03AF008C03BF009C03CF00AC03DF05B
:100DC8000BC03EF00CC03FF040504110D8B4EFEFDC
:100DD80006F0F1EF06F021EF07F0385039103A101D
:100DE8003B103C103D103E103F10D8A4FEEF06F01B
:100DF80000EF07F072EF06F035BE0DEF07F0355043
:100E080006E13404D8B00BEF07F00DEF07F072EFEE
:100E180006F037BE18EF07F0375008E13604D8A0BF
:100E280018EF07F01AEF07F021EF07F056B21FEF9F
:100E380007F021EF07F072EF06F022C017F023C089
:100E480018F0C80E4024196E010E41201A6E36C0E3
:100E58001BF037C01CF09FEC0BF017C022F018C035
:100E680023F0120020EEEBF010EE15F0060EDBCFAB
:100E7800E3FFE806FCE212C020F013C021F0205086
:100E88002110D8A44AEF07F04CEF07F050EF07F015
:100E9800150E206E000E216E20C005F021C006F050
:100EA800A7EC0FF005C024F006C025F08CC022F096
:100EB8008DC023F023BE63EF07F065EF07F07AEFEC
:100EC80007F02450225C2350800A146E2550800AB3
:100ED8001458D8A072EF07F074EF07F076EF07F018
:100EE8007AEF07F022C024F023C025F024C022F0B6
:100EF80025C023F08AC01EF08BC01FF056B087EFC4
:100F080007F089EF07F0A6EF07F097EF07F0000E5C
:100F1800086E200E076E10C009F011C00AF010EC20
:100F28000DF0244A252A1E50245C2550800A146E90
:100F38001F50800A1458D8A0A4EF07F0A6EF07F0B6
:100F48008BEF07F0000E1D6E000E1C6ECBEF07F046
:100F580020C0F6FF21C0F7FF000EF86E0E0EF764F2
:100F680003D00800F55005D0F6CFE9FFF7CFEAFF28
:100F7800EF50146E1450076E086A10C009F011C0C3
:100F88000AF010EC0DF0204A212A1C4A1D2A225092
:100F98001C5C1D50800A146E2350800A1458D8A077
:100FA800D8EF07F0DAEF07F0ACEF07F056A0DFEF65
:100FB80007F0E1EF07F0FEEF07F0EFEF07F0000EA4
:100FC800086E200E076E10C009F011C00AF010EC70
:100FD8000DF0244A252A1E50245C2550800A146EE0
:100FE8001F50800A1458D8A0FCEF07F0FEEF07F056
:100FF800E3EF07F024C010F025C011F01200000E36
:101008001A6E000E196E000E136E000E126E0FEFA0
:1010180008F00C4A0D2A010E186E0CC0F6FF0DC020
:10102800F7FFF86A0800F550200AD8B41EEF08F058
:1010380020EF08F03EEF08F0F70E0E6EFF0E0F6E71
:101048000CC0F6FF0DC0F7FFF86A0800F550106EE7
:10105800116A0E5010260F501122115009E1050E89
:10106800105CD8A03AEF08F03CEF08F03EEF08F02B
:10107800000E186E18C014F0156A14501510D8A474
:1010880048EF08F04AEF08F00DEF08F054EF08F0C9
:10109800000E136E010E126E0C4A0D2A8BEF08F02B
:1010A8000CC0F6FF0DC0F7FFF86A0800F5500E6E89
:1010B8000F6A0F50000AD8B464EF08F08BEF08F0FD
:1010C8000E502B0AD8B450EF08F0060AD8B44CEFEB
:1010D80008F08BEF08F019C005F01AC006F0000EF2
:1010E800086E0A0E076E6FEC11F00CC0F6FF0DC00B
:1010F800F7FFF86A0800F550055E000E065A300E34
:101108000524196E000E06201A6E50EF08F0D00E56
:101118000E6EFF0E0F6E0CC0F6FF0DC0F7FFF86ADB
:101128000800F550106E116A0E5010260F5011224B
:1011380011500AE10A0E105CD8A0A5EF08F0A8EF3C
:1011480008F0010EA9EF08F0000E166E176A165087
:101158001710D8A4B2EF08F0B4EF08F06FEF08F05A
:1011680012501310D8A4BBEF08F0BDEF08F0CBEF76
:1011780008F019C00EF01AC00FF00E1E0F1E0E4A0E
:101188000F2A0EC00CF00FC00DF0CFEF08F019C0F9
:101198000CF01AC00DF01200000E166E14BED9EF36
:1011A80008F0D7EF08F0EBEF08F0141E131E121E1C
:1011B800111E101E0F1E0E1E0D6C000E0E220F2289
:1011C80010221122122213221422010E166E0CBEB6
:1011D800F2EF08F0F0EF08F004EF09F00C1E0B1E18
:1011E8000A1E091E081E071E061E056C000E062292
:1011F8000722082209220A220B220C22010E161AA3
:1012080020EE17F0070EDE6AE806FDE20D500E101C
:101218000F1010101110121013101410D8B417EF6B
:1012280009F019EF09F06BEF09F0010E156E27EFC1
:1012380009F0D8900D360E360F36103611361236A4
:1012480013361436152A14AE2CEF09F02EEF09F0D8
:101258001DEF09F0D8901736183619361A361B368E
:101268001C361D361E360D50055C0E5006580F50A4
:101278000758105008581150095812500A5813505E
:101288000B5814500C58D8A04CEF09F04EEF09F049
:101298005FEF09F00D50055E0E50065A0F50075AC1
:1012A8001050085A1150095A12500A5A13500B5A22
:1012B80014500C5A1780D89014321332123211324B
:1012C80010320F320E320D32152E2EEF09F0165055
:1012D800D8B471EF09F073EF09F083EF09F01E1E1F
:1012E8001D1E1C1E1B1E1A1E191E181E176C000E12
:1012F800182219221A221B221C221D221E2217C064
:1013080005F018C006F019C007F01AC008F01BC095
:1013180009F01CC00AF01DC00BF01EC00CF0120032
:10132800000E166E0CBE9DEF09F09BEF09F0AFEFB3
:1013380009F00C1E0B1E0A1E091E081E071E061E9B
:10134800056C000E06220722082209220A220B2217
:101358000C22010E166E14BEB6EF09F0B4EF09F0B8
:10136800C6EF09F0141E131E121E111E101E0F1EAA
:101378000E1E0D6C000E0E220F22102211221222B8
:10138800132214220D500E100F10101011101210ED
:1013980013101410D8B4D3EF09F0D5EF09F01DEFEE
:1013A8000AF0010E156EE3EF09F0D8900D360E36EF
:1013B8000F3610361136123613361436152A14AE77
:1013C800E8EF09F0EAEF09F0D9EF09F00D50055CF4
:1013D8000E5006580F500758105008581150095809
:1013E80012500A5813500B5814500C58D8A0FFEF3D
:1013F80009F001EF0AF011EF0AF00D50055E0E50EA
:10140800065A0F50075A1050085A1150095A1250CC
:101418000A5A13500B5A14500C5AD89014321332DB
:101428001232113210320F320E320D32152EEAEF0F
:1014380009F01650D8B423EF0AF025EF0AF035EF7B
:101448000AF00C1E0B1E0A1E091E081E071E061E89
:10145800056C000E06220722082209220A220B2206
:101468000C2205C005F006C006F007C007F008C04A
:1014780008F009C009F00AC00AF00BC00BF00CC054
:101488000CF01200A9EC11F00009D8B44EEF0AF0E4
:1014980050EF0AF0BDEF0AF0A9EC11F00009D8B43A
:1014A80058EF0AF05AEF0AF077EF0AF06AEF0AF0FD
:1014B80027EC0FF0086E000E00018E25D96E020E83
:1014C8008F21DA6E08C0DFFF8E4B8F2BA9EC11F04D
:1014D8000009D8A472EF0AF074EF0AF05CEF0AF082
:1014E800010E0001936F00019305D8A47EEF0AF066
:1014F80080EF0AF09CEF0AF0C0EC0CF0CFEC0FF094
:10150800000E0001936F000E8F6F000E8E6F83B870
:1015180090EF0AF093EF0AF0010E94EF0AF0000E34
:10152800FF0A086E083A83500818EF0B0818836EF4
:10153800F251901907E1F3519119D8A4A6EF0AF0D6
:10154800A8EF0AF050EF0AF083BAADEF0AF0B0EF57
:101558000AF0010EB1EF0AF0000EFF0A086E083A11
:10156800084683500818DF0B0818836E010EBEEF7B
:101578000AF0000E120020EE15F0070EDE6AE806EB
:10158800FDE20D500E100F10101011101210131054
:101598001410D8B4D2EF0AF0D4EF0AF026EF0BF00B
:1015A800010E1D6EE2EF0AF0D8900D360E360F369A
:1015B800103611361236133614361D2A14AEE7EFDC
:1015C8000AF0E9EF0AF0D8EF0AF0D8901536163687
:1015D8001736183619361A361B361C360D50055C68
:1015E8000E5006580F5007581050085811500958F7
:1015F80012500A5813500B5814500C58D8A007EF23
:101608000BF009EF0BF01AEF0BF00D50055E0E50C2
:10161800065A0F50075A1050085A1150095A1250BA
:101628000A5A13500B5A14500C5A1580D890143279
:1016380013321232113210320F320E320D321D2E89
:10164800E9EF0AF015C005F016C006F017C007F05C
:1016580018C008F019C009F01AC00AF01BC00BF036
:101668001CC00CF012000D500E100F1010101110AD
:10167800121013101410D8B444EF0BF046EF0BF00F
:101688008EEF0BF0010E156E54EF0BF0D8900D365F
:101698000E360F3610361136123613361436152A12
:1016A80014AE59EF0BF05BEF0BF04AEF0BF00D5057
:1016B800055C0E5006580F50075810500858115026
:1016C800095812500A5813500B5814500C58D8A0E7
:1016D80070EF0BF072EF0BF082EF0BF00D50055E20
:1016E8000E50065A0F50075A1050085A1150095AEE
:1016F80012500A5A13500B5A14500C5AD8901432DC
:1017080013321232113210320F320E320D32152EC0
:101718005BEF0BF005C005F006C006F007C007F048
:1017280008C008F009C009F00AC00AF00BC00BF0A5
:101738000CC00CF0120056A0A4EF0BF0A6EF0BF0B3
:10174800B0EF0BF019C010F01AC011F017C012F06A
:1017580018C013F018EC10F01CBEB5EF0BF0B7EF83
:101768000BF0BDEF0BF01BC020F01CC021F0C1EF47
:101778000BF0000E216E000E206E000E1F6E000E84
:101788001E6ED3EF0BF0000E086E200E076E17C00A
:1017980009F018C00AF010EC0DF01E4A1F2A20505C
:1017A8001E5C1F50800A1D6E2150800A1D58D8A04B
:1017B800E0EF0BF0E2EF0BF0C7EF0BF056B0E7EFFE
:1017C8000BF0E9EF0BF0F3EF0BF019C010F01AC0B3
:1017D80011F017C012F018C013F018EC10F019C06F
:1017E80005F01AC006F0A7EC0FF020500524176E7C
:1017F80021500620186E1200700E5924D96EDA6A2C
:10180800000EDA22000EDF6E0E019DA50EEF0CF021
:1018180010EF0CF024EF0CF0700E5924D96EDA6A30
:10182800000EDA220001DF8202D824EF0CF0050056
:10183800FA6ED451FD6ED551FE6EFF6AFA50120051
:101848000E019DA32AEF0CF02CEF0CF040EF0CF0EA
:10185800700E5924D96EDA6A000EDA220001DF848C
:1018680002D840EF0CF00500FA6ED251FD6ED3514C
:10187800FE6EFF6AFA501200700E5924D96EDA6AA9
:10188800000EDA22DF50D8B44CEF0CF04EEF0CF01B
:101898005DEF0CF002D85BEF0CF00500FA6E00016A
:1018A800D051FD6ED151FE6EFF6AFA5012005FEF03
:1018B8000CF02FEC11F01200640E5824D96EDA6A7D
:1018C800010EDA22000EDF6E9DA46DEF0CF06FEFB3
:1018D8000CF084EF0CF0640E5824D96EDA6A010E0D
:1018E800DA220101DF8202D884EF0CF00500FA6EDB
:1018F8000001CE51FD6ECF51FE6EFF6AFA50120004
:101908009DA289EF0CF08BEF0CF0A0EF0CF0640EA9
:101918005824D96EDA6A010EDA220101DF8402D86E
:10192800A0EF0CF00500FA6E0001CC51FD6ECD5110
:10193800FE6EFF6AFA501200640E5824D96EDA6AF5
:10194800010EDA22DF50D8B4ACEF0CF0AEEF0CF099
:10195800BDEF0CF002D8BBEF0CF00500FA6E0001E9
:10196800CA51FD6ECB51FE6EFF6AFA501200BFEFEE
:101978000CF045EC11F01200000E076E000E066E1A
:10198800000E076E000E066EDCEF0CF0000E06244B
:10199800D96E020E0720DA6E000E9025E16E010E58
:1019A8009121E26EDFCFE7FF904B912B064A072A81
:1019B80000018E51065C0750800A056E8F51800A1F
:1019C8000558D8A0EAEF0CF0ECEF0CF0CAEF0CF0D9
:1019D8000F0E01010119D8A4F4EF0CF0F6EF0CF08A
:1019E800FFEF0CF0090E06250001F26FF36B000EF5
:1019F800F3230FEF0DF0100E0119D8A406EF0DF028
:101A080008EF0DF00AEF0DF0F6EF0CF0000E0001F4
:101A1800F36F080EF26F120009500A10D8B417EFCE
:101A28000DF019EF0DF022EF0DF009500A10D8A4AF
:101A380020EF0DF022EF0DF027EF0DF00750F1EC3D
:101A480011F05AEF0DF020EE04F00950D9260A5093
:101A5800DA22DE50DE10D8B434EF0DF036EF0DF098
:101A680051EF0DF020EE04F00950D9260A50DA2281
:101A780010EE02F00950E1260A50E222DE50E65C40
:101A8800E650800A0F6EDE50800A0F58D8B04FEF2C
:101A98000DF051EF0DF05AEF0DF020EE02F0095065
:101AA800D9260A50DA22DE2A000EDD221200000EA4
:101AB800876E000E866E000E836E000E846E000E1A
:101AC800856E070E8C6E070E886EBF0E896EBF0E70
:101AD8008A6EFE0E8B6E0F0126693B0E216F370E44
:101AE800196F070E2E6F1169000E256F000E2D6FEE
:101AF800000E186F000E106F000E206F000E2C6F76
:101B0800000E0F6F000E176F000E1F6F000E246F70
:101B18000E6916691E692369070E2B6F0D69156911
:101B28001D6922690F0E2A6F170E0E01B56F0B0E75
:101B3800F56F090EFD6F0F0E8D6F12000E01C59F18
:101B4800000E056E180E066EC4EC11F00E01C59D50
:101B5800E80E056E1F0E066EBFEC11F0080E0E01A2
:101B68009F6F900E9D6F240E9E6F400E9B6F030E0D
:101B78009C6F100E056E240E066ECEEC11F0EC0E66
:101B8800056E230E066EC9EC11F0FA0E056E230ED3
:101B9800066ED3EC11F0000E00019A6F000E9E6FD6
:101BA800000E9D6F080EDF6F000E596E000E9C6FC1
:101BB800000E9B6F0E01C58F12000E01C59BC00E53
:101BC800056E180E066EDDEC11F00E01C599740E47
:101BD800056E200E066ED8EC11F0080E9F6E900E62
:101BE8009D6E240E9E6E400E9B6E030E9C6E120E12
:101BF800056E240E066EE7EC11F0000E056E240E3D
:101C0800066EE2EC11F0060E056E240E066EECEC84
:101C180011F0000E0001956F000E996F000E986F7D
:101C2800100EDE6F000E586E000E976F000E966F46
:101C38000E01C58B12007F0E0001BC6FFE0EBD6F3A
:101C48005BEC11F0D00E0001BC6FFF0EBD6F5BECBA
:101C580011F0240E0001BC6FFF0EBD6FE90EBE6FC0
:101C6800FF0EBF6FF50EC06FFF0EC16F080EC36F7A
:101C7800340EC26F5BEC11F0B30E0001BC6FFF0EA7
:101C8800BD6F5BEC11F0EF0E0001BC6FFE0EBD6F77
:101C98005BEC11F0B80E0001BC6FFE0EBD6F5BEC83
:101CA80011F04F0E0001BC6FFF0EBD6F5BEC11F021
:101CB8001200720E0001BC6FFF0EBD6F5BEC11F0DD
:101CC800000E0001C96F000EC86F83EF0EF0940E6E
:101CD800BC6FFF0EBD6FC8C0BEF0C9C0BFF0000E1C
:101CE800C825D96E010EC921DA6EDF50556E5550E0
:101CF800C06FC16B5BEC11F00001C84BC92B905150
:101D0800C85DC951800A556E9151800A5558D8A0AE
:101D180090EF0EF092EF0EF06BEF0EF0000E916F59
:101D2800000E906F1200B8C053F0B9C054F0000E06
:101D38000001896F000E886FB5EF0EF0B6C049F04C
:101D4800B7C04AF0530E4B6E000E4C6EBAC04DF041
:101D5800BBC04EF095EC00F04950000188274A506E
:101D6800892353C0F6FF54C0F7FFF86A0800F550FE
:101D78000009D8A4C2EF0EF0C4EF0EF0A2EF0EF0E7
:101D880088C0B6F089C0B7F012009F0E0D6EFF0E26
:101D98000E6E0BC00FF00CC010F00D500F260E5039
:101DA800102210500AE11A0E0F5CD8A0DEEF0EF0D8
:101DB800E1EF0EF0010EE2EF0EF0000E116E126A66
:101DC80011501210D8B4EBEF0EF0EDEF0EF0F3EF68
:101DD8000EF05F0E0B140B6E0C6AF7EF0EF00BC0D3
:101DE8000BF00CC00CF01200056E0001DF51D8B4E6
:101DF80000EF0FF002EF0FF0F9EF0EF00E01C5BD86
:101E080008EF0FF00AEF0FF00EEF0FF005C09AFE83
:101E180024EF0FF0C59D800E00019E25D96EDA6A69
:101E2800000EDA2205C0DFFF9E2B070E9E651FEF0E
:101E38000FF021EF0FF023EF0FF0000E9E6FDF077A
:101E48000E01C58D120000019651D8B42EEF0FF087
:101E580030EF0FF027EF0FF0640E9725D96EDA6A8E
:101E6800010EDA22DF50956F640E9725D96EDA6A73
:101E7800020EDA22DF50056E972B630E976547EF47
:101E88000FF049EF0FF04BEF0FF0000E976F0E01B8
:101E9800C59B000196070E01C58B055012006A0EFE
:101EA800F66E230EF76E000EF86E00EEE0F010EE00
:101EB80014F00900F5CFEEFFE550E150FAE102EE2B
:101EC80000F0C80EEE6AE806FDE101EE00F0E80E4B
:101ED800EE6AE806FDE100EE60F03F0EEE6AE80605
:101EE800FDE1596A586A576A566A5A905A9200012F
:101EF8007DEF10F0010E0B6E200E05180610D8B4F9
:101F080088EF0FF08AEF0FF0A3EF0FF0F70E076ED0
:101F1800FF0E086E05C009F006C00AF00750092632
:101F280008500A220A5009E1050E095CD8A09FEF63
:101F38000FF0A1EF0FF0A3EF0FF0000E0B6E0BC028
:101F480005F0066A120005C007F006C008F0AFEFFA
:101F58000FF0054A062A05C0F6FF06C0F7FF000E77
:101F6800F86E0E0EF76403D00800F55005D0F6CFD2
:101F7800E9FFF7CFEAFFEF500009D8A4C6EF0FF04A
:101F8800C8EF0FF0ADEF0FF00750055C056E085075
:101F98000658066E1200000E076E000E066E000E42
:101FA800076E000E066EE3EF0FF0000E0624D96EE2
:101FB800020E0720DA6EFF0EDF6E064A072A0001BE
:101FC8008E51065C0750800A056E8F51800A0558AD
:101FD800D8A0F1EF0FF0F3EF0FF0D9EF0FF01200E8
:101FE800080E0001DF61FBEF0FF0FDEF0FF015EFBA
:101FF80010F0800E9D25D96EDA6A000EDA22DF50C5
:102008000E019A6F00019D2B070E9D650EEF10F0D3
:1020180010EF10F012EF10F0000E9D6FDF2B17EF8E
:1020280010F00E01C59D1200000E166E000E156E02
:1020380029EF10F014C007F0086A12C009F013C0A5
:102048000AF010EC0DF0154A162A15501024D96E16
:1020580016501120DA6EDF50146E1450D8A437EFE2
:1020680010F039EF10F01EEF10F01200100E000102
:10207800DE6141EF10F043EF10F059EF10F0600E01
:102088009825D96EDA6A000EDA22DF509A6E982BFC
:102098000F0E986552EF10F054EF10F056EF10F055
:1020A800000E986FDE2B5BEF10F00E01C599120041
:1020B800000E066E000E056E000E066E000E056E12
:1020C800000E0524D96E010E0620DA6EFF0EDF6EB3
:1020D800054A062A06BE7AEF10F0065009E1630E9B
:1020E800055CD8A07AEF10F07CEF10F064EF10F0E8
:1020F800120090EC11F0F28EF28C8398839A839CF4
:10210800839E1FEC0EF0FAEC11F0CFEC0FF046ECCA
:102118000AF0E806D8A493EF10F095EF10F08BEFD3
:1021280010F05DEC0EF05CEC10F08BEF10F093EF1C
:1021380000F018BEAAEF10F0185006E11704D8B046
:10214800A8EF10F0AAEF10F0B8EF10F017C019F0D0
:1021580018C01AF0191E1A1E194A1A2A19C017F09F
:102168001AC018F0BCEF10F017C017F018C018F01C
:1021780012009F0E076EFF0E086E200E0510096EE6
:10218800000E06100A6E0750092608500A220A5047
:102198000AE11A0E095CD8A0D4EF10F0D7EF10F0BE
:1021A800010ED8EF10F0000E056E066A12009F0EA1
:1021B800076EFF0E086E05C009F006C00AF007504A
:1021C800092608500A220A500AE11A0E095CD8A00A
:1021D800F0EF10F0F3EF10F0010EF4EF10F0000E36
:1021E800056E066A1200BF0E076EFF0E086E05C068
:1021F80009F006C00AF00750092608500A220A50BA
:102208000AE11A0E095CD8A00CEF11F00FEF11F0DB
:10221800010E10EF11F0000E056E066A1200D00EC6
:10222800076EFF0E086E05C009F006C00AF00750D9
:10223800092608500A220A500AE10A0E095CD8A0A9
:1022480028EF11F02BEF11F0010E2CEF11F0000E1A
:10225800056E066A1200780E5924D96EDA6A000EE5
:10226800DA2299CEDFFF592A070E59643EEF11F0A2
:1022780040EF11F042EF11F0000E596E00019B2B58
:102288001200640E5824D96EDA6A020EDA2299CF47
:10229800DFFF582A630E586454EF11F056EF11F01F
:1022A80058EF11F0000E586E0001962B1200BE0E6A
:1022B8000001C66F000EC76F000EB66F000EB76F35
:1022C800BCC0B8F0BDC0B9F0C60EBA6F000EBB6F87
:1022D80097EC0EF0120005500702F3CF09F0F4CF87
:1022E8000AF005500802F3500A2606500702F35078
:1022F8000A2609C005F00AC006F01200000E0E01F9
:10230800E16F000EE26F000EE36F000EE46F000E47
:10231800E56F000EE66F120006EC12F082EC11F089
:102328005BEC0DF09DEC11F0E1EC0DF0A2EC0DF082
:102338001200600E0E01D86F000EDA6F000EDC6F0F
:10234800060EDE6F000EDD6F120000019651D8A454
:10235800B0EF11F0B3EF11F0010EB4EF11F0000E71
:102368001200110306AE415652434049AD286E751E
:102378006C6C2900080005C0DCF006C0DDF0120016
:1023880005C0DAF006C0DBF0120005C0D2F006C0C6
:10239800D3F0120005C0D4F006C0D5F0120005C075
:1023A800D0F006C0D1F0120005C0D8F006C0D9F0B0
:1023B800120005C0D6F006C0D7F0120005C0CCF058
:1023C80006C0CDF0120005C0CEF006C0CFF0120056
:1023D80005C0CAF006C0CBF01200066E0650F8EC35
:1023E8000EF012000E019D999D8912008690839629
:1023F80012002FEC11F012009D989D88120045ECF8
:0C24080011F01200F29A120012001200F3
:10FE7E00000D44616E20616E642053616D27732006
:10FE8E004D6F64627573204750494F2045787061FD
:10FE9E006E73696F6E202D20415030303078787837
:10FEAE0078782056302E310D0A000D202020307823
:10FEBE003130202D205772697465204D756C746930
:10FECE00706C652052656769737465727320284D76
:10FEDE00617820333278203136626974290D0A0A2E
:10FEEE00000D20202030783033202D2052656164A3
:10FEFE00204D756C7469706C6520526567697374FA
:10FF0E0065727320284D6178203332782031366245
:10FF1E006974290D0A000D436F6D70696C6564205C
:10FF2E006F6E20257320617420257320627920580E
:10FF3E0043382076657273696F6E2025750D0A0A37
:10FF4E00000D496E6974616C69736174696F6E201E
:10FF5E00436F6D706C657465202D205265616479F8
:10FF6E000D0A0A000D0A4D6F6462757320446174A8
:10FF7E0061204361707475726520436F6D706C659E
:10FF8E0074653A0D0A0020202042797465204E7562
:10FF9E006D3A2025692056616C3A20307825303232
:10FFAE0078200D0A000D46756E6374696F6E2043DE
:10FFBE006F64657320537570706F727465643A0D5B
:10FFCE000A000D4361726420536572204E6F2E201D
:10FFDE0078787878787878200D0A004D6172202034
:10FFEE003420323032310031393A32383A3034003E
:01FFFE000002
:020000040020DA
:10000000FF0FFF0FFF0FFF0FFF0FFF0FFF0FFF0F80
:020000040030CA
:0C000000ECFFFFFF9FFFFFFFFFFFFFFF73
:00000001FF
