:020000040000FA
:0400000093EF00F08A
:100008005B82FACF01F0FBCF02F0D9CF03F0DACF51
:1000180004F0F2AC12EF00F014EF00F089EF00F0FA
:100028000E01C5AD1AEF00F01CEF00F032EF00F042
:10003800CDAD21EF00F023EF00F032EF00F002D851
:1000480030EF00F00500FA6E0001FC51FD6EFD5125
:10005800FE6EFF6AFA50120089EF00F0C5AF37EF65
:1000680000F039EF00F04FEF00F0CDAF3EEF00F0B9
:1000780040EF00F04FEF00F002D84DEF00F0050020
:10008800FA6E0101E951FD6EEA51FE6EFF6AFA50FF
:10009800120089EF00F0C5A954EF00F056EF00F008
:1000A8006CEF00F0CDA95BEF00F05DEF00F06CEFB6
:1000B80000F002D86AEF00F00500FA6E0101E7517E
:1000C800FD6EE851FE6EFF6AFA50120089EF00F0EB
:1000D800C5AB71EF00F073EF00F089EF00F0CDAB26
:1000E80078EF00F07AEF00F089EF00F002D887EFA0
:1000F80000F00500FA6E0101E551FD6EE651FE6E55
:10010800FF6AFA50120089EF00F004C0DAFF03C05A
:10011800D9FF02C0FBFF01C0FAFF5B921100A8EFF4
:1001280017F0000E0001936F000ED66F000ED56F0A
:10013800570ED525D96E020ED621DA6E00C1DFFF23
:10014800D54BD62B570ED525D96E020ED621DA6E91
:1001580001C1DFFFD54BD62B01010551020D570E0A
:100168000001D525D96E020ED621DA6EF3CFDFFF56
:10017800D54BD62B56EF02F00101025100018E6FCC
:100188008D6B0101055104C18FF00001906B8FC088
:1001980090F08F6B8F27000E90238D518F278E51F3
:1001A80090230101035100018F27000E902390BF77
:1001B800E7EF00F0905109E1210E8F5DD8A0E7EF3D
:1001C80000F0E9EF00F0F2EF00F0610E7D6FF80E3D
:1001D8007E6FACEC22F0010E0001936FE60E7D6F8E
:1001E800FD0E7E6FACEC22F081EF02F001010251AE
:1001F80000018E6F8D6B0101055104C18FF0000164
:10020800906B8FC090F08F6B8F27000E90238D51CD
:100218008F278E5190230101035100018F27000E73
:10022800902390BF21EF01F0905109E10A0E8F5DF4
:10023800D8A021EF01F023EF01F02CEF01F0B80E68
:100248007D6FFA0E7E6FACEC22F0010E0001936F09
:10025800A90E7D6FFE0E7E6FACEC22F081EF02F0EE
:100268000101025100018E6F8D6B0101055104C11E
:100278008FF00001906B8FC090F08F6B8F27000E6E
:1002880090238D518F278E51902301010351000136
:100298008F27000E902390BF5BEF01F0905109E18A
:1002A800020E8F5DD8A05BEF01F05DEF01F066EF05
:1002B80001F0B80E7D6FFA0E7E6FACEC22F0010EE5
:1002C8000001936FBF0E7D6FFE0E7E6FACEC22F0C7
:1002D80081EF02F00101025100018E6F8D6B010167
:1002E800055104C18FF00001906B8FC090F08F6BA7
:1002F8008F27000E90238D518F278E519023010157
:10030800035100018F27000E902390BF95EF01F055
:10031800905109E1060E8F5DD8A095EF01F097EF97
:1003280001F0A0EF01F0B80E7D6FFA0E7E6FACEC15
:1003380022F0010E0001936F4D0E7D6FFE0E7E6F51
:10034800ACEC22F081EF02F00101025100018E6F46
:100358008D6B0101055104C18FF00001906B8FC0B6
:1003680090F08F6B8F27000E90238D518F278E5121
:1003780090230101035100018F27000E902390BFA5
:10038800CFEF01F0905109E1070E8F5DD8A0CFEFB4
:1003980001F0D1EF01F0DAEF01F0B80E7D6FFA0E3F
:1003A8007E6FACEC22F0010E0001936F1A0E7D6F88
:1003B800FE0E7E6FACEC22F081EF02F001010251DB
:1003C80000018E6F8D6B0101055104C18FF0000192
:1003D800906B8FC090F08F6B8F27000E90238D51FC
:1003E8008F278E5190230101035100018F27000EA2
:1003F800902390BF09EF02F0905109E1050E8F5D3F
:10040800D8A009EF02F00BEF02F014EF02F0B80EDB
:100418007D6FFA0E7E6FACEC22F0010E0001936F37
:10042800000E7D6FFE0E7E6FACEC22F081EF02F0C5
:100438000101025100018E6F8D6B0101055104C14C
:100448008FF00001906B8FC090F08F6B8F27000E9C
:1004580090238D518F278E51902301010351000164
:100468008F27000E902390BF43EF02F0905109E1CF
:10047800040E8F5DD8A043EF02F045EF02F04EEF77
:1004880002F0B80E7D6FFA0E7E6FACEC22F0010E12
:100498000001936F5A0E7D6FFD0E7E6FACEC22F05B
:1004A80081EF02F00101025100018D6F8E6B8E51B8
:1004B800000AD8B462EF02F081EF02F08D51000A11
:1004C800D8B4C0EF00F0010AD8B4FAEF00F0030A7C
:1004D800D8B434EF01F0010AD8B46EEF01F0070A7E
:1004E800D8B4A8EF01F0010AD8B4E2EF01F0030A8A
:1004F800D8B41CEF02F081EF02F000019351D8A4A8
:1005080088EF02F08AEF02F075EF04F0000E956FA5
:10051800000E946F26EF04F0030E01010219D8A40F
:1005280098EF02F09AEF02F0CBEF02F003510001CE
:1005380094258D6F000E95218E6FD8908D378E374C
:10054800E80E8D25D96E000E8E21DA6EDECF8FF083
:10055800DDCF90F08F51F46FF56B0101035100016D
:1005680094258D6F000E95218E6FD8908D378E371C
:10057800E80E8D25D96E000E8E21DA6EDECF8FF053
:10058800DDCF90F09051D36FD46B0FEF04F00205DC
:10059800D8A4D1EF02F0D3EF02F004EF03F0035137
:1005A800000194258D6F000E95218E6FD8908D37A0
:1005B8008E37640E8D25D96E010E8E21DA6EDECF50
:1005C8008FF0DDCF90F08F51F46FF56B010103517F
:1005D800000194258D6F000E95218E6FD8908D3770
:1005E8008E37640E8D25D96E010E8E21DA6EDECF20
:1005F8008FF0DDCF90F09051D36FD46B0FEF04F0F4
:10060800020E0219D8A40BEF03F00DEF03F03EEF32
:1006180003F00351000194258D6F000E95218E6F14
:10062800D8908D378E37FA0E8D25D96E000E8E2113
:10063800DA6EDECF8FF0DDCF90F08F51F46FF56B6F
:1006480001010351000194258D6F000E95218E6FD5
:10065800D8908D378E37FA0E8D25D96E000E8E21E3
:10066800DA6EDECF8FF0DDCF90F09051D36FD46B80
:100678000FEF04F0040E0219D8A445EF03F047EF7A
:1006880003F078EF03F00351000194258D6F000EFD
:1006980095218E6FD8908D378E37720E8D25D96E35
:1006A800010E8E21DA6EDECF8FF0DDCF90F08F5104
:1006B800F46FF56B01010351000194258D6F000E55
:1006C80095218E6FD8908D378E37720E8D25D96E05
:1006D800010E8E21DA6EDECF8FF0DDCF90F09051D3
:1006E800D36FD46B0FEF04F0050E0219D8A47FEF77
:1006F80003F081EF03F0B2EF03F0035100019425FA
:100708008D6F000E95218E6FD8908D378E373C0EE9
:100718008D25D96E020E8E21DA6EDECF8FF0DDCFF9
:1007280090F08F51F46FF56B01010351000194258E
:100738008D6F000E95218E6FD8908D378E373C0EB9
:100748008D25D96E020E8E21DA6EDECF8FF0DDCFC9
:1007580090F09051D36FD46B0FEF04F00251D8A4EE
:10076800B8EF03F0BAEF03F0EBEF03F00351000129
:1007780094258D6F000E95218E6FD8908D378E370A
:10078800B70E8D25D96E030E8E21DA6EDECF8FF06F
:10079800DDCF90F08F51F46FF56B0101035100012B
:1007A80094258D6F000E95218E6FD8908D378E37DA
:1007B800B70E8D25D96E030E8E21DA6EDECF8FF03F
:1007C800DDCF90F09051D36FD46B0FEF04F0060E8D
:1007D8000219D8A4F2EF03F0F4EF03F00FEF04F0DE
:1007E800000E69EC22F005C091F006C092F09A0E56
:1007F80000017D6FFF0E7E6F91C07FF092C080F088
:10080800ACEC22F000019151F46FF56B9251D36F6B
:10081800D46B0FEF04F0570E0001D525D96E020EE8
:10082800D621DA6ED3C0DFFFD54BD62B570ED52590
:10083800D96E020ED621DA6EF4C0DFFFD54BD62B67
:10084800944B952B0101055100018D6F8E6B8D51D5
:10085800945D9551800A8F6F8E51800A8F59D8A068
:1008680038EF04F03AEF04F090EF02F0D5C005F04D
:10087800D6C006F0010E076E0BEC19F005C0D3F0D8
:1008880006C0D4F0D5C005F0D6C006F0000E076E3D
:100898000BEC19F005C0F4F006C0F5F0570E000196
:1008A800D525D96E020ED621DA6ED3C0DFFF580ED9
:1008B800D525D96E020ED621DA6EF4C0DFFF020EFE
:1008C800D525D56F000ED621D66F570E066E020EAF
:1008D800076ED5C008F0D6C009F02DEC1EF07BEFEE
:1008E80004F0000E156E020E146E0DEC1BF01200D3
:1008F8004BC0D9FF4CC0DAFFDECFF6FFDDCFF7FFE4
:10090800F86A0800F550250AD8A48DEF04F08FEF97
:1009180004F024EF07F04BC0D9FF4CC0DAFFDE2A01
:10092800000EDD22000E0001CE6F000ECD6FCDC08F
:1009380057F0CEC058F0CF69D069000E6C6F000E2A
:100948006B6FEEEF04F057804BC0D9FF4CC0DAFF55
:10095800DE2A000EDD22EEEF04F05782A8EF04F045
:100968005784A8EF04F05786A8EF04F05788A8EF3B
:1009780004F0000E6C6F010E6B6FEEEF04F04BC0CD
:10098800D9FF4CC0DAFFDECFF6FFDDCFF7FFF86AFC
:100998000800F5504F6E506A5050000AD8B4D7EF8F
:1009A80004F0BDEF04F04F50200AD8B4B7EF04F0BC
:1009B800030AD8B4BAEF04F0080AD8B4B4EF04F0C4
:1009C800060AD8B4A7EF04F01D0AD8B4B1EF04F0B2
:1009D800BDEF04F06B516C11D8B4F5EF04F0F7EFEC
:1009E80004F0C3EF04F057A0FCEF04F0FEEF04F0AE
:1009F800FFEF04F057924BC0D9FF4CC0DAFFDECFAF
:100A0800F6FFDDCFF7FFF86A0800F5502A0AD8A4E8
:100A180010EF05F012EF05F03BEF05F04BC0D9FFE2
:100A28004CC0DAFFDE2A000EDD224DC0D9FF4EC0D1
:100A3800DAFFDFCF4FF0020EDE26DFCF50F0000ED8
:100A4800DD224FC0D9FF50C0DAFFDECFCDF0DDCFB9
:100A5800CEF0CEBF34EF05F032EF05F080EF05F0B1
:100A68005780CD6DCE1FD8B0CE2B80EF05F04BC090
:100A7800D9FF4CC0DAFFDECF0CF0DDCF0DF0D9EC9A
:100A880012F00CC0CDF00DC0CEF052EF05F04BC007
:100A9800D9FF4CC0DAFFDE2A000EDD22D00E4F6EE1
:100AA800FF0E506E4BC0D9FF4CC0DAFFDECFF6FF09
:100AB800DDCFF7FFF86A0800F550516E526A4F50C3
:100AC80051265050522252500AE10A0E515CD8A0C9
:100AD80070EF05F073EF05F0010E74EF05F0000EEE
:100AE80000016D6F6E6B6D516E11D8A47EEF05F02D
:100AF80080EF05F04BEF05F04BC0D9FF4CC0DAFF93
:100B0800DECFF6FFDDCFF7FFF86A0800F550640A7C
:100B1800D8B491EF05F093EF05F0A6EF05F04BC0C0
:100B2800D9FF4CC0DAFFDECFF6FFDDCFF7FFF86A5A
:100B38000800F550690AD8A4A4EF05F0A6EF05F05F
:100B4800E6EF05F04BC0D9FF4CC0DAFFDE2A000EF5
:100B5800DD224DC0D9FF4EC0DAFFDFCF4FF0020EC5
:100B6800DE26DFCF50F0000EDD224FC0D9FF50C087
:100B7800DAFFDECF60F0DDCF61F0000E61BFFF0E5F
:100B8800626F636F646F656F666F676F49C022F04D
:100B98004AC023F060C024F061C025F062C026F08E
:100BA80063C027F064C028F065C029F066C02AF049
:100BB80067C02BF00DEC09F022C049F023C04AF0C1
:100BC80040EF07F04BC0D9FF4CC0DAFFDECFF6FF8D
:100BD800DDCFF7FFF86A0800F550730AD8A4F7EFDD
:100BE80005F0F9EF05F024EF06F04BC0D9FF4CC033
:100BF800DAFFDE2A000EDD224DC0D9FF4EC0DAFF33
:100C0800DFCF4FF0020EDE26DFCF50F0000EDD22E0
:100C18004FC0D9FF50C0DAFFDECF68F0DDCF69F0F2
:100C280049C010F04AC011F068C012F069C013F052
:100C38000CEC12F010C049F011C04AF040EF07F078
:100C48004BC0D9FF4CC0DAFFDECFF6FFDDCFF7FF90
:100C5800F86A0800F550750AD8A435EF06F037EFA2
:100C680006F078EF06F04BC0D9FF4CC0DAFFDE2A59
:100C7800000EDD224DC0D9FF4EC0DAFFDFCF4FF0A6
:100C8800020EDE26DFCF50F0000EDD224FC0D9FF66
:100C980050C0DAFFDECF51F0DDCF52F051C06FF017
:100CA80052C070F0716B726B736B746B756B766B93
:100CB80049C022F04AC023F06FC024F070C025F06C
:100CC80071C026F072C027F073C028F074C029F0F4
:100CD80075C02AF076C02BF05DEC0EF022C049F00A
:100CE80023C04AF040EF07F04BC0D9FF4CC0DAFFF1
:100CF800DECFF6FFDDCFF7FFF86A0800F550780A77
:100D0800D8B489EF06F08BEF06F09EEF06F04BC0E3
:100D1800D9FF4CC0DAFFDECFF6FFDDCFF7FFF86A68
:100D28000800F550580AD8A49CEF06F09EEF06F08C
:100D3800EDEF06F04BC0D9FF4CC0DAFFDECFF6FF6F
:100D4800DDCFF7FFF86A0800F5CF6AF04BC0D9FF8E
:100D58004CC0DAFFDE2A000EDD224DC0D9FF4EC09E
:100D6800DAFFDFCF4FF0020EDE26DFCF50F0000EA5
:100D7800DD224FC0D9FF50C0DAFFDECF51F0DDCF02
:100D880052F051C06FF052C070F0716B726B736BA0
:100D9800746B756B766B49C022F04AC023F06FC044
:100DA80024F070C025F071C026F072C027F073C01F
:100DB80028F074C029F075C02AF076C02BF06AC0FC
:100DC8002CF07DEC0AF022C049F023C04AF040EF35
:100DD80007F04BC0D9FF4CC0DAFFDECFF6FFDDCFFE
:100DE800F7FFF86A0800F550250AD8A4FEEF06F0C8
:100DF80000EF07F017EF07F04BC0D9FF4CC0DAFF40
:100E0800DE2A000EDD22000E086E250E076E49C090
:100E180009F04AC00AF0D2EC1CF0000E4A6E010E2E
:100E2800496E40EF07F04BC0D9FF4CC0DAFFDE2A0D
:100E3800000EDD22000E4A6E000E496E40EF07F0EC
:100E48004BC0D9FF4CC0DAFFDECFF6FFDDCFF7FF8E
:100E5800F86A0800F550076E086A49C009F04AC0E8
:100E68000AF0D2EC1CF04BC0D9FF4CC0DAFFDE2AE6
:100E7800000EDD2211EF07F012000001BE6F20EE18
:100E8800B3F00A0EDE6AE806FDE2D70E0A6EFF0E20
:100E98000B6EB30E0C6E000E0D6E030E0F6E000E71
:100EA8000E6E000E116E050E106E5EEC0FF020EE49
:100EB8008DF0120EDE6AE806FDE2EB0E0A6EFF0EFA
:100EC8000B6E8D0E0C6E000E0D6E010E0F6E000E69
:100ED8000E6E000E116E080E106E5EEC0FF0000E16
:100EE8000001C26F000EC16FF50E0A6EFF0E0B6E89
:100EF800C10E0C6E000E0D6E020E0F6E000E0E6E01
:100F0800000E116E010E106E5EEC0FF0D30E000194
:100F18007D6FF90E7E6FACEC22F0130E00017D6F31
:100F2800FF0E7E6FB30E7F6F000E806FACEC22F069
:100F3800FF0E00017D6FFE0E7E6F8D0E7F6F000E1F
:100F4800806FACEC22F0D50E00017D6FFE0E7E6F37
:100F5800C10E7F6F000E806FACEC22F07D0E000199
:100F68007D6FFE0E7E6FACEC22F0570E00017D6F98
:100F7800F90E7E6FC20E7F6FFF0E806FCE0E816FEF
:100F8800FF0E826F080E846F340E836FACEC22F074
:100F9800000E0001C66F000EC56F22EE4CF010EE79
:100FA800A0F00A0EDBCFE3FFE806FCE2000EC86FF4
:100FB800000EC76FA00EC725D96E000EC821DA6EC5
:100FC800DF50C36F010EC725556E000EC821566E3F
:100FD800A00E5524D96E000E5620DA6EDF50C46F6D
:100FE800C451C3C055F0566A55C056F0556A5526C7
:100FF800000E5622D890C535D96EC635DA6E720EF7
:10100800D926010EDA2255C0DEFF56C0DDFFC54BDA
:10101800C62B020EC725C76F000EC821C86FC8BFF0
:101028001FEF08F0C85109E10C0EC75DD8A01FEFEB
:1010380008F021EF08F0DEEF07F0000EC66F000E93
:10104800C56F21EE7EF010EEABF0070EDBCFE3FFAD
:10105800E806FCE2000ECA6F000EC96FAB0EC92588
:10106800D96E000ECA21DA6EDF50C36F010EC92592
:10107800556E000ECA21566EAB0E5524D96E000E61
:101088005620DA6EDF50C46FC451C3C055F0566A9B
:1010980055C056F0556A5526000E5622D890C535CB
:1010A800D96EC635DA6E3C0ED926020EDA2255C044
:1010B800DEFF56C0DDFFC54BC62B020EC925C96F22
:1010C800000ECA21CA6FCABF73EF08F0CA5109E1FE
:1010D800080EC95DD8A073EF08F075EF08F032EF7D
:1010E80008F0BE05D8B47BEF08F07DEF08F00CEFF0
:1010F80009F0DB0E7D6FFB0E7E6FACEC22F04C0E20
:1011080000017D6FFB0E7E6FACEC22F0810E0001BA
:101118007D6FF90E7E6FACEC22F0760E00017D6FCC
:10112800F60E7E6FACEC22F02C0E00017D6FF90EEE
:101138007E6FACEC22F0000E00017D6FFD0E7E6F1D
:10114800ACEC22F0AB0E00017D6FF90E7E6FACECBB
:1011580022F0CC0E00017D6FF80E7E6FACEC22F011
:10116800F50E00017D6FF70E7E6FACEC22F0BF0E1E
:1011780000017D6FF60E7E6FACEC22F0970E000139
:101188007D6FF80E7E6FACEC22F02B0E00017D6FA8
:10119800F60E7E6FACEC22F0930E00017D6FFE0E12
:1011A8007E6FACEC22F0000E00017D6FF90E7E6FB1
:1011B800ACEC22F0930E00017D6FFA0E7E6FACEC62
:1011C80022F01F0E00017D6FFC0E7E6FACEC22F04A
:1011D800610E00017D6FFC0E7E6FACEC22F0260ED6
:1011E80000017D6FFF0E7E6FACEC22F0000E69EC03
:1011F80022F005C0BFF006C0C0F09A0E00017D6F56
:10120800FF0E7E6FBFC07FF0C0C080F0ACEC22F054
:10121800120024C03CF025C03DF026C03EF027C097
:101228003FF028C040F029C041F02AC042F02BC04E
:1012380043F043BE22EF09F025EF09F0010E26EF37
:1012480009F0000E3A6E3B6A3A503B10D8B42FEFC3
:1012580009F031EF09F041EF09F0431E421E411E2B
:10126800401E3F1E3E1E3D1E3C6C000E3D223E228F
:101278003F2240224122422243220001D0BF47EFB1
:1012880009F049EF09F04AEF09F05792D0BF57EF3C
:1012980009F0D05106E1CF05D8B055EF09F057EF66
:1012A80009F05DEF09F0000E376E010E366E61EF42
:1012B80009F0CFC036F0D0C037F0CDC038F0CEC07E
:1012C80039F03A503B10D8A46CEF09F06EEF09F0F2
:1012D80075EF09F057A473EF09F075EF09F078EF8F
:1012E80009F03806D8A03906000E456E1F0E446E68
:1012F800000E0201FC6FFDEF09F04406D8A0450678
:10130800DD0E4424D96E020E4520DA6E3CC005F08D
:101318003DC006F03EC007F03FC008F040C009F0ED
:1013280041C00AF042C00BF043C00CF00A0E0D6E2B
:10133800000E0E6E000E0F6E000E106E000E116E77
:10134800000E126E000E136E000E146E28EC15F0CF
:1013580005C02CF006C02DF007C02EF008C02FF0F5
:1013680009C030F00AC031F00BC032F00CC033F0C5
:101378002CC017F02EC018F0BBEC21F01750300F1E
:10138800DF6E3606D8A037063806D8A039063CC026
:1013980005F03DC006F03EC007F03FC008F040C071
:1013A80009F041C00AF042C00BF043C00CF00A0E2D
:1013B8000D6E000E0E6E000E0F6E000E106E000EFB
:1013C800116E000E126E000E136E000E146EA6EC57
:1013D80013F005C03CF006C03DF007C03EF008C061
:1013E8003FF009C040F00AC041F00BC042F00CC009
:1013F80043F045BE08EF0AF0455008E14404D8A080
:1014080008EF0AF00AEF0AF03AEF0AF03C503D10F4
:101418003E103F104010411042104310D8A417EF5F
:101428000AF019EF0AF081EF09F037BE26EF0AF04B
:10143800375006E13604D8B024EF0AF026EF0AF058
:1014480081EF09F039BE31EF0AF0395008E138046C
:10145800D8A031EF0AF033EF0AF03AEF0AF057B2AA
:1014680038EF0AF03AEF0AF081EF09F03A503B10F2
:10147800D8A441EF0AF043EF0AF04AEF0AF057A464
:1014880048EF0AF04AEF0AF068EF0AF04406D8A0DD
:1014980045063A503B10D8A454EF0AF056EF0AF02C
:1014A8005CEF0AF0000E356E2B0E346E60EF0AF01A
:1014B800000E356E2D0E346EDD0E4424D96E020EEC
:1014C8004520DA6E34C0DFFF22C017F023C018F0C1
:1014D800DD0E4424196E020E45201A6E38C01BF02A
:1014E80039C01CF0ACEC1AF017C022F018C023F079
:1014F80012000001D0BF83EF0AF085EF0AF086EFF3
:101508000AF05792D0BF93EF0AF0D05106E1CF0509
:10151800D8B091EF0AF093EF0AF099EF0AF0000EB5
:101528003A6E010E396E9DEF0AF0CFC039F0D0C087
:101538003AF0CDC03BF0CEC03CF057A8A6EF0AF079
:10154800A8EF0AF0ACEF0AF0FE0E3B26FF0E3C2295
:1015580024C03DF025C03EF026C03FF027C040F033
:1015680028C041F029C042F02AC043F02BC044F003
:10157800000E466E1F0E456E000E0201FC6F78EFDE
:101588000BF04506D8A046060F0E3D14476E486A74
:1015980048BED8EF0AF0485009E10A0E475CD8A0C7
:1015A800D8EF0AF0DAEF0AF0E2EF0AF0570E472414
:1015B800476E000E4820486EE8EF0AF0300E4724C8
:1015C800476E000E4820486EBF0E2D6EFF0E2E6E21
:1015D8002C502F6E306A2D502F262E50302230502E
:1015E8000AE11A0E2F5CD8A0FCEF0AF0FFEF0AF010
:1015F800010E00EF0BF0000E356E366A35503610CE
:10160800D8B409EF0BF00BEF0BF03BEF0BF09F0E8C
:101618002D6EFF0E2E6E200E47102F6E000E4810F6
:10162800306E2D502F262E50302230500AE11A0EDF
:101638002F5CD8A022EF0BF025EF0BF0010E26EF60
:101648000BF0000E376E386A37503810D8B42FEFC9
:101658000BF031EF0BF03BEF0BF047C00BF048C03D
:101668000CF0F9EC1EF00BC047F00CC048F0DD0E92
:101678004524D96E020E4620DA6E47C0DFFF3906D0
:10168800D8A03A063B06D8A03C063DC02DF03EC087
:101698002EF03FC02FF040C030F041C031F042C0C2
:1016A80032F043C033F044C034F0050E65EF0BF060
:1016B800D890343233323232313230322F322E3205
:1016C8002D32E82E5CEF0BF02DC03DF02EC03EF021
:1016D8002FC03FF030C040F031C041F032C042F07E
:1016E80033C043F034C044F046BE84EF0BF046509C
:1016F80009E1020E455CD8A084EF0BF086EF0BF0F1
:10170800B6EF0BF03D503E103F1040104110421014
:1017180043104410D8A493EF0BF095EF0BF0C5EFEE
:101728000AF03ABEA2EF0BF03A5006E13904D8B0FD
:10173800A0EF0BF0A2EF0BF0C5EF0AF03CBEADEF47
:101748000BF03C5008E13B04D8A0ADEF0BF0AFEF35
:101758000BF0B6EF0BF057B2B4EF0BF0B6EF0BF09F
:10176800C5EF0AF057A8BBEF0BF0BDEF0BF0D3EFB6
:101778000BF04506D8A04606DD0E4524D96E020EAC
:101788004620DA6E2CC0DFFF4506D8A04606DD0EDF
:101798004524D96E020E4620DA6E300EDF6E22C066
:1017A80017F023C018F0DD0E4524196E020E4620EE
:1017B8001A6E3BC01BF03CC01CF0ACEC1AF017C012
:1017C80022F018C023F01200FD0E00017D6FFB0E01
:1017D8007E6FACEC22F0030E01010119D8A4F7EFDB
:1017E8000BF0F9EF0BF04BEF0CF0940E00017D6F4E
:1017F800FB0E7E6F00C17FF0806BACEC22F0440ED4
:1018080000017D6FF70E7E6F01C17FF0806BACEC3D
:1018180022F0470E00017D6FFA0E7E6F02C17FF045
:10182800806BACEC22F06D0E00017D6FFA0E7E6FBE
:1018380003C17FF0806BACEC22F0020E00017D6FDB
:10184800FB0E7E6F04C17FF0806BACEC22F0270E9C
:1018580000017D6FFB0E7E6F05C17FF0806BACECE5
:1018680022F01E0E00017D6FFD0E7E6F06C17FF017
:10187800806BACEC22F03C0E00017D6FFD0E7E6F9C
:1018880007C17FF0806BACEC22F03EEF0DF0100E3C
:101898000119D8A452EF0CF054EF0CF03EEF0DF004
:1018A800940E00017D6FFB0E7E6F00C17FF0806B90
:1018B800ACEC22F0040E00017D6FF70E7E6F01C1C3
:1018C8007FF0806BACEC22F0470E00017D6FFA0EC2
:1018D8007E6F02C17FF0806BACEC22F06D0E0001D0
:1018E8007D6FFA0E7E6F03C17FF0806BACEC22F047
:1018F800020E00017D6FFB0E7E6F04C17FF0806BCE
:10190800ACEC22F0270E00017D6FFB0E7E6F05C147
:101918007FF0806BACEC22F0210E00017D6FFA0E97
:101928007E6F06C17FF0806BACEC22F0000E0001E8
:10193800936F010E926F000E956F070E946FF4EF80
:101948000CF0BD0E7D6FF70E7E6F010E94257F6F34
:10195800000E9521806F000E9425D96E010E9521F9
:10196800DA6EDF508D6F8D51816F826B92C083F07C
:1019780093C084F002C185F0866B01010351000118
:1019880092258E6F000E93218F6FFF0E8E25876F25
:10199800FF0E8F21886FACEC22F00001944B952B41
:1019A800B80E7D6FFB0E7E6F010E94257F6F000EC3
:1019B8009521806F000E9425D96E010E9521DA6E5F
:1019C800DF508D6F8D51816F826B92C083F093C011
:1019D80084F0ACEC22F00001924B932B944B952BA6
:1019E800FE0E8D6FFF0E8E6FD9C08FF0DAC090F0AB
:1019F8008D518F278E5190238F51945D9551800A78
:101A0800916F9051800A9159D8A00DEF0DF00FEF0A
:101A18000DF0A5EF0CF0A10E7D6FFC0E7E6F010E90
:101A280094257F6F000E9521806F000E9425D96E46
:101A3800010E9521DA6EDF508D6F8D51816F826BAB
:101A4800ACEC22F0C10E00017D6FFC0E7E6F020E21
:101A580094257F6F000E9521806F010E9425D96E15
:101A6800010E9521DA6EDF508D6F8D51816F826B7B
:101A7800ACEC22F0910E00017D6FFB0E7E6FACEC9A
:101A880022F01200000E0001976F000E966F000EF4
:101A9800926F000E916F000E936F010102510001C9
:101AA8008E6F8D6B0101055104C18FF00001906BA1
:101AB8008FC090F08F6B8F27000E90238D518F274A
:101AC8008E5190230101035100018F27000E9023AE
:101AD80090BF78EF0DF0905109E1210E8F5DD8A0ED
:101AE80078EF0DF07AEF0DF083EF0DF0610E7D6F5A
:101AF800F80E7E6FACEC22F0010E0001936F93514B
:101B0800D8A489EF0DF08BEF0DF056EF0EF0000E14
:101B1800D66F000ED56F570ED525D96E020ED62179
:101B2800DA6E00C1DFFFD54BD62B570ED525D96EFF
:101B3800020ED621DA6E01C1DFFFD54BD62B570E28
:101B4800D525D96E020ED621DA6E02C1DFFFD54B3C
:101B5800D62B570ED525D96E020ED621DA6E03C1C3
:101B6800DFFFD54BD62B570ED525D96E020ED621C1
:101B7800DA6E04C1DFFFD54BD62B570ED525D96EAB
:101B8800020ED621DA6E05C1DFFFD54BD62B000E2B
:101B9800956F000E946F07EF0EF0080E9625D96E1C
:101BA800010E9721DA6EDF508D6F070E9625D96EDC
:101BB800010E9721DA6EDF508E6F8E51906F8F6B0A
:101BC8008D518F25916F000E9021926F020E9625F0
:101BD800966F000E9721976F01010351000194251C
:101BE8008D6F000E95218E6FD8908D378E37640ECD
:101BF8008D25D96E040E8E21DA6E91C0DEFF92C05B
:101C0800DDFF944B952B0101055100018D6F8E6B03
:101C18008D51945D9551800A8F6F8E51800A8F592E
:101C2800D8A019EF0EF01BEF0EF0D1EF0DF0D5C0D4
:101C380005F0D6C006F0010E076E0BEC19F005C0D2
:101C4800D3F006C0D4F0D5C005F0D6C006F0000E1B
:101C5800076E0BEC19F005C0F4F006C0F5F0570E4E
:101C68000001D525D96E020ED621DA6ED3C0DFFF6A
:101C7800580ED525D96E020ED621DA6EF4C0DFFFD4
:101C8800020ED525D56F000ED621D66F570E066EDB
:101C9800020E076ED5C008F0D6C009F02DEC1EF074
:101CA8005CEF0EF0000E156E020E146E0DEC1BF0BC
:101CB80012000001D0BF63EF0EF065EF0EF066EF83
:101CC8000EF05792D0BF73EF0EF0D05106E1CF055A
:101CD800D8B071EF0EF073EF0EF079EF0EF0000E42
:101CE800356E010E346E7DEF0EF0CFC034F0D0C0EB
:101CF80035F0CDC036F0CEC037F024C038F025C05E
:101D080039F026C03AF027C03BF028C03CF029C083
:101D18003DF02AC03EF02BC03FF0000E416E1F0E72
:101D2800406E000E0201FC6F10EF0FF04006D8A0C5
:101D38004106DD0E4024D96E020E4120DA6E38C00D
:101D480005F039C006F03AC007F03BC008F03CC0C7
:101D580009F03DC00AF03EC00BF03FC00CF00A0E7F
:101D68000D6E000E0E6E000E0F6E000E106E000E41
:101D7800116E000E126E000E136E000E146EE2EC61
:101D880019F005C02CF006C02DF007C02EF008C0D1
:101D98002FF009C030F00AC031F00BC032F00CC08F
:101DA80033F02C50300FDF6E3406D8A035063606D7
:101DB800D8A0370638C005F039C006F03AC007F099
:101DC8003BC008F03CC009F03DC00AF03EC00BF033
:101DD8003FC00CF00A0E0D6E000E0E6E000E0F6E58
:101DE800000E106E000E116E000E126E000E136EB5
:101DF800000E146E25EC18F005C038F006C039F056
:101E080007C03AF008C03BF009C03CF00AC03DF0FA
:101E18000BC03EF00CC03FF040504110D8B417EF53
:101E28000FF019EF0FF049EF0FF0385039103A1052
:101E38003B103C103D103E103F10D8A426EF0FF089
:101E480028EF0FF09AEF0EF035BE35EF0FF0355052
:101E580006E13404D8B033EF0FF035EF0FF09AEF06
:101E68000EF037BE40EF0FF0375008E13604D8A027
:101E780040EF0FF042EF0FF049EF0FF057B247EF86
:101E88000FF049EF0FF09AEF0EF022C017F023C0C1
:101E980018F0DD0E4024196E020E41201A6E36C06D
:101EA8001BF037C01CF0ACEC1AF017C022F018C0B9
:101EB80023F01200000E176E000E166E000E156E3F
:101EC800000E146E000E176E000E166E3EEF10F028
:101ED8000EC005F00FC006F011EC23F0186E030ECB
:101EE800136E080E126E770EE82EFED7122EFCD750
:101EF800132EFAD700F01828D8B485EF0FF087EF23
:101F08000FF091EF0FF014500C24D96E15500D20DE
:101F1800DA6E18C0DFFF144A152A0E4A0F2A0EC0BF
:101F280005F00FC006F011EC23F0196E0E4A0F2AC7
:101F3800030E136E080E126E770EE82EFED7122EC1
:101F4800FCD7132EFAD700F01928D8B4AEEF0FF04B
:101F5800B0EF0FF0BAEF0FF014500C24D96E1550F3
:101F68000D20DA6E19C0DFFF144A152AD70E056E48
:101F7800FF0E066E0AC007F00BC008F0CDEC1BF090
:101F880005500610D8A4CBEF0FF0CDEF0FF0E6EF19
:101F98000FF0195018C012F0136A12C013F0126A29
:101FA8001226000E1322D8901634D96E1734DA6E22
:101FB800E80ED926000EDA2212C0DEFF13C0DDFFBC
:101FC8003CEF10F0EB0E056EFF0E066E0AC007F030
:101FD8000BC008F0CDEC1BF005500610D8A4F7EFA5
:101FE8000FF0F9EF0FF012EF10F0195018C012F0BF
:101FF800136A12C013F0126A1226000E1322D89028
:102008001634D96E1734DA6E640ED926010EDA2228
:1020180012C0DEFF13C0DDFF3CEF10F0F50E056EB9
:10202800FF0E066E0AC007F00BC008F0CDEC1BF0DF
:1020380005500610D8A423EF10F025EF10F03CEF60
:1020480010F0195018C012F0136A12C013F0126A77
:102058001226000E1322D8901634D96E1734DA6E71
:10206800FA0ED926000EDA2212C0DEFF13C0DDFFF9
:10207800164A172A1050165C1750800A126E115013
:10208800800A1258D8A04BEF10F04DEF10F06CEF0B
:102098000FF014500C24D96E15500D20DA6E000E76
:1020A800DF6E120095C09DF096C09EF0FB0E0001F9
:1020B8007D6FF90E7E6F91C07FF092C080F097C05F
:1020C80081F098C082F0ACEC22F0EB0E096E010EA4
:1020D8000A6E030E0B6EF70E0C6ECAEC1EF097C05C
:1020E8008DF098C08EF088EC16F000018D518E119D
:1020F800D8B481EF10F083EF10F073EF10F0400EBA
:102108007D6FFC0E7E6FEB0E7F6F010E806FACEC67
:1021180022F005EC23F00009D8B495EF10F097EF02
:1021280010F08DEF10F0B4EC1FF00001A16F790EE4
:10213800A119D8B4A2EF10F0A4EF10F0ADEF10F091
:10214800590EA119D8A4ABEF10F0ADEF10F025EFA0
:1021580011F08B0E7D6FFF0E7E6F91C07FF092C0E5
:1021680080F0ACEC22F0EB0E056E010E066E5DEC15
:1021780020F005C09BF006C09CF0390E00017D6F71
:10218800FF0E7E6F9BC07FF09CC080F0ACEC22F00D
:1021980095C08DF096C08EF097C08FF098C090F0E3
:1021A80086EC1FF0000E0001A06F000E9F6FFDEF80
:1021B80010F09DC005F09EC006F0EB0E9F25D96E6D
:1021C800010EA021DA6EDF50076EF4EC20F000015A
:1021D8009D4B9E2B030E00019A6F080E996F770E88
:1021E800E82EFED7992FFCD79A2FFAD700019F4BDC
:1021F800A02BEB0E056E010E066E5DEC20F005506F
:1022080000019F5D0650A059D8A00DEF11F00FEF07
:1022180011F0DDEF10F0A90E7D6FFF0E7E6F91C0FB
:102228007FF092C080F0ACEC22F0EB0E096E010E4C
:102238000A6E030E0B6EF70E0C6ECAEC1EF03DEF25
:1022480011F04E0EA119D8B42CEF11F02EEF11F0A9
:1022580037EF11F06E0EA119D8A435EF11F037EF52
:1022680011F03DEF11F0B60E7D6FFF0E7E6FACECF6
:1022780022F01200EB0E056E010E066EE50E076EDB
:10228800FF0E086ECDEC1BF005500610D8A44FEFDA
:1022980011F051EF11F056EF11F0F9EC21F0010EA9
:1022A8000BEF12F0EB0E056E010E066EFD0E076EBB
:1022B800FF0E086ECDEC1BF005500610D8A467EF92
:1022C80011F069EF11F06EEF11F0000E41EC07F01C
:1022D80053EF11F0EB0E056E010E066EDE0E076E63
:1022E800FF0E086ECDEC1BF005500610D8A47FEF4A
:1022F80011F081EF11F0A2EF11F022EE28F011EEAB
:1023080093F0130EDBCFE3FFE806FCE2930E000127
:10231800916F010E926F030E946F000E936F030E70
:10232800966F000E956F000E986F0A0E976F56EC19
:1023380010F0010E41EC07F053EF11F0EB0E056EB3
:10234800010E066EF00E076EFF0E086ECDEC1BF048
:1023580005500610D8A4B3EF11F0B5EF11F0D6EF81
:1023680011F022EE14F011EEA7F0130EDBCFE3FF0D
:10237800E806FCE2A70E0001916F010E926F010EB4
:10238800946F000E936F010E966F000E956F000EFE
:10239800986F100E976F56EC10F0010E41EC07F095
:1023A80053EF11F0EB0E056E010E066EF90E076E77
:1023B800FF0E086ECDEC1BF005500610D8A4E7EF11
:1023C80011F0E9EF11F00AEF12F022EE00F011EE31
:1023D800BBF0130EDBCFE3FFE806FCE2BB0E000107
:1023E800916F010E926F020E946F000E936F020EA2
:1023F800966F000E956F000E986F020E976F56EC51
:1024080010F0010E41EC07F053EF11F0000E12002E
:1024180021EE86F010EE15F0060EDBCFE3FFE8069E
:10242800FCE212C020F013C021F020502110D8A4E3
:1024380020EF12F022EF12F026EF12F0150E206EA8
:10244800000E216E20C005F021C006F05DEC20F0E2
:1024580005C024F006C025F0CFC022F0D0C023F07C
:1024680023BE39EF12F03BEF12F050EF12F0245078
:10247800225C2350800A146E2550800A1458D8A074
:1024880048EF12F04AEF12F04CEF12F050EF12F052
:1024980022C024F023C025F024C022F025C023F058
:1024A800CDC01EF0CEC01FF057B05DEF12F05FEF49
:1024B80012F07CEF12F06DEF12F0000E086E200E95
:1024C800076E10C009F011C00AF0D2EC1CF0244AC3
:1024D800252A1E50245C2550800A146E1F50800A3D
:1024E8001458D8A07AEF12F07CEF12F061EF12F0D6
:1024F800000E1D6E000E1C6EA1EF12F020C0F6FF3C
:1025080021C0F7FF000EF86E0E0EF76403D0080026
:10251800F55005D0F6CFE9FFF7CFEAFFEF50146E7C
:102528001450076E086A10C009F011C00AF0D2EC06
:102538001CF0204A212A1C4A1D2A22501C5C1D50CE
:10254800800A146E2350800A1458D8A0AEEF12F0F7
:10255800B0EF12F082EF12F057A0B5EF12F0B7EF1C
:1025680012F0D4EF12F0C5EF12F0000E086E200E34
:10257800076E10C009F011C00AF0D2EC1CF0244A12
:10258800252A1E50245C2550800A146E1F50800A8C
:102598001458D8A0D2EF12F0D4EF12F0B9EF12F01D
:1025A80024C010F025C011F01200000E1A6E000EA3
:1025B800196E000E136E000E126EE5EF12F00C4A43
:1025C8000D2A010E186E0CC0F6FF0DC0F7FFF86A51
:1025D8000800F550200AD8B4F4EF12F0F6EF12F024
:1025E80014EF13F0F70E0E6EFF0E0F6E0CC0F6FF11
:1025F8000DC0F7FFF86A0800F550106E116A0E500A
:1026080010260F501122115009E1050E105CD8A0B8
:1026180010EF13F012EF13F014EF13F0000E186E12
:1026280018C014F0156A14501510D8A41EEF13F032
:1026380020EF13F0E3EF12F02AEF13F0000E136E01
:10264800010E126E0C4A0D2A61EF13F00CC0F6FF52
:102658000DC0F7FFF86A0800F5500E6E0F6A0F50AC
:10266800000AD8B43AEF13F061EF13F00E502B0ABA
:10267800D8B426EF13F0060AD8B422EF13F061EFAE
:1026880013F019C005F01AC006F0000E086E0A0E05
:10269800076ED3EC22F00CC0F6FF0DC0F7FFF86A06
:1026A8000800F550055E000E065A300E0524196E16
:1026B800000E06201A6E26EF13F0D00E0E6EFF0ED7
:1026C8000F6E0CC0F6FF0DC0F7FFF86A0800F55052
:1026D800106E116A0E5010260F50112211500AE187
:1026E8000A0E105CD8A07BEF13F07EEF13F0010EFA
:1026F8007FEF13F0000E166E176A16501710D8A445
:1027080088EF13F08AEF13F045EF13F0125013100F
:10271800D8A491EF13F093EF13F0A1EF13F019C0C1
:102728000EF01AC00FF00E1E0F1E0E4A0F2A0EC012
:102738000CF00FC00DF0A5EF13F019C00CF01AC083
:102748000DF01200000E166E14BEAFEF13F0ADEFD1
:1027580013F0C1EF13F0141E131E121E111E101ECB
:102768000F1E0E1E0D6C000E0E220F2210221122BB
:10277800122213221422010E166E0CBEC8EF13F09B
:10278800C6EF13F0DAEF13F00C1E0B1E0A1E091E1B
:10279800081E071E061E056C000E062207220822C8
:1027A80009220A220B220C22010E161A20EE17F01B
:1027B800070EDE6AE806FDE20D500E100F1010102D
:1027C8001110121013101410D8B4EDEF13F0EFEF2E
:1027D80013F041EF14F0010E156EFDEF13F0D890D1
:1027E8000D360E360F3610361136123613361436AD
:1027F800152A14AE02EF14F004EF14F0F3EF13F0FF
:10280800D8901736183619361A361B361C361D3628
:102818001E360D50055C0E5006580F5007581050C4
:1028280008581150095812500A5813500B58145090
:102838000C58D8A022EF14F024EF14F035EF14F060
:102848000D50055E0E50065A0F50075A1050085A80
:102858001150095A12500A5A13500B5A14500C5A54
:102868001780D890143213321232113210320F32CC
:102878000E320D32152E04EF14F01650D8B447EF6F
:1028880014F049EF14F059EF14F01E1E1D1E1C1E03
:102898001B1E1A1E191E181E176C000E182219224C
:1028A8001A221B221C221D221E2217C005F018C046
:1028B80006F019C007F01AC008F01BC009F01CC0C8
:1028C8000AF01DC00BF01EC00CF01200A7EC23F09C
:1028D80035EC23F00009D8B474EF14F076EF14F057
:1028E80026EF15F00001DD05D8A47DEF14F07FEF89
:1028F80014F085EF14F0650E7D6FFE0E7E6FACEC64
:1029080022F035EC23F00009D8B48DEF14F08FEFE6
:1029180014F0C6EF14F0B9EF14F0E0EC1FF0566EA7
:10292800000E0001D725D96E050ED821DA6E56C0E3
:10293800DFFFDD05D8A4A3EF14F0A5EF14F0B6EF80
:1029480014F07B0E7D6FFF0E7E6F000ED725D96EBB
:10295800050ED821DA6EDF50566E56507F6F806BA9
:10296800ACEC22F00001D74BD82B35EC23F0000952
:10297800D8A4C1EF14F0C3EF14F091EF14F0010ED6
:102988000001DC6F0001DC05D8A4CDEF14F0CFEF17
:1029980014F0EBEF14F079EC19F0ABEC20F0000E2A
:1029A8000001DC6F000ED86F000ED76F83B8DFEF21
:1029B80014F0E2EF14F0010EE3EF14F0000EFF0A3A
:1029C800566E563A83505618EF0B5618836EF851C8
:1029D800D91907E1F951DA19D8A4F5EF14F0F7EF8E
:1029E80014F085EF14F083BAFCEF14F0FFEF14F045
:1029F800010E00EF15F0000EFF0A566E563A5646C5
:102A080083505618DF0B5618836EDAEC15F0E8067B
:102A1800D8A411EF15F013EF15F01CEF15F0DD0E2B
:102A280000017D6FFA0E7E6FACEC22F023EF15F0FB
:102A3800810E00017D6FFC0E7E6FACEC22F0010E62
:102A480027EF15F0000E1200000E166E0CBE31EFC7
:102A580015F02FEF15F043EF15F00C1E0B1E0A1E94
:102A6800091E081E071E061E056C000E06220722F8
:102A7800082209220A220B220C22010E166E14BE0D
:102A88004AEF15F048EF15F05AEF15F0141E131E13
:102A9800121E111E101E0F1E0E1E0D6C000E0E2291
:102AA8000F22102211221222132214220D500E106E
:102AB8000F1010101110121013101410D8B467EF63
:102AC80015F069EF15F0B1EF15F0010E156E77EFFF
:102AD80015F0D8900D360E360F36103611361236E0
:102AE80013361436152A14AE7CEF15F07EEF15F068
:102AF8006DEF15F00D50055C0E5006580F50075835
:102B0800105008581150095812500A5813500B58B1
:102B180014500C58D8A093EF15F095EF15F0A5EFC9
:102B280015F00D50055E0E50065A0F50075A1050FA
:102B3800085A1150095A12500A5A13500B5A145075
:102B48000C5AD890143213321232113210320F321A
:102B58000E320D32152E7EEF15F01650D8B4B7EFA1
:102B680015F0B9EF15F0C9EF15F00C1E0B1E0A1E73
:102B7800091E081E071E061E056C000E06220722E7
:102B8800082209220A220B220C2205C005F006C0E1
:102B980006F007C007F008C008F009C009F00AC02D
:102BA8000AF00BC00BF00CC00CF012000001986981
:102BB8009969000E956F000E946F000E976F000EC6
:102BC800966F000E9B6F000E9A6F1AEF16F0000EAC
:102BD8009A25D96E010E9B21DA6EDF508D6F8D51CB
:102BE800981B000E976F080E966F98A1FEEF15F0D0
:102BF80000EF16F009EF16F0D89099339833010ECC
:102C0800981BA00E991B0CEF16F0D89099339833A7
:102C18009607D8A0970796519711D8A416EF16F0E3
:102C280018EF16F0F9EF15F09A4B9B2BFE0E8D6FEF
:102C3800FF0E8E6FD9C08FF0DAC090F08D518F27BC
:102C48008E5190238F519A5D9B51800A916F9051BC
:102C5800800A9159D8A033EF16F035EF16F0EBEF54
:102C680015F09851926F936B98C08DF099C08EF0C3
:102C78008EC08DF08E6B8D51946F956BDD05D8A449
:102C880048EF16F04AEF16F058EF16F0700E7D6F09
:102C9800FB0E7E6F92C07FF093C080F094C081F0ED
:102CA80095C082F0ACEC22F0000E00019A25D96E96
:102CB800010E9B21DA6EDF508D6F8E6B92518D194C
:102CC80007E193518E19D8A46CEF16F06EEF16F049
:102CD80086EF16F0010E9A25D96E010E9B21DA6E49
:102CE800DF508D6F8E6B94518D1907E195518E19B8
:102CF800D8A481EF16F083EF16F086EF16F0010ED8
:102D080087EF16F0000E1200F2C055F0F3C056F02F
:102D180005EC23F00009D8B494EF16F096EF16F0FE
:102D280014EF17F005EC23F00009D8B49EEF16F065
:102D3800A0EF16F0F0EF16F0B4EC1FF0556E5550FA
:102D480028EC1FF00D0E5518D8B4ADEF16F0AFEF04
:102D580016F0B9EF16F0EB0E136E010E146E550E49
:102D6800156E000E166EC0EC22F0EB0E056E010E0D
:102D7800066E5DEC20F0055000018D5D06508E5901
:102D8800D8B0C9EF16F0CBEF16F0DFEF16F0EB0E68
:102D9800096E010E0A6EEC0E0B6E010E0C6EEB0E38
:102DA800056E010E066E5DEC20F005C00DF006C044
:102DB8000EF09DEC18F00D0E5518D8A4E6EF16F09D
:102DC800E8EF16F0F0EF16F07A0E556E8DC08DF024
:102DD8008EC08EF019EF17F00D0E5518D8A4F7EF26
:102DE80016F0F9EF16F096EF16F0EB0E056E010EE1
:102DF800066E5DEC20F0EA0E0524D96E010E062061
:102E0800DA6E000EDF6E000E00017D6FF70E7E6F2A
:102E1800ACEC22F0EB0E056E010E066E5DEC20F0B8
:102E2800000E00018E6F000E8D6F1200E6EC22F08E
:102E3800F28EF28C8398839A839C839E000E41ECD9
:102E480007F0A7EC23F0ABEC20F05AEC21F06AEC89
:102E580014F0E806D8A433EF17F035EF17F07EEF3B
:102E680017F05EEF17F095EC00F074EF17F0EA0E2C
:102E780000017D6FFE0E7E6FACEC22F0E10E0001CA
:102E88007D6FFC0E7E6FACEC22F064EC1EF046EC1D
:102E98000DF074EF17F0AF0E00017D6FFD0E7E6F21
:102EA800ACEC22F0000E156E010E146E0DEC1BF04A
:102EB80074EF17F001010151D76FD86BD851000A90
:102EC800D8B469EF17F04FEF17F0D751030AD8B409
:102ED80037EF17F0130AD8B43BEF17F04FEF17F09E
:102EE800E8EC0BF02CEC1CF085EC20F05AEC21F00F
:102EF8002BEF17F0000E00018E6F100E8D6F88EC0F
:102F080016F000018D518E11D8B48DEF17F08FEFA8
:102F180017F0A4EF17F03EEC11F0260E00017D6FBC
:102F2800FF0E7E6FACEC22F0EB0E096E010E0A6EFE
:102F3800030E0B6EF70E0C6ECAEC1EF02BEF17F09B
:102F48002BEF17F093EF00F0360EF66E430EF76E88
:102F5800000EF86E04EE64F010EE40F00900F5CFB4
:102F6800EEFFE550E150FAE1F60EF66E420EF76E0E
:102F7800000EF86E03EEB7F010EE40F00900F5CF42
:102F8800EEFFE550E150FAE1020EF66E390EF76EEB
:102F9800000EF86E02EE00F010EEA2F00900F5CF78
:102FA800EEFFE550E150FAE13A0EF66E3A0EF76E92
:102FB800000EF86E01EE00F010EE93F00900F5CF68
:102FC800EEFFE550E150FAE1B00EF66E460EF76EF0
:102FD800000EF86E00EEE8F010EE14F00900F5CFE0
:102FE800EEFFE550E150FAE105EE00F0640EEE6AFE
:102FF800E806FDE104EE00F0640EEE6AE806FDE185
:1030080003EE00F0B70EEE6AE806FDE102EEA2F06C
:103018005B0EEE6AE806FDE101EEEBF0100EEE6ADB
:10302800E806FDE100EECBF01D0EEE6AE806FDE1D4
:103038005A6A596A586A576A5B905B9200011AEF9C
:1030480017F020EE15F0070EDE6AE806FDE20D50D7
:103058000E100F1010101110121013101410D8B4F5
:1030680038EF18F03AEF18F08CEF18F0010E1D6EDB
:1030780048EF18F0D8900D360E360F361036113648
:103088001236133614361D2A14AE4DEF18F04FEFD2
:1030980018F03EEF18F0D890153616361736183651
:1030A80019361A361B361C360D50055C0E5006585C
:1030B8000F500758105008581150095812500A5804
:1030C80013500B5814500C58D8A06DEF18F06FEF30
:1030D80018F080EF18F00D50055E0E50065A0F508C
:1030E800075A1050085A1150095A12500A5A1350C8
:1030F8000B5A14500C5A1580D890143213321232CD
:10310800113210320F320E320D321D2E4FEF18F0E1
:1031180015C005F016C006F017C007F018C008F073
:1031280019C009F01AC00AF01BC00BF01CC00CF043
:1031380012000BC013F00CC014F009C011F00AC043
:1031480012F01150135C12501458D8B0AEEF18F0AA
:10315800B0EF18F0E7EF18F00D5013240F6E0E5073
:103168001420106E0F50115C10501258D8B0BFEFD9
:1031780018F0C1EF18F0E7EF18F00D5013260E50B5
:1031880014220D5011260E5012221306D8A0140630
:1031980013C0D9FF14C0DAFF1106D8A0120611C057
:1031A800E1FF12C0E2FFDFCFE7FF0D06D8A00E0651
:1031B8000D500E10D8A4E3EF18F0E5EF18F0C9EFA2
:1031C80018F00AEF19F00D500E10D8B4EEEF18F001
:1031D800F0EF18F00AEF19F013C0D9FF14C0DAFFA6
:1031E80011C0E1FF12C0E2FFDFCFE7FF134A142A44
:1031F800114A122A0D06D8A00E060D500E10D8A49A
:1032080008EF19F00AEF19F0F0EF18F01200126841
:103218001368000E0D6E000E0C6E000E116E000E7F
:10322800106E000E0F6E000E0E6E4AEF19F0570E5C
:103238000E24D96E020E0F20DA6EDF50086E085089
:10324800121A000E116E080E106E12A02EEF19F051
:1032580030EF19F039EF19F0D89013321232010E0D
:10326800121AA00E131A3CEF19F0D890133212322A
:103278001006D8A0110610501110D8A446EF19F066
:1032880048EF19F029EF19F00E4A0F2A05500E5C85
:103298000F50800A086E0650800A0858D8A057EFC9
:1032A80019F059EF19F01BEF19F012500A6E0B6A5A
:1032B80012C008F013C009F009C008F0096A0850E4
:1032C8000C6E0D6A0704D8A46CEF19F06EEF19F0B4
:1032D80074EF19F00AC005F00BC006F078EF19F08A
:1032E8000CC005F00DC006F01200000E00018E6F34
:1032F800000E8D6F000E8E6F000E8D6F96EF19F019
:10330800000E8D25D96E050E8E21DA6E000ED92598
:10331800E16E010EDA21E26EDFCFE7FFD94BDA2B3F
:103328008D4B8E2BD7518D5D8E51800A556ED8519D
:10333800800A5558D8A0A3EF19F0A5EF19F084EF2B
:1033480019F0DD05D8A4ABEF19F0ADEF19F0BEEF19
:1033580019F02B0E7D6FF80E7E6FACEC22F0770E15
:1033680000017D6FFD0E7E6FD9C07FF0DAC080F05E
:10337800ACEC22F00F0E01010119D8A4C6EF19F028
:10338800C8EF19F0D1EF19F0090E06250001F86F02
:10339800F96B000EF923E1EF19F0100E0119D8A40A
:1033A800D8EF19F0DAEF19F0DCEF19F0C8EF19F0DF
:1033B800000E0001F96F080EF86F12000D500E1084
:1033C8000F1010101110121013101410D8B4EFEFC2
:1033D80019F0F1EF19F039EF1AF0010E156EFFEF41
:1033E80019F0D8900D360E360F36103611361236C3
:1033F80013361436152A14AE04EF1AF006EF1AF035
:10340800F5EF19F00D50055C0E5006580F5007588F
:10341800105008581150095812500A5813500B5898
:1034280014500C58D8A01BEF1AF01DEF1AF02DEF0E
:103438001AF00D50055E0E50065A0F50075A1050DC
:10344800085A1150095A12500A5A13500B5A14505C
:103458000C5AD890143213321232113210320F3201
:103468000E320D32152E06EF1AF005C005F006C013
:1034780006F007C007F008C008F009C009F00AC044
:103488000AF00BC00BF00CC00CF01200A20E5A246C
:10349800D96EDA6A020EDA22000EDF6E0E019DA5E1
:1034A80058EF1AF05AEF1AF06FEF1AF0A20E5A24DA
:1034B800D96EDA6A020EDA220201DF8202D86FEFD1
:1034C8001AF00500FA6E0101E351FD6EE451FE6E3B
:1034D800FF6AFA5012000E019DA375EF1AF077EFFC
:1034E8001AF08CEF1AF0A20E5A24D96EDA6A020E7C
:1034F800DA220201DF8402D88CEF1AF00500FA6E96
:103508000101E151FD6EE251FE6EFF6AFA501200B0
:10351800A20E5A24D96EDA6A020EDA22DF50D8B423
:1035280098EF1AF09AEF1AF0A9EF1AF002D8A7EF5D
:103538001AF00500FA6E0101DF51FD6EE051FE6ED2
:10354800FF6AFA501200ABEF1AF080EC22F012007A
:1035580057A0B1EF1AF0B3EF1AF0BDEF1AF019C087
:1035680010F01AC011F017C012F018C013F016ECC2
:1035780021F01CBEC2EF1AF0C4EF1AF0CAEF1AF01D
:103588001BC020F01CC021F0CEEF1AF0000E216EF7
:10359800000E206E000E1F6E000E1E6EE0EF1AF079
:1035A800000E086E200E076E17C009F018C00AF04A
:1035B800D2EC1CF01E4A1F2A20501E5C1F50800AA5
:1035C8001D6E2150800A1D58D8A0EDEF1AF0EFEFBC
:1035D8001AF0D4EF1AF057B0F4EF1AF0F6EF1AF029
:1035E80000EF1BF019C010F01AC011F017C012F04C
:1035F80018C013F016EC21F019C005F01AC006F037
:103608005DEC20F020500524176E21500620186E1E
:103618001200000E0001D66F000ED56F570ED5258B
:10362800D96E020ED621DA6E00C1DFFFD54BD62B3C
:10363800570ED525D96E020ED621DA6E0101015139
:10364800800FDF6E0001D54BD62B570ED525D96ECE
:10365800020ED621DA6E14C0DFFFD54BD62BD5C0AB
:1036680005F0D6C006F0010E076E0BEC19F005C088
:10367800D3F006C0D4F0D5C005F0D6C006F0000ED1
:10368800076E0BEC19F005C0F4F006C0F5F0570E04
:103698000001D525D96E020ED621DA6ED3C0DFFF20
:1036A800580ED525D96E020ED621DA6EF4C0DFFF8A
:1036B800020ED525D56F000ED621D66F570E066E91
:1036C800020E076ED5C008F0D6C009F02DEC1EF02A
:1036D8001200000E5924D96EDA6A030EDA22000E9F
:1036E800DF6E9DA47AEF1BF07CEF1BF091EF1BF0CF
:1036F800000E5924D96EDA6A030EDA220301DF823A
:1037080002D891EF1BF00500FA6E0101DD51FD6E44
:10371800DE51FE6EFF6AFA5012009DA296EF1BF072
:1037280098EF1BF0ADEF1BF0000E5924D96EDA6A42
:10373800030EDA220301DF8402D8ADEF1BF0050087
:10374800FA6E0101DB51FD6EDC51FE6EFF6AFA5024
:103758001200000E5924D96EDA6A030EDA22DF50FD
:10376800D8B4B9EF1BF0BBEF1BF0CAEF1BF002D8BF
:10377800C8EF1BF00500FA6E0101D951FD6EDA5150
:10378800FE6EFF6AFA501200CCEF1BF096EC22F0A6
:103798001200D3EF1BF0054A062A074A082A07C079
:1037A800F6FF08C0F7FFF86A0800F5CF09F005C072
:1037B800F6FF06C0F7FF000EF86E0E0EF76403D092
:1037C8000800F55005D0F6CFE9FFF7CFEAFFEF5034
:1037D8000918D8A4F2EF1BF0F4EF1BF00DEF1CF062
:1037E80005C0F6FF06C0F7FF000EF86E0E0EF76470
:1037F80003D00800F55005D0F6CFE9FFF7CFEAFF70
:10380800EF500009D8A40BEF1CF00DEF1CF0CFEF20
:103818001BF005C0F6FF06C0F7FF000EF86E0E0E8F
:10382800F76403D00800F55005D0F6CFE9FFF7CFCD
:10383800EAFFEF50096E07C0F6FF08C0F7FFF86A05
:103848000800F550095C056E066AD8A00606120045
:10385800930E00017D6FFD0E7E6FD5C07FF0D6C040
:1038680080F0ACEC22F0000E00018E6F000E8D6F20
:103878006BEF1CF029EC23F00009D8B446EF1CF0DC
:1038880048EF1CF03EEF1CF0340E00017D6FFE0E79
:103898007E6F8DC07FF08EC080F0570E8D25D96E5B
:1038A800020E8E21DA6EDF50556E5550816F826B95
:1038B800ACEC22F04DEC23F00009D8B466EF1CF014
:1038C80068EF1CF05EEF1CF000018D4B8E2BD5517C
:1038D8008D5D8E51800A556ED651800A5558D8A0F4
:1038E80078EF1CF07AEF1CF03EEF1CF0000E7D6FB5
:1038F800F70E7E6FACEC22F01200526576697369A0
:103908006F6E000000000000000000000000506121
:103918007274204E756D6265720000000000000030
:10392800000053657269616C204E756D62657200A6
:10393800000000000000FF00000000000000000080
:103948000000000000004D61722032352032303214
:1039580031FF00000000000000000000000000002F
:10396800000000000000000000000000000000004F
:10397800000000000000000000000000000000003F
:10398800000000000000000000000000000000002F
:1039980000000000000000000000000009500A10AC
:1039A800D8B4D9EF1CF0DBEF1CF0E4EF1CF00950A1
:1039B8000A10D8A4E2EF1CF0E4EF1CF0E9EF1CF0C9
:1039C80007509EEC23F01CEF1DF020EE04F0095088
:1039D800D9260A50DA22DE50DE10D8B4F6EF1CF0F1
:1039E800F8EF1CF013EF1DF020EE04F00950D92673
:1039F8000A50DA2210EE02F00950E1260A50E222BB
:103A0800DE50E65CE650800A0F6EDE50800A0F58E2
:103A1800D8B011EF1DF013EF1DF01CEF1DF020EED4
:103A280002F00950D9260A50DA22DE2A000EDD22D9
:103A38001200FF000000000000000000000000006D
:103A4800000000000000000000000000000000006E
:103A5800000000000000000000000000000000005E
:103A6800000000000000000000000000000000004E
:103A7800000000000000000000000000000000003E
:103A8800000000000000000000000000000000002E
:103A98000000000000005041303036303330333001
:103AA800302D0032FF000000000000000000000080
:103AB80030303A32343A3030286E756C6C2900FF59
:053AC8000000000000F9
:103ACE00000E876E000E866E000E836E000E846EE4
:103ADE00000E856E070E8C6E070E886EBF0E896EF9
:103AEE00BF0E8A6EFE0E8B6E0F0126693B0E216F86
:103AFE00370E196F070E2E6F1169000E256F000E0F
:103B0E002D6F000E186F000E106F000E206F000E3E
:103B1E002C6F000E0F6F000E176F000E1F6F000E32
:103B2E00246F0E6916691E692369070E2B6F0D69C6
:103B3E0015691D6922690F0E2A6F170E0E01B56FDA
:103B4E000B0EF56F090EFD6F0F0E8D6F12000E012D
:103B5E00C59BDA0E056E360E066E8AEC23F00E014C
:103B6E00C599700E056E420E066E85EC23F0080E9A
:103B7E009F6E900E9D6E240E9E6EA00E9B6E030E7B
:103B8E009C6E010E9C6E760E056E470E066E94ECC4
:103B9E0023F0600E056E470E066E8FEC23F0660E58
:103BAE00056E470E066E99EC23F0000E0001DE6FD7
:103BBE00000EE26F000EE16F100EFE6F000E596EDA
:103BCE00000EE06F000EDF6F0E01C58B12000E01AE
:103BDE00C59F940E056E340E066E71EC23F00E0129
:103BEE00C59DA00E056E410E066E6CEC23F0080E00
:103BFE000E019F6F900E9D6F240E9E6FA00E9B6FF9
:103C0E00010E9C6F740E056E470E066E7BEC23F054
:103C1E00460E056E470E066E76EC23F05A0E056EB6
:103C2E00470E066E80EC23F0000E0001E36F000ECF
:103C3E00E76F000EE66F200EFF6F000E5A6E000E3D
:103C4E00E56F000EE46F0E01C58F1200AAEC23F093
:103C5E0041EC23F00009D8B437EF1EF039EF1EF017
:103C6E002FEF1EF0000E0C6E000E0B6E54EF1EF0BA
:103C7E000B500624D96E0C500720DA6EDF5057EC2D
:103C8E001FF062EC23F00009D8B450EF1EF052EF93
:103C9E001EF048EF1EF00B4A0C2A08500B5C0C501D
:103CAE00800A0A6E0950800A0A58D8A061EF1EF0E9
:103CBE0063EF1EF03FEF1EF012006B0E00017D6FE2
:103CCE00FF0E7E6FACEC22F0000E566E000E556E9F
:103CDE00CB0E00017D6FFD0E7E6F55C07FF056C07E
:103CEE0080F0D8905534D96E5634DA6E640ED926DB
:103CFE00040EDA22DECF81F0DDCF82F0ACEC22F0C2
:103D0E00554A562A56BE95EF1EF0565009E1200E22
:103D1E00555CD8A095EF1EF097EF1EF06FEF1EF0DA
:103D2E00120079C053F07AC054F0000E0001CC6F2F
:103D3E00000ECB6FB6EF1EF077C049F078C04AF098
:103D4E00530E4B6E000E4C6E7BC04DF07CC04EF091
:103D5E007CEC04F049500001CB274A50CC2353C0D1
:103D6E00F6FF54C0F7FFF86A0800F5500009D8A412
:103D7E00C3EF1EF0C5EF1EF0A3EF1EF0CBC077F021
:103D8E00CCC078F012000BC00FF00CC010F009C0C0
:103D9E0011F00AC012F00F500D6E10500E6E0F4A39
:103DAE00102A0DC0F6FF0EC0F7FF000EF86E11C000
:103DBE00D9FF12C0DAFF114A122A0E0EF76403D091
:103DCE000800F55005D0F6CFE9FFF7CFEAFFEF5028
:103DDE00DF6EDF50D8A4F6EF1EF0F8EF1EF0D2EF34
:103DEE001EF012009F0E0D6EFF0E0E6E0BC00FF02A
:103DFE000CC010F00D500F260E50102210500AE17C
:103E0E001A0E0F5CD8A00EEF1FF011EF1FF0010E6F
:103E1E0012EF1FF0000E116E126A11501210D8B46C
:103E2E001BEF1FF01DEF1FF023EF1FF05F0E0B14A3
:103E3E000B6E0C6A27EF1FF00BC00BF00CC00CF0D2
:103E4E001200056E0001FF51D8B430EF1FF032EFB3
:103E5E001FF029EF1FF00E01C5BD38EF1FF03AEF2E
:103E6E001FF03EEF1FF005C09AFE54EF1FF0C59DE8
:103E7E00840E0001E725D96EDA6A030EDA2205C038
:103E8E00DFFFE72B1F0EE7654FEF1FF051EF1FF01F
:103E9E0053EF1FF0000EE76FFF070E01C58D1200E6
:103EAE00056E0001FE51D8B45FEF1FF061EF1FF0F9
:103EBE0058EF1FF00E01C5B967EF1FF069EF1FF045
:103ECE006DEF1FF005C09AFF83EF1FF0C599C20E6C
:103EDE000001E225D96EDA6A020EDA2205C0DFFF92
:103EEE00E22B0F0EE2657EEF1FF080EF1FF082EFE8
:103EFE001FF0000EE26FFE070E01C5891200830E41
:103F0E0000017D6FF70E7E6F8DC07FF08EC080F04A
:103F1E008FC081F090C082F0ACEC22F0000E566E95
:103F2E00000E556EA7EF1FF08D515524056E8E5164
:103F3E005620066EFF0E076EF4EC20F0554A562AF8
:103F4E0000018F51555C90515658D8A0B1EF1FF01B
:103F5E00B3EF1FF09BEF1FF012000001E451D8B435
:103F6E00BBEF1FF0BDEF1FF0B4EF1FF0A20EE52563
:103F7E00D96EDA6A020EDA22DF50E36F640EE5259F
:103F8E00D96EDA6A030EDA22DF50056EE52B1F0EAC
:103F9E00E565D4EF1FF0D6EF1FF0D8EF1FF0000E3F
:103FAE00E56F0E01C59F0001E4070E01C58F055098
:103FBE0012000001DF51D8B4E7EF1FF0E9EF1FF058
:103FCE00E0EF1FF0000EE025D96EDA6A030EDA225A
:103FDE00DF50DE6F000EE025D96EDA6A040EDA22AB
:103FEE00DF50056EE02B630EE06500EF20F002EF70
:103FFE0020F004EF20F0000EE06F0E01C59B0001D3
:10400E00DF070E01C58B05501200010E0B6E200E40
:10401E0005180610D8B416EF20F018EF20F031EF87
:10402E0020F0F70E076EFF0E086E05C009F006C0F1
:10403E000AF00750092608500A220A5009E1050E17
:10404E00095CD8A02DEF20F02FEF20F031EF20F0FB
:10405E00000E0B6E0BC005F0066A1200000E6A6EA3
:10406E00000E6B6E000E6C6E000E6D6E000E686EA6
:10407E00000E696E000E666E000E0F015F6F000E71
:10408E005D6F000E5E6F000E596F000E5A6F000EC0
:10409E005B6F000E656E000E586F000E566F000EB1
:1040AE00576F940E606E0A0E5C6F120005C007F01B
:1040BE0006C008F065EF20F0054A062A05C0F6FF97
:1040CE0006C0F7FF000EF86E0E0EF76403D0080060
:1040DE00F55005D0F6CFE9FFF7CFEAFFEF50000914
:1040EE00D8A47CEF20F07EEF20F063EF20F0075095
:1040FE00055C056E08500658066E1200000E066E20
:10410E00000E056E000E066E000E056E000E0524E6
:10411E00D96E010E0620DA6EFF0EDF6E054A062AF4
:10412E0006BEA3EF20F0065009E1630E055CD8A091
:10413E00A3EF20F0A5EF20F08DEF20F0000E000190
:10414E00DA6F000ED96F1200000E076E000E066EAB
:10415E00000E076E000E066EBFEF20F0000E062456
:10416E00D96E050E0720DA6EFF0EDF6E064A072A9D
:10417E000001D751065C0750800A056ED851800A9F
:10418E000558D8A0CDEF20F0CFEF20F0B5EF20F0FE
:10419E001200200E0001FF61D7EF20F0D9EF20F0C2
:1041AE00F1EF20F0840EE625D96EDA6A030EDA22DC
:1041BE00DF500E019A6F0001E62B1F0EE665EAEF47
:1041CE0020F0ECEF20F0EEEF20F0000EE66FFF2B6C
:1041DE00F3EF20F00E01C59D1200000EF2BE010E8F
:1041EE00086E0650030B7F6E05C07EFF07C080FF72
:1041FE003F0E81168184F29E550E826EAA0E826E3D
:10420E00818281B20DEF21F00FEF21F008EF21F046
:10421E00819408B002D0F29E01D0F28E1200000EF0
:10422E00166E000E156E27EF21F014C007F0086A07
:10423E0012C009F013C00AF0D2EC1CF0154A162A6F
:10424E0015501024D96E16501120DA6EDF50146EF0
:10425E001450D8A435EF21F037EF21F01CEF21F0E8
:10426E001200100E0001FE613FEF21F041EF21F030
:10427E0057EF21F0C20EE125D96EDA6A020EDA226C
:10428E00DF509A6EE12B0F0EE16550EF21F052EFE9
:10429E0021F054EF21F0000EE16FFE2B59EF21F0CB
:1042AE000E01C5991200000E066E000E056E000E70
:1042BE00066E000E056E570E0524D96E020E0620F0
:1042CE00DA6EFF0EDF6E054A062A06BE78EF21F083
:1042DE00065009E1200E055CD8A078EF21F07AEFA8
:1042EE0021F062EF21F01200010002000300040031
:1042FE00050006000700080009000A000B000C006C
:10430E000D000E000F00100011001200130014001B
:10431E00150016001700180019001A001B001C00CB
:10432E001D001E001F00200020001F001E001D008B
:10433E001C001B001A0019001800170016001500AB
:10434E00140013001200110010000F000E000D00DB
:10435E000C000B000A00090008000700060005000B
:10436E00040003000200010018BEC8EF21F018502F
:10437E0006E11704D8B0C6EF21F0C8EF21F0D6EF52
:10438E0021F017C019F018C01AF0191E1A1E194A7A
:10439E001A2A19C017F01AC018F0DAEF21F017C058
:1043AE0017F018C018F012009F0E076EFF0E086E61
:1043BE00200E0510096E000E06100A6E0750092613
:1043CE0008500A220A500AE11A0E095CD8A0F2EF30
:1043DE0021F0F5EF21F0010EF6EF21F0000E056E43
:1043EE00066A12000001DD51D8A400EF22F002EFA0
:1043FE0022F00CEF22F0010EDD6F5B0E7D6FFF0ED3
:10440E007E6FACEC22F014EF22F0000EDD6F4A0E40
:10441E007D6FFF0E7E6FACEC22F012009F0E076ECA
:10442E00FF0E086E05C009F006C00AF007500926F7
:10443E0008500A220A500AE11A0E095CD8A02AEF87
:10444E0022F02DEF22F0010E2EEF22F0000E056E5F
:10445E00066A1200BF0E076EFF0E086E05C009F049
:10446E0006C00AF00750092608500A220A500AE12F
:10447E001A0E095CD8A046EF22F049EF22F0010E89
:10448E004AEF22F0000E056E066A1200D00E076E7D
:10449E00FF0E086E05C009F006C00AF00750092687
:1044AE0008500A220A500AE10A0E095CD8A062EFEF
:1044BE0022F065EF22F0010E66EF22F0000E056E7F
:1044CE00066A1200096E09C05FFF608E609C6080F4
:1044DE0060B074EF22F076EF22F06FEF22F06450AE
:1044EE00086E076A63500724056E000E0820066EDC
:1044FE001200640E5A24D96EDA6A030EDA2299CEAD
:10450E00DFFF5A2A1F0E5A648FEF22F091EF22F02E
:10451E0093EF22F0000E5A6E0001E42B1200000EF3
:10452E005924D96EDA6A040EDA2299CFDFFF592A9E
:10453E00630E5964A5EF22F0A7EF22F0A9EF22F047
:10454E00000E596E0001DF2B12007F0E00018B6FE3
:10455E00000E8C6F000E776F000E786F7DC079F0B5
:10456E007EC07AF08B0E7B6F000E7C6F98EC1EF087
:10457E00120013C005F014C006F05DEC20F00550DB
:10458E001324096E065014200A6E15C00BF016C0C7
:10459E000CF0CAEC1EF0120005500702F3CF09F022
:1045AE00F4CF0AF005500802F3500A26065007020F
:1045BE00F3500A2609C005F00AC006F01200B6EC48
:1045CE0023F0F7EC22F067EC1DF01DEC23F0AEECBF
:1045DE001DF0EEEC1DF035EC20F0B8EC23F01200DF
:1045EE00000E0E01E16F000EE26F000EE36F000E83
:1045FE00E46F000EE56F000EE66F12000001E4514D
:10460E00D8A40CEF23F00FEF23F0010E10EF23F0E0
:10461E00000E12000650030B7F6E05C07EFF3F0E8C
:10462E008116818000F000F080501200600E0E01A5
:10463E00D86F000EDA6F000EDC6F060EDE6F000E06
:10464E00DD6F12000001FF51D8A430EF23F033EFDD
:10465E0023F0010E34EF23F0000E12000001DF51A3
:10466E00D8A43CEF23F03FEF23F0010E40EF23F0F0
:10467E00000E12000001FE51D8A448EF23F04BEFBC
:10468E0023F0010E4CEF23F0000E12000E019EB32C
:10469E0053EF23F056EF23F0010E57EF23F0000EE9
:1046AE001200323134333635383730395A00FF0084
:1046BE00FFFF080004009EB267EF23F06AEF23F0BD
:1046CE00010E6BEF23F0000E120005C0FCF006C0C9
:1046DE00FDF0120005C0E9F106C0EAF1120005C0B6
:1046EE00E1F106C0E2F1120005C0E3F106C0E4F10B
:1046FE00120005C0DFF106C0E0F1120005C0E7F1BF
:10470E0006C0E8F1120005C0E5F106C0E6F11200A0
:10471E0005C0DBF106C0DCF1120005C0DDF106C0FC
:10472E00DEF1120005C0D9F106C0DAF11200066EF4
:10473E00065028EC1FF012000E019D999D89120063
:10474E0086908396120086808386120080EC22F07B
:10475E0012009D989D88120096EC22F01200F29A9B
:0A476E001200609C120012001200FD
:10F62A0000202020202020416464203078303030AF
:10F63A003020746F20307830303331202D2033322F
:10F64A007820436972637569742053657420537412
:10F65A00617475732020286C6F776572203862692F
:10F66A007473206F6E6C79290D0A0A0020202020FD
:10F67A0020204164642030783030303020746F208C
:10F68A00307830303331202D20333278204369727C
:10F69A0063756974204765742053746174757320A7
:10F6AA00286C6F776572203862697473206F6E6C8C
:10F6BA0079290D0A0020202020202041646420306E
:10F6CA00783036303020746F20307830363032203F
:10F6DA002D20337820416E616C6F67756520496E05
:10F6EA00707574732028307830303020746F203071
:10F6FA007830336666290D0A0A0020202042797480
:10F70A00652030323A20307825303278202D204654
:10F71A00756E6374696F6E20436F64652028577233
:10F72A00697465204D756C7469706C6520526567E3
:10F73A00697374657273290D0A0020202042797456
:10F74A00652030323A20307825303278202D204614
:10F75A00756E6374696F6E20436F64652028526505
:10F76A006164204D756C7469706C652052656769B7
:10F77A007374657273290D0A00436C656172696E50
:10F78A006720454550524F4D2066726F6D20416487
:10F79A0064726573733A2030782530347820666F46
:10F7AA0072206E756D2062797465733A202569201E
:10F7BA000D0A002020204279746520253032693AEA
:10F7CA0020307825303278202D205265672025692F
:10F7DA0020486920284164642E2030782530327808
:10F7EA0020307825303278290D0A00202020202068
:10F7FA00204164642030783035303020746F2030F6
:10F80A007830353034202D20436F6D70696C652057
:10F81A0054696D65202D20284153434949290D0A11
:10F82A0000436F6D706C6574656420416464696E31
:10F83A006720727844617461204275666665722039
:10F84A00746F204D6F6462757344617461204172F4
:10F85A007261790D0A0A005265717565737465647F
:10F86A0020726567697374657273206F7574206F8F
:10F87A00662072616E67652E202030783030303015
:10F88A0020746F2030783032302E0D0A002020206C
:10F89A0030783130202D205772697465204D756C8F
:10F8AA007469706C65205265676973746572732038
:10F8BA00284D617820333278203136626974290DF7
:10F8CA000A0020202020202041646420307830342F
:10F8DA00303020746F20307830343035202D20437A
:10F8EA006F6D70696C6520446174652028415343CB
:10F8FA004949290D0A002020203F202D20496E6900
:10F90A0074616C69736520616E6420646973706CDC
:10F91A00617920636172642064657461696C730D36
:10F92A000A002020202020204164642030783031D1
:10F93A00303020746F20307830313038202D20500C
:10F94A00617274204E756D6265720D0A00436F6DA7
:10F95A0070696C6564206F6E2025732061742025A0
:10F96A0073206279205843382076657273696F6E06
:10F97A002025750D0A0A0020202030783033202DEA
:10F98A002052656164204D756C7469706C65203114
:10F99A0036626974205265676973746572730D0AF9
:10F9AA000020202020202041646420307830333029
:10F9BA003020746F20307830333034202D20526557
:10F9CA00766973696F6E0D0A000D0A44616E2061D3
:10F9DA006E642053616D2773204D6F6462757320C6
:10F9EA004750494F20457870616E73696F6E0D0AF2
:10F9FA00000D0A456E746572206361726420257376
:10FA0A0020286D61782025692063686172616374BA
:10FA1A00657273293A2000202020427974652030CB
:10FA2A00373A20307825303278202D204E756D20D7
:10FA3A004279746573204D6F72650D0A002020208B
:10FA4A00427974652030333A203078253032782074
:10FA5A002D203173742052656720416464204869FF
:10FA6A000D0A00202020427974652030343A203073
:10FA7A007825303278202D20317374205265672022
:10FA8A00416464204C6F0D0A00202020736572695E
:10FA9A00616C202D20536574206361726420736544
:10FAAA007269616C206E756D6265720D0A0052652D
:10FABA0071756573746564207265676973746572BC
:10FACA0073206F7574206F662072616E67652E20D1
:10FADA000D0A000D0A5265636569766564204D6FEB
:10FAEA00646275732043524320636865636B65647F
:10FAFA00206F75742E0D0A0020202042797465202B
:10FB0A0030353A20307825303278202D204E756DE8
:10FB1A00206F66205265672048690D0A0020202060
:10FB2A00427974652030363A203078253032782090
:10FB3A002D204E756D206F6620526567204C6F0D23
:10FB4A000A004D6F646275732046756E6374696F3F
:10FB5A006E20436F64657320537570706F7274659D
:10FB6A00643A0D0A0A00637263486967683A20308A
:10FB7A00782530327820206372634C6F773A2030D0
:10FB8A00782530327820200D0A002020204279740E
:10FB9A00652030313A20307825303278202D2043C4
:10FBAA0061726420416464726573730D0A002020D7
:10FBBA00204279746520253032693A203078253020
:10FBCA003278202D20526567202569204C6F0D0A56
:10FBDA0000496E6974616C69736174696F6E204360
:10FBEA006F6D706C657465202D2052656164790DA6
:10FBFA000A0A000D0A4D6F646275732044617461CC
:10FC0A00204361707475726520436F6D706C657402
:10FC1A00653A0D0A0020202070617274202D20534D
:10FC2A00657420636172642070617274206E756DF0
:10FC3A006265720D0A000D0A456E74657265643A52
:10FC4A00202573200D0A20436F6E6669726D20208D
:10FC5A00597C4E3F3A2000202020726576202D20C4
:10FC6A0053657420636172642070617274206E75CA
:10FC7A006D6265720D0A000D0A52656365697665E3
:10FC8A0064204D6F64627573204352432069732068
:10FC9A006261642E0D0A00202020427974652025B5
:10FCAA003032693A20307825303278202D2043527C
:10FCBA00432048690D0A00202020427974652025D6
:10FCCA003032693A20307825303278202D2043525C
:10FCDA0043204C6F0D0A004D6F64627573205265A4
:10FCEA00676973746572204265666F726520557024
:10FCFA00646174653A002020202020204164642039
:10FD0A00307830323030202D205265766973696F31
:10FD1A006E0D0A00202020427974652030363A2080
:10FD2A00307825303278202D204352432048690DFF
:10FD3A000A00202020427974652030373A20307832
:10FD4A0025303278202D20435243204C6F0D0A0073
:10FD5A0052657175657374656420416E616C6F6775
:10FD6A00756520496E707574730D0A0A004D6F64CB
:10FD7A0044617461436E742073697474696E672098
:10FD8A0061742025690D0A0A004D6F64627573203B
:10FD9A00526573706F6E736520436F756E7420259C
:10FDAA00693A0D0A00556E737570706F72746564E6
:10FDBA002046756E6374696F6E20436F64650D0A21
:10FDCA00002020205265673A202569204461746129
:10FDDA003A20307825303478200D0A005265717542
:10FDEA00657374656420436972637569742044613C
:10FDFA0074610D0A0A005265717565737465642031
:10FE0A00436F6D70696C652054696D650D0A0A004F
:10FE1A0052657175657374656420436F6D70696CA2
:10FE2A006520446174650D0A0A0020202042797415
:10FE3A00652025303269203A203078253032782002
:10FE4A000D0A005265717565737465642053657295
:10FE5A0069616C204E6F2E0D0A0A00536F6D65742E
:10FE6A0068696E6720696E204553554152543120A6
:10FE7A000D0A004361726420416464726573732ED3
:10FE8A002030783035200D0A00436F6D6D616E6445
:10FE9A007320537570706F727465643A0D0A00525C
:10FEAA0065717565737465642050617274204E6F54
:10FEBA002E0D0A0A005265717565737465642052C5
:10FECA0065766973696F6E0D0A0A00436172642070
:10FEDA005265766973696F6E2E202573200D0A00AC
:10FEEA0046756E6374696F6E20436F64652030785F
:10FEFA0031300D0A00436172642050617274204EE1
:10FF0A006F2E202573200D0A004361726420536509
:10FF1A0072204E6F2E202573200D0A000D0A456EA1
:10FF2A0074657220436F6D6D616E64203A20004ED5
:10FF3A00756D2043686172733A202569200D0A00A5
:10FF4A0044656275672044697361626C65640D0A71
:10FF5A0000446562756720456E61626C65640D0ACE
:10FF6A0000557064617465644D42343030200D0A66
:10FF7A0000526561643A20307825303278200D0AC3
:10FF8A0000590D0A536176696E672025730D0A00C0
:10FF9A004144433A20307825303478200D0A002530
:10FFAA00732053617665642E200D0A004E6F74200B
:10FFBA0073617665640D0A004D6172203235203214
:10FFCA003032310030303A32343A303000536572D0
:10FFDA0069616C0073657269616C0064656275675A
:10FFEA00005061727400706172740052657600721A
:06FFFA006576003F0000E7
:020000040020DA
:10000000FF0FFF0FFF0FFF0FFF0FFF0FFF0FFF0F80
:020000040030CA
:0C000000ECFFFFFF9FFFFFFFFFFFFFFF73
:00000001FF
