:020000040000FA
:0400000093EF00F08A
:100008005982FACF53F0FBCF54F0D9CF55F0DACF5D
:1000180056F0F2AC12EF00F014EF00F089EF00F0A8
:100028000E01C5AD1AEF00F01CEF00F032EF00F042
:10003800CDAD21EF00F023EF00F032EF00F002D851
:1000480030EF00F00500FA6E4F50FD6E5050FE6E16
:10005800F850FF6EFA50120089EF00F0C5AF37EF85
:1000680000F039EF00F04FEF00F0CDAF3EEF00F0B9
:1000780040EF00F04FEF00F002D84DEF00F0050020
:10008800FA6E4D50FD6E4E50FE6EF850FF6EFA50EF
:10009800120089EF00F0C5A954EF00F056EF00F008
:1000A8006CEF00F0CDA95BEF00F05DEF00F06CEFB6
:1000B80000F002D86AEF00F00500FA6E4B50FD6EB2
:1000C8004C50FE6EF850FF6EFA50120089EF00F0A7
:1000D800C5AB71EF00F073EF00F089EF00F0CDAB26
:1000E80078EF00F07AEF00F089EF00F002D887EFA0
:1000F80000F00500FA6E4950FD6E4A50FE6EF85049
:10010800FF6EFA50120089EF00F056C0DAFF55C0B2
:10011800D9FF54C0FBFF53C0FAFF599211008CEF6E
:1001280002F0190E3A24D96EDA6A000EDA22000EAD
:10013800DF6E0E019DA5A3EF00F0A5EF00F0B9EF6B
:1001480000F0190E3A24D96EDA6A000EDA22DF823C
:1001580002D8B9EF00F00500FA6E4750FD6E48501E
:10016800FE6EF850FF6EFA5012000E019DA3BFEF0D
:1001780000F0C1EF00F0D5EF00F0190E3A24D96E67
:10018800DA6A000EDA22DF8402D8D5EF00F0050023
:10019800FA6E4550FD6E4650FE6EF850FF6EFA50EE
:1001A8001200190E3A24D96EDA6A000EDA22DF50EC
:1001B800D8B4E1EF00F0E3EF00F0F2EF00F002D87E
:1001C800F0EF00F00500FA6E4350FD6E4450FE6EED
:1001D800F850FF6EFA501200F4EF00F054EC02F001
:1001E8001200010E3424D96EDA6A000EDA22000EEB
:1001F800DF6E9DA402EF01F004EF01F018EF01F0AB
:10020800010E3424D96EDA6A000EDA22DF8202D8AF
:1002180018EF01F00500FA6E4150FD6E4250FE6E77
:10022800F850FF6EFA5012009DA21DEF01F01FEF6B
:1002380001F033EF01F0010E3424D96EDA6A000EB2
:10024800DA22DF8402D833EF01F00500FA6E3F505E
:10025800FD6E4050FE6EF850FF6EFA501200010E0F
:100268003424D96EDA6A000EDA22DF50D8B43FEFB0
:1002780001F041EF01F050EF01F002D84EEF01F02C
:100288000500FA6E3D50FD6E3E50FE6EF850FF6E52
:10029800FA50120052EF01F069EC02F01200000E61
:1002A800876E000E866E000E836E000E846E000E42
:1002B800856E070E8C6E8868A70E896E8A688B68B3
:1002C8000F01266921695F0E196F070E2E6F1169DC
:1002D800000E256F000E2D6F000E186F000E106FA8
:1002E800000E206F000E2C6F000E0F6F000E176FA0
:1002F800000E1F6F000E246F0E6916691E692369B0
:10030800070E2B6F0D6915691D6922690F0E2A6F7B
:100318000D0E0E01B56F0B0EF56F090EF36F0F0E74
:100328008D6F12000E01C59F2A0E576E010E586E72
:10033800BFEC02F00E01C59D220E576E040E586EDA
:10034800BAEC02F0080E0E019F6F900E9D6F240EFE
:100358009E6FA00E9B6F010E9C6FF60E576E050EDA
:10036800586EC9EC02F0D80E576E050E586EC4ECE4
:1003780002F0E00E576E050E586ECEEC02F0000E3D
:10038800376E000E3C6E000E3B6E080E526E000E6D
:100398003A6E000E396E000E386E0E01C58F1200CF
:1003A8000E01C59BEA0E576E010E586ED8EC02F08E
:1003B8000E01C599660E576E040E586ED3EC02F006
:1003C800080E9F6E900E9D6E240E9E6EA00E9B6E64
:1003D800010E9C6EF80E576E050E586EE2EC02F098
:1003E800E60E576E050E586EDDEC02F0EC0E576EF9
:1003F800050E586EE7EC02F0000E316E000E366EF8
:10040800000E356E080E516E000E346E000E336EFF
:10041800000E326E0E01C58B1200080E526017EFE7
:1004280002F019EF02F030EF02F0290E3B24D96EEA
:10043800DA6A000EDA22DF500E019A6F3B2A070EA5
:100448003B6429EF02F02BEF02F02DEF02F0000ED3
:100458003B6E522A32EF02F00E01C59D1200080EC3
:10046800516039EF02F03BEF02F051EF02F0110E4C
:100478003524D96EDA6A000EDA22DF509A6E352AF0
:10048800070E35644AEF02F04CEF02F04EEF02F02F
:10049800000E356E512A53EF02F00E01C599120075
:1004A800210E3A24D96EDA6A000EDA2299CEDFFFDD
:1004B8003A2A070E3A6463EF02F065EF02F067EF3D
:1004C80002F0000E3A6E382A1200090E3424D96E52
:1004D800DA6A000EDA2299CFDFFF342A070E346475
:1004E80078EF02F07AEF02F07CEF02F0000E346E43
:1004F800322A1200000E0E01E16F000EE26F000EAC
:10050800E36F000EE46F000EE56F000EE66F120059
:1005180000EE01F03C0EEE6AE806FDE159905992B2
:10052800000EF86E0001B2EF02F0F9EC02F07EEC7A
:1005380002F053EC01F0A6EC02F0D4EC01F096ECDA
:1005480001F01200600E0E01D86F000EDA6F000E77
:10055800DC6F050EDE6F000EDD6F120099EC02F005
:10056800F28EF28CB6EF02F093EF00F057C04FF026
:1005780058C050F0120057C04DF058C04EF012004D
:1005880057C045F058C046F0120057C047F058C051
:1005980048F0120057C043F058C044F0120057C04A
:1005A8004BF058C04CF0120057C049F058C04AF000
:1005B800120057C03FF058C040F0120057C041F039
:1005C80058C042F0120057C03DF058C03EF012002B
:1005D8000E019D999D89120054EC02F012009D981D
:1005E8009D88120069EC02F01200F29A12001200C3
:0205F8001200EF
:020000040020DA
:10000000FF0FFF0FFF0FFF0FFF0FFF0FFF0FFF0F80
:020000040030CA
:0C000000ECFFFFFF9FFFFFFFFFFFFFFF73
:00000001FF
