:020000040000FA
:0400000093EF00F08A
:100008005B82FACF01F0FBCF02F0D9CF03F0DACF51
:1000180004F0F2AC12EF00F014EF00F089EF00F0FA
:100028000E01C5AD1AEF00F01CEF00F032EF00F042
:10003800CDAD21EF00F023EF00F032EF00F002D851
:1000480030EF00F00500FA6E0101EB51FD6EEC5146
:10005800FE6EFF6AFA50120089EF00F0C5AF37EF65
:1000680000F039EF00F04FEF00F0CDAF3EEF00F0B9
:1000780040EF00F04FEF00F002D84DEF00F0050020
:10008800FA6E0101E951FD6EEA51FE6EFF6AFA50FF
:10009800120089EF00F0C5A954EF00F056EF00F008
:1000A8006CEF00F0CDA95BEF00F05DEF00F06CEFB6
:1000B80000F002D86AEF00F00500FA6E0101E7517E
:1000C800FD6EE851FE6EFF6AFA50120089EF00F0EB
:1000D800C5AB71EF00F073EF00F089EF00F0CDAB26
:1000E80078EF00F07AEF00F089EF00F002D887EFA0
:1000F80000F00500FA6E0101E551FD6EE651FE6E55
:10010800FF6AFA50120089EF00F004C0DAFF03C05A
:10011800D9FF02C0FBFF01C0FAFF5B92110094EF08
:1001280013F04BC0D9FF4CC0DAFFDECFF6FFDDCFAE
:10013800F7FFF86A0800F550250AD8A4A6EF00F0E2
:10014800A8EF00F03DEF03F04BC0D9FF4CC0DAFF39
:10015800DE2A000EDD22000E0001A46F000EA36F40
:10016800A3C057F0A4C058F0A569A669000E6C6F2B
:10017800000E6B6F07EF01F057804BC0D9FF4CC0E2
:10018800DAFFDE2A000EDD2207EF01F05782C1EF09
:1001980000F05784C1EF00F05786C1EF00F0578890
:1001A800C1EF00F0000E6C6F010E6B6F07EF01F0EE
:1001B8004BC0D9FF4CC0DAFFDECFF6FFDDCFF7FF2B
:1001C800F86A0800F5504F6E506A5050000AD8B4CB
:1001D800F0EF00F0D6EF00F04F50200AD8B4D0EF7F
:1001E80000F0030AD8B4D3EF00F0080AD8B4CDEF72
:1001F80000F0060AD8B4C0EF00F01D0AD8B4CAEF60
:1002080000F0D6EF00F06B516C11D8B40EEF01F08E
:1002180010EF01F0DCEF00F057A015EF01F017EF39
:1002280001F018EF01F057924BC0D9FF4CC0DAFF2C
:10023800DECFF6FFDDCFF7FFF86A0800F5502A0A8F
:10024800D8A429EF01F02BEF01F054EF01F04BC0D7
:10025800D9FF4CC0DAFFDE2A000EDD224DC0D9FFDF
:100268004EC0DAFFDFCF4FF0020EDE26DFCF50F0B0
:10027800000EDD224FC0D9FF50C0DAFFDECFA3F059
:10028800DDCFA4F0A4BF4DEF01F04BEF01F099EFE3
:1002980001F05780A36DA41FD8B0A42B99EF01F0EB
:1002A8004BC0D9FF4CC0DAFFDECF0CF0DDCF0DF02C
:1002B80039EC0CF00CC0A3F00DC0A4F06BEF01F00A
:1002C8004BC0D9FF4CC0DAFFDE2A000EDD22D00E6B
:1002D8004F6EFF0E506E4BC0D9FF4CC0DAFFDECF19
:1002E800F6FFDDCFF7FFF86A0800F550516E526A45
:1002F8004F5051265050522252500AE10A0E515C7A
:10030800D8A089EF01F08CEF01F0010E8DEF01F01C
:10031800000E00016D6F6E6B6D516E11D8A497EFD2
:1003280001F099EF01F064EF01F04BC0D9FF4CC028
:10033800DAFFDECFF6FFDDCFF7FFF86A0800F550E9
:10034800640AD8B4AAEF01F0ACEF01F0BFEF01F0F6
:100358004BC0D9FF4CC0DAFFDECFF6FFDDCFF7FF89
:10036800F86A0800F550690AD8A4BDEF01F0BFEF9C
:1003780001F0FFEF01F04BC0D9FF4CC0DAFFDE2AD5
:10038800000EDD224DC0D9FF4EC0DAFFDFCF4FF09F
:10039800020EDE26DFCF50F0000EDD224FC0D9FF5F
:1003A80050C0DAFFDECF60F0DDCF61F0000E61BF34
:1003B800FF0E626F636F646F656F666F676F49C02A
:1003C80022F04AC023F060C024F061C025F062C06A
:1003D80026F063C027F064C028F065C029F066C025
:1003E8002AF067C02BF05AEC03F022C049F023C072
:1003F8004AF059EF03F04BC0D9FF4CC0DAFFDECF0B
:10040800F6FFDDCFF7FFF86A0800F550730AD8A4A5
:1004180010EF02F012EF02F03DEF02F04BC0D9FFEF
:100428004CC0DAFFDE2A000EDD224DC0D9FF4EC0D7
:10043800DAFFDFCF4FF0020EDE26DFCF50F0000EDE
:10044800DD224FC0D9FF50C0DAFFDECF68F0DDCF24
:1004580069F049C010F04AC011F068C012F069C0D4
:1004680013F06CEC0BF010C049F011C04AF059EFD2
:1004780003F04BC0D9FF4CC0DAFFDECFF6FFDDCF6B
:10048800F7FFF86A0800F550750AD8A44EEF02F095
:1004980050EF02F091EF02F04BC0D9FF4CC0DAFFE9
:1004A800DE2A000EDD224DC0D9FF4EC0DAFFDFCFB5
:1004B8004FF0020EDE26DFCF50F0000EDD224FC0D7
:1004C800D9FF50C0DAFFDECF51F0DDCF52F051C076
:1004D8006FF052C070F0716B726B736B746B756BED
:1004E800766B49C022F04AC023F06FC024F070C078
:1004F80025F071C026F072C027F073C028F074C0D0
:1005080029F075C02AF076C02BF0A4EC08F022C0C0
:1005180049F023C04AF059EF03F04BC0D9FF4CC053
:10052800DAFFDECFF6FFDDCFF7FFF86A0800F550F7
:10053800780AD8B4A2EF02F0A4EF02F0B7EF02F005
:100548004BC0D9FF4CC0DAFFDECFF6FFDDCFF7FF97
:10055800F86A0800F550580AD8A4B5EF02F0B7EFCA
:1005680002F006EF03F04BC0D9FF4CC0DAFFDECF34
:10057800F6FFDDCFF7FFF86A0800F5CF6AF04BC049
:10058800D9FF4CC0DAFFDE2A000EDD224DC0D9FFAC
:100598004EC0DAFFDFCF4FF0020EDE26DFCF50F07D
:1005A800000EDD224FC0D9FF50C0DAFFDECF51F078
:1005B800DDCF52F051C06FF052C070F0716B726BAA
:1005C800736B746B756B766B49C022F04AC023F06D
:1005D8006FC024F070C025F071C026F072C027F0FB
:1005E80073C028F074C029F075C02AF076C02BF0CB
:1005F8006AC02CF0CAEC04F022C049F023C04AF0CB
:1006080059EF03F04BC0D9FF4CC0DAFFDECFF6FF3D
:10061800DDCFF7FFF86A0800F550250AD8A417EFD0
:1006280003F019EF03F030EF03F04BC0D9FF4CC0D3
:10063800DAFFDE2A000EDD22000E086E250E076E98
:1006480049C009F04AC00AF018EC15F0000E4A6ECD
:10065800010E496E59EF03F04BC0D9FF4CC0DAFFC9
:10066800DE2A000EDD22000E4A6E000E496E59EF9A
:1006780003F04BC0D9FF4CC0DAFFDECFF6FFDDCF69
:10068800F7FFF86A0800F550076E086A49C009F0D4
:100698004AC00AF018EC15F04BC0D9FF4CC0DAFF7D
:1006A800DE2A000EDD222AEF03F0120024C03CF0FF
:1006B80025C03DF026C03EF027C03FF028C040F0DE
:1006C80029C041F02AC042F02BC043F043BE6FEF6F
:1006D80003F072EF03F0010E73EF03F0000E3A6EB1
:1006E8003B6A3A503B10D8B47CEF03F07EEF03F03E
:1006F8008EEF03F0431E421E411E401E3F1E3E1E4B
:100708003D1E3C6C000E3D223E223F2240224122EB
:10071800422243220001A6BF94EF03F096EF03F0B4
:1007280097EF03F05792A6BFA4EF03F0A65106E196
:10073800A505D8B0A2EF03F0A4EF03F0AAEF03F0E9
:10074800000E376E010E366EAEEF03F0A5C036F020
:10075800A6C037F0A3C038F0A4C039F03A503B1017
:10076800D8A4B9EF03F0BBEF03F0C2EF03F057A42E
:10077800C0EF03F0C2EF03F0C5EF03F03806D8A0CE
:100788003906000E456E1F0E446E000E0101C86F3B
:100798004AEF04F04406D8A04506A90E4424D96EB1
:1007A800010E4520DA6E3CC005F03DC006F03EC0A3
:1007B80007F03FC008F040C009F041C00AF042C04D
:1007C8000BF043C00CF00A0E0D6E000E0E6E000EFC
:1007D8000F6E000E106E000E116E000E126E000EDF
:1007E800136E000E146ECAEC0DF005C02CF006C096
:1007F8002DF007C02EF008C02FF009C030F00AC055
:1008080031F00BC032F00CC033F02CC017F02EC002
:1008180018F0FCEC1AF01750300FDF6E3606D8A02F
:1008280037063806D8A039063CC005F03DC006F0AA
:100838003EC007F03FC008F040C009F041C00AF0D0
:1008480042C00BF043C00CF00A0E0D6E000E0E6E87
:10085800000E0F6E000E106E000E116E000E126E5E
:10086800000E136E000E146E06EC0DF005C03CF081
:1008780006C03DF007C03EF008C03FF009C040F098
:100888000AC041F00BC042F00CC043F045BE55EF22
:1008980004F0455008E14404D8A055EF04F057EFA0
:1008A80004F087EF04F03C503D103E103F1040101C
:1008B800411042104310D8A464EF04F066EF04F02E
:1008C800CEEF03F037BE73EF04F0375006E136047D
:1008D800D8B071EF04F073EF04F0CEEF03F039BE37
:1008E8007EEF04F0395008E13804D8A07EEF04F018
:1008F80080EF04F087EF04F057B285EF04F087EF3C
:1009080004F0CEEF03F03A503B10D8A48EEF04F079
:1009180090EF04F097EF04F057A495EF04F097EFE9
:1009280004F0B5EF04F04406D8A045063A503B1051
:10093800D8A4A1EF04F0A3EF04F0A9EF04F0000E8F
:10094800356E2B0E346EADEF04F0000E356E2D0EA5
:10095800346EA90E4424D96E010E4520DA6E34C0D7
:10096800DFFF22C017F023C018F0A90E4424196E27
:10097800010E45201A6E38C01BF039C01CF0F7EC88
:1009880013F017C022F018C023F012000001A6BF10
:10099800D0EF04F0D2EF04F0D3EF04F05792A6BFE3
:1009A800E0EF04F0A65106E1A505D8B0DEEF04F0AB
:1009B800E0EF04F0E6EF04F0000E3A6E010E396E37
:1009C800EAEF04F0A5C039F0A6C03AF0A3C03BF0A6
:1009D800A4C03CF057A8F3EF04F0F5EF04F0F9EFEA
:1009E80004F0FE0E3B26FF0E3C2224C03DF025C03D
:1009F8003EF026C03FF027C040F028C041F029C093
:100A080042F02AC043F02BC044F0000E466E1F0E81
:100A1800456E000E0101C86FC5EF05F04506D8A068
:100A280046060F0E3D14476E486A48BE25EF05F08E
:100A3800485009E10A0E475CD8A025EF05F027EFDA
:100A480005F02FEF05F0570E4724476E000E48209B
:100A5800486E35EF05F0300E4724476E000E4820EB
:100A6800486EBF0E2D6EFF0E2E6E2C502F6E306A04
:100A78002D502F262E50302230500AE11A0E2F5CAE
:100A8800D8A049EF05F04CEF05F0010E4DEF05F049
:100A9800000E356E366A35503610D8B456EF05F06C
:100AA80058EF05F088EF05F09F0E2D6EFF0E2E6EA5
:100AB800200E47102F6E000E4810306E2D502F2636
:100AC8002E50302230500AE11A0E2F5CD8A06FEF5A
:100AD80005F072EF05F0010E73EF05F0000E376EAA
:100AE800386A37503810D8B47CEF05F07EEF05F03F
:100AF80088EF05F047C00BF048C00CF007EC19F080
:100B08000BC047F00CC048F0A90E4524D96E010E61
:100B18004620DA6E47C0DFFF3906D8A03A063B0602
:100B2800D8A03C063DC02DF03EC02EF03FC02FF0AF
:100B380040C030F041C031F042C032F043C033F021
:100B480044C034F0050EB2EF05F0D8903432333299
:100B58003232313230322F322E322D32E82EA9EF96
:100B680005F02DC03DF02EC03EF02FC03FF030C044
:100B780040F031C041F032C042F033C043F034C0DD
:100B880044F046BED1EF05F0465009E1020E455C3F
:100B9800D8A0D1EF05F0D3EF05F003EF06F03D50F4
:100BA8003E103F1040104110421043104410D8A48A
:100BB800E0EF05F0E2EF05F012EF05F03ABEEFEFD7
:100BC80005F03A5006E13904D8B0EDEF05F0EFEF43
:100BD80005F012EF05F03CBEFAEF05F03C5008E1D5
:100BE8003B04D8A0FAEF05F0FCEF05F003EF06F0A0
:100BF80057B201EF06F003EF06F012EF05F057A821
:100C080008EF06F00AEF06F020EF06F04506D8A038
:100C18004606A90E4524D96E010E4620DA6E2CC070
:100C2800DFFF4506D8A04606A90E4524D96E010E59
:100C38004620DA6E300EDF6E22C017F023C018F09F
:100C4800A90E4524196E010E46201A6E3BC01BF0F2
:100C58003CC01CF0F7EC13F017C022F018C023F0CA
:100C6800120093C09DF094C09EF0690E00017D6F44
:100C7800FF0E7E6FD6EC1BF03F0E00017D6FFB0E62
:100C88007E6F8FC07FF090C080F091C081F092C0DD
:100C980082F093C083F094C084F095C085F096C02C
:100CA80086F0D6EC1BF0F10E00017D6FFC0E7E6F16
:100CB8008FC07FF090C080F095C081F096C082F020
:100CC800D6EC1BF0C90E096E010E0A6E3E0E0B6EB5
:100CD800FF0E0C6E7AEC18F095C08BF096C08CF075
:100CE800CAEC0FF000018B518C11D8B47EEF06F0DE
:100CF80080EF06F070EF06F05C0E7D6FFD0E7E6FE4
:100D0800C90E7F6F010E806FD6EC1BF02BEC1CF028
:100D18000009D8B492EF06F094EF06F08AEF06F0D7
:100D280036EC19F000019C6F790E9C19D8B49FEF2E
:100D380006F0A1EF06F0AAEF06F0590E9C19D8A408
:100D4800A8EF06F0AAEF06F07EEF07F04C0E7D6FD5
:100D5800FE0E7E6FD6EC1BF0C90E056E010E066EF8
:100D6800B7EC19F005C099F006C09AF08F0E000193
:100D78007D6FFF0E7E6F99C07FF09AC080F0D6EC31
:100D88001BF093C08BF094C08CF095C08DF096C08A
:100D98008EF0A9EC18F0000E0001A06F000E9F6FF6
:100DA8000CEF07F09B0E7D6FFE0E7E6FC90E9F2520
:100DB800D96E010EA021DA6EDF50976F97517F6FC1
:100DC800806B9DC081F09EC082F0D6EC1BF09DC068
:100DD80005F09EC006F0C90E00019F25D96E010ED0
:100DE800A021DA6EDF50076E76EC1AF000019D4BF9
:100DF8009E2B030E0001986F080E976F770EE82E52
:100E0800FED7972FFCD7982FFAD700019F4BA02B1E
:100E1800C90E056E010E066EB7EC19F005500001FB
:100E28009F5D0650A059D8A01CEF07F01EEF07F0F1
:100E3800D6EF06F0B40E7D6FFE0E7E6FD6EC1BF07B
:100E480093C09DF094C09EF0030E0001986F080EA9
:100E5800976F770EE82EFED7972FFCD7982FFAD7E3
:100E6800000E0001A06F000E9F6F62EF07F09DC09B
:100E780005F09EC006F037EC1CF000019B6FBC0E1D
:100E88007D6FFD0E7E6F9BC07FF0806B9DC081F0F3
:100E98009EC082F0D6EC1BF000019D4B9E2B030EEA
:100EA8000001986F080E976F770EE82EFED7972FE0
:100EB800FCD7982FFAD700019F4BA02BC90E056EBF
:100EC800010E066EB7EC19F0055000019F5D065043
:100ED800A059D8A072EF07F074EF07F03BEF07F0C6
:100EE800C90E096E010E0A6E3E0E0B6EFF0E0C6ED9
:100EF8007AEC18F01200000E0001966F000E956F44
:100F0800000E926F000E916F000EAA6F000EA96F6F
:100F180002017C5100018D6F8E6BD890A935D96E76
:100F2800AA35DA6E3F0ED926010EDA228DC0DEFF11
:100F38008EC0DDFFA94BAA2B02017D5100018D6FE8
:100F48008E6BD890A935D96EAA35DA6E3F0ED926A0
:100F5800010EDA228DC0DEFF8EC0DDFFA94BAA2B61
:100F680002017E5100018D6F8E6BD890A935D96E24
:100F7800AA35DA6E3F0ED926010EDA228DC0DEFFC1
:100F88008EC0DDFFA94BAA2B02017F5100018D6F96
:100F98008E6BD890A935D96EAA35DA6E3F0ED92650
:100FA800010EDA228DC0DEFF8EC0DDFFA94BAA2B11
:100FB8000201805100018D6F8E6BD890A935D96ED2
:100FC800AA35DA6E3F0ED926010EDA228DC0DEFF71
:100FD8008EC0DDFFA94BAA2B0201815100018D6F44
:100FE8008E6BD890A935D96EAA35DA6E3F0ED92600
:100FF800010EDA228DC0DEFF8EC0DDFFA94BAA2BC1
:10100800000E946F000E936F40EF08F0840E952544
:10101800D96E020E9621DA6EDF508D6F830E9525FC
:10102800D96E020E9621DA6EDF508E6F8E51906F58
:101038008F6B8D518F25916F000E9021926F020E4C
:101048009525956F000E9621966F02017F5100013C
:1010580093258D6F000E94218E6FD8908D378E3723
:10106800640E8D25D96E030E8E21DA6E91C0DEFFD7
:1010780092C0DDFF934B942B0201815100018D6FCB
:101088008E6B8D51935D9451800A8F6F8E51800ABB
:101098008F59D8A052EF08F054EF08F00AEF08F083
:1010A800A9C005F0AAC006F0010E076EE4EC11F025
:1010B80005C0A7F006C0A8F0A9C005F0AAC006F0B0
:1010C800000E076EE4EC11F005C0BCF006C0BDF0E0
:1010D800D8900001A935D96EAA35DA6E3F0ED92607
:1010E800010EDA22A7C0DEFFA8C0DDFFD890A9351F
:1010F800D96EAA35DA6E410ED926010EDA22BCC0A5
:10110800DEFFBDC0DDFF020EA925A96F000EAA21D2
:10111800AA6FB105D8A493EF08F095EF08F099EFFE
:1011280008F0E4EC17F032EC17F03F0E066E010EF3
:10113800076EA9C008F0AAC009F0AAEC17F01200BF
:101148000001A6BFAAEF08F0ACEF08F0ADEF08F079
:101158005792A6BFBAEF08F0A65106E1A505D8B088
:10116800B8EF08F0BAEF08F0C0EF08F0000E356EDF
:10117800010E346EC4EF08F0A5C034F0A6C035F0F7
:10118800A3C036F0A4C037F024C038F025C039F029
:1011980026C03AF027C03BF028C03CF029C03DF0FB
:1011A8002AC03EF02BC03FF0000E416E1F0E406E6D
:1011B800000E0101C86F57EF09F04006D8A041069C
:1011C800A90E4024D96E010E4120DA6E38C005F010
:1011D80039C006F03AC007F03BC008F03CC009F03F
:1011E8003DC00AF03EC00BF03FC00CF00A0E0D6E79
:1011F800000E0E6E000E0F6E000E106E000E116EB9
:10120800000E126E000E136E000E146E2CEC13F00E
:1012180005C02CF006C02DF007C02EF008C02FF036
:1012280009C030F00AC031F00BC032F00CC033F006
:101238002C50300FDF6E3406D8A035063606D8A0FD
:10124800370638C005F039C006F03AC007F03BC091
:1012580008F03CC009F03DC00AF03EC00BF03FC0AA
:101268000CF00A0E0D6E000E0E6E000E0F6E000EC4
:10127800106E000E116E000E126E000E136E000E30
:10128800146E6CEC11F005C038F006C039F007C0D8
:101298003AF008C03BF009C03CF00AC03DF00BC072
:1012A8003EF00CC03FF040504110D8B45EEF09F05A
:1012B80060EF09F090EF09F0385039103A103B1000
:1012C8003C103D103E103F10D8A46DEF09F06FEFB1
:1012D80009F0E1EF08F035BE7CEF09F0355006E182
:1012E8003404D8B07AEF09F07CEF09F0E1EF08F0A8
:1012F80037BE87EF09F0375008E13604D8A087EFEA
:1013080009F089EF09F090EF09F057B28EEF09F074
:1013180090EF09F0E1EF08F022C017F023C018F0B1
:10132800A90E4024196E010E41201A6E36C01BF01A
:1013380037C01CF0F7EC13F017C022F018C023F0E8
:101348001200000E0001AA6F000EA96F02017C5165
:1013580000018D6F8E6BD890A935D96EAA35DA6EDB
:101368003F0ED926010EDA228DC0DEFF8EC0DDFFCA
:10137800A94BAA2B02017D5100018D6F8E6BD8906D
:10138800A935D96EAA35DA6E3F0ED926010EDA22B2
:101398008DC0DEFF8EC0DDFFA94BAA2B0201815153
:1013A800020DD8900001A935D96EAA35DA6E3F0E24
:1013B800D926010EDA22F3CFDEFFF4CFDDFFA94BE9
:1013C800AA2B000E926F000E916F3BEF0AF00201FC
:1013D8007F51000191258D6F000E92218E6FD8905C
:1013E8008D378E37000E8D25D96E020E8E21DA6E5E
:1013F800DECF8FF0DDCF90F08F51BC6FBD6B020157
:101408007F51000191258D6F000E92218E6FD8902B
:101418008D378E37000E8D25D96E020E8E21DA6E2D
:10142800DECF8FF0DDCF90F09051A76FA86BD890EA
:10143800A935D96EAA35DA6E3F0ED926010EDA2201
:10144800A7C0DEFFA8C0DDFFA94BAA2BD890A935FD
:10145800D96EAA35DA6E3F0ED926010EDA22BCC043
:10146800DEFFBDC0DDFFA94BAA2B914B922B0201D9
:10147800815100018D6F8E6B8D51915D9251800A63
:101488008F6F8E51800A8F59D8A04DEF0AF04FEF19
:101498000AF0EBEF09F0A9C005F0AAC006F0010EAA
:1014A800076EE4EC11F005C0A7F006C0A8F0A9C0CB
:1014B80005F0AAC006F0000E076EE4EC11F005C0B6
:1014C800BCF006C0BDF0D8900001A935D96EAA3588
:1014D800DA6E3F0ED926010EDA22A7C0DEFFA8C0B9
:1014E800DDFFD890A935D96EAA35DA6E410ED92616
:1014F800010EDA22BCC0DEFFBDC0DDFF020EA92549
:10150800A96F000EAA21AA6FB105D8A48EEF0AF020
:1015180090EF0AF092EF0AF032EC17F03F0E066EE9
:10152800010E076EA9C008F0AAC009F0AAEC17F0CE
:101538001200DA0E00017D6FFD0E7E6FC90E7F6FFF
:10154800010E806FD6EC1BF0C90E056E010E066EFB
:10155800ED0E076EFF0E086E70EC17F005500610C2
:10156800D8A4B9EF0AF0BBEF0AF0C0EF0AF03AECE2
:101578001BF0010E6BEF0BF0C90E056E010E066E27
:10158800FC0E076EFF0E086E70EC17F00550061083
:10159800D8A4D1EF0AF0D3EF0AF0D7EF0AF063EC42
:1015A80015F0BDEF0AF0C90E056E010E066EE60EC7
:1015B800076EFF0E086E70EC17F005500610D8A4E1
:1015C800E8EF0AF0EAEF0AF008EF0BF022EE68F015
:1015D80013EEA4F0130EDBCFE3FFE806FCE2A40E43
:1015E80000018F6F030E906F030E926F000E916FC4
:1015F800030E946F000E936F000E966F0A0E956F90
:1016080035EC06F0BDEF0AF0C90E056E010E066E48
:10161800F30E076EFF0E086E70EC17F005500610FB
:10162800D8A419EF0BF01BEF0BF039EF0BF022EEFB
:1016380054F013EEB8F0130EDBCFE3FFE806FCE23C
:10164800B80E00018F6F030E906F010E926F000E9F
:10165800916F010E946F000E936F000E966F100E2F
:10166800956F35EC06F0BDEF0AF0C90E056E010E58
:10167800066EF80E076EFF0E086E70EC17F0055038
:101688000610D8A44AEF0BF04CEF0BF06AEF0BF002
:1016980022EE40F013EECCF0130EDBCFE3FFE806AA
:1016A800FCE2CC0E00018F6F030E906F020E926F5A
:1016B800000E916F020E946F000E936F000E966FDE
:1016C800020E956F35EC06F06BEF0BF0000E120072
:1016D80021EE20F010EE15F0060EDBCFE3FFE80652
:1016E800FCE212C020F013C021F020502110D8A431
:1016F80080EF0BF082EF0BF086EF0BF0150E206EEB
:10170800000E216E20C005F021C006F0B7EC19F0DC
:1017180005C024F006C025F0A5C022F0A6C023F01D
:1017280023BE99EF0BF09BEF0BF0B0EF0BF02450BA
:10173800225C2350800A146E2550800A1458D8A0C1
:10174800A8EF0BF0AAEF0BF0ACEF0BF0B0EF0BF03B
:1017580022C024F023C025F024C022F025C023F0A5
:10176800A3C01EF0A4C01FF057B0BDEF0BF0BFEF31
:101778000BF0DCEF0BF0CDEF0BF0000E086E200E37
:10178800076E10C009F011C00AF018EC15F0244AD1
:10179800252A1E50245C2550800A146E1F50800A8A
:1017A8001458D8A0DAEF0BF0DCEF0BF0C1EF0BF018
:1017B800000E1D6E000E1C6E01EF0CF020C0F6FF2F
:1017C80021C0F7FF000EF86E0E0EF76403D0080074
:1017D800F55005D0F6CFE9FFF7CFEAFFEF50146ECA
:1017E8001450076E086A10C009F011C00AF018EC0E
:1017F80015F0204A212A1C4A1D2A22501C5C1D5023
:10180800800A146E2350800A1458D8A00EEF0CF0EA
:1018180010EF0CF0E2EF0BF057A015EF0CF017EFFC
:101828000CF034EF0CF025EF0CF0000E086E200ED3
:10183800076E10C009F011C00AF018EC15F0244A20
:10184800252A1E50245C2550800A146E1F50800AD9
:101858001458D8A032EF0CF034EF0CF019EF0CF05C
:1018680024C010F025C011F01200000E1A6E000EF0
:10187800196E000E136E000E126E45EF0CF00C4A36
:101888000D2A010E186E0CC0F6FF0DC0F7FFF86A9E
:101898000800F550200AD8B454EF0CF056EF0CF0BD
:1018A80074EF0CF0F70E0E6EFF0E0F6E0CC0F6FF05
:1018B8000DC0F7FFF86A0800F550106E116A0E5057
:1018C80010260F501122115009E1050E105CD8A006
:1018D80070EF0CF072EF0CF074EF0CF0000E186E55
:1018E80018C014F0156A14501510D8A47EEF0CF027
:1018F80080EF0CF043EF0CF08AEF0CF0000E136E43
:10190800010E126E0C4A0D2AC1EF0CF00CC0F6FF46
:101918000DC0F7FFF86A0800F5500E6E0F6A0F50F9
:10192800000AD8B49AEF0CF0C1EF0CF00E502B0A55
:10193800D8B486EF0CF0060AD8B482EF0CF0C1EFE9
:101948000CF019C005F01AC006F0000E086E0A0E59
:10195800076EFDEC1BF00CC0F6FF0DC0F7FFF86A30
:101968000800F550055E000E065A300E0524196E63
:10197800000E06201A6E86EF0CF0D00E0E6EFF0ECB
:101988000F6E0CC0F6FF0DC0F7FFF86A0800F5509F
:10199800106E116A0E5010260F50112211500AE1D4
:1019A8000A0E105CD8A0DBEF0CF0DEEF0CF0010E95
:1019B800DFEF0CF0000E166E176A16501710D8A439
:1019C800E8EF0CF0EAEF0CF0A5EF0CF01250131052
:1019D800D8A4F1EF0CF0F3EF0CF001EF0DF019C003
:1019E8000EF01AC00FF00E1E0F1E0E4A0F2A0EC060
:1019F8000CF00FC00DF005EF0DF019C00CF01AC077
:101A08000DF01200000E166E14BE0FEF0DF00DEF64
:101A18000DF021EF0DF0141E131E121E111E101EC4
:101A28000F1E0E1E0D6C000E0E220F221022112208
:101A3800122213221422010E166E0CBE28EF0DF08E
:101A480026EF0DF03AEF0DF00C1E0B1E0A1E091EB4
:101A5800081E071E061E056C000E06220722082215
:101A680009220A220B220C22010E161A20EE17F068
:101A7800070EDE6AE806FDE20D500E100F1010107A
:101A88001110121013101410D8B44DEF0DF04FEFC1
:101A98000DF0A1EF0DF0010E156E5DEF0DF0D89071
:101AA8000D360E360F3610361136123613361436FA
:101AB800152A14AE62EF0DF064EF0DF053EF0DF040
:101AC800D8901736183619361A361B361C361D3676
:101AD8001E360D50055C0E5006580F500758105012
:101AE80008581150095812500A5813500B581450DE
:101AF8000C58D8A082EF0DF084EF0DF095EF0DF0A3
:101B08000D50055E0E50065A0F50075A1050085ACD
:101B18001150095A12500A5A13500B5A14500C5AA1
:101B28001780D890143213321232113210320F3219
:101B38000E320D32152E64EF0DF01650D8B4A7EF03
:101B48000DF0A9EF0DF0B9EF0DF01E1E1D1E1C1EA5
:101B58001B1E1A1E191E181E176C000E1822192299
:101B68001A221B221C221D221E2217C005F018C093
:101B780006F019C007F01AC008F01BC009F01CC015
:101B88000AF01DC00BF01EC00CF01200000E166EFD
:101B98000CBED3EF0DF0D1EF0DF0E5EF0DF00C1EFC
:101BA8000B1E0A1E091E081E071E061E056C000EC7
:101BB80006220722082209220A220B220C22010EE1
:101BC800166E14BEECEF0DF0EAEF0DF0FCEF0DF021
:101BD800141E131E121E111E101E0F1E0E1E0D6C3B
:101BE800000E0E220F22102211221222132214227A
:101BF8000D500E100F101010111012101310141099
:101C0800D8B409EF0EF00BEF0EF053EF0EF0010E03
:101C1800156E19EF0EF0D8900D360E360F361036B9
:101C28001136123613361436152A14AE1EEF0EF07E
:101C380020EF0EF00FEF0EF00D50055C0E50065819
:101C48000F500758105008581150095812500A5888
:101C580013500B5814500C58D8A035EF0EF037EF2E
:101C68000EF047EF0EF00D50055E0E50065A0F505D
:101C7800075A1050085A1150095A12500A5A13504C
:101C88000B5A14500C5AD8901432133212321132A3
:101C980010320F320E320D32152E20EF0EF0165084
:101CA800D8B459EF0EF05BEF0EF06BEF0EF00C1E90
:101CB8000B1E0A1E091E081E071E061E056C000EB6
:101CC80006220722082209220A220B220C2205C01A
:101CD80005F006C006F007C007F008C008F009C004
:101CE80009F00AC00AF00BC00BF00CC00CF012008F
:101CF800000196699769000E936F000E926F000EAF
:101D0800956F000E946F000E996F000E986FBCEFE0
:101D18000EF07C0E9825D96E020E9921DA6EDF50EE
:101D28008B6F8B51961B000E956F080E946F96A1C2
:101D3800A0EF0EF0A2EF0EF0ABEF0EF0D8909733B5
:101D48009633010E961BA00E971BAEEF0EF0D8909F
:101D5800973396339407D8A0950794519511D8A432
:101D6800B8EF0EF0BAEF0EF09BEF0EF0984B992BF0
:101D7800FE0E8B6FFF0E8C6FADC08DF0AEC08EF077
:101D88008B518D278C518E238D51985D9951800AE6
:101D98008F6F8E51800A8F59D8A0D5EF0EF0D7EFEC
:101DA8000EF08DEF0EF09651906F916B96C08BF000
:101DB80097C08CF08CC08BF08C6B8B51926F936BAF
:101DC800B105D8A4EAEF0EF0ECEF0EF0FAEF0EF042
:101DD800150E7D6FFD0E7E6F90C07FF091C080F074
:101DE80092C081F093C082F0D6EC1BF07C0E00010B
:101DF8009825D96E020E9921DA6EDF508B6F8C6BA5
:101E080090518B1907E191518C19D8A40EEF0FF05E
:101E180010EF0FF028EF0FF07D0E9825D96E020E07
:101E28009921DA6EDF508B6F8C6B92518B1907E119
:101E380093518C19D8A423EF0FF025EF0FF028EF5A
:101E48000FF0010E29EF0FF0000E1200ACEC1CF0A1
:101E58004FEC1CF00009D8B434EF0FF036EF0FF058
:101E6800C8EF0FF0CC0E00017D6FFE0E7E6FD6EC32
:101E78001BF04FEC1CF00009D8B445EF0FF047EF0A
:101E88000FF064EF0FF057EF0FF062EC19F0566E99
:101E9800000E0001AB25D96E040EAC21DA6E56C0D7
:101EA800DFFFAB4BAC2B4FEC1CF00009D8A45FEF65
:101EB8000FF061EF0FF049EF0FF0010E0001B06F66
:101EC8000001B005D8A46BEF0FF06DEF0FF089EFAC
:101ED8000FF0C3EC12F051EC1AF0000E0001B06FD5
:101EE800000EAC6F000EAB6F83B87DEF0FF080EF84
:101EF8000FF0010E81EF0FF0000EFF0A566E563AF2
:101F080083505618EF0B5618836E01013D5100019E
:101F1800AD1909E101013E510001AE19D8A497EFAE
:101F28000FF099EF0FF03DEF0FF083BA9EEF0FF02F
:101F3800A1EF0FF0010EA2EF0FF0000EFF0A566E90
:101F4800563A564683505618DF0B5618836E7CEC6B
:101F58000EF0E806D8A4B3EF0FF0B5EF0FF0BEEF20
:101F68000FF02A0E00017D6FFF0E7E6FD6EC1BF07E
:101F7800C5EF0FF0670E00017D6FFE0E7E6FD6EC89
:101F88001BF0010EC9EF0FF0000E120037C155F01B
:101F980038C156F02BEC1CF00009D8B4D6EF0FF07E
:101FA800D8EF0FF056EF10F02BEC1CF00009D8B466
:101FB800E0EF0FF0E2EF0FF032EF10F036EC19F02F
:101FC800556E55504AEC18F00D0E5518D8B4EFEF71
:101FD8000FF0F1EF0FF0FBEF0FF0C90E136E010ECB
:101FE800146E550E156E000E166EEAEC1BF0C90E37
:101FF800056E010E066EB7EC19F0055000018B5DF9
:1020080006508C59D8B00BEF10F00DEF10F021EFFF
:1020180010F0C90E096E010E0A6ECA0E0B6E010E83
:102028000C6EC90E056E010E066EB7EC19F005C0F0
:102038000DF006C00EF055EC12F00D0E5518D8A490
:1020480028EF10F02AEF10F032EF10F07A0E556EEC
:102058008BC08BF08CC08CF05BEF10F00D0E551818
:10206800D8A439EF10F03BEF10F0D8EF0FF0C90EFD
:10207800056E010E066EB7EC19F0C80E0524D96E70
:10208800010E0620DA6E000EDF6E3B0E00017D6F3A
:10209800FF0E7E6FD6EC1BF0C90E056E010E066EA4
:1020A800B7EC19F0000E00018C6F000E8B6F120058
:1020B8001EEC1CF0F28EF28C8398839A839C839E8C
:1020C80063EC15F0ACEC1CF051EC1AF0DFEC19F0F5
:1020D8002AEC0FF0E806D8A474EF10F076EF10F0B1
:1020E800C3EF10F00001B105D8A47DEF10F07FEF29
:1020F80010F0ACEF10F0F1EC15F0ACEF10F0540E5E
:102108007D6FFF0E7E6FD6EC1BF0A5EC09F005EC99
:102118001AF0DFEC19F06CEF10F03F0E7D6FFF0E38
:102128007E6FD6EC1BF0E4EC17F07FEC07F08BEF3A
:1021380010F0300E7D6FFE0E7E6FD6EC1BF0000E99
:1021480000018E6F010E8D6FE6EC10F08BEF10F032
:1021580002017D510001A16FA26BA251000AD8B4FF
:10216800B8EF10F09DEF10F0A151030AD8B483EF37
:1021780010F0130AD8B491EF10F09DEF10F0000E94
:1021880000018C6F100E8B6FCAEC0FF000018B51A1
:102198008C11D8B4D2EF10F0D4EF10F0E2EF10F0B9
:1021A8009DEC0AF0C90E096E010E0A6E3E0E0B6E0A
:1021B800FF0E0C6E7AEC18F06CEF10F06CEF10F06C
:1021C80093EF00F0000E0001AA6F000EA96F020144
:1021D8007C5100018F6F906BD890A935D96EAA35C4
:1021E800DA6E3F0ED926010EDA228FC0DEFF90C0CC
:1021F800DDFFA94BAA2B02017D5100018F6F906B67
:10220800800E8F27000E9023D890A935D96EAA3555
:10221800DA6E3F0ED926010EDA228FC0DEFF90C09B
:10222800DDFFA94BAA2BD890A935D96EAA35DA6E4D
:102238003F0ED926010EDA228DC0DEFF8EC0DDFFEB
:10224800A94BAA2BA9C005F0AAC006F0010E076E7B
:10225800E4EC11F005C0A7F006C0A8F0A9C005F08D
:10226800AAC006F0000E076EE4EC11F005C0BCF041
:1022780006C0BDF0D8900001A935D96EAA35DA6E2E
:102288003F0ED926010EDA22A7C0DEFFA8C0DDFF67
:10229800D890A935D96EAA35DA6E410ED926010E25
:1022A800DA22BCC0DEFFBDC0DDFF020EA925A96F82
:1022B800000EAA21AA6F32EC17F03F0E066E010E2F
:1022C800076EA9C008F0AAC009F0AAEC17F012001E
:1022D80020EE15F0070EDE6AE806FDE20D500E103E
:1022E8000F1010101110121013101410D8B47FEF23
:1022F80011F081EF11F0D3EF11F0010E1D6E8FEF89
:1023080011F0D8900D360E360F36103611361236BB
:10231800133614361D2A14AE94EF11F096EF11F00F
:1023280085EF11F0D8901536163617361836193647
:102338001A361B361C360D50055C0E5006580F50C9
:102348000758105008581150095812500A5813507D
:102358000B5814500C58D8A0B4EF11F0B6EF11F088
:10236800C7EF11F00D50055E0E50065A0F50075A70
:102378001050085A1150095A12500A5A13500B5A41
:1023880014500C5A1580D89014321332123211326C
:1023980010320F320E320D321D2E96EF11F015C08D
:1023A80005F016C006F017C007F018C008F019C0ED
:1023B80009F01AC00AF01BC00BF01CC00CF0120088
:1023C80012681368000E0D6E000E0C6E000E116E72
:1023D800000E106E000E0F6E000E0E6E26EF12F03D
:1023E800D8900E34D96E0F34DA6E3F0ED926010E0E
:1023F800DA22DE50121ADD50131A000E116E080E82
:10240800106E12A00AEF12F00CEF12F015EF12F096
:10241800D89013321232010E121AA00E131A18EFA6
:1024280012F0D890133212321006D8A011061050AC
:102438001110D8A422EF12F024EF12F005EF12F0D9
:102448000E4A0F2A05500E5C0F50800A086E06507F
:10245800800A0858D8A033EF12F035EF12F0F4EFE5
:1024680011F012500A6E0B6A12C008F013C009F07E
:1024780009C008F0096A08500C6E0D6A0704D8A450
:1024880048EF12F04AEF12F050EF12F00AC005F0D0
:102498000BC006F054EF12F00CC005F00DC006F0AA
:1024A80012000BC013F00CC014F009C011F00AC0E0
:1024B80012F01150135C12501458D8B066EF12F095
:1024C80068EF12F09FEF12F00D5013240F6E0E50AC
:1024D8001420106E0F50115C10501258D8B077EFBE
:1024E80012F079EF12F09FEF12F00D5013260E50F4
:1024F80014220D5011260E5012221306D8A01406CD
:1025080013C0D9FF14C0DAFF1106D8A0120611C0F3
:10251800E1FF12C0E2FFDFCFE7FF0D06D8A00E06ED
:102528000D500E10D8A49BEF12F09DEF12F081EF22
:1025380012F0C2EF12F00D500E10D8B4A6EF12F040
:10254800A8EF12F0C2EF12F013C0D9FF14C0DAFFDF
:1025580011C0E1FF12C0E2FFDFCFE7FF134A142AE0
:10256800114A122A0D06D8A00E060D500E10D8A436
:10257800C0EF12F0C2EF12F0A8EF12F01200000E36
:1025880000018C6F000E8B6F000E8C6F000E8B6F2E
:10259800E0EF12F0000E8B25D96E040E8C21DA6E56
:1025A8007C0EAD25E16E020EAE21E26EDFCFE7FFB5
:1025B800AD4BAE2B8B4B8C2BAB518B5D8C51800A6A
:1025C800556EAC51800A5558D8A0EDEF12F0EFEFD8
:1025D80012F0CEEF12F0B105D8A4F5EF12F0F7EF34
:1025E80012F008EF13F02D0E7D6FFC0E7E6FD6EC07
:1025F8001BF0140E00017D6FFE0E7E6FADC07FF0E4
:10260800AEC080F0D6EC1BF00F0E02017D19D8A4E5
:1026180010EF13F012EF13F01BEF13F0090E8225E1
:1026280001013D6F3E6B000E3E232BEF13F0100EA1
:102638007D19D8A422EF13F024EF13F026EF13F03E
:1026480012EF13F0000E01013E6F080E3D6F1200ED
:102658000D500E100F10101011101210131014102E
:10266800D8B439EF13F03BEF13F083EF13F0010EFA
:10267800156E49EF13F0D8900D360E360F3610361A
:102688001136123613361436152A14AE4EEF13F0DF
:1026980050EF13F03FEF13F00D50055C0E50065845
:1026A8000F500758105008581150095812500A581E
:1026B80013500B5814500C58D8A065EF13F067EF5F
:1026C80013F077EF13F00D50055E0E50065A0F50B9
:1026D800075A1050085A1150095A12500A5A1350E2
:1026E8000B5A14500C5AD890143213321232113239
:1026F80010320F320E320D32152E50EF13F005C086
:1027080005F006C006F007C007F008C008F009C0C9
:1027180009F00AC00AF00BC00BF00CC00CF0120054
:10272800B80EF66E350EF76E000EF86E03EE64F016
:1027380010EE40F00900F5CFEEFFE550E150FAE168
:102748006B0EF66E2D0EF76E000EF86E02EE00F0B0
:1027580010EE7CF00900F5CFEEFFE550E150FAE10C
:10276800EC0EF66E2C0EF76E000EF86E01EE00F011
:1027780010EE7FF00900F5CFEEFFE550E150FAE1E9
:102788007A0EF66E390EF76E000EF86E0900F5CF68
:10279800BCF00900F5CFBDF004EE00F0C80EEE6AFB
:1027A800E806FDE103EE00F0640EEE6AE806FDE1DE
:1027B80002EE7CF0640EEE6AE806FDE101EE7FF0C1
:1027C8005A0EEE6AE806FDE100EEA3F0190EEE6A75
:1027D800E806FDE15A6A596A586A576A5B905B9243
:1027E80000015CEF10F057A0FCEF13F0FEEF13F0C0
:1027F80008EF14F019C010F01AC011F017C012F049
:1028080018C013F098EC1AF01CBE0DEF14F00FEF7F
:1028180014F015EF14F01BC020F01CC021F019EFC4
:1028280014F0000E216E000E206E000E1F6E000EBA
:102838001E6E2BEF14F0000E086E200E076E17C0E8
:1028480009F018C00AF018EC15F01E4A1F2A20508B
:102858001E5C1F50800A1D6E2150800A1D58D8A08A
:1028680038EF14F03AEF14F01FEF14F057B03FEFC1
:1028780014F041EF14F04BEF14F019C010F01AC027
:1028880011F017C012F018C013F098EC1AF019C024
:1028980005F01AC006F0B7EC19F020500524176EA1
:1028A80021500620186E12008F0E5A24D96EDA6A4B
:1028B800010EDA22000EDF6E0E019DA566EF14F000
:1028C80068EF14F07CEF14F08F0E5A24D96EDA6A90
:1028D800010EDA220101DF8202D87CEF14F0050034
:1028E800FA6EE351FD6EE451FE6EFF6AFA50120073
:1028F8000E019DA382EF14F084EF14F098EF14F00A
:102908008F0E5A24D96EDA6A010EDA220101DF84A9
:1029180002D898EF14F00500FA6EE151FD6EE2510D
:10292800FE6EFF6AFA5012008F0E5A24D96EDA6AC8
:10293800010EDA22DF50D8B4A4EF14F0A6EF14F099
:10294800B5EF14F002D8B3EF14F00500FA6E0101E8
:10295800DF51FD6EE051FE6EFF6AFA501200B7EFCC
:1029680014F0AAEC1BF01200000E5924D96EDA6A92
:10297800030EDA22000EDF6E9DA4C5EF14F0C7EF38
:1029880014F0DCEF14F0000E5924D96EDA6A030E45
:10299800DA220301DF8202D8DCEF14F00500FA6EB8
:1029A8000101DD51FD6EDE51FE6EFF6AFA50120024
:1029B8009DA2E1EF14F0E3EF14F0F8EF14F0000E2D
:1029C8005924D96EDA6A030EDA220301DF8402D8A9
:1029D800F8EF14F00500FA6E0101DB51FD6EDC51D1
:1029E800FE6EFF6AFA501200000E5924D96EDA6A98
:1029F800030EDA22DF50D8B404EF15F006EF15F015
:102A080015EF15F002D813EF15F00500FA6E010165
:102A1800D951FD6EDA51FE6EFF6AFA50120017EFB7
:102A280015F0C0EC1BF0120009500A10D8B41FEFC3
:102A380015F021EF15F02AEF15F009500A10D8A467
:102A480028EF15F02AEF15F02FEF15F00750A3EC3B
:102A58001CF062EF15F020EE04F00950D9260A5058
:102A6800DA22DE50DE10D8B43CEF15F03EEF15F058
:102A780059EF15F020EE04F00950D9260A50DA2251
:102A880010EE02F00950E1260A50E222DE50E65C20
:102A9800E650800A0F6EDE50800A0F58D8B057EF04
:102AA80015F059EF15F062EF15F020EE02F009501D
:102AB800D9260A50DA22DE2A000EDD221200820E02
:102AC80000017D6FFB0E7E6FD6EC1BF0BEEC1CF098
:102AD800820E00017D6FFE0E7E6FD6EC1BF0FC0EA1
:102AE80000017D6FFE0E7E6FD6EC1BF0C60E000156
:102AF8007D6FFC0E7E6FD10E7F6FFF0E806FDD0E37
:102B0800816FFF0E826F080E846F340E836FD6ECD0
:102B18001BF0F70E00017D6FFD0E7E6FD6EC1BF0EB
:102B2800630E00017D6FFC0E7E6FD6EC1BF0BF0EAE
:102B380000017D6FFB0E7E6FD6EC1BF0390E000195
:102B48007D6FFD0E7E6FD6EC1BF01200000E876EB7
:102B5800000E866E000E836E000E846E000E856E6B
:102B6800070E8C6E070E886EBF0E896EBF0E8A6EBA
:102B7800FE0E8B6E0F0126693B0E216F370E196F03
:102B8800070E2E6F1169000E256F000E2D6F000EB7
:102B9800186F000E106F000E206F000E2C6F000EC5
:102BA8000F6F000E176F000E1F6F000E246F0E6957
:102BB80016691E692369070E2B6F0D6915691D6952
:102BC80022690F0E2A6F170E0E01B56F0B0EF56FE7
:102BD800090EFD6F0F0E8D6F12007D0E00017D6FC7
:102BE800FD0E7E6FD6EC1BF00001B105D8A4FFEFF7
:102BF80015F001EF16F034EF16F0000E8C6F000E92
:102C08008B6F1FEF16F0130E7D6FFF0E7E6F8BC05C
:102C18007FF08CC080F07C0E8B25D96E020E8C2143
:102C2800DA6EDF50556E5550816F826BD6EC1BF013
:102C380000018B4B8C2BAD518B5D8C51800A556EEE
:102C4800AE51800A5558D8A02CEF16F02EEF16F08A
:102C580007EF16F03B0E7D6FFF0E7E6FD6EC1BF074
:102C680012000E01C59FB00E056E280E066E76EC9A
:102C78001CF00E01C59D560E056E340E066E71ECE5
:102C88001CF0080E0E019F6F900E9D6F240E9E6F14
:102C9800400E9B6F030E9C6F7E0E056E390E066EFE
:102CA80080EC1CF0500E056E390E066E7BEC1CF0A5
:102CB800640E056E390E066E85EC1CF0000E0001E0
:102CC800B76F000EBB6F000EBA6F080E0101ED6FF3
:102CD800000E5A6E000E0001B96F000EB86F0E019B
:102CE800C58F120050413030363033303330302DFC
:102CF80000325541204739303032313231323930A3
:102D080030300031286E756C6C29005A04F100C40B
:102D1800013731353339344D0030305A000400FF63
:102D2800FF0800FFFF000000000000000000000096
:102D3800000000000000000000000000000000008B
:102D4800000000000000000000000000000000007B
:102D5800000000000000000000000000000000006B
:102D6800000000010002000300040005000600073F
:102D780000080009000A000B000C000D000E000FEF
:102D8800001000110012001300140015001600179F
:102D980000180019001A001B001C001D001E001F4F
:102DA8000020005265766973696F6E0000000000AC
:102DB8000000000000000050617274204E756D62C2
:102DC8006572000000000000000000536572696130
:0F2DD8006C204E756D62657200000000000000F7
:102DE8000E01C59B700E056E290E066E8FEC1CF049
:102DF8000E01C599740E056E350E066E8AEC1CF030
:102E0800080E9F6E900E9D6E240E9E6E400E9B6E59
:102E1800030E9C6E800E056E390E066E99EC1CF042
:102E28006A0E056E390E066E94EC1CF0700E056E77
:102E3800390E066E9EEC1CF0000E0001B26F000EFB
:102E4800B66F000EB56F100EBE6F000E596E000EF5
:102E5800B46F000EB36F0E01C58B12007C0E00011B
:102E68007D6FFF0E7E6FD6EC1BF0000E00018C6F9D
:102E7800000E8B6F5AEF17F0130E7D6FFF0E7E6FEB
:102E88008BC07FF08CC080F0D8908B35D96E8C3594
:102E9800DA6E3F0ED926010EDA22DECF81F0DDCFC1
:102EA80082F0D6EC1BF000018B4B8C2BA9518B5D6B
:102EB8008C51800A556EAA51800A5558D8A067EFE0
:102EC80017F069EF17F040EF17F03B0E7D6FFF0E1C
:102ED8007E6FD6EC1BF0120076EF17F0054A062A33
:102EE800074A082A05C0D9FF06C0DAFFDF50096E75
:102EF80007C0F6FF08C0F7FFF86A0800F550091880
:102F0800D8A489EF17F08BEF17F097EF17F005C0EB
:102F1800D9FF06C0DAFFDF50D8A495EF17F097EF76
:102F280017F072EF17F005C0D9FF06C0DAFFDF50BF
:102F3800096E07C0F6FF08C0F7FFF86A0800F550E9
:102F4800095C056E066AD8A006061200AFEC1CF0F4
:102F58005BEC1CF00009D8B4B4EF17F0B6EF17F02B
:102F6800ACEF17F0000E0C6E000E0B6ED4EF17F0DE
:102F7800D8900B34D96E0C34DA6E0650D926075027
:102F8800DA22DF50D8EC18F067EC1CF00009D8B44E
:102F9800D0EF17F0D2EF17F0C8EF17F00B4A0C2A52
:102FA80008500B5C0C50800A0A6E0950800A0A58B7
:102FB800D8A0E1EF17F0E3EF17F0BCEF17F012001D
:102FC800C10E00017D6FFF0E7E6FD6EC1BF0000E68
:102FD800566E000E556EE40E00017D6FFE0E7E6F7C
:102FE80055C07FF056C080F0D8905534D96E56340D
:102FF800DA6E640ED926030EDA22DECF81F0DDCF39
:1030080082F0D6EC1BF0554A562A56BE15EF18F03A
:10301800565009E1200E555CD8A015EF18F017EFAF
:1030280018F0EFEF17F0120079C053F07AC054F09F
:10303800000E0101A86F000EA76F36EF18F077C0D9
:1030480049F078C04AF0530E4B6E000E4C6E7BC0B0
:103058004DF07CC04EF095EC00F049500101A727D7
:103068004A50A82353C0F6FF54C0F7FFF86A080077
:10307800F5500009D8A443EF18F045EF18F023EFF6
:1030880018F0A7C177F0A8C178F01200056E010109
:10309800ED51D8B452EF18F054EF18F04BEF18F088
:1030A8000E01C5BD5AEF18F05CEF18F060EF18F08C
:1030B80005C09AFE77EF18F0C59D9F0E0001BB254D
:1030C800D96EDA6A010EDA2205C0DFFFBB2B070EC4
:1030D800BB6571EF18F073EF18F075EF18F0000E7C
:1030E800BB6F0101ED070E01C58D12000BC00FF07B
:1030F8000CC010F009C011F00AC012F00F500D6E8C
:1031080010500E6E0F4A102A0DC0F6FF0EC0F7FFC2
:10311800000EF86E11C0D9FF12C0DAFF114A122A48
:103128000E0EF76403D00800F55005D0F6CFE9FF7E
:10313800F7CFEAFFEF50DF6EDF50D8A4A6EF18F004
:10314800A8EF18F082EF18F01200F60E00017D6F5C
:10315800FB0E7E6F8BC07FF08CC080F08DC081F03D
:103168008EC082F0D6EC1BF0000E566E000E556E27
:10317800CBEF18F08BC005F08CC006F0FF0E076E81
:1031880076EC1AF000018B4B8C2B554A562A00011D
:103198008D51555C8E515658D8A0D5EF18F0D7EF01
:1031A80018F0BEEF18F01200056E0001BE51D8B439
:1031B800E0EF18F0E2EF18F0D9EF18F00E01C5B9FA
:1031C800E8EF18F0EAEF18F0EEEF18F005C09AFFF4
:1031D80004EF19F0C5997F0E0001B625D96EDA6A99
:1031E800010EDA2205C0DFFFB62B0F0EB665FFEF22
:1031F80018F001EF19F003EF19F0000EB66FBE07D3
:103208000E01C58912009F0E0D6EFF0E0E6E0BC0CB
:103218000FF00CC010F00D500F260E501022105059
:103228000AE11A0E0F5CD8A01CEF19F01FEF19F075
:10323800010E20EF19F0000E116E126A11501210D3
:10324800D8B429EF19F02BEF19F031EF19F05F0E10
:103258000B140B6E0C6A35EF19F00BC00BF00CC099
:103268000CF012000001B851D8B43DEF19F03FEF4F
:1032780019F036EF19F08F0EB925D96EDA6A010EFA
:10328800DA22DF50B76F970EB925D96EDA6A010EC8
:10329800DA22DF50056EB92B070EB96556EF19F023
:1032A80058EF19F05AEF19F0000EB96F0E01C59FCB
:1032B8000001B8070E01C58F055012000001B35177
:1032C800D8B469EF19F06BEF19F062EF19F0000E3E
:1032D800B425D96EDA6A030EDA22DF50B26F640EB3
:1032E800B425D96EDA6A040EDA22DF50056EB42BE3
:1032F800630EB46582EF19F084EF19F086EF19F0C8
:10330800000EB46F0E01C59B0001B3070E01C58BFB
:1033180005501200010E0B6E200E05180610D8B4C9
:1033280098EF19F09AEF19F0B3EF19F0F70E076E4E
:10333800FF0E086E05C009F006C00AF007500926FE
:1033480008500A220A5009E1050E095CD8A0AFEF1F
:1033580019F0B1EF19F0B3EF19F0000E0B6E0BC0B6
:1033680005F0066A120005C007F006C008F0BFEFB6
:1033780019F0054A062A05C0F6FF06C0F7FF000E39
:10338800F86E0E0EF76403D00800F55005D0F6CF9E
:10339800E9FFF7CFEAFFEF500009D8A4D6EF19F0FC
:1033A800D8EF19F0BDEF19F00750055C056E08500D
:1033B8000658066E1200000E066E000E056E000E10
:1033C800066E000E056ED8900534D96E0634DA6E96
:1033D8003F0ED926010EDA22FF0EDE6EFF0EDD6EDD
:1033E800054A062A06BE02EF1AF0065009E1200E29
:1033F800055CD8A002EF1AF004EF1AF0E7EF19F015
:103408001200000E066E000E056E000E066E000E0F
:10341800056E7C0E0524D96E020E0620DA6EFF0EAC
:10342800DF6E054A062A06BE23EF1AF0065009E1A8
:10343800630E055CD8A023EF1AF025EF1AF00DEF04
:103448001AF0000E0001AE6F000EAD6F1200080EEC
:103458000101ED6132EF1AF034EF1AF04EEF1AF075
:103468009F0E0001BA25D96EDA6A010EDA22DF5002
:103478000E019A6F0001BA2B070EBA6546EF1AF0D3
:1034880048EF1AF04AEF1AF0000EBA6F0101ED2B5F
:1034980050EF1AF00E01C59D1200000E076E000EC7
:1034A800066E000E076E000E066E65EF1AF0000E2F
:1034B8000624D96E040E0720DA6EFF0EDF6E064A68
:1034C800072A0001AB51065C0750800A056EAC5113
:1034D800800A0558D8A073EF1AF075EF1AF05BEF61
:1034E8001AF01200000EF2BE010E086E0650030B11
:1034F8007F6E05C07EFF07C080FF3F0E8116818466
:10350800F29E550E826EAA0E826E818281B28FEF74
:103518001AF091EF1AF08AEF1AF0819408B002D0ED
:10352800F29E01D0F28E1200000E166E000E156E7D
:10353800A9EF1AF014C007F0086A12C009F013C006
:103548000AF018EC15F0154A162A15501024D96EF1
:1035580016501120DA6EDF50146E1450D8A4B7EF4D
:103568001AF0B9EF1AF09EEF1AF01200100E0001CF
:10357800BE61C1EF1AF0C3EF1AF0D9EF1AF07F0E4F
:10358800B525D96EDA6A010EDA22DF509A6EB52BAC
:103598000F0EB565D2EF1AF0D4EF1AF0D6EF1AF085
:1035A800000EB56FBE2BDBEF1AF00E01C5991200A5
:1035B80020001F001E001D001C001B001A0019001F
:1035C800180017001600150014001300120011004F
:1035D80010000F000E000D000C000B000A0009007F
:1035E80008000700060005000400030002000100AF
:1035F80018BE09EF1BF0185006E11704D8B007EF02
:103608001BF009EF1BF017EF1BF017C019F018C0DB
:103618001AF0191E1A1E194A1A2A19C017F01AC0C8
:1036280018F01BEF1BF017C017F018C018F01200A5
:103638009F0E076EFF0E086E200E0510096E000E15
:1036480006100A6E0750092608500A220A500AE195
:103658001A0E095CD8A033EF1BF036EF1BF0010EF1
:1036680037EF1BF0000E056E066A12000001B1511B
:10367800D8A441EF1BF043EF1BF04DEF1BF0010EF8
:10368800B16FB10E7D6FFF0E7E6FD6EC1BF055EF5C
:103698001BF0000EB16FA00E7D6FFF0E7E6FD6EC93
:1036A8001BF012009F0E076EFF0E086E05C009F092
:1036B80006C00AF00750092608500A220A500AE1F3
:1036C8001A0E095CD8A06BEF1BF06EEF1BF0010E11
:1036D8006FEF1BF0000E056E066A1200BF0E076E34
:1036E800FF0E086E05C009F006C00AF0075009264B
:1036F80008500A220A500AE11A0E095CD8A087EF7E
:103708001BF08AEF1BF0010E8BEF1BF0000E056E0D
:10371800066A1200D00E076EFF0E086E05C009F08B
:1037280006C00AF00750092608500A220A500AE182
:103738000A0E095CD8A0A3EF1BF0A6EF1BF0010E40
:10374800A7EF1BF0000E056E066A1200970E5A24AA
:10375800D96EDA6A010EDA2299CEDFFF5A2A070EED
:103768005A64B9EF1BF0BBEF1BF0BDEF1BF0000E66
:103778005A6E0001B82B1200640E5924D96EDA6A09
:10378800040EDA2299CFDFFF592A630E5964CFEF6E
:103798001BF0D1EF1BF0D3EF1BF0000E596E0001A8
:1037A800B32B12007F0E0001896F000E8A6F000E86
:1037B800776F000E786F7DC079F07EC07AF0890E41
:1037C8007B6F000E7C6F18EC18F0120013C005F028
:1037D80014C006F0B7EC19F005501324096E065012
:1037E80014200A6E15C00BF016C00CF07AEC18F015
:1037F800120005500702F3CF09F0F4CF0AF0055084
:103808000802F3500A2606500702F3500A2609C098
:1038180005F00AC006F01200000E0E01E16F000E5E
:10382800E26F000EE36F000EE46F000EE56F000E0E
:10383800E66F1200BBEC1CF010EC1CF0AAEC15F0C3
:1038480043EC1CF0F4EC16F035EC16F01200000115
:10385800B851D8A432EF1CF035EF1CF0010E36EF4A
:103868001CF0000E12000650030B7F6E05C07EFF91
:103878003F0E8116818000F000F080501200600E2B
:103888000E01D86F000EDA6F000EDC6F060EDE6FC9
:10389800000EDD6F12000001B351D8A456EF1CF0E2
:1038A80059EF1CF0010E5AEF1CF0000E1200000137
:1038B800BE51D8A462EF1CF065EF1CF0010E66EF54
:1038C8001CF0000E12009EB26CEF1CF06FEF1CF0A3
:1038D800010E70EF1CF0000E120005C0EBF106C0DF
:1038E800ECF1120005C0E9F106C0EAF1120005C0CA
:1038F800E1F106C0E2F1120005C0E3F106C0E4F10F
:10390800120005C0DFF106C0E0F1120005C0E7F1C2
:1039180006C0E8F1120005C0E5F106C0E6F11200A4
:1039280005C0DBF106C0DCF1120005C0DDF106C000
:10393800DEF1120005C0D9F106C0DAF11200066EF8
:1039480006504AEC18F012000E019D999D8912004C
:10395800869083961200868083861200AAEC1BF05C
:1039680012009D989D881200C0EC1BF01200F29A7C
:0A3978001200FF00120012001200FE
:10FB3E00004E616D653A20257320204D424164646C
:10FB4E00726573733A203078253034782020206423
:10FB5E006174616565416464723A20307825303491
:10FB6E00782020204E756D42797465733A20256990
:10FB7E00200D0A000D44616E20616E642053616D8C
:10FB8E002773204D6F64627573204750494F20458F
:10FB9E007870616E73696F6E202D20415030303059
:10FBAE0037303132352D303120526576202D0D0A09
:10FBBE00000D20202030783130202D2057726974AE
:10FBCE0065204D756C7469706C652052656769733C
:10FBDE007465727320284D61782033327820313667
:10FBEE00626974290D0A0A00436C656172696E6759
:10FBFE0020454550524F4D2066726F6D2041646412
:10FC0E00726573733A203078253034782C204E7517
:10FC1E006D2042797465733A202569200D0A0043E0
:10FC2E006F6D706C6574656420416464696E6720E5
:10FC3E007278446174612042756666657220746FD5
:10FC4E00204D6F64627573446174612041727261FC
:10FC5E00790D0A0A000D20202030783033202D2017
:10FC6E0052656164204D756C7469706C65205265C7
:10FC7E006769737465727320284D6178203332780A
:10FC8E00203136626974290D0A00456E7465722042
:10FC9E00636172642073657269616C206E756D624A
:10FCAE00657220286D617820382063686172616307
:10FCBE0074657273293A20000D436F6D70696C651F
:10FCCE0064206F6E20257320617420257320627965
:10FCDE00205843382076657273696F6E2025750D36
:10FCEE000A0A00456E746572206361726420257382
:10FCFE0020286D61782025692063686172616374C4
:10FD0E00657273293A2000637263486967683A2006
:10FD1E0030782530327820206372634C6F773A202A
:10FD2E0030782530327820200D0A000D496E697426
:10FD3E00616C69736174696F6E20436F6D706C6571
:10FD4E007465202D2052656164790D0A0A000D0A32
:10FD5E00456E74657265643A202573200D0A204342
:10FD6E006F6E6669726D2020597C4E3F3A20004DB1
:10FD7E006F646275732044617461204361707475A1
:10FD8E00726520436F6D706C6574653A0D0A004E96
:10FD9E000D0A4E6F7420536176696E67205365723B
:10FDAE0069616C204E756D626572200D0A004545C5
:10FDBE0050524F4D3A2030782530327820416464CD
:10FDCE003A20307825303278200D0A000D0A205660
:10FDDE00616C69646174696E6720436F6D6D616EED
:10FDEE00643A202573200D0A000D46756E63746902
:10FDFE006F6E20436F64657320537570706F7274ED
:10FE0E0065643A0D0A004D6F6444617461436E740B
:10FE1E002073697474696E672061742025690D0AF8
:10FE2E000A00556E737570706F7274656420467536
:10FE3E006E6374696F6E20436F64650D0A00590D11
:10FE4E000A536176696E672053657269616C204E44
:10FE5E00756D626572200D0A004352432064696419
:10FE6E00204E4F5420636865636B206F75742E208F
:10FE7E000D0A0A000D4361726420536572204E6FA5
:10FE8E002E2032313039303032200D0A0043686175
:10FE9E00722030782530327820696E203078253007
:10FEAE003278200D0A0053657269616C204E756DB3
:10FEBE006265722053617665642E200D0A00536FC1
:10FECE006D657468696E6720696E204553554152A1
:10FEDE005431200D0A005265673A2025692044618D
:10FEEE0074613A20307825303478200D0A000D43A5
:10FEFE0061726420416464726573732E20307830B1
:10FF0E0035200D0A002020204279746520256920B5
:10FF1E003A20307825303278200D0A0043524320A3
:10FF2E00436865636B6564204F75742E200D0A0A55
:10FF3E000046756E6374696F6E20436F6465203082
:10FF4E007831300D0A0046756E6374696F6E20430A
:10FF5E006F646520307830330D0A00536176696E18
:10FF6E0067204361726420446174610D0A004D6F15
:10FF7E006462757320526573706F6E73653A0D0A05
:10FF8E00004E756D2043686172733A202569200D0D
:10FF9E000A0044656275672044697361626C65642A
:10FFAE000D0A00446562756720456E61626C65647A
:10FFBE000D0A00557064617465644D423430302012
:10FFCE000D0A004D61722031342032303231003151
:10FFDE00313A35393A34320073657269616C0064B6
:10FFEE0065627567007061727400726576003F001D
:01FFFE000002
:020000040020DA
:10000000FF0FFF0FFF0FFF0FFF0FFF0FFF0FFF0F80
:020000040030CA
:0C000000ECFFFFFF9FFFFFFFFFFFFFFF73
:00000001FF
