:020000040000FA
:0400000093EF00F08A
:100008005A82FACF01F0FBCF02F0D9CF03F0DACF52
:1000180004F0F2AC12EF00F014EF00F089EF00F0FA
:100028000E01C5AD1AEF00F01CEF00F032EF00F042
:10003800CDAD21EF00F023EF00F032EF00F002D851
:1000480030EF00F00500FA6E0001F151FD6EF2513B
:10005800FE6EFF6AFA50120089EF00F0C5AF37EF65
:1000680000F039EF00F04FEF00F0CDAF3EEF00F0B9
:1000780040EF00F04FEF00F002D84DEF00F0050020
:10008800FA6E0001EF51FD6EF051FE6EFF6AFA50F4
:10009800120089EF00F0C5A954EF00F056EF00F008
:1000A8006CEF00F0CDA95BEF00F05DEF00F06CEFB6
:1000B80000F002D86AEF00F00500FA6E0001ED5179
:1000C800FD6EEE51FE6EFF6AFA50120089EF00F0E5
:1000D800C5AB71EF00F073EF00F089EF00F0CDAB26
:1000E80078EF00F07AEF00F089EF00F002D887EFA0
:1000F80000F00500FA6E0001EB51FD6EEC51FE6E4A
:10010800FF6AFA50120089EF00F004C0DAFF03C05A
:10011800D9FF02C0FBFF01C0FAFF5A921100DBEFC2
:100128000FF04BC0D9FF4CC0DAFFDECFF6FFDDCFB2
:10013800F7FFF86A0800F550250AD8A4A6EF00F0E2
:10014800A8EF00F03DEF03F04BC0D9FF4CC0DAFF39
:10015800DE2A000EDD22000E00018B6F000E8A6F72
:100168008AC056F08BC057F08C698D69000EAF6F4E
:10017800000EAE6F07EF01F056804BC0D9FF4CC0A0
:10018800DAFFDE2A000EDD2207EF01F05682C1EF0A
:1001980000F05684C1EF00F05686C1EF00F0568893
:1001A800C1EF00F0000EAF6F010EAE6F07EF01F068
:1001B8004BC0D9FF4CC0DAFFDECFF6FFDDCFF7FF2B
:1001C800F86A0800F5504F6E506A5050000AD8B4CB
:1001D800F0EF00F0D6EF00F04F50200AD8B4D0EF7F
:1001E80000F0030AD8B4D3EF00F0080AD8B4CDEF72
:1001F80000F0060AD8B4C0EF00F01D0AD8B4CAEF60
:1002080000F0D6EF00F0AE51AF11D8B40EEF01F008
:1002180010EF01F0DCEF00F056A015EF01F017EF3A
:1002280001F018EF01F056924BC0D9FF4CC0DAFF2D
:10023800DECFF6FFDDCFF7FFF86A0800F5502A0A8F
:10024800D8A429EF01F02BEF01F054EF01F04BC0D7
:10025800D9FF4CC0DAFFDE2A000EDD224DC0D9FFDF
:100268004EC0DAFFDFCF4FF0020EDE26DFCF50F0B0
:10027800000EDD224FC0D9FF50C0DAFFDECF8AF072
:10028800DDCF8BF08BBF4DEF01F04BEF01F099EF15
:1002980001F056808A6D8B1FD8B08B2B99EF01F037
:1002A8004BC0D9FF4CC0DAFFDECF0CF0DDCF0DF02C
:1002B80003EC08F00CC08AF00DC08BF06BEF01F076
:1002C8004BC0D9FF4CC0DAFFDE2A000EDD22D00E6B
:1002D8004F6EFF0E506E4BC0D9FF4CC0DAFFDECF19
:1002E800F6FFDDCFF7FFF86A0800F550516E526A45
:1002F8004F5051265050522252500AE10A0E515C7A
:10030800D8A089EF01F08CEF01F0010E8DEF01F01C
:10031800000E0001B06FB16BB051B111D8A497EFC6
:1003280001F099EF01F064EF01F04BC0D9FF4CC028
:10033800DAFFDECFF6FFDDCFF7FFF86A0800F550E9
:10034800640AD8B4AAEF01F0ACEF01F0BFEF01F0F6
:100358004BC0D9FF4CC0DAFFDECFF6FFDDCFF7FF89
:10036800F86A0800F550690AD8A4BDEF01F0BFEF9C
:1003780001F0FFEF01F04BC0D9FF4CC0DAFFDE2AD5
:10038800000EDD224DC0D9FF4EC0DAFFDFCF4FF09F
:10039800020EDE26DFCF50F0000EDD224FC0D9FF5F
:1003A80050C0DAFFDECFA3F0DDCFA4F0000EA4BF6B
:1003B800FF0EA56FA66FA76FA86FA96FAA6F49C098
:1003C80022F04AC023F0A3C024F0A4C025F0A5C0A1
:1003D80026F0A6C027F0A7C028F0A8C029F0A9C019
:1003E8002AF0AAC02BF05AEC03F022C049F023C02F
:1003F8004AF059EF03F04BC0D9FF4CC0DAFFDECF0B
:10040800F6FFDDCFF7FFF86A0800F550730AD8A4A5
:1004180010EF02F012EF02F03DEF02F04BC0D9FFEF
:100428004CC0DAFFDE2A000EDD224DC0D9FF4EC0D7
:10043800DAFFDFCF4FF0020EDE26DFCF50F0000EDE
:10044800DD224FC0D9FF50C0DAFFDECFABF0DDCFE1
:10045800ACF049C010F04AC011F0ABC012F0ACC00B
:1004680013F036EC07F010C049F011C04AF059EF0C
:1004780003F04BC0D9FF4CC0DAFFDECFF6FFDDCF6B
:10048800F7FFF86A0800F550750AD8A44EEF02F095
:1004980050EF02F091EF02F04BC0D9FF4CC0DAFFE9
:1004A800DE2A000EDD224DC0D9FF4EC0DAFFDFCFB5
:1004B8004FF0020EDE26DFCF50F0000EDD224FC0D7
:1004C800D9FF50C0DAFFDECF51F0DDCF52F051C076
:1004D800B2F052C0B3F0B46BB56BB66BB76BB86B18
:1004E800B96B49C022F04AC023F0B2C024F0B3C0AF
:1004F80025F0B4C026F0B5C027F0B6C028F0B7C0C4
:1005080029F0B8C02AF0B9C02BF035EC06F022C0AB
:1005180049F023C04AF059EF03F04BC0D9FF4CC053
:10052800DAFFDECFF6FFDDCFF7FFF86A0800F550F7
:10053800780AD8B4A2EF02F0A4EF02F0B7EF02F005
:100548004BC0D9FF4CC0DAFFDECFF6FFDDCFF7FF97
:10055800F86A0800F550580AD8A4B5EF02F0B7EFCA
:1005680002F006EF03F04BC0D9FF4CC0DAFFDECF34
:10057800F6FFDDCFF7FFF86A0800F5CFADF04BC006
:10058800D9FF4CC0DAFFDE2A000EDD224DC0D9FFAC
:100598004EC0DAFFDFCF4FF0020EDE26DFCF50F07D
:1005A800000EDD224FC0D9FF50C0DAFFDECF51F078
:1005B800DDCF52F051C0B2F052C0B3F0B46BB56B9E
:1005C800B66BB76BB86BB96B49C022F04AC023F061
:1005D800B2C024F0B3C025F0B4C026F0B5C027F0EF
:1005E800B6C028F0B7C029F0B8C02AF0B9C02BF0BF
:1005F800ADC02CF0CAEC04F022C049F023C04AF088
:1006080059EF03F04BC0D9FF4CC0DAFFDECFF6FF3D
:10061800DDCFF7FFF86A0800F550250AD8A417EFD0
:1006280003F019EF03F030EF03F04BC0D9FF4CC0D3
:10063800DAFFDE2A000EDD22000E086E250E076E98
:1006480049C009F04AC00AF049EC0FF0000E4A6EA2
:10065800010E496E59EF03F04BC0D9FF4CC0DAFFC9
:10066800DE2A000EDD22000E4A6E000E496E59EF9A
:1006780003F04BC0D9FF4CC0DAFFDECFF6FFDDCF69
:10068800F7FFF86A0800F550076E086A49C009F0D4
:100698004AC00AF049EC0FF04BC0D9FF4CC0DAFF52
:1006A800DE2A000EDD222AEF03F0120024C03CF0FF
:1006B80025C03DF026C03EF027C03FF028C040F0DE
:1006C80029C041F02AC042F02BC043F043BE6FEF6F
:1006D80003F072EF03F0010E73EF03F0000E3A6EB1
:1006E8003B6A3A503B10D8B47CEF03F07EEF03F03E
:1006F8008EEF03F0431E421E411E401E3F1E3E1E4B
:100708003D1E3C6C000E3D223E223F2240224122EB
:100718004222432200018DBF94EF03F096EF03F0CD
:1007280097EF03F056928DBFA4EF03F08D5106E1C9
:100738008C05D8B0A2EF03F0A4EF03F0AAEF03F002
:10074800000E376E010E366EAEEF03F08CC036F039
:100758008DC037F08AC038F08BC039F03A503B1062
:10076800D8A4B9EF03F0BBEF03F0C2EF03F056A42F
:10077800C0EF03F0C2EF03F0C5EF03F03806D8A0CE
:100788003906000E456E1F0E446E000E0101A36F60
:100798004AEF04F04406D8A04506840E4424D96ED6
:1007A800010E4520DA6E3CC005F03DC006F03EC0A3
:1007B80007F03FC008F040C009F041C00AF042C04D
:1007C8000BF043C00CF00A0E0D6E000E0E6E000EFC
:1007D8000F6E000E106E000E116E000E126E000EDF
:1007E800136E000E146E50EC0AF005C02CF006C013
:1007F8002DF007C02EF008C02FF009C030F00AC055
:1008080031F00BC032F00CC033F02CC017F02EC002
:1008180018F096EC13F01750300FDF6E3606D8A09C
:1008280037063806D8A039063CC005F03DC006F0AA
:100838003EC007F03FC008F040C009F041C00AF0D0
:1008480042C00BF043C00CF00A0E0D6E000E0E6E87
:10085800000E0F6E000E106E000E116E000E126E5E
:10086800000E136E000E146ED0EC08F005C03CF0BC
:1008780006C03DF007C03EF008C03FF009C040F098
:100888000AC041F00BC042F00CC043F045BE55EF22
:1008980004F0455008E14404D8A055EF04F057EFA0
:1008A80004F087EF04F03C503D103E103F1040101C
:1008B800411042104310D8A464EF04F066EF04F02E
:1008C800CEEF03F037BE73EF04F0375006E136047D
:1008D800D8B071EF04F073EF04F0CEEF03F039BE37
:1008E8007EEF04F0395008E13804D8A07EEF04F018
:1008F80080EF04F087EF04F056B285EF04F087EF3D
:1009080004F0CEEF03F03A503B10D8A48EEF04F079
:1009180090EF04F097EF04F056A495EF04F097EFEA
:1009280004F0B5EF04F04406D8A045063A503B1051
:10093800D8A4A1EF04F0A3EF04F0A9EF04F0000E8F
:10094800356E2B0E346EADEF04F0000E356E2D0EA5
:10095800346E840E4424D96E010E4520DA6E34C0FC
:10096800DFFF22C017F023C018F0840E4424196E4C
:10097800010E45201A6E38C01BF039C01CF07EEC01
:100988000DF017C022F018C023F0120000018DBF2F
:10099800D0EF04F0D2EF04F0D3EF04F056928DBFFD
:1009A800E0EF04F08D5106E18C05D8B0DEEF04F0DD
:1009B800E0EF04F0E6EF04F0000E3A6E010E396E37
:1009C800EAEF04F08CC039F08DC03AF08AC03BF0F1
:1009D8008BC03CF056A8F3EF04F0F5EF04F0F9EF04
:1009E80004F0FE0E3B26FF0E3C2224C03DF025C03D
:1009F8003EF026C03FF027C040F028C041F029C093
:100A080042F02AC043F02BC044F0000E466E1F0E81
:100A1800456E000E0101A36FC5EF05F04506D8A08D
:100A280046060F0E3D14476E486A48BE25EF05F08E
:100A3800485009E10A0E475CD8A025EF05F027EFDA
:100A480005F02FEF05F0570E4724476E000E48209B
:100A5800486E35EF05F0300E4724476E000E4820EB
:100A6800486EBF0E2D6EFF0E2E6E2C502F6E306A04
:100A78002D502F262E50302230500AE11A0E2F5CAE
:100A8800D8A049EF05F04CEF05F0010E4DEF05F049
:100A9800000E356E366A35503610D8B456EF05F06C
:100AA80058EF05F088EF05F09F0E2D6EFF0E2E6EA5
:100AB800200E47102F6E000E4810306E2D502F2636
:100AC8002E50302230500AE11A0E2F5CD8A06FEF5A
:100AD80005F072EF05F0010E73EF05F0000E376EAA
:100AE800386A37503810D8B47CEF05F07EEF05F03F
:100AF80088EF05F047C00BF048C00CF0E7EC11F0A8
:100B08000BC047F00CC048F0840E4524D96E010E86
:100B18004620DA6E47C0DFFF3906D8A03A063B0602
:100B2800D8A03C063DC02DF03EC02EF03FC02FF0AF
:100B380040C030F041C031F042C032F043C033F021
:100B480044C034F0050EB2EF05F0D8903432333299
:100B58003232313230322F322E322D32E82EA9EF96
:100B680005F02DC03DF02EC03EF02FC03FF030C044
:100B780040F031C041F032C042F033C043F034C0DD
:100B880044F046BED1EF05F0465009E1020E455C3F
:100B9800D8A0D1EF05F0D3EF05F003EF06F03D50F4
:100BA8003E103F1040104110421043104410D8A48A
:100BB800E0EF05F0E2EF05F012EF05F03ABEEFEFD7
:100BC80005F03A5006E13904D8B0EDEF05F0EFEF43
:100BD80005F012EF05F03CBEFAEF05F03C5008E1D5
:100BE8003B04D8A0FAEF05F0FCEF05F003EF06F0A0
:100BF80056B201EF06F003EF06F012EF05F056A823
:100C080008EF06F00AEF06F020EF06F04506D8A038
:100C18004606840E4524D96E010E4620DA6E2CC095
:100C2800DFFF4506D8A04606840E4524D96E010E7E
:100C38004620DA6E300EDF6E22C017F023C018F09F
:100C4800840E4524196E010E46201A6E3BC01BF017
:100C58003CC01CF07EEC0DF017C022F018C023F049
:100C6800120000018DBF3BEF06F03DEF06F03EEFAE
:100C780006F056928DBF4BEF06F08D5106E18C05BC
:100C8800D8B049EF06F04BEF06F051EF06F0000E32
:100C9800356E010E346E55EF06F08CC034F08DC001
:100CA80035F08AC036F08BC037F024C038F025C044
:100CB80039F026C03AF027C03BF028C03CF029C0E4
:100CC8003DF02AC03EF02BC03FF0000E416E1F0ED3
:100CD800406E000E0101A36FE8EF06F04006D8A0B1
:100CE8004106840E4024D96E010E4120DA6E38C0C8
:100CF80005F039C006F03AC007F03BC008F03CC028
:100D080009F03DC00AF03EC00BF03FC00CF00A0EDF
:100D18000D6E000E0E6E000E0F6E000E106E000EA1
:100D2800116E000E126E000E136E000E146EB5ECEE
:100D38000CF005C02CF006C02DF007C02EF008C03E
:100D48002FF009C030F00AC031F00BC032F00CC0EF
:100D580033F02C50300FDF6E3406D8A03506360637
:100D6800D8A0370638C005F039C006F03AC007F0F9
:100D78003BC008F03CC009F03DC00AF03EC00BF093
:100D88003FC00CF00A0E0D6E000E0E6E000E0F6EB8
:100D9800000E106E000E116E000E126E000E136E15
:100DA800000E146E3DEC0CF005C038F006C039F0AA
:100DB80007C03AF008C03BF009C03CF00AC03DF05B
:100DC8000BC03EF00CC03FF040504110D8B4EFEFDC
:100DD80006F0F1EF06F021EF07F0385039103A101D
:100DE8003B103C103D103E103F10D8A4FEEF06F01B
:100DF80000EF07F072EF06F035BE0DEF07F0355043
:100E080006E13404D8B00BEF07F00DEF07F072EFEE
:100E180006F037BE18EF07F0375008E13604D8A0BF
:100E280018EF07F01AEF07F021EF07F056B21FEF9F
:100E380007F021EF07F072EF06F022C017F023C089
:100E480018F0840E4024196E010E41201A6E36C027
:100E58001BF037C01CF07EEC0DF017C022F018C054
:100E680023F0120020EEF5F010EE15F0060EDBCFA1
:100E7800E3FFE806FCE212C020F013C021F0205086
:100E88002110D8A44AEF07F04CEF07F050EF07F015
:100E9800150E206E000E216E20C005F021C006F050
:100EA8009AEC12F005C024F006C025F08CC022F0A0
:100EB8008DC023F023BE63EF07F065EF07F07AEFEC
:100EC80007F02450225C2350800A146E2550800AB3
:100ED8001458D8A072EF07F074EF07F076EF07F018
:100EE8007AEF07F022C024F023C025F024C022F0B6
:100EF80025C023F08AC01EF08BC01FF056B087EFC4
:100F080007F089EF07F0A6EF07F097EF07F0000E5C
:100F1800086E200E076E10C009F011C00AF049ECE7
:100F28000FF0244A252A1E50245C2550800A146E8E
:100F38001F50800A1458D8A0A4EF07F0A6EF07F0B6
:100F48008BEF07F0000E1D6E000E1C6ECBEF07F046
:100F580020C0F6FF21C0F7FF000EF86E0E0EF764F2
:100F680003D00800F55005D0F6CFE9FFF7CFEAFF28
:100F7800EF50146E1450076E086A10C009F011C0C3
:100F88000AF049EC0FF0204A212A1C4A1D2A225057
:100F98001C5C1D50800A146E2350800A1458D8A077
:100FA800D8EF07F0DAEF07F0ACEF07F056A0DFEF65
:100FB80007F0E1EF07F0FEEF07F0EFEF07F0000EA4
:100FC800086E200E076E10C009F011C00AF049EC37
:100FD8000FF0244A252A1E50245C2550800A146EDE
:100FE8001F50800A1458D8A0FCEF07F0FEEF07F056
:100FF800E3EF07F024C010F025C011F01200000E36
:101008001A6E000E196E000E136E000E126E0FEFA0
:1010180008F00C4A0D2A010E186E0CC0F6FF0DC020
:10102800F7FFF86A0800F550200AD8B41EEF08F058
:1010380020EF08F03EEF08F0F70E0E6EFF0E0F6E71
:101048000CC0F6FF0DC0F7FFF86A0800F550106EE7
:10105800116A0E5010260F501122115009E1050E89
:10106800105CD8A03AEF08F03CEF08F03EEF08F02B
:10107800000E186E18C014F0156A14501510D8A474
:1010880048EF08F04AEF08F00DEF08F054EF08F0C9
:10109800000E136E010E126E0C4A0D2A8BEF08F02B
:1010A8000CC0F6FF0DC0F7FFF86A0800F5500E6E89
:1010B8000F6A0F50000AD8B464EF08F08BEF08F0FD
:1010C8000E502B0AD8B450EF08F0060AD8B44CEFEB
:1010D80008F08BEF08F019C005F01AC006F0000EF2
:1010E800086E0A0E076E68EC14F00CC0F6FF0DC00F
:1010F800F7FFF86A0800F550055E000E065A300E34
:101108000524196E000E06201A6E50EF08F0D00E56
:101118000E6EFF0E0F6E0CC0F6FF0DC0F7FFF86ADB
:101128000800F550106E116A0E5010260F5011224B
:1011380011500AE10A0E105CD8A0A5EF08F0A8EF3C
:1011480008F0010EA9EF08F0000E166E176A165087
:101158001710D8A4B2EF08F0B4EF08F06FEF08F05A
:1011680012501310D8A4BBEF08F0BDEF08F0CBEF76
:1011780008F019C00EF01AC00FF00E1E0F1E0E4A0E
:101188000F2A0EC00CF00FC00DF0CFEF08F019C0F9
:101198000CF01AC00DF01200000E166E14BED9EF36
:1011A80008F0D7EF08F0EBEF08F0141E131E121E1C
:1011B800111E101E0F1E0E1E0D6C000E0E220F2289
:1011C80010221122122213221422010E166E0CBEB6
:1011D800F2EF08F0F0EF08F004EF09F00C1E0B1E18
:1011E8000A1E091E081E071E061E056C000E062292
:1011F8000722082209220A220B220C22010E161AA3
:1012080020EE17F0070EDE6AE806FDE20D500E101C
:101218000F1010101110121013101410D8B417EF6B
:1012280009F019EF09F06BEF09F0010E156E27EFC1
:1012380009F0D8900D360E360F36103611361236A4
:1012480013361436152A14AE2CEF09F02EEF09F0D8
:101258001DEF09F0D8901736183619361A361B368E
:101268001C361D361E360D50055C0E5006580F50A4
:101278000758105008581150095812500A5813505E
:101288000B5814500C58D8A04CEF09F04EEF09F049
:101298005FEF09F00D50055E0E50065A0F50075AC1
:1012A8001050085A1150095A12500A5A13500B5A22
:1012B80014500C5A1780D89014321332123211324B
:1012C80010320F320E320D32152E2EEF09F0165055
:1012D800D8B471EF09F073EF09F083EF09F01E1E1F
:1012E8001D1E1C1E1B1E1A1E191E181E176C000E12
:1012F800182219221A221B221C221D221E2217C064
:1013080005F018C006F019C007F01AC008F01BC095
:1013180009F01CC00AF01DC00BF01EC00CF0120032
:1013280099EC14F0F28EF28C8398839A839C839EB6
:1013380099EC10F018EC15F0E8EC12F075EC13F0DD
:10134800A8EC0BF0E806D8A4ACEF09F0AEEF09F072
:10135800A4EF09F0D7EC10F0030E01010119D8A48D
:10136800B8EF09F0BAEF09F03EEF0AF0000E0001FD
:10137800916F000E906F00C1A4F101C1A5F10101A8
:101388000551020DF3CFA6F1030E00019025906FD1
:10139800000E9121916F000E936F000E926FF9EF7E
:1013A80009F0FF0EDB6FFF0EDC6FC40EDD6F010E60
:1013B800DE6FDB51DD27DC51DE2301010351000123
:1013C800DD27000EDE239251DD25D96E9351DE21F3
:1013D800DA6EA70E9225E16E010E9321E26EDFCF41
:1013E800E7FF904B912B924B932B01010551020D76
:1013F800F3500001925D9351800ADB6FF450800A2C
:10140800DB59D8A00AEF0AF00CEF0AF0D5EF09F083
:1014180090C005F091C006F09FEC0EF0A70E0001F9
:101428009225D96E010E9321DA6E05C0DFFF90C0B8
:1014380005F091C006F01DEC0DF0A80E00019225F4
:10144800D96E010E9321DA6E05C0DFFF020E9025DA
:10145800906F000E9121916F13EC11F0A40E066E9F
:10146800010E076E90C008F091C009F04FEC11F022
:1014780048EF0AF05B0E0001C06FFF0EC16F01C19B
:10148800C2F0C36B54EC14F0C2EC12F075EC13F01C
:10149800A4EF09F093EF00F0000E166E0CBE59EFA2
:1014A8000AF057EF0AF06BEF0AF00C1E0B1E0A1E2B
:1014B800091E081E071E061E056C000E06220722BE
:1014C800082209220A220B220C22010E166E14BED3
:1014D80072EF0AF070EF0AF082EF0AF0141E131E82
:1014E800121E111E101E0F1E0E1E0D6C000E0E2257
:1014F8000F22102211221222132214220D500E1034
:101508000F1010101110121013101410D8B48FEF00
:101518000AF091EF0AF0D9EF0AF0010E156E9FEF6D
:101528000AF0D8900D360E360F36103611361236B0
:1015380013361436152A14AEA4EF0AF0A6EF0AF0F3
:1015480095EF0AF00D50055C0E5006580F500758DD
:10155800105008581150095812500A5813500B5877
:1015680014500C58D8A0BBEF0AF0BDEF0AF0CDEF2D
:101578000AF00D50055E0E50065A0F50075A1050CB
:10158800085A1150095A12500A5A13500B5A14503B
:101598000C5AD890143213321232113210320F32E0
:1015A8000E320D32152EA6EF0AF01650D8B4DFEF22
:1015B8000AF0E1EF0AF0F1EF0AF00C1E0B1E0A1E0A
:1015C800091E081E071E061E056C000E06220722AD
:1015D800082209220A220B220C2205C005F006C0A7
:1015E80006F007C007F008C008F009C009F00AC0F3
:1015F8000AF00BC00BF00CC00CF012000001D76908
:10160800D869000ED46F000ED36F000ED66F000E8F
:10161800D56F000EDA6F000ED96F42EF0BF0000E97
:10162800D925D96E010EDA21DA6EDF50CC6FCC5194
:10163800D71B000ED66F080ED56FD7A126EF0BF07B
:1016480028EF0BF031EF0BF0D890D833D733010ED9
:10165800D71BA00ED81B34EF0BF0D890D833D73354
:10166800D507D8A0D607D551D611D8A43EEF0BF090
:1016780040EF0BF021EF0BF0D94BDA2BFE0ECC6FBD
:10168800FF0ECD6F94C0CEF095C0CFF0CC51CE27D1
:10169800CD51CF23CE51D95DDA51800AD06FCF51C9
:1016A800800AD059D8A05BEF0BF05DEF0BF013EF79
:1016B8000BF0D751D16FD26BD7C0CCF0D8C0CDF0DA
:1016C800CDC0CCF0CD6BCC51D36FD46BD70EC06FDF
:1016D800FE0EC16FD1C0C2F0D2C0C3F0D3C0C4F0F7
:1016E800D4C0C5F054EC14F0000E0001D925D96E11
:1016F800010EDA21DA6EDF50CC6FCD6BD151CC19E7
:1017080007E1D251CD19D8A48CEF0BF08EEF0BF076
:10171800A6EF0BF0010ED925D96E010EDA21DA6E8B
:10172800DF50CC6FCD6BD351CC1907E1D451CD1913
:10173800D8A4A1EF0BF0A3EF0BF0A6EF0BF0010E6E
:10174800A7EF0BF0000E120018EC15F0BEEC14F029
:101758000009D8B4B2EF0BF0B4EF0BF03BEF0CF08C
:10176800BEEC14F00009D8B4BCEF0BF0BEEF0BF0E0
:10177800DBEF0BF0CEEF0BF045EC12F0556E000EE0
:1017880000018E25D96E030E8F21DA6E55C0DFFF5A
:101798008E4B8F2BBEEC14F00009D8A4D6EF0BF0BB
:1017A800D8EF0BF0C0EF0BF0010E0001976F0001AE
:1017B8009705D8A4E2EF0BF0E4EF0BF000EF0CF084
:1017C800F9EC0EF0E8EC12F0000E0001976F000E35
:1017D8008F6F000E8E6F83B8F4EF0BF0F7EF0BF0FE
:1017E800010EF8EF0BF0000EFF0A556E553A8350C4
:1017F8005518EF0B5518836EFC51941907E1FD51EC
:101808009519D8A40AEF0CF00CEF0CF0B4EF0BF01C
:1018180083BA11EF0CF014EF0CF0010E15EF0CF079
:10182800000EFF0A556E553A554683505518DF0B82
:101838005518836E02EC0BF0E806D8A426EF0CF0DE
:1018480028EF0CF031EF0CF0C20E0001C06FFF0E54
:10185800C16F54EC14F038EF0CF0770E0001C06F34
:10186800FF0EC16F54EC14F0010E3CEF0CF0000EAB
:10187800120020EE15F0070EDE6AE806FDE20D50B4
:101888000E100F1010101110121013101410D8B4DD
:1018980050EF0CF052EF0CF0A4EF0CF0010E1D6E9F
:1018A80060EF0CF0D8900D360E360F361036113624
:1018B8001236133614361D2A14AE65EF0CF067EF96
:1018C8000CF056EF0CF0D890153616361736183639
:1018D80019361A361B361C360D50055C0E50065844
:1018E8000F500758105008581150095812500A58EC
:1018F80013500B5814500C58D8A085EF0CF087EFF4
:101908000CF098EF0CF00D50055E0E50065A0F5073
:10191800075A1050085A1150095A12500A5A1350AF
:101928000B5A14500C5A1580D890143213321232B4
:10193800113210320F320E320D321D2E67EF0CF0BD
:1019480015C005F016C006F017C007F018C008F05B
:1019580019C009F01AC00AF01BC00BF01CC00CF02B
:1019680012000D500E100F1010101110121013103D
:101978001410D8B4C2EF0CF0C4EF0CF00CEF0DF05B
:10198800010E156ED2EF0CF0D8900D360E360F36CC
:1019980010361136123613361436152A14AED7EF10
:1019A8000CF0D9EF0CF0C8EF0CF00D50055C0E50A0
:1019B80006580F500758105008581150095812501F
:1019C8000A5813500B5814500C58D8A0EEEF0CF0CE
:1019D800F0EF0CF000EF0DF00D50055E0E50065ABA
:1019E8000F50075A1050085A1150095A12500A5AE3
:1019F80013500B5A14500C5AD89014321332123216
:101A0800113210320F320E320D32152ED9EF0CF082
:101A180005C005F006C006F007C007F008C008F0CA
:101A280009C009F00AC00AF00BC00BF00CC00CF09A
:101A3800120011681268000E0C6E000E0B6E000E7C
:101A4800106E000E0F6E000E0E6E000E0D6E5CEF27
:101A58000DF0A40E0D24D96E010E0E20DA6EDF50A3
:101A6800076E0750111A000E106E080E0F6E11A0A7
:101A780040EF0DF042EF0DF04BEF0DF0D890123221
:101A88001132010E111AA00E121A4EEF0DF0D89055
:101A9800123211320F06D8A010060F501010D8A419
:101AA80058EF0DF05AEF0DF03BEF0DF00D4A0E2AEE
:101AB80005500D5C0E50800A076E0650800A0758C4
:101AC800D8A069EF0DF06BEF0DF02DEF0DF011C000
:101AD80007F012C008F008C007F0086A07500B6E3C
:101AE8000C6A0BC011F00CC012F011C005F012C046
:101AF80006F0120056A083EF0DF085EF0DF08FEF82
:101B08000DF019C010F01AC011F017C012F018C06B
:101B180013F031EC13F01CBE94EF0DF096EF0DF0BE
:101B28009CEF0DF01BC020F01CC021F0A0EF0DF0C1
:101B3800000E216E000E206E000E1F6E000E1E6E2F
:101B4800B2EF0DF0000E086E200E076E17C009F0F8
:101B580018C00AF049EC0FF01E4A1F2A20501E5CDC
:101B68001F50800A1D6E2150800A1D58D8A0BFEF53
:101B78000DF0C1EF0DF0A6EF0DF056B0C6EF0DF069
:101B8800C8EF0DF0D2EF0DF019C010F01AC011F027
:101B980017C012F018C013F031EC13F019C005F09B
:101BA8001AC006F09AEC12F020500524176E215046
:101BB8000620186E1200700E5924D96EDA6A000ECB
:101BC800DA22000EDF6E0E019DA5EDEF0DF0EFEFAE
:101BD8000DF003EF0EF0700E5924D96EDA6A000E7C
:101BE800DA220001DF8202D803EF0EF00500FA6E58
:101BF800E951FD6EEA51FE6EFF6AFA5012000E01BD
:101C08009DA309EF0EF00BEF0EF01FEF0EF0700E14
:101C18005924D96EDA6A000EDA220001DF8402D86C
:101C28001FEF0EF00500FA6EE751FD6EE851FE6EEB
:101C3800FF6AFA501200700E5924D96EDA6A000E43
:101C4800DA22DF50D8B42BEF0EF02DEF0EF03CEF78
:101C58000EF002D83AEF0EF00500FA6E0001E551D9
:101C6800FD6EE651FE6EFF6AFA5012003EEF0EF06E
:101C780028EC14F01200000E5824D96EDA6A020E0D
:101C8800DA22000EDF6E9DA44CEF0EF04EEF0EF040
:101C980063EF0EF0000E5824D96EDA6A020EDA22CB
:101CA8000201DF8202D863EF0EF00500FA6E000130
:101CB800E351FD6EE451FE6EFF6AFA5012009DA2D8
:101CC80068EF0EF06AEF0EF07FEF0EF0000E58246A
:101CD800D96EDA6A020EDA220201DF8402D87FEFB7
:101CE8000EF00500FA6E0001E151FD6EE251FE6E44
:101CF800FF6AFA501200000E5824D96EDA6A020EF2
:101D0800DA22DF50D8B48BEF0EF08DEF0EF09CEF97
:101D18000EF002D89AEF0EF00500FA6E0001DF51BE
:101D2800FD6EE051FE6EFF6AFA5012009EEF0EF053
:101D38003EEC14F0120010681168000E096E000ED7
:101D4800086E000E0F6E000E0E6E000E0D6E000E69
:101D58000C6EDEEF0EF0A40E0C24D96E010E0D20D1
:101D6800DA6EDF50076E0750101A000E0F6E080E5D
:101D78000E6E10A0C2EF0EF0C4EF0EF0CDEF0EF015
:101D8800D89011321032010E101AA00E111AD0EF8D
:101D98000EF0D890113210320E06D8A00F060E5051
:101DA8000F10D8A4DAEF0EF0DCEF0EF0BDEF0EF056
:101DB8000C4A0D2A05500C5C0D50800A076E06501F
:101DC800800A0758D8A0EBEF0EF0EDEF0EF0AFEF5A
:101DD8000EF010500A6E0B6A0AC010F00BC011F01A
:101DE80010C005F011C006F01200000E076E000EBC
:101DF800066E000E076E000E066E15EF0FF0000E51
:101E08000624D96E030E0720DA6E000E9425E16EC3
:101E1800010E9521E26EDFCFE7FF944B952B064A22
:101E2800072A00018E51065C0750800A056E8F5103
:101E3800800A0558D8A023EF0FF025EF0FF003EF25
:101E48000FF00F0E01010119D8A42DEF0FF02FEF9D
:101E58000FF038EF0FF0090E06250001FC6FFD6B3F
:101E6800000EFD2348EF0FF0100E0119D8A43FEF24
:101E78000FF041EF0FF043EF0FF02FEF0FF0000ED0
:101E88000001FD6F080EFC6F120009500A10D8B44B
:101E980050EF0FF052EF0FF05BEF0FF009500A1000
:101EA800D8A459EF0FF05BEF0FF060EF0FF0075079
:101EB8000CEC15F093EF0FF020EE04F00950D92642
:101EC8000A50DA22DE50DE10D8B46DEF0FF06FEF53
:101ED8000FF08AEF0FF020EE04F00950D9260A50CF
:101EE800DA2210EE02F00950E1260A50E222DE5012
:101EF800E65CE650800A0F6EDE50800A0F58D8B0B4
:101F080088EF0FF08AEF0FF093EF0FF020EE02F05A
:101F18000950D9260A50DA22DE2A000EDD221200E4
:101F2800000E876E000E866E000E836E000E846EA5
:101F3800000E856E070E8C6E070E886EBF0E896EBA
:101F4800BF0E8A6EFE0E8B6E0F0126693B0E216F47
:101F5800370E196F070E2E6F1169000E256F000ED0
:101F68002D6F000E186F000E106F000E206F000E00
:101F78002C6F000E0F6F000E176F000E1F6F000EF4
:101F8800246F0E6916691E692369070E2B6F0D6988
:101F980015691D6922690F0E2A6F170E0E01B56F9C
:101FA8000B0EF56F090EFD6F0F0E8D6F1200F60EFA
:101FB800F66E280EF76E000EF86E01EEC4F010EE05
:101FC80020F00900F5CFEEFFE550E150FAE1A80E48
:101FD800F66E290EF76E000EF86E00EEF5F010EEB4
:101FE8000BF00900F5CFEEFFE550E150FAE103EE02
:101FF80000F0640EEE6AE806FDE102EE00F0C80E9D
:10200800EE6AE806FDE101EE00F0C40EEE6AE806AD
:10201800FDE100EE60F0430EEE6AE806FDE1596A64
:10202800586A576A566A5A905A92000194EF09F012
:102038000E01C59FBE0E056E1B0E066EDFEC14F07A
:102048000E01C59D1A0E056E260E066EDAEC14F00A
:10205800080E0E019F6F900E9D6F240E9E6F400E0E
:102068009B6F030E9C6F4C0E056E2A0E066EE9ECF4
:1020780014F0220E056E2A0E066EE4EC14F0360EED
:10208800056E2A0E066EEEEC14F0000E00019E6F2F
:10209800000EA26F000EA16F080EF46F000E596EAD
:1020A800000EA06F000E9F6F0E01C58F12000E016B
:1020B800C59B7E0E056E1C0E066EF8EC14F00E0124
:1020C800C599A60E056E260E066EF3EC14F0080EE2
:1020D8009F6E900E9D6E240E9E6E400E9B6E030E9C
:1020E8009C6E4E0E056E2A0E066E02EC15F03C0E26
:1020F800056E2A0E066EFDEC14F0420E056E2A0ED1
:10210800066E07EC15F0000E0001996F000E9D6F2A
:10211800000E9C6F100EF36F000E586E000E9B6F32
:10212800000E9A6F0E01C58B1200070E0001C06FDA
:10213800FE0EC16F54EC14F0920E0001C06FFF0E3A
:10214800C16F54EC14F0AC0E0001C06FFE0EC16FED
:10215800EA0EC26FFF0EC36FF60EC46FFF0EC56F97
:10216800080EC76F340EC66F54EC14F03E0E000113
:10217800C06FFF0EC16F54EC14F0770E0001C06FF2
:10218800FE0EC16F54EC14F0400E0001C06FFE0E3D
:10219800C16F54EC14F0FB0E0001C06FFE0EC16F4E
:1021A80054EC14F012001E0E0001C06FFF0EC16F38
:1021B80054EC14F0000E0001CD6F000ECC6FFDEF53
:1021C80010F0AB0EC06FFF0EC16FCCC0C2F0CDC017
:1021D800C3F0000ECC25D96E010ECD21DA6EDF508A
:1021E800556E5550C46FC56B54EC14F00001CC4BC0
:1021F800CD2B9451CC5DCD51800A556E9551800AF6
:102208005558D8A00AEF11F00CEF11F0E5EF10F0D7
:10221800D30EC06FFF0EC16F54EC14F01200D70E2E
:102228000001C06FFF0EC16F54EC14F0000E0001E6
:10223800CD6F000ECC6F39EF11F0AB0EC06FFF0EF3
:10224800C16FCCC0C2F0CDC0C3F0A40ECC25D96EEE
:10225800010ECD21DA6EDF50556E5550C46FC56B37
:1022680054EC14F00001CC4BCD2B9051CC5DCD51EA
:10227800800A556E9151800A5558D8A046EF11F042
:1022880048EF11F021EF11F0D30EC06FFF0EC16FB0
:1022980054EC14F0120015EC15F0A6EC14F000093B
:1022A800D8B459EF11F05BEF11F051EF11F0000EB7
:1022B8000C6E000E0B6E76EF11F00B500624D96EE3
:1022C8000C500720DA6EDF50B8EC11F0CAEC14F0AD
:1022D8000009D8B472EF11F074EF11F06AEF11F041
:1022E8000B4A0C2A08500B5C0C50800A0A6E0950E5
:1022F800800A0A58D8A083EF11F085EF11F061EF3A
:1023080011F01200BCC053F0BDC054F0000E000123
:10231800896F000E886FA4EF11F0BAC049F0BBC0F6
:102328004AF0530E4B6E000E4C6EBEC04DF0BFC04F
:102338004EF095EC00F04950000188274A50892357
:1023480053C0F6FF54C0F7FFF86A0800F5500009BB
:10235800D8A4B1EF11F0B3EF11F091EF11F088C0EC
:10236800BAF089C0BBF01200056E0001F351D8B471
:10237800C0EF11F0C2EF11F0B9EF11F00E01C5B9BD
:10238800C8EF11F0CAEF11F0CEEF11F005C09AFFB7
:10239800E4EF11F0C599600E00019D25D96EDA6A47
:1023A800000EDA2205C0DFFF9D2B0F0E9D65DFEFC3
:1023B80011F0E1EF11F0E3EF11F0000E9D6FF3075C
:1023C8000E01C58912009F0E0D6EFF0E0E6E0BC01A
:1023D8000FF00CC010F00D500F260E5010221050A8
:1023E8000AE11A0E0F5CD8A0FCEF11F0FFEF11F014
:1023F800010E00EF12F0000E116E126A1150121049
:10240800D8B409EF12F00BEF12F011EF12F05F0ED3
:102418000B140B6E0C6A15EF12F00BC00BF00CC00E
:102428000CF01200056E0001F451D8B41EEF12F042
:1024380020EF12F017EF12F00E01C5BD26EF12F0D3
:1024480028EF12F02CEF12F005C09AFE42EF12F0BE
:10245800C59D800E0001A225D96EDA6A000EDA2227
:1024680005C0DFFFA22B070EA2653DEF12F03FEF7C
:1024780012F041EF12F0000EA26FF4070E01C58DA5
:10248800120000019A51D8B44CEF12F04EEF12F03E
:1024980045EF12F0000E9B25D96EDA6A020EDA2299
:1024A800DF50996F640E9B25D96EDA6A020EDA2224
:1024B800DF50056E9B2B630E9B6565EF12F067EF8F
:1024C80012F069EF12F0000E9B6F0E01C59B000120
:1024D8009A070E01C58B05501200010E0B6E200ED7
:1024E80005180610D8B47BEF12F07DEF12F096EFC6
:1024F80012F0F70E076EFF0E086E05C009F006C051
:102508000AF00750092608500A220A5009E1050E68
:10251800095CD8A092EF12F094EF12F096EF12F047
:10252800000E0B6E0BC005F0066A120005C007F01E
:1025380006C008F0A2EF12F0054A062A05C0F6FF09
:1025480006C0F7FF000EF86E0E0EF76403D0080001
:10255800F55005D0F6CFE9FFF7CFEAFFEF500009B5
:10256800D8A4B9EF12F0BBEF12F0A0EF12F00750A9
:10257800055C056E08500658066E1200000E066EC1
:10258800000E056E000E066E000E056E000E052488
:10259800D96E010E0620DA6EFF0EDF6E054A062A96
:1025A80006BEE0EF12F0065009E1630E055CD8A004
:1025B800E0EF12F0E2EF12F0CAEF12F0000E0001A5
:1025C800956F000E946F1200000E076E000E066ED7
:1025D800000E076E000E066EFCEF12F0000E0624C9
:1025E800D96E030E0720DA6EFF0EDF6E064A072A41
:1025F80000018E51065C0750800A056E8F51800AD3
:102608000558D8A00AEF13F00CEF13F0F2EF12F010
:102618001200080E0001F46114EF13F016EF13F026
:102628002EEF13F0800EA125D96EDA6A000EDA2299
:10263800DF500E019A6F0001A12B070EA16527EF4D
:1026480013F029EF13F02BEF13F0000EA16FF42B0A
:1026580030EF13F00E01C59D1200000E166E000E2D
:10266800156E42EF13F014C007F0086A12C009F0A3
:1026780013C00AF049EC0FF0154A162A1550102419
:10268800D96E16501120DA6EDF50146E1450D8A48B
:1026980050EF13F052EF13F037EF13F01200100E53
:1026A8000001F3615AEF13F05CEF13F072EF13F0CF
:1026B800600E9C25D96EDA6A000EDA22DF509A6E17
:1026C8009C2B0F0E9C656BEF13F06DEF13F06FEF03
:1026D80013F0000E9C6FF32B74EF13F00E01C599E5
:1026E8001200000E066E000E056E000E066E000E3D
:1026F800056EA40E0524D96E010E0620DA6EFF0EB3
:10270800DF6E054A062A06BE93EF13F0065009E16C
:10271800200E055CD8A093EF13F095EF13F07DEF32
:1027280013F0120018BEA3EF13F0185006E11704B7
:10273800D8B0A1EF13F0A3EF13F0B1EF13F017C067
:1027480019F018C01AF0191E1A1E194A1A2A19C0A7
:1027580017F01AC018F0B5EF13F017C017F018C02B
:1027680018F012009F0E076EFF0E086E200E05105F
:10277800096E000E06100A6E0750092608500A2234
:102788000A500AE11A0E095CD8A0CDEF13F0D0EF79
:1027980013F0010ED1EF13F0000E056E066A120059
:1027A8009F0E076EFF0E086E05C009F006C00AF0FE
:1027B8000750092608500A220A500AE11A0E095C35
:1027C800D8A0E9EF13F0ECEF13F0010EEDEF13F0E2
:1027D800000E056E066A1200BF0E076EFF0E086E29
:1027E80005C009F006C00AF00750092608500A2259
:1027F8000A500AE11A0E095CD8A005EF14F008EF98
:1028080014F0010E09EF14F0000E056E066A1200AE
:10281800D00E076EFF0E086E05C009F006C00AF05C
:102828000750092608500A220A500AE10A0E095CD4
:10283800D8A021EF14F024EF14F0010E25EF14F0C6
:10284800000E056E066A1200780E5924D96EDA6AEF
:10285800000EDA2299CEDFFF592A070E596437EFA6
:1028680014F039EF14F03BEF14F0000E596E00012C
:102878009F2B1200640E5824D96EDA6A020EDA22EF
:1028880099CFDFFF582A630E58644DEF14F04FEFCD
:1028980014F051EF14F0000E586E00019A2B12003C
:1028A800C20E0001CA6F000ECB6F000EBA6F000E89
:1028B800BB6FC0C0BCF0C1C0BDF0CA0EBE6F000E79
:1028C800BF6F86EC11F0120005500702F3CF09F034
:1028D800F4CF0AF005500802F3500A260650070202
:1028E800F3500A2609C005F00AC006F012000107D5
:1028F800FF0405060708090A0B0C0D0E0F1011122C
:102908001314151617181920212223242526000E22
:102918000E01E16F000EE26F000EE36F000EE46F30
:10292800000EE56F000EE66F120024EC15F08BEC3C
:1029380014F094EC0FF0B2EC14F05BEC10F01CEC1B
:1029480010F012000001F351D8A4ADEF14F0B0EF6D
:1029580014F0010EB1EF14F0000E1200600E0E011B
:10296800D86F000EDA6F000EDC6F060EDE6F000EF9
:10297800DD6F120000019A51D8A4C5EF14F0C8EF1A
:1029880014F0010EC9EF14F0000E12009EB2CFEF42
:1029980014F0D2EF14F0010ED3EF14F0000E120071
:0B29A800286E756C6C29000800FFFF12
:1029B40005C0F1F006C0F2F0120005C0EFF006C049
:1029C400F0F0120005C0E7F006C0E8F0120005C000
:1029D400E9F006C0EAF0120005C0E5F006C0E6F032
:1029E400120005C0EDF006C0EEF0120005C0EBF0D9
:1029F40006C0ECF0120005C0E1F006C0E2F01200DF
:102A040005C0E3F006C0E4F0120005C0DFF006C024
:102A1400E0F01200066E065016EC12F012000E01E1
:102A24009D999D89120086808386120086908396E4
:102A3400120028EC14F012009D989D8812003EECC0
:0C2A440014F01200F29A120012001200AE
:10FE0600000D44616E20616E642053616D2773207E
:10FE16004D6F64627573204750494F204578706175
:10FE26006E73696F6E202D204150303030787878AF
:10FE360078782056302E310D0A000D20202030789B
:10FE46003130202D205772697465204D756C7469A8
:10FE5600706C652052656769737465727320284DEE
:10FE6600617820333278203136626974290D0A0AA6
:10FE7600000D20202030783033202D20526561641B
:10FE8600204D756C7469706C652052656769737472
:10FE960065727320284D61782033327820313662BE
:10FEA6006974290D0A000D436F6D70696C656420D5
:10FEB6006F6E202573206174202573206279205887
:10FEC60043382076657273696F6E2025750D0A0AB0
:10FED60000637263486967683A2030782530327863
:10FEE60020206372634C6F773A2030782530327861
:10FEF60020200D0A000D496E6974616C6973617486
:10FF0600696F6E20436F6D706C657465202D20528D
:10FF1600656164790D0A0A004D6F64627573204449
:10FF2600617461204361707475726520436F6D70F2
:10FF36006C6574653A0D0A000D46756E6374696FDB
:10FF46006E20436F64657320537570706F727465AD
:10FF5600643A0D0A0046756E6374696F6E20436FCE
:10FF660064652069733A20307825303278200D0A8E
:10FF76000043524320646964204E4F5420636865F1
:10FF8600636B206F75742E200D0A0A000D43617293
:10FF96006420536572204E6F2E20787878787878B2
:10FFA60078200D0A002020204279746520256920DA
:10FFB6003A20307825303278200D0A00435243200B
:10FFC600436865636B6564204F75742E200D0A0ABD
:10FFD600004D6F6462757320526573706F6E736542
:10FFE6003A0D0A004D61722020372032303231003E
:0AFFF60031323A31303A3431000064
:020000040020DA
:10000000FF0FFF0FFF0FFF0FFF0FFF0FFF0FFF0F80
:020000040030CA
:0C000000ECFFFFFF9FFFFFFFFFFFFFFF73
:00000001FF
