:020000040000FA
:0400000093EF00F08A
:100008005B82FACF01F0FBCF02F0D9CF03F0DACF51
:1000180004F0F2AC12EF00F014EF00F089EF00F0FA
:100028000E01C5AD1AEF00F01CEF00F032EF00F042
:10003800CDAD21EF00F023EF00F032EF00F002D851
:1000480030EF00F00500FA6E0101EB51FD6EEC5146
:10005800FE6EFF6AFA50120089EF00F0C5AF37EF65
:1000680000F039EF00F04FEF00F0CDAF3EEF00F0B9
:1000780040EF00F04FEF00F002D84DEF00F0050020
:10008800FA6E0101E951FD6EEA51FE6EFF6AFA50FF
:10009800120089EF00F0C5A954EF00F056EF00F008
:1000A8006CEF00F0CDA95BEF00F05DEF00F06CEFB6
:1000B80000F002D86AEF00F00500FA6E0101E7517E
:1000C800FD6EE851FE6EFF6AFA50120089EF00F0EB
:1000D800C5AB71EF00F073EF00F089EF00F0CDAB26
:1000E80078EF00F07AEF00F089EF00F002D887EFA0
:1000F80000F00500FA6E0101E551FD6EE651FE6E55
:10010800FF6AFA50120089EF00F004C0DAFF03C05A
:10011800D9FF02C0FBFF01C0FAFF5B9211003DEF5F
:100128001DF0000E0001976F000ED86F000ED76FFC
:10013800570ED725D96E020ED821DA6E00C1DFFF1F
:10014800D74BD82B570ED725D96E020ED821DA6E89
:1001580001C1DFFFD74BD82B01010551020D570E06
:100168000001D725D96E020ED821DA6EF3CFDFFF52
:10017800D74BD82BC1EF04F0AF0E7D6FFD0E7E6F0D
:10018800EBEC27F0010102510001906F8F6B010128
:10019800055104C191F00001926B91C092F0916BEE
:1001A8009127000E92238F5191279051922301019C
:1001B800035100019127000E922392BFE6EF00F051
:1001C800E8EF00F011EF01F0010102510001906F1A
:1001D8008F6B0101055104C191F00001926B91C030
:1001E80092F0916B9127000E92238F519127905195
:1001F80092230101035100019127000E922392BF1F
:100208000FEF01F0925109E1210E915DD8A00FEF97
:1002180001F011EF01F0ECEF04F03E0E7D6FF70EE8
:100228007E6FEBEC27F0040E00017D6FFD0E7E6FF4
:10023800010102510001906F8F6B01010351000110
:100248008F257F6F0101000E00019021806F010151
:1002580004510001926F916B0101035102C193F0A7
:100268000001946B93C094F0936B9327000E942332
:10027800915193279251942301010551000193252F
:10028800816F0101000E00019421826FEBEC27F0D1
:10029800010E0001976FECEF04F0820E7D6FFE0EE9
:1002A8007E6FEBEC27F0010102510001906F8F6B1C
:1002B8000101055104C191F00001926B91C092F0C7
:1002C800916B9127000E92238F5191279051922381
:1002D8000101035100019127000E922392BF7BEF89
:1002E80001F09205D8A07BEF01F07DEF01F0A6EFB9
:1002F80001F0010102510001906F8F6B010105515E
:1003080004C191F00001926B91C092F0916B91271A
:10031800000E92238F51912790519223010103518E
:1003280000019127000E922392BFA4EF01F0090E5D
:10033800915D010E9259D8A0A4EF01F0A6EF01F04B
:10034800ECEF04F0420E7D6FF80E7E6FEBEC27F0B9
:10035800040E00017D6FFD0E7E6F01010251000148
:10036800906F8F6B0101035100018F257F6F010191
:10037800000E00019021806F010104510001926F6D
:10038800916B0101035102C193F00001946B93C07A
:1003980094F0936B9327000E9423915193279251D5
:1003A80094230101055100019325816F0101000E7D
:1003B80000019421826FEBEC27F04CEF01F0AC0EBA
:1003C8007D6FFE0E7E6FEBEC27F0010102510001FC
:1003D800906F8F6B0101055104C191F00001926B80
:1003E80091C092F0916B9127000E92238F51912723
:1003F800905192230101035100019127000E92238D
:1004080092BF0EEF02F0020E925DD8A00EEF02F03E
:1004180010EF02F038EF02F0010102510001906F75
:100428008F6B0101055104C191F00001926B91C0DD
:1004380092F0916B9127000E92238F519127905142
:1004480092230101035100019127000E922392BFCC
:1004580036EF02F09105020E9259D8A036EF02F05D
:1004680038EF02F0ECEF04F0290E7D6FF90E7E6F85
:10047800EBEC27F0040E00017D6FFD0E7E6F01018D
:1004880002510001906F8F6B0101035100018F250C
:100498007F6F0101000E00019021806F010104515E
:1004A8000001926F916B0101035102C193F00001A9
:1004B800946B93C094F0936B9327000E94239151FF
:1004C8009327925194230101055100019325816FCF
:1004D8000101000E00019421826FEBEC27F04CEF34
:1004E80001F02A0E7D6FFE0E7E6FEBEC27F0010106
:1004F80002510001906F8F6B0101055104C191F009
:100508000001926B91C092F0916B9127000E92239B
:100518008F51912790519223010103510001912796
:10052800000E922392BFA0EF02F0030E925DD8A0B6
:10053800A0EF02F0A2EF02F0CBEF02F001010251AE
:100548000001906F8F6B0101055104C191F000010A
:10055800926B91C092F0916B9127000E92238F516C
:100568009127905192230101035100019127000E18
:10057800922392BFC9EF02F0050E915D030E9259C6
:10058800D8A0C9EF02F0CBEF02F0ECEF04F0DA0EDE
:100598007D6FF70E7E6FEBEC27F0040E00017D6F88
:1005A800FD0E7E6F010102510001906F8F6B0101FA
:1005B800035100018F257F6F0101000E000190217A
:1005C800806F010104510001926F916B0101035189
:1005D80002C193F00001946B93C094F0936B93273E
:1005E800000E9423915193279251942301010551B0
:1005F80000019325816F0101000E00019421826F93
:10060800EBEC27F04CEF01F0E10E7D6FFD0E7E6FF5
:10061800EBEC27F0010102510001906F8F6B010193
:10062800055104C191F00001926B91C092F0916B59
:100638009127000E92238F51912790519223010107
:10064800035100019127000E922392BF33EF03F06C
:10065800040E925DD8A033EF03F035EF03F05EEFA0
:1006680003F0010102510001906F8F6B01010551E8
:1006780004C191F00001926B91C092F0916B9127A7
:10068800000E92238F51912790519223010103511B
:1006980000019127000E922392BF5CEF03F0060E33
:1006A800915D040E9259D8A05CEF03F05EEF03F061
:1006B800ECEF04F00E0E7D6FF80E7E6FEBEC27F07A
:1006C800040E00017D6FFD0E7E6F010102510001D5
:1006D800906F8F6B0101035100018F257F6F01011E
:1006E800000E00019021806F010104510001926FFA
:1006F800916B0101035102C193F00001946B93C007
:1007080094F0936B9327000E942391519327925161
:1007180094230101055100019325816F0101000E09
:1007280000019421826FEBEC27F04CEF01F0C80E2A
:100738007D6FFD0E7E6FEBEC27F001010251000189
:10074800906F8F6B0101055104C191F00001926B0C
:1007580091C092F0916B9127000E92238F519127AF
:10076800905192230101035100019127000E922319
:1007780092BFC6EF03F0050E925DD8A0C6EF03F056
:10078800C8EF03F0F1EF03F0010102510001906F8F
:100798008F6B0101055104C191F00001926B91C06A
:1007A80092F0916B9127000E92238F5191279051CF
:1007B80092230101035100019127000E922392BF59
:1007C800EFEF03F0040E915D050E9259D8A0EFEFFC
:1007D80003F0F1EF03F0ECEF04F0A60E7D6FF70ED7
:1007E8007E6FEBEC27F0040E00017D6FFD0E7E6F2F
:1007F800010102510001906F8F6B0101035100014B
:100808008F257F6F0101000E00019021806F01018B
:1008180004510001926F916B0101035102C193F0E1
:100828000001946B93C094F0936B9327000E94236C
:100838009151932792519423010105510001932569
:10084800816F0101000E00019421826FEBEC27F00B
:100858004CEF01F05C0E7D6FFD0E7E6FEBEC27F028
:10086800010102510001906F8F6B0101055104C114
:1008780091F00001926B91C092F0916B9127000E5C
:1008880092238F5191279051922301010351000126
:100898009127000E922392BF59EF04F0060E925D45
:1008A800D8A059EF04F05BEF04F084EF04F00101E5
:1008B80002510001906F8F6B0101055104C191F045
:1008C8000001926B91C092F0916B9127000E9223D8
:1008D8008F519127905192230101035100019127D3
:1008E800000E922392BF82EF04F0030E915D060E74
:1008F8009259D8A082EF04F084EF04F0ECEF04F0F2
:10090800720E7D6FF70E7E6FEBEC27F0040E000180
:100918007D6FFD0E7E6F010102510001906F8F6B9C
:100928000101035100018F257F6F0101000E0001B5
:100938009021806F010104510001926F916B0101B8
:10094800035102C193F00001946B93C094F0936B30
:100958009327000E942391519327925194230101D8
:10096800055100019325816F0101000E00019421BA
:10097800826FEBEC27F04CEF01F00101025100010E
:100988008F6F906B9051000AD8B4CDEF04F0ECEF64
:1009980004F08F51000AD8B4C0EF00F0010AD8B4AF
:1009A80051EF01F0030AD8B4E3EF01F0010AD8B41B
:1009B80075EF02F0070AD8B408EF03F0010AD8B4BB
:1009C8009BEF03F0030AD8B42EEF04F0ECEF04F029
:1009D8009751D8A4F2EF04F0F4EF04F0DFEF06F03B
:1009E800000E996F000E986F90EF06F0030E01014C
:1009F8000219D8A402EF05F004EF05F035EF05F071
:100A08000351000198258F6F000E9921906FD8909F
:100A18008F379037EA0E8F25D96E000E9021DA6E47
:100A2800DECF91F0DDCF92F09151F66FF76B0101B7
:100A38000351000198258F6F000E9921906FD8906F
:100A48008F379037EA0E8F25D96E000E9021DA6E17
:100A5800DECF91F0DDCF92F09251D56FD66B79EF62
:100A680006F00205D8A43BEF05F03DEF05F06EEF68
:100A780005F00351000198258F6F000E9921906FA2
:100A8800D8908F379037640E8F25D96E010E90213C
:100A9800DA6EDECF91F0DDCF92F09151F66FF76B01
:100AA80001010351000198258F6F000E9921906F65
:100AB800D8908F379037640E8F25D96E010E90210C
:100AC800DA6EDECF91F0DDCF92F09251D56FD66B12
:100AD80079EF06F0020E0219D8A475EF05F077EF4A
:100AE80005F0A8EF05F00351000198258F6F000E5F
:100AF8009921906FD8908F379037FC0E8F25D96E3B
:100B0800000E9021DA6EDECF91F0DDCF92F0915198
:100B1800F66FF76B01010351000198258F6F000EE6
:100B28009921906FD8908F379037FC0E8F25D96E0A
:100B3800000E9021DA6EDECF91F0DDCF92F0925167
:100B4800D56FD66B79EF06F0040E0219D8A4AFEF73
:100B580005F0B1EF05F0E2EF05F00351000198252B
:100B68008F6F000E9921906FD8908F379037720E43
:100B78008F25D96E010E9021DA6EDECF91F0DDCF90
:100B880092F09151F66FF76B01010351000198251E
:100B98008F6F000E9921906FD8908F379037720E13
:100BA8008F25D96E010E9021DA6EDECF91F0DDCF60
:100BB80092F09251D56FD66B79EF06F0050E0219B7
:100BC800D8A4E9EF05F0EBEF05F01CEF06F00351B0
:100BD800000198258F6F000E9921906FD8908F375C
:100BE80090373C0E8F25D96E020E9021DA6EDECF3B
:100BF80091F0DDCF92F09151F66FF76B010103513F
:100C0800000198258F6F000E9921906FD8908F372B
:100C180090373C0E8F25D96E020E9021DA6EDECF0A
:100C280091F0DDCF92F09251D56FD66B79EF06F047
:100C38000251D8A422EF06F024EF06F055EF06F093
:100C48000351000198258F6F000E9921906FD8905D
:100C58008F379037640E8F25D96E040E9021DA6E87
:100C6800DECF91F0DDCF92F09151F66FF76B010175
:100C78000351000198258F6F000E9921906FD8902D
:100C88008F379037640E8F25D96E040E9021DA6E57
:100C9800DECF91F0DDCF92F09251D56FD66B79EF20
:100CA80006F0060E0219D8A45CEF06F05EEF06F017
:100CB80079EF06F0000EA8EC27F005C095F006C005
:100CC80096F0990E00017D6FFF0E7E6F95C07FF044
:100CD80096C080F0EBEC27F000019551F66FF76BAA
:100CE8009651D56FD66B79EF06F0570E0001D725D0
:100CF800D96E020ED821DA6ED5C0DFFFD74BD82BBC
:100D0800570ED725D96E020ED821DA6EF6C0DFFF4E
:100D1800D74BD82B984B992B0101055100018F6FA8
:100D2800906B8F51985D9951800A916F9051800A0C
:100D38009159D8A0A2EF06F0A4EF06F0FAEF04F05C
:100D4800D7C005F0D8C006F0010E076EA0EC1EF063
:100D580005C0D5F006C0D6F0D7C005F0D8C006F05B
:100D6800000E076EA0EC1EF005C0F6F006C0F7F006
:100D7800570E0001D725D96E020ED821DA6ED5C0DC
:100D8800DFFF580ED725D96E020ED821DA6EF6C0CD
:100D9800DFFF020ED725D76F000ED821D86F570E68
:100DA800066E020E076ED7C008F0D8C009F06DECC9
:100DB80023F0E5EF06F0000E156E020E146EA2EC9D
:100DC80020F012004BC0D9FF4CC0DAFFDECFF6FF8F
:100DD800DDCFF7FFF86A0800F550250AD8A4F7EF29
:100DE80006F0F9EF06F08EEF09F04BC0D9FF4CC0C2
:100DF800DAFFDE2A000EDD22000E0001D06F000EA1
:100E0800CF6FCFC057F0D0C058F0D169D269000E6B
:100E18006C6F000E6B6F58EF07F057804BC0D9FF0F
:100E28004CC0DAFFDE2A000EDD2258EF07F05782A9
:100E380012EF07F0578412EF07F0578612EF07F00A
:100E4800578812EF07F0000E6C6F010E6B6F58EFAA
:100E580007F04BC0D9FF4CC0DAFFDECFF6FFDDCF7D
:100E6800F7FFF86A0800F5504F6E506A5050000AB4
:100E7800D8B441EF07F027EF07F04F50200AD8B455
:100E880021EF07F0030AD8B424EF07F0080AD8B412
:100E98001EEF07F0060AD8B411EF07F01D0AD8B400
:100EA8001BEF07F027EF07F06B516C11D8B45FEF19
:100EB80007F061EF07F02DEF07F057A066EF07F096
:100EC80068EF07F069EF07F057924BC0D9FF4CC0A5
:100ED800DAFFDECFF6FFDDCFF7FFF86A0800F5503E
:100EE8002A0AD8A47AEF07F07CEF07F0A5EF07F0FD
:100EF8004BC0D9FF4CC0DAFFDE2A000EDD224DC000
:100F0800D9FF4EC0DAFFDFCF4FF0020EDE26DFCF6B
:100F180050F0000EDD224FC0D9FF50C0DAFFDECFFF
:100F2800CFF0DDCFD0F0D0BF9EEF07F09CEF07F0F9
:100F3800EAEF07F05780CF6DD01FD8B0D02BEAEF7B
:100F480007F04BC0D9FF4CC0DAFFDECF0CF0DDCF85
:100F58000DF056EC18F00CC0CFF00DC0D0F0BCEF7F
:100F680007F04BC0D9FF4CC0DAFFDE2A000EDD22A5
:100F7800D00E4F6EFF0E506E4BC0D9FF4CC0DAFF3B
:100F8800DECFF6FFDDCFF7FFF86A0800F550516EA7
:100F9800526A4F5051265050522252500AE10A0EBE
:100FA800515CD8A0DAEF07F0DDEF07F0010EDEEFB5
:100FB80007F0000E00016D6F6E6B6D516E11D8A4B5
:100FC800E8EF07F0EAEF07F0B5EF07F04BC0D9FFFD
:100FD8004CC0DAFFDECFF6FFDDCFF7FFF86A080076
:100FE800F550640AD8B4FBEF07F0FDEF07F010EFF7
:100FF80008F04BC0D9FF4CC0DAFFDECFF6FFDDCFDB
:10100800F7FFF86A0800F550690AD8A40EEF08F04F
:1010180010EF08F050EF08F04BC0D9FF4CC0DAFFD2
:10102800DE2A000EDD224DC0D9FF4EC0DAFFDFCF29
:101038004FF0020EDE26DFCF50F0000EDD224FC04B
:10104800D9FF50C0DAFFDECF60F0DDCF61F0000ECF
:1010580061BFFF0E626F636F646F656F666F676F66
:1010680049C022F04AC023F060C024F061C025F0D6
:1010780062C026F063C027F064C028F065C029F07C
:1010880066C02AF067C02BF082EC0EF022C049F04F
:1010980023C04AF0AAEF09F04BC0D9FF4CC0DAFFD1
:1010A800DECFF6FFDDCFF7FFF86A0800F550730AC8
:1010B800D8A461EF08F063EF08F08EEF08F04BC09A
:1010C800D9FF4CC0DAFFDE2A000EDD224DC0D9FF61
:1010D8004EC0DAFFDFCF4FF0020EDE26DFCF50F032
:1010E800000EDD224FC0D9FF50C0DAFFDECF68F016
:1010F800DDCF69F049C010F04AC011F068C012F0A5
:1011080069C013F089EC17F010C049F011C04AF01B
:10111800AAEF09F04BC0D9FF4CC0DAFFDECFF6FFCB
:10112800DDCFF7FFF86A0800F550750AD8A49FEFDD
:1011380008F0A1EF08F0E2EF08F04BC0D9FF4CC06F
:10114800DAFFDE2A000EDD224DC0D9FF4EC0DAFFDD
:10115800DFCF4FF0020EDE26DFCF50F0000EDD228B
:101168004FC0D9FF50C0DAFFDECF51F0DDCF52F0CB
:1011780051C06FF052C070F0716B726B736B746B0F
:10118800756B766B49C022F04AC023F06FC024F01B
:1011980070C025F071C026F072C027F073C028F027
:1011A80074C029F075C02AF076C02BF0DAEC13F081
:1011B80022C049F023C04AF0AAEF09F04BC0D9FF7A
:1011C8004CC0DAFFDECFF6FFDDCFF7FFF86A080084
:1011D800F550780AD8B4F3EF08F0F5EF08F008EF07
:1011E80009F04BC0D9FF4CC0DAFFDECFF6FFDDCFE8
:1011F800F7FFF86A0800F550580AD8A406EF09F076
:1012080008EF09F057EF09F04BC0D9FF4CC0DAFFDF
:10121800DECFF6FFDDCFF7FFF86A0800F5CF6AF0FA
:101228004BC0D9FF4CC0DAFFDE2A000EDD224DC0CC
:10123800D9FF4EC0DAFFDFCF4FF0020EDE26DFCF38
:1012480050F0000EDD224FC0D9FF50C0DAFFDECFCC
:1012580051F0DDCF52F051C06FF052C070F0716B99
:10126800726B736B746B756B766B49C022F04AC0F6
:1012780023F06FC024F070C025F071C026F072C052
:1012880027F073C028F074C029F075C02AF076C022
:101298002BF06AC02CF0F2EC0FF022C049F023C00A
:1012A8004AF0AAEF09F04BC0D9FF4CC0DAFFDECFF5
:1012B800F6FFDDCFF7FFF86A0800F550250AD8A435
:1012C80068EF09F06AEF09F081EF09F04BC0D9FF28
:1012D8004CC0DAFFDE2A000EDD22000E086E250E55
:1012E800076E49C009F04AC00AF012EC22F0000E5D
:1012F8004A6E010E496EAAEF09F04BC0D9FF4CC0E7
:10130800DAFFDE2A000EDD22000E4A6E000E496E5C
:10131800AAEF09F04BC0D9FF4CC0DAFFDECFF6FFC9
:10132800DDCFF7FFF86A0800F550076E086A49C074
:1013380009F04AC00AF012EC22F04BC0D9FF4CC0A9
:10134800DAFFDE2A000EDD227BEF09F01200000131
:10135800C06F20EEB5F00A0EDE6AE806FDE2D60E92
:101368000A6EFF0E0B6EB50E0C6E000E0D6E030EA0
:101378000F6E000E0E6E000E116E050E106EDBEC79
:1013880014F020EE8FF0120EDE6AE806FDE2EA0E97
:101398000A6EFF0E0B6E8F0E0C6E000E0D6E010E98
:1013A8000F6E000E0E6E000E116E080E106EDBEC46
:1013B80014F0000E0001C46F000EC36FF40E0A6E25
:1013C800FF0E0B6EC30E0C6E000E0D6E020E0F6E2E
:1013D800000E0E6E000E116E010E106EDBEC14F096
:1013E800530E00017D6FF90E7E6FEBEC27F0FF0EB8
:1013F80000017D6FFE0E7E6FB50E7F6F000E806F51
:10140800EBEC27F0EB0E00017D6FFE0E7E6F8F0E6A
:101418007F6F000E806FEBEC27F06D0E00017D6F83
:10142800FE0E7E6FC30E7F6F000E806FEBEC27F011
:10143800410E00017D6FFE0E7E6FEBEC27F0D50E9E
:1014480000017D6FF80E7E6FC10E7F6FFF0E806FFB
:10145800CD0E816FFF0E826F080E846F340E836F7E
:10146800EBEC27F0000E0001C86F000EC76F22EEEC
:101478004CF010EEA2F00A0EDBCFE3FFE806FCE228
:10148800000ECA6F000EC96FA20EC925D96E000ED4
:10149800CA21DA6EDF50C56F010EC925556E000EE0
:1014A800CA21566EA20E5524D96E000E5620DA6E49
:1014B800DF50C66FC651C5C055F0566A55C056F0C4
:1014C800556A5526000E5622D890C735D96EC835AC
:1014D800DA6E720ED926010EDA2255C0DEFF56C02A
:1014E800DDFFC74BC82B020EC925C96F000ECA21E4
:1014F800CA6FCABF89EF0AF0CA5109E10C0EC95D6B
:10150800D8A089EF0AF08BEF0AF048EF0AF0000E36
:10151800C86F000EC76F21EE7EF010EEADF0070E1B
:10152800DBCFE3FFE806FCE2000ECC6F000ECB6FCA
:10153800AD0ECB25D96E000ECC21DA6EDF50C56F0B
:10154800010ECB25556E000ECC21566EAD0E5524DE
:10155800D96E000E5620DA6EDF50C66FC651C5C070
:1015680055F0566A55C056F0556A5526000E562253
:10157800D890C735D96EC835DA6E3C0ED926020E1A
:10158800DA2255C0DEFF56C0DDFFC74BC82B020E5E
:10159800CB25CB6F000ECC21CC6FCCBFDDEF0AF092
:1015A800CC5109E1080ECB5DD8A0DDEF0AF0DFEFE2
:1015B8000AF09CEF0AF0C005D8B4E5EF0AF0E7EFAF
:1015C8000AF08BEF0BF0A70E7D6FFB0E7E6FEBEC36
:1015D80027F0180E00017D6FFB0E7E6FEBEC27F0F5
:1015E800FF0E00017D6FF80E7E6FEBEC27F0FF0E0B
:1015F80000017D6FF30E7E6FEBEC27F0760E000195
:101608007D6FF80E7E6FEBEC27F07B0E00017D6F8F
:10161800F90E7E6FEBEC27F0D50E00017D6FF60E0C
:101628007E6FEBEC27F00A0E00017D6FF70E7E6FE0
:10163800EBEC27F0C70E00017D6FF50E7E6FEBEC2B
:1016480027F0480E00017D6FF40E7E6FEBEC27F05B
:101658008D0E00017D6FF40E7E6FEBEC27F0B40E5B
:1016680000017D6FF30E7E6FEBEC27F0D10E0001C9
:101678007D6FF40E7E6FEBEC27F0690E00017D6F35
:10168800F30E7E6FEBEC27F0570E00017D6FFE0E18
:101698007E6FEBEC27F0A90E00017D6FF80E7E6FD0
:1016A800EBEC27F05F0E00017D6FFA0E7E6FEBEC1E
:1016B80027F0C90E00017D6FFB0E7E6FEBEC27F063
:1016C8000B0E00017D6FFC0E7E6FEBEC27F0030E16
:1016D80000017D6FF30E7E6FEBEC27F0000EA8EC97
:1016E80027F005C0C1F006C0C2F05A0E00017D6F98
:1016F800FF0E7E6FC1C07FF0C2C080F0EBEC27F018
:10170800250E00017D6FFF0E7E6FEBEC27F01200B7
:10171800000E0001956F000ED86F000ED76F570EA0
:10172800D725D96E020ED821DA6E00C1DFFFD74B5C
:10173800D82B570ED725D96E020ED821DA6E01C1E3
:10174800DFFFD74BD82B01010551020D570E0001C1
:10175800D725D96E020ED821DA6EF3CFDFFFD74B2B
:10176800D82B48EF0CF0F30E7D6FFA0E7E6FEBEC82
:1017780027F0010102510001906F8F6B01010551A3
:1017880004C191F00001926B91C092F0916B912786
:10179800000E92238F5191279051922301010351FA
:1017A80000019127000E922392BFDDEF0BF0DFEFCF
:1017B8000BF008EF0CF0010102510001906F8F6BE4
:1017C8000101055104C191F00001926B91C092F0A2
:1017D800916B9127000E92238F519127905192235C
:1017E8000101035100019127000E922392BF06EFD9
:1017F8000CF0925109E1210E915DD8A006EF0CF092
:1018080008EF0CF05BEF0CF03E0E7D6FF70E7E6F6D
:10181800EBEC27F0040E00017D6FFD0E7E6F0101D9
:1018280002510001906F8F6B0101035100018F2558
:101838007F6F0101000E00019021806F01010451AA
:101848000001926F916B0101035102C193F00001F5
:10185800946B93C094F0936B9327000E942391514B
:101868009327925194230101055100019325816F1B
:101878000101000E00019421826FEBEC27F0010EAC
:101888000001956F5BEF0CF00101025100018F6FB1
:10189800906B9051000AD8B454EF0CF05BEF0CF049
:1018A8008F51000AD8B4B7EF0BF05BEF0CF09551ED
:1018B800D8A461EF0CF063EF0CF007EF0DF0000E09
:1018C800976F000E966FB8EF0CF001010251D8A483
:1018D80070EF0CF072EF0CF0A1EF0CF00351000167
:1018E80096258F6F000E9721906FD8908F3790377D
:1018F800B70E8F25D96E030E9021DA6EDECF91F0E8
:10190800DDCF92F09151F66FF76B010103510001A1
:1019180096258F6F000E9721906FD8908F3790374C
:10192800B70E8F25D96E030E9021DA6EDECF91F0B7
:10193800DDCF92F09251D56FD66B570E0001D725A7
:10194800D96E020ED821DA6ED5C0DFFFD74BD82B5F
:10195800570ED725D96E020ED821DA6EF6C0DFFFF2
:10196800D74BD82B964B972B0101055100018F6F50
:10197800906B8F51965D9751800A916F9051800AB4
:101988009159D8A0CAEF0CF0CCEF0CF069EF0CF02D
:10199800D7C005F0D8C006F0010E076EA0EC1EF007
:1019A80005C0D5F006C0D6F0D7C005F0D8C006F0FF
:1019B800000E076EA0EC1EF005C0F6F006C0F7F0AA
:1019C800570E0001D725D96E020ED821DA6ED5C080
:1019D800DFFF580ED725D96E020ED821DA6EF6C071
:1019E800DFFF020ED725D76F000ED821D86F570E0C
:1019F800066E020E076ED7C008F0D8C009F06DEC6D
:101A080023F00DEF0DF0000E156E020E146EA2EC11
:101A180020F01200120E00017D6FFF0E7E6FEBECBE
:101A280027F0030E02015819D8A41DEF0DF01FEF7F
:101A38000DF0DCEF0DF0600E00017D6FFB0E7E6F88
:101A480057C27FF0806BEBEC27F0330E00017D6FFF
:101A5800F60E7E6F58C27FF0806BEBEC27F0C70E56
:101A680000017D6FF90E7E6F59C27FF0806BEBEC41
:101A780027F0000E0001936F010E926F000E956F14
:101A8800000E946F97EF0DF0690E7D6FF60E7E6F66
:101A9800010E94257F6F000E9521806F5A0E9425B4
:101AA800D96E020E9521DA6EDF508F6F8F51816FDC
:101AB800826B92C083F093C084F002C185F0866B7C
:101AC8000101035100019225906F000E9321916F3F
:101AD800FF0E9025876FFF0E9121886FEBEC27F0A2
:101AE8000001944B952B840E7D6FFB0E7E6F010ECB
:101AF80094257F6F000E9521806F5A0E9425D96E1C
:101B0800020E9521DA6EDF508F6F8F51816F826BD5
:101B180092C083F093C084F0EBEC27F00001924B65
:101B2800932B944B952B0201595100018F6F906BA9
:101B38008F51945D9551800A916F9051800A915907
:101B4800D8A0A9EF0DF0ABEF0DF048EF0DF04B0E5C
:101B58007D6FFC0E7E6F010E94257F6F000E952120
:101B6800806F5A0E9425D96E020E9521DA6EDF50D9
:101B78008F6F8F51816F826BEBEC27F06B0E00013A
:101B88007D6FFC0E7E6F020E94257F6F000E9521EF
:101B9800806F5B0E9425D96E020E9521DA6EDF50A8
:101BA8008F6F8F51816F826BEBEC27F07AEF0EF01D
:101BB800100E5819D8A4E3EF0DF0E5EF0DF037EF4C
:101BC8000EF0600E00017D6FFB0E7E6F57C27FF036
:101BD800806BEBEC27F0330E00017D6FF60E7E6F05
:101BE80058C27FF0806BEBEC27F0130E00017D6F7D
:101BF800FA0E7E6F59C27FF0806BEBEC27F0390E3E
:101C080000017D6FFA0E7E6F5AC27FF0806BEBEC9D
:101C180027F0A90E00017D6FFA0E7E6F5BC27FF080
:101C2800806BEBEC27F0CE0E00017D6FFA0E7E6F15
:101C38005CC27FF0806BEBEC27F0AA0E00017D6F91
:101C4800FC0E7E6F5DC27FF0806BEBEC27F0C80E58
:101C580000017D6FFC0E7E6F5EC27FF0806BEBEC47
:101C680027F07AEF0EF0000E0001956F000E946FCA
:101C78006BEF0EF068EC28F00009D8B446EF0EF0D0
:101C880048EF0EF03EEF0EF0120E00017D6FFE0ED3
:101C98007E6F94C07FF095C080F0570E9425D96E62
:101CA800020E9521DA6EDF508F6F8F51816F826B34
:101CB800EBEC27F08CEC28F00009D8B466EF0EF0B6
:101CC80068EF0EF05EEF0EF00001944B952BD751A4
:101CD800945D9551800A8F6FD851800A8F59D8A08A
:101CE80078EF0EF07AEF0EF03EEF0EF0650E000181
:101CF8007D6FF30E7E6FEBEC27F0120024C03CF0F2
:101D080025C03DF026C03EF027C03FF028C040F077
:101D180029C041F02AC042F02BC043F043BE97EFE0
:101D28000EF09AEF0EF0010E9BEF0EF0000E3A6ED9
:101D38003B6A3A503B10D8B4A4EF0EF0A6EF0EF071
:101D4800B6EF0EF0431E421E411E401E3F1E3E1EB1
:101D58003D1E3C6C000E3D223E223F224022412285
:101D6800422243220001D2BFBCEF0EF0BEEF0EF0BC
:101D7800BFEF0EF05792D2BFCCEF0EF0D25106E172
:101D8800D105D8B0CAEF0EF0CCEF0EF0D2EF0EF0BE
:101D9800000E376E010E366ED6EF0EF0D1C036F05B
:101DA800D2C037F0CFC038F0D0C039F03A503B102D
:101DB800D8A4E1EF0EF0E3EF0EF0EAEF0EF057A42F
:101DC800E8EF0EF0EAEF0EF0EDEF0EF03806D8A0CF
:101DD8003906000E456E1F0E446E000E0201FC6FA0
:101DE80072EF0FF04406D8A04506DD0E4424D96EE4
:101DF800020E4520DA6E3CC005F03DC006F03EC03C
:101E080007F03FC008F040C009F041C00AF042C0E6
:101E18000BF043C00CF00A0E0D6E000E0E6E000E95
:101E28000F6E000E106E000E116E000E126E000E78
:101E3800136E000E146EA5EC1AF005C02CF006C047
:101E48002DF007C02EF008C02FF009C030F00AC0EE
:101E580031F00BC032F00CC033F02CC017F02EC09C
:101E680018F0FAEC26F01750300FDF6E3606D8A0BF
:101E780037063806D8A039063CC005F03DC006F044
:101E88003EC007F03FC008F040C009F041C00AF06A
:101E980042C00BF043C00CF00A0E0D6E000E0E6E21
:101EA800000E0F6E000E106E000E116E000E126EF8
:101EB800000E136E000E146E23EC19F005C03CF0F2
:101EC80006C03DF007C03EF008C03FF009C040F032
:101ED8000AC041F00BC042F00CC043F045BE7DEF94
:101EE8000FF0455008E14404D8A07DEF0FF07FEFD4
:101EF8000FF0AFEF0FF03C503D103E103F10401078
:101F0800411042104310D8A48CEF0FF08EEF0FF061
:101F1800F6EF0EF037BE9BEF0FF0375006E13604B0
:101F2800D8B099EF0FF09BEF0FF0F6EF0EF039BE37
:101F3800A6EF0FF0395008E13804D8A0A6EF0FF04B
:101F4800A8EF0FF0AFEF0FF057B2ADEF0FF0AFEF14
:101F58000FF0F6EF0EF03A503B10D8A4B6EF0FF0A2
:101F6800B8EF0FF0BFEF0FF057A4BDEF0FF0BFEFC2
:101F78000FF0DDEF0FF04406D8A045063A503B10AD
:101F8800D8A4C9EF0FF0CBEF0FF0D1EF0FF0000E90
:101F9800356E2B0E346ED5EF0FF0000E356E2D0E0C
:101FA800346EDD0E4424D96E020E4520DA6E34C03C
:101FB800DFFF22C017F023C018F0DD0E4424196E8D
:101FC800020E45201A6E38C01BF039C01CF041ECD7
:101FD80020F017C022F018C023F012000001D2BF71
:101FE800F8EF0FF0FAEF0FF0FBEF0FF05792D2BFB8
:101FF80008EF10F0D25106E1D105D8B006EF10F085
:1020080008EF10F00EEF10F0000E3A6E010E396E68
:1020180012EF10F0D1C039F0D2C03AF0CFC03BF087
:10202800D0C03CF057A81BEF10F01DEF10F021EFC7
:1020380010F0FE0E3B26FF0E3C2224C03DF025C0CA
:102048003EF026C03FF027C040F028C041F029C02C
:1020580042F02AC043F02BC044F0000E466E1F0E1B
:10206800456E000E0201FC6FEDEF10F04506D8A09A
:1020780046060F0E3D14476E486A48BE4DEF10F0F5
:10208800485009E10A0E475CD8A04DEF10F04FEF19
:1020980010F057EF10F0570E4724476E000E4820F7
:1020A800486E5DEF10F0300E4724476E000E482052
:1020B800486EBF0E2D6EFF0E2E6E2C502F6E306A9E
:1020C8002D502F262E50302230500AE11A0E2F5C48
:1020D800D8A071EF10F074EF10F0010E75EF10F04A
:1020E800000E356E366A35503610D8B47EEF10F0D3
:1020F80080EF10F0B0EF10F09F0E2D6EFF0E2E6ED9
:10210800200E47102F6E000E4810306E2D502F26CF
:102118002E50302230500AE11A0E2F5CD8A097EFCB
:1021280010F09AEF10F0010E9BEF10F0000E376ED2
:10213800386A37503810D8B4A4EF10F0A6EF10F072
:10214800B0EF10F047C00BF048C00CF038EC24F0AA
:102158000BC047F00CC048F0DD0E4524D96E020EC6
:102168004620DA6E47C0DFFF3906D8A03A063B069C
:10217800D8A03C063DC02DF03EC02EF03FC02FF049
:1021880040C030F041C031F042C032F043C033F0BB
:1021980044C034F0050EDAEF10F0D8903432333200
:1021A8003232313230322F322E322D32E82ED1EF08
:1021B80010F02DC03DF02EC03EF02FC03FF030C0D3
:1021C80040F031C041F032C042F033C043F034C077
:1021D80044F046BEF9EF10F0465009E1020E455CA6
:1021E800D8A0F9EF10F0FBEF10F02BEF11F03D50F5
:1021F8003E103F1040104110421043104410D8A424
:1022080008EF11F00AEF11F03AEF10F03ABE17EFAD
:1022180011F03A5006E13904D8B015EF11F017EF74
:1022280011F03AEF10F03CBE22EF11F03C5008E1FB
:102238003B04D8A022EF11F024EF11F02BEF11F09E
:1022480057B229EF11F02BEF11F03AEF10F057A821
:1022580030EF11F032EF11F048EF11F04506D8A039
:102268004606DD0E4524D96E020E4620DA6E2CC0D5
:10227800DFFF4506D8A04606DD0E4524D96E020EBE
:102288004620DA6E300EDF6E22C017F023C018F039
:10229800DD0E4524196E020E46201A6E3BC01BF057
:1022A8003CC01CF041EC20F017C022F018C023F00D
:1022B8001200970E00017D6FFE0E7E6FEBEC27F08B
:1022C800030E01010119D8A46CEF11F06EEF11F0A3
:1022D800C0EF11F0600E00017D6FFB0E7E6F00C134
:1022E8007FF0806BEBEC27F0330E00017D6FF60E6C
:1022F8007E6F01C17FF0806BEBEC27F0130E0001BD
:102308007D6FFA0E7E6F02C17FF0806BEBEC27F0D9
:10231800390E00017D6FFA0E7E6F03C17FF0806B6E
:10232800EBEC27F0A90E00017D6FFA0E7E6F04C159
:102338007FF0806BEBEC27F0CE0E00017D6FFA0E7C
:102348007E6F05C17FF0806BEBEC27F0AA0E0001D1
:102358007D6FFC0E7E6F06C17FF0806BEBEC27F083
:10236800E60E00017D6FFC0E7E6F07C17FF0806B6B
:10237800EBEC27F0BBEF12F0100E0119D8A4C7EF51
:1023880011F0C9EF11F0BBEF12F0600E00017D6F84
:10239800FB0E7E6F00C17FF0806BEBEC27F0900E98
:1023A80000017D6FF50E7E6F01C17FF0806BEBEC55
:1023B80027F0130E00017D6FFA0E7E6F02C17FF0C9
:1023C800806BEBEC27F0390E00017D6FFA0E7E6F03
:1023D80003C17FF0806BEBEC27F0A90E00017D6F45
:1023E800FA0E7E6F04C17FF0806BEBEC27F0CE0E07
:1023F80000017D6FFA0E7E6F05C17FF0806BEBECFC
:1024080027F0ED0E00017D6FF90E7E6F06C17FF09B
:10241800806BEBEC27F0000E0001956F010E946FB6
:10242800000E976F070E966F73EF12F0140E7D6F04
:10243800F50E7E6F96C07FF097C080F0000E96254F
:10244800D96E010E9721DA6EDF508F6F8F51816F31
:10245800826B94C083F095C084F002C185F0866BCE
:102468000101035100019425906F000E9521916F91
:10247800FF0E9025876FFF0E9121886F0101035190
:1024880000019425926F000E9521936FFF0E9225FF
:10249800896FFF0E93218A6FEBEC27F00001964BB2
:1024A800972B840E7D6FFB0E7E6F96C07FF097C0D2
:1024B80080F0000E9625D96E010E9721DA6EDF5056
:1024C8008F6F8F51816F826B94C083F095C084F0B9
:1024D800EBEC27F00001944B952B964B972BFE0EB7
:1024E8008F6FFF0E906FDBC091F0DCC092F08F51C0
:1024F8009127905192239151965D9751800A936F3D
:102508009251800A9359D8A08CEF12F08EEF12F0F6
:102518001AEF12F04B0E7D6FFC0E7E6F96C07FF0A7
:1025280097C080F0000E9625D96E010E9721DA6EBD
:10253800DF508F6F8F51816F826BEBEC27F06B0E42
:1025480000017D6FFC0E7E6F010E96257F6F000ED9
:102558009721806F010E9625D96E010E9721DA6EAC
:10256800DF508F6F8F51816F826BEBEC27F05D0E20
:1025780000017D6FFB0E7E6FEBEC27F01200000E62
:102588000001996F000E986F000E946F000E936F04
:10259800000E956F010102510001906F8F6B0101D0
:1025A800055104C191F00001926B91C092F0916BBA
:1025B8009127000E92238F51912790519223010168
:1025C800035100019127000E922392BFF5EF12F0FC
:1025D800925109E1210E915DD8A0F5EF12F0F7EFC5
:1025E80012F000EF13F09F0E7D6FF60E7E6FEBEC8E
:1025F80027F0010E0001956F9551D8A406EF13F04E
:1026080008EF13F0D3EF13F0000ED86F000ED76F5A
:10261800570ED725D96E020ED821DA6E00C1DFFF1A
:10262800D74BD82B570ED725D96E020ED821DA6E84
:1026380001C1DFFFD74BD82B570ED725D96E020E15
:10264800D821DA6E02C1DFFFD74BD82B570ED7251A
:10265800D96E020ED821DA6E03C1DFFFD74BD82B13
:10266800570ED725D96E020ED821DA6E04C1DFFFC6
:10267800D74BD82B570ED725D96E020ED821DA6E34
:1026880005C1DFFFD74BD82B000E976F000E966F52
:1026980084EF13F0080E9825D96E010E9921DA6E91
:1026A800DF508F6F070E9825D96E010E9921DA6ECB
:1026B800DF50906F9051926F916B8F519125936F6E
:1026C800000E9221946F020E9825986F000E9921A2
:1026D800996F01010351000196258F6F000E972114
:1026E800906FD8908F379037B70E8F25D96E030E1D
:1026F8009021DA6E93C0DEFF94C0DDFF964B972BD6
:102708000101055100018F6F906B8F51965D9751B4
:10271800800A916F9051800A9159D8A096EF13F0D2
:1027280098EF13F04EEF13F0D7C005F0D8C006F0BD
:10273800010E076EA0EC1EF005C0D5F006C0D6F05D
:10274800D7C005F0D8C006F0000E076EA0EC1EF04A
:1027580005C0F6F006C0F7F0570E0001D725D96E70
:10276800020ED821DA6ED5C0DFFF580ED725D96EF4
:10277800020ED821DA6EF6C0DFFF020ED725D76F1A
:10278800000ED821D86F570E066E020E076ED7C0FE
:1027980008F0D8C009F06DEC23F0D9EF13F0000E63
:1027A800156E020E146EA2EC20F012000001D2BFCA
:1027B800E0EF13F0E2EF13F0E3EF13F05792D2BF1C
:1027C800F0EF13F0D25106E1D105D8B0EEEF13F0D7
:1027D800F0EF13F0F6EF13F0000E356E010E346EC5
:1027E800FAEF13F0D1C034F0D2C035F0CFC036F0D4
:1027F800D0C037F024C038F025C039F026C03AF0F0
:1028080027C03BF028C03CF029C03DF02AC03EF06C
:102818002BC03FF0000E416E1F0E406E000E0201ED
:10282800FC6F8DEF14F04006D8A04106DD0E402461
:10283800D96E020E4120DA6E38C005F039C006F0B4
:102848003AC007F03BC008F03CC009F03DC00AF0B0
:102858003EC00BF03FC00CF00A0E0D6E000E0E6E5F
:10286800000E0F6E000E106E000E116E000E126E2E
:10287800000E136E000E146E77EC1FF005C02CF0DE
:1028880006C02DF007C02EF008C02FF009C030F0A8
:102898000AC031F00BC032F00CC033F02C50300FAE
:1028A800DF6E3406D8A035063606D8A0370638C0FD
:1028B80005F039C006F03AC007F03BC008F03CC04C
:1028C80009F03DC00AF03EC00BF03FC00CF00A0E04
:1028D8000D6E000E0E6E000E0F6E000E106E000EC6
:1028E800116E000E126E000E136E000E146EBAEC0E
:1028F8001DF005C038F006C039F007C03AF008C02E
:102908003BF009C03CF00AC03DF00BC03EF00CC0E3
:102918003FF040504110D8B494EF14F096EF14F003
:10292800C6EF14F0385039103A103B103C103D10E7
:102938003E103F10D8A4A3EF14F0A5EF14F017EF42
:1029480014F035BEB2EF14F0355006E13404D8B0B7
:10295800B0EF14F0B2EF14F017EF14F037BEBDEF7C
:1029680014F0375008E13604D8A0BDEF14F0BFEFDB
:1029780014F0C6EF14F057B2C4EF14F0C6EF14F019
:1029880017EF14F022C017F023C018F0DD0E402412
:10299800196E020E41201A6E36C01BF037C01CF0AB
:1029A80041EC20F017C022F018C023F01200000EEE
:1029B800176E000E166E000E156E000E146E000EC9
:1029C800176E000E166EBBEF15F00EC005F00FC0A7
:1029D80006F050EC28F0186E030E136E080E126EF7
:1029E800770EE82EFED7122EFCD7132EFAD700F05A
:1029F8001828D8B402EF15F004EF15F00EEF15F013
:102A080014500C24D96E15500D20DA6E18C0DFFF53
:102A1800144A152A0E4A0F2A0EC005F00FC006F0F8
:102A280050EC28F0196E0E4A0F2A030E136E080E8A
:102A3800126E770EE82EFED7122EFCD7132EFAD779
:102A480000F01928D8B42BEF15F02DEF15F037EF5B
:102A580015F014500C24D96E15500D20DA6E19C0DB
:102A6800DFFF144A152AD60E056EFF0E066E0AC041
:102A780007F00BC008F062EC21F005500610D8A44E
:102A880048EF15F04AEF15F063EF15F0195018C02C
:102A980012F0136A12C013F0126A1226000E1322E3
:102AA800D8901634D96E1734DA6EEA0ED926000E8D
:102AB800DA2212C0DEFF13C0DDFFB9EF15F0EA0E0F
:102AC800056EFF0E066E0AC007F00BC008F062EC38
:102AD80021F005500610D8A474EF15F076EF15F024
:102AE8008FEF15F0195018C012F0136A12C013F0C6
:102AF800126A1226000E1322D8901634D96E173493
:102B0800DA6E640ED926010EDA2212C0DEFF13C077
:102B1800DDFFB9EF15F0F40E056EFF0E066E0AC064
:102B280007F00BC008F062EC21F005500610D8A49D
:102B3800A0EF15F0A2EF15F0B9EF15F0195018C075
:102B480012F0136A12C013F0126A1226000E132232
:102B5800D8901634D96E1734DA6EFC0ED926000ECA
:102B6800DA2212C0DEFF13C0DDFF164A172A105002
:102B7800165C1750800A126E1150800A1258D8A09D
:102B8800C8EF15F0CAEF15F0E9EF14F014500C2453
:102B9800D96E15500D20DA6E000EDF6E120097C048
:102BA8009FF098C0A0F0A10E00017D6FF90E7E6F16
:102BB80093C07FF094C080F099C081F09AC082F0F1
:102BC800EBEC27F0ED0E096E010E0A6E680E0B6E27
:102BD800F30E0C6E09EC24F099C08FF09AC090F0B7
:102BE800ABEC1CF000018F519011D8B4FEEF15F03A
:102BF80000EF16F0F0EF15F0EA0E7D6FFB0E7E6F1A
:102C0800ED0E7F6F010E806FEBEC27F044EC28F09F
:102C18000009D8B412EF16F014EF16F00AEF16F008
:102C2800F3EC24F00001A36F790EA319D8B41FEFB9
:102C380016F021EF16F02AEF16F0590EA319D8A4B2
:102C480028EF16F02AEF16F0A2EF16F08A0E7D6F25
:102C5800FF0E7E6F93C07FF094C080F0EBEC27F0FE
:102C6800ED0E056E010E066E9CEC25F005C09DF07C
:102C780006C09EF0380E00017D6FFF0E7E6F9DC06E
:102C88007FF09EC080F0EBEC27F097C08FF098C0E3
:102C980090F099C091F09AC092F0C5EC24F0000E23
:102CA8000001A26F000EA16F7AEF16F09FC005F029
:102CB800A0C006F0ED0EA125D96E010EA221DA6E94
:102CC800DF50076E33EC26F000019F4BA02B030E5C
:102CD80000019C6F080E9B6F770EE82EFED79B2F86
:102CE800FCD79C2FFAD70001A14BA22BED0E056E45
:102CF800010E066E9CEC25F005500001A15D065002
:102D0800A259D8A08AEF16F08CEF16F05AEF16F0F9
:102D1800A80E7D6FFF0E7E6F93C07FF094C080F089
:102D2800EBEC27F0ED0E096E010E0A6E680E0B6EC5
:102D3800F30E0C6E09EC24F0BAEF16F04E0EA31940
:102D4800D8B4A9EF16F0ABEF16F0B4EF16F06E0E8C
:102D5800A319D8A4B2EF16F0B4EF16F0BAEF16F034
:102D6800B50E7D6FFF0E7E6FEBEC27F01200ED0EB7
:102D7800056E010E066EE40E076EFF0E086E62EC1D
:102D880021F005500610D8A4CCEF16F0CEEF16F0BF
:102D9800D3EF16F038EC27F0010E88EF17F0ED0EA0
:102DA800056E010E066EFC0E076EFF0E086E62ECD5
:102DB80021F005500610D8A4E4EF16F0E6EF16F05F
:102DC800EBEF16F0000EABEC09F0D0EF16F0ED0EBD
:102DD800056E010E066EDD0E076EFF0E086E62ECC4
:102DE80021F005500610D8A4FCEF16F0FEEF16F0FF
:102DF8001FEF17F022EE28F011EE93F0130EDBCF41
:102E0800E3FFE806FCE2930E0001936F010E946F56
:102E1800030E966F000E956F030E986F000E976F56
:102E2800000E9A6F0A0E996FD3EC15F0010EABECF9
:102E380009F0D0EF16F0ED0E056E010E066EEF0EDE
:102E4800076EFF0E086E62EC21F005500610D8A43C
:102E580030EF17F032EF17F053EF17F022EE14F0BF
:102E680011EEA7F0130EDBCFE3FFE806FCE2A70E96
:102E78000001936F010E946F010E966F000E956F0F
:102E8800010E986F000E976F000E9A6F100E996FD3
:102E9800D3EC15F0010EABEC09F0D0EF16F0ED0E07
:102EA800056E010E066EF80E076EFF0E086E62ECD8
:102EB80021F005500610D8A464EF17F066EF17F05C
:102EC80087EF17F022EE00F011EEBBF0130EDBCF08
:102ED800E3FFE806FCE2BB0E0001936F010E946F5E
:102EE800020E966F000E956F020E986F000E976F88
:102EF800000E9A6F020E996FD3EC15F0010EABEC31
:102F080009F0D0EF16F0000E120021EE86F010EE58
:102F180015F0060EDBCFE3FFE806FCE212C020F056
:102F280013C021F020502110D8A49DEF17F09FEF77
:102F380017F0A3EF17F0150E206E000E216E20C0BB
:102F480005F021C006F09CEC25F005C024F006C071
:102F580025F0D1C022F0D2C023F023BEB6EF17F07F
:102F6800B8EF17F0CDEF17F02450225C2350800AF9
:102F7800146E2550800A1458D8A0C5EF17F0C7EF73
:102F880017F0C9EF17F0CDEF17F022C024F023C0D7
:102F980025F024C022F025C023F0CFC01EF0D0C0F9
:102FA8001FF057B0DAEF17F0DCEF17F0F9EF17F072
:102FB800EAEF17F0000E086E200E076E10C009F039
:102FC80011C00AF012EC22F0244A252A1E50245C73
:102FD8002550800A146E1F50800A1458D8A0F7EFA5
:102FE80017F0F9EF17F0DEEF17F0000E1D6E000E68
:102FF8001C6E1EEF18F020C0F6FF21C0F7FF000E70
:10300800F86E0E0EF76403D00800F55005D0F6CF21
:10301800E9FFF7CFEAFFEF50146E1450076E086A05
:1030280010C009F011C00AF012EC22F0204A212A3F
:103038001C4A1D2A22501C5C1D50800A146E235005
:10304800800A1458D8A02BEF18F02DEF18F0FFEFD6
:1030580017F057A032EF18F034EF18F051EF18F0CE
:1030680042EF18F0000E086E200E076E10C009F02F
:1030780011C00AF012EC22F0244A252A1E50245CC2
:103088002550800A146E1F50800A1458D8A04FEF9C
:1030980018F051EF18F036EF18F024C010F025C0E2
:1030A80011F01200000E1A6E000E196E000E136E4B
:1030B800000E126E62EF18F00C4A0D2A010E186EFF
:1030C8000CC0F6FF0DC0F7FFF86A0800F550200A9B
:1030D800D8B471EF18F073EF18F091EF18F0F70EFD
:1030E8000E6EFF0E0F6E0CC0F6FF0DC0F7FFF86AEC
:1030F8000800F550106E116A0E5010260F5011225C
:10310800115009E1050E105CD8A08DEF18F08FEF73
:1031180018F091EF18F0000E186E18C014F0156A28
:1031280014501510D8A49BEF18F09DEF18F060EF1D
:1031380018F0A7EF18F0000E136E010E126E0C4A6D
:103148000D2ADEEF18F00CC0F6FF0DC0F7FFF86A85
:103158000800F5500E6E0F6A0F50000AD8B4B7EF8A
:1031680018F0DEEF18F00E502B0AD8B4A3EF18F0C1
:10317800060AD8B49FEF18F0DEEF18F019C005F072
:103188001AC006F0000E086E0A0E076E12EC28F040
:103198000CC0F6FF0DC0F7FFF86A0800F550055E91
:1031A800000E065A300E0524196E000E06201A6EFF
:1031B800A3EF18F0D00E0E6EFF0E0F6E0CC0F6FFC8
:1031C8000DC0F7FFF86A0800F550106E116A0E502E
:1031D80010260F50112211500AE10A0E105CD8A0D7
:1031E800F8EF18F0FBEF18F0010EFCEF18F0000EE6
:1031F800166E176A16501710D8A405EF19F007EFC6
:1032080019F0C2EF18F012501310D8A40EEF19F0ED
:1032180010EF19F01EEF19F019C00EF01AC00FF0D8
:103228000E1E0F1E0E4A0F2A0EC00CF00FC00DF016
:1032380022EF19F019C00CF01AC00DF01200000EA0
:10324800166E14BE2CEF19F02AEF19F03EEF19F0A4
:10325800141E131E121E111E101E0F1E0E1E0D6CA4
:10326800000E0E220F2210221122122213221422E3
:10327800010E166E0CBE45EF19F043EF19F057EF2B
:1032880019F00C1E0B1E0A1E091E081E071E061E1C
:10329800056C000E06220722082209220A220B22A8
:1032A8000C22010E161A20EE17F0070EDE6AE80649
:1032B800FDE20D500E100F10101011101210131007
:1032C8001410D8B46AEF19F06CEF19F0BEEF19F0CA
:1032D800010E156E7AEF19F0D8900D360E360F36AE
:1032E80010361136123613361436152A14AE7FEFFF
:1032F80019F081EF19F070EF19F0D89017361836D9
:1033080019361A361B361C361D361E360D50055C0E
:103318000E5006580F5007581050085811500958A9
:1033280012500A5813500B5814500C58D8A09FEF3D
:1033380019F0A1EF19F0B2EF19F00D50055E0E501B
:10334800065A0F50075A1050085A1150095A12506D
:103358000A5A13500B5A14500C5A1780D89014322A
:1033680013321232113210320F320E320D32152E44
:1033780081EF19F01650D8B4C4EF19F0C6EF19F060
:10338800D6EF19F01E1E1D1E1C1E1B1E1A1E191E0E
:10339800181E176C000E182219221A221B221C2232
:1033A8001D221E2217C005F018C006F019C007F02C
:1033B8001AC008F01BC009F01CC00AF01DC00BF0B1
:1033C8001EC00CF01200E6EC28F074EC28F000099E
:1033D800D8B4F1EF19F0F3EF19F0A3EF1AF00001E8
:1033E800DF05D8A4FAEF19F0FCEF19F002EF1AF094
:1033F800FA0E7D6FFD0E7E6FEBEC27F074EC28F073
:103408000009D8B40AEF1AF00CEF1AF043EF1AF0DB
:1034180036EF1AF01FEC25F0566E000E0001D92584
:10342800D96E050EDA21DA6E56C0DFFFDF05D8A4A3
:1034380020EF1AF022EF1AF033EF1AF07A0E7D6FB0
:10344800FF0E7E6F000ED925D96E050EDA21DA6ED1
:10345800DF50566E56507F6F806BEBEC27F0000103
:10346800D94BDA2B74EC28F00009D8A43EEF1AF0F7
:1034780040EF1AF00EEF1AF0010E0001DE6F0001A6
:10348800DE05D8A44AEF1AF04CEF1AF068EF1AF0EC
:103498000EEC1FF0EAEC25F0000E0001DE6F000EC6
:1034A800DA6F000ED96F83B85CEF1AF05FEF1AF08D
:1034B800010E60EF1AF0000EFF0A566E563A83505E
:1034C8005618EF0B5618836EFA51DB1907E1FB51BA
:1034D800DC19D8A472EF1AF074EF1AF002EF1AF0A0
:1034E80083BA79EF1AF07CEF1AF0010E7DEF1AF02B
:1034F800000EFF0A566E563A564683505618DF0B92
:103508005618836E57EC1BF0E806D8A48EEF1AF015
:1035180090EF1AF099EF1AF0840E00017D6FFA0E01
:103528007E6FEBEC27F0A0EF1AF02B0E00017D6FF9
:10353800FC0E7E6FEBEC27F0010EA4EF1AF0000EE4
:103548001200000E166E0CBEAEEF1AF0ACEF1AF0B9
:10355800C0EF1AF00C1E0B1E0A1E091E081E071EBD
:10356800061E056C000E06220722082209220A22DE
:103578000B220C22010E166E14BEC7EF1AF0C5EF0F
:103588001AF0D7EF1AF0141E131E121E111E101E69
:103598000F1E0E1E0D6C000E0E220F22102211227D
:1035A8001222132214220D500E100F101010111099
:1035B800121013101410D8B4E4EF1AF0E6EF1AF052
:1035C8002EEF1BF0010E156EF4EF1AF0D8900D36A1
:1035D8000E360F3610361136123613361436152AB3
:1035E80014AEF9EF1AF0FBEF1AF0EAEF1AF00D50EB
:1035F800055C0E5006580F500758105008581150C7
:10360800095812500A5813500B5814500C58D8A087
:1036180010EF1BF012EF1BF022EF1BF00D50055EB0
:103628000E50065A0F50075A1050085A1150095A8E
:1036380012500A5A13500B5A14500C5AD89014327C
:1036480013321232113210320F320E320D32152E61
:10365800FBEF1AF01650D8B434EF1BF036EF1BF01E
:1036680046EF1BF00C1E0B1E0A1E091E081E071E25
:10367800061E056C000E06220722082209220A22CD
:103688000B220C2205C005F006C006F007C007F0A3
:1036980008C008F009C009F00AC00AF00BC00BF016
:1036A8000CC00CF0120000019A699B69000E976F1C
:1036B800000E966F000E996F000E986F000E9D6FAA
:1036C800000E9C6F97EF1BF0000E9C25D96E010E23
:1036D8009D21DA6EDF508F6F8F519A1B000E996F04
:1036E800080E986F9AA17BEF1BF07DEF1BF086EF19
:1036F8001BF0D8909B339A33010E9A1BA00E9B1B8C
:1037080089EF1BF0D8909B339A339807D8A0990774
:1037180098519911D8A493EF1BF095EF1BF076EF11
:103728001BF09C4B9D2BFE0E8F6FFF0E906FDBC026
:1037380091F0DCC092F08F519127905192239151D2
:103748009C5D9D51800A936F9251800A9359D8A02D
:10375800B0EF1BF0B2EF1BF068EF1BF09A51946FBB
:10376800956B9AC08FF09BC090F090C08FF0906BD3
:103778008F51966F976BDF05D8A4C5EF1BF0C7EF85
:103788001BF0D5EF1BF03C0E7D6FFB0E7E6F94C0D7
:103798007FF095C080F096C081F097C082F0EBEC86
:1037A80027F0000E00019C25D96E010E9D21DA6ECE
:1037B800DF508F6F906B94518F1907E195519019D5
:1037C800D8A4E9EF1BF0EBEF1BF003EF1CF0010EA0
:1037D8009C25D96E010E9D21DA6EDF508F6F906B9C
:1037E80096518F1907E197519019D8A4FEEF1BF055
:1037F80000EF1CF003EF1CF0010E04EF1CF0000EAC
:10380800120025EC28F0F28EF28C8398839A839C20
:10381800839E000EABEC09F0E6EC28F0EAEC25F00C
:1038280099EC26F0E7EC19F0E806D8A41EEF1CF096
:1038380020EF1CF081EF1CF05DEF1CF0D60E0001AC
:103848007D6FFE0E7E6FEBEC27F08CEC0BF077EFC4
:103858001CF0C10E00017D6FFE0E7E6FEBEC27F0B1
:103868008B0E00017D6FFC0E7E6FEBEC27F0A4EC55
:1038780023F0C3EC12F0220E00017D6FFD0E7E6F67
:10388800EBEC27F0A4EC23F077EF1CF095EC00F0BC
:1038980077EF1CF0780E00017D6FFD0E7E6FEBEC6C
:1038A80027F0000E156E010E146EA2EC20F077EFD3
:1038B8001CF001010151D76FD86BD851000AD8B458
:1038C80068EF1CF04EEF1CF0D751030AD8B422EF72
:1038D8001CF0070AD8B44AEF1CF0140AD8B42DEF2C
:1038E8001CF04EEF1CF05DEC11F00EEC0DF0C4EC8A
:1038F80025F099EC26F016EF1CF0000E0001906FF1
:10390800100E8F6FABEC1CF000018F519011D8B4E2
:1039180090EF1CF092EF1CF0A7EF1CF0BBEC16F038
:10392800250E00017D6FFF0E7E6FEBEC27F0ED0E8C
:10393800096E010E0A6E680E0B6EF30E0C6E09EC22
:1039480024F016EF1CF016EF1CF093EF00F0F4C013
:1039580055F0F5C056F044EC28F00009D8B4B7EF9C
:103968001CF0B9EF1CF037EF1DF044EC28F000090B
:10397800D8B4C1EF1CF0C3EF1CF013EF1DF0F3EC4B
:1039880024F0556E555067EC24F00D0E5518D8B438
:10399800D0EF1CF0D2EF1CF0DCEF1CF0ED0E136E34
:1039A800010E146E550E156E000E166EFFEC27F004
:1039B800ED0E056E010E066E9CEC25F0055000011B
:1039C8008F5D06509059D8B0ECEF1CF0EEEF1CF06C
:1039D80002EF1DF0ED0E096E010E0A6EEE0E0B6E73
:1039E800010E0C6EED0E056E010E066E9CEC25F0B8
:1039F80005C00DF006C00EF032EC1EF00D0E551885
:103A0800D8A409EF1DF00BEF1DF013EF1DF07A0E8F
:103A1800556E8FC08FF090C090F03CEF1DF00D0EEA
:103A28005518D8A41AEF1DF01CEF1DF0B9EF1CF0C3
:103A3800ED0E056E010E066E9CEC25F0EC0E0524CD
:103A4800D96E010E0620DA6E000EDF6E650E0001DB
:103A58007D6FF30E7E6FEBEC27F0ED0E056E010E19
:103A6800066E9CEC25F0000E0001906F000E8F6F23
:103A78001200B40EF66E4D0EF76E000EF86E04EEE0
:103A880064F010EE40F00900F5CFEEFFE550E1508C
:103A9800FAE1740EF66E4D0EF76E000EF86E03EE38
:103AA800B7F010EE40F00900F5CFEEFFE550E15019
:103AB800FAE1820EF66E430EF76E000EF86E02EE15
:103AC80000F010EEA2F00900F5CFEEFFE550E1504E
:103AD800FAE1BA0EF66E440EF76E000EF86E01EEBD
:103AE80000F010EE93F00900F5CFEEFFE550E1503D
:103AF800FAE12E0EF66E510EF76E000EF86E00EE1D
:103B0800EAF010EE14F00900F5CFEEFFE550E150B1
:103B1800FAE105EE00F0640EEE6AE806FDE104EE57
:103B280000F0640EEE6AE806FDE103EE00F0B70E61
:103B3800EE6AE806FDE102EEA2F05B0EEE6AE80628
:103B4800FDE101EEEDF0100EEE6AE806FDE100EE93
:103B5800CDF01D0EEE6AE806FDE15A6A596A586A08
:103B6800576A5B905B92000105EF1CF020EE15F0A0
:103B7800070EDE6AE806FDE20D500E100F10101059
:103B88001110121013101410D8B4CDEF1DF0CFEF90
:103B98001DF021EF1EF0010E1D6EDDEF1DF0D89017
:103BA8000D360E360F3610361136123613361436D9
:103BB8001D2A14AEE2EF1DF0E4EF1DF0D3EF1DF067
:103BC800D890153616361736183619361A361B3663
:103BD8001C360D50055C0E5006580F5007581050F3
:103BE80008581150095812500A5813500B581450BD
:103BF8000C58D8A002EF1EF004EF1EF015EF1EF0CF
:103C08000D50055E0E50065A0F50075A1050085AAC
:103C18001150095A12500A5A13500B5A14500C5A80
:103C28001580D890143213321232113210320F32FA
:103C38000E320D321D2EE4EF1DF015C005F016C032
:103C480006F017C007F018C008F019C009F01AC02C
:103C58000AF01BC00BF01CC00CF012000BC013F0D4
:103C68000CC014F009C011F00AC012F01150135C16
:103C780012501458D8B043EF1EF045EF1EF07CEFF9
:103C88001EF00D5013240F6E0E501420106E0F509E
:103C9800115C10501258D8B054EF1EF056EF1EF0B9
:103CA8007CEF1EF00D5013260E5014220D501126D5
:103CB8000E5012221306D8A0140613C0D9FF14C040
:103CC800DAFF1106D8A0120611C0E1FF12C0E2FF08
:103CD800DFCFE7FF0D06D8A00E060D500E10D8A4B2
:103CE80078EF1EF07AEF1EF05EEF1EF09FEF1EF0E9
:103CF8000D500E10D8B483EF1EF085EF1EF09FEF25
:103D08001EF013C0D9FF14C0DAFF11C0E1FF12C0C2
:103D1800E2FFDFCFE7FF134A142A114A122A0D06E1
:103D2800D8A00E060D500E10D8A49DEF1EF09FEFE0
:103D38001EF085EF1EF0120012681368000E0D6E5B
:103D4800000E0C6E000E116E000E106E000E0F6E3F
:103D5800000E0E6EDFEF1EF0570E0E24D96E020E07
:103D68000F20DA6EDF50086E0850121A000E116E1E
:103D7800080E106E12A0C3EF1EF0C5EF1EF0CEEFB6
:103D88001EF0D89013321232010E121AA00E131A16
:103D9800D1EF1EF0D890133212321006D8A01106B7
:103DA80010501110D8A4DBEF1EF0DDEF1EF0BEEFAF
:103DB8001EF00E4A0F2A05500E5C0F50800A086E3E
:103DC8000650800A0858D8A0ECEF1EF0EEEF1EF05F
:103DD800B0EF1EF012500A6E0B6A12C008F013C042
:103DE80009F009C008F0096A08500C6E0D6A07044A
:103DF800D8A401EF1FF003EF1FF009EF1FF00AC06E
:103E080005F00BC006F00DEF1FF00CC005F00DC05B
:103E180006F01200000E0001906F000E8F6F000E6A
:103E2800906F000E8F6F2BEF1FF0000E8F25D96E4D
:103E3800050E9021DA6E000EDB25E16E010EDC2105
:103E4800E26EDFCFE7FFDB4BDC2B8F4B902BD9519A
:103E58008F5D9051800A556EDA51800A5558D8A066
:103E680038EF1FF03AEF1FF019EF1FF0DF05D8A465
:103E780040EF1FF042EF1FF053EF1FF0FD0E7D6F74
:103E8800F50E7E6FEBEC27F0400E00017D6FFD0E06
:103E98007E6FDBC07FF0DCC080F0EBEC27F00F0E0C
:103EA80001010119D8A45BEF1FF05DEF1FF066EF69
:103EB8001FF0090E06250001FA6FFB6B000EFB23AD
:103EC80076EF1FF0100E0119D8A46DEF1FF06FEFF9
:103ED8001FF071EF1FF05DEF1FF0000E0001FB6F88
:103EE800080EFA6F12000D500E100F10101011105E
:103EF800121013101410D8B484EF1FF086EF1FF0BF
:103F0800CEEF1FF0010E156E94EF1FF0D8900D360E
:103F18000E360F3610361136123613361436152A69
:103F280014AE99EF1FF09BEF1FF08AEF1FF00D50B2
:103F3800055C0E5006580F5007581050085811507D
:103F4800095812500A5813500B5814500C58D8A03E
:103F5800B0EF1FF0B2EF1FF0C2EF1FF00D50055E7B
:103F68000E50065A0F50075A1050085A1150095A45
:103F780012500A5A13500B5A14500C5AD890143233
:103F880013321232113210320F320E320D32152E18
:103F98009BEF1FF005C005F006C006F007C007F04C
:103FA80008C008F009C009F00AC00AF00BC00BF0FD
:103FB8000CC00CF01200A20E5A24D96EDA6A020E56
:103FC800DA22000EDF6E0E019DA5EDEF1FF0EFEF78
:103FD8001FF004EF20F0A20E5A24D96EDA6A020EFE
:103FE800DA220201DF8202D804EF20F00500FA6E1F
:103FF8000101E351FD6EE451FE6EFF6AFA501200B2
:104008000E019DA30AEF20F00CEF20F021EF20F025
:10401800A20E5A24D96EDA6A020EDA220201DF846D
:1040280002D821EF20F00500FA6E0101E151FD6E82
:10403800E251FE6EFF6AFA501200A20E5A24D96E9F
:10404800DA6A020EDA22DF50D8B42DEF20F02FEF13
:1040580020F03EEF20F002D83CEF20F00500FA6E89
:104068000101DF51FD6EE051FE6EFF6AFA50120049
:1040780040EF20F0BFEC27F0120057A046EF20F0E9
:1040880048EF20F052EF20F019C010F01AC011F0DC
:1040980017C012F018C013F055EC26F01CBE57EFED
:1040A80020F059EF20F05FEF20F01BC020F01CC07B
:1040B80021F063EF20F0000E216E000E206E000E3E
:1040C8001F6E000E1E6E75EF20F0000E086E200E9B
:1040D800076E17C009F018C00AF012EC22F01E4A49
:1040E8001F2A20501E5C1F50800A1D6E2150800A16
:1040F8001D58D8A082EF20F084EF20F069EF20F05F
:1041080057B089EF20F08BEF20F095EF20F019C021
:1041180010F01AC011F017C012F018C013F055ECC7
:1041280026F019C005F01AC006F09CEC25F02050C6
:104138000524176E21500620186E1200000E00018B
:10414800D86F000ED76F570ED725D96E020ED8211B
:10415800DA6E00C1DFFFD74BD82B570ED725D96EA3
:10416800020ED821DA6E01010151800FDF6E0001C5
:10417800D74BD82B570ED725D96E020ED821DA6E19
:1041880014C0DFFFD74BD82BD7C005F0D8C006F036
:10419800010E076EA0EC1EF005C0D5F006C0D6F0E3
:1041A800D7C005F0D8C006F0000E076EA0EC1EF0D0
:1041B80005C0F6F006C0F7F0570E0001D725D96EF6
:1041C800020ED821DA6ED5C0DFFF580ED725D96E7A
:1041D800020ED821DA6EF6C0DFFF020ED725D76FA0
:1041E800000ED821D86F570E066E020E076ED7C084
:1041F80008F0D8C009F06DEC23F01200000E592425
:10420800D96EDA6A030EDA22000EDF6E9DA40FEF74
:1042180021F011EF21F026EF21F0000E5924D96E7C
:10422800DA6A030EDA220301DF8202D826EF21F0D0
:104238000500FA6E0101DD51FD6EDE51FE6EFF6A6A
:10424800FA5012009DA22BEF21F02DEF21F042EF42
:1042580021F0000E5924D96EDA6A030EDA2203011E
:10426800DF8402D842EF21F00500FA6E0101DB512C
:10427800FD6EDC51FE6EFF6AFA501200000E5924E2
:10428800D96EDA6A030EDA22DF50D8B44EEF21F085
:1042980050EF21F05FEF21F002D85DEF21F005002B
:1042A800FA6E0101D951FD6EDA51FE6EFF6AFA50BD
:1042B800120061EF21F0D5EC27F0120068EF21F031
:1042C800054A062A074A082A07C0F6FF08C0F7FF6A
:1042D800F86A0800F5CF09F005C0F6FF06C0F7FF39
:1042E800000EF86E0E0EF76403D00800F55005D0E6
:1042F800F6CFE9FFF7CFEAFFEF500918D8A487EF08
:1043080021F089EF21F0A2EF21F005C0F6FF06C0E9
:10431800F7FF000EF86E0E0EF76403D00800F55094
:1043280005D0F6CFE9FFF7CFEAFFEF500009D8A490
:10433800A0EF21F0A2EF21F064EF21F005C0F6FF15
:1043480006C0F7FF000EF86E0E0EF76403D00800E3
:10435800F55005D0F6CFE9FFF7CFEAFFEF50096E29
:1043680007C0F6FF08C0F7FFF86A0800F550095CB7
:10437800056E066AD8A0060612005265766973694A
:104388006F6E000000000000000000000000506197
:104398007274204E756D62657200000000000000A6
:1043A800000053657269616C204E756D626572001C
:1043B800000000000000FF000000000000000000F6
:1043C8000000000000004D61722032362032303289
:1043D80031FF0000000000000000000000000000A5
:1043E80000000000000000000000000000000000C5
:1043F80000000000000000000000000000000000B5
:1044080000000000000000000000000000000000A4
:1044180000000000000000000000000009500A1021
:10442800D8B419EF22F01BEF22F024EF22F0095044
:104438000A10D8A422EF22F024EF22F029EF22F06C
:104448000750DDEC28F05CEF22F020EE04F0095074
:10445800D9260A50DA22DE50DE10D8B436EF22F020
:1044680038EF22F053EF22F020EE04F00950D9265D
:104478000A50DA2210EE02F00950E1260A50E22230
:10448800DE50E65CE650800A0F6EDE50800A0F5858
:10449800D8B051EF22F053EF22F05CEF22F020EE7B
:1044A80002F00950D9260A50DA22DE2A000EDD224F
:1044B8001200FF00000000000000000000000000E3
:1044C80000000000000000000000000000000000E4
:1044D80000000000000000000000000000000000D4
:1044E80000000000000000000000000000000000C4
:1044F80000000000000000000000000000000000B4
:1045080000000000000000000000000000000000A3
:104518000000000000005041303036303330333076
:10452800302D0032FF0000000000000000000000F5
:1045380032333A33393A3238286E756C6C2900FFB9
:0545480000000000006E
:10454E00000E876E000E866E000E836E000E846E59
:10455E00000E856E070E8C6E070E886EBF0E896E6E
:10456E00BF0E8A6EFE0E8B6E0F0126693B0E216FFB
:10457E00370E196F070E2E6F1169000E256F000E84
:10458E002D6F000E186F000E106F000E206F000EB4
:10459E002C6F000E0F6F000E176F000E1F6F000EA8
:1045AE00246F0E6916691E692369070E2B6F0D693C
:1045BE0015691D6922690F0E2A6F170E0E01B56F50
:1045CE000B0EF56F090EFD6F0F0E8D6F12000E01A3
:1045DE00C59B040E056E420E066EC9EC28F00E0148
:1045EE00C599EE0E056E4C0E066EC4EC28F0080E44
:1045FE009F6E900E9D6E240E9E6EA00E9B6E030EF1
:10460E009C6E010E9C6EF40E056E510E066ED3EC72
:10461E0028F0DE0E056E510E066ECEEC28F0E40E7E
:10462E00056E510E066ED8EC28F0000E0001E06FFC
:10463E00000EE46F000EE36F100EFE6F000E596E4B
:10464E00000EE26F000EE16F0E01C58B12000E011F
:10465E00C59FBE0E056E3F0E066EB0EC28F00E0125
:10466E00C59D1E0E056E4C0E066EABEC28F0080EA8
:10467E000E019F6F900E9D6F240E9E6FA00E9B6F6E
:10468E00010E9C6FF20E056E510E066EBAEC28F0FE
:10469E00C40E056E510E066EB5EC28F0D80E056EE2
:1046AE00510E066EBFEC28F0000E0001E56F000EF5
:1046BE00E96F000EE86F200EFF6F000E5A6E000EAF
:1046CE00E76F000EE66F0E01C58F1200E9EC28F0C1
:1046DE0080EC28F00009D8B477EF23F079EF23F0BF
:1046EE006FEF23F0000E0C6E000E0B6E94EF23F0A6
:1046FE000B500624D96E0C500720DA6EDF5096EC64
:10470E0024F0A1EC28F00009D8B490EF23F092EF3A
:10471E0023F088EF23F00B4A0C2A08500B5C0C5048
:10472E00800A0A6E0950800A0A58D8A0A1EF23F019
:10473E00A3EF23F07FEF23F0120003C155F0566A6A
:10474E00C2EF23F0940E7D6FFD0E7E6F55C07FF08D
:10475E0056C080F0D8905534D96E5634DA6EB70EF6
:10476E00D926030EDA22DECF81F0DDCF82F0EBEC1C
:10477E0027F0554A562A0101065100018F6F906BA2
:10478E008F51555C5650800A916F9051800A915905
:10479E00D8A0D4EF23F0D6EF23F0A9EF23F0120028
:1047AE0079C053F07AC054F0000E0001CE6F000EA7
:1047BE00CD6FF5EF23F077C049F078C04AF0530E75
:1047CE004B6E000E4C6E7BC04DF07CC04EF0E6EC96
:1047DE0006F049500001CD274A50CE2353C0F6FFB4
:1047EE0054C0F7FFF86A0800F5500009D8A402EF8C
:1047FE0024F004EF24F0E2EF23F0CDC077F0CEC02A
:10480E0078F012000BC00FF00CC010F009C011F0C0
:10481E000AC012F00F500D6E10500E6E0F4A102A75
:10482E000DC0F6FF0EC0F7FF000EF86E11C0D9FFD7
:10483E0012C0DAFF114A122A0E0EF76403D00800D6
:10484E00F55005D0F6CFE9FFF7CFEAFFEF50DF6E58
:10485E00DF50D8A435EF24F037EF24F011EF24F019
:10486E0012009F0E0D6EFF0E0E6E0BC00FF00CC0E1
:10487E0010F00D500F260E50102210500AE11A0E95
:10488E000F5CD8A04DEF24F050EF24F0010E51EF45
:10489E0024F0000E116E126A11501210D8B45AEF95
:1048AE0024F05CEF24F062EF24F05F0E0B140B6E1D
:1048BE000C6A66EF24F00BC00BF00CC00CF012006B
:1048CE00056E0001FF51D8B46FEF24F071EF24F0A4
:1048DE0068EF24F00E01C5BD77EF24F079EF24F0D8
:1048EE007DEF24F005C09AFE93EF24F0C59D840E53
:1048FE000001E925D96EDA6A030EDA2205C0DFFF60
:10490E00E92B1F0EE9658EEF24F090EF24F092EF65
:10491E0024F0000EE96FFF070E01C58D1200056E23
:10492E000001FE51D8B49EEF24F0A0EF24F097EFD3
:10493E0024F00E01C5B9A6EF24F0A8EF24F0ACEFD9
:10494E0024F005C09AFFC2EF24F0C599C20E0001F3
:10495E00E425D96EDA6A020EDA2205C0DFFFE42BF7
:10496E000F0EE465BDEF24F0BFEF24F0C1EF24F08D
:10497E00000EE46FFE070E01C5891200560E0001EF
:10498E007D6FF50E7E6F8FC07FF090C080F091C06E
:10499E0081F092C082F0EBEC27F0000E566E000E06
:1049AE00556EE6EF24F08F515524056E905156202A
:1049BE00066EFF0E076E33EC26F0554A562A00019E
:1049CE009151555C92515658D8A0F0EF24F0F2EF69
:1049DE0024F0DAEF24F012000001E651D8B4FAEF19
:1049EE0024F0FCEF24F0F3EF24F0A20EE725D96EAD
:1049FE00DA6A020EDA22DF50E56F640EE725D96E11
:104A0E00DA6A030EDA22DF50056EE72B1F0EE7651A
:104A1E0013EF25F015EF25F017EF25F0000EE76FD9
:104A2E000E01C59F0001E6070E01C58F055012004D
:104A3E000001E151D8B426EF25F028EF25F01FEF45
:104A4E0025F0000EE225D96EDA6A030EDA22DF5067
:104A5E00E06F000EE225D96EDA6A040EDA22DF501C
:104A6E00056EE22B630EE2653FEF25F041EF25F078
:104A7E0043EF25F0000EE26F0E01C59B0001E1072A
:104A8E000E01C58B05501200010E0B6E200E05187F
:104A9E000610D8B455EF25F057EF25F070EF25F03E
:104AAE00F70E076EFF0E086E05C009F006C00AF07D
:104ABE000750092608500A220A5009E1050E095C22
:104ACE00D8A06CEF25F06EEF25F070EF25F0000EFC
:104ADE000B6E0BC005F0066A1200000E6A6E000E19
:104AEE006B6E000E6C6E000E6D6E000E686E000E1C
:104AFE00696E000E666E000E0F015F6F000E5D6F29
:104B0E00000E5E6F000E596F000E5A6F000E5B6F37
:104B1E00000E656E000E586F000E566F000E576F2A
:104B2E00940E606E0A0E5C6F120005C007F006C090
:104B3E0008F0A4EF25F0054A062A05C0F6FF06C0C8
:104B4E00F7FF000EF86E0E0EF76403D00800F55056
:104B5E0005D0F6CFE9FFF7CFEAFFEF500009D8A452
:104B6E00BBEF25F0BDEF25F0A2EF25F00750055C59
:104B7E00056E08500658066E1200000E066E000EE8
:104B8E00056E000E066E000E056E000E0524D96E23
:104B9E00010E0620DA6EFF0EDF6E054A062A06BEED
:104BAE00E2EF25F0065009E1630E055CD8A0E2EFB6
:104BBE0025F0E4EF25F0CCEF25F0000E0001DC6FC0
:104BCE00000EDB6F1200000E076E000E066E000E5A
:104BDE00076E000E066EFEEF25F0000E0624D96E4F
:104BEE00050E0720DA6EFF0EDF6E064A072A000159
:104BFE00D951065C0750800A056EDA51800A0558B5
:104C0E00D8A00CEF26F00EEF26F0F4EF25F01200F0
:104C1E00200E0001FF6116EF26F018EF26F030EFA0
:104C2E0026F0840EE825D96EDA6A030EDA22DF50FA
:104C3E000E019A6F0001E82B1F0EE86529EF26F092
:104C4E002BEF26F02DEF26F0000EE86FFF2B32EF44
:104C5E0026F00E01C59D1200000EF2BE010E086E6A
:104C6E000650030B7F6E05C07EFF07C080FF3F0E10
:104C7E0081168184F29E550E826EAA0E826E8182FC
:104C8E0081B24CEF26F04EEF26F047EF26F08194DE
:104C9E0008B002D0F29E01D0F28E1200000E166EF7
:104CAE00000E156E66EF26F014C007F0086A12C0EB
:104CBE0009F013C00AF012EC22F0154A162A15500C
:104CCE001024D96E16501120DA6EDF50146E145067
:104CDE00D8A474EF26F076EF26F05BEF26F01200E4
:104CEE00100E0001FE617EEF26F080EF26F096EFAB
:104CFE0026F0C20EE325D96EDA6A020EDA22DF50F2
:104D0E009A6EE32B0F0EE3658FEF26F091EF26F0F0
:104D1E0093EF26F0000EE36FFE2B98EF26F00E01B8
:104D2E00C5991200000E066E000E056E000E066E80
:104D3E00000E056E570E0524D96E020E0620DA6E91
:104D4E00FF0EDF6E054A062A06BEB7EF26F00650A6
:104D5E0009E1200E055CD8A0B7EF26F0B9EF26F0DA
:104D6E00A1EF26F0120020001F001E001D001C00E7
:104D7E001B001A0019001800170016001500140069
:104D8E0013001200110010000F000E000D000C0099
:104D9E000B000A00090008000700060005000400C9
:104DAE0003000200010001000200030004000500E0
:104DBE0006000700080009000A000B000C000D0099
:104DCE000E000F0010001100120013001400150049
:104DDE0016001700180019001A001B001C001D00F9
:104DEE001E001F00200018BE07EF27F0185006E126
:104DFE001704D8B005EF27F007EF27F015EF27F0CF
:104E0E0017C019F018C01AF0191E1A1E194A1A2ABC
:104E1E0019C017F01AC018F019EF27F017C017F0C5
:104E2E0018C018F012009F0E076EFF0E086E200EAF
:104E3E000510096E000E06100A6E0750092608505E
:104E4E000A220A500AE11A0E095CD8A031EF27F0A7
:104E5E0034EF27F0010E35EF27F0000E056E066ACF
:104E6E0012000001DF51D8A43FEF27F041EF27F0E9
:104E7E004BEF27F0010EDF6F6A0E7D6FFF0E7E6F18
:104E8E00EBEC27F053EF27F0000EDF6F490E7D6F2E
:104E9E00FF0E7E6FEBEC27F012009F0E076EFF0EDB
:104EAE00086E05C009F006C00AF007500926085022
:104EBE000A220A500AE11A0E095CD8A069EF27F0FF
:104ECE006CEF27F0010E6DEF27F0000E056E066AEF
:104EDE001200BF0E076EFF0E086E05C009F006C069
:104EEE000AF00750092608500A220A500AE11A0E43
:104EFE00095CD8A085EF27F088EF27F0010E89EF27
:104F0E0027F0000E056E066A1200D00E076EFF0E19
:104F1E00086E05C009F006C00AF0075009260850B1
:104F2E000A220A500AE10A0E095CD8A0A1EF27F066
:104F3E00A4EF27F0010EA5EF27F0000E056E066A0E
:104F4E001200096E09C05FFF608E609C608060B0C9
:104F5E00B3EF27F0B5EF27F0AEEF27F06450086EF1
:104F6E00076A63500724056E000E0820066E1200B5
:104F7E00640E5A24D96EDA6A030EDA2299CEDFFF56
:104F8E005A2A1F0E5A64CEEF27F0D0EF27F0D2EF39
:104F9E0027F0000E5A6E0001E62B1200000E592467
:104FAE00D96EDA6A040EDA2299CFDFFF592A630E20
:104FBE005964E4EF27F0E6EF27F0E8EF27F0000E54
:104FCE00596E0001E12B12007F0E00018D6F000E55
:104FDE008E6F000E776F000E786F7DC079F07EC0F9
:104FEE007AF08D0E7B6F000E7C6FD7EC23F01200E3
:104FFE0013C005F014C006F09CEC25F005501324E8
:10500E00096E065014200A6E15C00BF016C00CF077
:10501E0009EC24F0120005500702F3CF09F0F4CF8B
:10502E000AF005500802F3500A2606500702F35004
:10503E000A2609C005F00AC006F01200F5EC28F0A9
:10504E0036EC28F0A7EC22F05CEC28F0EEEC22F027
:10505E002EEC23F074EC25F0F7EC28F01200000E85
:10506E000E01E16F000EE26F000EE36F000EE46FB3
:10507E00000EE56F000EE66F12000001E651D8A497
:10508E004BEF28F04EEF28F0010E4FEF28F0000EF8
:10509E0012000650030B7F6E05C07EFF3F0E811679
:1050AE00818000F000F080501200600E0E01D86F6B
:1050BE00000EDA6F000EDC6F060EDE6F000EDD6F77
:1050CE0012000001FF51D8A46FEF28F072EF28F004
:1050DE00010E73EF28F0000E12000001E151D8A46A
:1050EE007BEF28F07EEF28F0010E7FEF28F0000E08
:1050FE0012000001FE51D8A487EF28F08AEF28F0A5
:10510E00010E8BEF28F0000E12000E019EB392EFEF
:10511E0028F095EF28F0010E96EF28F0000E120001
:10512E00323134333635383730395A00FF00FFFF0D
:10513E00080004009EB2A6EF28F0A9EF28F0010E99
:10514E00AAEF28F0000E120005C0EBF106C0ECF13C
:10515E00120005C0E9F106C0EAF1120005C0E1F146
:10516E0006C0E2F1120005C0E3F106C0E4F1120040
:10517E0005C0DFF106C0E0F1120005C0E7F106C080
:10518E00E8F1120005C0E5F106C0E6F1120005C017
:10519E00DBF106C0DCF1120005C0DDF106C0DEF168
:1051AE00120005C0D9F106C0DAF11200066E0650E3
:1051BE0067EC24F012000E019D999D8912008690D5
:1051CE0083961200868083861200BFEC27F01200B1
:1051DE009D989D881200D5EC27F01200F29A1200CD
:0851EE00609C12001200120087
:10F30200002020206465627567202D20546F676796
:10F312006C6573207472616365206F7574707574A7
:10F32200732E20536C6F777320646F776E2074692D
:10F332006D65206465766963652063616E20726520
:10F3420073706F6E64206265747765656E20636F9B
:10F352006D6D616E64732E2044454641554C5420B8
:10F362004F4E210D0A0A00202020202020416464F3
:10F372002030783030303020746F203078303033A5
:10F3820031202D20333278204369726375697420ED
:10F39200476574205374617475732020286C6F77ED
:10F3A2006572203862697473206F6E6C79290D0A58
:10F3B2000A00202020202020416464203078303050
:10F3C200303020746F20307830303331202D2033AC
:10F3D20032782043697263756974205365742053CF
:10F3E20074617475732020286C6F7765722038629F
:10F3F200697473206F6E6C79290D0A0A002020202F
:10F402002020204164642030783030303020746F06
:10F4120020307830303331202D2033327820436948
:10F4220072637569742047657420537461747573CF
:10F4320020286C6F776572203862697473206F6E52
:10F442006C79290D0A0020202020202041646420AC
:10F4520030783036303020746F20307830363032A9
:10F46200202D20337820416E616C6F6775652049CD
:10F472006E707574732028307830303020746F20AD
:10F48200307830336666290D0A0A00202020307851
:10F492003130202D205772697465204D756C746966
:10F4A200706C65204F757470757420486F6C646958
:10F4B2006E672052656769737465727320284D61A7
:10F4C2007820333278203136626974290D0A00209F
:10F4D200202030783033202D2052656164204D7514
:10F4E2006C7469706C65204F757470757420486F08
:10F4F2006C64696E67205265676973746572732004
:10F50200284D617820333278203136626974290DB2
:10F512000A002020204279746520253032693A2081
:10F52200307825303278202D2052656720256920D9
:10F53200486920284164642E2030782530327825AD
:10F54200303278202F2043697263756974202569EF
:10F55200290D0A00436C656172696E67204545504A
:10F56200524F4D2066726F6D2041646472657373F1
:10F572003A2030782530347820666F72206E756DAF
:10F582002062797465733A202569200D0A002020D3
:10F5920020427974652030313A2030782530327833
:10F5A200202D2046756E6374696F6E20436F64650B
:10F5B20020285772697465204D756C7469205265F4
:10F5C20067290D0A00202020202020416464203079
:10F5D200783035303020746F203078303530342038
:10F5E2002D20436F6D70696C652054696D65202D07
:10F5F20020284153434949290D0A00436F6D706C1D
:10F602006574656420416464696E67207278446140
:10F6120074612042756666657220746F204D6F6456
:10F62200627573446174612041727261790D0A0AD4
:10F6320000202020427974652030313A203078252C
:10F64200303278202D2046756E6374696F6E2043C8
:10F652006F6465202852656164204D756C74692061
:10F66200526567290D0A0020202042797465202501
:10F672003032693A20307825303278202D20526598
:10F682006720256920486920284164642E2030784B
:10F69200253032782025303278290D0A00526571E2
:10F6A20075657374656420726567697374657273D6
:10F6B200206F7574206F662072616E67652E202040
:10F6C20030783030303020746F2030783032302E45
:10F6D2000D0A002020202020204164642030783050
:10F6E20033303020746F20307830333034202D2086
:10F6F20053657269616C204E756D62657220284196
:10F7020053434949290D0A0020202020202041642A
:10F71200642030783034303020746F2030783034C8
:10F722003035202D20436F6D70696C652044617403
:10F732006520284153434949290D0A0052656769EA
:10F742007374657273206F7574206F662072616EB8
:10F7520067652E0D0A56616C69643A203078303044
:10F76200303020746F203078303033312E0D0A0063
:10F77200526567697374657273206F7574206F6662
:10F782002072616E67652E0D0A56616C69643A20BB
:10F7920030783036303020746F2030783036303266
:10F7A2002E0D0A00526567697374657273206F7556
:10F7B20074206F662072616E67652E0D0A56616C49
:10F7C20069643A2030783035303020746F203078D8
:10F7D200303530332E0D0A005265676973746572D5
:10F7E20073206F7574206F662072616E67652E0DCF
:10F7F2000A56616C69643A203078303330302074B4
:10F802006F203078303330342E0D0A00526567692C
:10F812007374657273206F7574206F662072616EE7
:10F8220067652E0D0A56616C69643A20307830346F
:10F83200303020746F203078303430352E0D0A008D
:10F84200526567697374657273206F7574206F6691
:10F852002072616E67652E0D0A56616C69643A20EA
:10F8620030783031303020746F2030783031303899
:10F872002E0D0A00202020202020416464203078B0
:10F882003031303020746F20307830313038202DD4
:10F892002050617274204E756D626572202841534A
:10F8A200434949290D0A002020203F202D20496E7E
:10F8B2006974616C69736520616E64206469737038
:10F8C2006C617920636172642064657461696C7330
:10F8D2000D0A00436F6D70696C6564206F6E2025A0
:10F8E2007320617420257320627920584338207672
:10F8F200657273696F6E2025750D0A0A002020203B
:10F9020030783034202D2052656164204D756C743E
:10F9120069706C652031366269742052656769735B
:10F92200746572730D0A0052656769737465727348
:10F93200206F7574206F662072616E67652E0D0AE6
:10F9420056616C69643A203078303531322E0D0AB6
:10F95200000D0A44616E20616E642053616D27734D
:10F96200204D6F64627573204750494F204578706F
:10F97200616E73696F6E0D0A0020202020202041E5
:10F98200646420307830323030202D205265766920
:10F9920073696F6E20284153434949290D0A000DAE
:10F9A2000A456E7465722063617264202573202893
:10F9B2006D61782025692063686172616374657284
:10F9C20073293A2000202020427974652030323A8F
:10F9D20020307825303278202D204E756D204279E6
:10F9E200746573204D6F72650D0A002020204279E4
:10F9F20074652030363A20307825303278202D2038
:10FA02004E756D204279746573204D6F72650D0AD3
:10FA120000202020427974652030323A2030782547
:10FA2200303278202D203173742052656720416472
:10FA3200642048690D0A0020202042797465203034
:10FA4200333A20307825303278202D2031737420DB
:10FA520052656720416464204C6F0D0A002020200B
:10FA620073657269616C202D205365742063617225
:10FA7200642073657269616C206E756D6265720DCA
:10FA82000A000D0A5265636569766564204D6F64EC
:10FA92006275732043524320636865636B6564201B
:10FAA2006F75742E0D0A0020202042797465203073
:10FAB200343A20307825303278202D204E756D2052
:10FAC2006F66205265672048690D0A002020204297
:10FAD2007974652030353A20307825303278202DFF
:10FAE200204E756D206F6620526567204C6F0D0A9F
:10FAF20000526571756573746564204F7574707515
:10FB02007420486F6C64696E67205265676973740C
:10FB12006572730D0A004D6F646275732046756ECF
:10FB22006374696F6E20436F6465732053757070E0
:10FB32006F727465643A0D0A0A00637263486967FA
:10FB4200683A2030782530327820206372634C6F17
:10FB5200773A2030782530327820200D0A00202094
:10FB620020427974652030303A203078253032785E
:10FB7200202D204361726420416464726573730DA9
:10FB82000A002020204279746520253032693A200B
:10FB9200307825303278202D205265672025692063
:10FBA2004C6F0D0A00496E6974616C697361746906
:10FBB2006F6E20436F6D706C657465202D205265E9
:10FBC2006164790D0A0A0020202070617274202D70
:10FBD2002053657420636172642070617274206EB8
