:020000040000FA
:0400000093EF00F08A
:100008005B82FACF01F0FBCF02F0D9CF03F0DACF51
:1000180004F0F2AC12EF00F014EF00F089EF00F0FA
:100028000E01C5AD1AEF00F01CEF00F032EF00F042
:10003800CDAD21EF00F023EF00F032EF00F002D851
:1000480030EF00F00500FA6E0001C251FD6EC35199
:10005800FE6EFF6AFA50120089EF00F0C5AF37EF65
:1000680000F039EF00F04FEF00F0CDAF3EEF00F0B9
:1000780040EF00F04FEF00F002D84DEF00F0050020
:10008800FA6E0001C051FD6EC151FE6EFF6AFA5052
:10009800120089EF00F0C5A954EF00F056EF00F008
:1000A8006CEF00F0CDA95BEF00F05DEF00F06CEFB6
:1000B80000F002D86AEF00F00500FA6E0001BE51A8
:1000C800FD6EBF51FE6EFF6AFA50120089EF00F014
:1000D800C5AB71EF00F073EF00F089EF00F0CDAB26
:1000E80078EF00F07AEF00F089EF00F002D887EFA0
:1000F80000F00500FA6E0001BC51FD6EBD51FE6EA8
:10010800FF6AFA50120089EF00F004C0DAFF03C05A
:10011800D9FF02C0FBFF01C0FAFF5B9211003DEF5F
:020128000BF0DA
:100F000000455553415254312072656365697665D9
:100F100064206461746120616E642069732072656D
:100F200061647920746F20626520726561642E0DA2
:100F30000A0A00455553415254312057726974656D
:100F40002053656E743A202563200D0A0A0052650D
:100F500061642064617461207278446174613A2034
:100F60002563200D0A0A004555534152543120543F
:100F7000582069732052656164790D0A0A00496E30
:100F80006974616C697365640D0A0A0054584D6F89
:070F900064650D0A0A000070
:100F980029C0D9FF2AC0DAFFDECFF6FFDDCFF7FF81
:100FA800F86A0800F550250AD8A4DDEF07F0DFEF4E
:100FB80007F061EF08F029C0D9FF2AC0DAFFDE2A5E
:100FC800000EDD22000E416E000E406E40C044F05F
:100FD80041C045F04268436829C0D9FF2AC0DAFFFA
:100FE800DECFF6FFDDCFF7FFF86A0800F550630A99
:100FF800D8A401EF08F003EF08F02AEF08F029C0A1
:10100800D9FF2AC0DAFFDE2A000EDD222BC0D9FF65
:101018002CC0DAFFDFCF2DF0020EDE26DFCF2EF058
:10102800000EDD222DC0D9FF2EC0DAFFDF502F6E53
:1010380027C022F028C023F02FC024F06AEC0BF060
:1010480022C027F023C028F07DEF08F029C0D9FF7F
:101058002AC0DAFFDECFF6FFDDCFF7FFF86A080017
:10106800F550250AD8A43BEF08F03DEF08F054EFFF
:1010780008F029C0D9FF2AC0DAFFDE2A000EDD22D7
:10108800000E086E250E076E27C009F028C00AF06A
:1010980000EC0AF0000E286E010E276E7DEF08F0B6
:1010A80029C0D9FF2AC0DAFFDE2A000EDD22000E91
:1010B800286E000E276E7DEF08F029C0D9FF2AC0E0
:1010C800DAFFDECFF6FFDDCFF7FFF86A0800F5504C
:1010D800076E086A27C009F028C00AF000EC0AF079
:1010E80029C0D9FF2AC0DAFFDE2A000EDD224EEF22
:1010F80008F01200E4EC0CF0F28EF28C8398839ADC
:10110800839C839E310E3D6E7E0E386E0F0E396EB7
:10111800C2EC0CF05BEC0DF013EC0DF00009D8B448
:1011280098EF08F09AEF08F08EEF08F0010E386E8D
:101138000F0E396EC2EC0CF08388EFEC0BF03D6EAD
:101148004E0E386E0F0E396E3DC03AF03B6AC2EC57
:101158000CF008EC0DF00009D8B4B5EF08F0B7EFC3
:1011680008F08EEF08F0670E386E0F0E396EC2EC7D
:101178000CF0FDEC0CF03D50C3EC0BF0330E386E68
:101188000F0E396E3DC03AF03B6AC2EC0CF083BAE0
:10119800D0EF08F0D3EF08F0010ED4EF08F0000EFE
:1011A800FF0A3C6E3C3A3C4683503C18DF0B3C1827
:1011B800836E8EEF08F093EF00F044A0E6EF08F09E
:1011C800E8EF08F0F2EF08F019C010F01AC011F0BB
:1011D80017C012F018C013F018EC0CF01CBEF7EF93
:1011E80008F0F9EF08F0FFEF08F01BC020F01CC072
:1011F80021F003EF09F0000E216E000E206E000EA4
:101208001F6E000E1E6E15EF09F0000E086E200E00
:10121800076E17C009F018C00AF000EC0AF01E4A61
:101228001F2A20501E5C1F50800A1D6E2150800A04
:101238001D58D8A022EF09F024EF09F009EF09F0B2
:1012480044B029EF09F02BEF09F035EF09F019C088
:1012580010F01AC011F017C012F018C013F018ECF3
:101268000CF019C005F01AC006F07DEC0CF0205007
:101278000524176E21500620186E1200780E54248B
:10128800D96EDA6A000EDA22000EDF6E0E019DA515
:1012980050EF09F052EF09F066EF09F0780E542488
:1012A800D96EDA6A000EDA220001DF8202D866EF10
:1012B80009F00500FA6EBA51FD6EBB51FE6EFF6A69
:1012C800FA5012000E019DA36CEF09F06EEF09F0C1
:1012D80082EF09F0780E5424D96EDA6A000EDA2209
:1012E8000001DF8402D882EF09F00500FA6EB851D8
:1012F800FD6EB951FE6EFF6AFA501200780E542442
:10130800D96EDA6A000EDA22DF50D8B48EEF09F00F
:1013180090EF09F09FEF09F002D89DEF09F0050062
:10132800FA6E0001B651FD6EB751FE6EFF6AFA50B3
:101338001200A1EF09F098EC0CF01200600E4E2498
:10134800D96EDA6A000EDA22000EDF6E9DA4AFEFC6
:1013580009F0B1EF09F0C5EF09F0600E4E24D96E1F
:10136800DA6A000EDA220001DF8202D8C5EF09F03E
:101378000500FA6EB451FD6EB551FE6EFF6AFA5063
:1013880012009DA2CAEF09F0CCEF09F0E0EF09F0D6
:10139800600E4E24D96EDA6A000EDA220001DF846C
:1013A80002D8E0EF09F00500FA6EB251FD6EB351B4
:1013B800FE6EFF6AFA501200600E4E24D96EDA6A89
:1013C800000EDA22DF50D8B4ECEF09F0EEEF09F0A6
:1013D800FDEF09F002D8FBEF09F00500FA6E0001F5
:1013E800B051FD6EB151FE6EFF6AFA501200FFEF68
:1013F80009F0ADEC0CF0120009500A10D8B407EF50
:101408000AF009EF0AF012EF0AF009500A10D8A4FE
:1014180010EF0AF012EF0AF017EF0AF0075024EC69
:101428000DF04AEF0AF020EE04F00950D9260A50D0
:10143800DA22DE50DE10D8B424EF0AF026EF0AF0E4
:1014480041EF0AF020EE04F00950D9260A50DA22BA
:1014580010EE02F00950E1260A50E222DE50E65C66
:10146800E650800A0F6EDE50800A0F58D8B03FEF62
:101478000AF041EF0AF04AEF0AF020EE02F00950B4
:10148800D9260A50DA22DE2A000EDD221200000ECA
:10149800876E000E866E000E836E000E846E000E40
:1014A800856E070E8C6E070E886EBF0E896EBF0E96
:1014B8008A6EFE0E8B6E0F0126693B0E216F370E6A
:1014C800196F070E2E6F1169000E256F000E2D6F14
:1014D800000E186F000E106F000E206F000E2C6F9C
:1014E800000E0F6F000E176F000E1F6F000E246F97
:1014F8000E6916691E692369070E2B6F0D69156938
:101508001D6922690F0E2A6F170E0E01B56F0B0E9B
:10151800F56F090EFD6F0F0E8D6F12000E01C59F3E
:10152800840E056E120E066E2EEC0DF00E01C59D92
:10153800740E056E180E066E29EC0DF0080E0E01DD
:101548009F6F900E9D6F240E9E6F400E9B6F030E33
:101558009C6FE00E056E1A0E066E38EC0DF0C00E8C
:10156800056E1A0E066E33EC0DF0C80E056E1A0ED7
:10157800066E3DEC0DF0000E516E000E566E000E1C
:10158800556E080E586E000E546E000E536E000E07
:10159800526E0E01C58F12000E01C59B440E056EDA
:1015A800130E066E47EC0DF00E01C599B80E056EC8
:1015B800180E066E42EC0DF0080E9F6E900E9D6E92
:1015C800240E9E6E400E9B6E030E9C6EE20E056E00
:1015D8001A0E066E51EC0DF0CE0E056E1A0E066E42
:1015E8004CEC0DF0D40E056E1A0E066E56EC0DF08E
:1015F800000E4B6E000E506E000E4F6E080E576EAA
:10160800000E4E6E000E4D6E000E4C6E0E01C58B18
:10161800120032C036F033C037F0000E3F6E000EB5
:101628003E6E29EF0BF030C027F031C028F0360E9F
:10163800296E000E2A6E34C02BF035C02CF0CCEC8D
:1016480007F027503E2628503F2236C0F6FF37C005
:10165800F7FFF86A0800F5500009D8A436EF0BF038
:1016680038EF0BF017EF0BF03EC030F03FC031F011
:1016780012003C0EF66E1A0EF76E000EF86E00EEB3
:10168800C4F010EE0BF00900F5CFEEFFE550E15085
:10169800FAE1DE0EF66E1A0EF76E000EF86E09000D
:1016A800F5CF59F00900F5CF5AF000EE60F0500E72
:1016B800EE6AE806FDE100EE3EF0190EEE6AE80675
:1016C800FDE15B905B9200017EEF08F04050411015
:1016D800D8A471EF0BF073EF0BF079EF0BF040C06B
:1016E80025F041C026F07FEF0BF0FF0E4024256E59
:1016F800FF0E4120266E24C090F0000E0001916F6D
:1017080022C017F023C018F0900E196E000E1A6E42
:1017180025C01BF026C01CF0E1EC08F017C022F031
:1017280018C023F01200056E5850D8B49EEF0BF085
:10173800A0EF0BF098EF0BF00E01C5BDA6EF0BF074
:10174800A8EF0BF0ACEF0BF005C09AFEC1EF0BF061
:10175800C59D880E5624D96EDA6A000EDA2205C0B5
:10176800DFFF562A070E5664BCEF0BF0BEEF0BF0F6
:10177800C0EF0BF0000E566E5806C58D1200056EB0
:101788005750D8B4CAEF0BF0CCEF0BF0C4EF0BF006
:101798000E01C5B9D2EF0BF0D4EF0BF0D8EF0BF078
:1017A80005C09AFFEDEF0BF0C599700E5024D96E65
:1017B800DA6A000EDA2205C0DFFF502A070E5064ED
:1017C800E8EF0BF0EAEF0BF0ECEF0BF0000E506EC9
:1017D8005706C58912004C50D8B4F5EF0BF0F7EF57
:1017E8000BF0EFEF0BF0600E4D24D96EDA6A000EA5
:1017F800DA22DF504B6E680E4D24D96EDA6A000E7D
:10180800DA22DF50056E4D2A070E4D640EEF0CF0FC
:1018180010EF0CF012EF0CF0000E4D6E0E01C59B90
:101828004C06C58B05501200000E166E000E156E84
:1018380029EF0CF014C007F0086A12C009F013C0B1
:101848000AF000EC0AF0154A162A15501024D96E31
:1018580016501120DA6EDF50146E1450D8A437EFEA
:101868000CF039EF0CF01EEF0CF01200080E586067
:1018780040EF0CF042EF0CF059EF0CF0880E5524B5
:10188800D96EDA6A000EDA22DF500E019A6F552AF5
:10189800070E556452EF0CF054EF0CF056EF0CF0B5
:1018A800000E556E582A5BEF0CF00E01C59D120014
:1018B800080E576062EF0CF064EF0CF07AEF0CF052
:1018C800700E4F24D96EDA6A000EDA22DF509A6E53
:1018D8004F2A070E4F6473EF0CF075EF0CF077EF9B
:1018E8000CF0000E4F6E572A7CEF0CF00E01C599D4
:1018F800120005C007F006C008F085EF0CF0054A95
:10190800062A05C0D9FF06C0DAFFDF50D8A48FEF3A
:101918000CF091EF0CF083EF0CF00750055C056EAE
:1019280008500658066E1200800E5424D96EDA6AE2
:10193800000EDA2299CEDFFF542A070E5464A7EF6F
:101948000CF0A9EF0CF0ABEF0CF0000E546E522A1D
:101958001200680E4E24D96EDA6A000EDA2299CF88
:10196800DFFF4E2A070E4E64BCEF0CF0BEEF0CF002
:10197800C0EF0CF0000E4E6E4C2A12003A0E000119
:10198800D16F000ED26F000E306E000E316E38C06F
:1019980032F039C033F0D10E346E000E356E0DECD6
:1019A8000BF01200000E0E01E16F000EE26F000E48
:1019B800E36F000EE46F000EE56F000EE66F120095
:1019C8006DEC0DF0D6EC0CF04BEC0AF0F1EC0CF0F1
:1019D800D0EC0AF092EC0AF01200600E0E01D86FFB
:1019E800000EDA6F000EDC6F060EDE6F000EDD6F84
:1019F800120086808386838E839C8C0E386E0F0E31
:101A0800396EC2EC0CF012005750D8A40EEF0DF04E
:101A180011EF0DF0010E12EF0DF0000E12004C50F8
:101A2800D8A419EF0DF01CEF0DF0010E1DEF0DF00D
:0F1A3800000E1200110306AE415652434049AD55
:101A4800066E065097EC0BF0120005C0C2F006C0F7
:101A5800C3F0120005C0C0F006C0C1F0120005C0F6
:101A6800B8F006C0B9F0120005C0BAF006C0BBF065
:101A7800120005C0B6F006C0B7F0120005C0BEF0EF
:101A880006C0BFF0120005C0BCF006C0BDF01200D1
:101A980005C0B2F006C0B3F0120005C0B4F006C02D
:101AA800B5F0120005C0B0F006C0B1F01200869083
:101AB8008396839E838C12000E019D999D89120046
:101AC80098EC0CF012009D989D881200ADEC0CF07B
:0C1AD8001200F29A12005A0012001200D4
:020000040020DA
:10000000FF0FFF0FFF0FFF0FFF0FFF0FFF0FFF0F80
:020000040030CA
:0C000000ECFFFFFF9FFFFFFFFFFFFFFF73
:00000001FF
