:020000040000FA
:0400000093EF00F08A
:100008005B82FACF01F0FBCF02F0D9CF03F0DACF51
:1000180004F0F2AC12EF00F014EF00F089EF00F0FA
:100028000E01C5AD1AEF00F01CEF00F032EF00F042
:10003800CDAD21EF00F023EF00F032EF00F002D851
:1000480030EF00F00500FA6E0101FC51FD6EFD5124
:10005800FE6EFF6AFA50120089EF00F0C5AF37EF65
:1000680000F039EF00F04FEF00F0CDAF3EEF00F0B9
:1000780040EF00F04FEF00F002D84DEF00F0050020
:10008800FA6E0101FA51FD6EFB51FE6EFF6AFA50DD
:10009800120089EF00F0C5A954EF00F056EF00F008
:1000A8006CEF00F0CDA95BEF00F05DEF00F06CEFB6
:1000B80000F002D86AEF00F00500FA6E0101F8516D
:1000C800FD6EF951FE6EFF6AFA50120089EF00F0DA
:1000D800C5AB71EF00F073EF00F089EF00F0CDAB26
:1000E80078EF00F07AEF00F089EF00F002D887EFA0
:1000F80000F00500FA6E0101F651FD6EF751FE6E33
:10010800FF6AFA50120089EF00F004C0DAFF03C05A
:10011800D9FF02C0FBFF01C0FAFF5B921100A4EFF8
:1001280014F04BC0D9FF4CC0DAFFDECFF6FFDDCFAD
:10013800F7FFF86A0800F550250AD8A4A6EF00F0E2
:10014800A8EF00F03DEF03F04BC0D9FF4CC0DAFF39
:10015800DE2A000EDD22000E0001CA6F000EC96FF4
:10016800C9C057F0CAC058F0CB69CC69000E6C6F93
:10017800000E6B6F07EF01F057804BC0D9FF4CC0E2
:10018800DAFFDE2A000EDD2207EF01F05782C1EF09
:1001980000F05784C1EF00F05786C1EF00F0578890
:1001A800C1EF00F0000E6C6F010E6B6F07EF01F0EE
:1001B8004BC0D9FF4CC0DAFFDECFF6FFDDCFF7FF2B
:1001C800F86A0800F5504F6E506A5050000AD8B4CB
:1001D800F0EF00F0D6EF00F04F50200AD8B4D0EF7F
:1001E80000F0030AD8B4D3EF00F0080AD8B4CDEF72
:1001F80000F0060AD8B4C0EF00F01D0AD8B4CAEF60
:1002080000F0D6EF00F06B516C11D8B40EEF01F08E
:1002180010EF01F0DCEF00F057A015EF01F017EF39
:1002280001F018EF01F057924BC0D9FF4CC0DAFF2C
:10023800DECFF6FFDDCFF7FFF86A0800F5502A0A8F
:10024800D8A429EF01F02BEF01F054EF01F04BC0D7
:10025800D9FF4CC0DAFFDE2A000EDD224DC0D9FFDF
:100268004EC0DAFFDFCF4FF0020EDE26DFCF50F0B0
:10027800000EDD224FC0D9FF50C0DAFFDECFC9F033
:10028800DDCFCAF0CABF4DEF01F04BEF01F099EF97
:1002980001F05780C96DCA1FD8B0CA2B99EF01F079
:1002A8004BC0D9FF4CC0DAFFDECF0CF0DDCF0DF02C
:1002B800D3EC0FF00CC0C9F00DC0CAF06BEF01F021
:1002C8004BC0D9FF4CC0DAFFDE2A000EDD22D00E6B
:1002D8004F6EFF0E506E4BC0D9FF4CC0DAFFDECF19
:1002E800F6FFDDCFF7FFF86A0800F550516E526A45
:1002F8004F5051265050522252500AE10A0E515C7A
:10030800D8A089EF01F08CEF01F0010E8DEF01F01C
:10031800000E00016D6F6E6B6D516E11D8A497EFD2
:1003280001F099EF01F064EF01F04BC0D9FF4CC028
:10033800DAFFDECFF6FFDDCFF7FFF86A0800F550E9
:10034800640AD8B4AAEF01F0ACEF01F0BFEF01F0F6
:100358004BC0D9FF4CC0DAFFDECFF6FFDDCFF7FF89
:10036800F86A0800F550690AD8A4BDEF01F0BFEF9C
:1003780001F0FFEF01F04BC0D9FF4CC0DAFFDE2AD5
:10038800000EDD224DC0D9FF4EC0DAFFDFCF4FF09F
:10039800020EDE26DFCF50F0000EDD224FC0D9FF5F
:1003A80050C0DAFFDECF60F0DDCF61F0000E61BF34
:1003B800FF0E626F636F646F656F666F676F49C02A
:1003C80022F04AC023F060C024F061C025F062C06A
:1003D80026F063C027F064C028F065C029F066C025
:1003E8002AF067C02BF09DEC07F022C049F023C02B
:1003F8004AF059EF03F04BC0D9FF4CC0DAFFDECF0B
:10040800F6FFDDCFF7FFF86A0800F550730AD8A4A5
:1004180010EF02F012EF02F03DEF02F04BC0D9FFEF
:100428004CC0DAFFDE2A000EDD224DC0D9FF4EC0D7
:10043800DAFFDFCF4FF0020EDE26DFCF50F0000EDE
:10044800DD224FC0D9FF50C0DAFFDECF68F0DDCF24
:1004580069F049C010F04AC011F068C012F069C0D4
:1004680013F006EC0FF010C049F011C04AF059EF34
:1004780003F04BC0D9FF4CC0DAFFDECFF6FFDDCF6B
:10048800F7FFF86A0800F550750AD8A44EEF02F095
:1004980050EF02F091EF02F04BC0D9FF4CC0DAFFE9
:1004A800DE2A000EDD224DC0D9FF4EC0DAFFDFCFB5
:1004B8004FF0020EDE26DFCF50F0000EDD224FC0D7
:1004C800D9FF50C0DAFFDECF51F0DDCF52F051C076
:1004D8006FF052C070F0716B726B736B746B756BED
:1004E800766B49C022F04AC023F06FC024F070C078
:1004F80025F071C026F072C027F073C028F074C0D0
:1005080029F075C02AF076C02BF078EC0AF022C0EA
:1005180049F023C04AF059EF03F04BC0D9FF4CC053
:10052800DAFFDECFF6FFDDCFF7FFF86A0800F550F7
:10053800780AD8B4A2EF02F0A4EF02F0B7EF02F005
:100548004BC0D9FF4CC0DAFFDECFF6FFDDCFF7FF97
:10055800F86A0800F550580AD8A4B5EF02F0B7EFCA
:1005680002F006EF03F04BC0D9FF4CC0DAFFDECF34
:10057800F6FFDDCFF7FFF86A0800F5CF6AF04BC049
:10058800D9FF4CC0DAFFDE2A000EDD224DC0D9FFAC
:100598004EC0DAFFDFCF4FF0020EDE26DFCF50F07D
:1005A800000EDD224FC0D9FF50C0DAFFDECF51F078
:1005B800DDCF52F051C06FF052C070F0716B726BAA
:1005C800736B746B756B766B49C022F04AC023F06D
:1005D8006FC024F070C025F071C026F072C027F0FB
:1005E80073C028F074C029F075C02AF076C02BF0CB
:1005F8006AC02CF00DEC09F022C049F023C04AF083
:1006080059EF03F04BC0D9FF4CC0DAFFDECFF6FF3D
:10061800DDCFF7FFF86A0800F550250AD8A417EFD0
:1006280003F019EF03F030EF03F04BC0D9FF4CC0D3
:10063800DAFFDE2A000EDD22000E086E250E076E98
:1006480049C009F04AC00AF0F3EC19F0000E4A6EEE
:10065800010E496E59EF03F04BC0D9FF4CC0DAFFC9
:10066800DE2A000EDD22000E4A6E000E496E59EF9A
:1006780003F04BC0D9FF4CC0DAFFDECFF6FFDDCF69
:10068800F7FFF86A0800F550076E086A49C009F0D4
:100698004AC00AF0F3EC19F04BC0D9FF4CC0DAFF9E
:1006A800DE2A000EDD222AEF03F01200000E000100
:1006B800D26F000ED16FA00ED125D96E020ED221B5
:1006C800DA6E00C2DFFFD14BD22BA00ED125D96E36
:1006D800020ED221DA6E01C2DFFFD14BD22B02010A
:1006E8000551020DA00E0001D125D96E020ED221AE
:1006F800DA6EF3CFDFFFD14BD22BBBEF03F0CF0E77
:100708007D6FFD0E7E6FE9EC1FF0E6EF03F0A90E9A
:100718007D6FFE0E7E6FE9EC1FF0E6EF03F0BF0E73
:100728007D6FFE0E7E6FE9EC1FF0E6EF03F0360EEC
:100738007D6FFE0E7E6FE9EC1FF0E6EF03F0030E0F
:100748007D6FFE0E7E6FE9EC1FF0E6EF03F0E90E19
:100758007D6FFD0E7E6FE9EC1FF0E6EF03F0430EB0
:100768007D6FFD0E7E6FE9EC1FF0E6EF03F00201EE
:1007780002510001896F8A6B8A51000AD8B4C7EF09
:1007880003F0E6EF03F08951000AD8B483EF03F0D1
:10079800010AD8B48BEF03F0030AD8B493EF03F03F
:1007A800010AD8B49BEF03F0070AD8B4A3EF03F00B
:1007B800010AD8B4ABEF03F0030AD8B4B3EF03F0DF
:1007C800E6EF03F0000E0001906F000E8F6F83EFCD
:1007D80005F0030E02010219D8A4F5EF03F0F7EFB4
:1007E80003F028EF04F0035100018F25896F000EF4
:1007F80090218A6FD89089378A37350E8925D96E26
:10080800010E8A21DA6EDECF8BF0DDCF8CF08B51B2
:10081800F66FF76B0201035100018F25896F000EF7
:1008280090218A6FD89089378A37350E8925D96EF5
:10083800010E8A21DA6EDECF8BF0DDCF8CF08C5181
:10084800CF6FD06B6CEF05F00205D8A42EEF04F043
:1008580030EF04F061EF04F0035100018F25896F38
:10086800000E90218A6FD89089378A37100E892513
:10087800D96E010E8A21DA6EDECF8BF0DDCF8CF0D7
:100888008B51F66FF76B0201035100018F25896FB9
:10089800000E90218A6FD89089378A37100E8925E3
:1008A800D96E010E8A21DA6EDECF8BF0DDCF8CF0A7
:1008B8008C51CF6FD06B6CEF05F0020E0219D8A4E3
:1008C80068EF04F06AEF04F09BEF04F003510001B5
:1008D8008F25896F000E90218A6FD89089378A37C3
:1008E800FC0E8925D96E000E8A21DA6EDECF8BF0D8
:1008F800DDCF8CF08B51F66FF76B020103510001CD
:100908008F25896F000E90218A6FD89089378A3792
:10091800FC0E8925D96E000E8A21DA6EDECF8BF0A7
:10092800DDCF8CF08C51CF6FD06B6CEF05F0040EDF
:100938000219D8A4A2EF04F0A4EF04F0D5EF04F054
:10094800035100018F25896F000E90218A6FD8907E
:1009580089378A371E0E8925D96E010E8A21DA6EEB
:10096800DECF8BF0DDCF8CF08B51F66FF76B020189
:10097800035100018F25896F000E90218A6FD8904E
:1009880089378A371E0E8925D96E010E8A21DA6EBB
:10099800DECF8BF0DDCF8CF08C51CF6FD06B6CEF4E
:1009A80005F0050E0219D8A4DCEF04F0DEEF04F020
:1009B8000FEF05F0035100018F25896F000E90217C
:1009C8008A6FD89089378A37000E8925D96E010E2B
:1009D8008A21DA6EDECF8BF0DDCF8CF08B51F66F8B
:1009E800F76B0201035100018F25896F000E9021DA
:1009F8008A6FD89089378A37000E8925D96E010EFB
:100A08008A21DA6EDECF8BF0DDCF8CF08C51CF6F80
:100A1800D06B6CEF05F00251D8A415EF05F017EF75
:100A280005F048EF05F0035100018F25896F000E8E
:100A380090218A6FD89089378A37B70E8925D96E61
:100A4800030E8A21DA6EDECF8BF0DDCF8CF08B516E
:100A5800F66FF76B0201035100018F25896F000EB5
:100A680090218A6FD89089378A37B70E8925D96E31
:100A7800030E8A21DA6EDECF8BF0DDCF8CF08C513D
:100A8800CF6FD06B6CEF05F0060E0219D8A44FEFAC
:100A980005F051EF05F06CEF05F0000EA6EC1FF025
:100AA80005C08DF006C08EF09A0E00017D6FFF0E16
:100AB8007E6F8DC07FF08EC080F0E9EC1FF00001E2
:100AC8008D51F66FF76B8E51CF6FD06B6CEF05F0D1
:100AD800A00E0001D125D96E020ED221DA6ECFC048
:100AE800DFFFD14BD22BA00ED125D96E020ED22119
:100AF800DA6EF6C0DFFFD14BD22B8F4B902B020161
:100B080005510001896F8A6B89518F5D9051800A68
:100B18008B6F8A51800A8B59D8A095EF05F097EF13
:100B280005F0EDEF03F0D1C005F0D2C006F0010EDC
:100B3800076E7DEC16F005C0CFF006C0D0F0D1C02E
:100B480005F0D2C006F0000E076E7DEC16F005C069
:100B5800F6F006C0F7F0A00E0001D125D96E020EFE
:100B6800D221DA6ECFC0DFFFA10ED125D96E020ED9
:100B7800D221DA6EF6C0DFFF020ED125D16F000E4A
:100B8800D221D26FA00E066E020E076ED1C008F0F9
:100B9800D2C009F040EC1BF012000001BA6F20EE41
:100BA800AFF00A0EDE6AE806FDE2D70E0A6EFF0E07
:100BB8000B6EAF0E0C6E000E0D6E030E0F6E000E58
:100BC8000E6E000E116E050E106E79EC0BF020EE15
:100BD80089F0120EDE6AE806FDE2EB0E0A6EFF0EE1
:100BE8000B6E890E0C6E000E0D6E010E0F6E000E50
:100BF8000E6E000E116E080E106E79EC0BF0000EE2
:100C08000001BE6F000EBD6FF50E0A6EFF0E0B6E73
:100C1800BD0E0C6E000E0D6E020E0F6E000E0E6EE7
:100C2800000E116E010E106E79EC0BF0600E0001D3
:100C38007D6FFB0E7E6FE9EC1FF0130E00017D6FD8
:100C4800FF0E7E6FAF0E7F6F000E806FE9EC1FF016
:100C5800FF0E00017D6FFE0E7E6F890E7F6F000E06
:100C6800806FE9EC1FF0D50E00017D6FFE0E7E6FE0
:100C7800BD0E7F6F000E806FE9EC1FF07D0E000146
:100C88007D6FFE0E7E6FE9EC1FF0E40E00017D6FB4
:100C9800FA0E7E6FC20E7F6FFF0E806FCE0E816FD1
:100CA800FF0E826F080E846F340E836FE9EC1FF01D
:100CB800000E0001C26F000EC16F21EE2AF010EE87
:100CC8009CF00A0EDBCFE3FFE806FCE2000EC46FDF
:100CD800000EC36F9C0EC325D96E000EC421DA6EB8
:100CE800DF50BF6F010EC325556E000EC421566E2E
:100CF8009C0E5524D96E000E5620DA6EDF50C06F58
:100D0800C051BFC055F0566A55C056F0556A5526B1
:100D1800000E5622D890C135D96EC235DA6E1E0E35
:100D2800D926010EDA2255C0DEFF56C0DDFFC14BC1
:100D3800C22B020EC325C36F000EC421C46FC4BFEB
:100D4800AFEF06F0C45109E10C0EC35DD8A0AFEFB8
:100D580006F0B1EF06F06EEF06F0000EC26F000E5F
:100D6800C16F21EE3FF010EEA7F0070EDBCFE3FFD7
:100D7800E806FCE2000EC66F000EC56FA70EC5257B
:100D8800D96E000EC621DA6EDF50BF6F010EC52581
:100D9800556E000EC621566EA70E5524D96E000E4C
:100DA8005620DA6EDF50C06FC051BFC055F0566A8A
:100DB80055C056F0556A5526000E5622D890C135B2
:100DC800D96EC235DA6E000ED926010EDA2255C068
:100DD800DEFF56C0DDFFC14BC22B020EC525C56F15
:100DE800000EC621C66FC6BF03EF07F0C65109E162
:100DF800080EC55DD8A003EF07F005EF07F0C2EFB6
:100E080006F0BA05D8B40BEF07F00DEF07F09CEF2A
:100E180007F0400E7D6FFC0E7E6FE9EC1FF0F80EB8
:100E280000017D6FFB0E7E6FE9EC1FF00E0E0001D6
:100E38007D6FFB0E7E6FE9EC1FF0F00E00017D6FF9
:100E4800F80E7E6FE9EC1FF0B90E00017D6FFA0E07
:100E58007E6FE9EC1FF0250E00017D6FFD0E7E6FA1
:100E6800E9EC1FF0380E00017D6FFB0E7E6FE9EC98
:100E78001FF0590E00017D6FFA0E7E6FE9EC1FF02E
:100E8800B80E00017D6FF90E7E6FE9EC1FF0390E88
:100E980000017D6FF90E7E6FE9EC1FF0240E000152
:100EA8007D6FFA0E7E6FE9EC1FF0A50E00017D6FD5
:100EB800F80E7E6FE9EC1FF0930E00017D6FFE0EB9
:100EC8007E6FE9EC1FF08D0E00017D6FFA0E7E6FCC
:100ED800E9EC1FF0AE0E00017D6FFB0E7E6FE9ECB2
:100EE8001FF0840E00017D6FFC0E7E6FE9EC1FF091
:100EF800C60E00017D6FFC0E7E6FE9EC1FF0260E1A
:100F080000017D6FFF0E7E6FE9EC1FF0000EA6EC6E
:100F18001FF005C0BBF006C0BCF09A0E00017D6F43
:100F2800FF0E7E6FBBC07FF0BCC080F0E9EC1FF005
:100F3800120024C03CF025C03DF026C03EF027C07A
:100F48003FF028C040F029C041F02AC042F02BC031
:100F580043F043BEB2EF07F0B5EF07F0010EB6EF6E
:100F680007F0000E3A6E3B6A3A503B10D8B4BFEF18
:100F780007F0C1EF07F0D1EF07F0431E421E411EF4
:100F8800401E3F1E3E1E3D1E3C6C000E3D223E2272
:100F98003F2240224122422243220001CCBFD7EF08
:100FA80007F0D9EF07F0DAEF07F05792CCBFE7EF79
:100FB80007F0CC5106E1CB05D8B0E5EF07F0E7EF35
:100FC80007F0EDEF07F0000E376E010E366EF1EF09
:100FD80007F0CBC036F0CCC037F0C9C038F0CAC073
:100FE80039F03A503B10D8A4FCEF07F0FEEF07F0B9
:100FF80005EF08F057A403EF08F005EF08F008EF35
:1010080008F03806D8A03906000E456E1F0E446E4B
:10101800000E0101A36F8DEF08F04406D8A0450625
:10102800840E4424D96E010E4520DA6E3CC005F0CA
:101038003DC006F03EC007F03FC008F040C009F0D0
:1010480041C00AF042C00BF043C00CF00A0E0D6E0E
:10105800000E0E6E000E0F6E000E106E000E116E5A
:10106800000E126E000E136E000E146E22EC12F0BB
:1010780005C02CF006C02DF007C02EF008C02FF0D8
:1010880009C030F00AC031F00BC032F00CC033F0A8
:101098002CC017F02EC018F0F8EC1EF01750300FC7
:1010A800DF6E3606D8A037063806D8A039063CC009
:1010B80005F03DC006F03EC007F03FC008F040C054
:1010C80009F041C00AF042C00BF043C00CF00A0E10
:1010D8000D6E000E0E6E000E0F6E000E106E000EDE
:1010E800116E000E126E000E136E000E146EA0EC40
:1010F80010F005C03CF006C03DF007C03EF008C047
:101108003FF009C040F00AC041F00BC042F00CC0EB
:1011180043F045BE98EF08F0455008E14404D8A0D4
:1011280098EF08F09AEF08F0CAEF08F03C503D102D
:101138003E103F104010411042104310D8A4A7EFB2
:1011480008F0A9EF08F011EF08F037BEB6EF08F085
:10115800375006E13604D8B0B4EF08F0B6EF08F01F
:1011680011EF08F039BEC1EF08F0395008E1380432
:10117800D8A0C1EF08F0C3EF08F0CAEF08F057B2E3
:10118800C8EF08F0CAEF08F011EF08F03A503B102A
:10119800D8A4D1EF08F0D3EF08F0DAEF08F057A49D
:1011A800D8EF08F0DAEF08F0F8EF08F04406D8A016
:1011B80045063A503B10D8A4E4EF08F0E6EF08F0F3
:1011C800ECEF08F0000E356E2B0E346EF0EF08F0E1
:1011D800000E356E2D0E346E840E4424D96E010E29
:1011E8004520DA6E34C0DFFF22C017F023C018F0A4
:1011F800840E4424196E010E45201A6E38C01BF067
:1012080039C01CF01EEC18F017C022F018C023F0EB
:1012180012000001CCBF13EF09F015EF09F016EF2B
:1012280009F05792CCBF23EF09F0CC5106E1CB056A
:10123800D8B021EF09F023EF09F029EF09F0000EEB
:101248003A6E010E396E2DEF09F0CBC039F0CCC0E3
:101258003AF0C9C03BF0CAC03CF057A836EF09F0D5
:1012680038EF09F03CEF09F0FE0E3B26FF0E3C225A
:1012780024C03DF025C03EF026C03FF027C040F016
:1012880028C041F029C042F02AC043F02BC044F0E6
:10129800000E466E1F0E456E000E0101A36F08EF8B
:1012A8000AF04506D8A046060F0E3D14476E486A58
:1012B80048BE68EF09F0485009E10A0E475CD8A01B
:1012C80068EF09F06AEF09F072EF09F0570E47244A
:1012D800476E000E4820486E78EF09F0300E47241C
:1012E800476E000E4820486EBF0E2D6EFF0E2E6E04
:1012F8002C502F6E306A2D502F262E503022305011
:101308000AE11A0E2F5CD8A08CEF09F08FEF09F0D4
:10131800010E90EF09F0000E356E366A3550361022
:10132800D8B499EF09F09BEF09F0CBEF09F09F0EC5
:101338002D6EFF0E2E6E200E47102F6E000E4810D9
:10134800306E2D502F262E50302230500AE11A0EC2
:101358002F5CD8A0B2EF09F0B5EF09F0010EB6EF97
:1013680009F0000E376E386A37503810D8B4BFEF1E
:1013780009F0C1EF09F0CBEF09F047C00BF048C006
:101388000CF03BEC1CF00BC047F00CC048F0840E8E
:101398004524D96E010E4620DA6E47C0DFFF3906B4
:1013A800D8A03A063B06D8A03C063DC02DF03EC06A
:1013B8002EF03FC02FF040C030F041C031F042C0A5
:1013C80032F043C033F044C034F0050EF5EF09F0B5
:1013D800D890343233323232313230322F322E32E8
:1013E8002D32E82EECEF09F02DC03DF02EC03EF076
:1013F8002FC03FF030C040F031C041F032C042F061
:1014080033C043F034C044F046BE14EF0AF04650EF
:1014180009E1020E455CD8A014EF0AF016EF0AF0B5
:1014280046EF0AF03D503E103F1040104110421068
:1014380043104410D8A423EF0AF025EF0AF055EF23
:1014480009F03ABE32EF0AF03A5006E13904D8B052
:1014580030EF0AF032EF0AF055EF09F03CBE3DEFED
:101468000AF03C5008E13B04D8A03DEF0AF03FEFFA
:101478000AF046EF0AF057B244EF0AF046EF0AF0D6
:1014880055EF09F057A84BEF0AF04DEF0AF063EF5C
:101498000AF04506D8A04606840E4524D96E010EEA
:1014A8004620DA6E2CC0DFFF4506D8A04606840E1B
:1014B8004524D96E010E4620DA6E300EDF6E22C04A
:1014C80017F023C018F0840E4524196E010E46202B
:1014D8001A6E3BC01BF03CC01CF01EEC18F017C085
:1014E80022F018C023F012000001CCBF7EEF0AF0F2
:1014F80080EF0AF081EF0AF05792CCBF8EEF0AF026
:10150800CC5106E1CB05D8B08CEF0AF08EEF0AF08B
:1015180094EF0AF0000E356E010E346E98EF0AF063
:10152800CBC034F0CCC035F0C9C036F0CAC037F0F3
:1015380024C038F025C039F026C03AF027C03BF067
:1015480028C03CF029C03DF02AC03EF02BC03FF037
:10155800000E416E1F0E406E000E0101A36F2BEFAF
:101568000BF04006D8A04106840E4024D96E010E27
:101578004120DA6E38C005F039C006F03AC007F0ED
:101588003BC008F03CC009F03DC00AF03EC00BF07B
:101598003FC00CF00A0E0D6E000E0E6E000E0F6EA0
:1015A800000E106E000E116E000E126E000E136EFD
:1015B800000E146E54EC17F005C02CF006C02DF088
:1015C80007C02EF008C02FF009C030F00AC031F073
:1015D8000BC032F00CC033F02C50300FDF6E3406E5
:1015E800D8A035063606D8A0370638C005F039C069
:1015F80006F03AC007F03BC008F03CC009F03DC017
:101608000AF03EC00BF03FC00CF00A0E0D6E000E43
:101618000E6E000E0F6E000E106E000E116E000E94
:10162800126E000E136E000E146E21EC15F005C03C
:1016380038F006C039F007C03AF008C03BF009C0DE
:101648003CF00AC03DF00BC03EF00CC03FF04050EB
:101658004110D8B432EF0BF034EF0BF064EF0BF01D
:10166800385039103A103B103C103D103E103F10D6
:10167800D8A441EF0BF043EF0BF0B5EF0AF035BEFD
:1016880050EF0BF0355006E13404D8B04EEF0BF0B4
:1016980050EF0BF0B5EF0AF037BE5BEF0BF03750A9
:1016A80008E13604D8A05BEF0BF05DEF0BF064EFB8
:1016B8000BF057B262EF0BF064EF0BF0B5EF0AF0E6
:1016C80022C017F023C018F0840E4024196E010EB2
:1016D80041201A6E36C01BF037C01CF01EEC18F003
:1016E80017C022F018C023F01200000E176E000E6B
:1016F800166E000E156E000E146E000E176E000E9C
:10170800166E59EF0CF00EC005F00FC006F04EEC47
:1017180020F0186E030E136E080E126E770EE82E68
:10172800FED7122EFCD7132EFAD700F01828D8B4FB
:10173800A0EF0BF0A2EF0BF0ACEF0BF014500C2461
:10174800D96E15500D20DA6E18C0DFFF144A152A1D
:101758000E4A0F2A0EC005F00FC006F04EEC20F01E
:10176800196E0E4A0F2A030E136E080E126E770EAC
:10177800E82EFED7122EFCD7132EFAD700F0192820
:10178800D8B4C9EF0BF0CBEF0BF0D5EF0BF014503A
:101798000C24D96E15500D20DA6E19C0DFFF144ADB
:1017A800152AD70E056EFF0E066E0AC007F00BC08D
:1017B80008F03FEC19F005500610D8A4E6EF0BF03E
:1017C800E8EF0BF001EF0CF0195018C012F0136A93
:1017D80012C013F0126A1226000E1322D890163483
:1017E800D96E1734DA6E350ED926010EDA2212C0F8
:1017F800DEFF13C0DDFF57EF0CF0EB0E056EFF0E9A
:10180800066E0AC007F00BC008F03FEC19F005504F
:101818000610D8A412EF0CF014EF0CF02DEF0CF01A
:10182800195018C012F0136A12C013F0126A122667
:10183800000E1322D8901634D96E1734DA6E100EB3
:10184800D926010EDA2212C0DEFF13C0DDFF57EFE2
:101858000CF0F50E056EFF0E066E0AC007F00BC001
:1018680008F03FEC19F005500610D8A43EEF0CF034
:1018780040EF0CF057EF0CF0195018C012F0136A33
:1018880012C013F0126A1226000E1322D8901634D2
:10189800D96E1734DA6EFC0ED926000EDA2212C081
:1018A800DEFF13C0DDFF164A172A1050165C1750CA
:1018B800800A126E1150800A1258D8A066EF0CF0F8
:1018C80068EF0CF087EF0BF014500C24D96E15500C
:1018D8000D20DA6E000EDF6E120091C099F092C0F2
:1018E8009AF0880E00017D6FFB0E7E6F8DC07FF031
:1018F8008EC080F093C081F094C082F0E9EC1FF0B4
:10190800E40E096E000E0A6E7D0E0B6EF90E0C6E5B
:10191800DDEC1BF093C089F094C08AF082EC13F0E0
:10192800000189518A11D8B49CEF0CF09EEF0CF09D
:101938008EEF0CF0A50E7D6FFC0E7E6FE40E7F6FB0
:10194800000E806FE9EC1FF042EC20F00009D8B4DB
:10195800B0EF0CF0B2EF0CF0A8EF0CF0C7EC1CF0F5
:1019680000019D6F790E9D19D8B4BDEF0CF0BFEF43
:101978000CF0C8EF0CF0590E9D19D8A4C6EF0CF066
:10198800C8EF0CF040EF0DF08B0E7D6FFF0E7E6FF1
:101998008DC07FF08EC080F0E9EC1FF0E40E056E7C
:1019A800000E066E9AEC1DF005C097F006C098F080
:1019B800390E00017D6FFF0E7E6F97C07FF098C0D3
:1019C80080F0E9EC1FF091C089F092C08AF093C0D2
:1019D8008BF094C08CF099EC1CF0000E00019C6F09
:1019E800000E9B6F18EF0DF099C005F09AC006F035
:1019F800E40E9B25D96E000E9C21DA6EDF50076E2F
:101A080031EC1EF00001994B9A2B030E0001966FE2
:101A1800080E956F770EE82EFED7952FFCD7962FD8
:101A2800FAD700019B4B9C2BE40E056E000E066E48
:101A38009AEC1DF0055000019B5D06509C59D8A0FA
:101A480028EF0DF02AEF0DF0F8EF0CF0A90E7D6FDE
:101A5800FF0E7E6F8DC07FF08EC080F0E9EC1FF026
:101A6800E40E096E000E0A6E7D0E0B6EF90E0C6EFA
:101A7800DDEC1BF058EF0DF04E0E9D19D8B447EF72
:101A88000DF049EF0DF052EF0DF06E0E9D19D8A430
:101A980050EF0DF052EF0DF058EF0DF0B60E7D6FD0
:101AA800FF0E7E6FE9EC1FF01200000E0001946F2C
:101AB800000E936F000E906F000E8F6F000ED26FA6
:101AC800000ED16FA00ED125D96E020ED221DA6E8A
:101AD80000C2DFFFD14BD22BA00ED125D96E020E4A
:101AE800D221DA6E01C2DFFFD14BD22BA00ED12555
:101AF800D96E020ED221DA6E02C2DFFFD14BD22B91
:101B0800A00ED125D96E020ED221DA6E03C2DFFFF4
:101B1800D14BD22BA00ED125D96E020ED221DA6E6E
:101B280004C2DFFFD14BD22BA00ED125D96E020EF5
:101B3800D221DA6E05C2DFFFD14BD22B000E926F95
:101B4800000E916FDEEF0DF0080E9325D96E020E90
:101B58009421DA6EDF508B6F070E9325D96E020E33
:101B68009421DA6EDF508C6F8C518E6F8D6B8B5198
:101B78008D258F6F000E8E21906F020E9325936F27
:101B8800000E9421946F02010351000191258B6F7F
:101B9800000E92218C6FD8908B378C37640E8B2572
:101BA800D96E040E8C21DA6E8FC0DEFF90C0DDFF87
:101BB800914B922B0201055100018B6F8C6B8B515D
:101BC800915D9251800A8D6F8C51800A8D59D8A0F1
:101BD800F0EF0DF0F2EF0DF0A8EF0DF0D1C005F029
:101BE800D2C006F0010E076E7DEC16F005C0CFF0EE
:101BF80006C0D0F0D1C005F0D2C006F0000E076EC6
:101C08007DEC16F005C0F6F006C0F7F0A00E000156
:101C1800D125D96E020ED221DA6ECFC0DFFFA10E18
:101C2800D125D96E020ED221DA6EF6C0DFFF020E80
:101C3800D125D16F000ED221D26FD905D8A427EFB4
:101C48000EF029EF0EF02DEF0EF077EC1BF09EEC66
:101C580019F0A00E066E020E076ED1C008F0D2C0B1
:101C680009F040EC1BF01200E40E056E000E066E43
:101C7800E50E076EFF0E086E3FEC19F005500610D2
:101C8800D8A449EF0EF04BEF0EF050EF0EF036EC03
:101C98001FF0010E05EF0FF0E40E056E000E066E44
:101CA800FD0E076EFF0E086E3FEC19F0055006108A
:101CB800D8A461EF0EF063EF0EF068EF0EF0000E9F
:101CC800D1EC05F04DEF0EF0E40E056E000E066E39
:101CD800DE0E076EFF0E086E3FEC19F00550061079
:101CE800D8A479EF0EF07BEF0EF09CEF0EF022EE09
:101CF8008CF011EEA4F0130EDBCFE3FFE806FCE254
:101D0800A40E00018D6F010E8E6F030E906F000EF2
:101D18008F6F030E926F000E916F000E946F0A0E74
:101D2800936F71EC0CF0010ED1EC05F04DEF0EF055
:101D3800E40E056E000E066EF00E076EFF0E086EBE
:101D48003FEC19F005500610D8A4ADEF0EF0AFEF38
:101D58000EF0D0EF0EF022EE78F011EEB8F0130E80
:101D6800DBCFE3FFE806FCE2B80E00018D6F010E41
:101D78008E6F010E906F000E8F6F010E926F000E26
:101D8800916F000E946F100E936F71EC0CF0010EB2
:101D9800D1EC05F04DEF0EF0E40E056E000E066E68
:101DA800F90E076EFF0E086E3FEC19F0055006108D
:101DB800D8A4E1EF0EF0E3EF0EF004EF0FF022EEFF
:101DC80064F011EECCF0130EDBCFE3FFE806FCE283
:101DD800CC0E00018D6F010E8E6F020E906F000EFB
:101DE8008F6F020E926F000E916F000E946F020EAD
:101DF800936F71EC0CF0010ED1EC05F04DEF0EF085
:101E0800000E120021EE47F010EE15F0060EDBCFA3
:101E1800E3FFE806FCE212C020F013C021F02050D6
:101E28002110D8A41AEF0FF01CEF0FF020EF0FF0DD
:101E3800150E206E000E216E20C005F021C006F0A0
:101E48009AEC1DF005C024F006C025F0CBC022F0A6
:101E5800CCC023F023BE33EF0FF035EF0FF04AEF7D
:101E68000FF02450225C2350800A146E2550800AFB
:101E78001458D8A042EF0FF044EF0FF046EF0FF0E0
:101E88004AEF0FF022C024F023C025F024C022F02E
:101E980025C023F0C9C01EF0CAC01FF057B057EFC5
:101EA8000FF059EF0FF076EF0FF067EF0FF0000E1D
:101EB800086E200E076E10C009F011C00AF0F3EC8E
:101EC80019F0244A252A1E50245C2550800A146ED5
:101ED8001F50800A1458D8A074EF0FF076EF0FF057
:101EE8005BEF0FF0000E1D6E000E1C6E9BEF0FF0E7
:101EF80020C0F6FF21C0F7FF000EF86E0E0EF76443
:101F080003D00800F55005D0F6CFE9FFF7CFEAFF78
:101F1800EF50146E1450076E086A10C009F011C013
:101F28000AF0F3EC19F0204A212A1C4A1D2A2250F3
:101F38001C5C1D50800A146E2350800A1458D8A0C7
:101F4800A8EF0FF0AAEF0FF07CEF0FF057A0AFEF5C
:101F58000FF0B1EF0FF0CEEF0FF0BFEF0FF0000E64
:101F6800086E200E076E10C009F011C00AF0F3ECDD
:101F780019F0244A252A1E50245C2550800A146E24
:101F88001F50800A1458D8A0CCEF0FF0CEEF0FF0F6
:101F9800B3EF0FF024C010F025C011F01200000EAE
:101FA8001A6E000E196E000E136E000E126EDFEF21
:101FB8000FF00C4A0D2A010E186E0CC0F6FF0DC06A
:101FC800F7FFF86A0800F550200AD8B4EEEF0FF0D2
:101FD800F0EF0FF00EEF10F0F70E0E6EFF0E0F6E13
:101FE8000CC0F6FF0DC0F7FFF86A0800F550106E38
:101FF800116A0E5010260F501122115009E1050EDA
:10200800105CD8A00AEF10F00CEF10F00EEF10F0F3
:10201800000E186E18C014F0156A14501510D8A4C4
:1020280018EF10F01AEF10F0DDEF0FF024EF10F0BA
:10203800000E136E010E126E0C4A0D2A5BEF10F0A3
:102048000CC0F6FF0DC0F7FFF86A0800F5500E6ED9
:102058000F6A0F50000AD8B434EF10F05BEF10F09D
:102068000E502B0AD8B420EF10F0060AD8B41CEF93
:1020780010F05BEF10F019C005F01AC006F0000E62
:10208800086E0A0E076E10EC20F00CC0F6FF0DC0AB
:10209800F7FFF86A0800F550055E000E065A300E84
:1020A8000524196E000E06201A6E20EF10F0D00ECF
:1020B8000E6EFF0E0F6E0CC0F6FF0DC0F7FFF86A2C
:1020C8000800F550106E116A0E5010260F5011229C
:1020D80011500AE10A0E105CD8A075EF10F078EFE5
:1020E80010F0010E79EF10F0000E166E176A1650F8
:1020F8001710D8A482EF10F084EF10F03FEF10F023
:1021080012501310D8A48BEF10F08DEF10F09BEF46
:1021180010F019C00EF01AC00FF00E1E0F1E0E4A56
:102128000F2A0EC00CF00FC00DF09FEF10F019C071
:102138000CF01AC00DF01200000E166E14BEA9EFB6
:1021480010F0A7EF10F0BBEF10F0141E131E121EB4
:10215800111E101E0F1E0E1E0D6C000E0E220F22D9
:1021680010221122122213221422010E166E0CBE06
:10217800C2EF10F0C0EF10F0D4EF10F00C1E0B1EE1
:102188000A1E091E081E071E061E056C000E0622E2
:102198000722082209220A220B220C22010E161AF3
:1021A80020EE17F0070EDE6AE806FDE20D500E106D
:1021B8000F1010101110121013101410D8B4E7EFEC
:1021C80010F0E9EF10F03BEF11F0010E156EF7EF8C
:1021D80010F0D8900D360E360F36103611361236EE
:1021E80013361436152A14AEFCEF10F0FEEF10F07B
:1021F800EDEF10F0D8901736183619361A361B3608
:102208001C361D361E360D50055C0E5006580F50F4
:102218000758105008581150095812500A581350AE
:102228000B5814500C58D8A01CEF11F01EEF11F0E9
:102238002FEF11F00D50055E0E50065A0F50075A39
:102248001050085A1150095A12500A5A13500B5A72
:1022580014500C5A1780D89014321332123211329B
:1022680010320F320E320D32152EFEEF10F01650CE
:10227800D8B441EF11F043EF11F053EF11F01E1EE7
:102288001D1E1C1E1B1E1A1E191E181E176C000E62
:10229800182219221A221B221C221D221E2217C0B4
:1022A80005F018C006F019C007F01AC008F01BC0E6
:1022B80009F01CC00AF01DC00BF01EC00CF0120083
:1022C800DFEC20F066EC20F00009D8B46EEF11F0D6
:1022D80070EF11F020EF12F00001D905D8A477EFC4
:1022E80011F079EF11F07FEF11F04E0E7D6FFE0EB9
:1022F8007E6FE9EC1FF066EC20F00009D8B487EF98
:1023080011F089EF11F0C0EF11F0B3EF11F0F3EC19
:102318001CF0566E000E0001D325D96E050ED4218F
:10232800DA6E56C0DFFFD905D8A49DEF11F09FEFF4
:1023380011F0B0EF11F07B0E7D6FFF0E7E6F000E77
:10234800D325D96E050ED421DA6EDF50566E56505D
:102358007F6F806BE9EC1FF00001D34BD42B66EC48
:1023680020F00009D8A4BBEF11F0BDEF11F08BEFFE
:1023780011F0010E0001D86F0001D805D8A4C7EFED
:1023880011F0C9EF11F0E5EF11F0EBEC16F0E8EC05
:102398001DF0000E0001D86F000ED46F000ED36F31
:1023A80083B8D9EF11F0DCEF11F0010EDDEF11F079
:1023B800000EFF0A566E563A83505618EF0B561801
:1023C800836EFA51D51907E1FB51D619D8A4EFEF5E
:1023D80011F0F1EF11F07FEF11F083BAF6EF11F081
:1023E800F9EF11F0010EFAEF11F0000EFF0A566E28
:1023F800563A564683505618DF0B5618836ED4EC5F
:1024080012F0E806D8A40BEF12F00DEF12F016EF59
:1024180012F0D30E00017D6FFB0E7E6FE9EC1FF00A
:102428001DEF12F0E60E00017D6FFC0E7E6FE9ECE9
:102438001FF0010E21EF12F0000E1200000E166EB2
:102448000CBE2BEF12F029EF12F03DEF12F00C1E2C
:102458000B1E0A1E091E081E071E061E056C000E0E
:1024680006220722082209220A220B220C22010E28
:10247800166E14BE44EF12F042EF12F054EF12F051
:10248800141E131E121E111E101E0F1E0E1E0D6C82
:10249800000E0E220F2210221122122213221422C1
:1024A8000D500E100F1010101110121013101410E0
:1024B800D8B461EF12F063EF12F0ABEF12F0010E37
:1024C800156E71EF12F0D8900D360E360F361036A5
:1024D8001136123613361436152A14AE76EF12F06A
:1024E80078EF12F067EF12F00D50055C0E500658A9
:1024F8000F500758105008581150095812500A58D0
:1025080013500B5814500C58D8A08DEF12F08FEFC1
:1025180012F09FEF12F00D50055E0E50065A0F5044
:10252800075A1050085A1150095A12500A5A135093
:102538000B5A14500C5AD8901432133212321132EA
:1025480010320F320E320D32152E78EF12F016506F
:10255800D8B4B1EF12F0B3EF12F0C3EF12F00C1EC3
:102568000B1E0A1E091E081E071E061E056C000EFD
:1025780006220722082209220A220B220C2205C061
:1025880005F006C006F007C007F008C008F009C04B
:1025980009F00AC00AF00BC00BF00CC00CF01200D6
:1025A800000194699569000E916F000E906F000EFE
:1025B800936F000E926F000E976F000E966F14EFD8
:1025C80013F0000E9625D96E020E9721DA6EDF50B1
:1025D800896F8951941B000E936F080E926F94A116
:1025E800F8EF12F0FAEF12F003EF13F0D8909533EA
:1025F8009433010E941BA00E951B06EF13F0D89090
:10260800953394339207D8A0930792519311D8A485
:1026180010EF13F012EF13F0F3EF12F0964B972B25
:10262800FE0E896FFF0E8A6FD5C08BF0D6C08CF076
:1026380089518B278A518C238B51965D9751800A3B
:102648008D6F8C51800A8D59D8A02DEF13F02FEF84
:1026580013F0E5EF12F094518E6F8F6B94C089F0F0
:1026680095C08AF08AC089F08A6B8951906F916B06
:10267800D905D8A442EF13F044EF13F052EF13F04A
:102688001C0E7D6FFC0E7E6F8EC07FF08FC080F0B9
:1026980090C081F091C082F0E9EC1FF0000E0001BB
:1026A8009625D96E020E9721DA6EDF50896F8A6BF4
:1026B8008E51891907E18F518A19D8A466EF13F052
:1026C80068EF13F080EF13F0010E9625D96E020E15
:1026D8009721DA6EDF50896F8A6B9051891907E16B
:1026E80091518A19D8A47BEF13F07DEF13F080EF96
:1026F80013F0010E81EF13F0000E1200F4C055F034
:10270800F5C056F042EC20F00009D8B48EEF13F073
:1027180090EF13F00EEF14F042EC20F00009D8B45B
:1027280098EF13F09AEF13F0EAEF13F0C7EC1CF0F0
:10273800556E55506AEC1CF00D0E5518D8B4A7EF1D
:1027480013F0A9EF13F0B3EF13F0E40E136E000EBD
:10275800146E550E156E000E166EFDEC1FF0E40E8D
:10276800056E000E066E9AEC1DF005500001895D9D
:1027780006508A59D8B0C3EF13F0C5EF13F0D9EF5C
:1027880013F0E40E096E000E0A6EE50E0B6E000ED5
:102798000C6EE40E056E000E066E9AEC1DF005C078
:1027A8000DF006C00EF00FEC16F00D0E5518D8A45B
:1027B800E0EF13F0E2EF13F0EAEF13F07A0E556E44
:1027C80089C089F08AC08AF013EF14F00D0E5518ED
:1027D800D8A4F1EF13F0F3EF13F090EF13F0E40E39
:1027E800056E000E066E9AEC1DF0E30E0524D96EF8
:1027F800000E0620DA6E000EDF6E7A0E00017D6F85
:10280800F90E7E6FE9EC1FF0E40E056E000E066E01
:102818009AEC1DF0000E00018A6F000E896F1200FD
:1028280023EC20F0F28EF28C8398839A839C839E0B
:10283800000ED1EC05F0DFEC20F0E8EC1DF097EC91
:102848001EF064EC11F0E806D8A42DEF14F02FEF79
:1028580014F07AEF14F059EF14F05AEC03F070EF1B
:1028680014F0EA0E00017D6FFE0E7E6FE9EC1FF09A
:10287800060E00017D6FFD0E7E6FE9EC1FF077EC10
:102888001BF059EC0DF070EF14F0980E00017D6FFD
:10289800FD0E7E6FE9EC1FF0000E00018C6F010E3B
:1028A8008B6FBCEC17F070EF14F0020101510101BD
:1028B800E86FE96BE951000AD8B465EF14F049EF05
:1028C80014F0E851030AD8B431EF14F0130AD8B45D
:1028D80035EF14F049EF14F004EC1BF09EEC19F0FE
:1028E800C2EC1DF097EC1EF025EF14F0000E00016D
:1028F8008A6F100E896F82EC13F0000189518A11DA
:10290800D8B489EF14F08BEF14F0A0EF14F038EC82
:102918000EF0260E00017D6FFF0E7E6FE9EC1FF0B2
:10292800E40E096E000E0A6E7D0E0B6EF90E0C6E2B
:10293800DDEC1BF025EF14F025EF14F093EF00F019
:10294800B00EF66E3D0EF76E000EF86E04EE64F0F3
:1029580010EE40F00900F5CFEEFFE550E150FAE146
:10296800700EF66E3D0EF76E000EF86E03EEB7F0C1
:1029780010EE40F00900F5CFEEFFE550E150FAE126
:10298800320EF66E2B0EF76E000EF86E02EE00F0A9
:1029980010EEEBF00900F5CFEEFFE550E150FAE15B
:1029A8003E0EF66E3A0EF76E000EF86E01EE00F06F
:1029B80010EE54F00900F5CFEEFFE550E150FAE1D2
:1029C8003E0EF66E410EF76E000EF86E00EEF4F055
:1029D80010EE0AF00900F5CFEEFFE550E150FAE1FC
:1029E80005EE00F0640EEE6AE806FDE104EE00F084
:1029F800640EEE6AE806FDE103EE00F0B70EEE6A3B
:102A0800E806FDE102EEEBF00B0EEE6AE806FDE1EA
:102A180001EE54F0500EEE6AE806FDE100EEC7F054
:102A28002D0EEE6AE806FDE15A6A596A586A576A35
:102A38005B905B92000114EF14F020EE15F0070E86
:102A4800DE6AE806FDE20D500E100F10101011108E
:102A5800121013101410D8B434EF15F036EF15F027
:102A680088EF15F0010E1D6E44EF15F0D8900D3665
:102A78000E360F36103611361236133614361D2A16
:102A880014AE49EF15F04BEF15F03AEF15F0D8906A
:102A9800153616361736183619361A361B361C36BA
:102AA8000D50055C0E5006580F5007581050085826
:102AB8001150095812500A5813500B5814500C58FA
:102AC800D8A069EF15F06BEF15F07CEF15F00D50FD
:102AD800055E0E50065A0F50075A1050085A1150EA
:102AE800095A12500A5A13500B5A14500C5A15808E
:102AF800D890143213321232113210320F320E3291
:102B08000D321D2E4BEF15F015C005F016C006F05E
:102B180017C007F018C008F019C009F01AC00AF069
:102B28001BC00BF01CC00CF01200FF0000000000DE
:102B3800000000000000000000000000000000008D
:102B4800000000000000000000000000000000007D
:102B5800000000000000000000000000000000006D
:102B6800000000000000000000000000000000005D
:102B7800000000000000000000000000000000004D
:102B88000000000000000000000000000000526586
:102B9800766973696F6E0000000000000000000095
:102BA800000050617274204E756D626572000000FD
:102BB80000000000000053657269616C204E756D5D
:102BC80062657200000000000000FF0000000000C5
:102BD80000000000000000000000000000000000ED
:102BE80000000000000000000000000000000000DD
:102BF80000000000000000000000000000000000CD
:102C080000000000000000000000000000000000BC
:052C18000000000000B7
:102C1E000BC013F00CC014F009C011F00AC012F072
:102C2E001150135C12501458D8B020EF16F022EF4A
:102C3E0016F059EF16F00D5013240F6E0E5014208F
:102C4E00106E0F50115C10501258D8B031EF16F0B4
:102C5E0033EF16F059EF16F00D5013260E501422C6
:102C6E000D5011260E5012221306D8A0140613C0B2
:102C7E00D9FF14C0DAFF1106D8A0120611C0E1FF69
:102C8E0012C0E2FFDFCFE7FF0D06D8A00E060D50F3
:102C9E000E10D8A455EF16F057EF16F03BEF16F0C6
:102CAE007CEF16F00D500E10D8B460EF16F062EFF8
:102CBE0016F07CEF16F013C0D9FF14C0DAFF11C066
:102CCE00E1FF12C0E2FFDFCFE7FF134A142A114AD9
:102CDE00122A0D06D8A00E060D500E10D8A47AEFAB
:102CEE0016F07CEF16F062EF16F012001268136801
:102CFE00000E0D6E000E0C6E000E116E000E106E9C
:102D0E00000E0F6E000E0E6EBCEF16F0A00E0E240F
:102D1E00D96E020E0F20DA6EDF50086E0850121AAE
:102D2E00000E116E080E106E12A0A0EF16F0A2EF9C
:102D3E0016F0ABEF16F0D89013321232010E121AB3
:102D4E00A00E131AAEEF16F0D890133212321006F0
:102D5E00D8A0110610501110D8A4B8EF16F0BAEF83
:102D6E0016F09BEF16F00E4A0F2A05500E5C0F5010
:102D7E00800A086E0650800A0858D8A0C9EF16F0CF
:102D8E00CBEF16F08DEF16F012500A6E0B6A12C0D2
:102D9E0008F013C009F009C008F0096A08500C6E5B
:102DAE000D6A0704D8A4DEEF16F0E0EF16F0E6EF9A
:102DBE0016F00AC005F00BC006F0EAEF16F00CC0D4
:102DCE0005F00DC006F01200000E00018A6F000E15
:102DDE00896F000E8A6F000E896F08EF17F0000ED4
:102DEE008925D96E050E8A21DA6E000ED525E16E83
:102DFE00020ED621E26EDFCFE7FFD54BD62B894BE5
:102E0E008A2BD351895D8A51800A556ED451800A1E
:102E1E005558D8A015EF17F017EF17F0F6EF16F07C
:102E2E00D905D8A41DEF17F01FEF17F030EF17F0EC
:102E3E00EE0E7D6FF90E7E6FE9EC1FF0600E000155
:102E4E007D6FFD0E7E6FD5C07FF0D6C080F0E9ECB1
:102E5E001FF00F0E02010119D8A438EF17F03AEF48
:102E6E0017F043EF17F0090E06250001FA6FFB6B02
:102E7E00000EFB2353EF17F0100E0119D8A44AEFE2
:102E8E0017F04CEF17F04EEF17F03AEF17F0000E69
:102E9E000001FB6F080EFA6F12000D500E100F108E
:102EAE0010101110121013101410D8B461EF17F087
:102EBE0063EF17F0ABEF17F0010E156E71EF17F011
:102ECE00D8900D360E360F361036113612361336A2
:102EDE001436152A14AE76EF17F078EF17F067EF69
:102EEE0017F00D50055C0E5006580F500758105035
:102EFE0008581150095812500A5813500B581450B4
:102F0E000C58D8A08DEF17F08FEF17F09FEF17F03A
:102F1E000D50055E0E50065A0F50075A1050085AA3
:102F2E001150095A12500A5A13500B5A14500C5A77
:102F3E00D890143213321232113210320F320E3246
:102F4E000D32152E78EF17F005C005F006C006F00D
:102F5E0007C007F008C008F009C009F00AC00AF05F
:102F6E000BC00BF00CC00CF01200000E0001D26F63
:102F7E00000ED16FA00ED125D96E020ED221DA6EBF
:102F8E0000C2DFFFD14BD22BA00ED125D96E020E7F
:102F9E00D221DA6E02010151800FDF6E0001D14B9A
:102FAE00D22BA00ED125D96E020ED221DA6E8BC095
:102FBE00DFFFD14BD22BD1C005F0D2C006F0010EEF
:102FCE00076E7DEC16F005C0CFF006C0D0F0D1C074
:102FDE0005F0D2C006F0000E076E7DEC16F005C0AF
:102FEE00F6F006C0F7F0A00E0001D125D96E020E44
:102FFE00D221DA6ECFC0DFFFA10ED125D96E020E1F
:10300E00D221DA6EF6C0DFFF020ED125D16F000E8F
:10301E00D221D26F9EEC19F0A00E066E020E076E34
:10302E00D1C008F0D2C009F040EC1BF0120057A03E
:10303E0023EF18F025EF18F02FEF18F019C010F04D
:10304E001AC011F017C012F018C013F053EC1EF096
:10305E001CBE34EF18F036EF18F03CEF18F01BC022
:10306E0020F01CC021F040EF18F0000E216E000E73
:10307E00206E000E1F6E000E1E6E52EF18F0000E28
:10308E00086E200E076E17C009F018C00AF0F3EC98
:10309E0019F01E4A1F2A20501E5C1F50800A1D6EFA
:1030AE002150800A1D58D8A05FEF18F061EF18F07C
:1030BE0046EF18F057B066EF18F068EF18F072EFA1
:1030CE0018F019C010F01AC011F017C012F018C085
:1030DE0013F053EC1EF019C005F01AC006F09AEC6E
:1030EE001DF020500524176E21500620186E120078
:1030FE00540E5A24D96EDA6A010EDA22000EDF6EF1
:10310E000E019DA58DEF18F08FEF18F0A3EF18F0BC
:10311E00540E5A24D96EDA6A010EDA220101DF82C8
:10312E0002D8A3EF18F00500FA6EF451FD6EF551BA
:10313E00FE6EFF6AFA5012000E019DA3A9EF18F061
:10314E00ABEF18F0BFEF18F0540E5A24D96EDA6AAE
:10315E00010EDA220101DF8402D8BFEF18F005005C
:10316E00FA6EF251FD6EF351FE6EFF6AFA501200C6
:10317E00540E5A24D96EDA6A010EDA22DF50D8B410
:10318E00CBEF18F0CDEF18F0DCEF18F002D8DAEF35
:10319E0018F00500FA6E0101F051FD6EF151FE6E50
:1031AE00FF6AFA501200DEEF18F0BDEC1FF01200AD
:1031BE00000E5924D96EDA6A030EDA22000EDF6E83
:1031CE009DA4ECEF18F0EEEF18F003EF19F0000EDF
:1031DE005924D96EDA6A030EDA220301DF8202D88D
:1031EE0003EF19F00500FA6E0101EE51FD6EEF517D
:1031FE00FE6EFF6AFA5012009DA208EF19F00AEF58
:10320E0019F01FEF19F0000E5924D96EDA6A030E69
:10321E00DA220301DF8402D81FEF19F00500FA6EDF
:10322E000101EC51FD6EED51FE6EFF6AFA50120077
:10323E00000E5924D96EDA6A030EDA22DF50D8B4A2
:10324E002BEF19F02DEF19F03CEF19F002D83AEFF1
:10325E0019F00500FA6E0101EA51FD6EEB51FE6E9A
:10326E00FF6AFA5012003EEF19F0D3EC1FF0120075
:10327E0045EF19F0054A062A074A082A07C0F6FF45
:10328E0008C0F7FFF86A0800F5CF09F005C0F6FF91
:10329E0006C0F7FF000EF86E0E0EF76403D008009E
:1032AE00F55005D0F6CFE9FFF7CFEAFFEF5009183A
:1032BE00D8A464EF19F066EF19F07FEF19F005C08E
:1032CE00F6FF06C0F7FF000EF86E0E0EF76403D081
:1032DE000800F55005D0F6CFE9FFF7CFEAFFEF5023
:1032EE000009D8A47DEF19F07FEF19F041EF19F026
:1032FE0005C0F6FF06C0F7FF000EF86E0E0EF7645F
:10330E0003D00800F55005D0F6CFE9FFF7CFEAFF5E
:10331E00EF50096E07C0F6FF08C0F7FFF86A080005
:10332E00F550095C056E066AD8A0060612007C0EE2
:10333E0000017D6FFD0E7E6FD1C07FF0D2C080F098
:10334E00E9EC1FF0000E00018A6F000E896FDDEFB1
:10335E0019F07EEC20F00009D8B4B8EF19F0BAEFEE
:10336E0019F0B0EF19F01D0E00017D6FFE0E7E6F8D
:10337E0089C07FF08AC080F0A00E8925D96E020E1A
:10338E008A21DA6EDF50556E5550816F826BE9ECF3
:10339E001FF08AEC20F00009D8B4D8EF19F0DAEF5C
:1033AE0019F0D0EF19F00001894B8A2BD151895DAC
:1033BE008A51800A556ED251800A5558D8A0EAEF2C
:1033CE0019F0ECEF19F0B0EF19F07A0E7D6FF90EDF
:1033DE007E6FE9EC1FF0120009500A10D8B4FAEF14
:1033EE0019F0FCEF19F005EF1AF009500A10D8A4E5
:1033FE0003EF1AF005EF1AF00AEF1AF00750D6ECA9
:10340E0020F03DEF1AF020EE04F00950D9260A50B4
:10341E00DA22DE50DE10D8B417EF1AF019EF1AF0D8
:10342E0034EF1AF020EE04F00950D9260A50DA22B1
:10343E0010EE02F00950E1260A50E222DE50E65C60
:10344E00E650800A0F6EDE50800A0F58D8B032EF69
:10345E001AF034EF1AF03DEF1AF020EE02F0095098
:10346E00D9260A50DA22DE2A000EDD221200000EC4
:10347E00876E000E866E000E836E000E846E000E3A
:10348E00856E070E8C6E070E886EBF0E896EBF0E90
:10349E008A6EFE0E8B6E0F0126693B0E216F370E64
:1034AE00196F070E2E6F1169000E256F000E2D6F0E
:1034BE00000E186F000E106F000E206F000E2C6F96
:1034CE00000E0F6F000E176F000E1F6F000E246F91
:1034DE000E6916691E692369070E2B6F0D69156932
:1034EE001D6922690F0E2A6F170E0E01B56F0B0E96
:1034FE00F56F090EFD6F0F0E8D6F12000E01C59B3D
:10350E00BE0E056E310E066EC2EC20F00E01C59990
:10351E00EA0E056E3C0E066EBDEC20F0080E9F6E98
:10352E00900E9D6E240E9E6EA00E9B6E030E9C6ED4
:10353E00010E9C6EE60E056E410E066ECCEC20F072
:10354E00D00E056E410E066EC7EC20F0D60E056E3F
:10355E00410E066ED1EC20F0000E0001DA6F000E67
:10356E00DE6F000EDD6F100EFE6F000E596E000E38
:10357E00DC6F000EDB6F0E01C58B12000E01C59FB6
:10358E00FE0E056E300E066EA9EC20F00E01C59DE6
:10359E001A0E056E3C0E066EA4EC20F0080E0E01FF
:1035AE009F6F900E9D6F240E9E6FA00E9B6F010E4F
:1035BE009C6FE40E056E410E066EB3EC20F0B60E57
:1035CE00056E410E066EAEEC20F0CA0E056E410E73
:1035DE00066EB8EC20F0000E0001DF6F000EE36FF8
:1035EE00000EE26F200EFF6F000E5A6E000EE16F9E
:1035FE00000EE06F0E01C58F1200620E00017D6F8E
:10360E00FC0E7E6FE9EC1FF0000E00018A6F000EBB
:10361E00896F2AEF1BF0660E7D6FFE0E7E6F89C0DE
:10362E007FF08AC080F0000E8925D96E020E8A21A5
:10363E00DA6EDF50556E5550816F826BE9EC1FF0DC
:10364E000001894B8A2BD551895D8A51800A556EAE
:10365E00D651800A5558D8A037EF1BF039EF1BF022
:10366E0012EF1BF07A0E7D6FF90E7E6FE9EC1FF0F4
:10367E001200E2EC20F072EC20F00009D8B44AEF10
:10368E001BF04CEF1BF042EF1BF0000E0C6E000E09
:10369E000B6E67EF1BF00B500624D96E0C500720F3
:1036AE00DA6EDF500CEC1CF095EC20F00009D8B46B
:1036BE0063EF1BF065EF1BF05BEF1BF00B4A0C2A60
:1036CE0008500B5C0C50800A0A6E0950800A0A588A
:1036DE00D8A074EF1BF076EF1BF052EF1BF0120028
:1036EE006B0E00017D6FFF0E7E6FE9EC1FF0000E7A
:1036FE00566E000E556EB40E00017D6FFD0E7E6F80
:10370E0055C07FF056C080F0D8905534D96E5634DF
:10371E00DA6E640ED926040EDA22DECF81F0DDCF0A
:10372E0082F0E9EC1FF0554A562A56BEA8EF1BF060
:10373E00565009E1200E555CD8A0A8EF1BF0AAEF59
:10374E001BF082EF1BF0120079C053F07AC054F0D8
:10375E00000E0001C86F000EC76FC9EF1BF077C0D7
:10376E0049F078C04AF0530E4B6E000E4C6E7BC083
:10377E004DF07CC04EF095EC00F049500001C7278B
:10378E004A50C82353C0F6FF54C0F7FFF86A08002A
:10379E00F5500009D8A4D6EF1BF0D8EF1BF0B6EF0A
:1037AE001BF0C7C077F0C8C078F012000BC00FF046
:1037BE000CC010F009C011F00AC012F00F500D6EBF
:1037CE0010500E6E0F4A102A0DC0F6FF0EC0F7FFF6
:1037DE00000EF86E11C0D9FF12C0DAFF114A122A7C
:1037EE000E0EF76403D00800F55005D0F6CFE9FFB2
:1037FE00F7CFEAFFEF50DF6EDF50D8A409EF1CF0D1
:10380E000BEF1CF0E5EF1BF01200056E0001FE51F0
:10381E00D8B414EF1CF016EF1CF00DEF1CF00E01D7
:10382E00C5B91CEF1CF01EEF1CF022EF1CF005C0FA
:10383E009AFF38EF1CF0C599740E0001DE25D96E83
:10384E00DA6A010EDA2205C0DFFFDE2B0F0EDE650F
:10385E0033EF1CF035EF1CF037EF1CF0000EDE6F6F
:10386E00FE070E01C58912009F0E0D6EFF0E0E6E25
:10387E000BC00FF00CC010F00D500F260E50102282
:10388E0010500AE11A0E0F5CD8A050EF1CF053EF47
:10389E001CF0010E54EF1CF0000E116E126A115046
:1038AE001210D8B45DEF1CF05FEF1CF065EF1CF04A
:1038BE005F0E0B140B6E0C6A69EF1CF00BC00BF055
:1038CE000CC00CF01200056E0001FF51D8B472EF5F
:1038DE001CF074EF1CF06BEF1CF00E01C5BD7AEFFF
:1038EE001CF07CEF1CF080EF1CF005C09AFE96EFEA
:1038FE001CF0C59D840E0001E325D96EDA6A030E15
:10390E00DA2205C0DFFFE32B1F0EE36591EF1CF0FB
:10391E0093EF1CF095EF1CF0000EE36FFF070E0106
:10392E00C58D12007E0E00017D6FF90E7E6F89C06F
:10393E007FF08AC080F08BC081F08CC082F0E9EC01
:10394E001FF0000E566E000E556EBAEF1CF0895128
:10395E005524056E8A515620066EFF0E076E31EC09
:10396E001EF0554A562A00018B51555C8C51565803
:10397E00D8A0C4EF1CF0C6EF1CF0AEEF1CF0120086
:10398E000001E051D8B4CEEF1CF0D0EF1CF0C7EF21
:10399E001CF0540EE125D96EDA6A010EDA22DF50E0
:1039AE00DF6F640EE125D96EDA6A030EDA22DF507C
:1039BE00056EE12B1F0EE165E7EF1CF0E9EF1CF041
:1039CE00EBEF1CF0000EE16F0E01C59F0001E0074A
:1039DE000E01C58F055012000001DB51D8B4FAEF6D
:1039EE001CF0FCEF1CF0F3EF1CF0000EDC25D96E82
:1039FE00DA6A030EDA22DF50DA6F000EDC25D96E9A
:103A0E00DA6A040EDA22DF50056EDC2B630EDC65FB
:103A1E0013EF1DF015EF1DF017EF1DF0000EDC6F0C
:103A2E000E01C59B0001DB070E01C58B0550120070
:103A3E00FF00000000000000000000000000000079
:103A4E0050413030363033303330302D0032FF00BD
:103A5E00000000000000000000004D6172203235B1
:103A6E002032303231323134333635383730393026
:103A7E00303A32343A3030286E756C6C2900FF00C3
:103A8E0000000000010E0B6E200E05180610D8B4B3
:103A9E0053EF1DF055EF1DF06EEF1DF0F70E076E94
:103AAE00FF0E086E05C009F006C00AF00750092681
:103ABE0008500A220A5009E1050E095CD8A06AEFE7
:103ACE001DF06CEF1DF06EEF1DF0000E0B6E0BC0B7
:103ADE0005F0066A1200000E6A6E000E6B6E000E86
:103AEE006C6E000E6D6E000E686E000E696E000E2E
:103AFE00666E000E0F015F6F000E5D6F000E5E6F43
:103B0E00000E596F000E5A6F000E5B6F000E656E41
:103B1E00000E586F000E566F000E576F940E606EAB
:103B2E000A0E5C6F120005C007F006C008F0A2EF87
:103B3E001DF0054A062A05C0F6FF06C0F7FF000E67
:103B4E00F86E0E0EF76403D00800F55005D0F6CFD0
:103B5E00E9FFF7CFEAFFEF500009D8A4B9EF1DF047
:103B6E00BBEF1DF0A0EF1DF00750055C056E085071
:103B7E000658066E1200000E066E000E056E000E42
:103B8E00066E000E056E000E0524D96E020E06207E
:103B9E00DA6EFF0EDF6E054A062A06BEE0EF1DF056
:103BAE00065009E1630E055CD8A0E0EF1DF0E2EFD0
:103BBE001DF0CAEF1DF0000E0001D66F000ED56F7E
:103BCE001200000E076E000E066E000E076E000E3F
:103BDE00066EFCEF1DF0000E0624D96E050E0720B2
:103BEE00DA6EFF0EDF6E064A072A0001D351065C1D
:103BFE000750800A056ED451800A0558D8A00AEFE6
:103C0E001EF00CEF1EF0F2EF1DF01200200E000160
:103C1E00FF6114EF1EF016EF1EF02EEF1EF0840E55
:103C2E00E225D96EDA6A030EDA22DF500E019A6FA0
:103C3E000001E22B1F0EE26527EF1EF029EF1EF0AA
:103C4E002BEF1EF0000EE26FFF2B30EF1EF00E0179
:103C5E00C59D1200000EF2BE010E086E0650030B3B
:103C6E007F6E05C07EFF07C080FF3F0E81168184E8
:103C7E00F29E550E826EAA0E826E818281B24AEF3C
:103C8E001EF04CEF1EF045EF1EF0819408B002D0EE
:103C9E00F29E01D0F28E1200000E166E000E156E00
:103CAE0064EF1EF014C007F0086A12C009F013C0CA
:103CBE000AF0F3EC19F0154A162A15501024D96E95
:103CCE0016501120DA6EDF50146E1450D8A472EF15
:103CDE001EF074EF1EF059EF1EF01200100E0001D0
:103CEE00FE617CEF1EF07EEF1EF094EF1EF0740E60
:103CFE00DD25D96EDA6A010EDA22DF509A6EDD2BDF
:103D0E000F0EDD658DEF1EF08FEF1EF091EF1EF0A2
:103D1E00000EDD6FFE2B96EF1EF00E01C599120000
:103D2E00000E066E000E056E000E066E000E056E7F
:103D3E00A00E0524D96E020E0620DA6EFF0EDF6E7F
:103D4E00054A062A06BEB5EF1EF0065009E1200E02
:103D5E00055CD8A0B5EF1EF0B7EF1EF09FEF1EF07A
:103D6E001200010002000300040005000600070017
:103D7E00080009000A000B000C000D000E000F00D9
:103D8E001000110012001300140015001600170089
:103D9E00180019001A001B001C001D001E001F0039
:103DAE00200020001F001E001D001C001B001A001A
:103DBE001900180017001600150014001300120049
:103DCE00110010000F000E000D000C000B000A0079
:103DDE0009000800070006000500040003000200A9
:103DEE00010018BE05EF1FF0185006E11704D8B0F9
:103DFE0003EF1FF005EF1FF013EF1FF017C019F0C0
:103E0E0018C01AF0191E1A1E194A1A2A19C017F0CC
:103E1E001AC018F017EF1FF017C017F018C018F0DF
:103E2E0012009F0E076EFF0E086E200E0510096E13
:103E3E00000E06100A6E0750092608500A220A5074
:103E4E000AE11A0E095CD8A02FEF1FF032EF1FF017
:103E5E00010E33EF1FF0000E056E066A1200000110
:103E6E00D951D8A43DEF1FF03FEF1FF049EF1FF0DF
:103E7E00010ED96F5B0E7D6FFF0E7E6FE9EC1FF0AA
:103E8E0051EF1FF0000ED96F4A0E7D6FFF0E7E6F41
:103E9E00E9EC1FF012009F0E076EFF0E086E05C0B4
:103EAE0009F006C00AF00750092608500A220A50E7
:103EBE000AE11A0E095CD8A067EF1FF06AEF1FF037
:103ECE00010E6BEF1FF0000E056E066A1200BF0E9C
:103EDE00076EFF0E086E05C009F006C00AF0075007
:103EEE00092608500A220A500AE11A0E095CD8A0C7
:103EFE0083EF1FF086EF1FF0010E87EF1FF0000E0D
:103F0E00056E066A1200D00E076EFF0E086E05C013
:103F1E0009F006C00AF00750092608500A220A5076
:103F2E000AE10A0E095CD8A09FEF1FF0A2EF1FF066
:103F3E00010EA3EF1FF0000E056E066A1200096E49
:103F4E0009C05FFF608E609C608060B0B1EF1FF0B3
:103F5E00B3EF1FF0ACEF1FF06450086E076A6350AA
:103F6E000724056E000E0820066E1200640E5A24F9
:103F7E00D96EDA6A030EDA2299CEDFFF5A2A1F0EA5
:103F8E005A64CCEF1FF0CEEF1FF0D0EF1FF0000EF3
:103F9E005A6E0001E02B1200000E5924D96EDA6A17
:103FAE00040EDA2299CFDFFF592A630E5964E2EF2D
:103FBE001FF0E4EF1FF0E6EF1FF0000E596E000148
:103FCE00DB2B12007F0E0001876F000E886F000E34
:103FDE00776F000E786F7DC079F07EC07AF0870E15
:103FEE007B6F000E7C6FABEC1BF0120013C005F064
:103FFE0014C006F09AEC1DF005501324096E0650FD
:10400E0014200A6E15C00BF016C00CF0DDEC1BF080
:10401E00120005500702F3CF09F0F4CF0AF0055055
:10402E000802F3500A2606500702F3500A2609C06A
:10403E0005F00AC006F01200EEEC20F034EC20F091
:10404E003EEC1AF05AEC20F085EC1AF0C5EC1AF0A2
:10405E0072EC1DF0F0EC20F01200000E0E01E16F7C
:10406E00000EE26F000EE36F000EE46F000EE56FC0
:10407E00000EE66F12000001E051D8A449EF20F0C7
:10408E004CEF20F0010E4DEF20F0000E1200065006
:10409E00030B7F6E05C07EFF3F0E8116818000F000
:1040AE0000F080501200600E0E01D86F000EDA6F15
:1040BE00000EDC6F060EDE6F000EDD6F12000001CB
:1040CE00DB51D8A46DEF20F070EF20F0010E71EFF0
:1040DE0020F0000E12000001FE51D8A479EF20F05E
:1040EE007CEF20F0010E7DEF20F0000E120000019B
:1040FE00FF51D8A485EF20F088EF20F0010E89EF54
:10410E0020F0000E12000E019EB390EF20F093EF00
:10411E0020F0010E94EF20F0000E12009EB29AEFE6
:10412E0020F09DEF20F0010E9EEF20F0000E120009
:10413E005A00FF00FFFF0800040005C0FCF106C096
:10414E00FDF1120005C0FAF106C0FBF1120005C028
:10415E00F2F106C0F3F1120005C0F4F106C0F5F15C
:10416E00120005C0F0F106C0F1F1120005C0F8F121
:10417E0006C0F9F1120005C0F6F106C0F7F1120003
:10418E0005C0ECF106C0EDF1120005C0EEF106C05F
:10419E00EFF1120005C0EAF106C0EBF11200066E57
:1041AE0006506AEC1CF012000E019D999D891200BA
:1041BE00869083961200868083861200BDEC1FF0D7
:1041CE0012009D989D881200D3EC1FF01200F29AF7
:0A41DE001200609C12001200120093
:10F8A4000020202020202041646420307830303033
:10F8B4003020746F20307830303331202D203332B3
:10F8C4007820436972637569742053657420537496
:10F8D400617475732020286C6F77657220386269B3
:10F8E4007473206F6E6C79290D0A0A002020202081
:10F8F40020204164642030783030303020746F2010
:10F90400307830303331202D2033327820436972FF
:10F91400637569742047657420537461747573202A
:10F92400286C6F776572203862697473206F6E6C0F
:10F9340079290D0A002020202020204164642030F1
:10F94400783036303020746F2030783036303220C2
:10F954002D20337820416E616C6F67756520496E88
:10F96400707574732028307830303020746F2030F4
:10F974007830336666290D0A0A00436C6561726942
:10F984006E6720454550524F4D2066726F6D204181
:10F994006464726573733A20307825303478206655
:10F9A4006F72206E756D2062797465733A202569D3
:10F9B400200D0A002020202020204164642030787B
:10F9C4003035303020746F20307830353034202D8D
:10F9D40020436F6D70696C652054696D65202D201E
:10F9E400284153434949290D0A00436F6D706C65E2
:10F9F40074656420416464696E672072784461743C
:10FA0400612042756666657220746F204D6F646272
:10FA14007573446174612041727261790D0A0A0040
:10FA240020202030783130202D20577269746520D1
:10FA34004D756C7469706C65205265676973746583
:10FA4400727320284D617820333278203136626910
:10FA540074290D0A002020202020204164642030D5
:10FA6400783034303020746F2030783034303520A2
:10FA74002D20436F6D70696C652044617465202886
:10FA84004153434949290D0A002020203F202D20BD
:10FA9400496E6974616C69736520616E6420646980
:10FAA40073706C6179206361726420646574616948
:10FAB4006C730D0A00202020202020416464203033
:10FAC400783031303020746F203078303130382045
:10FAD4002D2050617274204E756D6265720D0A009E
:10FAE400436F6D70696C6564206F6E2025732061AF
:10FAF4007420257320627920584338207665727308
:10FB0400696F6E2025750D0A0A0020202030783098
:10FB140033202D2052656164204D756C7469706CBE
:10FB24006520313662697420526567697374657241
:10FB3400730D0A00202020202020416464203078A6
:10FB44003033303020746F20307830333034202D0F
:10FB5400205265766973696F6E0D0A000D0A44615F
:10FB64006E20616E642053616D2773204D6F646253
:10FB74007573204750494F20457870616E73696FE3
:10FB84006E0D0A000D0A456E74657220636172641D
:10FB940020257320286D61782025692063686172AF
:10FBA400616374657273293A2000202020736572A2
:10FBB40069616C202D205365742063617264207325
:10FBC400657269616C206E756D6265720D0A000D57
:10FBD4000A5265636569766564204D6F6462757366
:10FBE4002043524320636865636B6564206F7574BA
:10FBF4002E0D0A004D6F646275732046756E637432
:10FC0400696F6E20436F64657320537570706F72F3
:10FC14007465643A0D0A0A00637263486967683A56
:10FC24002030782530327820206372634C6F773A25
:10FC34002030782530327820200D0A00496E69740E
:10FC4400616C69736174696F6E20436F6D706C656C
:10FC54007465202D2052656164790D0A0A000D0A2D
:10FC64004D6F6462757320446174612043617074E4
:10FC740075726520436F6D706C6574653A0D0A008A
:10FC840020202070617274202D20536574206361DC
:10FC940072642070617274206E756D6265720D0AF3
:10FCA400000D0A456E74657265643A202573200D53
:10FCB4000A20436F6E6669726D2020597C4E3F3A6C
:10FCC4002000202020726576202D20536574206347
:10FCD4006172642070617274206E756D6265720D5C
:10FCE4000A000D0A5265636569766564204D6F6488
:10FCF40062757320435243206973206261642E0D40
:10FD04000A004D6F64627573205265676973746588
:10FD140072204265666F7265205570646174653A3D
:10FD240000202020202020416464203078303230AC
:10FD340030202D205265766973696F6E0D0A00526A
:10FD4400657175657374656420416E616C6F677568
:10FD54006520496E707574730D0A0A004D6F644412
:10FD6400617461436E742073697474696E67206191
:10FD7400742025690D0A0A004D6F64627573205260
:10FD84006573706F6E736520436F756E742025699B
:10FD94003A0D0A00556E737570706F727465642045
:10FDA40046756E6374696F6E20436F64650D0A0057
:10FDB4002020205265673A20256920446174613A05
:10FDC40020307825303478200D0A0052657175652D
:10FDD4007374656420436972637569742044617443
:10FDE400610D0A0A00526571756573746564204378
:10FDF4006F6D70696C652054696D650D0A0A005257
:10FE0400657175657374656420436F6D70696C65A5
:10FE140020446174650D0A0A00202020427974652B
:10FE24002025303269203A20307825303278200D70
:10FE34000A0052657175657374656420536572694F
:10FE4400616C204E6F2E0D0A0A00536F6D65746845
:10FE5400696E6720696E2045535541525431200D17
:10FE64000A0020202042797465202569203A203038
:10FE74007825303278200D0A004361726420416491
:10FE840064726573732E2030783035200D0A004378
:10FE94006F6D6D616E647320537570706F727465ED
:10FEA400643A0D0A00526571756573746564205077
:10FEB400617274204E6F2E0D0A0A005265717565C9
:10FEC40073746564205265766973696F6E0D0A0AEE
:10FED4000043617264205265766973696F6E2E20E7
:10FEE4002573200D0A0046756E6374696F6E204396
:10FEF4006F646520307831300D0A004361726420EC
:10FF040050617274204E6F2E202573200D0A004319
:10FF140061726420536572204E6F2E202573200D6C
:10FF24000A000D0A456E74657220436F6D6D616E33
:10FF340064203A20004E756D2043686172733A2044
:10FF44002569200D0A004465627567204469736160
:10FF5400626C65640D0A00446562756720456E61D4
:10FF6400626C65640D0A00557064617465644D4289
:10FF7400343030200D0A00526561643A203078250F
:10FF8400303278200D0A00590D0A536176696E6784
:10FF94002025730D0A004144433A2030782530343B
:10FFA40078200D0A0025732053617665642E200D98
:10FFB4000A004E6F742073617665640D0A004D610A
:10FFC4007220323520323032310030303A32343A15
:10FFD40030300053657269616C0073657269616CDD
:10FFE40000646562756700506172740070617274B8
:0CFFF4000052657600726576003F000048
:020000040020DA
:10000000FF0FFF0FFF0FFF0FFF0FFF0FFF0FFF0F80
:020000040030CA
:0C000000ECFFFFFF9FFFFFFFFFFFFFFF73
:00000001FF
