:020000040000FA
:0400000093EF00F08A
:100008005B82FACF01F0FBCF02F0D9CF03F0DACF51
:1000180004F0F2AC12EF00F014EF00F089EF00F0FA
:100028000E01C5AD1AEF00F01CEF00F032EF00F042
:10003800CDAD21EF00F023EF00F032EF00F002D851
:1000480030EF00F00500FA6E0001FC51FD6EFD5125
:10005800FE6EFF6AFA50120089EF00F0C5AF37EF65
:1000680000F039EF00F04FEF00F0CDAF3EEF00F0B9
:1000780040EF00F04FEF00F002D84DEF00F0050020
:10008800FA6E0001FA51FD6EFB51FE6EFF6AFA50DE
:10009800120089EF00F0C5A954EF00F056EF00F008
:1000A8006CEF00F0CDA95BEF00F05DEF00F06CEFB6
:1000B80000F002D86AEF00F00500FA6E0001F8516E
:1000C800FD6EF951FE6EFF6AFA50120089EF00F0DA
:1000D800C5AB71EF00F073EF00F089EF00F0CDAB26
:1000E80078EF00F07AEF00F089EF00F002D887EFA0
:1000F80000F00500FA6E0001F651FD6EF751FE6E34
:10010800FF6AFA50120089EF00F004C0DAFF03C05A
:10011800D9FF02C0FBFF01C0FAFF5B92110089EF13
:100128001DF0000E0001976F000ED86F000ED76FFC
:10013800570ED725D96E020ED821DA6E00C1DFFF1F
:10014800D74BD82B570ED725D96E020ED821DA6E89
:1001580001C1DFFFD74BD82B01010551020D570E06
:100168000001D725D96E020ED821DA6EF3CFDFFF52
:10017800D74BD82BC1EF04F0D90E7D6FFD0E7E6FE3
:100188008AEC28F0010102510001906F8F6B010188
:10019800055104C191F00001926B91C092F0916BEE
:1001A8009127000E92238F5191279051922301019C
:1001B800035100019127000E922392BFE6EF00F051
:1001C800E8EF00F011EF01F0010102510001906F1A
:1001D8008F6B0101055104C191F00001926B91C030
:1001E80092F0916B9127000E92238F519127905195
:1001F80092230101035100019127000E922392BF1F
:100208000FEF01F0925109E1210E915DD8A00FEF97
:1002180001F011EF01F0ECEF04F0580E7D6FF70ECE
:100228007E6F8AEC28F0350E00017D6FFD0E7E6F23
:10023800010102510001906F8F6B01010351000110
:100248008F257F6F0101000E00019021806F010151
:1002580004510001926F916B0101035102C193F0A7
:100268000001946B93C094F0936B9327000E942332
:10027800915193279251942301010551000193252F
:10028800816F0101000E00019421826F8AEC28F031
:10029800010E0001976FECEF04F0A90E7D6FFE0EC2
:1002A8007E6F8AEC28F0010102510001906F8F6B7C
:1002B8000101055104C191F00001926B91C092F0C7
:1002C800916B9127000E92238F5191279051922381
:1002D8000101035100019127000E922392BF7BEF89
:1002E80001F09205D8A07BEF01F07DEF01F0A6EFB9
:1002F80001F0010102510001906F8F6B010105515E
:1003080004C191F00001926B91C092F0916B91271A
:10031800000E92238F51912790519223010103518E
:1003280000019127000E922392BFA4EF01F0090E5D
:10033800915D010E9259D8A0A4EF01F0A6EF01F04B
:10034800ECEF04F05C0E7D6FF80E7E6F8AEC28F0FF
:10035800350E00017D6FFD0E7E6F01010251000117
:10036800906F8F6B0101035100018F257F6F010191
:10037800000E00019021806F010104510001926F6D
:10038800916B0101035102C193F00001946B93C07A
:1003980094F0936B9327000E9423915193279251D5
:1003A80094230101055100019325816F0101000E7D
:1003B80000019421826F8AEC28F04CEF01F0D30EF3
:1003C8007D6FFE0E7E6F8AEC28F00101025100015C
:1003D800906F8F6B0101055104C191F00001926B80
:1003E80091C092F0916B9127000E92238F51912723
:1003F800905192230101035100019127000E92238D
:1004080092BF0EEF02F0020E925DD8A00EEF02F03E
:1004180010EF02F038EF02F0010102510001906F75
:100428008F6B0101055104C191F00001926B91C0DD
:1004380092F0916B9127000E92238F519127905142
:1004480092230101035100019127000E922392BFCC
:1004580036EF02F09105020E9259D8A036EF02F05D
:1004680038EF02F0ECEF04F0A30E7D6FF90E7E6F0B
:100478008AEC28F0350E00017D6FFD0E7E6F0101BC
:1004880002510001906F8F6B0101035100018F250C
:100498007F6F0101000E00019021806F010104515E
:1004A8000001926F916B0101035102C193F00001A9
:1004B800946B93C094F0936B9327000E94239151FF
:1004C8009327925194230101055100019325816FCF
:1004D8000101000E00019421826F8AEC28F04CEF94
:1004E80001F03C0E7D6FFE0E7E6F8AEC28F0010154
:1004F80002510001906F8F6B0101055104C191F009
:100508000001926B91C092F0916B9127000E92239B
:100518008F51912790519223010103510001912796
:10052800000E922392BFA0EF02F0030E925DD8A0B6
:10053800A0EF02F0A2EF02F0CBEF02F001010251AE
:100548000001906F8F6B0101055104C191F000010A
:10055800926B91C092F0916B9127000E92238F516C
:100568009127905192230101035100019127000E18
:10057800922392BFC9EF02F0050E915D030E9259C6
:10058800D8A0C9EF02F0CBEF02F0ECEF04F0F40EC4
:100598007D6FF70E7E6F8AEC28F0350E00017D6FB7
:1005A800FD0E7E6F010102510001906F8F6B0101FA
:1005B800035100018F257F6F0101000E000190217A
:1005C800806F010104510001926F916B0101035189
:1005D80002C193F00001946B93C094F0936B93273E
:1005E800000E9423915193279251942301010551B0
:1005F80000019325816F0101000E00019421826F93
:100608008AEC28F04CEF01F00B0E7D6FFE0E7E6F2A
:100618008AEC28F0010102510001906F8F6B0101F3
:10062800055104C191F00001926B91C092F0916B59
:100638009127000E92238F51912790519223010107
:10064800035100019127000E922392BF33EF03F06C
:10065800040E925DD8A033EF03F035EF03F05EEFA0
:1006680003F0010102510001906F8F6B01010551E8
:1006780004C191F00001926B91C092F0916B9127A7
:10068800000E92238F51912790519223010103511B
:1006980000019127000E922392BF5CEF03F0060E33
:1006A800915D040E9259D8A05CEF03F05EEF03F061
:1006B800ECEF04F0280E7D6FF80E7E6F8AEC28F0C0
:1006C800350E00017D6FFD0E7E6F010102510001A4
:1006D800906F8F6B0101035100018F257F6F01011E
:1006E800000E00019021806F010104510001926FFA
:1006F800916B0101035102C193F00001946B93C007
:1007080094F0936B9327000E942391519327925161
:1007180094230101055100019325816F0101000E09
:1007280000019421826F8AEC28F04CEF01F0F20E60
:100738007D6FFD0E7E6F8AEC28F0010102510001E9
:10074800906F8F6B0101055104C191F00001926B0C
:1007580091C092F0916B9127000E92238F519127AF
:10076800905192230101035100019127000E922319
:1007780092BFC6EF03F0050E925DD8A0C6EF03F056
:10078800C8EF03F0F1EF03F0010102510001906F8F
:100798008F6B0101055104C191F00001926B91C06A
:1007A80092F0916B9127000E92238F5191279051CF
:1007B80092230101035100019127000E922392BF59
:1007C800EFEF03F0040E915D050E9259D8A0EFEFFC
:1007D80003F0F1EF03F0ECEF04F0C00E7D6FF70EBD
:1007E8007E6F8AEC28F0350E00017D6FFD0E7E6F5E
:1007F800010102510001906F8F6B0101035100014B
:100808008F257F6F0101000E00019021806F01018B
:1008180004510001926F916B0101035102C193F0E1
:100828000001946B93C094F0936B9327000E94236C
:100838009151932792519423010105510001932569
:10084800816F0101000E00019421826F8AEC28F06B
:100858004CEF01F0530E7D6FFD0E7E6F8AEC28F091
:10086800010102510001906F8F6B0101055104C114
:1008780091F00001926B91C092F0916B9127000E5C
:1008880092238F5191279051922301010351000126
:100898009127000E922392BF59EF04F0060E925D45
:1008A800D8A059EF04F05BEF04F084EF04F00101E5
:1008B80002510001906F8F6B0101055104C191F045
:1008C8000001926B91C092F0916B9127000E9223D8
:1008D8008F519127905192230101035100019127D3
:1008E800000E922392BF82EF04F0030E915D060E74
:1008F8009259D8A082EF04F084EF04F0ECEF04F0F2
:100908008C0E7D6FF70E7E6F8AEC28F0350E000195
:100918007D6FFD0E7E6F010102510001906F8F6B9C
:100928000101035100018F257F6F0101000E0001B5
:100938009021806F010104510001926F916B0101B8
:10094800035102C193F00001946B93C094F0936B30
:100958009327000E942391519327925194230101D8
:10096800055100019325816F0101000E00019421BA
:10097800826F8AEC28F04CEF01F00101025100016E
:100988008F6F906B9051000AD8B4CDEF04F0ECEF64
:1009980004F08F51000AD8B4C0EF00F0010AD8B4AF
:1009A80051EF01F0030AD8B4E3EF01F0010AD8B41B
:1009B80075EF02F0070AD8B408EF03F0010AD8B4BB
:1009C8009BEF03F0030AD8B42EEF04F0ECEF04F029
:1009D8009751D8A4F2EF04F0F4EF04F0E6EF06F034
:1009E800000E996F000E986F90EF06F0030E01014C
:1009F8000219D8A402EF05F004EF05F035EF05F071
:100A08000351000198258F6F000E9921906FD8909F
:100A18008F3790377E0E8F25D96E010E9021DA6EB2
:100A2800DECF91F0DDCF92F09151EB6FEC6B0101CD
:100A38000351000198258F6F000E9921906FD8906F
:100A48008F3790377E0E8F25D96E010E9021DA6E82
:100A5800DECF91F0DDCF92F09251D56FD66B79EF62
:100A680006F00205D8A43BEF05F03DEF05F06EEF68
:100A780005F00351000198258F6F000E9921906FA2
:100A8800D8908F379037640E8F25D96E010E90213C
:100A9800DA6EDECF91F0DDCF92F09151EB6FEC6B17
:100AA80001010351000198258F6F000E9921906F65
:100AB800D8908F379037640E8F25D96E010E90210C
:100AC800DA6EDECF91F0DDCF92F09251D56FD66B12
:100AD80079EF06F0020E0219D8A475EF05F077EF4A
:100AE80005F0A8EF05F00351000198258F6F000E5F
:100AF8009921906FD8908F379037F30E8F25D96E44
:100B0800000E9021DA6EDECF91F0DDCF92F0915198
:100B1800EB6FEC6B01010351000198258F6F000EFC
:100B28009921906FD8908F379037F30E8F25D96E13
:100B3800000E9021DA6EDECF91F0DDCF92F0925167
:100B4800D56FD66B79EF06F0040E0219D8A4AFEF73
:100B580005F0B1EF05F0E2EF05F00351000198252B
:100B68008F6F000E9921906FD8908F379037720E43
:100B78008F25D96E010E9021DA6EDECF91F0DDCF90
:100B880092F09151EB6FEC6B010103510001982534
:100B98008F6F000E9921906FD8908F379037720E13
:100BA8008F25D96E010E9021DA6EDECF91F0DDCF60
:100BB80092F09251D56FD66B79EF06F0050E0219B7
:100BC800D8A4E9EF05F0EBEF05F01CEF06F00351B0
:100BD800000198258F6F000E9921906FD8908F375C
:100BE80090373C0E8F25D96E020E9021DA6EDECF3B
:100BF80091F0DDCF92F09151EB6FEC6B0101035155
:100C0800000198258F6F000E9921906FD8908F372B
:100C180090373C0E8F25D96E020E9021DA6EDECF0A
:100C280091F0DDCF92F09251D56FD66B79EF06F047
:100C38000251D8A422EF06F024EF06F055EF06F093
:100C48000351000198258F6F000E9921906FD8905D
:100C58008F379037640E8F25D96E040E9021DA6E87
:100C6800DECF91F0DDCF92F09151EB6FEC6B01018B
:100C78000351000198258F6F000E9921906FD8902D
:100C88008F379037640E8F25D96E040E9021DA6E57
:100C9800DECF91F0DDCF92F09251D56FD66B79EF20
:100CA80006F0060E0219D8A45CEF06F05EEF06F017
:100CB80079EF06F0000E47EC28F005C095F006C065
:100CC80096F09A0E00017D6FFF0E7E6F95C07FF043
:100CD80096C080F08AEC28F000019551EB6FEC6B20
:100CE8009651D56FD66B79EF06F0570E0001D725D0
:100CF800D96E020ED821DA6ED5C0DFFFD74BD82BBC
:100D0800570ED725D96E020ED821DA6EEBC0DFFF59
:100D1800D74BD82B984B992B0101055100018F6FA8
:100D2800906B8F51985D9951800A916F9051800A0C
:100D38009159D8A0A2EF06F0A4EF06F0FAEF04F05C
:100D4800D7C005F0D8C006F0010E076EECEC1EF017
:100D580005C0D5F006C0D6F0D7C005F0D8C006F05B
:100D6800000E076EECEC1EF005C0EBF006C0ECF0D0
:100D7800570E0001D725D96E020ED821DA6ED5C0DC
:100D8800DFFF580ED725D96E020ED821DA6EEBC0D8
:100D9800DFFF020ED725D76F000ED821D86F570E68
:100DA800066E020E076ED7C008F0D8C009F03FECF7
:100DB80024F0C00E00017D6FFD0E7E6F8AEC28F0D6
:100DC800F3EF06F0000E156E020E146EE7EC20F03D
:100DD800940E00017D6FFE0E7E6F8AEC28F01200E3
:100DE8004BC0D9FF4CC0DAFFDECFF6FFDDCFF7FFEF
:100DF800F86A0800F550250AD8A405EF07F007EFB0
:100E080007F09CEF09F04BC0D9FF4CC0DAFFDE2A8F
:100E1800000EDD22000E0001D06F000ECF6FCFC094
:100E280057F0D0C058F0D169D269000E6C6F000E2F
:100E38006B6F66EF07F057804BC0D9FF4CC0DAFFE5
:100E4800DE2A000EDD2266EF07F0578220EF07F05A
:100E5800578420EF07F0578620EF07F0578820EFD8
:100E680007F0000E6C6F010E6B6F66EF07F04BC05A
:100E7800D9FF4CC0DAFFDECFF6FFDDCFF7FFF86A07
:100E88000800F5504F6E506A5050000AD8B44FEF22
:100E980007F035EF07F04F50200AD8B42FEF07F0CE
:100EA800030AD8B432EF07F0080AD8B42CEF07F0D9
:100EB800060AD8B41FEF07F01D0AD8B429EF07F0C7
:100EC80035EF07F06B516C11D8B46DEF07F06FEF89
:100ED80007F03BEF07F057A074EF07F076EF07F045
:100EE80077EF07F057924BC0D9FF4CC0DAFFDECF3F
:100EF800F6FFDDCFF7FFF86A0800F5502A0AD8A4F4
:100F080088EF07F08AEF07F0B3EF07F04BC0D9FF7F
:100F18004CC0DAFFDE2A000EDD224DC0D9FF4EC0DC
:100F2800DAFFDFCF4FF0020EDE26DFCF50F0000EE3
:100F3800DD224FC0D9FF50C0DAFFDECFCFF0DDCFC2
:100F4800D0F0D0BFACEF07F0AAEF07F0F8EF07F04A
:100F58005780CF6DD01FD8B0D02BF8EF07F04BC01B
:100F6800D9FF4CC0DAFFDECF0CF0DDCF0DF05DEC21
:100F780019F00CC0CFF00DC0D0F0CAEF07F04BC08D
:100F8800D9FF4CC0DAFFDE2A000EDD22D00E4F6EEC
:100F9800FF0E506E4BC0D9FF4CC0DAFFDECFF6FF14
:100FA800DDCFF7FFF86A0800F550516E526A4F50CE
:100FB80051265050522252500AE10A0E515CD8A0D4
:100FC800E8EF07F0EBEF07F0010EECEF07F0000E8B
:100FD80000016D6F6E6B6D516E11D8A4F6EF07F0BE
:100FE800F8EF07F0C3EF07F04BC0D9FF4CC0DAFFAA
:100FF800DECFF6FFDDCFF7FFF86A0800F550640A88
:10100800D8B409EF08F00BEF08F01EEF08F04BC05A
:10101800D9FF4CC0DAFFDECFF6FFDDCFF7FFF86A65
:101028000800F550690AD8A41CEF08F01EEF08F074
:101038005EEF08F04BC0D9FF4CC0DAFFDE2A000E85
:10104800DD224DC0D9FF4EC0DAFFDFCF4FF0020ED0
:10105800DE26DFCF50F0000EDD224FC0D9FF50C092
:10106800DAFFDECF60F0DDCF61F0000E61BFFF0E6A
:10107800626F636F646F656F666F676F49C022F058
:101088004AC023F060C024F061C025F062C026F099
:1010980063C027F064C028F065C029F066C02AF054
:1010A80067C02BF00DEC10F022C049F023C04AF0C5
:1010B800B8EF09F04BC0D9FF4CC0DAFFDECFF6FF1E
:1010C800DDCFF7FFF86A0800F550730AD8A46FEF70
:1010D80008F071EF08F09CEF08F04BC0D9FF4CC046
:1010E800DAFFDE2A000EDD224DC0D9FF4EC0DAFF3E
:1010F800DFCF4FF0020EDE26DFCF50F0000EDD22EC
:101108004FC0D9FF50C0DAFFDECF68F0DDCF69F0FD
:1011180049C010F04AC011F068C012F069C013F05D
:1011280090EC18F010C049F011C04AF0B8EF09F07F
:101138004BC0D9FF4CC0DAFFDECFF6FFDDCFF7FF9B
:10114800F86A0800F550750AD8A4ADEF08F0AFEFBB
:1011580008F0F0EF08F04BC0D9FF4CC0DAFFDE2AE8
:10116800000EDD224DC0D9FF4EC0DAFFDFCF4FF0B1
:10117800020EDE26DFCF50F0000EDD224FC0D9FF71
:1011880050C0DAFFDECF51F0DDCF52F051C06FF022
:1011980052C070F0716B726B736B746B756B766B9E
:1011A80049C022F04AC023F06FC024F070C025F077
:1011B80071C026F072C027F073C028F074C029F0FF
:1011C80075C02AF076C02BF00DEC14F022C049F05F
:1011D80023C04AF0B8EF09F04BC0D9FF4CC0DAFF82
:1011E800DECFF6FFDDCFF7FFF86A0800F550780A82
:1011F800D8B401EF09F003EF09F016EF09F04BC07E
:10120800D9FF4CC0DAFFDECFF6FFDDCFF7FFF86A73
:101218000800F550580AD8A414EF09F016EF09F0A1
:1012280065EF09F04BC0D9FF4CC0DAFFDECFF6FFFF
:10123800DDCFF7FFF86A0800F5CF6AF04BC0D9FF99
:101248004CC0DAFFDE2A000EDD224DC0D9FF4EC0A9
:10125800DAFFDFCF4FF0020EDE26DFCF50F0000EB0
:10126800DD224FC0D9FF50C0DAFFDECF51F0DDCF0D
:1012780052F051C06FF052C070F0716B726B736BAB
:10128800746B756B766B49C022F04AC023F06FC04F
:1012980024F070C025F071C026F072C027F073C02A
:1012A80028F074C029F075C02AF076C02BF06AC007
:1012B8002CF07DEC11F022C049F023C04AF0B8EFC1
:1012C80009F04BC0D9FF4CC0DAFFDECFF6FFDDCF07
:1012D800F7FFF86A0800F550250AD8A476EF09F058
:1012E80078EF09F08FEF09F04BC0D9FF4CC0DAFF57
:1012F800DE2A000EDD22000E086E250E076E49C09C
:1013080009F04AC00AF0F6EC22F0000E4A6E010E0F
:10131800496EB8EF09F04BC0D9FF4CC0DAFFDE2A9E
:10132800000EDD22000E4A6E000E496EB8EF09F07D
:101338004BC0D9FF4CC0DAFFDECFF6FFDDCFF7FF99
:10134800F86A0800F550076E086A49C009F04AC0F3
:101358000AF0F6EC22F04BC0D9FF4CC0DAFFDE2AC7
:10136800000EDD2289EF09F012000001C06F20EEA7
:10137800B5F00A0EDE6AE806FDE2D70E0A6EFF0E29
:101388000B6EB50E0C6E000E0D6E030E0F6E000E7A
:101398000E6E000E116E050E106E0EEC15F020EE9E
:1013A8008FF0120EDE6AE806FDE2EB0E0A6EFF0E03
:1013B8000B6E8F0E0C6E000E0D6E010E0F6E000E72
:1013C8000E6E000E116E080E106E0EEC15F0000E6B
:1013D8000001C46F000EC36FF50E0A6EFF0E0B6E90
:1013E800C30E0C6E000E0D6E020E0F6E000E0E6E0A
:1013F800000E116E010E106E0EEC15F0CD0E0001F0
:101408007D6FF90E7E6F8AEC28F0FC0E00017D6F6F
:10141800FE0E7E6FB50E7F6F000E806F8AEC28F08F
:10142800E80E00017D6FFE0E7E6F8F0E7F6F000E3F
:10143800806F8AEC28F07F0E00017D6FFE0E7E6FB4
:10144800C30E7F6F000E806F8AEC28F0530E0001E8
:101458007D6FFE0E7E6F8AEC28F04F0E00017D6FC7
:10146800F90E7E6FC20E7F6FFF0E806FCE0E816FFA
:10147800FF0E826F080E846F340E836F8AEC28F09B
:10148800000E0001C86F000EC76F22EE4CF010EE80
:10149800A2F00A0EDBCFE3FFE806FCE2000ECA6FFB
:1014A800000EC96FA20EC925D96E000ECA21DA6EC8
:1014B800DF50C56F010EC925556E000ECA21566E44
:1014C800A20E5524D96E000E5620DA6EDF50C66F74
:1014D800C651C5C055F0566A55C056F0556A5526CE
:1014E800000E5622D890C735D96EC835DA6E720EFE
:1014F800D926010EDA2255C0DEFF56C0DDFFC74BE4
:10150800C82B020EC925C96F000ECA21CA6FCABFEF
:1015180097EF0AF0CA5109E10C0EC95DD8A097EF00
:101528000AF099EF0AF056EF0AF0000EC86F000EA5
:10153800C76F21EE88F010EEADF0070EDBCFE3FFAA
:10154800E806FCE2000ECC6F000ECB6FAD0ECB258B
:10155800D96E000ECC21DA6EDF50C56F010ECB2597
:10156800556E000ECC21566EAD0E5524D96E000E68
:101578005620DA6EDF50C66FC651C5C055F0566AA0
:1015880055C056F0556A5526000E5622D890C735D4
:10159800D96EC835DA6E3C0ED926020EDA2255C04D
:1015A800DEFF56C0DDFFC74BC82B020ECB25CB6F25
:1015B800000ECC21CC6FCCBFEBEF0AF0CC5109E187
:1015C800080ECB5DD8A0EBEF0AF0EDEF0AF0AAEF1A
:1015D8000AF0C005D8B4F3EF0AF0F5EF0AF092EF7D
:1015E8000BF0B30E7D6FFB0E7E6F8AEC28F0480E71
:1015F80000017D6FFB0E7E6F8AEC28F0790E0001EA
:101608007D6FF90E7E6F8AEC28F0AB0E00017D6FBE
:10161800F30E7E6F8AEC28F0C40E00017D6FF80E81
:101628007E6F8AEC28F0F50E00017D6FF90E7E6F53
:101638008AEC28F0850E00017D6FF60E7E6F8AEC2D
:1016480028F0240E00017D6FF70E7E6F8AEC28F0DB
:10165800AD0E00017D6FF50E7E6F8AEC28F0F40E5A
:1016680000017D6FF30E7E6F8AEC28F0390E0001C1
:101678007D6FF40E7E6F8AEC28F0600E00017D6F9E
:10168800F30E7E6F8AEC28F07D0E00017D6FF40E5C
:101698007E6F8AEC28F0150E00017D6FF30E7E6FC9
:1016A8008AEC28F0690E00017D6FFE0E7E6F8AECD1
:1016B80028F0F70E00017D6FF80E7E6F8AEC28F097
:1016C800D90E00017D6FFA0E7E6F8AEC28F0F70EB6
:1016D80000017D6FFB0E7E6F8AEC28F07B0E000107
:1016E8007D6FFC0E7E6F8AEC28F0AF0E00017D6FD7
:1016F800F20E7E6F8AEC28F0000E47EC28F005C049
:10170800C1F006C0C2F06B0E00017D6FFF0E7E6F48
:10171800C1C07FF0C2C080F08AEC28F01200000E31
:101728000001956F000ED86F000ED76F570ED725A2
:10173800D96E020ED821DA6E00C1DFFFD74BD82B45
:10174800570ED725D96E020ED821DA6E01C1DFFFF8
:10175800D74BD82B01010551020D570E0001D72593
:10176800D96E020ED821DA6EF3CFDFFFD74BD82B14
:1017780049EF0CF0010102510001906F8F6B0101DC
:10178800055104C191F00001926B91C092F0916BE8
:101798009127000E92238F51912790519223010196
:1017A800035100019127000E922392BFDEEF0BF048
:1017B800E0EF0BF009EF0CF0010102510001906F0E
:1017C8008F6B0101055104C191F00001926B91C02A
:1017D80092F0916B9127000E92238F51912790518F
:1017E80092230101035100019127000E922392BF19
:1017F80007EF0CF0925109E1210E915DD8A007EF97
:101808000CF009EF0CF05CEF0CF0580E7D6FF70E42
:101818007E6F8AEC28F0350E00017D6FFD0E7E6F1D
:10182800010102510001906F8F6B0101035100010A
:101838008F257F6F0101000E00019021806F01014B
:1018480004510001926F916B0101035102C193F0A1
:101858000001946B93C094F0936B9327000E94232C
:101868009151932792519423010105510001932529
:10187800816F0101000E00019421826F8AEC28F02B
:10188800010E0001956F5CEF0CF00101025100019F
:101898008F6F906B9051000AD8B455EF0CF05CEF45
:1018A8000CF08F51000AD8B4BEEF0BF05CEF0CF0CF
:1018B8009551D8A462EF0CF064EF0CF00FEF0DF027
:1018C800000E976F000E966FB9EF0CF001010251F0
:1018D800D8A471EF0CF073EF0CF0A2EF0CF00351E9
:1018E800000196258F6F000E9721906FD8908F3743
:1018F8009037B70E8F25D96E030E9021DA6EDECFA2
:1019080091F0DDCF92F09151EB6FEC6B0101035137
:10191800000196258F6F000E9721906FD8908F3712
:101928009037B70E8F25D96E030E9021DA6EDECF71
:1019380091F0DDCF92F09251D56FD66B570E000122
:10194800D725D96E020ED821DA6ED5C0DFFFD74B66
:10195800D82B570ED725D96E020ED821DA6EEBC0D8
:10196800DFFFD74BD82B964B972B01010551000170
:101978008F6F906B8F51965D9751800A916F905140
:10198800800A9159D8A0CBEF0CF0CDEF0CF06AEF9C
:101998000CF0D7C005F0D8C006F0010E076EECECCD
:1019A8001EF005C0D5F006C0D6F0D7C005F0D8C0E7
:1019B80006F0000E076EECEC1EF005C0EBF006C05A
:1019C800ECF0570E0001D725D96E020ED821DA6E39
:1019D800D5C0DFFF580ED725D96E020ED821DA6E92
:1019E800EBC0DFFF020ED725D76F000ED821D86FC6
:1019F800570E066E020E076ED7C008F0D8C009F061
:101A08003FEC24F0C00E00017D6FFD0E7E6F8AEC66
:101A180028F01CEF0DF0000E156E020E146EE7ECA8
:101A280020F0940E00017D6FFE0E7E6F8AEC28F088
:101A38001200220E00017D6FFF0E7E6F8AEC28F0E7
:101A4800030E02015819D8B42CEF0DF02EEF0DF04B
:101A580037EF0DF0040E5819D8A435EF0DF037EF15
:101A68000DF0F6EF0DF06C0E00017D6FFB0E7E6F32
:101A780057C27FF0806B8AEC28F0E30E00017D6F7F
:101A8800F50E7E6F58C27FF0806B8AEC28F0410E0D
:101A980000017D6FFA0E7E6F59C27FF0806B8AEC71
:101AA80028F0000E0001936F010E926F000E956FE3
:101AB800000E946FB1EF0DF0190E7D6FF60E7E6F6C
:101AC800010E94257F6F000E9521806F5A0E942584
:101AD800D96E020E9521DA6EDF508F6F8F51816FAC
:101AE800826BFF0E9225836FFF0E9321846F02C1D4
:101AF80085F0866B0101035100019225906F000E5D
:101B08009321916FFF0E9025876FFF0E9121886FAB
:101B18008AEC28F00001944B952B900E7D6FFB0EFC
:101B28007E6F010E94257F6F000E9521806F5A0EEF
:101B38009425D96E020E9521DA6EDF508F6F8F5182
:101B4800816F826B92C083F093C084F08AEC28F096
:101B58000001924B932B944B952B02015951000194
:101B68008F6F906B8F51945D9551800A916F905152
:101B7800800A9159D8A0C3EF0DF0C5EF0DF060EFC2
:101B88000DF09B0E7D6FFC0E7E6F010E94257F6F0E
:101B9800000E9521806F5A0E9425D96E020E95215C
:101BA800DA6EDF508F6F8F51816F826B8AEC28F06D
:101BB800BB0E00017D6FFC0E7E6F020E94257F6FB9
:101BC800000E9521806F5B0E9425D96E020E95212B
:101BD800DA6EDF508F6F8F51816F826B8AEC28F03D
:101BE80094EF0EF0100E5819D8A4FDEF0DF0FFEF8A
:101BF8000DF051EF0EF06C0E00017D6FFB0E7E6F45
:101C080057C27FF0806B8AEC28F0E30E00017D6FED
:101C1800F50E7E6F58C27FF0806B8AEC28F08D0E2F
:101C280000017D6FFA0E7E6F59C27FF0806B8AECDF
:101C380028F0B30E00017D6FFA0E7E6F5AC27FF056
:101C4800806B8AEC28F0FE0E00017D6FFA0E7E6F25
:101C58005BC27FF0806B8AEC28F0230E00017D6F59
:101C6800FB0E7E6F5CC27FF0806B8AEC28F0DB0E87
:101C780000017D6FFC0E7E6F5DC27FF0806B8AEC89
:101C880028F0F90E00017D6FFC0E7E6F5EC27FF0BA
:101C9800806B8AEC28F094EF0EF0000E0001956F2F
:101CA800000E946F85EF0EF007EC29F00009D8B408
:101CB80060EF0EF062EF0EF058EF0EF0240E000108
:101CC8007D6FFE0E7E6F94C07FF095C080F0570E3A
:101CD8009425D96E020E9521DA6EDF508F6F8F51E1
:101CE800816F826B8AEC28F02BEC29F00009D8B4BC
:101CF80080EF0EF082EF0EF078EF0EF00001944BBB
:101D0800952BD751945D9551800A8F6FD851800AD1
:101D18008F59D8A092EF0EF094EF0EF058EF0EF016
:101D2800A50E00017D6FFE0E7E6F8AEC28F0120072
:101D3800BE0E00017D6FFE0E7E6F8AEC28F0030E4A
:101D480001010119D8B4ABEF0EF0ADEF0EF0B6EF0C
:101D58000EF0040E0119D8A4B4EF0EF0B6EF0EF091
:101D680008EF0FF06C0E00017D6FFB0E7E6F00C157
:101D78007FF0806B8AEC28F0E30E00017D6FF50E92
:101D88007E6F01C17FF0806B8AEC28F08D0E000118
:101D98007D6FFA0E7E6F02C17FF0806B8AEC28F0AF
:101DA800B30E00017D6FFA0E7E6F03C17FF0806B6A
:101DB8008AEC28F0FE0E00017D6FFA0E7E6F04C1DA
:101DC8007FF0806B8AEC28F0230E00017D6FFB0EFC
:101DD8007E6F05C17FF0806B8AEC28F0DB0E000176
:101DE8007D6FFC0E7E6F06C17FF0806B8AEC28F059
:101DF800170E00017D6FFD0E7E6F07C17FF0806BAF
:101E08008AEC28F005EF10F0100E0119D8A40FEF96
:101E18000FF011EF0FF005EF10F06C0E00017D6F61
:101E2800FB0E7E6F00C17FF0806B8AEC28F0760E87
:101E380000017D6FF50E7E6F01C17FF0806B8AEC2B
:101E480028F08D0E00017D6FFA0E7E6F02C17FF0C3
:101E5800806B8AEC28F0B30E00017D6FFA0E7E6F5E
:101E680003C17FF0806B8AEC28F0FE0E00017D6FC5
:101E7800FA0E7E6F04C17FF0806B8AEC28F0230E87
:101E880000017D6FFB0E7E6F05C17FF0806B8AECD1
:101E980028F0670E00017D6FFA0E7E6F06C17FF095
:101EA800806B8AEC28F0000E0001956F010E946F8C
:101EB800000E976F070E966FBDEF0FF0C00E7D6F87
:101EC800F40E7E6FFF0E96257F6FFF0E9721806FB1
:101ED800000E9625D96E010E9721DA6EDF508F6FAE
:101EE8008F51816F826B94C083F095C084F002C1DA
:101EF80085F0866B0101035100019425906F000E57
:101F08009521916FFF0E9025876FFF0E9121886FA5
:101F18000101035100019425926F000E9521936FE2
:101F2800FF0E9225896FFF0E93218A6F8AEC28F0A5
:101F38000001964B972B900E7D6FFB0E7E6F96C01F
:101F48007FF097C080F0000E9625D96E010E97217C
:101F5800DA6EDF508F6F8F51816F826B94C083F080
:101F680095C084F08AEC28F00001944B952B964B91
:101F7800972BFE0E8F6FFF0E906FDBC091F0DCC0C9
:101F880092F08F519127905192239151965D9751DC
:101F9800800A936F9251800A9359D8A0D6EF0FF018
:101FA800D8EF0FF062EF0FF09B0E7D6FFC0E7E6F87
:101FB80096C07FF097C080F0000E9625D96E010E6E
:101FC8009721DA6EDF508F6F8F51816F826B8AECA9
:101FD80028F0BB0E00017D6FFC0E7E6F010E96256A
:101FE8007F6F000E9721806F010E9625D96E010E26
:101FF8009721DA6EDF508F6F8F51816F826B8AEC79
:1020080028F0B30E00017D6FFF0E7E6F8AEC28F07A
:10201800120024C03CF025C03DF026C03EF027C089
:102028003FF028C040F029C041F02AC042F02BC040
:1020380043F043BE22EF10F025EF10F0010E26EF1B
:1020480010F0000E3A6E3B6A3A503B10D8B42FEFAE
:1020580010F031EF10F041EF10F0431E421E411E08
:10206800401E3F1E3E1E3D1E3C6C000E3D223E2281
:102078003F2240224122422243220001D2BF47EFA1
:1020880010F049EF10F04AEF10F05792D2BF57EF17
:1020980010F0D25106E1D105D8B055EF10F057EF46
:1020A80010F05DEF10F0000E376E010E366E61EF26
:1020B80010F0D1C036F0D2C037F0CFC038F0D0C061
:1020C80039F03A503B10D8A46CEF10F06EEF10F0D6
:1020D80075EF10F057A473EF10F075EF10F078EF6C
:1020E80010F03806D8A03906000E456E1F0E446E53
:1020F800000E0201FC6FFDEF10F04406D8A0450663
:10210800DD0E4424D96E020E4520DA6E3CC005F07F
:102118003DC006F03EC007F03FC008F040C009F0DF
:1021280041C00AF042C00BF043C00CF00A0E0D6E1D
:10213800000E0E6E000E0F6E000E106E000E116E69
:10214800000E126E000E136E000E146EAFEC1BF034
:1021580005C02CF006C02DF007C02EF008C02FF0E7
:1021680009C030F00AC031F00BC032F00CC033F0B7
:102178002CC017F02EC018F099EC27F01750300F2C
:10218800DF6E3606D8A037063806D8A039063CC018
:1021980005F03DC006F03EC007F03FC008F040C063
:1021A80009F041C00AF042C00BF043C00CF00A0E1F
:1021B8000D6E000E0E6E000E0F6E000E106E000EED
:1021C800116E000E126E000E136E000E146E2AECC5
:1021D8001AF005C03CF006C03DF007C03EF008C04C
:1021E8003FF009C040F00AC041F00BC042F00CC0FB
:1021F80043F045BE08EF11F0455008E14404D8A06B
:1022080008EF11F00AEF11F03AEF11F03C503D10D1
:102218003E103F104010411042104310D8A417EF51
:1022280011F019EF11F081EF10F037BE26EF11F021
:10223800375006E13604D8B024EF11F026EF11F03C
:1022480081EF10F039BE31EF11F0395008E1380450
:10225800D8A031EF11F033EF11F03AEF11F057B287
:1022680038EF11F03AEF11F081EF10F03A503B10CF
:10227800D8A441EF11F043EF11F04AEF11F057A441
:1022880048EF11F04AEF11F068EF11F04406D8A0BA
:1022980045063A503B10D8A454EF11F056EF11F010
:1022A8005CEF11F0000E356E2B0E346E60EF11F0FE
:1022B800000E356E2D0E346EDD0E4424D96E020EDE
:1022C8004520DA6E34C0DFFF22C017F023C018F0B3
:1022D800DD0E4424196E020E45201A6E38C01BF01C
:1022E80039C01CF086EC20F017C022F018C023F08B
:1022F80012000001D2BF83EF11F085EF11F086EFD5
:1023080011F05792D2BF93EF11F0D25106E1D105E7
:10231800D8B091EF11F093EF11F099EF11F0000E92
:102328003A6E010E396E9DEF11F0D1C039F0D2C06E
:102338003AF0CFC03BF0D0C03CF057A8A6EF11F060
:10234800A8EF11F0ACEF11F0FE0E3B26FF0E3C2279
:1023580024C03DF025C03EF026C03FF027C040F025
:1023680028C041F029C042F02AC043F02BC044F0F5
:10237800000E466E1F0E456E000E0201FC6F78EFD0
:1023880012F04506D8A046060F0E3D14476E486A5F
:1023980048BED8EF11F0485009E10A0E475CD8A0B2
:1023A800D8EF11F0DAEF11F0E2EF11F0570E4724F1
:1023B800476E000E4820486EE8EF11F0300E4724B3
:1023C800476E000E4820486EBF0E2D6EFF0E2E6E13
:1023D8002C502F6E306A2D502F262E503022305020
:1023E8000AE11A0E2F5CD8A0FCEF11F0FFEF11F0F4
:1023F800010E00EF12F0000E356E366A35503610B9
:10240800D8B409EF12F00BEF12F03BEF12F09F0E69
:102418002D6EFF0E2E6E200E47102F6E000E4810E8
:10242800306E2D502F262E50302230500AE11A0ED1
:102438002F5CD8A022EF12F025EF12F0010E26EF44
:1024480012F0000E376E386A37503810D8B42FEFB4
:1024580012F031EF12F03BEF12F047C00BF048C01A
:102468000CF0D7EC24F00BC047F00CC048F0DD0EA0
:102478004524D96E020E4620DA6E47C0DFFF3906C2
:10248800D8A03A063B06D8A03C063DC02DF03EC079
:102498002EF03FC02FF040C030F041C031F042C0B4
:1024A80032F043C033F044C034F0050E65EF12F04B
:1024B800D890343233323232313230322F322E32F7
:1024C8002D32E82E5CEF12F02DC03DF02EC03EF00C
:1024D8002FC03FF030C040F031C041F032C042F070
:1024E80033C043F034C044F046BE84EF12F0465087
:1024F80009E1020E455CD8A084EF12F086EF12F0D5
:10250800B6EF12F03D503E103F10401041104210FF
:1025180043104410D8A493EF12F095EF12F0C5EFD2
:1025280011F03ABEA2EF12F03A5006E13904D8B0E1
:10253800A0EF12F0A2EF12F0C5EF11F03CBEADEF24
:1025480012F03C5008E13B04D8A0ADEF12F0AFEF19
:1025580012F0B6EF12F057B2B4EF12F0B6EF12F075
:10256800C5EF11F057A8BBEF12F0BDEF12F0D3EF93
:1025780012F04506D8A04606DD0E4524D96E020E97
:102588004620DA6E2CC0DFFF4506D8A04606DD0ED1
:102598004524D96E020E4620DA6E300EDF6E22C058
:1025A80017F023C018F0DD0E4524196E020E4620E0
:1025B8001A6E3BC01BF03CC01CF086EC20F017C024
:1025C80022F018C023F01200000E0001996F000ECF
:1025D800986F000E946F000E936F000E956F0101B7
:1025E80002510001906F8F6B0101055104C191F0F8
:1025F8000001926B91C092F0916B9127000E92238B
:102608008F51912790519223010103510001912785
:10261800000E922392BF1AEF13F0925109E1210E96
:10262800915DD8A01AEF13F01CEF13F025EF13F00B
:102638004F0E7D6FF60E7E6F8AEC28F0010E0001BA
:10264800956F9551D8A42BEF13F02DEF13F0FFEFF2
:1026580013F0000ED86F000ED76F570ED725D96E1E
:10266800020ED821DA6E00C1DFFFD74BD82B570EE8
:10267800D725D96E020ED821DA6E01C1DFFFD74BFC
:10268800D82B570ED725D96E020ED821DA6E02C183
:10269800DFFFD74BD82B570ED725D96E020ED8217E
:1026A800DA6E03C1DFFFD74BD82B570ED725D96E6B
:1026B800020ED821DA6E04C1DFFFD74BD82B570E94
:1026C800D725D96E020ED821DA6E05C1DFFFD74BA8
:1026D800D82B000E976F000E966FA9EF13F0080E17
:1026E8009825D96E010E9921DA6EDF508F6F070E8B
:1026F8009825D96E010E9921DA6EDF50906F9051AE
:10270800926F916B8F519125936F000E9221946F68
:10271800020E9825986F000E9921996F01010351B7
:10272800000196258F6F000E9721906FD8908F37F4
:102738009037B70E8F25D96E030E9021DA6E93C0AD
:10274800DEFF94C0DDFF964B972B01010551000178
:102758008F6F906B8F51965D9751800A916F905152
:10276800800A9159D8A0BBEF13F0BDEF13F073EFB7
:1027780013F0D7C005F0D8C006F0010E076EECECD8
:102788001EF005C0D5F006C0D6F0D7C005F0D8C0F9
:1027980006F0000E076EECEC1EF005C0EBF006C06C
:1027A800ECF0570E0001D725D96E020ED821DA6E4B
:1027B800D5C0DFFF580ED725D96E020ED821DA6EA4
:1027C800EBC0DFFF020ED725D76F000ED821D86FD8
:1027D800570E066E020E076ED7C008F0D8C009F073
:1027E8003FEC24F0C00E00017D6FFD0E7E6F8AEC79
:1027F80028F00CEF14F0000E156E020E146EE7ECC4
:1028080020F0940E00017D6FFE0E7E6F8AEC28F09A
:1028180012000001D2BF13EF14F015EF14F016EFF9
:1028280014F05792D2BF23EF14F0D25106E1D1052C
:10283800D8B021EF14F023EF14F029EF14F0000EB4
:10284800356E010E346E2DEF14F0D1C034F0D2C0C5
:1028580035F0CFC036F0D0C037F024C038F025C0EE
:1028680039F026C03AF027C03BF028C03CF029C018
:102878003DF02AC03EF02BC03FF0000E416E1F0E07
:10288800406E000E0201FC6FC0EF14F04006D8A0A5
:102898004106DD0E4024D96E020E4120DA6E38C0A2
:1028A80005F039C006F03AC007F03BC008F03CC05C
:1028B80009F03DC00AF03EC00BF03FC00CF00A0E14
:1028C8000D6E000E0E6E000E0F6E000E106E000ED6
:1028D800116E000E126E000E136E000E146E5AEC7E
:1028E8001FF005C02CF006C02DF007C02EF008C060
:1028F8002FF009C030F00AC031F00BC032F00CC024
:1029080033F02C50300FDF6E3406D8A0350636066B
:10291800D8A0370638C005F039C006F03AC007F02D
:102928003BC008F03CC009F03DC00AF03EC00BF0C7
:102938003FC00CF00A0E0D6E000E0E6E000E0F6EEC
:10294800000E106E000E116E000E126E000E136E49
:10295800000E146E06EC1EF005C038F006C039F003
:1029680007C03AF008C03BF009C03CF00AC03DF08F
:102978000BC03EF00CC03FF040504110D8B4C7EF38
:1029880014F0C9EF14F0F9EF14F0385039103A1078
:102998003B103C103D103E103F10D8A4D6EF14F069
:1029A800D8EF14F04AEF14F035BEE5EF14F03550C7
:1029B80006E13404D8B0E3EF14F0E5EF14F04AEF81
:1029C80014F037BEF0EF14F0375008E13604D8A001
:1029D800F0EF14F0F2EF14F0F9EF14F057B2F7EF4C
:1029E80014F0F9EF14F04AEF14F022C017F023C0E6
:1029F80018F0DD0E4024196E020E41201A6E36C002
:102A08001BF037C01CF086EC20F017C022F018C06D
:102A180023F01200000E176E000E166E000E156ED3
:102A2800000E146E000E176E000E166EEEEF15F007
:102A38000EC005F00FC006F0EFEC28F0186E030E7C
:102A4800136E080E126E770EE82EFED7122EFCD7E4
:102A5800132EFAD700F01828D8B435EF15F037EF51
:102A680015F041EF15F014500C24D96E15500D20B7
:102A7800DA6E18C0DFFF144A152A0E4A0F2A0EC054
:102A880005F00FC006F0EFEC28F0196E0E4A0F2A79
:102A9800030E136E080E126E770EE82EFED7122E56
:102AA800FCD7132EFAD700F01928D8B45EEF15F02A
:102AB80060EF15F06AEF15F014500C24D96E15501C
:102AC8000D20DA6E19C0DFFF144A152AD70E056EDD
:102AD800FF0E066E0AC007F00BC008F0A7EC21F045
:102AE80005500610D8A47BEF15F07DEF15F096EF92
:102AF80015F0195018C012F0136A12C013F0126AB8
:102B08001226000E1322D8901634D96E1734DA6EB6
:102B18007E0ED926010EDA2212C0DEFF13C0DDFFB9
:102B2800ECEF15F0EB0E056EFF0E066E0AC007F00F
:102B38000BC008F0A7EC21F005500610D8A4A7EFA9
:102B480015F0A9EF15F0C2EF15F0195018C012F0E2
:102B5800136A12C013F0126A1226000E1322D890BC
:102B68001634D96E1734DA6E640ED926010EDA22BD
:102B780012C0DEFF13C0DDFFECEF15F0F50E056E99
:102B8800FF0E066E0AC007F00BC008F0A7EC21F094
:102B980005500610D8A4D3EF15F0D5EF15F0ECEFDB
:102BA80015F0195018C012F0136A12C013F0126A07
:102BB8001226000E1322D8901634D96E1734DA6E06
:102BC800F30ED926000EDA2212C0DEFF13C0DDFF95
:102BD800164A172A1050165C1750800A126E1150A8
:102BE800800A1258D8A0FBEF15F0FDEF15F01CEF86
:102BF80015F014500C24D96E15500D20DA6E000E05
:102C0800DF6E120097C09FF098C0A0F01B0E000165
:102C18007D6FFA0E7E6F93C07FF094C080F099C0EC
:102C280081F09AC082F08AEC28F0E30E096E010E5A
:102C38000A6EA80E0B6EFE0E0C6EA8EC24F099C05E
:102C48008FF09AC090F0F7EC1CF000018F519011B2
:102C5800D8B431EF16F033EF16F023EF16F0180E54
:102C68007D6FFC0E7E6FE30E7F6F010E806F8AEC26
:102C780028F0E3EC28F00009D8B445EF16F047EF48
:102C880016F03DEF16F092EC25F00001A36F790ED7
:102C9800A319D8B452EF16F054EF16F05DEF16F002
:102CA800590EA319D8A45BEF16F05DEF16F0D5EF17
:102CB80016F08B0E7D6FFF0E7E6F93C07FF094C071
:102CC80080F08AEC28F0E30E056E010E066E3BECF0
:102CD80026F005C09DF006C09EF05A0E00017D6FDB
:102CE800FF0E7E6F9DC07FF09EC080F08AEC28F0BA
:102CF80097C08FF098C090F099C091F09AC092F068
:102D080064EC25F0000E0001A26F000EA16FADEF7C
:102D180016F09FC005F0A0C006F0E30EA125D96EFD
:102D2800010EA221DA6EDF50076ED2EC26F0000108
:102D38009F4BA02B030E00019C6F080E9B6F770E14
:102D4800E82EFED79B2FFCD79C2FFAD70001A14B6A
:102D5800A22BE30E056E010E066E3BEC26F0055025
:102D68000001A15D0650A259D8A0BDEF16F0BFEF33
:102D780016F08DEF16F0A90E7D6FFF0E7E6F93C0D3
:102D88007FF094C080F08AEC28F0E30E096E010E03
:102D98000A6EA80E0B6EFE0E0C6EA8EC24F0EDEF7A
:102DA80016F04E0EA319D8B4DCEF16F0DEEF16F0CD
:102DB800E7EF16F06E0EA319D8A4E5EF16F0E7EFCB
:102DC80016F0EDEF16F0B60E7D6FFF0E7E6F8AECF3
:102DD80028F01200C4EC28F0F28EF28C8398839AC3
:102DE800839C839E000EB9EC09F082EC29F089ECF3
:102DF80026F038EC27F0370E00017D6FFF0E7E6F4E
:102E08008AEC28F0EEEC1AF0E806D8A40EEF17F0DA
:102E180010EF17F098EF17F064EF17F0EF0E0001BE
:102E28007D6FF60E7E6F8AEC28F093EC0BF07EEF48
:102E380017F03C0E00017D6FF50E7E6F8AEC28F0CE
:102E48000001F505D8A42BEF17F02DEF17F035EF9B
:102E580017F0D50E7D6FFB0E7E6F8AEC28F005EC1F
:102E680024F0E8EC12F00001F505D8A43EEF17F0C5
:102E780040EF17F07EEF17F05A0E7D6FFC0E7E6F55
:102E88008AEC28F005EC24F07EEF17F0230E000101
:102E98007D6FF90E7E6F8AEC28F095EC00F07EEFDE
:102EA80017F06F0E00017D6FFD0E7E6F8AEC28F023
:102EB800000E156E010E146EE7EC20F07EEF17F091
:102EC80001010151E16FE26BE251000AD8B46FEFE2
:102ED80017F055EF17F0E151030AD8B412EF17F0C5
:102EE800070AD8B44AEF17F0140AD8B41DEF17F040
:102EF80055EF17F00001F505D8A485EF17F087EF17
:102F080017F08BEF17F09CEC0EF01DEC0DF063EC56
:102F180026F038EC27F07B0E00017D6FFF0E7E6FE8
:102F28008AEC28F006EF17F0000E0001906F100EE3
:102F38008F6FF7EC1CF000018F519011D8B4A7EFF8
:102F480017F0A9EF17F0BEEF17F0C2EC17F0350E27
:102F580000017D6FFF0E7E6F8AEC28F0E30E096E8C
:102F6800010E0A6EA80E0B6EFE0E0C6EA8EC24F075
:102F780006EF17F006EF17F093EF00F0E30E056E7B
:102F8800010E066EE50E076EFF0E086EA7EC21F027
:102F980005500610D8A4D3EF17F0D5EF17F0DAEFE5
:102FA80017F0D7EC27F0010E8FEF18F0E30E056E3F
:102FB800010E066EFD0E076EFF0E086EA7EC21F0DF
:102FC80005500610D8A4EBEF17F0EDEF17F0F2EF6D
:102FD80017F0000EB9EC09F0D7EF17F0E30E056E05
:102FE800010E066EDE0E076EFF0E086EA7EC21F0CE
:102FF80005500610D8A403EF18F005EF18F026EFD7
:1030080018F022EE28F011EE9DF0130EDBCFE3FF4F
:10301800E806FCE29D0E0001936F010E946F030E0B
:10302800966F000E956F030E986F000E976F000E47
:103038009A6F0A0E996F06EC16F0010EB9EC09F0BA
:10304800D7EF17F0E30E056E010E066EF00E076E51
:10305800FF0E086EA7EC21F005500610D8A437EF34
:1030680018F039EF18F05AEF18F022EE14F011EEBC
:10307800B1F0130EDBCFE3FFE806FCE2B10E00016E
:10308800936F010E946F010E966F000E956F010EEF
:10309800986F000E976F000E9A6F100E996F06ECDE
:1030A80016F0010EB9EC09F0D7EF17F0E30E056E34
:1030B800010E066EF90E076EFF0E086EA7EC21F0E2
:1030C80005500610D8A46BEF18F06DEF18F08EEFCE
:1030D80018F022EE00F011EEC5F0130EDBCFE3FF7F
:1030E800E806FCE2C50E0001936F010E946F020E14
:1030F800966F000E956F020E986F000E976F000E78
:103108009A6F020E996F06EC16F0010EB9EC09F0F1
:10311800D7EF17F0000E120021EE90F010EE15F028
:10312800060EDBCFE3FFE806FCE212C020F013C076
:1031380021F020502110D8A4A4EF18F0A6EF18F021
:10314800AAEF18F0150E206E000E216E20C005F0B3
:1031580021C006F03BEC26F005C024F006C025F09F
:10316800D1C022F0D2C023F023BEBDEF18F0BFEFCC
:1031780018F0D4EF18F02450225C2350800A146E03
:103188002550800A1458D8A0CCEF18F0CEEF18F0CC
:10319800D0EF18F0D4EF18F022C024F023C025F0A7
:1031A80024C022F025C023F0CFC01EF0D0C01FF0ED
:1031B80057B0E1EF18F0E3EF18F000EF19F0F1EF76
:1031C80018F0000E086E200E076E10C009F011C02E
:1031D8000AF0F6EC22F0244A252A1E50245C2550D9
:1031E800800A146E1F50800A1458D8A0FEEF18F0F9
:1031F80000EF19F0E5EF18F0000E1D6E000E1C6EC2
:1032080025EF19F020C0F6FF21C0F7FF000EF86E79
:103218000E0EF76403D00800F55005D0F6CFE9FF8D
:10322800F7CFEAFFEF50146E1450076E086A10C00B
:1032380009F011C00AF0F6EC22F0204A212A1C4AB3
:103248001D2A22501C5C1D50800A146E2350800ACF
:103258001458D8A032EF19F034EF19F006EF19F02E
:1032680057A039EF19F03BEF19F058EF19F049EF73
:1032780019F0000E086E200E076E10C009F011C07C
:103288000AF0F6EC22F0244A252A1E50245C255028
:10329800800A146E1F50800A1458D8A056EF19F0EF
:1032A80058EF19F03DEF19F024C010F025C011F0C7
:1032B8001200000E1A6E000E196E000E136E000E2C
:1032C800126E69EF19F00C4A0D2A010E186E0CC027
:1032D800F6FF0DC0F7FFF86A0800F550200AD8B4C9
:1032E80078EF19F07AEF19F098EF19F0F70E0E6EE3
:1032F800FF0E0F6E0CC0F6FF0DC0F7FFF86A08004E
:10330800F550106E116A0E5010260F5011221150F0
:1033180009E1050E105CD8A094EF19F096EF19F0AA
:1033280098EF19F0000E186E18C014F0156A1450B2
:103338001510D8A4A2EF19F0A4EF19F067EF19F04F
:10334800AEEF19F0000E136E010E126E0C4A0D2A24
:10335800E5EF19F00CC0F6FF0DC0F7FFF86A08009A
:10336800F5500E6E0F6A0F50000AD8B4BEEF19F070
:10337800E5EF19F00E502B0AD8B4AAEF19F0060A97
:10338800D8B4A6EF19F0E5EF19F019C005F01AC086
:1033980006F0000E086E0A0E076EB1EC28F00CC09D
:1033A800F6FF0DC0F7FFF86A0800F550055E000E3D
:1033B800065A300E0524196E000E06201A6EAAEF62
:1033C80019F0D00E0E6EFF0E0F6E0CC0F6FF0DC07A
:1033D800F7FFF86A0800F550106E116A0E501026B3
:1033E8000F50112211500AE10A0E105CD8A0FFEF0D
:1033F80019F002EF1AF0010E03EF1AF0000E166E24
:10340800176A16501710D8A40CEF1AF00EEF1AF01E
:10341800C9EF19F012501310D8A415EF1AF017EFCE
:103428001AF025EF1AF019C00EF01AC00FF00E1E90
:103438000F1E0E4A0F2A0EC00CF00FC00DF029EF18
:103448001AF019C00CF01AC00DF01200000E166E1A
:1034580014BE33EF1AF031EF1AF045EF1AF0141ECC
:10346800131E121E111E101E0F1E0E1E0D6C000EB6
:103478000E220F2210221122122213221422010ED0
:10348800166E0CBE4CEF1AF04AEF1AF05EEF1AF007
:103498000C1E0B1E0A1E091E081E071E061E056CA2
:1034A800000E06220722082209220A220B220C22D9
:1034B800010E161A20EE17F0070EDE6AE806FDE286
:1034C8000D500E100F1010101110121013101410B0
:1034D800D8B471EF1AF073EF1AF0C5EF1AF0010EB5
:1034E800156E81EF1AF0D8900D360E360F3610365D
:1034F8001136123613361436152A14AE86EF1AF022
:1035080088EF1AF077EF1AF0D89017361836193670
:103518001A361B361C361D361E360D50055C0E50ED
:1035280006580F5007581050085811500958125093
:103538000A5813500B5814500C58D8A0A6EF1AF07C
:10354800A8EF1AF0B9EF1AF00D50055E0E50065AA2
:103558000F50075A1050085A1150095A12500A5A57
:1035680013500B5A14500C5A1780D8901432133237
:103578001232113210320F320E320D32152E88EF00
:103588001AF01650D8B4CBEF1AF0CDEF1AF0DDEFE1
:103598001AF01E1E1D1E1C1E1B1E1A1E191E181E8A
:1035A800176C000E182219221A221B221C221D2217
:1035B8001E2217C005F018C006F019C007F01AC07F
:1035C80008F01BC009F01CC00AF01DC00BF01EC09B
:1035D8000CF0120082EC29F013EC29F00009D8B4A1
:1035E800F8EF1AF0FAEF1AF0A2EF1BF00001F50558
:1035F800D8A401EF1BF003EF1BF009EF1BF0A60E98
:103608007D6FFD0E7E6F8AEC28F013EC29F000091F
:10361800D8B411EF1BF013EF1BF030EF1BF023EFC2
:103628001BF0BEEC25F0556E000E0001D925D96EB1
:10363800050EDA21DA6E55C0DFFFD94BDA2B13EC11
:1036480029F00009D8A42BEF1BF02DEF1BF015EF84
:103658001BF0010E0001DE6F0001DE05D8A437EF74
:103668001BF039EF1BF055EF1BF057EC22F089ECFB
:1036780026F0000E0001DE6F000EDA6F000ED96F23
:1036880083B849EF1BF04CEF1BF0010E4DEF1BF018
:10369800000EFF0A556E553A83505518EF0B551812
:1036A800836EEF51DB1907E1F051DC19D8A45FEF05
:1036B8001BF061EF1BF009EF1BF083BA66EF1BF0FC
:1036C80069EF1BF0010E6AEF1BF0000EFF0A556E42
:1036D800553A554683505518DF0B5518836E61ECE3
:1036E8001CF0E806D8A47BEF1BF07DEF1BF0A5EFDC
:1036F8001BF0050E01010019D8B485EF1BF087EF08
:103708001BF08FEF1BF00051D8A48DEF1BF08FEF4B
:103718001BF099EF1BF0900E00017D6FF80E7E6F85
:103728008AEC28F0010EAEEF1BF0BA0E00017D6F97
:10373800F60E7E6F8AEC28F063EC26F0000EAEEFF2
:103748001BF0390E00017D6FFC0E7E6F8AEC28F0AD
:10375800A2EF1BF01200000E166E0CBEB8EF1BF0A5
:10376800B6EF1BF0CAEF1BF00C1E0B1E0A1E091E3B
:10377800081E071E061E056C000E062207220822D8
:1037880009220A220B220C22010E166E14BED1EF5A
:103798001BF0CFEF1BF0E1EF1BF0141E131E121EDF
:1037A800111E101E0F1E0E1E0D6C000E0E220F2273
:1037B800102211221222132214220D500E100F1063
:1037C80010101110121013101410D8B4EEEF1BF0D3
:1037D800F0EF1BF038EF1CF0010E156EFEEF1BF03A
:1037E800D8900D360E360F3610361136123613367F
:1037F8001436152A14AE03EF1CF005EF1CF0F4EF95
:103808001BF00D50055C0E5006580F50075810500D
:1038180008581150095812500A5813500B58145090
:103828000C58D8A01AEF1CF01CEF1CF02CEF1CF061
:103838000D50055E0E50065A0F50075A1050085A80
:103848001150095A12500A5A13500B5A14500C5A54
:10385800D890143213321232113210320F320E3223
:103868000D32152E05EF1CF01650D8B43EEF1CF0A3
:1038780040EF1CF050EF1CF00C1E0B1E0A1E091E18
:10388800081E071E061E056C000E062207220822C7
:1038980009220A220B220C2205C005F006C006F0F8
:1038A80007C007F008C008F009C009F00AC00AF00C
:1038B8000BC00BF00CC00CF0120010681168000E61
:1038C8000D6E000E0C6E000E0F6E000E0E6E000ECA
:1038D800136E000E126EA0EF1CF0000E1224D96EAB
:1038E800010E1320DA6EDF50056E0550101A000E17
:1038F8000F6E080E0E6E10A084EF1CF086EF1CF001
:103908008FEF1CF0D89011321032010E101AA00E51
:10391800111A92EF1CF0D890113210320E06D8A06E
:103928000F060E500F10D8A49CEF1CF09EEF1CF051
:103938007FEF1CF0124A132AFE0E056EFF0E066E6C
:10394800DBC007F0DCC008F0055007260650082247
:103958000750125C1350800A096E0850800A0958F3
:10396800D8A0B9EF1CF0BBEF1CF071EF1CF01050A1
:103978000A6E0B6A10C005F011C006F006C005F00B
:10398800066A05500C6E0D6A000E1224D96E010EDF
:103998001320DA6EDF50056E066A0A50051807E133
:1039A8000B500618D8A4DBEF1CF0DDEF1CF0F5EF88
:1039B8001CF0010E1224D96E010E1320DA6EDF50AE
:1039C800056E066A0C50051807E10D500618D8A4B4
:1039D800F0EF1CF0F2EF1CF0F5EF1CF0010EF6EF23
:1039E8001CF0000E1200E9C055F0EAC056F0E3ECF6
:1039F80028F00009D8B403EF1DF005EF1DF083EFA0
:103A08001DF0E3EC28F00009D8B40DEF1DF00FEF1E
:103A18001DF05FEF1DF092EC25F0556E555006EC49
:103A280025F00D0E5518D8B41CEF1DF01EEF1DF033
:103A380028EF1DF0E30E136E010E146E550E156E71
:103A4800000E166E9EEC28F0E30E056E010E066E53
:103A58003BEC26F0055000018F5D06509059D8B018
:103A680038EF1DF03AEF1DF04EEF1DF0E30E096E32
:103A7800010E0A6EE40E0B6E010E0C6EE30E056E5F
:103A8800010E066E3BEC26F005C00DF006C00EF0E8
:103A98007EEC1EF00D0E5518D8A455EF1DF057EF0B
:103AA8001DF05FEF1DF07A0E556E8FC08FF090C03D
:103AB80090F088EF1DF00D0E5518D8A466EF1DF094
:103AC80068EF1DF005EF1DF0E30E056E010E066EA2
:103AD8003BEC26F0E20E0524D96E010E0620DA6EC4
:103AE800000EDF6EA50E00017D6FFE0E7E6F8AEC64
:103AF80028F0E30E056E010E066E3BEC26F0000E74
:103B08000001906F000E8F6F1200F20EF66E4E0ECF
:103B1800F76E000EF86E04EE64F010EE40F0090047
:103B2800F5CFEEFFE550E150FAE1B20EF66E4E0E1B
:103B3800F76E000EF86E03EEB7F010EE40F00900D5
:103B4800F5CFEEFFE550E150FAE10C0EF66E440EAB
:103B5800F76E000EF86E02EE00F010EEA2F009000B
:103B6800F5CFEEFFE550E150FAE14E0EF66E450E48
:103B7800F76E000EF86E01EE00F010EE9DF00900F1
:103B8800F5CFEEFFE550E150FAE1800EF66E520EE9
:103B9800F76E000EF86E00EEE9F010EE0DF0090079
:103BA800F5CFEEFFE550E150FAE105EE00F0640EC6
:103BB800EE6AE806FDE104EE00F0640EEE6AE8063F
:103BC800FDE103EE00F0B70EEE6AE806FDE102EE55
:103BD800A2F05B0EEE6AE806FDE101EEE3F0100EDE
:103BE800EE6AE806FDE100EECDF01C0EEE6AE8068E
:103BF800FDE15A6A596A586A576A5B905B920001FC
:103C0800EEEF16F020EE15F0070EDE6AE806FDE28C
:103C18000D500E100F101010111012101310141058
:103C2800D8B419EF1EF01BEF1EF06DEF1EF0010E59
:103C38001D6E29EF1EF0D8900D360E360F36103651
:103C480011361236133614361D2A14AE2EEF1EF016
:103C580030EF1EF01FEF1EF0D890153616361736C7
:103C6800183619361A361B361C360D50055C0E50A0
:103C780006580F500758105008581150095812503C
:103C88000A5813500B5814500C58D8A04EEF1EF079
:103C980050EF1EF061EF1EF00D50055E0E50065AF3
:103CA8000F50075A1050085A1150095A12500A5A00
:103CB80013500B5A14500C5A1580D89014321332E2
:103CC8001232113210320F320E320D321D2E30EFF9
:103CD8001EF015C005F016C006F017C007F018C092
:103CE80008F019C009F01AC00AF01BC00BF01CC07C
:103CF8000CF012000BC013F00CC014F009C011F046
:103D08000AC012F01150135C12501458D8B08FEF3B
:103D18001EF091EF1EF0C8EF1EF00D5013240F6E29
:103D28000E501420106E0F50115C10501258D8B05D
:103D3800A0EF1EF0A2EF1EF0C8EF1EF00D501326E4
:103D48000E5014220D5011260E5012221306D8A020
:103D5800140613C0D9FF14C0DAFF1106D8A0120642
:103D680011C0E1FF12C0E2FFDFCFE7FF0D06D8A0C8
:103D78000E060D500E10D8A4C4EF1EF0C6EF1EF0AC
:103D8800AAEF1EF0EBEF1EF00D500E10D8B4CFEFD7
:103D98001EF0D1EF1EF0EBEF1EF013C0D9FF14C0D8
:103DA800DAFF11C0E1FF12C0E2FFDFCFE7FF134ADD
:103DB800142A114A122A0D06D8A00E060D500E100C
:103DC800D8A4E9EF1EF0EBEF1EF0D1EF1EF01200C1
:103DD80012681368000E0D6E000E0C6E000E116E48
:103DE800000E106E000E0F6E000E0E6E2BEF1FF001
:103DF800570E0E24D96E020E0F20DA6EDF50086EB1
:103E08000850121A000E116E080E106E12A00FEF55
:103E18001FF011EF1FF01AEF1FF0D8901332123273
:103E2800010E121AA00E131A1DEF1FF0D8901332AC
:103E380012321006D8A0110610501110D8A427EF7E
:103E48001FF029EF1FF00AEF1FF00E4A0F2A055046
:103E58000E5C0F50800A086E0650800A0858D8A0D9
:103E680038EF1FF03AEF1FF0FCEF1EF012500A6E09
:103E78000B6A12C008F013C009F009C008F0096AFB
:103E880008500C6E0D6A0704D8A44DEF1FF04FEFD1
:103E98001FF055EF1FF00AC005F00BC006F059EFF0
:103EA8001FF00CC005F00DC006F012000D500E10EA
:103EB8000F1010101110121013101410D8B467EF4F
:103EC8001FF069EF1FF0B1EF1FF0010E156E77EFCD
:103ED8001FF0D8900D360E360F36103611361236C2
:103EE80013361436152A14AE7CEF1FF07EEF1FF040
:103EF8006DEF1FF00D50055C0E5006580F50075817
:103F0800105008581150095812500A5813500B589D
:103F180014500C58D8A093EF1FF095EF1FF0A5EFA1
:103F28001FF00D50055E0E50065A0F50075A1050DC
:103F3800085A1150095A12500A5A13500B5A145061
:103F48000C5AD890143213321232113210320F3206
:103F58000E320D32152E7EEF1FF005C005F006C09B
:103F680006F007C007F008C008F009C009F00AC049
:103F78000AF00BC00BF00CC00CF01200000E0A6E19
:103F880008BECBEF1FF0C9EF1FF0D1EF1FF0076C91
:103F9800081ED8B0082A010E0A6E06BED8EF1FF018
:103FA800D6EF1FF0DEEF1FF0056C061ED8B0062A0C
:103FB800010E0A1A000E0C6E000E0B6E0750081048
:103FC800D8B4E9EF1FF0EBEF1FF013EF20F0010E6C
:103FD800096EF3EF1FF0D89007360836092A08AEA5
:103FE800F8EF1FF0FAEF1FF0EFEF1FF0D8900B3645
:103FF8000C360750055C08500658D8A006EF20F08C
:1040080008EF20F00DEF20F00750055E0850065A23
:104018000B80D89008320732092EFAEF1FF00A50A9
:10402800D8B419EF20F01BEF20F01FEF20F00B6C35
:104038000C1ED8B00C2A0BC005F00CC006F01200FC
:10404800A20E5A24D96EDA6A020EDA22000EDF6E48
:104058000E019DA532EF20F034EF20F049EF20F05B
:10406800A20E5A24D96EDA6A020EDA220201DF821F
:1040780002D849EF20F00500FA6E0101FD51FD6EEE
:10408800FE51FE6EFF6AFA5012000E019DA34FEF1B
:1040980020F051EF20F066EF20F0A20E5A24D96EDE
:1040A800DA6A020EDA220201DF8402D866EF20F013
:1040B8000500FA6E0101FB51FD6EFC51FE6EFF6AB0
:1040C800FA501200A20E5A24D96EDA6A020EDA22C7
:1040D800DF50D8B472EF20F074EF20F083EF20F0B7
:1040E80002D881EF20F00500FA6E0101F951FD6E4A
:1040F800FA51FE6EFF6AFA50120085EF20F05EEC6E
:1041080028F0120057A08BEF20F08DEF20F097EFEA
:1041180020F019C010F01AC011F017C012F018C022
:1041280013F0F4EC26F01CBE9CEF20F09EEF20F07C
:10413800A4EF20F01BC020F01CC021F0A8EF20F055
:10414800000E216E000E206E000E1F6E000E1E6EF9
:10415800BAEF20F0000E086E200E076E17C009F0A7
:1041680018C00AF0F6EC22F01E4A1F2A20501E5CE6
:104178001F50800A1D6E2150800A1D58D8A0C7EF15
:1041880020F0C9EF20F0AEEF20F057B0CEEF20F0CE
:10419800D0EF20F0DAEF20F019C010F01AC011F0BB
:1041A80017C012F018C013F0F4EC26F019C005F08F
:1041B8001AC006F03BEC26F020500524176E21505B
:1041C8000620186E1200000E0001D86F000ED76F7F
:1041D800570ED725D96E020ED821DA6E00C1DFFF3F
:1041E800D74BD82B570ED725D96E020ED821DA6EA9
:1041F80001010151800FDF6E0001D74BD82B570EFC
:10420800D725D96E020ED821DA6E14C0DFFFD74B3E
:10421800D82BD7C005F0D8C006F0010E076EECEC1D
:104228001EF005C0D5F006C0D6F0D7C005F0D8C03E
:1042380006F0000E076EECEC1EF005C0EBF006C0B1
:10424800ECF0570E0001D725D96E020ED821DA6E90
:10425800D5C0DFFF580ED725D96E020ED821DA6EE9
:10426800EBC0DFFF020ED725D76F000ED821D86F1D
:10427800570E066E020E076ED7C008F0D8C009F0B8
:104288003FEC24F01200000E5924D96EDA6A030EAE
:10429800DA22000EDF6E9DA454EF21F056EF21F0D4
:1042A8006BEF21F0000E5924D96EDA6A030EDA2278
:1042B8000301DF8202D86BEF21F00500FA6E0101DD
:1042C800F751FD6EF851FE6EFF6AFA5012009DA27A
:1042D80070EF21F072EF21F087EF21F0000E5924E2
:1042E800D96EDA6A030EDA220301DF8402D887EF77
:1042F80021F00500FA6E0101F551FD6EF651FE6ED2
:10430800FF6AFA501200000E5924D96EDA6A030EB9
:10431800DA22DF50D8B493EF21F095EF21F0A4EF23
:1043280021F002D8A2EF21F00500FA6E0101F35145
:10433800FD6EF451FE6EFF6AFA501200A6EF21F0EE
:1043480074EC28F01200ADEF21F0054A062A074A5E
:10435800082A07C0F6FF08C0F7FFF86A0800F5CF7B
:1043680009F005C0F6FF06C0F7FF000EF86E0E0E46
:10437800F76403D00800F55005D0F6CFE9FFF7CF72
:10438800EAFFEF500918D8A4CCEF21F0CEEF21F0C6
:10439800E7EF21F005C0F6FF06C0F7FF000EF86E44
:1043A8000E0EF76403D00800F55005D0F6CFE9FFEC
:1043B800F7CFEAFFEF500009D8A4E5EF21F0E7EFC7
:1043C80021F0A9EF21F005C0F6FF06C0F7FF000EA7
:1043D800F86E0E0EF76403D00800F55005D0F6CF3E
:1043E800E9FFF7CFEAFFEF50096E07C0F6FF08C0F4
:1043F800F7FFF86A0800F550095C056E066AD8A050
:10440800060612005265766973696F6E0000000037
:10441800000000000000000050617274204E756DAD
:1044280062657200000000000000000053657269B8
:10443800616C204E756D626572000000000000001E
:10444800FF00000000000000000000000000000065
:104458004170722020322032303231FF00000000DB
:104468000000000000000000000000000000000044
:104478000000000000000000000000000000000034
:104488000000000000000000000000000000000024
:104498000000000000000000000000000000000014
:1044A800000000000000000E076E000E066E000EF1
:1044B800076E000E066E73EF22F0000E0624D96E0A
:1044C800050E0720DA6E000EDB25E16E010EDC21F9
:1044D800E26EDFCFE7FFDB4BDC2B064A072A000141
:1044E800D951065C0750800A056EDA51800A0558D2
:1044F800D8A081EF22F083EF22F061EF22F00F0EB7
:1045080001010119D8A48BEF22F08DEF22F096EF6C
:1045180022F0090E06250001EF6FF06B000EF02364
:10452800A6EF22F0100E0119D8A49DEF22F09FEFFC
:1045380022F0A1EF22F08DEF22F0000E0001F06FC3
:10454800080EEF6F1200FF000000000000000000DE
:104558000000000000000000000000000000000053
:104568000000000000000000000000000000000043
:104578000000000000000000000000000000000033
:104588000000000000000000000000000000000023
:104598000000000000000000000000000000000013
:1045A80000000000000000000000504130303630AC
:1045B80033303330302D0032FF000000000000009F
:1045C8000000000032313433363538373039323371
:1045D8003A33363A3134286E756C6C2900FF000086
:0345E800000000D0
:1045EC0009500A10D8B4FDEF22F0FFEF22F008EFCB
:1045FC0023F009500A10D8A406EF23F008EF23F09B
:10460C000DEF23F0075079EC29F040EF23F020EE6A
:10461C0004F00950D9260A50DA22DE50DE10D8B444
:10462C001AEF23F01CEF23F037EF23F020EE04F009
:10463C000950D9260A50DA2210EE02F00950E12670
:10464C000A50E222DE50E65CE650800A0F6EDE5025
:10465C00800A0F58D8B035EF23F037EF23F040EF36
:10466C0023F020EE02F00950D9260A50DA22DE2A75
:10467C00000EDD221200000E876E000E866E000EFC
:10468C00836E000E846E000E856E070E8C6E070E08
:10469C00886EBF0E896EBF0E8A6EFE0E8B6E0F017A
:1046AC0026693B0E216F370E196F070E2E6F11699D
:1046BC00000E256F000E2D6F000E186F000E106F80
:1046CC00000E206F000E2C6F000E0F6F000E176F78
:1046DC00000E1F6F000E246F0E6916691E69236988
:1046EC00070E2B6F0D6915691D6922690F0E2A6F54
:1046FC00170E0E01B56F0B0EF56F090EFD6F0F0E39
:10470C008D6F12000E01C59F480E056E400E066E91
:10471C004CEC29F00E01C59D5C0E056E4D0E066E1F
:10472C0047EC29F0080E0E019F6F900E9D6F240E22
:10473C009E6FA00E9B6F010E9C6F2A0E056E530E82
:10474C00066E56EC29F0FC0E056E520E066E51EC00
:10475C0029F0100E056E530E066E5BEC29F0000E60
:10476C000001E46F000EE86F000EE76F200EFF6F84
:10477C00000E5A6E000EE66F000EE56F0E01C58F2F
:10478C0012000E01C59B8E0E056E420E066E65EC78
:10479C0029F00E01C5992C0E056E4E0E066E60ECBE
:1047AC0029F0080E9F6E900E9D6E240E9E6EA00E2C
:1047BC009B6E010E9C6E2C0E056E530E066E6FECEE
:1047CC0029F0160E056E530E066E6AEC29F01C0EBF
:1047DC00056E530E066E74EC29F0000E0001DF6FAF
:1047EC00000EE36F000EE26F100EFE6F000E596E9E
:1047FC00000EE16F000EE06F0E01C58B120003C1BD
:10480C008FF00001906B25EF24F08B0E7D6FFD0E69
:10481C007E6F8FC07FF090C080F0D8908F35D96EAE
:10482C009035DA6EB70ED926030EDA22DECF81F080
:10483C00DDCF82F08AEC28F000018F4B902B06C163
:10484C0005F0066A000E086E020E076EC2EC1FF031
:10485C00055000018F5D9051800A556E0650800AFC
:10486C005558D8A03CEF24F03EEF24F00BEF24F089
:10487C00120085EC29F01FEC29F00009D8B449EF9F
:10488C0024F04BEF24F041EF24F0000E0C6E000EE0
:10489C000B6E66EF24F00B500624D96E0C500720DB
:1048AC00DA6EDF5035EC25F036EC29F00009D8B47F
:1048BC0062EF24F064EF24F05AEF24F00B4A0C2A38
:1048CC0008500B5C0C50800A0A6E0950800A0A587A
:1048DC00D8A073EF24F075EF24F051EF24F0120000
:1048EC0079C053F07AC054F0000E0001CE6F000E68
:1048FC00CD6F94EF24F077C049F078C04AF0530E96
:10490C004B6E000E4C6E7BC04DF07CC04EF0F4EC48
:10491C0006F049500001CD274A50CE2353C0F6FF74
:10492C0054C0F7FFF86A0800F5500009D8A4A1EFAD
:10493C0024F0A3EF24F081EF24F0CDC077F0CEC0AB
:10494C0078F012000BC00FF00CC010F009C011F081
:10495C000AC012F00F500D6E10500E6E0F4A102A36
:10496C000DC0F6FF0EC0F7FF000EF86E11C0D9FF98
:10497C0012C0DAFF114A122A0E0EF76403D0080097
:10498C00F55005D0F6CFE9FFF7CFEAFFEF50DF6E19
:10499C00DF50D8A4D4EF24F0D6EF24F0B0EF24F0FD
:1049AC0012009F0E0D6EFF0E0E6E0BC00FF00CC0A2
:1049BC0010F00D500F260E50102210500AE11A0E56
:1049CC000F5CD8A0ECEF24F0EFEF24F0010EF0EF29
:1049DC0024F0000E116E126A11501210D8B4F9EFB7
:1049EC0024F0FBEF24F001EF25F05F0E0B140B6E9F
:1049FC000C6A05EF25F00BC00BF00CC00CF012008C
:104A0C00056E0001FF51D8B40EEF25F010EF25F024
:104A1C0007EF25F00E01C5BD16EF25F018EF25F0B8
:104A2C001CEF25F005C09AFE32EF25F0C59D840ED3
:104A3C000001E825D96EDA6A030EDA2205C0DFFF21
:104A4C00E82B1F0EE8652DEF25F02FEF25F031EF49
:104A5C0025F0000EE86FFF070E01C58D1200056EE4
:104A6C000001FE51D8B43DEF25F03FEF25F036EFB5
:104A7C0025F00E01C5B945EF25F047EF25F04BEFBA
:104A8C0025F005C09AFF61EF25F0C599C20E000113
:104A9C00E325D96EDA6A020EDA2205C0DFFFE32BBA
:104AAC000F0EE3655CEF25F05EEF25F060EF25F06F
:104ABC00000EE36FFE070E01C5891200020E000105
:104ACC007D6FF50E7E6F8FC07FF090C080F091C02F
:104ADC0081F092C082F08AEC28F0000E566E000E27
:104AEC00556E85EF25F08F515524056E905156204B
:104AFC00066EFF0E076ED2EC26F0554A562A0001C0
:104B0C009151555C92515658D8A08FEF25F091EFEA
:104B1C0025F079EF25F012000001E551D8B499EF9A
:104B2C0025F09BEF25F092EF25F0A20EE625D96E2D
:104B3C00DA6A020EDA22DF50E46F640EE625D96ED3
:104B4C00DA6A030EDA22DF50056EE62B1F0EE665DD
:104B5C00B2EF25F0B4EF25F0B6EF25F0000EE66FBE
:104B6C000E01C59F0001E5070E01C58F055012000F
:104B7C000001E051D8B4C5EF25F0C7EF25F0BEEF2A
:104B8C0025F0000EE125D96EDA6A030EDA22DF5029
:104B9C00DF6F000EE125D96EDA6A040EDA22DF50DF
:104BAC00056EE12B630EE165DEEF25F0E0EF25F0FD
:104BBC00E2EF25F0000EE16F0E01C59B0001E0074E
:104BCC000E01C58B05501200010E0B6E200E051840
:104BDC000610D8B4F4EF25F0F6EF25F00FEF26F021
:104BEC00F70E076EFF0E086E05C009F006C00AF03E
:104BFC000750092608500A220A5009E1050E095CE3
:104C0C00D8A00BEF26F00DEF26F00FEF26F0000EDC
:104C1C000B6E0BC005F0066A1200000E6A6E000ED9
:104C2C006B6E000E6C6E000E6D6E000E686E000EDC
:104C3C00696E000E666E000E0F015F6F000E5D6FE9
:104C4C00000E5E6F000E596F000E5A6F000E5B6FF8
:104C5C00000E656E000E586F000E566F000E576FEB
:104C6C00940E606E0A0E5C6F120005C007F006C051
:104C7C0008F043EF26F0054A062A05C0F6FF06C0E9
:104C8C00F7FF000EF86E0E0EF76403D00800F55017
:104C9C0005D0F6CFE9FFF7CFEAFFEF500009D8A413
:104CAC005AEF26F05CEF26F041EF26F00750055C3A
:104CBC00056E08500658066E1200000E066E000EA9
:104CCC00056E000E066E000E056E000E0524D96EE4
:104CDC00010E0620DA6EFF0EDF6E054A062A06BEAE
:104CEC0081EF26F0065009E1630E055CD8A081EF38
:104CFC0026F083EF26F06BEF26F0000E0001DC6F40
:104D0C00000EDB6F1200000E076E000E066E000E1A
:104D1C00076E000E066E9DEF26F0000E0624D96E6F
:104D2C00050E0720DA6EFF0EDF6E064A072A000119
:104D3C00D951065C0750800A056EDA51800A055875
:104D4C00D8A0ABEF26F0ADEF26F093EF26F01200D3
:104D5C00200E0001FF61B5EF26F0B7EF26F0CFEF84
:104D6C0026F0840EE725D96EDA6A030EDA22DF50BC
:104D7C000E019A6F0001E72B1F0EE765C8EF26F0B6
:104D8C00CAEF26F0CCEF26F0000EE76FFF2BD1EF29
:104D9C0026F00E01C59D1200000EF2BE010E086E2B
:104DAC000650030B7F6E05C07EFF07C080FF3F0ED1
:104DBC0081168184F29E550E826EAA0E826E8182BD
:104DCC0081B2EBEF26F0EDEF26F0E6EF26F08194C2
:104DDC0008B002D0F29E01D0F28E1200000E166EB8
:104DEC00000E156E05EF27F014C007F0086A12C00C
:104DFC0009F013C00AF0F6EC22F0154A162A1550E9
:104E0C001024D96E16501120DA6EDF50146E145027
:104E1C00D8A413EF27F015EF27F0FAEF26F01200C5
:104E2C00100E0001FE611DEF27F01FEF27F035EF8C
:104E3C0027F0C20EE225D96EDA6A020EDA22DF50B2
:104E4C009A6EE22B0F0EE2652EEF27F030EF27F073
:104E5C0032EF27F0000EE26FFE2B37EF27F00E013A
:104E6C00C5991200000E066E000E056E000E066E41
:104E7C00000E056E570E0524D96E020E0620DA6E52
:104E8C00FF0EDF6E054A062A06BE56EF27F00650C7
:104E9C0009E1200E055CD8A056EF27F058EF27F05B
:104EAC0040EF27F0120020001F001E001D001C0008
:104EBC001B001A001900180017001600150014002A
:104ECC0013001200110010000F000E000D000C005A
:104EDC000B000A000900080007000600050004008A
:104EEC0003000200010001000200030004000500A1
:104EFC0006000700080009000A000B000C000D005A
:104F0C000E000F0010001100120013001400150009
:104F1C0016001700180019001A001B001C001D00B9
:104F2C001E001F00200018BEA6EF27F0185006E147
:104F3C001704D8B0A4EF27F0A6EF27F0B4EF27F0B2
:104F4C0017C019F018C01AF0191E1A1E194A1A2A7D
:104F5C0019C017F01AC018F0B8EF27F017C017F0E7
:104F6C0018C018F012009F0E076EFF0E086E200E70
:104F7C000510096E000E06100A6E0750092608501F
:104F8C000A220A500AE11A0E095CD8A0D0EF27F0C9
:104F9C00D3EF27F0010ED4EF27F0000E056E066A52
:104FAC0012000001F551D8A4DEEF27F0E0EF27F056
:104FBC00EAEF27F0010EF56F480E7D6FFF0E7E6F46
:104FCC008AEC28F0F2EF27F0000EF56F0F0E7D6FD4
:104FDC00FF0E7E6F8AEC28F012009F0E076EFF0EFC
:104FEC00086E05C009F006C00AF0075009260850E3
:104FFC000A220A500AE11A0E095CD8A008EF28F020
:10500C000BEF28F0010E0CEF28F0000E056E066A6F
:10501C001200BF0E076EFF0E086E05C009F006C029
:10502C000AF00750092608500A220A500AE11A0E03
:10503C00095CD8A024EF28F027EF28F0010E28EF08
:10504C0028F0000E056E066A1200D00E076EFF0ED9
:10505C00086E05C009F006C00AF007500926085072
:10506C000A220A500AE10A0E095CD8A040EF28F087
:10507C0043EF28F0010E44EF28F0000E056E066A8F
:10508C001200096E09C05FFF608E609C608060B08A
:10509C0052EF28F054EF28F04DEF28F06450086ED2
:1050AC00076A63500724056E000E0820066E120076
:1050BC00640E5A24D96EDA6A030EDA2299CEDFFF17
:1050CC005A2A1F0E5A646DEF28F06FEF28F071EF1B
:1050DC0028F0000E5A6E0001E52B1200000E592428
:1050EC00D96EDA6A040EDA2299CFDFFF592A630EE1
:1050FC00596483EF28F085EF28F087EF28F0000E35
:10510C00596E0001E02B12007F0E00018D6F000E16
:10511C008E6F000E776F000E786F7DC079F07EC0B9
:10512C007AF08D0E7B6F000E7C6F76EC24F0120003
:10513C0013C005F014C006F03BEC26F00550132408
:10514C00096E065014200A6E15C00BF016C00CF038
:10515C00A8EC24F0120005500702F3CF09F0F4CFAD
:10516C000AF005500802F3500A2606500702F350C5
:10517C000A2609C005F00AC006F0120091EC29F0CD
:10518C00D5EC28F041EC23F0FBEC28F0C7EC23F035
:10519C0088EC23F013EC26F093EC29F01200000EAF
:1051AC000E01E16F000EE26F000EE36F000EE46F74
:1051BC00000EE56F000EE66F12000001E551D8A459
:1051CC00EAEF28F0EDEF28F0010EEEEF28F0000EDC
:1051DC0012000650030B7F6E05C07EFF3F0E81163A
:1051EC00818000F000F080501200600E0E01D86F2C
:1051FC00000EDA6F000EDC6F060EDE6F000EDD6F38
:10520C0012000001FF51D8A40EEF29F011EF29F084
:10521C00010E12EF29F0000E12000001E051D8A48B
:10522C001AEF29F01DEF29F0010E1EEF29F0000EE8
:10523C0012000001FE51D8A426EF29F029EF29F025
:10524C00010E2AEF29F0000E12000E019EB331EF71
:10525C0029F034EF29F0010E35EF29F0000E120081
:10526C009EB23BEF29F03EEF29F0010E3FEF29F003
:10527C00000E12005A00FF00FFFF0800050004009A
:01528C000120
:10528E0005C0FCF006C0FDF0120005C0FAF006C025
:10529E00FBF0120005C0FBF106C0FCF1120005C0C8
:1052AE00FDF106C0FEF1120005C0F9F106C0FAF1DB
:1052BE00120005C0F8F006C0F9F0120005C0F6F0B5
:1052CE0006C0F7F0120005C0F5F106C0F6F11200A7
:1052DE0005C0F7F106C0F8F1120005C0F3F106C0E3
:1052EE00F4F11200066E065006EC25F012000E01C7
:1052FE009D999D89120086908396120086808386E2
:10530E0012005EEC28F012009D989D88120074EC3D
:10531E0028F01200F29A1200609C12001200120085
:10F2AE00002020206465627567202D20546F6767EB
:10F2BE006C6573207472616365206F7574707574FC
:10F2CE00732E20536C6F777320646F776E20746982
:10F2DE006D65206465766963652063616E20726575
:10F2EE0073706F6E64206265747765656E20636FF0
:10F2FE006D6D616E64732E2044454641554C54200D
:10F30E004F4E210D0A0A0020202020202041646447
:10F31E002030783030303020746F203078303033F9
:10F32E0031202D2033327820436972637569742041
:10F33E00476574205374617475732020286C6F7741
:10F34E006572203862697473206F6E6C79290D0AAC
:10F35E000A002020202020204164642030783030A4
:10F36E00303020746F20307830303331202D203300
:10F37E003278204369726375697420536574205323
:10F38E0074617475732020286C6F776572203862F3
:10F39E00697473206F6E6C79290D0A0A0020202083
:10F3AE002020204164642030783030303020746F5B
:10F3BE0020307830303331202D203332782043699D
:10F3CE007263756974204765742053746174757324
:10F3DE0020286C6F776572203862697473206F6EA7
:10F3EE006C79290D0A002020202020204164642001
:10F3FE0030783036303020746F20307830363032FE
:10F40E00202D20337820416E616C6F677565204921
:10F41E006E707574732028307830303020746F2001
:10F42E00307830336666290D0A0A002020203078A5
:10F43E003130202D205772697465204D756C7469BA
:10F44E00706C65204F757470757420486F6C6469AC
:10F45E006E672052656769737465727320284D61FB
:10F46E007820333278203136626974290D0A0020F3
:10F47E00202030783033202D2052656164204D7568
:10F48E006C7469706C65204F757470757420486F5C
:10F49E006C64696E67205265676973746572732058
:10F4AE00284D617820333278203136626974290D07
:10F4BE000A002020204279746520253032693A20D6
:10F4CE00307825303278202D20526567202569202E
:10F4DE00486920284164642E203078253032782502
:10F4EE00303278202F204369726375697420256944
:10F4FE00290D0A00436C656172696E67204545509F
:10F50E00524F4D2066726F6D204164647265737345
:10F51E003A2030782530347820666F72206E756D03
:10F52E002062797465733A202569200D0A004675AC
:10F53E006E6374696F6E20436F646520307831306E
:10F54E00202D20577269746520746F204F7574706A
:10F55E00757420486F6C64696E67205265676973B5
:10F56E0074657273200D0A00202020427974652084
:10F57E0030313A20307825303278202D2046756E85
:10F58E006374696F6E20436F6465202857726974C7
:10F59E0065204D756C746920526567290D0A00202F
:10F5AE0020202020204164642030783035303020F7
:10F5BE00746F20307830353034202D20436F6D70CD
:10F5CE00696C652054696D65202D2028415343498F
:10F5DE0049290D0A00202020427974652030313AE5
:10F5EE0020307825303278202D2046756E63746970
:10F5FE006F6E20436F6465202852656164204D75DF
:10F60E006C746920526567290D0A0020202042790A
:10F61E00746520253032693A2030782530327820D2
:10F62E002D20526567202569204869202841646491
:10F63E002E203078253032782025303278290D0A68
:10F64E0000526571756573746564207265676973C0
:10F65E0074657273206F7574206F662072616E67A9
:10F66E00652E202030783030303020746F20307886
:10F67E003032302E0D0A00202020202020416464DC
:10F68E002030783033303020746F20307830333083
:10F69E0034202D2053657269616C204E756D626544
:10F6AE007220284153434949290D0A000D0A52651B
:10F6BE00636569766564204D6F646275732043528D
:10F6CE004320476F6F6420627574204164647265D5
:10F6DE007373204E4F5420666F72206D652E0D0A87
:10F6EE000046756E6374696F6E20436F64652030DB
:10F6FE00783033202D2052656164204F75747075FB
:10F70E007420486F6C64696E672052656769737404
:10F71E006572730D0A002020202020204164642091
:10F72E0030783034303020746F20307830343035CB
:10F73E00202D20436F6D70696C65204461746520C7
:10F74E00284153434949290D0A005265676973746C
:10F75E00657273206F7574206F662072616E6765B7
:10F76E002E0D0A56616C69643A2030783030303094
:10F77E0020746F203078303033312E0D0A005265F0
:10F78E0067697374657273206F7574206F6620726B
:10F79E00616E67652E0D0A56616C69643A20307889
:10F7AE003036303020746F203078303630322E0DB7
:10F7BE000A00526567697374657273206F757420E1
:10F7CE006F662072616E67652E0D0A56616C6964F4
:10F7DE003A2030783035303020746F203078303524
:10F7EE0030332E0D0A00526567697374657273208B
:10F7FE006F7574206F662072616E67652E0D0A56E6
:10F80E00616C69643A2030783033303020746F2068
:10F81E003078303330342E0D0A00526567697374B8
:10F82E00657273206F7574206F662072616E6765E6
:10F83E002E0D0A56616C69643A20307830343030BF
:10F84E0020746F203078303430352E0D0A0052651A
:10F85E0067697374657273206F7574206F6620729A
:10F86E00616E67652E0D0A56616C69643A203078B8
:10F87E003031303020746F203078303130382E0DEA
:10F88E000A000D0A5265636569766564204D6F64E2
:10F89E006275732043524320476F6F6420616E641C
:10F8AE00204164647265737320495320666F722021
:10F8BE006D652E0D0A00202020202020416464203A
:10F8CE0030783031303020746F203078303130382D
:10F8DE00202D2050617274204E756D626572202845
:10F8EE004153434949290D0A002020203F202D2055
:10F8FE00496E6974616C69736520616E6420646918
:10F90E0073706C61792063617264206465746169DF
:10F91E006C730D0A0046756E6374696F6E20436FCB
:10F92E0064652030783034202D2052656164204982
:10F93E006E707574205265676973746572730D0A03
:10F94E0000436F6D70696C6564206F6E20257320A7
:10F95E0061742025732062792058433820766572B1
:10F96E0073696F6E2025750D0A0A002020203078ED
:10F97E003034202D2052656164204D756C74697091
:10F98E006C652031366269742052656769737465DF
:10F99E0072730D0A00526567697374657273206F16
:10F9AE007574206F662072616E67652E0D0A566142
:10F9BE006C69643A203078303531322E0D0A000DE4
:10F9CE000A44616E20616E642053616D2773204D71
:10F9DE006F64627573204750494F20457870616E91
:10F9EE0073696F6E0D0A0020202020202041646470
:10F9FE0020307830323030202D2052657669736990
:10FA0E006F6E20284153434949290D0A000D0A45BE
:10FA1E006E746572206361726420257320286D6197
:10FA2E007820256920636861726163746572732939
:10FA3E003A2000202020427974652030323A20305E
:10FA4E007825303278202D204E756D2042797465E0
