:020000040000FA
:0400000093EF00F08A
:100008005B82FACF01F0FBCF02F0D9CF03F0DACF51
:1000180004F0F2AC12EF00F014EF00F089EF00F0FA
:100028000E01C5AD1AEF00F01CEF00F032EF00F042
:10003800CDAD21EF00F023EF00F032EF00F002D851
:1000480030EF00F00500FA6E0001FC51FD6EFD5125
:10005800FE6EFF6AFA50120089EF00F0C5AF37EF65
:1000680000F039EF00F04FEF00F0CDAF3EEF00F0B9
:1000780040EF00F04FEF00F002D84DEF00F0050020
:10008800FA6E0101FA51FD6EFB51FE6EFF6AFA50DD
:10009800120089EF00F0C5A954EF00F056EF00F008
:1000A8006CEF00F0CDA95BEF00F05DEF00F06CEFB6
:1000B80000F002D86AEF00F00500FA6E0101F8516D
:1000C800FD6EF951FE6EFF6AFA50120089EF00F0DA
:1000D800C5AB71EF00F073EF00F089EF00F0CDAB26
:1000E80078EF00F07AEF00F089EF00F002D887EFA0
:1000F80000F00500FA6E0101F651FD6EF751FE6E33
:10010800FF6AFA50120089EF00F004C0DAFF03C05A
:10011800D9FF02C0FBFF01C0FAFF5B9211006DEF2F
:1001280014F04BC0D9FF4CC0DAFFDECFF6FFDDCFAD
:10013800F7FFF86A0800F550250AD8A4A6EF00F0E2
:10014800A8EF00F03DEF03F04BC0D9FF4CC0DAFF39
:10015800DE2A000EDD22000E0001C86F000EC76FF8
:10016800C7C057F0C8C058F0C969CA69000E6C6F9B
:10017800000E6B6F07EF01F057804BC0D9FF4CC0E2
:10018800DAFFDE2A000EDD2207EF01F05782C1EF09
:1001980000F05784C1EF00F05786C1EF00F0578890
:1001A800C1EF00F0000E6C6F010E6B6F07EF01F0EE
:1001B8004BC0D9FF4CC0DAFFDECFF6FFDDCFF7FF2B
:1001C800F86A0800F5504F6E506A5050000AD8B4CB
:1001D800F0EF00F0D6EF00F04F50200AD8B4D0EF7F
:1001E80000F0030AD8B4D3EF00F0080AD8B4CDEF72
:1001F80000F0060AD8B4C0EF00F01D0AD8B4CAEF60
:1002080000F0D6EF00F06B516C11D8B40EEF01F08E
:1002180010EF01F0DCEF00F057A015EF01F017EF39
:1002280001F018EF01F057924BC0D9FF4CC0DAFF2C
:10023800DECFF6FFDDCFF7FFF86A0800F5502A0A8F
:10024800D8A429EF01F02BEF01F054EF01F04BC0D7
:10025800D9FF4CC0DAFFDE2A000EDD224DC0D9FFDF
:100268004EC0DAFFDFCF4FF0020EDE26DFCF50F0B0
:10027800000EDD224FC0D9FF50C0DAFFDECFC7F035
:10028800DDCFC8F0C8BF4DEF01F04BEF01F099EF9B
:1002980001F05780C76DC81FD8B0C82B99EF01F07F
:1002A8004BC0D9FF4CC0DAFFDECF0CF0DDCF0DF02C
:1002B8009CEC0FF00CC0C7F00DC0C8F06BEF01F05C
:1002C8004BC0D9FF4CC0DAFFDE2A000EDD22D00E6B
:1002D8004F6EFF0E506E4BC0D9FF4CC0DAFFDECF19
:1002E800F6FFDDCFF7FFF86A0800F550516E526A45
:1002F8004F5051265050522252500AE10A0E515C7A
:10030800D8A089EF01F08CEF01F0010E8DEF01F01C
:10031800000E00016D6F6E6B6D516E11D8A497EFD2
:1003280001F099EF01F064EF01F04BC0D9FF4CC028
:10033800DAFFDECFF6FFDDCFF7FFF86A0800F550E9
:10034800640AD8B4AAEF01F0ACEF01F0BFEF01F0F6
:100358004BC0D9FF4CC0DAFFDECFF6FFDDCFF7FF89
:10036800F86A0800F550690AD8A4BDEF01F0BFEF9C
:1003780001F0FFEF01F04BC0D9FF4CC0DAFFDE2AD5
:10038800000EDD224DC0D9FF4EC0DAFFDFCF4FF09F
:10039800020EDE26DFCF50F0000EDD224FC0D9FF5F
:1003A80050C0DAFFDECF60F0DDCF61F0000E61BF34
:1003B800FF0E626F636F646F656F666F676F49C02A
:1003C80022F04AC023F060C024F061C025F062C06A
:1003D80026F063C027F064C028F065C029F066C025
:1003E8002AF067C02BF066EC07F022C049F023C062
:1003F8004AF059EF03F04BC0D9FF4CC0DAFFDECF0B
:10040800F6FFDDCFF7FFF86A0800F550730AD8A4A5
:1004180010EF02F012EF02F03DEF02F04BC0D9FFEF
:100428004CC0DAFFDE2A000EDD224DC0D9FF4EC0D7
:10043800DAFFDFCF4FF0020EDE26DFCF50F0000EDE
:10044800DD224FC0D9FF50C0DAFFDECF68F0DDCF24
:1004580069F049C010F04AC011F068C012F069C0D4
:1004680013F0CFEC0EF010C049F011C04AF059EF6C
:1004780003F04BC0D9FF4CC0DAFFDECFF6FFDDCF6B
:10048800F7FFF86A0800F550750AD8A44EEF02F095
:1004980050EF02F091EF02F04BC0D9FF4CC0DAFFE9
:1004A800DE2A000EDD224DC0D9FF4EC0DAFFDFCFB5
:1004B8004FF0020EDE26DFCF50F0000EDD224FC0D7
:1004C800D9FF50C0DAFFDECF51F0DDCF52F051C076
:1004D8006FF052C070F0716B726B736B746B756BED
:1004E800766B49C022F04AC023F06FC024F070C078
:1004F80025F071C026F072C027F073C028F074C0D0
:1005080029F075C02AF076C02BF041EC0AF022C021
:1005180049F023C04AF059EF03F04BC0D9FF4CC053
:10052800DAFFDECFF6FFDDCFF7FFF86A0800F550F7
:10053800780AD8B4A2EF02F0A4EF02F0B7EF02F005
:100548004BC0D9FF4CC0DAFFDECFF6FFDDCFF7FF97
:10055800F86A0800F550580AD8A4B5EF02F0B7EFCA
:1005680002F006EF03F04BC0D9FF4CC0DAFFDECF34
:10057800F6FFDDCFF7FFF86A0800F5CF6AF04BC049
:10058800D9FF4CC0DAFFDE2A000EDD224DC0D9FFAC
:100598004EC0DAFFDFCF4FF0020EDE26DFCF50F07D
:1005A800000EDD224FC0D9FF50C0DAFFDECF51F078
:1005B800DDCF52F051C06FF052C070F0716B726BAA
:1005C800736B746B756B766B49C022F04AC023F06D
:1005D8006FC024F070C025F071C026F072C027F0FB
:1005E80073C028F074C029F075C02AF076C02BF0CB
:1005F8006AC02CF0D6EC08F022C049F023C04AF0BB
:1006080059EF03F04BC0D9FF4CC0DAFFDECFF6FF3D
:10061800DDCFF7FFF86A0800F550250AD8A417EFD0
:1006280003F019EF03F030EF03F04BC0D9FF4CC0D3
:10063800DAFFDE2A000EDD22000E086E250E076E98
:1006480049C009F04AC00AF0BCEC19F0000E4A6E25
:10065800010E496E59EF03F04BC0D9FF4CC0DAFFC9
:10066800DE2A000EDD22000E4A6E000E496E59EF9A
:1006780003F04BC0D9FF4CC0DAFFDECFF6FFDDCF69
:10068800F7FFF86A0800F550076E086A49C009F0D4
:100698004AC00AF0BCEC19F04BC0D9FF4CC0DAFFD5
:1006A800DE2A000EDD222AEF03F01200000E000100
:1006B800D06F000ECF6FA00ECF25D96E020ED021BD
:1006C800DA6E00C2DFFFCF4BD02BA00ECF25D96E3C
:1006D800020ED021DA6E01C2DFFFCF4BD02B020110
:1006E8000551020DA00E0001CF25D96E020ED021B2
:1006F800DA6EF3CFDFFFCF4BD02BBBEF03F0DD0E6D
:100708007D6FFD0E7E6F73EC1FF0E6EF03F0B70E02
:100718007D6FFE0E7E6F73EC1FF0E6EF03F0CD0EDB
:100728007D6FFE0E7E6F73EC1FF0E6EF03F0440E54
:100738007D6FFE0E7E6F73EC1FF0E6EF03F0110E77
:100748007D6FFE0E7E6F73EC1FF0E6EF03F0F70E81
:100758007D6FFD0E7E6F73EC1FF0E6EF03F0510E18
:100768007D6FFD0E7E6F73EC1FF0E6EF03F0020164
:1007780002510001896F8A6B8A51000AD8B4C7EF09
:1007880003F0E6EF03F08951000AD8B483EF03F0D1
:10079800010AD8B48BEF03F0030AD8B493EF03F03F
:1007A800010AD8B49BEF03F0070AD8B4A3EF03F00B
:1007B800010AD8B4ABEF03F0030AD8B4B3EF03F0DF
:1007C800E6EF03F0000E566E000E556E5EEF05F074
:1007D800030E02010219D8A4F4EF03F0F6EF03F0B8
:1007E80027EF04F0035155240001896F000E5620AD
:1007F8008A6FD89089378A37350E8925D96E010EC8
:100808008A21DA6EDECF8BF0DDCF8CF08B51F46F5E
:10081800F56B0201035155240001896F000E562023
:100828008A6FD89089378A37350E8925D96E010E97
:100838008A21DA6EDECF8BF0DDCF8CF08C51CD6F54
:10084800CE6B47EF05F00205D8A42DEF04F02FEF8B
:1008580004F060EF04F0035155240001896F000E85
:1008680056208A6FD89089378A37100E8925D96E15
:10087800010E8A21DA6EDECF8BF0DDCF8CF08B5142
:10088800F46FF56B0201035155240001896F000EC6
:1008980056208A6FD89089378A37100E8925D96EE5
:1008A800010E8A21DA6EDECF8BF0DDCF8CF08C5111
:1008B800CD6FCE6B47EF05F0020E0219D8A467EF93
:1008C80004F069EF04F09AEF04F003515524000195
:1008D800896F000E56208A6FD89089378A37FA0EAA
:1008E8008925D96E000E8A21DA6EDECF8BF0DDCF36
:1008F8008CF08B51F46FF56B020103515524000104
:10090800896F000E56208A6FD89089378A37FA0E79
:100918008925D96E000E8A21DA6EDECF8BF0DDCF05
:100928008CF08C51CD6FCE6B47EF05F0040E021999
:10093800D8A4A1EF04F0A3EF04F0D4EF04F003511E
:1009480055240001896F000E56208A6FD890893788
:100958008A371E0E8925D96E010E8A21DA6EDECFFE
:100968008BF0DDCF8CF08B51F46FF56B02010351E6
:1009780055240001896F000E56208A6FD890893758
:100988008A371E0E8925D96E010E8A21DA6EDECFCE
:100998008BF0DDCF8CF08C51CD6FCE6B47EF05F02F
:1009A800050E0219D8A4DBEF04F0DDEF04F00EEF1A
:1009B80005F0035155240001896F000E56208A6FF7
:1009C800D89089378A37000E8925D96E010E8A2179
:1009D800DA6EDECF8BF0DDCF8CF08B51F46FF56BD8
:1009E8000201035155240001896F000E56208A6FB9
:1009F800D89089378A37000E8925D96E010E8A2149
:100A0800DA6EDECF8BF0DDCF8CF08C51CD6FCE6BF4
:100A180047EF05F00251D8A414EF05F016EF05F0E2
:100A280047EF05F0035155240001896F000E562049
:100A38008A6FD89089378A37B70E8925D96E030E01
:100A48008A21DA6EDECF8BF0DDCF8CF08B51F46F1C
:100A5800F56B0201035155240001896F000E5620E1
:100A68008A6FD89089378A37B70E8925D96E030ED1
:100A78008A21DA6EDECF8BF0DDCF8CF08C51CD6F12
:100A8800CE6B47EF05F0A00E0001CF25D96E020E00
:100A9800D021DA6ECDC0DFFFCF4BD02BA00ECF25F3
:100AA800D96E020ED021DA6EF4C0DFFFCF4BD02B07
:100AB800554A562A020105510001896F8A6B8951EE
:100AC800555C5650800A8B6F8A51800A8B59D8A082
:100AD80070EF05F072EF05F0ECEF03F0CFC005F012
:100AE800D0C006F0010E076E46EC16F005C0CDF03A
:100AF80006C0CEF0CFC005F0D0C006F0000E076EDD
:100B080046EC16F005C0F4F006C0F5F0A00E0001A2
:100B1800CF25D96E020ED021DA6ECDC0DFFFA10E2F
:100B2800CF25D96E020ED021DA6EF4C0DFFF020E97
:100B3800CF25CF6F000ED021D06FA00E066E020E0B
:100B4800076ECFC008F0D0C009F009EC1BF0120006
:100B58000001BA6F20EEAFF00A0EDE6AE806FDE289
:100B6800D60E0A6EFF0E0B6EAF0E0C6E000E0D6EDB
:100B7800030E0F6E000E0E6E000E116E050E106E37
:100B880042EC0BF020EE89F0120EDE6AE806FDE278
:100B9800EA0E0A6EFF0E0B6E890E0C6E000E0D6EBD
:100BA800010E0F6E000E0E6E000E116E080E106E06
:100BB80042EC0BF0000E0001BC6F000EBB6FF40E90
:100BC8000A6EFF0E0B6EBB0E0C6E000E0D6E020E43
:100BD8000F6E000E0E6E000E116E010E106E42ECBE
:100BE8000BF06E0E00017D6FFB0E7E6F73EC1FF035
:100BF800210E00017D6FFF0E7E6FAF0E7F6F000E1E
:100C0800806F73EC1FF00D0E00017D6FFF0E7E6F7D
:100C1800890E7F6F000E806F73EC1FF0E30E0001EA
:100C28007D6FFE0E7E6FBB0E7F6F000E806F73ECC4
:100C38001FF08B0E00017D6FFE0E7E6F73EC1FF0B0
:100C4800F20E00017D6FFA0E7E6FC10E7F6FFF0EF0
:100C5800806FCD0E816FFF0E826F080E846F340E89
:100C6800836F73EC1FF0000E0001C06F000EBF6FA2
:100C780021EE2AF010EE9CF00A0EDBCFE3FFE80627
:100C8800FCE2000EC26F000EC16F9C0EC125D96E2A
:100C9800000EC221DA6EDF50BD6F010EC125556E00
:100CA800000EC221566E9C0E5524D96E000E562099
:100CB800DA6EDF50BE6FBE51BDC055F0566A55C0E2
:100CC80056F0556A5526000E5622D890BF35D96E73
:100CD800C035DA6E1E0ED926010EDA2255C0DEFFA7
:100CE80056C0DDFFBF4BC02B020EC125C16F000EE1
:100CF800C221C26FC2BF8AEF06F0C25109E10C0ED1
:100D0800C15DD8A08AEF06F08CEF06F049EF06F037
:100D1800000EC06F000EBF6F21EE3FF010EEA7F07F
:100D2800070EDBCFE3FFE806FCE2000EC46F000EFF
:100D3800C36FA70EC325D96E000EC421DA6EDF502B
:100D4800BD6F010EC325556E000EC421566EA70E49
:100D58005524D96E000E5620DA6EDF50BE6FBE5194
:100D6800BDC055F0566A55C056F0556A5526000E56
:100D78005622D890BF35D96EC035DA6E000ED92606
:100D8800010EDA2255C0DEFF56C0DDFFBF4BC02B77
:100D9800020EC325C36F000EC421C46FC4BFDEEFAB
:100DA80006F0C45109E1080EC35DD8A0DEEF06F0D5
:100DB800E0EF06F09DEF06F0BA05D8B4E6EF06F0CE
:100DC800E8EF06F065EF07F04E0E7D6FFC0E7E6FC4
:100DD80073EC1FF0060E00017D6FFC0E7E6F73EC46
:100DE8001FF01C0E00017D6FFB0E7E6F73EC1FF071
:100DF8000A0E00017D6FF90E7E6F73EC1FF0C70EAF
:100E080000017D6FFA0E7E6F73EC1FF0330E000148
:100E18007D6FFD0E7E6F73EC1FF0460E00017D6F37
:100E2800FB0E7E6F73EC1FF0670E00017D6FFA0EEC
:100E38007E6F73EC1FF0C60E00017D6FF90E7E6F9A
:100E480073EC1FF08D0E00017D6FF90E7E6F73EC51
:100E58001FF0320E00017D6FFA0E7E6F73EC1FF0EB
:100E6800BF0E00017D6FF80E7E6F73EC1FF0A10EB0
:100E780000017D6FFE0E7E6F73EC1FF09B0E00016C
:100E88007D6FFA0E7E6F73EC1FF0BC0E00017D6F54
:100E9800FB0E7E6F73EC1FF0920E00017D6FFC0E4F
:100EA8007E6F73EC1FF0D40E00017D6FFC0E7E6F19
:100EB80073EC1FF0340E00017D6FFF0E7E6F73EC34
:100EC8001FF0120024C03CF025C03DF026C03EF0C3
:100ED80027C03FF028C040F029C041F02AC042F0A6
:100EE8002BC043F043BE7BEF07F07EEF07F0010E07
:100EF8007FEF07F0000E3A6E3B6A3A503B10D8B4C9
:100F080088EF07F08AEF07F09AEF07F0431E421EBA
:100F1800411E401E3F1E3E1E3D1E3C6C000E3D22E3
:100F28003E223F2240224122422243220001CABFE0
:100F3800A0EF07F0A2EF07F0A3EF07F05792CABFA0
:100F4800B0EF07F0CA5106E1C905D8B0AEEF07F017
:100F5800B0EF07F0B6EF07F0000E376E010E366EF1
:100F6800BAEF07F0C9C036F0CAC037F0C7C038F0CA
:100F7800C8C039F03A503B10D8A4C5EF07F0C7EF06
:100F880007F0CEEF07F057A4CCEF07F0CEEF07F04D
:100F9800D1EF07F03806D8A03906000E456E1F0EAF
:100FA800446E000E0101A36F56EF08F04406D8A066
:100FB8004506840E4424D96E010E4520DA6E3CC0E5
:100FC80005F03DC006F03EC007F03FC008F040C045
:100FD80009F041C00AF042C00BF043C00CF00A0E01
:100FE8000D6E000E0E6E000E0F6E000E106E000ECF
:100FF800116E000E126E000E136E000E146EEBECE6
:1010080011F005C02CF006C02DF007C02EF008C066
:101018002FF009C030F00AC031F00BC032F00CC01C
:1010280033F02CC017F02EC018F099EC1EF01750B2
:10103800300FDF6E3606D8A037063806D8A0390636
:101048003CC005F03DC006F03EC007F03FC008F0C8
:1010580040C009F041C00AF042C00BF043C00CF098
:101068000A0E0D6E000E0E6E000E0F6E000E106E44
:10107800000E116E000E126E000E136E000E146E2E
:1010880069EC10F005C03CF006C03DF007C03EF02A
:1010980008C03FF009C040F00AC041F00BC042F060
:1010A8000CC043F045BE61EF08F0455008E1440428
:1010B800D8A061EF08F063EF08F093EF08F03C5018
:1010C8003D103E103F104010411042104310D8A46C
:1010D80070EF08F072EF08F0DAEF07F037BE7FEF35
:1010E80008F0375006E13604D8B07DEF08F07FEFFE
:1010F80008F0DAEF07F039BE8AEF08F0395008E156
:101108003804D8A08AEF08F08CEF08F093EF08F0C5
:1011180057B291EF08F093EF08F0DAEF07F03A5082
:101128003B10D8A49AEF08F09CEF08F0A3EF08F062
:1011380057A4A1EF08F0A3EF08F0C1EF08F04406A8
:10114800D8A045063A503B10D8A4ADEF08F0AFEF51
:1011580008F0B5EF08F0000E356E2B0E346EB9EFBF
:1011680008F0000E356E2D0E346E840E4424D96EB0
:10117800010E4520DA6E34C0DFFF22C017F023C00D
:1011880018F0840E4424196E010E45201A6E38C0DA
:101198001BF039C01CF0E7EC17F017C022F018C09C
:1011A80023F012000001CABFDCEF08F0DEEF08F000
:1011B800DFEF08F05792CABFECEF08F0CA5106E11A
:1011C800C905D8B0EAEF08F0ECEF08F0F2EF08F044
:1011D800000E3A6E010E396EF6EF08F0C9C039F00C
:1011E800CAC03AF0C7C03BF0C8C03CF057A8FFEFF0
:1011F80008F001EF09F005EF09F0FE0E3B26FF0E9F
:101208003C2224C03DF025C03EF026C03FF027C058
:1012180040F028C041F029C042F02AC043F02BC05A
:1012280044F0000E466E1F0E456E000E0101A36FBE
:10123800D1EF09F04506D8A046060F0E3D14476EBB
:10124800486A48BE31EF09F0485009E10A0E475C88
:10125800D8A031EF09F033EF09F03BEF09F0570E52
:101268004724476E000E4820486E41EF09F0300EC3
:101278004724476E000E4820486EBF0E2D6EFF0EA5
:101288002E6E2C502F6E306A2D502F262E50302265
:1012980030500AE11A0E2F5CD8A055EF09F058EF2C
:1012A80009F0010E59EF09F0000E356E366A355017
:1012B8003610D8B462EF09F064EF09F094EF09F042
:1012C8009F0E2D6EFF0E2E6E200E47102F6E000EF5
:1012D8004810306E2D502F262E50302230500AE103
:1012E8001A0E2F5CD8A07BEF09F07EEF09F0010EF3
:1012F8007FEF09F0000E376E386A37503810D8B4CF
:1013080088EF09F08AEF09F094EF09F047C00BF075
:1013180048C00CF004EC1CF00BC047F00CC048F0BF
:10132800840E4524D96E010E4620DA6E47C0DFFFD1
:101338003906D8A03A063B06D8A03C063DC02DF099
:101348003EC02EF03FC02FF040C030F041C031F019
:1013580042C032F043C033F044C034F0050EBEEF53
:1013680009F0D890343233323232313230322F32BF
:101378002E322D32E82EB5EF09F02DC03DF02EC0EB
:101388003EF02FC03FF030C040F031C041F032C0D5
:1013980042F033C043F034C044F046BEDDEF09F0FC
:1013A800465009E1020E455CD8A0DDEF09F0DFEFF9
:1013B80009F00FEF0AF03D503E103F104010411069
:1013C800421043104410D8A4ECEF09F0EEEF09F0F6
:1013D8001EEF09F03ABEFBEF09F03A5006E1390476
:1013E800D8B0F9EF09F0FBEF09F01EEF09F03CBEA9
:1013F80006EF0AF03C5008E13B04D8A006EF0AF0DB
:1014080008EF0AF00FEF0AF057B20DEF0AF00FEFEE
:101418000AF01EEF09F057A814EF0AF016EF0AF0C9
:101428002CEF0AF04506D8A04606840E4524D96E4E
:10143800010E4620DA6E2CC0DFFF4506D8A046060E
:10144800840E4524D96E010E4620DA6E300EDF6E0A
:1014580022C017F023C018F0840E4524196E010E1F
:1014680046201A6E3BC01BF03CC01CF0E7EC17F09E
:1014780017C022F018C023F012000001CABF47EFBE
:101488000AF049EF0AF04AEF0AF05792CABF57EF3D
:101498000AF0CA5106E1C905D8B055EF0AF057EF6E
:1014A8000AF05DEF0AF0000E356E010E346E61EF42
:1014B8000AF0C9C034F0CAC035F0C7C036F0C8C099
:1014C80037F024C038F025C039F026C03AF027C0DC
:1014D8003BF028C03CF029C03DF02AC03EF02BC0AC
:1014E8003FF0000E416E1F0E406E000E0101A36F0B
:1014F800F4EF0AF04006D8A04106840E4024D96EC5
:10150800010E4120DA6E38C005F039C006F03AC045
:1015180007F03BC008F03CC009F03DC00AF03EC0EF
:101528000BF03FC00CF00A0E0D6E000E0E6E000E92
:101538000F6E000E106E000E116E000E126E000E71
:10154800136E000E146E1DEC17F005C02CF006C0CB
:101558002DF007C02EF008C02FF009C030F00AC0E7
:1015680031F00BC032F00CC033F02C50300FDF6E6E
:101578003406D8A035063606D8A0370638C005F098
:1015880039C006F03AC007F03BC008F03CC009F08B
:101598003DC00AF03EC00BF03FC00CF00A0E0D6EC5
:1015A800000E0E6E000E0F6E000E106E000E116E05
:1015B800000E126E000E136E000E146EEAEC14F09C
:1015C80005C038F006C039F007C03AF008C03BF053
:1015D80009C03CF00AC03DF00BC03EF00CC03FF023
:1015E80040504110D8B4FBEF0AF0FDEF0AF02DEFA0
:1015F8000BF0385039103A103B103C103D103E109B
:101608003F10D8A40AEF0BF00CEF0BF07EEF0AF0B6
:1016180035BE19EF0BF0355006E13404D8B017EF9A
:101628000BF019EF0BF07EEF0AF037BE24EF0BF04A
:10163800375008E13604D8A024EF0BF026EF0BF062
:101648002DEF0BF057B22BEF0BF02DEF0BF07EEFD9
:101658000AF022C017F023C018F0840E4024196E37
:10166800010E41201A6E36C01BF037C01CF0E7ECA3
:1016780017F017C022F018C023F01200000E176EE2
:10168800000E166E000E156E000E146E000E176E0C
:10169800000E166E22EF0CF00EC005F00FC006F01B
:1016A800D4EC1FF0186E030E136E080E126E770E30
:1016B800E82EFED7122EFCD7132EFAD700F01828E2
:1016C800D8B469EF0BF06BEF0BF075EF0BF014501B
:1016D8000C24D96E15500D20DA6E18C0DFFF144A9D
:1016E800152A0E4A0F2A0EC005F00FC006F0D4ECDA
:1016F8001FF0196E0E4A0F2A030E136E080E126E93
:10170800770EE82EFED7122EFCD7132EFAD700F04C
:101718001928D8B492EF0BF094EF0BF09EEF0BF072
:1017280014500C24D96E15500D20DA6E19C0DFFF45
:10173800144A152AD60E056EFF0E066E0AC007F06B
:101748000BC008F008EC19F005500610D8A4AFEF4C
:101758000BF0B1EF0BF0CAEF0BF0195018C012F0F4
:10176800136A12C013F0126A1226000E1322D890C0
:101778001634D96E1734DA6E350ED926010EDA22F0
:1017880012C0DEFF13C0DDFF20EF0CF0EA0E056E7D
:10179800FF0E066E0AC007F00BC008F008EC19F03F
:1017A80005500610D8A4DBEF0BF0DDEF0BF0F6EFD9
:1017B8000BF0195018C012F0136A12C013F0126A15
:1017C8001226000E1322D8901634D96E1734DA6E0A
:1017D800100ED926010EDA2212C0DEFF13C0DDFF7B
:1017E80020EF0CF0F40E056EFF0E066E0AC007F02F
:1017F8000BC008F008EC19F005500610D8A407EF44
:101808000CF009EF0CF020EF0CF0195018C012F092
:10181800136A12C013F0126A1226000E1322D8900F
:101828001634D96E1734DA6EFA0ED926000EDA227B
:1018380012C0DEFF13C0DDFF164A172A1050165CCF
:101848001750800A126E1150800A1258D8A02FEF34
:101858000CF031EF0CF050EF0BF014500C24D96E53
:1018680015500D20DA6E000EDF6E120091C099F04F
:1018780092C09AF0960E00017D6FFB0E7E6F8DC0B0
:101888007FF08EC080F093C081F094C082F073EC3A
:101898001FF0E20E096E000E0A6E090E0B6EF90EAD
:1018A8000C6EA6EC1BF093C089F094C08AF04BEC48
:1018B80013F0000189518A11D8B465EF0CF067EF75
:1018C8000CF057EF0CF0B30E7D6FFC0E7E6FE20E3E
:1018D8007F6F000E806F73EC1FF0C8EC1FF00009DB
:1018E800D8B479EF0CF07BEF0CF071EF0CF090ECC2
:1018F8001CF000019D6F790E9D19D8B486EF0CF08D
:1019080088EF0CF091EF0CF0590E9D19D8A48FEFC9
:101918000CF091EF0CF009EF0DF0990E7D6FFF0EB2
:101928007E6F8DC07FF08EC080F073EC1FF0E20EEA
:10193800056E000E066E3BEC1DF005C097F006C064
:1019480098F0470E00017D6FFF0E7E6F97C07FF005
:1019580098C080F073EC1FF091C089F092C08AF0B3
:1019680093C08BF094C08CF062EC1CF0000E000168
:101978009C6F000E9B6FE1EF0CF099C005F09AC0C8
:1019880006F0E20E9B25D96E000E9C21DA6EDF5020
:10199800076ED2EC1DF00001994B9A2B030E000143
:1019A800966F080E956F770EE82EFED7952FFCD709
:1019B800962FFAD700019B4B9C2BE20E056E000E6A
:1019C800066E3BEC1DF0055000019B5D06509C59CE
:1019D800D8A0F1EF0CF0F3EF0CF0C1EF0CF0A80E6B
:1019E8007D6FFF0E7E6F8DC07FF08EC080F073EC30
:1019F8001FF0E20E096E000E0A6E090E0B6EF90E4C
:101A08000C6EA6EC1BF021EF0DF04E0E9D19D8B40C
:101A180010EF0DF012EF0DF01BEF0DF06E0E9D198B
:101A2800D8A419EF0DF01BEF0DF021EF0DF0B50E56
:101A38007D6FFF0E7E6F73EC1FF01200000E000129
:101A4800946F000E936F000E906F000E8F6F000E54
:101A5800D06F000ECF6FA00ECF25D96E020ED02109
:101A6800DA6E00C2DFFFCF4BD02BA00ECF25D96E88
:101A7800020ED021DA6E01C2DFFFCF4BD02BA00EB1
:101A8800CF25D96E020ED021DA6E02C2DFFFCF4B0E
:101A9800D02BA00ECF25D96E020ED021DA6E03C24C
:101AA800DFFFCF4BD02BA00ECF25D96E020ED02151
:101AB800DA6E04C2DFFFCF4BD02BA00ECF25D96E34
:101AC800020ED021DA6E05C2DFFFCF4BD02B000EFD
:101AD800926F000E916FA7EF0DF0080E9325D96E47
:101AE800020E9421DA6EDF508B6F070E9325D96EA4
:101AF800020E9421DA6EDF508C6F8C518E6F8D6BD5
:101B08008B518D258F6F000E8E21906F020E9325BD
:101B1800936F000E9421946F0201035100019125E7
:101B28008B6F000E92218C6FD8908B378C37640E98
:101B38008B25D96E040E8C21DA6E8FC0DEFF90C023
:101B4800DDFF914B922B0201055100018B6F8C6BCD
:101B58008B51915D9251800A8D6F8C51800A8D59FD
:101B6800D8A0B9EF0DF0BBEF0DF071EF0DF0CFC0BD
:101B780005F0D0C006F0010E076E46EC16F005C061
:101B8800CDF006C0CEF0CFC005F0D0C006F0000EF4
:101B9800076E46EC16F005C0F4F006C0F5F0A00E8E
:101BA8000001CF25D96E020ED021DA6ECDC0DFFF3D
:101BB800A10ECF25D96E020ED021DA6EF4C0DFFF58
:101BC800020ECF25CF6F000ED021D06FD705D8A435
:101BD800F0EF0DF0F2EF0DF0F6EF0DF040EC1BF02A
:101BE80067EC19F0A00E066E020E076ECFC008F063
:101BF800D0C009F009EC1BF01200E20E056E000ED1
:101C0800066EE40E076EFF0E086E08EC19F005501C
:101C18000610D8A412EF0EF014EF0EF019EF0EF024
:101C2800D7EC1EF0010ECEEF0EF0E20E056E000EA0
:101C3800066EFC0E076EFF0E086E08EC19F00550D4
:101C48000610D8A42AEF0EF02CEF0EF031EF0EF0AC
:101C5800000EACEC05F016EF0EF0E20E056E000E6D
:101C6800066EDD0E076EFF0E086E08EC19F00550C3
:101C78000610D8A442EF0EF044EF0EF065EF0EF018
:101C880022EE8CF011EEA4F0130EDBCFE3FFE80692
:101C9800FCE2A40E00018D6F010E8E6F030E906F93
:101CA800000E8F6F030E926F000E916F000E946FEF
:101CB8000A0E936F3AEC0CF0010EACEC05F016EF3F
:101CC8000EF0E20E056E000E066EEF0E076EFF0EAA
:101CD800086E08EC19F005500610D8A476EF0EF03F
:101CE80078EF0EF099EF0EF022EE78F011EEB8F0E2
:101CF800130EDBCFE3FFE806FCE2B80E00018D6FA0
:101D0800010E8E6F010E906F000E8F6F010E926F95
:101D1800000E916F000E946F100E936F3AEC0CF05A
:101D2800010EACEC05F016EF0EF0E20E056E000E9B
:101D3800066EF80E076EFF0E086E08EC19F00550D7
:101D48000610D8A4AAEF0EF0ACEF0EF0CDEF0EF00F
:101D580022EE64F011EECCF0130EDBCFE3FFE806C1
:101D6800FCE2CC0E00018D6F010E8E6F020E906F9B
:101D7800000E8F6F020E926F000E916F000E946F1F
:101D8800020E936F3AEC0CF0010EACEC05F016EF76
:101D98000EF0000E120021EE47F010EE15F0060EC0
:101DA800DBCFE3FFE806FCE212C020F013C021F00D
:101DB80020502110D8A4E3EF0EF0E5EF0EF0E9EF84
:101DC8000EF0150E206E000E216E20C005F021C009
:101DD80006F03BEC1DF005C024F006C025F0C9C094
:101DE80022F0CAC023F023BEFCEF0EF0FEEF0EF087
:101DF80013EF0FF02450225C2350800A146E2550F4
:101E0800800A1458D8A00BEF0FF00DEF0FF00FEF6A
:101E18000FF013EF0FF022C024F023C025F024C0E8
:101E280022F025C023F0C7C01EF0C8C01FF057B06D
:101E380020EF0FF022EF0FF03FEF0FF030EF0FF031
:101E4800000E086E200E076E10C009F011C00AF0CF
:101E5800BCEC19F0244A252A1E50245C2550800A1F
:101E6800146E1F50800A1458D8A03DEF0FF03FEFB2
:101E78000FF024EF0FF0000E1D6E000E1C6E64EFC5
:101E88000FF020C0F6FF21C0F7FF000EF86E0E0E0F
:101E9800F76403D00800F55005D0F6CFE9FFF7CF77
:101EA800EAFFEF50146E1450076E086A10C009F06C
:101EB80011C00AF0BCEC19F0204A212A1C4A1D2A3C
:101EC80022501C5C1D50800A146E2350800A14583E
:101ED800D8A071EF0FF073EF0FF045EF0FF057A098
:101EE80078EF0FF07AEF0FF097EF0FF088EF0FF021
:101EF800000E086E200E076E10C009F011C00AF01F
:101F0800BCEC19F0244A252A1E50245C2550800A6E
:101F1800146E1F50800A1458D8A095EF0FF097EF51
:101F28000FF07CEF0FF024C010F025C011F0120064
:101F3800000E1A6E000E196E000E136E000E126E51
:101F4800A8EF0FF00C4A0D2A010E186E0CC0F6FF10
:101F58000DC0F7FFF86A0800F550200AD8B4B7EFAB
:101F68000FF0B9EF0FF0D7EF0FF0F70E0E6EFF0E70
:101F78000F6E0CC0F6FF0DC0F7FFF86A0800F550A9
:101F8800106E116A0E5010260F501122115009E1DF
:101F9800050E105CD8A0D3EF0FF0D5EF0FF0D7EFF8
:101FA8000FF0000E186E18C014F0156A14501510B2
:101FB800D8A4E1EF0FF0E3EF0FF0A6EF0FF0EDEF8D
:101FC8000FF0000E136E010E126E0C4A0D2A24EF4C
:101FD80010F00CC0F6FF0DC0F7FFF86A0800F550C6
:101FE8000E6E0F6A0F50000AD8B4FDEF0FF024EF01
:101FF80010F00E502B0AD8B4E9EF0FF0060AD8B447
:10200800E5EF0FF024EF10F019C005F01AC006F044
:10201800000E086E0A0E076E9AEC1FF00CC0F6FF51
:102028000DC0F7FFF86A0800F550055E000E065A65
:10203800300E0524196E000E06201A6EE9EF0FF017
:10204800D00E0E6EFF0E0F6E0CC0F6FF0DC0F7FF20
:10205800F86A0800F550106E116A0E5010260F50DD
:10206800112211500AE10A0E105CD8A03EEF10F0C0
:1020780041EF10F0010E42EF10F0000E166E176AD5
:1020880016501710D8A44BEF10F04DEF10F008EFD2
:1020980010F012501310D8A454EF10F056EF10F0AF
:1020A80064EF10F019C00EF01AC00FF00E1E0F1ECC
:1020B8000E4A0F2A0EC00CF00FC00DF068EF10F09A
:1020C80019C00CF01AC00DF01200000E166E14BEE6
:1020D80072EF10F070EF10F084EF10F0141E131E62
:1020E800121E111E101E0F1E0E1E0D6C000E0E224B
:1020F8000F2210221122122213221422010E166E10
:102108000CBE8BEF10F089EF10F09DEF10F00C1E55
:102118000B1E0A1E091E081E071E061E056C000E51
:1021280006220722082209220A220B220C22010E6B
:10213800161A20EE17F0070EDE6AE806FDE20D50CB
:102148000E100F1010101110121013101410D8B414
:10215800B0EF10F0B2EF10F004EF11F0010E156EB1
:10216800C0EF10F0D8900D360E360F3610361136F7
:10217800123613361436152A14AEC5EF10F0C7EF11
:1021880010F0B6EF10F0D8901736183619361A3600
:102198001B361C361D361E360D50055C0E50065873
:1021A8000F500758105008581150095812500A5823
:1021B80013500B5814500C58D8A0E5EF10F0E7EF67
:1021C80010F0F8EF10F00D50055E0E50065A0F5043
:1021D800075A1050085A1150095A12500A5A1350E7
:1021E8000B5A14500C5A1780D890143213321232EA
:1021F800113210320F320E320D32152EC7EF10F099
:102208001650D8B40AEF11F00CEF11F01CEF11F0D2
:102218001E1E1D1E1C1E1B1E1A1E191E181E176CA4
:10222800000E182219221A221B221C221D221E22ED
:1022380017C005F018C006F019C007F01AC008F05A
:102248001BC009F01CC00AF01DC00BF01EC00CF02A
:10225800120065EC20F0ECEC1FF00009D8B437EF61
:1022680011F039EF11F0E9EF11F00001D705D8A40A
:1022780040EF11F042EF11F048EF11F05C0E7D6F66
:10228800FE0E7E6F73EC1FF0ECEC1FF00009D8B463
:1022980050EF11F052EF11F089EF11F07CEF11F0CF
:1022A800BCEC1CF0566E000E0001D125D96E050E4F
:1022B800D221DA6E56C0DFFFD705D8A466EF11F039
:1022C80068EF11F079EF11F0890E7D6FFF0E7E6FC8
:1022D800000ED125D96E050ED221DA6EDF50566E6A
:1022E80056507F6F806B73EC1FF00001D14BD22BDF
:1022F800ECEC1FF00009D8A484EF11F086EF11F080
:1023080054EF11F0010E0001D66F0001D605D8A4D4
:1023180090EF11F092EF11F0AEEF11F0B4EC16F06F
:1023280089EC1DF0000E0001D66F000ED26F000E72
:10233800D16F83B8A2EF11F0A5EF11F0010EA6EF4F
:1023480011F0000EFF0A566E563A83505618EF0BDE
:102358005618836EF851D31907E1F951D419D8A446
:10236800B8EF11F0BAEF11F048EF11F083BABFEFF0
:1023780011F0C2EF11F0010EC3EF11F0000EFF0AC9
:10238800566E563A564683505618DF0B5618836ECB
:102398009DEC12F0E806D8A4D4EF11F0D6EF11F0B6
:1023A800DFEF11F0E10E00017D6FFB0E7E6F73EC25
:1023B8001FF0E6EF11F0F40E00017D6FFC0E7E6F4A
:1023C80073EC1FF0010EEAEF11F0000E1200000E80
:1023D800166E0CBEF4EF11F0F2EF11F006EF12F0EA
:1023E8000C1E0B1E0A1E091E081E071E061E056C63
:1023F800000E06220722082209220A220B220C229A
:10240800010E166E14BE0DEF12F00BEF12F01DEF59
:1024180012F0141E131E121E111E101E0F1E0E1E69
:102428000D6C000E0E220F221022112212221322EE
:1024380014220D500E100F1010101110121013103E
:102448001410D8B42AEF12F02CEF12F074EF12F037
:10245800010E156E3AEF12F0D8900D360E360F3683
:1024680010361136123613361436152A14AE3FEFCD
:1024780012F041EF12F030EF12F00D50055C0E50E3
:1024880006580F5007581050085811500958125044
:102498000A5813500B5814500C58D8A056EF12F085
:1024A80058EF12F068EF12F00D50055E0E50065A04
:1024B8000F50075A1050085A1150095A12500A5A08
:1024C80013500B5A14500C5AD8901432133212323B
:1024D800113210320F320E320D32152E41EF12F03A
:1024E8001650D8B47AEF12F07CEF12F08CEF12F09D
:1024F8000C1E0B1E0A1E091E081E071E061E056C52
:10250800000E06220722082209220A220B220C2288
:1025180005C005F006C006F007C007F008C008F0BF
:1025280009C009F00AC00AF00BC00BF00CC00CF08F
:102538001200000194699569000E916F000E906F6A
:10254800000E936F000E926F000E976F000E966F3D
:10255800DDEF12F0000E9625D96E020E9721DA6E85
:10256800DF50896F8951941B000E936F080E926F8C
:1025780094A1C1EF12F0C3EF12F0CCEF12F0D89093
:1025880095339433010E941BA00E951BCFEF12F0D8
:10259800D890953394339207D8A09307925193110A
:1025A800D8A4D9EF12F0DBEF12F0BCEF12F0964B83
:1025B800972BFE0E896FFF0E8A6FD3C08BF0D4C0A5
:1025C8008CF089518B278A518C238B51965D9751BA
:1025D800800A8D6F8C51800A8D59D8A0F6EF12F0C1
:1025E800F8EF12F0AEEF12F094518E6F8F6B94C02B
:1025F80089F095C08AF08AC089F08A6B8951906FFA
:10260800916BD705D8A40BEF13F00DEF13F01BEF68
:1026180013F02A0E7D6FFC0E7E6F8EC07FF08FC088
:1026280080F090C081F091C082F073EC1FF0000E32
:1026380000019625D96E020E9721DA6EDF50896F58
:102648008A6B8E51891907E18F518A19D8A42FEF07
:1026580013F031EF13F049EF13F0010E9625D96E00
:10266800020E9721DA6EDF50896F8A6B90518919B3
:1026780007E191518A19D8A444EF13F046EF13F0FB
:1026880049EF13F0010E4AEF13F0000E1200F2C0EA
:1026980055F0F3C056F0C8EC1FF00009D8B457EF56
:1026A80013F059EF13F0D7EF13F0C8EC1FF000093F
:1026B800D8B461EF13F063EF13F0B3EF13F090ECBD
:1026C8001CF0556E555033EC1CF00D0E5518D8B44F
:1026D80070EF13F072EF13F07CEF13F0E20E136E4D
:1026E800000E146E550E156E000E166E87EC1FF058
:1026F800E20E056E000E066E3BEC1DF00550000163
:10270800895D06508A59D8B08CEF13F08EEF13F01C
:10271800A2EF13F0E20E096E000E0A6EE30E0B6EC6
:10272800000E0C6EE20E056E000E066E3BEC1DF000
:1027380005C00DF006C00EF0D8EC15F00D0E5518BA
:10274800D8A4A9EF13F0ABEF13F0B3EF13F07A0EA0
:10275800556E89C089F08AC08AF0DCEF13F00D0E3F
:102768005518D8A4BAEF13F0BCEF13F059EF13F0D3
:10277800E20E056E000E066E3BEC1DF0E10E052420
:10278800D96E000E0620DA6E000EDF6E060E00010E
:102798007D6FF90E7E6F73EC1FF0E20E056E000E72
:1027A800066E3BEC1DF0000E00018A6F000E896F6B
:1027B8001200BBEC1FF0F28EF28C8398839A839CF4
:1027C800839E000EACEC05F065EC20F089EC1DF062
:1027D80038EC1EF02DEC11F0E806D8A4F6EF13F053
:1027E800F8EF13F043EF14F022EF14F05AEC03F073
:1027F80039EF14F0F80E00017D6FFE0E7E6F73EC5A
:102808001FF0140E00017D6FFD0E7E6F73EC1FF03C
:1028180040EC1BF022EC0DF039EF14F0A60E00018D
:102828007D6FFD0E7E6F73EC1FF0000E00018C6F44
:10283800010E8B6F85EC17F039EF14F0020101518E
:102848000101E86FE96BE951000AD8B42EEF14F0E2
:1028580012EF14F0E851030AD8B4FAEF13F0130A90
:10286800D8B4FEEF13F012EF14F0CDEC1AF067ECC9
:1028780019F063EC1DF038EC1EF0EEEF13F0000ECB
:1028880000018A6F100E896F4BEC13F0000189511B
:102898008A11D8B452EF14F054EF14F069EF14F021
:1028A80001EC0EF0340E00017D6FFF0E7E6F73ECAD
:1028B8001FF0E20E096E000E0A6E090E0B6EF90E7D
:1028C8000C6EA6EC1BF0EEEF13F0EEEF13F093EFA7
:1028D80000F0F20EF66E3C0EF76E000EF86E04EE87
:1028E80064F010EE40F00900F5CFEEFFE550E1503E
:1028F800FAE1B20EF66E3C0EF76E000EF86E03EEBD
:10290800B7F010EE40F00900F5CFEEFFE550E150CA
:10291800FAE1C40EF66E2A0EF76E000EF86E02EE9D
:1029280000F010EEEBF00900F5CFEEFFE550E150B6
:10293800FAE1D00EF66E390EF76E000EF86E01EE63
:1029480000F010EE54F00900F5CFEEFFE550E1502D
:10295800FAE14A0EF66E400EF76E000EF86E00EEC3
:10296800F2F010EE0AF00900F5CFEEFFE550E15065
:10297800FAE105EE00F0640EEE6AE806FDE104EE09
:1029880000F0640EEE6AE806FDE103EE00F0B70E13
:10299800EE6AE806FDE102EEEBF00B0EEE6AE806E1
:1029A800FDE101EE54F0500EEE6AE806FDE100EE9E
:1029B800C5F02D0EEE6AE806FDE15A6A596A586AB2
:1029C800576A5B905B920001DDEF13F020EE15F083
:1029D800070EDE6AE806FDE20D500E100F1010100B
:1029E8001110121013101410D8B4FDEF14F0FFEFEB
:1029F80014F051EF15F0010E1D6E0DEF15F0D89083
:102A08000D360E360F36103611361236133614368A
:102A18001D2A14AE12EF15F014EF15F003EF15F0A0
:102A2800D890153616361736183619361A361B3614
:102A38001C360D50055C0E5006580F5007581050A4
:102A480008581150095812500A5813500B5814506E
:102A58000C58D8A032EF15F034EF15F045EF15F00B
:102A68000D50055E0E50065A0F50075A1050085A5E
:102A78001150095A12500A5A13500B5A14500C5A32
:102A88001580D890143213321232113210320F32AC
:102A98000E320D321D2E14EF15F015C005F016C0BC
:102AA80006F017C007F018C008F019C009F01AC0DE
:102AB8000AF01BC00BF01CC00CF01200FF00000055
:102AC80000000000000000000000000000000000FE
:102AD80000000000000000000000000000000000EE
:102AE80000000000000000000000000000000000DE
:102AF80000000000000000000000000000000000CE
:102B080000000000000000000000000000000000BD
:102B180000000000000000000000000000000000AD
:102B28005265766973696F6E00000000000000004E
:102B38000000000050617274204E756D626572006D
:102B4800000000000000000053657269616C204EAF
:102B5800756D62657200000000000000FF00000053
:102B6800000000000000000000000000000000005D
:102B7800000000000000000000000000000000004D
:102B8800000000000000000000000000000000003D
:102B9800000000000000000000000000000000002D
:072BA8000000000000000026
:102BB0000BC013F00CC014F009C011F00AC012F0E1
:102BC0001150135C12501458D8B0E9EF15F0EBEF28
:102BD00015F022EF16F00D5013240F6E0E50142036
:102BE000106E0F50115C10501258D8B0FAEF15F05B
:102BF000FCEF15F022EF16F00D5013260E501422A4
:102C00000D5011260E5012221306D8A0140613C020
:102C1000D9FF14C0DAFF1106D8A0120611C0E1FFD7
:102C200012C0E2FFDFCFE7FF0D06D8A00E060D5061
:102C30000E10D8A41EEF16F020EF16F004EF16F0D9
:102C400045EF16F00D500E10D8B429EF16F02BEF0B
:102C500016F045EF16F013C0D9FF14C0DAFF11C00B
:102C6000E1FF12C0E2FFDFCFE7FF134A142A114A47
:102C7000122A0D06D8A00E060D500E10D8A443EF50
:102C800016F045EF16F02BEF16F0120012681368DD
:102C9000000E0D6E000E0C6E000E116E000E106E0A
:102CA000000E0F6E000E0E6E85EF16F0A00E0E24B5
:102CB000D96E020E0F20DA6EDF50086E0850121A1D
:102CC000000E116E080E106E12A069EF16F06BEF79
:102CD00016F074EF16F0D89013321232010E121A59
:102CE000A00E131A77EF16F0D89013321232100696
:102CF000D8A0110610501110D8A481EF16F083EF60
:102D000016F064EF16F00E4A0F2A05500E5C0F50B5
:102D1000800A086E0650800A0858D8A092EF16F074
:102D200094EF16F056EF16F012500A6E0B6A12C0AE
:102D300008F013C009F009C008F0096A08500C6EC9
:102D40000D6A0704D8A4A7EF16F0A9EF16F0AFEFAD
:102D500016F00AC005F00BC006F0B3EF16F00CC079
:102D600005F00DC006F01200000E00018A6F000E83
:102D7000896F000E8A6F000E896FD1EF16F0000E7A
:102D80008925D96E050E8A21DA6E000ED325E16EF3
:102D9000020ED421E26EDFCFE7FFD34BD42B894B59
:102DA0008A2BD151895D8A51800A556ED251800A91
:102DB0005558D8A0DEEF16F0E0EF16F0BFEF16F092
:102DC000D705D8A4E6EF16F0E8EF16F0F9EF16F005
:102DD000FC0E7D6FF90E7E6F73EC1FF06E0E00011E
:102DE0007D6FFD0E7E6FD3C07FF0D4C080F073EC9A
:102DF0001FF00F0E02010119D8A401EF17F003EF25
:102E000017F00CEF17F0090E06250001F86FF96BAB
:102E1000000EF9231CEF17F0100E0119D8A413EFC0
:102E200017F015EF17F017EF17F003EF17F0000E7C
:102E30000001F96F080EF86F12000D500E100F1000
:102E400010101110121013101410D8B42AEF17F02C
:102E50002CEF17F074EF17F0010E156E3AEF17F024
:102E6000D8900D360E360F36103611361236133610
:102E70001436152A14AE3FEF17F041EF17F030EF7C
:102E800017F00D50055C0E5006580F5007581050A3
:102E900008581150095812500A5813500B58145022
:102EA0000C58D8A056EF17F058EF17F068EF17F04E
:102EB0000D50055E0E50065A0F50075A1050085A12
:102EC0001150095A12500A5A13500B5A14500C5AE6
:102ED000D890143213321232113210320F320E32B5
:102EE0000D32152E41EF17F005C005F006C006F0B3
:102EF00007C007F008C008F009C009F00AC00AF0CE
:102F00000BC00BF00CC00CF01200000E0001D06FD3
:102F1000000ECF6FA00ECF25D96E020ED021DA6E33
:102F200000C2DFFFCF4BD02BA00ECF25D96E020EF3
:102F3000D021DA6E02010151800FDF6E0001CF4B0C
:102F4000D02BA00ECF25D96E020ED021DA6E8BC009
:102F5000DFFFCF4BD02BCFC005F0D0C006F0010E65
:102F6000076E46EC16F005C0CDF006C0CEF0CFC01F
:102F700005F0D0C006F0000E076E46EC16F005C056
:102F8000F4F006C0F5F0A00E0001CF25D96E020EB8
:102F9000D021DA6ECDC0DFFFA10ECF25D96E020E93
:102FA000D021DA6EF4C0DFFF020ECF25CF6F000E06
:102FB000D021D06F67EC19F0A00E066E020E076EDE
:102FC000CFC008F0D0C009F009EC1BF0120057A0E8
:102FD000ECEF17F0EEEF17F0F8EF17F019C010F064
:102FE0001AC011F017C012F018C013F0F4EC1DF065
:102FF0001CBEFDEF17F0FFEF17F005EF18F01BC038
:1030000020F01CC021F009EF18F0000E216E000E18
:10301000206E000E1F6E000E1E6E1BEF18F0000ECD
:10302000086E200E076E17C009F018C00AF0BCEC3D
:1030300019F01E4A1F2A20501E5C1F50800A1D6E68
:103040002150800A1D58D8A028EF18F02AEF18F058
:103050000FEF18F057B02FEF18F031EF18F03BEFEB
:1030600018F019C010F01AC011F017C012F018C0F3
:1030700013F0F4EC1DF019C005F01AC006F03BEC9B
:103080001DF020500524176E21500620186E1200E6
:10309000540E5A24D96EDA6A010EDA22000EDF6E5F
:1030A0000E019DA556EF18F058EF18F06CEF18F0D0
:1030B000540E5A24D96EDA6A010EDA220101DF8237
:1030C00002D86CEF18F00500FA6EF451FD6EF55160
:1030D000FE6EFF6AFA5012000E019DA372EF18F007
:1030E00074EF18F088EF18F0540E5A24D96EDA6A8B
:1030F000010EDA220101DF8402D888EF18F0050002
:10310000FA6EF251FD6EF351FE6EFF6AFA50120034
:10311000540E5A24D96EDA6A010EDA22DF50D8B47E
:1031200094EF18F096EF18F0A5EF18F002D8A3EF7F
:1031300018F00500FA6E0101F051FD6EF151FE6EBE
:10314000FF6AFA501200A7EF18F047EC1FF01200C8
:10315000000E5924D96EDA6A030EDA22000EDF6EF1
:103160009DA4B5EF18F0B7EF18F0CCEF18F0000EF3
:103170005924D96EDA6A030EDA220301DF8202D8FB
:10318000CCEF18F00500FA6E0101EE51FD6EEF5123
:10319000FE6EFF6AFA5012009DA2D1EF18F0D3EF35
:1031A00018F0E8EF18F0000E5924D96EDA6A030E11
:1031B000DA220301DF8402D8E8EF18F00500FA6E86
:1031C0000101EC51FD6EED51FE6EFF6AFA501200E6
:1031D000000E5924D96EDA6A030EDA22DF50D8B411
:1031E000F4EF18F0F6EF18F005EF19F002D803EF3E
:1031F00019F00500FA6E0101EA51FD6EEB51FE6E09
:10320000FF6AFA50120007EF19F05DEC1FF0120090
:103210000EEF19F0054A062A074A082A07C0F6FFEA
:1032200008C0F7FFF86A0800F5CF09F005C0F6FFFF
:1032300006C0F7FF000EF86E0E0EF76403D008000C
:10324000F55005D0F6CFE9FFF7CFEAFFEF500918A8
:10325000D8A42DEF19F02FEF19F048EF19F005C0A1
:10326000F6FF06C0F7FF000EF86E0E0EF76403D0EF
:103270000800F55005D0F6CFE9FFF7CFEAFFEF5091
:103280000009D8A446EF19F048EF19F00AEF19F039
:1032900005C0F6FF06C0F7FF000EF86E0E0EF764CD
:1032A00003D00800F55005D0F6CFE9FFF7CFEAFFCD
:1032B000EF50096E07C0F6FF08C0F7FFF86A080074
:1032C000F550095C056E066AD8A0060612008A0E43
:1032D00000017D6FFD0E7E6FCFC07FF0D0C080F00B
:1032E00073EC1FF0000E00018A6F000E896FA6EFCD
:1032F00019F004EC20F00009D8B481EF19F083EF45
:1033000019F079EF19F02B0E00017D6FFE0E7E6F24
:1033100089C07FF08AC080F0A00E8925D96E020E88
:103320008A21DA6EDF50556E5550816F826B73ECD7
:103330001FF010EC20F00009D8B4A1EF19F0A3EFB2
:1033400019F099EF19F00001894B8A2BCF51895D53
:103350008A51800A556ED051800A5558D8A0B3EFD3
:1033600019F0B5EF19F079EF19F0060E7D6FF90E2F
:103370007E6F73EC1FF0120009500A10D8B4C3EF2F
:1033800019F0C5EF19F0CEEF19F009500A10D8A4C2
:10339000CCEF19F0CEEF19F0D3EF19F007505CEC39
:1033A00020F006EF1AF020EE04F00950D9260A505A
:1033B000DA22DE50DE10D8B4E0EF19F0E2EF19F0B7
:1033C000FDEF19F020EE04F00950D9260A50DA2258
:1033D00010EE02F00950E1260A50E222DE50E65CCF
:1033E000E650800A0F6EDE50800A0F58D8B0FBEF0F
:1033F00019F0FDEF19F006EF1AF020EE02F0095077
:10340000D9260A50DA22DE2A000EDD221200000E32
:10341000876E000E866E000E836E000E846E000EA8
:10342000856E070E8C6E070E886EBF0E896EBF0EFE
:103430008A6EFE0E8B6E0F0126693B0E216F370ED2
:10344000196F070E2E6F1169000E256F000E2D6F7C
:10345000000E186F000E106F000E206F000E2C6F04
:10346000000E0F6F000E176F000E1F6F000E246FFF
:103470000E6916691E692369070E2B6F0D691569A0
:103480001D6922690F0E2A6F170E0E01B56F0B0E04
:10349000F56F090EFD6F0F0E8D6F12000E01C59BAB
:1034A000500E056E310E066E48EC20F00E01C599E7
:1034B0002C0E056E3C0E066E43EC20F0080E9F6E3F
:1034C000900E9D6E240E9E6EA00E9B6E030E9C6E43
:1034D000010E9C6EEE0E056E400E066E52EC20F054
:1034E000DC0E056E400E066E4DEC20F0E20E056E11
:1034F000400E066E57EC20F0000E0001D86F000E53
:10350000DC6F000EDB6F100EFE6F000E596E000EAA
:10351000DA6F000ED96F0E01C58B12000E01C59F28
:10352000900E056E300E066E2FEC20F00E01C59D3C
:103530005C0E056E3B0E066E2AEC20F0080E0E01A6
:103540009F6F900E9D6F240E9E6FA00E9B6F010EBD
:103550009C6FEC0E056E400E066E39EC20F0C20E2C
:10356000056E400E066E34EC20F0D60E056E400E51
:10357000066E3EEC20F0000E0001DD6F000EE16FE4
:10358000000EE06F200EFF6F000E5A6E000EDF6F10
:10359000000EDE6F0E01C58F1200700E00017D6FF0
:1035A000FC0E7E6F73EC1FF0000E00018A6F000EA0
:1035B000896FF3EF1AF0740E7D6FFE0E7E6F89C077
:1035C0007FF08AC080F0000E8925D96E020E8A2114
:1035D000DA6EDF50556E5550816F826B73EC1FF0C1
:1035E0000001894B8A2BD351895D8A51800A556E1F
:1035F000D451800A5558D8A000EF1BF002EF1BF001
:10360000DBEF1AF0060E7D6FF90E7E6F73EC1FF084
:10361000120068EC20F0F8EC1FF00009D8B413EFAA
:103620001BF015EF1BF00BEF1BF0000E0C6E000EE5
:103630000B6E30EF1BF00B500624D96E0C50072098
:10364000DA6EDF50D5EC1BF01BEC20F00009D8B48B
:103650002CEF1BF02EEF1BF024EF1BF00B4A0C2A73
:1036600008500B5C0C50800A0A6E0950800A0A58F8
:10367000D8A03DEF1BF03FEF1BF01BEF1BF012003B
:10368000790E00017D6FFF0E7E6F73EC1FF0000E50
:10369000566E000E556EC20E00017D6FFD0E7E6FE0
:1036A00055C07FF056C080F0D8905534D96E56344E
:1036B000DA6E640ED926040EDA22DECF81F0DDCF79
:1036C00082F073EC1FF0554A562A56BE71EF1BF07C
:1036D000565009E1200E555CD8A071EF1BF073EF36
:1036E0001BF04BEF1BF0120079C053F07AC054F07E
:1036F000000E0001C66F000EC56F92EF1BF077C081
:1037000049F078C04AF0530E4B6E000E4C6E7BC0F1
:103710004DF07CC04EF095EC00F049500001C527FB
:103720004A50C62353C0F6FF54C0F7FFF86A08009A
:10373000F5500009D8A49FEF1BF0A1EF1BF07FEF1D
:103740001BF0C5C077F0C6C078F012000BC00FF0B8
:103750000CC010F009C011F00AC012F00F500D6E2D
:1037600010500E6E0F4A102A0DC0F6FF0EC0F7FF64
:10377000000EF86E11C0D9FF12C0DAFF114A122AEA
:103780000E0EF76403D00800F55005D0F6CFE9FF20
:10379000F7CFEAFFEF50DF6EDF50D8A4D2EF1BF077
:1037A000D4EF1BF0AEEF1BF01200056E0001FE51CE
:1037B000D8B4DDEF1BF0DFEF1BF0D6EF1BF00E01EE
:1037C000C5B9E5EF1BF0E7EF1BF0EBEF1BF005C011
:1037D0009AFF01EF1CF0C599740E0001DC25D96E2B
:1037E000DA6A010EDA2205C0DFFFDC2B0F0EDC6582
:1037F000FCEF1BF0FEEF1BF000EF1CF0000EDC6F87
:10380000FE070E01C58912009F0E0D6EFF0E0E6E93
:103810000BC00FF00CC010F00D500F260E501022F0
:1038200010500AE11A0E0F5CD8A019EF1CF01CEF23
:103830001CF0010E1DEF1CF0000E116E126A1150EB
:103840001210D8B426EF1CF028EF1CF02EEF1CF05D
:103850005F0E0B140B6E0C6A32EF1CF00BC00BF0FA
:103860000CC00CF01200056E0001FF51D8B43BEF04
:103870001CF03DEF1CF034EF1CF00E01C5BD43EF12
:103880001CF045EF1CF049EF1CF005C09AFE5FEFFD
:103890001CF0C59D840E0001E125D96EDA6A030E85
:1038A000DA2205C0DFFFE12B1F0EE1655AEF1CF0A5
:1038B0005CEF1CF05EEF1CF0000EE16FFF070E01E5
:1038C000C58D1200530E00017D6FF90E7E6F89C009
:1038D0007FF08AC080F08BC081F08CC082F073ECE6
:1038E0001FF0000E566E000E556E83EF1CF08951CE
:1038F0005524056E8A515620066EFF0E076ED2ECD7
:103900001DF0554A562A00018B51555C8C51565872
:10391000D8A08DEF1CF08FEF1CF077EF1CF0120099
:103920000001DE51D8B497EF1CF099EF1CF090EF36
:103930001CF0540EDF25D96EDA6A010EDA22DF5050
:10394000DD6F640EDF25D96EDA6A030EDA22DF50EE
:10395000056EDF2B1F0EDF65B0EF1CF0B2EF1CF021
:10396000B4EF1CF0000EDF6F0E01C59F0001DE07F3
:103970000E01C58F055012000001D951D8B4C3EF14
:103980001CF0C5EF1CF0BCEF1CF0000EDA25D96E60
:10399000DA6A030EDA22DF50D86F000EDA25D96E0C
:1039A000DA6A040EDA22DF50056EDA2B630EDA656E
:1039B000DCEF1CF0DEEF1CF0E0EF1CF0000EDA6F25
:1039C0000E01C59B0001D9070E01C58B05501200E1
:1039D000FF000000000000000000000000000000E8
:1039E00050413030363033303330302D0032FF002C
:1039F000000000000000000000004D617220323421
:103A00002032303231323134333635383730393292
:103A1000323A35353A3234286E756C6C2900FF0025
:103A200000000000010E0B6E200E05180610D8B421
:103A30001CEF1DF01EEF1DF037EF1DF0F70E076EA7
:103A4000FF0E086E05C009F006C00AF007500926EF
:103A500008500A220A5009E1050E095CD8A033EF8C
:103A60001DF035EF1DF037EF1DF0000E0B6E0BC093
:103A700005F0066A120005C007F006C008F043EF23
:103A80001DF0054A062A05C0F6FF06C0F7FF000E26
:103A9000F86E0E0EF76403D00800F55005D0F6CF8F
:103AA000E9FFF7CFEAFFEF500009D8A45AEF1DF065
:103AB0005CEF1DF041EF1DF00750055C056E0850EE
:103AC0000658066E1200000E066E000E056E000E01
:103AD000066E000E056E000E0524D96E020E06203D
:103AE000DA6EFF0EDF6E054A062A06BE81EF1DF074
:103AF000065009E1630E055CD8A081EF1DF083EF4D
:103B00001DF06BEF1DF0000E0001D46F000ED36F9F
:103B10001200000E076E000E066E000E076E000EFD
:103B2000066E9DEF1DF0000E0624D96E050E0720CF
:103B3000DA6EFF0EDF6E064A072A0001D151065CDD
:103B40000750800A056ED251800A0558D8A0ABEF05
:103B50001DF0ADEF1DF093EF1DF01200200E0001DF
:103B6000FF61B5EF1DF0B7EF1DF0CFEF1DF0840E34
:103B7000E025D96EDA6A030EDA22DF500E019A6F61
:103B80000001E02B1F0EE065C8EF1DF0CAEF1DF02D
:103B9000CCEF1DF0000EE06FFF2BD1EF1DF00E01FA
:103BA000C59D1200000EF2BE010E086E0650030BFA
:103BB0007F6E05C07EFF07C080FF3F0E81168184A7
:103BC000F29E550E826EAA0E826E818281B2EBEF5A
:103BD0001DF0EDEF1DF0E6EF1DF0819408B002D06E
:103BE000F29E01D0F28E1200000E166E000E156EBF
:103BF00005EF1EF014C007F0086A12C009F013C0E8
:103C00000AF0BCEC19F0154A162A15501024D96E8A
:103C100016501120DA6EDF50146E1450D8A413EF32
:103C20001EF015EF1EF0FAEF1DF01200100E00014D
:103C3000FE611DEF1EF01FEF1EF035EF1EF0740E3B
:103C4000DB25D96EDA6A010EDA22DF509A6EDB2BA1
:103C50000F0EDB652EEF1EF030EF1EF032EF1EF080
:103C6000000EDB6FFE2B37EF1EF00E01C599120020
:103C7000000E066E000E056E000E066E000E056E3E
:103C8000A00E0524D96E020E0620DA6EFF0EDF6E3E
:103C9000054A062A06BE56EF1EF0065009E1200E20
:103CA000055CD8A056EF1EF058EF1EF040EF1EF056
:103CB00012000100020003000400050006000700D6
:103CC000080009000A000B000C000D000E000F0098
:103CD0001000110012001300140015001600170048
:103CE000180019001A001B001C001D001E001F00F8
:103CF000200020001F001E001D001C001B001A00D9
:103D00001900180017001600150014001300120007
:103D1000110010000F000E000D000C000B000A0037
:103D20000900080007000600050004000300020067
:103D3000010018BEA6EF1EF0185006E11704D8B017
:103D4000A4EF1EF0A6EF1EF0B4EF1EF017C019F09E
:103D500018C01AF0191E1A1E194A1A2A19C017F08B
:103D60001AC018F0B8EF1EF017C017F018C018F0FE
:103D700012009F0E076EFF0E086E200E0510096ED2
:103D8000000E06100A6E0750092608500A220A5033
:103D90000AE11A0E095CD8A0D0EF1EF0D3EF1EF096
:103DA000010ED4EF1EF0000E056E066A120000012F
:103DB000D751D8A4DEEF1EF0E0EF1EF0EAEF1EF0C0
:103DC000010ED76F690E7D6FFF0E7E6F73EC1FF0D3
:103DD000F2EF1EF0000ED76F580E7D6FFF0E7E6F54
:103DE00073EC1FF012009F0E076EFF0E086E05C0E9
:103DF00009F006C00AF00750092608500A220A50A6
:103E00000AE11A0E095CD8A008EF1FF00BEF1FF0B3
:103E1000010E0CEF1FF0000E056E066A1200BF0EB9
:103E2000076EFF0E086E05C009F006C00AF00750C5
:103E3000092608500A220A500AE11A0E095CD8A085
:103E400024EF1FF027EF1FF0010E28EF1FF0000EE8
:103E5000056E066A1200D00E076EFF0E086E05C0D2
:103E600009F006C00AF00750092608500A220A5035
:103E70000AE10A0E095CD8A040EF1FF043EF1FF0E3
:103E8000010E44EF1FF0000E056E066A1200640E6C
:103E90005A24D96EDA6A030EDA2299CEDFFF5A2A43
:103EA0001F0E5A6456EF1FF058EF1FF05AEF1FF025
:103EB000000E5A6E0001DE2B1200000E5924D96E3E
:103EC000DA6A040EDA2299CFDFFF592A630E5964A9
:103ED0006CEF1FF06EEF1FF070EF1FF0000E596EC9
:103EE0000001D92B12007F0E0001876F000E886F32
:103EF000000E776F000E786F7DC079F07EC07AF08B
:103F0000870E7B6F000E7C6F74EC1BF0120013C0E9
:103F100005F014C006F03BEC1DF005501324096EAB
:103F2000065014200A6E15C00BF016C00CF0A6EC5B
:103F30001BF0120005500702F3CF09F0F4CF0AF08E
:103F400005500802F3500A2606500702F3500A26CD
:103F500009C005F00AC006F01200000E0E01E16F64
:103F6000000EE26F000EE36F000EE46F000EE56FCF
:103F7000000EE66F120074EC20F0ADEC1FF007ECC1
:103F80001AF0E0EC1FF04EEC1AF08EEC1AF0120072
:103F90000001DE51D8A4CFEF1FF0D2EF1FF0010EC9
:103FA000D3EF1FF0000E12000650030B7F6E05C00A
:103FB0007EFF3F0E8116818000F000F080501200DD
:103FC000600E0E01D86F000EDA6F000EDC6F060E69
:103FD000DE6F000EDD6F12000001D951D8A4F3EF9F
:103FE0001FF0F6EF1FF0010EF7EF1FF0000E1200AA
:103FF0000001FE51D8A4FFEF1FF002EF20F0010EE8
:1040000003EF20F0000E12000001FF51D8A40BEFC7
:1040100020F00EEF20F0010E0FEF20F0000E120046
:104020000E019EB316EF20F019EF20F0010E1AEFEB
:1040300020F0000E12009EB220EF20F023EF20F0BF
:10404000010E24EF20F0000E12005A00FF00FFFFC7
:104050000800040005C0FCF006C0FDF0120005C019
:10406000FAF106C0FBF1120005C0F2F106C0F3F14F
:10407000120005C0F4F106C0F5F1120005C0F0F120
:1040800006C0F1F1120005C0F8F106C0F9F1120006
:1040900005C0F6F106C0F7F1120005C0ECF106C04C
:1040A000EDF1120005C0EEF106C0EFF1120005C0FF
:1040B000EAF106C0EBF11200066E065033EC1CF07C
:1040C00012000E019D999D89120086908396120020
:1040D00086808386120047EC1FF012009D989D8811
:1040E00012005DEC1FF01200F29A12001200120092
:10F8BE000020202020202041646420307830303019
:10F8CE003020746F20307830303331202D20333299
:10F8DE00782043697263756974205365742053747C
:10F8EE00617475732020286C6F7765722038626999
:10F8FE007473206F6E6C79290D0A0A002020202067
:10F90E0020204164642030783030303020746F20F5
:10F91E00307830303331202D2033327820436972E5
:10F92E006375697420476574205374617475732010
:10F93E00286C6F776572203862697473206F6E6CF5
:10F94E0079290D0A00436C656172696E6720454521
:10F95E0050524F4D2066726F6D2041646472657314
:10F96E00733A2030782530347820666F72206E75A9
:10F97E006D2062797465733A202569200D0A002086
:10F98E002020202020416464203078303630302012
:10F99E00746F20307830363032202D20337820416D
:10F9AE006E616C6F67756520496E70757473202D6E
:10F9BE00205749500D0A0A002020202020204164A3
:10F9CE00642030783035303020746F203078303508
:10F9DE003034202D20436F6D70696C652054696D35
:10F9EE0065202D20284153434949290D0A00436FB4
:10F9FE006D706C6574656420416464696E67207215
:10FA0E0078446174612042756666657220746F2059
:10FA1E004D6F6462757344617461204172726179D5
:10FA2E000D0A0A0020202030783130202D20577208
:10FA3E00697465204D756C7469706C6520526567CC
:10FA4E0069737465727320284D6178203332782083
:10FA5E003136626974290D0A0020202020202041B1
:10FA6E0064642030783034303020746F2030783039
:10FA7E00343035202D20436F6D70696C65204461E4
:10FA8E00746520284153434949290D0A002020203E
:10FA9E003F202D20496E6974616C69736520616E1B
:10FAAE006420646973706C61792063617264206490
:10FABE00657461696C730D0A00202020202020419E
:10FACE0064642030783031303020746F20307830DC
:10FADE00313038202D2050617274204E756D626564
:10FAEE00720D0A00436F6D70696C6564206F6E2035
:10FAFE0025732061742025732062792058433820A5
:10FB0E0076657273696F6E2025750D0A0A002020C6
:10FB1E002030783033202D2052656164204D756C75
:10FB2E007469706C6520313662697420526567693C
:10FB3E0073746572730D0A0020202020202041640A
:10FB4E00642030783033303020746F20307830338A
:10FB5E003034202D205265766973696F6E0D0A0060
:10FB6E000D0A44616E20616E642053616D2773200F
:10FB7E004D6F64627573204750494F204578706110
:10FB8E006E73696F6E0D0A000D0A456E74657220F4
:10FB9E006361726420257320286D617820256920A9
:10FBAE0063686172616374657273293A2000202064
:10FBBE002073657269616C202D205365742063611A
:10FBCE0072642073657269616C206E756D62657208
:10FBDE000D0A000D0A5265636569766564204D6FE6
:10FBEE00646275732043524320636865636B65647A
:10FBFE00206F75742E0D0A004D6F6462757320466A
:10FC0E00756E6374696F6E20436F646573205375F0
:10FC1E0070706F727465643A0D0A0A0063726348FD
:10FC2E006967683A20307825303278202063726315
:10FC3E004C6F773A2030782530327820200D0A002C
:10FC4E00496E6974616C69736174696F6E20436F7C
:10FC5E006D706C657465202D2052656164790D0A96
:10FC6E000A000D0A4D6F6462757320446174612041
:10FC7E004361707475726520436F6D706C65746549
:10FC8E003A0D0A0020202070617274202D205365D9
:10FC9E007420636172642070617274206E756D627F
:10FCAE0065720D0A000D0A456E74657265643A2020
:10FCBE002573200D0A20436F6E6669726D202059E0
:10FCCE007C4E3F3A2000202020726576202D205356
:10FCDE00657420636172642070617274206E756D3C
:10FCEE006265720D0A000D0A526563656976656478
:10FCFE00204D6F64627573204352432069732062F6
:10FD0E0061642E0D0A004D6F646275732052656733
:10FD1E006973746572204265666F726520557064F2
:10FD2E006174653A00202020202020416464203038
:10FD3E007830323030202D205265766973696F6EBF
:10FD4E000D0A0052657175657374656420416E61AC
:10FD5E006C6F67756520496E707574730D0A0A00B5
:10FD6E004D6F6444617461436E7420736974746979
:10FD7E006E672061742025690D0A0A004D6F64625A
:10FD8E00757320526573706F6E736520436F756E59
:10FD9E00742025693A0D0A00556E737570706F7276
:10FDAE007465642046756E6374696F6E20436F646C
:10FDBE00650D0A002020205265673A2025692044EF
:10FDCE006174613A20307825303478200D0A005263
:10FDDE0065717565737465642043697263756974C2
:10FDEE0020446174610D0A0A005265717565737461
:10FDFE00656420436F6D70696C652054696D650D87
:10FE0E000A0A0052657175657374656420436F6DDF
:10FE1E0070696C6520446174650D0A0A002020200B
:10FE2E00427974652025303269203A2030782530A9
:10FE3E003278200D0A005265717565737465642001
:10FE4E0053657269616C204E6F2E0D0A0A00536F56
:10FE5E006D657468696E6720696E20455355415211
:10FE6E005431200D0A002020204279746520256926
:10FE7E00203A20307825303278200D0A0043617206
:10FE8E006420416464726573732E2030783035209F
:10FE9E000D0A00436F6D6D616E6473205375707043
:10FEAE006F727465643A0D0A0052657175657374EC
:10FEBE0065642050617274204E6F2E0D0A0A005236
:10FECE006571756573746564205265766973696FC3
:10FEDE006E0D0A0A00436172642052657669736979
:10FEEE006F6E2E202573200D0A0046756E637469A1
:10FEFE006F6E20436F646520307831300D0A0043F9
:10FF0E006172642050617274204E6F2E2025732012
:10FF1E000D0A004361726420536572204E6F2E20CD
:10FF2E002573200D0A000D0A456E74657220436F0D
:10FF3E006D6D616E64203A20004E756D20436861D0
:10FF4E0072733A202569200D0A0044656275672098
:10FF5E0044697361626C65640D0A0044656275677D
:10FF6E0020456E61626C65640D0A005570646174A3
:10FF7E0065644D42343030200D0A00526561643A9A
:10FF8E0020307825303278200D0A00590D0A536141
:10FF9E0076696E672025730D0A00257320536176EE
:10FFAE0065642E200D0A004E6F74207361766564B1
:10FFBE000D0A004D6172203234203230323100325F
:10FFCE00323A35353A32340053657269616C0073DA
:10FFDE00657269616C006465627567005061727468
:10FFEE0000706172740052657600726576003F0093
:01FFFE000002
:020000040020DA
:10000000FF0FFF0FFF0FFF0FFF0FFF0FFF0FFF0F80
:020000040030CA
:0C000000ECFFFFFF9FFFFFFFFFFFFFFF73
:00000001FF
