:020000040000FA
:0400000093EF00F08A
:100008005B82FACF01F0FBCF02F0D9CF03F0DACF51
:1000180004F0F2AC12EF00F014EF00F089EF00F0FA
:100028000E01C5AD1AEF00F01CEF00F032EF00F042
:10003800CDAD21EF00F023EF00F032EF00F002D851
:1000480030EF00F00500FA6E0101AB51FD6EAC51C6
:10005800FE6EFF6AFA50120089EF00F0C5AF37EF65
:1000680000F039EF00F04FEF00F0CDAF3EEF00F0B9
:1000780040EF00F04FEF00F002D84DEF00F0050020
:10008800FA6E0101A951FD6EAA51FE6EFF6AFA507F
:10009800120089EF00F0C5A954EF00F056EF00F008
:1000A8006CEF00F0CDA95BEF00F05DEF00F06CEFB6
:1000B80000F002D86AEF00F00500FA6E0101A751BE
:1000C800FD6EA851FE6EFF6AFA50120089EF00F02B
:1000D800C5AB71EF00F073EF00F089EF00F0CDAB26
:1000E80078EF00F07AEF00F089EF00F002D887EFA0
:1000F80000F00500FA6E0101A551FD6EA651FE6ED5
:10010800FF6AFA50120089EF00F004C0DAFF03C05A
:10011800D9FF02C0FBFF01C0FAFF5B92110075EF27
:1001280023F0000E00019B6F000EAD6F000EAC6F48
:10013800910EAC25D96E020EAD21DA6E00C2DFFF3A
:10014800AC4BAD2B910EAC25D96E020EAD21DA6EFB
:1001580001C2DFFFAC4BAD2B02010551020D910E20
:100168000001AC25D96E020EAD21DA6EF3CFDFFFA8
:10017800AC4BAD2BFBEF05F0DB0E7D6FFC0E7E6FFD
:10018800FBEC2FF0020102510001906F8F6B02010E
:10019800055104C291F00001926B91C092F0916BED
:1001A8009127000E92238F5191279051922302019B
:1001B800035100019127000E9223FF0E9125FF0E97
:1001C8009221800BD8A4EBEF00F0EDEF00F029EFBF
:1001D80001F0FF0E8F6FFF0E906F020102510001B8
:1001E800926F916B0201055104C293F00001946B68
:1001F80093C094F0936B9327000E94239151932707
:10020800925194230201035100019327000E942375
:100218008F51932790519423FF0E956FFF0E966F81
:1002280020EEC0F0DECF97F0DDCF98F095519727FC
:10023800965198239351975D94519859D8B027EFC8
:1002480001F029EF01F071EF01F0FC0E7D6FF50E62
:100258007E6FFF0EC0257F6FFF0EC121806FFBEC04
:100268002FF01A0E00017D6FFC0E7E6F0201025105
:100278000001906F8F6B0201035100018F257F6F82
:100288000201000E00019021806F0201045100015B
:10029800926F916B0201035102C293F00001946BBB
:1002A80093C094F0936B9327000E94239151932756
:1002B800925194230201055100019327000E9423C3
:1002C800FF0E9325816FFF0E9421826FFBEC2FF0B8
:1002D800010E00019B6F2AEF06F060EC2EF02AEF6A
:1002E80006F0DB0E7D6FFD0E7E6FFBEC2FF0FF0E30
:1002F80000018F6FFF0E906F020102510001926F93
:10030800916B0201055104C293F00001946B93C0F4
:1003180094F0936B9327000E942391519327925155
:1003280094230201035100019327000E94238F5157
:1003380093279051942394BFA8EF01F09405D8A077
:10034800A8EF01F0AAEF01F0DBEF01F0FF0E8F6FCD
:10035800FF0E906F020102510001926F916B020132
:10036800055104C293F00001946B93C094F0936B11
:100378009327000E942391519327925194230201BD
:10038800035100019327000E94238F519327905116
:10039800942394BFD9EF01F0080E935D010E945990
:1003A800D8A0D9EF01F0DBEF01F02AEF06F0940EA8
:1003B8007D6FF50E7E6FFBEC2FF01A0E00017D6F3E
:1003C800FC0E7E6F020102510001906F8F6B0201DB
:1003D800035100018F257F6F0201000E000190215B
:1003E800806F020104510001926F916B0201035169
:1003F80002C293F00001946B93C094F0936B93271F
:10040800000E942391519327925194230201055190
:1004180000019327000E9423FF0E9325816FFF0E92
:100428009421826FFBEC2FF06CEF01F0050E7D6FCD
:10043800FE0E7E6FFBEC2FF0FF0E00018F6FFF0E9C
:10044800906F020102510001926F916B02010551F8
:1004580004C293F00001946B93C094F0936B9327BC
:10046800000E942391519327925194230201035132
:1004780000019327000E94238F51932790519423C2
:1004880094BF4EEF02F0020E945DD8A04EEF02F03A
:1004980050EF02F080EF02F0FF0E8F6FFF0E906FAB
:1004A800020102510001926F916B0201055104C2D1
:1004B80093F00001946B93C094F0936B9327000E14
:1004C80094239151932792519423020103510001DF
:1004D8009327000E94238F5193279051942394BF10
:1004E8007EEF02F09305020E9459D8A07EEF02F039
:1004F80080EF02F02AEF06F04B0E7D6FF80E7E6F4C
:10050800FBEC2FF01A0E00017D6FFC0E7E6F0201CE
:1005180002510001906F8F6B0201035100018F257A
:100528007F6F0201000E00019021806F02010451CB
:100538000001926F916B0201035102C293F0000116
:10054800946B93C094F0936B9327000E942391516E
:100558009327925194230201055100019327000E1D
:100568009423FF0E9325816FFF0E9421826FFBEC7D
:100578002FF06CEF01F06E0E7D6FFD0E7E6FFBECC1
:100588002FF0FF0E00018F6FFF0E906F02010251D6
:100598000001926F916B0201055104C293F00001B2
:1005A800946B93C094F0936B9327000E942391510E
:1005B8009327925194230201035100019327000EBF
:1005C80094238F5193279051942394BFF3EF02F013
:1005D800030E945DD8A0F3EF02F0F5EF02F026EFDA
:1005E80003F0FF0E8F6FFF0E906F020102510001A2
:1005F800926F916B0201055104C293F00001946B54
:1006080093C094F0936B9327000E942391519327F2
:10061800925194230201035100019327000E942361
:100628008F5193279051942394BF24EF03F0050E24
:10063800935D030E9459D8A024EF03F026EF03F03E
:100648002AEF06F0F80E7D6FF40E7E6FFBEC2FF0AC
:100658001A0E00017D6FFC0E7E6F0201025100012F
:10066800906F8F6B0201035100018F257F6F02018C
:10067800000E00019021806F020104510001926F69
:10068800916B0201035102C293F00001946B93C075
:1006980094F0936B9327000E9423915193279251D2
:1006A80094230201055100019327000E9423FF0EA5
:1006B8009325816FFF0E9421826FFBEC2FF06CEF76
:1006C80001F00D0E7D6FFD0E7E6FFBEC2FF0FF0E1F
:1006D80000018F6FFF0E906F020102510001926FAF
:1006E800916B0201055104C293F00001946B93C011
:1006F80094F0936B9327000E942391519327925172
:1007080094230201035100019327000E94238F5173
:1007180093279051942394BF99EF03F0040E945DAE
:10072800D8A099EF03F09BEF03F0CCEF03F0FF0E96
:100738008F6FFF0E906F020102510001926F916B53
:100748000201055104C293F00001946B93C094F028
:10075800936B9327000E94239151932792519423DE
:100768000201035100019327000E94238F51932710
:100778009051942394BFCAEF03F0060E935D040EC4
:100788009459D8A0CAEF03F0CCEF03F02AEF06F093
:10079800600E7D6FF50E7E6FFBEC2FF01A0E0001D8
:1007A8007D6FFC0E7E6F020102510001906F8F6B0E
:1007B8000201035100018F257F6F0201000E000125
:1007C8009021806F020104510001926F916B020128
:1007D800035102C293F00001946B93C094F0936BA1
:1007E8009327000E94239151932792519423020149
:1007F800055100019327000E9423FF0E9325816F66
:10080800FF0E9421826FFBEC2FF06CEF01F0F40ED9
:100818007D6FFC0E7E6FFBEC2FF0FF0E00018F6FDB
:10082800FF0E906F020102510001926F916B02015D
:10083800055104C293F00001946B93C094F0936B3C
:100848009327000E942391519327925194230201E8
:10085800035100019327000E94238F519327905141
:10086800942394BF3FEF04F0050E945DD8A03FEFAA
:1008780004F041EF04F072EF04F0FF0E8F6FFF0EEB
:10088800906F020102510001926F916B02010551B4
:1008980004C293F00001946B93C094F0936B932778
:1008A800000E9423915193279251942302010351EE
:1008B80000019327000E94238F519327905194237E
:1008C80094BF70EF04F0040E935D050E9459D8A000
:1008D80070EF04F072EF04F02AEF06F0900E7D6FCF
:1008E800F40E7E6FFBEC2FF01A0E00017D6FFC0EEC
:1008F8007E6F020102510001906F8F6B020103515C
:1009080000018F257F6F0201000E00019021806F8A
:10091800020104510001926F916B0201035102C25E
:1009280093F00001946B93C094F0936B9327000E9F
:100938009423915193279251942302010551000168
:100948009325816F0201000E00019421826FFBEC58
:100958002FF06CEF01F0A20E7D6FFB0E7E6FFBECAB
:100968002FF0FF0E00018F6FFF0E906F02010251F2
:100978000001926F916B0201055104C293F00001CE
:10098800946B93C094F0936B9327000E942391512A
:100998009327925194230201035100019327000EDB
:1009A80094238F5193279051942394BFE3EF04F03D
:1009B800060E945DD8A0E3EF04F0E5EF04F016EF1F
:1009C80005F0FF0E8F6FFF0E906F020102510001BC
:1009D800926F916B0201055104C293F00001946B70
:1009E80093C094F0936B9327000E9423915193270F
:1009F800925194230201035100019327000E94237E
:100A08008F5193279051942394BF14EF05F0040E4F
:100A1800935D060E9459D8A014EF05F016EF05F073
:100A28002AEF06F0C40E7D6FF40E7E6FFBEC2FF0FC
:100A38001A0E00017D6FFC0E7E6F0201025100014B
:100A4800906F8F6B0201035100018F257F6F0201A8
:100A5800000E00019021806F020104510001926F85
:100A6800916B0201035102C293F00001946B93C091
:100A780094F0936B9327000E9423915193279251EE
:100A880094230201055100019327000E9423FF0EC1
:100A98009325816FFF0E9421826FFBEC2FF06CEF92
:100AA80001F0550E7D6FFC0E7E6FFBEC2FF0FF0EF4
:100AB80000018F6FFF0E906F020102510001926FCB
:100AC800916B0201055104C293F00001946B93C02D
:100AD80094F0936B9327000E94239151932792518E
:100AE80094230201035100019327000E94238F5190
:100AF80093279051942394BF89EF05F0070E945DD6
:100B0800D8A089EF05F08BEF05F0BCEF05F0FF0EDC
:100B18008F6FFF0E906F020102510001926F916B6F
:100B28000201055104C293F00001946B93C094F044
:100B3800936B9327000E94239151932792519423FA
:100B48000201035100019327000E94238F5193272C
:100B58009051942394BFBAEF05F0050E935D070EEC
:100B68009459D8A0BAEF05F0BCEF05F02AEF06F0CB
:100B78002C0E7D6FF50E7E6FFBEC2FF01A0E000128
:100B88007D6FFC0E7E6F020102510001906F8F6B2A
:100B98000201035100018F257F6F0201000E000141
:100BA8009021806F020104510001926F916B020144
:100BB800035102C293F00001946B93C094F0936BBD
:100BC8009327000E94239151932792519423020165
:100BD800055100019327000E9423FF0E9325816F82
:100BE800FF0E9421826FFBEC2FF06CEF01F00201F5
:100BF800025100018F6F906B9051000AD8B407EF33
:100C080006F02AEF06F08F51000AD8B4C0EF00F0C2
:100C1800010AD8B475EF01F0030AD8B41AEF02F04C
:100C2800010AD8B4BFEF02F0070AD8B465EF03F0A1
:100C3800010AD8B40BEF04F0030AD8B4AFEF04F0FC
:100C4800010AD8B455EF05F02AEF06F000019B51D0
:100C5800D8A431EF06F033EF06F05FEF08F0000E8E
:100C68009D6F000E9C6F09EF08F0030E0201021938
:100C7800D8A441EF06F043EF06F074EF06F00351F5
:100C880000019C258F6F000E9D21906FD8908F37A3
:100C98009037570E8F25D96E010E9021DA6EDECF70
:100CA80091F0DDCF92F09151C66FC76B02010351ED
:100CB80000019C258F6F000E9D21906FD8908F3773
:100CC8009037570E8F25D96E010E9021DA6EDECF40
:100CD80091F0DDCF92F09251AA6FAB6BF2EF07F073
:100CE8000205D8A47AEF06F07CEF06F0ADEF06F027
:100CF800035100019C258F6F000E9D21906FD890A5
:100D08008F379037640E8F25D96E020E9021DA6ED8
:100D1800DECF91F0DDCF92F09151C66FC76B020123
:100D2800035100019C258F6F000E9D21906FD89074
:100D38008F379037640E8F25D96E020E9021DA6EA8
:100D4800DECF91F0DDCF92F09251AA6FAB6BF2EF4C
:100D580007F0020E0219D8A4B4EF06F0B6EF06F0B9
:100D6800E7EF06F0035100019C258F6F000E9D21CF
:100D7800906FD8908F379037C80E8F25D96E000E98
:100D88009021DA6EDECF91F0DDCF92F09151C66FEF
:100D9800C76B0201035100019C258F6F000E9D2136
:100DA800906FD8908F379037C80E8F25D96E000E68
:100DB8009021DA6EDECF91F0DDCF92F09251AA6FDA
:100DC800AB6BF2EF07F0040E0219D8A4EEEF06F0B1
:100DD800F0EF06F021EF07F0035100019C258F6F1B
:100DE800000E9D21906FD8908F3790374B0E8F252E
:100DF800D96E010E9021DA6EDECF91F0DDCF92F040
:100E08009151C66FC76B0201035100019C258F6F7A
:100E1800000E9D21906FD8908F3790374B0E8F25FD
:100E2800D96E010E9021DA6EDECF91F0DDCF92F00F
:100E38009251AA6FAB6BF2EF07F0050E0219D8A416
:100E480028EF07F02AEF07F05BEF07F003510001E6
:100E58009C258F6F000E9D21906FD8908F3790370B
:100E6800610E8F25D96E010E9021DA6EDECF91F0DA
:100E7800DDCF92F09151C66FC76B0201035100019B
:100E88009C258F6F000E9D21906FD8908F379037DB
:100E9800610E8F25D96E010E9021DA6EDECF91F0AA
:100EA800DDCF92F09251AA6FAB6BF2EF07F00251CF
:100EB800D8A461EF07F063EF07F094EF07F0035150
:100EC80000019C258F6F000E9D21906FD8908F3761
:100ED8009037000E8F25D96E030E9021DA6EDECF83
:100EE80091F0DDCF92F09151C66FC76B02010351AB
:100EF80000019C258F6F000E9D21906FD8908F3731
:100F08009037000E8F25D96E030E9021DA6EDECF52
:100F180091F0DDCF92F09251AA6FAB6BF2EF07F030
:100F2800060E0219D8A49BEF07F09DEF07F0CEEF4D
:100F380007F0035100019C258F6F000E9D21906FD3
:100F4800D8908F379037BE0E8F25D96E000E90211E
:100F5800DA6EDECF91F0DDCF92F09151C66FC76B9C
:100F68000201035100019C258F6F000E9D21906F97
:100F7800D8908F379037BE0E8F25D96E000E9021EE
:100F8800DA6EDECF91F0DDCF92F09251AA6FAB6BA3
:100F9800F2EF07F0070E0219D8A4D5EF07F0D7EF44
:100FA80007F0F2EF07F0000E8DEC2FF005C099F076
:100FB80006C09AF0050E00017D6FFF0E7E6F99C086
:100FC8007FF09AC080F0FBEC2FF000019951C66FBA
:100FD800C76B9A51AA6FAB6BF2EF07F0910E000145
:100FE800AC25D96E020EAD21DA6EAAC0DFFFAC4B7C
:100FF800AD2B910EAC25D96E020EAD21DA6EC6C0AE
:10100800DFFFAC4BAD2B9C4B9D2B02010551000122
:101018008F6F906B8F519C5D9D51800A916F90519D
:10102800800A9159D8A01BEF08F01DEF08F039EF9E
:1010380006F0ACC005F0ADC006F0010E076EC1ECBD
:1010480025F005C0AAF006C0ABF0ACC005F0ADC0F5
:1010580006F0000E076EC1EC25F005C0C6F006C00C
:10106800C7F0910E0001AC25D96E020EAD21DA6EE3
:10107800AAC0DFFF920EAC25D96E020EAD21DA6E42
:10108800C6C0DFFF020EAC25AC6F000EAD21AD6F00
:10109800910E066E020E076EACC008F0ADC009F0E6
:1010A800D1EC2AF0C20E00017D6FFC0E7E6FFBECC6
:1010B8002FF06CEF08F0000E156E020E146EBCECEB
:1010C80027F0C60E00017D6FFD0E7E6FFBEC2FF042
:1010D80012004BC0D9FF4CC0DAFFDECFF6FFDDCFE0
:1010E800F7FFF86A0800F550250AD8A47EEF08F043
:1010F80080EF08F015EF0BF04BC0D9FF4CC0DAFFBA
:10110800DE2A000EDD22000E0001A76F000EA66F7A
:10111800A6C057F0A7C058F0A869A969000E6C6F5F
:10112800000E6B6FDFEF08F057804BC0D9FF4CC043
:10113800DAFFDE2A000EDD22DFEF08F0578299EF92
:1011480008F0578499EF08F0578699EF08F0578808
:1011580099EF08F0000E6C6F010E6B6FDFEF08F06F
:101168004BC0D9FF4CC0DAFFDECFF6FFDDCFF7FF6B
:10117800F86A0800F5504F6E506A5050000AD8B40B
:10118800C8EF08F0AEEF08F04F50200AD8B4A8EF27
:1011980008F0030AD8B4ABEF08F0080AD8B4A5EFF2
:1011A80008F0060AD8B498EF08F01D0AD8B4A2EFE0
:1011B80008F0AEEF08F06B516C11D8B4E6EF08F008
:1011C800E8EF08F0B4EF08F057A0EDEF08F0EFEF04
:1011D80008F0F0EF08F057924BC0D9FF4CC0DAFF87
:1011E800DECFF6FFDDCFF7FFF86A0800F5502A0AD0
:1011F800D8A401EF09F003EF09F02CEF09F04BC078
:10120800D9FF4CC0DAFFDE2A000EDD224DC0D9FF1F
:101218004EC0DAFFDFCF4FF0020EDE26DFCF50F0F0
:10122800000EDD224FC0D9FF50C0DAFFDECFA6F096
:10123800DDCFA7F0A7BF25EF09F023EF09F071EF85
:1012480009F05780A66DA71FD8B0A72B71EF09F03A
:101258004BC0D9FF4CC0DAFFDECF0CF0DDCF0DF06C
:1012680082EC1DF00CC0A6F00DC0A7F043EF09F00A
:101278004BC0D9FF4CC0DAFFDE2A000EDD22D00EAB
:101288004F6EFF0E506E4BC0D9FF4CC0DAFFDECF59
:10129800F6FFDDCFF7FFF86A0800F550516E526A85
:1012A8004F5051265050522252500AE10A0E515CBA
:1012B800D8A061EF09F064EF09F0010E65EF09F0BD
:1012C800000E00016D6F6E6B6D516E11D8A46FEF3B
:1012D80009F071EF09F03CEF09F04BC0D9FF4CC0A1
:1012E800DAFFDECFF6FFDDCFF7FFF86A0800F5502A
:1012F800640AD8B482EF09F084EF09F097EF09F097
:101308004BC0D9FF4CC0DAFFDECFF6FFDDCFF7FFC9
:10131800F86A0800F550690AD8A495EF09F097EF24
:1013280009F0D7EF09F04BC0D9FF4CC0DAFFDE2A2D
:10133800000EDD224DC0D9FF4EC0DAFFDFCF4FF0DF
:10134800020EDE26DFCF50F0000EDD224FC0D9FF9F
:1013580050C0DAFFDECF60F0DDCF61F0000E61BF74
:10136800FF0E626F636F646F656F666F676F49C06A
:1013780022F04AC023F060C024F061C025F062C0AA
:1013880026F063C027F064C028F065C029F066C065
:101398002AF067C02BF03AEC18F022C049F023C0BD
:1013A8004AF031EF0BF04BC0D9FF4CC0DAFFDECF6B
:1013B800F6FFDDCFF7FFF86A0800F550730AD8A4E6
:1013C800E8EF09F0EAEF09F015EF0AF04BC0D9FF92
:1013D8004CC0DAFFDE2A000EDD224DC0D9FF4EC018
:1013E800DAFFDFCF4FF0020EDE26DFCF50F0000E1F
:1013F800DD224FC0D9FF50C0DAFFDECF68F0DDCF65
:1014080069F049C010F04AC011F068C012F069C014
:1014180013F05AEC1FF010C049F011C04AF031EF38
:101428000BF04BC0D9FF4CC0DAFFDECFF6FFDDCFA3
:10143800F7FFF86A0800F550750AD8A426EF0AF0F5
:1014480028EF0AF069EF0AF04BC0D9FF4CC0DAFF69
:10145800DE2A000EDD224DC0D9FF4EC0DAFFDFCFF5
:101468004FF0020EDE26DFCF50F0000EDD224FC017
:10147800D9FF50C0DAFFDECF51F0DDCF52F051C0B6
:101488006FF052C070F0716B726B736B746B756B2D
:10149800766B49C022F04AC023F06FC024F070C0B8
:1014A80025F071C026F072C027F073C028F074C010
:1014B80029F075C02AF076C02BF081EC1CF022C010
:1014C80049F023C04AF031EF0BF04BC0D9FF4CC0B4
:1014D800DAFFDECFF6FFDDCFF7FFF86A0800F55038
:1014E800780AD8B47AEF0AF07CEF0AF08FEF0AF0A6
:1014F8004BC0D9FF4CC0DAFFDECFF6FFDDCFF7FFD8
:10150800F86A0800F550580AD8A48DEF0AF08FEF52
:101518000AF0DEEF0AF04BC0D9FF4CC0DAFFDECF8D
:10152800F6FFDDCFF7FFF86A0800F5CF6AF04BC089
:10153800D9FF4CC0DAFFDE2A000EDD224DC0D9FFEC
:101548004EC0DAFFDFCF4FF0020EDE26DFCF50F0BD
:10155800000EDD224FC0D9FF50C0DAFFDECF51F0B8
:10156800DDCF52F051C06FF052C070F0716B726BEA
:10157800736B746B756B766B49C022F04AC023F0AD
:101588006FC024F070C025F071C026F072C027F03B
:1015980073C028F074C029F075C02AF076C02BF00B
:1015A8006AC02CF016EC1BF022C049F023C04AF0A8
:1015B80031EF0BF04BC0D9FF4CC0DAFFDECFF6FF9E
:1015C800DDCFF7FFF86A0800F550250AD8A4EFEF39
:1015D8000AF0F1EF0AF008EF0BF04BC0D9FF4CC04E
:1015E800DAFFDE2A000EDD22000E086E250E076ED9
:1015F80049C009F04AC00AF086EC29F0000E4A6E8C
:10160800010E496E31EF0BF04BC0D9FF4CC0DAFF29
:10161800DE2A000EDD22000E4A6E000E496E31EF02
:101628000BF04BC0D9FF4CC0DAFFDECFF6FFDDCFA1
:10163800F7FFF86A0800F550076E086A49C009F014
:101648004AC00AF086EC29F04BC0D9FF4CC0DAFF3B
:10165800DE2A000EDD2202EF0BF0120001013D6FC1
:1016680021EE26F00A0EDE6AE806FDE2A60E0B6EF3
:10167800FF0E0C6E260E0D6E010E0E6E010E106E14
:10168800200E0F6E000E126E050E116EAAEC19F0E8
:1016980021EE00F0120EDE6AE806FDE2EA0E0B6E9D
:1016A800FF0E0C6E000E0D6E010E0E6E010E106E0A
:1016B800000E0F6E000E126E080E116EAAEC19F0D5
:1016C800000E0101406F000E416F000E426FF40ED4
:1016D8000B6EFF0E0C6E400E0D6E010E0E6E010E9F
:1016E800106E100E0F6E000E126E010E116EAAEC27
:1016F80019F0000E0101316F000E326F000E336FCA
:10170800C00E0B6EFF0E0C6E310E0D6E010E0E6EBE
:10171800010E106E300E0F6E000E126E010E116E5D
:10172800AAEC19F0000E0101346F000E356F000E9F
:10173800366FC60E0B6EFF0E0C6E340E0D6E010E5C
:101748000E6E010E106E320E0F6E000E126E010E2E
:10175800116EAAEC19F0000E0101376F000E386FF8
:10176800000E396FCC0E0B6EFF0E0C6E370E0D6E21
:10177800010E0E6E010E106E340E0F6E000E126EFC
:10178800010E116EAAEC19F0000E01013A6F000E5D
:101798003B6F000E3C6FD20E0B6EFF0E0C6E3A0EB6
:1017A8000D6E010E0E6E010E106E360E0F6E000ECF
:1017B800126E010E116EAAEC19F0750E00017D6F04
:1017C800F80E7E6FFBEC2FF0540E00017D6FFE0EBD
:1017D8007E6F260E7F6F010E806FFBEC2FF01A0EC6
:1017E80000017D6FFE0E7E6F000E7F6F010E806F11
:1017F800FBEC2FF0B10E00017D6FFD0E7E6F400EE9
:101808007F6F010E806FFBEC2FF0850E00017D6F5E
:10181800FD0E7E6FFBEC2FF0F70E00017D6FF70ECB
:101828007E6F2D0E7F6FFF0E806F650E816FFF0E2E
:10183800826F080E846F340E836FFBEC2FF02E0E30
:1018480000017D6FFE0E7E6FBEC07FF0BFC080F0CE
:10185800FBEC2FF0D50E00017D6FFE0E7E6FC2C02F
:101868007FF0C3C080F0FBEC2FF0410E00017D6FCC
:10187800FE0E7E6FC0C07FF0C1C080F0FBEC2FF081
:10188800A00E00017D6FFE0E7E6FC4C07FF0C5C044
:1018980080F0FBEC2FF0000E0101466F000E456F43
:1018A80022EE74F011EE13F00A0EDBCFE3FFE80628
:1018B800FCE2000E486F000E476F130E4725D96EE5
:1018C800010E4821DA6EDF50436F010E4725556E31
:1018D800000E4821566E130E5524D96E010E56205F
:1018E800DA6EDF50446F445143C155F0566A55C013
:1018F80056F0556A5526000E5622D8904535D96EB1
:101908004635DA6E4B0ED926010EDA2255C0DEFFB7
:1019180056C0DDFF454B462B020E4725476F000E8C
:101928004821486F48BFA2EF0CF0485109E10C0E5E
:10193800475DD8A0A2EF0CF0A4EF0CF061EF0CF01B
:10194800000E466F000E456F22EE89F011EE1EF074
:10195800070EDBCFE3FFE806FCE2000E4A6F000E3D
:10196800496F1E0E4925D96E010E4A21DA6EDF50E5
:10197800436F010E4925556E000E4A21566E1E0E04
:101988005524D96E010E5620DA6EDF50446F44514B
:1019980043C155F0566A55C056F0556A5526000E93
:1019A8005622D8904535D96E4635DA6E610ED9265D
:1019B800010EDA2255C0DEFF56C0DDFF454B462B2F
:1019C800020E4925496F000E4A214A6F4ABFF6EFB9
:1019D8000CF04A5109E1080E495DD8A0F6EF0CF069
:1019E800F8EF0CF0B5EF0CF03D05D8B4FEEF0CF0B5
:1019F80000EF0DF0E4EF0DF0F00E00017D6FF90E31
:101A08007E6FFBEC2FF0210E00017D6FF80E7E6FCC
:101A1800FBEC2FF0F70E00017D6FEF0E7E6FFBECF5
:101A28002FF0300E00017D6FF60E7E6FFBEC2FF06D
:101A38009D0E00017D6FF80E7E6FFBEC2FF0550EAA
:101A480000017D6FF30E7E6FFBEC2FF0F40E0001AA
:101A58007D6FF30E7E6FFBEC2FF0B30E00017D6FF0
:101A6800F20E7E6FFBEC2FF0CE0E00017D6FF10EB3
:101A78007E6FFBEC2FF0080E00017D6FF20E7E6F7B
:101A8800FBEC2FF04E0E00017D6FF10E7E6FFBEC2C
:101A98002FF08E0E00017D6FF10E7E6FFBEC2FF0A4
:101AA800400E00017D6FF00E7E6FFBEC2FF0850E6F
:101AB80000017D6FF00E7E6FFBEC2FF0AC0E000185
:101AC8007D6FEF0E7E6FFBEC2FF0C90E00017D6F6E
:101AD800F00E7E6FFBEC2FF0610E00017D6FEF0EB4
:101AE8007E6FFBEC2FF09B0E00017D6FFD0E7E6F6D
:101AF800FBEC2FF09F0E00017D6FF70E7E6FFBEC65
:101B08002FF0810E00017D6FF90E7E6FFBEC2FF038
:101B18009F0E00017D6FFA0E7E6FFBEC2FF0230EF7
:101B280000017D6FFB0E7E6FFBEC2FF0EF0E0001C6
:101B38007D6FF60E7E6FFBEC2FF0470E00017D6F78
:101B4800F70E7E6FFBEC2FF01B0E00017D6FF70E7A
:101B58007E6FFBEC2FF0730E00017D6FF70E7E6F2A
:101B6800FBEC2FF0280E00017D6FF40E7E6FFBEC6E
:101B78002FF0630E00017D6FF60E7E6FFBEC2FF0E9
:101B8800FB0E00017D6FEE0E7E6FFBEC2FF0000E5A
:101B98008DEC2FF005C03EF106C03FF1C40E0001E8
:101BA8007D6FFE0E7E6F3EC17FF03FC180F0FBEC83
:101BB8002FF05B0E00017D6FFA0E7E6FFBEC2FF0AD
:101BC8001200890E056E010E066ED80E076EFF0E06
:101BD800086E70EC24F005500610D8A4F6EF0DF04E
:101BE800F8EF0DF0FDEF0DF01DEC2FF0010E22EFD8
:101BF80010F0890E056E010E066EFC0E076EFF0EC4
:101C0800086E70EC24F005500610D8A40EEF0EF004
:101C180010EF0EF015EF0EF0000E32EC0BF0FAEFAD
:101C28000DF0890E056E010E066EAD0E076EFF0EE5
:101C3800086E70EC24F005500610D8A426EF0EF0BC
:101C480028EF0EF049EF0EF023EEA4F016EE00F0A8
:101C5800130EDBCFE3FFE806FCE2000E0001956FF0
:101C6800060E966F030E986F000E976F010E9A6F0F
:101C7800200E996F000E9C6F0A0E9B6F08EC12F0F5
:101C8800010E32EC0BF0FAEF0DF0890E056E010E25
:101C9800066EEF0E076EFF0E086E70EC24F005500E
:101CA8000610D8A45AEF0EF05CEF0EF07DEF0EF0A0
:101CB80023EE90F016EE14F0130EDBCFE3FFE806E8
:101CC800FCE2140E0001956F060E966F010E986FD8
:101CD800000E976F010E9A6F000E996F000E9C6FA1
:101CE800100E9B6F08EC12F0010E32EC0BF0FAEFBD
:101CF8000DF0890E056E010E066EF80E076EFF0ECA
:101D0800086E70EC24F005500610D8A48EEF0EF083
:101D180090EF0EF0B1EF0EF023EE7CF016EE28F007
:101D2800130EDBCFE3FFE806FCE2280E0001956FF7
:101D3800060E966F020E986F000E976F010E9A6F3F
:101D4800100E996F000E9C6F020E9B6F08EC12F03C
:101D5800010E32EC0BF0FAEF0DF0890E056E010E54
:101D6800066E7C0E076EFF0E086E70EC24F00550B0
:101D78000610D8B4C2EF0EF0C4EF0EF0D7EF0EF095
:101D8800890E056E010E066E980E076EFF0E086E20
:101D980070EC24F005500610D8A4D5EF0EF0D7EF5C
:101DA8000EF0F8EF0EF023EE68F016EE3CF0130E8E
:101DB800DBCFE3FFE806FCE23C0E0001956F060E60
:101DC800966F060E986F000E976F010E9A6F300E81
:101DD800996F000E9C6F020E9B6F08EC12F0010EBB
:101DE80032EC0BF0FAEF0DF0890E056E010E066E5F
:101DF800830E076EFF0E086E70EC24F00550061077
:101E0800D8B409EF0FF00BEF0FF01EEF0FF0890EAB
:101E1800056E010E066E9F0E076EFF0E086E70ECC3
:101E280024F005500610D8A41CEF0FF01EEF0FF099
:101E38003FEF0FF023EE54F016EE50F0130EDBCF09
:101E4800E3FFE806FCE2500E0001956F060E966F60
:101E5800060E986F010E976F010E9A6F320E996FEA
:101E6800000E9C6F020E9B6F08EC12F0010E32EC14
:101E78000BF0FAEF0DF0890E056E010E066E6E0E70
:101E8800076EFF0E086E70EC24F005500610D8B4EB
:101E980050EF0FF052EF0FF065EF0FF0890E056E5F
:101EA800010E066E8A0E076EFF0E086E70EC24F0A7
:101EB80005500610D8A463EF0FF065EF0FF086EF1A
:101EC8000FF023EE40F016EE64F0130EDBCFE3FFC5
:101ED800E806FCE2640E0001956F060E966F060E8A
:101EE800986F020E976F010E9A6F340E996F000E5D
:101EF8009C6F020E9B6F08EC12F0010E32EC0BF097
:101F0800FAEF0DF0890E056E010E066E750E076E5E
:101F1800FF0E086E70EC24F005500610D8B497EF49
:101F28000FF099EF0FF0ACEF0FF0890E056E010E70
:101F3800066E910E076EFF0E086E70EC24F00550C9
:101F48000610D8A4AAEF0FF0ACEF0FF0CDEF0FF00A
:101F580024EE40F016EE78F0130EDBCFE3FFE80630
:101F6800FCE2780E0001956F060E966F060E986FCC
:101F7800030E976F010E9A6F360E996F000E9C6FC5
:101F8800020E9B6F08EC12F0010E32EC0BF0FAEF28
:101F98000DF0890E056E010E066EB40E076EFF0E6B
:101FA800086E70EC24F005500610D8B4DEEF0FF080
:101FB800E0EF0FF0F3EF0FF0890E056E010E066EDD
:101FC800DE0E076EFF0E086E70EC24F0055006104A
:101FD800D8A4F1EF0FF0F3EF0FF0F7EF0FF06FEC7D
:101FE8002BF0FAEF0DF0890E056E010E066EBA0E93
:101FF800076EFF0E086E70EC24F005500610D8B47A
:1020080008EF10F00AEF10F01DEF10F0890E056EC2
:10201800010E066EE40E076EFF0E086E70EC24F0DB
:1020280005500610D8A41BEF10F01DEF10F021EF9B
:1020380010F03CEC2BF0FAEF0DF0000E1200000E41
:102048000001996F000EAD6F000EAC6F910EAC25BC
:10205800D96E020EAD21DA6E00C2DFFFAC4BAD2B9C
:10206800910EAC25D96E020EAD21DA6E01C2DFFFEA
:10207800AC4BAD2B02010551020D910E0001AC25B0
:10208800D96E020EAD21DA6EF3CFDFFFAC4BAD2B6C
:1020980034EF11F0020102510001906F8F6B0201C1
:1020A800055104C291F00001926B91C092F0916BBE
:1020B8009127000E92238F5191279051922302016C
:1020C800035100019127000E9223FF0E9125FF0E68
:1020D8009221800BD8A473EF10F075EF10F0AFEFDA
:1020E80010F0FF0E8F6FFF0E906F0201025100017A
:1020F800926F916B0201055104C293F00001946B39
:1021080093C094F0936B9327000E942391519327D7
:10211800925194230201035100019327000E942346
:102128008F51932790519423FF0E956FFF0E966F52
:10213800BEC097F0BFC098F0955197279651982345
:102148009351975D94519859D8B0ADEF10F0AFEF17
:1021580010F047EF11F0FC0E7D6FF50E7E6FFF0E4D
:10216800BE257F6FFF0EBF21806FFBEC2FF01A0E8C
:1021780000017D6FFC0E7E6F020102510001906F1D
:102188008F6B0201035100018F257F6F0201000E42
:1021980000019021806F020104510001926F916B40
:1021A8000201035102C293F00001946B93C094F0B2
:1021B800936B9327000E9423915193279251942364
:1021C8000201055100019327000E9423FF0E932569
:1021D800816FFF0E9421826FFBEC2FF0010E00013E
:1021E800996F47EF11F05C0E7D6FF40E7E6FFBEC7C
:1021F8002FF01A0E00017D6FFC0E7E6F0201025156
:102208000001906F8F6B0201035100018F257F6FD2
:102218000201000E00019021806F020104510001AB
:10222800926F916B0201035102C293F00001946B0B
:1022380093C094F0936B9327000E942391519327A6
:10224800925194230201055100019325816F0201E7
:10225800000E00019421826FFBEC2FF0F2EF10F0DA
:102268000201025100018F6F906B9051000AD8B49F
:1022780040EF11F0F7EF10F08F51000AD8B44EEF8D
:1022880010F0F7EF10F09951D8A44DEF11F04FEF7F
:1022980011F0FAEF11F0000E9B6F000E9A6FA4EF89
:1022A80011F002010251D8A45CEF11F05EEF11F0B9
:1022B8008DEF11F0035100019A258F6F000E9B21BD
:1022C800906FD8908F379037000E8F25D96E040EF7
:1022D8009021DA6EDECF91F0DDCF92F09151C66F8A
:1022E800C76B0201035100019A258F6F000E9B21D5
:1022F800906FD8908F379037000E8F25D96E040EC7
:102308009021DA6EDECF91F0DDCF92F09251AA6F74
:10231800AB6B910E0001AC25D96E020EAD21DA6EC1
:10232800AAC0DFFFAC4BAD2B910EAC25D96E020EC7
:10233800AD21DA6EC6C0DFFFAC4BAD2B9A4B9B2BA1
:102348000201055100018F6F906B8F519A5D9B516F
:10235800800A916F9051800A9159D8A0B6EF11F078
:10236800B8EF11F055EF11F0ACC005F0ADC006F0B4
:10237800010E076EC1EC25F005C0AAF006C0ABF04F
:10238800ACC005F0ADC006F0000E076EC1EC25F03C
:1023980005C0C6F006C0C7F0910E0001AC25D96E85
:1023A800020EAD21DA6EAAC0DFFF920EAC25D96EFF
:1023B800020EAD21DA6EC6C0DFFF020EAC25AC6F8F
:1023C800000EAD21AD6F910E066E020E076EACC009
:1023D80008F0ADC009F0D1EC2AF0C20E00017D6F03
:1023E800FC0E7E6FFBEC2FF007EF12F0000E156E5F
:1023F800020E146EBCEC27F0C60E00017D6FFD0EB8
:102408007E6FFBEC2FF0120099C0A1F09AC0A2F0E9
:10241800450E056EFF0E066E95C007F096C008F0D3
:1024280070EC24F005500610D8A41DEF12F01FEF31
:1024380012F028EF12F0C20E00017D6FF60E7E6FCB
:10244800FBEC2FF08BEF12F05B0E056EFF0E066EA5
:1024580095C007F096C008F070EC24F005500610FF
:10246800D8A439EF12F03BEF12F044EF12F03E0E11
:1024780000017D6FFD0E7E6FFBEC2FF08BEF12F0ED
:10248800390E056EFF0E066E95C007F096C008F06F
:1024980070EC24F005500610D8A455EF12F057EF51
:1024A80012F060EF12F0950E00017D6FF60E7E6F50
:1024B800FBEC2FF08BEF12F0510E056EFF0E066E3F
:1024C80095C007F096C008F070EC24F0055006108F
:1024D800D8A471EF12F073EF12F07CEF12F0260E11
:1024E80000017D6FFD0E7E6FFBEC2FF08BEF12F07D
:1024F800C30E00017D6FF80E7E6F95C07FF096C009
:1025080080F09BC081F09CC082F0FBEC2FF0890E1C
:10251800096E010E0A6EB10E0B6EFE0E0C6ED4EC37
:102528002BF09BC08FF09CC090F03FEC22F0000194
:102538008F519011D8B4A3EF12F0A5EF12F095EFD8
:1025480012F0C00E7D6FFA0E7E6F890E7F6F010E3E
:10255800806FFBEC2FF054EC30F00009D8B4B7EFE3
:1025680012F0B9EF12F0AFEF12F090EC2CF000017E
:10257800A36F790EA319D8B4C4EF12F0C6EF12F006
:10258800CFEF12F0590EA319D8A4CDEF12F0CFEF68
:1025980012F099EF13F0F60E7D6FFE0E7E6F95C068
:1025A8007FF096C080F0FBEC2FF099C009F09AC03C
:1025B8000AF09BC00BF09CC00CF0E1EC2EF0390E39
:1025C800056EFF0E066E95C007F096C008F070EC19
:1025D80024F005500610D8B4F4EF12F0F6EF12F01C
:1025E8002FEF13F0450E056EFF0E066E95C007F02F
:1025F80096C008F070EC24F005500610D8B407EF28
:1026080013F009EF13F02FEF13F0510E056EFF0EC4
:10261800066E95C007F096C008F070EC24F00550DF
:102628000610D8B41AEF13F01CEF13F02FEF13F0C5
:102638005B0E056EFF0E066E95C007F096C008F09B
:1026480070EC24F005500610D8A42DEF13F02FEFEE
:1026580013F04EEF13F0890E0C6E010E0D6E82EC26
:102668001DF00CC09DF00DC09EF0A1C005F0A2C0E9
:1026780006F0000E076EFAEC2DF00001A14BA22B1C
:10268800A1C005F0A2C006F09DC007F0FAEC2DF03D
:1026980082EF13F0000E0001A06F000E9F6F70EF25
:1026A80013F0A1C005F0A2C006F0890E9F25D96ECF
:1026B800010EA021DA6EDF50076EFAEC2DF0000152
:1026C800A14BA22BD00E556ECA0EE82EFED7552E62
:1026D800FCD700019F4BA02B890E056E010E066EDC
:1026E80063EC2DF0055000019F5D0650A059D8A05D
:1026F80080EF13F082EF13F055EF13F0140E000182
:102708007D6FFF0E7E6F95C07FF096C080F0FBEC6A
:102718002FF0890E096E010E0A6EB10E0B6EFE0EB9
:102728000C6ED4EC2BF0B1EF13F04E0EA319D8B405
:10273800A0EF13F0A2EF13F0ABEF13F06E0EA31996
:10274800D8A4A9EF13F0ABEF13F0B1EF13F0210EFB
:102758007D6FFF0E7E6FFBEC2FF01200000E000164
:102768009F6F000E9E6F000E9A6F000E996F000EFD
:102778009B6F020102510001906F8F6B020105519E
:1027880004C291F00001926B91C092F0916B912775
:10279800000E92238F5191279051922302010351E9
:1027A80000019127000E9223FF0E9125FF0E922122
:1027B800800BD8A4E2EF13F0E4EF13F01EEF14F04F
:1027C800FF0E8F6FFF0E906F020102510001926F92
:1027D800916B0201055104C293F00001946B93C000
:1027E80094F0936B9327000E942391519327925161
:1027F80094230201035100019327000E94238F5163
:10280800932790519423FF0E956FFF0E966FBEC0CD
:1028180097F0BFC098F095519727965198239351F8
:10282800975D94519859D8B01CEF14F01EEF14F02E
:1028380064EF14F0FC0E7D6FF50E7E6FFF0EBE2563
:102848007F6FFF0EBF21806FFBEC2FF01A0E000187
:102858007D6FFC0E7E6F020102510001906F8F6B3D
:102868000201035100018F257F6F0201000E000154
:102878009021806F020104510001926F916B020157
:10288800035102C293F00001946B93C094F0936BD0
:102898009327000E94239151932792519423020178
:1028A800055100019327000E9423FF0E9325816F95
:1028B800FF0E9421826FFBEC2FF0010E00019B6F3D
:1028C8009B51D8A46AEF14F06CEF14F03EEF15F0AA
:1028D800000EAD6F000EAC6F910EAC25D96E020ED6
:1028E800AD21DA6E00C2DFFFAC4BAD2B910EAC25EB
:1028F800D96E020EAD21DA6E01C2DFFFAC4BAD2BF3
:10290800910EAC25D96E020EAD21DA6E02C2DFFF40
:10291800AC4BAD2B910EAC25D96E020EAD21DA6E03
:1029280003C2DFFFAC4BAD2B910EAC25D96E020E66
:10293800AD21DA6E04C2DFFFAC4BAD2B910EAC2596
:10294800D96E020EAD21DA6E05C2DFFFAC4BAD2B9E
:10295800000E9D6F000E9C6FE8EF14F0080E9E2588
:10296800D96E020E9F21DA6EDF508F6F070E9E25FB
:10297800D96E020E9F21DA6EDF50906F9051926FE0
:10298800916B8F519125996F000E92219A6F020ECB
:102998009E259E6F000E9F219F6F0201035100012B
:1029A8009C258F6F000E9D21906FD8908F379037A0
:1029B800000E8F25D96E040E9021DA6E99C0DEFFC5
:1029C8009AC0DDFF9C4B9D2B0201055100018F6FC2
:1029D800906B8F519C5D9D51800A916F9051800A38
:1029E8009159D8A0FAEF14F0FCEF14F0B2EF14F0FC
:1029F800ACC005F0ADC006F0010E076EC1EC25F0C5
:102A080005C0AAF006C0ABF0ACC005F0ADC006F03A
:102A1800000E076EC1EC25F005C0C6F006C0C7F071
:102A2800910E0001AC25D96E020EAD21DA6EAAC056
:102A3800DFFF920EAC25D96E020EAD21DA6EC6C04C
:102A4800DFFF020EAC25AC6F000EAD21AD6F910E0D
:102A5800066E020E076EACC008F0ADC009F0D1ECEE
:102A68002AF0C20E00017D6FFC0E7E6FFBEC2FF08A
:102A78004BEF15F0000E156E020E146EBCEC27F02D
:102A8800C60E00017D6FFD0E7E6FFBEC2FF012006D
:102A98007A0E00017D6FFE0E7E6FFBEC2FF0030EA9
:102AA80002019219D8B45BEF15F05DEF15F066EFEF
:102AB80015F0040E9219D8A464EF15F066EF15F01E
:102AC80023EF16F0140E00017D6FFA0E7E6F91C28F
:102AD8007FF0806BFBEC2FF0E90E00017D6FF20EAA
:102AE8007E6F92C27FF0806BFBEC2FF0E90E000145
:102AF8007D6FF80E7E6F93C27FF0806BFBEC2FF03A
:102B0800000E0001936F010E926F000E956F000E7C
:102B1800946FDEEF15F01F0E7D6FF30E7E6F010EC2
:102B280094257F6F000E9521806F940E9425D96EA1
:102B3800020E9521DA6EDF508F6F8F51816F826B95
:102B480092C083F093C084F002C285F0866B0201C4
:102B5800035100019225906F000E9321916FFF0E93
:102B68009025876FFF0E9121886FFBEC2FF00001F5
:102B7800944B952B380E7D6FFA0E7E6F010E9425BF
:102B88007F6F000E9521806F940E9425D96E020EEA
:102B98009521DA6EDF508F6F8F51816F826B92C0F3
:102BA80083F093C084F0FBEC2FF00001924B932B41
:102BB800944B952B0201935100018F6F906B8F51AD
:102BC800945D9551800A916F9051800A9159D8A0CF
:102BD800F0EF15F0F2EF15F08FEF15F0430E7D6F63
:102BE800FB0E7E6F010E94257F6F000E9521806F7E
:102BF800940E9425D96E020E9521DA6EDF508F6FF0
:102C08008F51816F826BFBEC2FF0630E00017D6F9B
:102C1800FB0E7E6F020E94257F6F000E9521806F4C
:102C2800950E9425D96E020E9521DA6EDF508F6FBE
:102C38008F51816F826BFBEC2FF0C1EF16F0100EF5
:102C48009219D8A42AEF16F02CEF16F07EEF16F0A2
:102C5800140E00017D6FFA0E7E6F91C27FF0806BBB
:102C6800FBEC2FF0E90E00017D6FF20E7E6F92C231
:102C78007FF0806BFBEC2FF0350E00017D6FF90EB5
:102C88007E6F93C27FF0806BFBEC2FF05B0E000130
:102C98007D6FF90E7E6F94C27FF0806BFBEC2FF096
:102CA800A60E00017D6FF90E7E6F95C27FF0806BD6
:102CB800FBEC2FF0CB0E00017D6FF90E7E6F96C2F4
:102CC8007FF0806BFBEC2FF0C00E00017D6FFB0ED8
:102CD8007E6F97C27FF0806BFBEC2FF0DE0E000159
:102CE8007D6FFB0E7E6F98C27FF0806BFBEC2FF040
:102CF800C1EF16F0000E0001956F000E946FB2EF51
:102D080016F078EC30F00009D8B48DEF16F08FEF9C
:102D180016F085EF16F0560E00017D6FFD0E7E6FE2
:102D280094C07FF095C080F0910E9425D96E020E64
:102D38009521DA6EDF508F6F8F51816F826BFBECBC
:102D48002FF09CEC30F00009D8B4ADEF16F0AFEFDF
:102D580016F0A5EF16F00001944B952BAC51945D3D
:102D68009551800A8F6FAD51800A8F59D8A0BFEF57
:102D780016F0C1EF16F085EF16F0AE0E00017D6F6C
:102D8800FE0E7E6FFBEC2FF01200F00E00017D6F3F
:102D9800FD0E7E6FFBEC2FF0030E02010119D8B473
:102DA800D8EF16F0DAEF16F0E3EF16F0040E01197B
:102DB800D8A4E1EF16F0E3EF16F035EF17F0140E94
:102DC80000017D6FFA0E7E6F00C27FF0806BFBEC16
:102DD8002FF0E90E00017D6FF20E7E6F01C27FF0C9
:102DE800806BFBEC2FF0350E00017D6FF90E7E6FC6
:102DF80002C27FF0806BFBEC2FF05B0E00017D6F51
:102E0800F90E7E6F03C27FF0806BFBEC2FF0A60EED
:102E180000017D6FF90E7E6F04C27FF0806BFBECC2
:102E28002FF0CB0E00017D6FF90E7E6F05C27FF08B
:102E3800806BFBEC2FF0C00E00017D6FFB0E7E6FE8
:102E480006C27FF0806BFBEC2FF0FC0E00017D6F5B
:102E5800FB0E7E6F07C27FF0806BFBEC2FF032EF2A
:102E680018F0100E0119D8A43CEF17F03EEF17F038
:102E780032EF18F0140E00017D6FFA0E7E6F00C25B
:102E88007FF0806BFBEC2FF07C0E00017D6FF20E63
:102E98007E6F01C27FF0806BFBEC2FF0350E0001D6
:102EA8007D6FF90E7E6F02C27FF0806BFBEC2FF016
:102EB8005B0E00017D6FF90E7E6F03C27FF0806BA1
:102EC800FBEC2FF0A60E00017D6FF90E7E6F04C299
:102ED8007FF0806BFBEC2FF0CB0E00017D6FF90EBD
:102EE8007E6F05C27FF0806BFBEC2FF00F0E0001A8
:102EF8007D6FF90E7E6F06C27FF0806BFBEC2FF0C2
:102F0800000E0001956F010E946F000E976F070E6B
:102F1800966FEAEF17F00C0E7D6FF10E7E6FFF0EC5
:102F280096257F6FFF0E9721806F000E9625D96E2C
:102F3800020E9721DA6EDF508F6F8F51816F826B8F
:102F480094C083F095C084F002C285F0866B0201BC
:102F5800035100019425906F000E9521916FFF0E8B
:102F68009025876FFF0E9121886F020103510001A0
:102F78009425926F000E9521936FFF0E9225896F0D
:102F8800FF0E93218A6FFBEC2FF00001964B972BD5
:102F9800380E7D6FFA0E7E6F96C07FF097C080F076
:102FA800000E9625D96E020E9721DA6EDF508F6FCC
:102FB8008F51816F826B94C083F095C084F0FBECD5
:102FC8002FF00001944B952B964B972BFE0E8F6F8D
:102FD800FF0E906FB0C091F0B1C092F08F51912761
:102FE800905192239151965D9751800A936F925117
:102FF800800A9359D8A003EF18F005EF18F08FEF67
:1030080017F0430E7D6FFB0E7E6F96C07FF097C062
:1030180080F0000E9625D96E020E9721DA6EDF50E9
:103028008F6F8F51816F826BFBEC2FF0630E000165
:103038007D6FFB0E7E6F010E96257F6F000E972128
:10304800806F010E9625D96E020E9721DA6EDF5039
:103058008F6F8F51816F826BFBEC2FF08B0E00010D
:103068007D6FF10E7E6FFBEC2FF0120024C03CF058
:1030780025C03DF026C03EF027C03FF028C040F0F4
:1030880029C041F02AC042F02BC043F043BE4FEFA5
:1030980018F052EF18F0010E53EF18F0000E3A6EC8
:1030A8003B6A3A503B10D8B45CEF18F05EEF18F06A
:1030B8006EEF18F0431E421E411E401E3F1E3E1E6C
:1030C8003D1E3C6C000E3D223E223F224022412202
:1030D800422243220001A9BF74EF18F076EF18F0DE
:1030E80077EF18F05792A9BF84EF18F0A95106E1BD
:1030F800A805D8B082EF18F084EF18F08AEF18F01E
:10310800000E376E010E366E8EEF18F0A8C036F03E
:10311800A9C037F0A6C038F0A7C039F03A503B1024
:10312800D8A499EF18F09BEF18F0A2EF18F057A465
:10313800A0EF18F0A2EF18F0A5EF18F03806D8A005
:103148003906000E456E1F0E446E000E0301F76F20
:103158002AEF19F04406D8A04506D80E4424D96EA3
:10316800030E4520DA6E3CC005F03DC006F03EC0B7
:1031780007F03FC008F040C009F041C00AF042C063
:103188000BF043C00CF00A0E0D6E000E0E6E000E12
:103198000F6E000E106E000E116E000E126E000EF5
:1031A800136E000E146EEBEC20F005C02CF006C078
:1031B8002DF007C02EF008C02FF009C030F00AC06B
:1031C80031F00BC032F00CC033F02CC017F02EC019
:1031D80018F0A2EC2EF01750300FDF6E3606D8A08C
:1031E80037063806D8A039063CC005F03DC006F0C1
:1031F8003EC007F03FC008F040C009F041C00AF0E7
:1032080042C00BF043C00CF00A0E0D6E000E0E6E9D
:10321800000E0F6E000E106E000E116E000E126E74
:10322800000E136E000E146E27EC20F005C03CF063
:1032380006C03DF007C03EF008C03FF009C040F0AE
:103248000AC041F00BC042F00CC043F045BE35EF58
:1032580019F0455008E14404D8A035EF19F037EFCC
:1032680019F067EF19F03C503D103E103F10401028
:10327800411042104310D8A444EF19F046EF19F05A
:10328800AEEF18F037BE53EF19F0375006E13604A9
:10329800D8B051EF19F053EF19F0AEEF18F039BE6E
:1032A8005EEF19F0395008E13804D8A05EEF19F044
:1032B80060EF19F067EF19F057B265EF19F067EF93
:1032C80019F0AEEF18F03A503B10D8A46EEF19F091
:1032D80070EF19F077EF19F057A475EF19F077EF41
:1032E80019F095EF19F04406D8A045063A503B105E
:1032F800D8A481EF19F083EF19F089EF19F0000EC7
:10330800356E2B0E346E8DEF19F0000E356E2D0EC6
:10331800346ED80E4424D96E030E4520DA6E34C0BC
:10332800DFFF22C017F023C018F0D80E4424196E0E
:10333800030E45201A6E38C01BF039C01CF05BEC38
:1033480027F017C022F018C023F01200000E186EE4
:10335800000E176E000E166E000E156E000E186E1B
:10336800000E176EFEEF1AF00FC005F010C006F041
:1033780060EC30F0196ED00E136ECA0EE82EFED730
:10338800132EFCD71928D8B4CCEF19F0CEEF19F0CA
:10339800D8EF19F015500D24D96E16500E20DA6E9C
:1033A80019C0DFFF154A162A0F4A102A0FC005F068
:1033B80010C006F060EC30F01A6E0F4A102AD00EDA
:1033C800136ECA0EE82EFED7132EFCD71A28D8B4CF
:1033D800F0EF19F0F2EF19F0FCEF19F015500D2489
:1033E800D96E16500E20DA6E1AC0DFFF154A162A5B
:1033F800A60E056EFF0E066E0BC007F00CC008F097
:1034080070EC24F005500610D8A40DEF1AF00FEF59
:103418001AF028EF1AF01A5019C013F0146A13C0E2
:1034280014F0136A1326000E1422D8901734D96E9C
:103438001834DA6E570ED926010EDA2213C0DEFFD1
:1034480014C0DDFFFCEF1AF0EA0E056EFF0E066EE3
:103458000BC007F00CC008F070EC24F00550061003
:10346800D8A439EF1AF03BEF1AF054EF1AF01A50BB
:1034780019C013F0146A13C014F0136A1326000E4F
:103488001422D8901734D96E1834DA6E640ED926FF
:10349800020EDA2213C0DEFF14C0DDFFFCEF1AF0C3
:1034A800F40E056EFF0E066E0BC007F00CC008F098
:1034B80070EC24F005500610D8A465EF1AF067EFF9
:1034C8001AF080EF1AF01A5019C013F0146A13C0DA
:1034D80014F0136A1326000E1422D8901734D96EEC
:1034E8001834DA6EC80ED926000EDA2213C0DEFFB1
:1034F80014C0DDFFFCEF1AF0C00E056EFF0E066E5D
:103508000BC007F00CC008F070EC24F00550061052
:10351800D8A491EF1AF093EF1AF09FEF1AF0195010
:10352800146E136A1A5013240001BE6F000E142083
:10353800BF6FFCEF1AF0C60E056EFF0E066E0BC0CD
:1035480007F00CC008F070EC24F005500610D8A461
:10355800B0EF1AF0B2EF1AF0BEEF1AF01950146E6D
:10356800136A1A5013240001C06F000E1420C16F93
:10357800FCEF1AF0CC0E056EFF0E066E0BC007F0BE
:103588000CC008F070EC24F005500610D8A4CFEF5A
:103598001AF0D1EF1AF0DDEF1AF01950146E136A11
:1035A8001A5013240001C26F000E1420C36FFCEFE1
:1035B8001AF0D20E056EFF0E066E0BC007F00CC097
:1035C80008F070EC24F005500610D8A4EEEF1AF0BD
:1035D800F0EF1AF0FCEF1AF01950146E136A1A5033
:1035E80013240001C46F000E1420C56FFCEF1AF0FD
:1035F800174A182A1150175C1850800A136E125077
:10360800800A1358D8A00BEF1BF00DEF1BF0B8EF92
:1036180019F015500D24D96E16500E20DA6E000ED2
:10362800DF6E12000001A9BF1CEF1BF01EEF1BF09C
:103638001FEF1BF05792A9BF2CEF1BF0A95106E111
:10364800A805D8B02AEF1BF02CEF1BF032EF1BF0C7
:10365800000E3A6E010E396E36EF1BF0A8C039F035
:10366800A9C03AF0A6C03BF0A7C03CF057A83FEF6E
:103678001BF041EF1BF045EF1BF0FE0E3B26FF0E43
:103688003C2224C03DF025C03EF026C03FF027C0B4
:1036980040F028C041F029C042F02AC043F02BC0B6
:1036A80044F0000E466E1F0E456E000E0301F76FC4
:1036B80011EF1CF04506D8A046060F0E3D14476EC4
:1036C800486A48BE71EF1BF0485009E10A0E475C92
:1036D800D8A071EF1BF073EF1BF07BEF1BF0570EB8
:1036E8004724476E000E4820486E81EF1BF0300ECD
:1036F8004724476E000E4820486EBF0E2D6EFF0E01
:103708002E6E2C502F6E306A2D502F262E503022C0
:1037180030500AE11A0E2F5CD8A095EF1BF098EFF5
:103728001BF0010E99EF1BF0000E356E366A35500E
:103738003610D8B4A2EF1BF0A4EF1BF0D4EF1BF0A7
:103748009F0E2D6EFF0E2E6E200E47102F6E000E50
:103758004810306E2D502F262E50302230500AE15E
:103768001A0E2F5CD8A0BBEF1BF0BEEF1BF0010EAA
:10377800BFEF1BF0000E376E386A37503810D8B4D8
:10378800C8EF1BF0CAEF1BF0D4EF1BF047C00BF0DB
:1037980048C00CF003EC2CF00BC047F00CC048F00C
:1037A800D80E4524D96E030E4620DA6E47C0DFFFD7
:1037B8003906D8A03A063B06D8A03C063DC02DF0F5
:1037C8003EC02EF03FC02FF040C030F041C031F075
:1037D80042C032F043C033F044C034F0050EFEEF6F
:1037E8001BF0D890343233323232313230322F3209
:1037F8002E322D32E82EF5EF1BF02DC03DF02EC0F5
:103808003EF02FC03FF030C040F031C041F032C030
:1038180042F033C043F034C044F046BE1DEF1CF004
:10382800465009E1020E455CD8A01DEF1CF01FEFC1
:103838001CF04FEF1CF03D503E103F10401041105F
:10384800421043104410D8A42CEF1CF02EEF1CF0AB
:103858005EEF1BF03ABE3BEF1CF03A5006E139042C
:10386800D8B039EF1CF03BEF1CF05EEF1BF03CBE0C
:1038780046EF1CF03C5008E13B04D8A046EF1CF092
:1038880048EF1CF04FEF1CF057B24DEF1CF04FEF14
:103898001CF05EEF1BF057A854EF1CF056EF1CF01D
:1038A8006CEF1CF04506D8A04606D80E4524D96E04
:1038B800030E4620DA6E2CC0DFFF4506D8A0460668
:1038C800D80E4524D96E030E4620DA6E300EDF6E10
:1038D80022C017F023C018F0D80E4524196E030E25
:1038E80046201A6E3BC01BF03CC01CF05BEC27F076
:1038F80017C022F018C023F012000001A9BF87EFFB
:103908001CF089EF1CF08AEF1CF05792A9BF97EFC3
:103918001CF0A95106E1A805D8B095EF1CF097EF67
:103928001CF09DEF1CF0000E356E010E346EA1EFF9
:103938001CF0A8C034F0A9C035F0A6C036F0A7C066
:1039480037F024C038F025C039F026C03AF027C037
:103958003BF028C03CF029C03DF02AC03EF02BC007
:103968003FF0000E416E1F0E406E000E0301F76F10
:1039780034EF1DF04006D8A04106D80E4024D96E79
:10398800030E4120DA6E38C005F039C006F03AC09F
:1039980007F03BC008F03CC009F03DC00AF03EC04B
:1039A8000BF03FC00CF00A0E0D6E000E0E6E000EEE
:1039B8000F6E000E106E000E116E000E126E000ECD
:1039C800136E000E146E2FEC26F005C02CF006C006
:1039D8002DF007C02EF008C02FF009C030F00AC043
:1039E80031F00BC032F00CC033F02C50300FDF6ECA
:1039F8003406D8A035063606D8A0370638C005F0F4
:103A080039C006F03AC007F03BC008F03CC009F0E6
:103A18003DC00AF03EC00BF03FC00CF00A0E0D6E20
:103A2800000E0E6E000E0F6E000E106E000E116E60
:103A3800000E126E000E136E000E146EF8EC23F0DA
:103A480005C038F006C039F007C03AF008C03BF0AE
:103A580009C03CF00AC03DF00BC03EF00CC03FF07E
:103A680040504110D8B43BEF1DF03DEF1DF06DEF15
:103A78001DF0385039103A103B103C103D103E10E4
:103A88003F10D8A44AEF1DF04CEF1DF0BEEF1CF01C
:103A980035BE59EF1DF0355006E13404D8B057EF64
:103AA8001DF059EF1DF0BEEF1CF037BE64EF1DF09E
:103AB800375008E13604D8A064EF1DF066EF1DF01A
:103AC8006DEF1DF057B26BEF1DF06DEF1DF0BEEFFF
:103AD8001CF022C017F023C018F0D80E4024196E2D
:103AE800030E41201A6E36C01BF037C01CF05BEC89
:103AF80027F017C022F018C023F01200000E1A6E2B
:103B0800000E196E000E136E000E126E8EEF1DF071
:103B18000C4A0D2A010E186E0CC0F6FF0DC0F7FFF7
:103B2800000EF86E0E0EF76403D00800F55005D0AD
:103B3800F6CFE9FFF7CFEAFFEF50200AD8B4A7EF96
:103B48001DF0A9EF1DF0D1EF1DF0F70E0E6EFF0E60
:103B58000F6E0CC0F6FF0DC0F7FF000EF86E0E0ECC
:103B6800F76403D00800F55005D0F6CFE9FFF7CF8A
:103B7800EAFFEF50106E116A0E5010260F501122F6
:103B8800115009E1050E105CD8A0CDEF1DF0CFEF64
:103B98001DF0D1EF1DF0000E186E18C014F0156A54
:103BA80014501510D8A4DBEF1DF0DDEF1DF08CEFDD
:103BB8001DF0E7EF1DF0000E136E010E126E0C4A99
:103BC8000D2A34EF1EF00CC0F6FF0DC0F7FF000EF3
:103BD800F86E0E0EF76403D00800F55005D0F6CF46
:103BE800E9FFF7CFEAFFEF500E6E0F6A0F50000A99
:103BF800D8B401EF1EF034EF1EF00E502B0AD8B4E3
:103C0800E3EF1DF0060AD8B4DFEF1DF034EF1EF025
:103C180019C005F01AC006F0000E086E0A0E076EED
:103C280022EC30F00CC0F6FF0DC0F7FF000EF86E66
:103C38000E0EF76403D00800F55005D0F6CFE9FF63
:103C4800F7CFEAFFEF500E6E0E50055E000E065AD3
:103C5800300E0524196E000E06201A6EE3EF1DF0D3
:103C6800D00E0E6EFF0E0F6E0CC0F6FF0DC0F7FFE4
:103C7800000EF86E0E0EF76403D00800F55005D05C
:103C8800F6CFE9FFF7CFEAFFEF50106E116A0E503A
:103C980010260F50112211500AE10A0E105CD8A00C
:103CA80058EF1EF05BEF1EF0010E5CEF1EF0000EE9
:103CB800166E176A16501710D8A465EF1EF067EF36
:103CC8001EF00CEF1EF012501310D8A46EEF1EF069
:103CD80070EF1EF07EEF1EF019C00EF01AC00FF044
:103CE8000E1E0F1E0E4A0F2A0EC00CF00FC00DF04C
:103CF80082EF1EF019C00CF01AC00DF0120035EC5E
:103D080030F0F28EF28C8398839A839C839E000E07
:103D180032EC0BF015EC31F0B1EC2DF081EC2EF01B
:103D2800B1EC30F0B8EC30F08F0E00017D6FFE0E74
:103D38007E6FFBEC2FF09DEC21F0E806D8A4A7EFEE
:103D48001EF0A9EF1EF030EF1FF0FBEF1EF0BF0EC4
:103D58007D6FF30E7E6FFBEC2FF023EC10F016EF67
:103D68001FF0420E7D6FF20E7E6FFBEC2FF000010C
:103D7800CA05D8A4C2EF1EF0C4EF1EF0CCEF1EF0A7
:103D88007D0E7D6FFA0E7E6FFBEC2FF097EC2AF01C
:103D9800B2EC13F0C2EC2EF00001CA05D8A4D7EF9C
:103DA8001EF0D9EF1EF016EF1FF0020E7D6FFB0E0E
:103DB8007E6FFBEC2FF097EC2AF016EF1FF0CB0E7E
:103DC8007D6FF70E7E6FFBEC2FF095EC00F016EF91
:103DD8001FF0710E7D6FFC0E7E6FFBEC2FF0000E56
:103DE800156E010E146EBCEC27F016EF1FF00201E1
:103DF80001510001A46FA56BA551000AD8B407EFC3
:103E08001FF0EDEF1EF0A451030AD8B4ABEF1EF07B
:103E1800070AD8B4E3EF1EF0140AD8B4B5EF1EF0C1
:103E2800EDEF1EF00001CA05D8A41DEF1FF01FEF2B
:103E38001FF023EF1FF0C9EC16F04CEC15F08BECDB
:103E48002DF081EC2EF0E60E00017D6FFE0E7E6FE8
:103E5800FBEC2FF09FEF1EF0000E0001906F100E8C
:103E68008F6F3FEC22F000018F519011D8B43FEFD3
:103E78001FF041EF1FF056EF1FF0E5EC0DF08D0E2F
:103E880000017D6FFE0E7E6FFBEC2FF0890E096E30
:103E9800010E0A6EB10E0B6EFE0E0C6ED4EC2BF0FA
:103EA8009FEF1EF09FEF1EF093EF00F021EE69F0F8
:103EB80010EE15F0060EDBCFE3FFE806FCE212C0B9
:103EC80020F013C021F020502110D8A46EEF1FF06D
:103ED80070EF1FF074EF1FF0150E206E000E216EAC
:103EE80020C005F021C006F063EC2DF005C024F0D9
:103EF80006C025F0A8C022F0A9C023F023BE87EF92
:103F08001FF089EF1FF09EEF1FF02450225C235012
:103F1800800A146E2550800A1458D8A096EF1FF016
:103F280098EF1FF09AEF1FF09EEF1FF022C024F0C9
:103F380023C025F024C022F025C023F0A6C01EF01F
:103F4800A7C01FF057B0ABEF1FF0ADEF1FF0CAEFDF
:103F58001FF0BBEF1FF0000E086E200E076E10C09A
:103F680009F011C00AF086EC29F0244A252A1E50CF
:103F7800245C2550800A146E1F50800A1458D8A05B
:103F8800C8EF1FF0CAEF1FF0AFEF1FF0000E1D6E55
:103F9800000E1C6EEFEF1FF020C0F6FF21C0F7FFE8
:103FA800000EF86E0E0EF76403D00800F55005D029
:103FB800F6CFE9FFF7CFEAFFEF50146E1450076E03
:103FC800086A10C009F011C00AF086EC29F0204AEE
:103FD800212A1C4A1D2A22501C5C1D50800A146E7E
:103FE8002350800A1458D8A0FCEF1FF0FEEF1FF0F2
:103FF800D0EF1FF057A003EF20F005EF20F022EFDD
:1040080020F013EF20F0000E086E200E076E10C08F
:1040180009F011C00AF086EC29F0244A252A1E501E
:10402800245C2550800A146E1F50800A1458D8A0AA
:1040380020EF20F022EF20F007EF20F024C010F04E
:1040480025C011F01200000E166E14BE30EF20F0DD
:104058002EEF20F042EF20F0141E131E121E111E28
:10406800101E0F1E0E1E0D6C000E0E220F221022A7
:104078001122122213221422010E166E0CBE49EFD1
:1040880020F047EF20F05BEF20F00C1E0B1E0A1EFD
:10409800091E081E071E061E056C000E06220722B2
:1040A800082209220A220B220C22010E161A20EEDF
:1040B80017F0070EDE6AE806FDE20D500E100F102D
:1040C80010101110121013101410D8B46EEF20F045
:1040D80070EF20F0C2EF20F0010E156E7EEF20F099
:1040E800D8900D360E360F36103611361236133676
:1040F8001436152A14AE83EF20F085EF20F074EF04
:1041080020F0D8901736183619361A361B361C3652
:104118001D361E360D50055C0E5006580F500758B8
:10412800105008581150095812500A5813500B587B
:1041380014500C58D8A0A3EF20F0A5EF20F0B6EF4C
:1041480020F00D50055E0E50065A0F50075A1050B9
:10415800085A1150095A12500A5A13500B5A14503F
:104168000C5A1780D890143213321232113210328E
:104178000F320E320D32152E85EF20F01650D8B4BE
:10418800C8EF20F0CAEF20F0DAEF20F01E1E1D1E47
:104198001C1E1B1E1A1E191E181E176C000E182234
:1041A80019221A221B221C221D221E2217C005F0CA
:1041B80018C006F019C007F01AC008F01BC009F0B3
:1041C8001CC00AF01DC00BF01EC00CF01200000E3F
:1041D800166E0CBEF4EF20F0F2EF20F006EF21F09F
:1041E8000C1E0B1E0A1E091E081E071E061E056C45
:1041F800000E06220722082209220A220B220C227C
:10420800010E166E14BE0DEF21F00BEF21F01DEF1D
:1042180021F0141E131E121E111E101E0F1E0E1E3C
:104228000D6C000E0E220F221022112212221322D0
:1042380014220D500E100F10101011101210131020
:104248001410D8B42AEF21F02CEF21F074EF21F0EC
:10425800010E156E3AEF21F0D8900D360E360F3656
:1042680010361136123613361436152A14AE3FEFAF
:1042780021F041EF21F030EF21F00D50055C0E5098
:1042880006580F5007581050085811500958125026
:104298000A5813500B5814500C58D8A056EF21F058
:1042A80058EF21F068EF21F00D50055E0E50065AC8
:1042B8000F50075A1050085A1150095A12500A5AEA
:1042C80013500B5A14500C5AD8901432133212321D
:1042D800113210320F320E320D32152E41EF21F00D
:1042E8001650D8B47AEF21F07CEF21F08CEF21F052
:1042F8000C1E0B1E0A1E091E081E071E061E056C34
:10430800000E06220722082209220A220B220C226A
:1043180005C005F006C006F007C007F008C008F0A1
:1043280009C009F00AC00AF00BC00BF00CC00CF071
:10433800120015EC31F084EC30F00009D8B4A7EF86
:1043480021F0A9EF21F032EF22F00001CA05D8A42C
:10435800B0EF21F0B2EF21F0B8EF21F0A80E7D6F99
:10436800FC0E7E6FFBEC2FF084EC30F00009D8B423
:10437800C0EF21F0C2EF21F0DFEF21F0D2EF21F002
:10438800BCEC2CF0556E8C0E0001AE25D96E060ED5
:10439800AF21DA6E55C0DFFFAE4BAF2B84EC30F0A7
:1043A8000009D8A4DAEF21F0DCEF21F0C4EF21F006
:1043B800010E0001B36F0001B305D8A4E6EF21F0A8
:1043C800E8EF21F0F3EF21F036EC29F0B1EC2DF015
:1043D800000E0001B36F000EAF6F000EAE6F01014B
:1043E80074510001B01909E1010175510001B119B9
:1043F800D8A401EF22F003EF22F0B8EF21F0DFECB0
:1044080022F0E806D8A40BEF22F00DEF22F035EFEA
:1044180022F0050E02010019D8B415EF22F017EFAB
:1044280022F01FEF22F00051D8A41DEF22F01FEF59
:1044380022F029EF22F0C80E00017D6FF50E7E6F85
:10444800FBEC2FF0010E3EEF22F08A0E00017D6F8B
:10445800F30E7E6FFBEC2FF08BEC2DF0000E3EEF91
:1044680022F0E10E00017D6FFA0E7E6FFBEC2FF05B
:1044780032EF22F0120070C193F071C194F054EC45
:1044880030F00009D8B44BEF22F04DEF22F0D9EF0D
:1044980022F054EC30F00009D8B455EF22F057EF71
:1044A80022F0AAEF22F090EC2CF00001936F9351C8
:1044B80032EC2CF00D0E00019319D8B466EF22F0FF
:1044C80068EF22F072EF22F0890E136E010E146E5F
:1044D800930E156E000E166E0FEC30F0890E056EF9
:1044E800010E066E63EC2DF0055000018F5D06503D
:1044F8009059D8B082EF22F084EF22F098EF22F0A2
:10450800890E096E010E0A6E8A0E0B6E010E0C6E74
:10451800890E056E010E066E63EC2DF005C00DF0D8
:1045280006C00EF053EC25F00D0E00019319D8A427
:10453800A0EF22F0A2EF22F0AAEF22F07A0E936FFA
:104548008FC08FF090C090F0DEEF22F00D0E0001CA
:104558009319D8A4B2EF22F0B4EF22F04DEF22F075
:10456800890E056E010E066E63EC2DF0880E05248B
:10457800D96E010E0620DA6E000EDF6E890E056E0A
:10458800010E066E63EC2DF005C091F006C092F0A6
:10459800AE0E00017D6FFE0E7E6FFBEC2FF091C01A
:1045A8008FF092C090F0DEEF22F0000E0001906FC5
:1045B800000E8F6F120010681168000E0D6E000E4D
:1045C8000C6E000E0F6E000E0E6E000E136E000EB7
:1045D800126E1EEF23F0000E1224D96E020E132065
:1045E800DA6EDF50056E0550101A000E0F6E080EB9
:1045F8000E6E10A002EF23F004EF23F00DEF23F06E
:10460800D89011321032010E101AA00E111A10EFA4
:1046180023F0D890113210320E06D8A00F060E5093
:104628000F10D8A41AEF23F01CEF23F0FDEF22F0AF
:10463800124A132AFE0E056EFF0E066EB0C007F072
:10464800B1C008F005500726065008220750125C32
:104658001350800A096E0850800A0958D8A037EF0D
:1046680023F039EF23F0EFEF22F010500A6E0B6AB7
:1046780010C005F011C006F006C005F0066A055026
:104688000C6E0D6A000E1224D96E020E1320DA6E1B
:10469800DF50056E066A0A50051807E10B50061828
:1046A800D8A459EF23F05BEF23F073EF23F0010E4A
:1046B8001224D96E020E1320DA6EDF50056E066AD8
:1046C8000C50051807E10D500618D8A46EEF23F01A
:1046D80070EF23F073EF23F0010E74EF23F0000E58
:1046E8001200D00EF66E590EF76E000EF86E04EE3C
:1046F80000F010EE54F00900F5CFEEFFE550E15060
:10470800FAE1B40EF66E510EF76E000EF86E03EE77
:1047180000F010EEB8F00900F5CFEEFFE550E150DB
:10472800FAE1CA0EF66E490EF76E000EF86E02EE4A
:1047380000F010EEDCF00900F5CFEEFFE550E15097
:10474800FAE1480EF66E5F0EF76E000EF86E01EE97
:104758004BF010EE2DF00900F5CFEEFFE550E150DB
:10476800FAE17E0EF66E610EF76E000EF86E00EE40
:10477800BEF010EE0DF00900F5CFEEFFE550E15068
:10478800FAE106EE8CF0640EEE6AE806FDE105EE4D
:1047980000F0C80EEE6AE806FDE104EE54F0530E90
:1047A800EE6AE806FDE103EEB8F0400EEE6AE806B0
:1047B800FDE102EEDCF01B0EEE6AE806FDE101EE1B
:1047C80078F0210EEE6AE806FDE100EEA6F0180E7C
:1047D800EE6AE806FDE15A6A596A586A576A5B90B8
:1047E8005B92000183EF1EF020EE15F0070EDE6AE3
:1047F800E806FDE20D500E100F10101011101210E7
:1048080013101410D8B40BEF24F00DEF24F05FEF61
:1048180024F0010E1D6E1BEF24F0D8900D360E36D5
:104828000F36103611361236133614361D2A14AECA
:1048380020EF24F022EF24F011EF24F0D890153661
:1048480016361736183619361A361B361C360D50DA
:10485800055C0E5006580F50075810500858115054
:10486800095812500A5813500B5814500C58D8A015
:1048780040EF24F042EF24F053EF24F00D50055E92
:104888000E50065A0F50075A1050085A1150095A1C
:1048980012500A5A13500B5A14500C5A1580D890BB
:1048A800143213321232113210320F320E320D32EC
:1048B8001D2E22EF24F015C005F016C006F017C013
:1048C80007F018C008F019C009F01AC00AF01BC098
:1048D8000BF01CC00CF0120076EF24F0054A062AF3
:1048E800074A082A07C0F6FF08C0F7FF000EF86E4F
:1048F8000E0EF76403D00800F55005D0F6CFE9FF97
:10490800F7CFEAFFEF50096E05C0F6FF06C0F7FFC4
:10491800000EF86E0E0EF76403D00800F55005D0AF
:10492800F6CFE9FFF7CFEAFFEF500918D8A49FEFB9
:1049380024F0A1EF24F0BAEF24F005C0F6FF06C07A
:10494800F7FF000EF86E0E0EF76403D00800F5505E
:1049580005D0F6CFE9FFF7CFEAFFEF500009D8A45A
:10496800B8EF24F0BAEF24F072EF24F005C0F6FF98
:1049780006C0F7FF000EF86E0E0EF76403D00800AD
:10498800F55005D0F6CFE9FFF7CFEAFFEF50096EF3
:1049980007C0F6FF08C0F7FF000EF86E0E0EF764AA
:1049A80003D00800F55005D0F6CFE9FFF7CFEAFFAE
:1049B800EF500A6E0A50095C056E066AD8A0060612
:1049C8001200FF00000000000000000000000000CE
:1049D80000000000000000000000000000000000CF
:1049E80000000000000000000000000000000000BF
:1049F80000000000000000000000000000000000AF
:104A0800000000000000000000000000000000009E
:104A1800000000000000000000000000000000008E
:104A2800000000000000FFFF000000000000000080
:104A3800000000000000417072203238203230320D
:104A480031FFFF000000000000000031373A323625
:104A58003A3232FF000000000000000000000000B1
:104A6800000000000000000000000000000000003E
:104A7800000000000000000000000000000000002E
:104A8800000000000000000000000000000000001E
:104A980000000000000000000000000000000BC043
:104AA80013F00CC014F009C011F00AC012F0115034
:104AB800135C12501458D8B064EF25F066EF25F057
:104AC8009DEF25F00D5013240F6E0E501420106E1C
:104AD8000F50115C10501258D8B075EF25F077EFD1
:104AE80025F09DEF25F00D5013260E5014220D5081
:104AF80011260E5012221306D8A0140613C0D9FF8F
:104B080014C0DAFF1106D8A0120611C0E1FF12C0C6
:104B1800E2FFDFCFE7FF0D06D8A00E060D500E10FE
:104B2800D8A499EF25F09BEF25F07FEF25F0C0EF93
:104B380025F00D500E10D8B4A4EF25F0A6EF25F0FF
:104B4800C0EF25F013C0D9FF14C0DAFF11C0E1FF90
:104B580012C0E2FFDFCFE7FF134A142A114A122AD4
:104B68000D06D8A00E060D500E10D8A4BEEF25F0E5
:104B7800C0EF25F0A6EF25F0120012681368000EAA
:104B88000D6E000E0C6E000E116E000E106E000EF3
:104B98000F6E000E0E6E00EF26F0910E0E24D96EE9
:104BA800020E0F20DA6EDF50086E0850121A000E3F
:104BB800116E080E106E12A0E4EF25F0E6EF25F056
:104BC800EFEF25F0D89013321232010E121AA00E10
:104BD800131AF2EF25F0D890133212321006D8A02B
:104BE800110610501110D8A4FCEF25F0FEEF25F0A7
:104BF800DFEF25F00E4A0F2A05500E5C0F50800A91
:104C0800086E0650800A0858D8A00DEF26F00FEF5E
:104C180026F0D1EF25F012500A6E0B6A12C008F088
:104C280013C009F009C008F0096A08500C6E0D6A33
:104C38000704D8A422EF26F024EF26F02AEF26F066
:104C48000AC005F00BC006F02EEF26F00CC005F0E8
:104C58000DC006F012000D500E100F10101011109C
:104C6800121013101410D8B43CEF26F03EEF26F0C3
:104C780086EF26F0010E156E4CEF26F0D8900D3613
:104C88000E360F3610361136123613361436152AEC
:104C980014AE51EF26F053EF26F042EF26F00D50F8
:104CA800055C0E5006580F50075810500858115000
:104CB800095812500A5813500B5814500C58D8A0C1
:104CC80068EF26F06AEF26F07AEF26F00D50055EC1
:104CD8000E50065A0F50075A1050085A1150095AC8
:104CE80012500A5A13500B5A14500C5AD8901432B6
:104CF80013321232113210320F320E320D32152E9B
:104D080053EF26F005C005F006C006F007C007F00F
:104D180008C008F009C009F00AC00AF00BC00BF07F
:104D28000CC00CF01200000E0A6E08BEA0EF26F0B0
:104D38009EEF26F0A6EF26F0076C081ED8B0082ACA
:104D4800010E0A6E06BEADEF26F0ABEF26F0B3EF0C
:104D580026F0056C061ED8B0062A010E0A1A000EA7
:104D68000C6E000E0B6E07500810D8B4BEEF26F07C
:104D7800C0EF26F0E8EF26F0010E096EC8EF26F026
:104D8800D89007360836092A08AECDEF26F0CFEFBF
:104D980026F0C4EF26F0D8900B360C360750055C89
:104DA80008500658D8A0DBEF26F0DDEF26F0E2EF3A
:104DB80026F00750055E0850065A0B80D890083236
:104DC8000732092ECFEF26F00A50D8B4EEEF26F0BE
:104DD800F0EF26F0F4EF26F00B6C0C1ED8B00C2A7E
:104DE8000BC005F00CC006F01200B80E5A24D96E9C
:104DF800DA6A030EDA22000EDF6E0E019DA507EFB8
:104E080027F009EF27F01EEF27F0B80E5A24D96EC5
:104E1800DA6A030EDA220301DF8202D81EEF27F0D6
:104E28000500FA6E0101A351FD6EA451FE6EFF6AE2
:104E3800FA5012000E019DA324EF27F026EF27F069
:104E48003BEF27F0B80E5A24D96EDA6A030EDA223D
:104E58000301DF8402D83BEF27F00500FA6E010159
:104E6800A151FD6EA251FE6EFF6AFA501200B80EF3
:104E78005A24D96EDA6A030EDA22DF50D8B447EF23
:104E880027F049EF27F058EF27F002D856EF27F020
:104E98000500FA6E01019F51FD6EA051FE6EFF6A7A
:104EA800FA5012005AEF27F0BBEC2FF0120057A06F
:104EB80060EF27F062EF27F06CEF27F019C010F0D1
:104EC8001AC011F017C012F018C013F01CEC2EF025
:104ED8001CBE71EF27F073EF27F079EF27F01BC0A6
:104EE80020F01CC021F07DEF27F0000E216E000E8F
:104EF800206E000E1F6E000E1E6E8FEF27F0000E44
:104F0800086E200E076E17C009F018C00AF086EC6C
:104F180029F01E4A1F2A20501E5C1F50800A1D6E51
:104F28002150800A1D58D8A09CEF27F09EEF27F04B
:104F380083EF27F057B0A3EF27F0A5EF27F0AFEFE7
:104F480027F019C010F01AC011F017C012F018C0DD
:104F580013F01CEC2EF019C005F01AC006F063EC33
:104F68002DF020500524176E21500620186E1200CF
:104F7800000E0001AD6F000EAC6F910EAC25D96E1E
:104F8800020EAD21DA6E00C2DFFFAC4BAD2B910EE5
:104F9800AC25D96E020EAD21DA6E02010151800FE7
:104FA800DF6E0001AC4BAD2B910EAC25D96E020E15
:104FB800AD21DA6E14C0DFFFAC4BAD2BACC005F0F1
:104FC800ADC006F0010E076EC1EC25F005C0AAF0D1
:104FD80006C0ABF0ACC005F0ADC006F0000E076E21
:104FE800C1EC25F005C0C6F006C0C7F0910E00015F
:104FF800AC25D96E020EAD21DA6EAAC0DFFF920E83
:10500800AC25D96E020EAD21DA6EC6C0DFFF020EE6
:10501800AC25AC6F000EAD21AD6F910E066E020E81
:10502800076EACC008F0ADC009F0D1EC2AF0120050
:10503800000E5924D96EDA6A050EDA22000EDF6EE8
:105048009DA429EF28F02BEF28F040EF28F0000E60
:105058005924D96EDA6A050EDA220501DF8202D8F0
:1050680040EF28F00500FA6E01019D51FD6E9E513A
:10507800FE6EFF6AFA5012009DA245EF28F047EF36
:1050880028F05CEF28F0000E5924D96EDA6A050E74
:10509800DA220501DF8402D85CEF28F00500FA6EF9
:1050A80001019B51FD6E9C51FE6EFF6AFA50120081
:1050B800000E5924D96EDA6A050EDA22DF50D8B408
:1050C80068EF28F06AEF28F079EF28F002D877EF38
:1050D80028F00500FA6E01019951FD6E9A51FE6E95
:1050E800FF6AFA5012007BEF28F0D1EC2FF0120083
:1050F800D8900534D96E0634DA6E000ED926030E20
:10510800DA22000EDE6E000EDD6E000E0A6E000E54
:10511800096ECDEF28F009500A10D8B496EF28F0A0
:1051280098EF28F0A4EF28F0D8900534D96E06340B
:10513800DA6E000ED926030EDA22D890DE36DD3676
:105148008EA8A9EF28F0ABEF28F0C9EF28F0D89087
:105158000534D96E0634DA6E000ED926030EDA222B
:10516800DECF07F0DDCF08F0010E0726000E08227B
:10517800D8900534D96E0634DA6E000ED926030E9F
:10518800DA2207C0DEFF08C0DDFF02EC31F0094A71
:105198000A2A0001C451095CC5510A58D8A0D7EFA2
:1051A80028F0D9EF28F08FEF28F012000100020054
:1051B80003000400050006000700080009000A00B3
:1051C8000B000C000D000E000F0010001100120063
:1051D80013001400150016001700180019001A0013
:1051E8001B001C001D001E001F0020005349504FCB
:1051F80020426974730000000000000000000000F5
:105208005049534F204C656E6774680000000000D9
:10521800000000005349504F204C656E67746800C9
:1052280000000000000000005265766973696F6E27
:1052380000000000000000000000000050617274CF
:10524800204E756D626572000000000000000000CD
:1052580053657269616C204E756D6265720000005D
:1052680000000000000E076E000E066E000E076EAE
:10527800000E066E52EF29F08C0E0624D96E060E2B
:105288000720DA6E000EB025E16E020EB121E26E43
:10529800DFCFE7FFB04BB12B064A072A0001AE511A
:1052A800065C0750800A056EAF51800A0558D8A0E1
:1052B80060EF29F062EF29F040EF29F00F0E0201AC
:1052C8000119D8A46AEF29F06CEF29F075EF29F0DD
:1052D800090E06250101746F756B000E752385EFA5
:1052E80029F0100E0119D8A47CEF29F07EEF29F0DF
:1052F80080EF29F06CEF29F0000E0101756F080EA0
:10530800746F120009500A10D8B48DEF29F08FEF8E
:1053180029F098EF29F009500A10D8A496EF29F03F
:1053280098EF29F09DEF29F007500CEC31F0D0EF01
:1053380029F020EE04F00950D9260A50DA22DE506E
:10534800DE10D8B4AAEF29F0ACEF29F0C7EF29F0A6
:1053580020EE04F00950D9260A50DA2210EE02F0A5
:105368000950E1260A50E222DE50E65CE650800A47
:105378000F6EDE50800A0F58D8B0C5EF29F0C7EF7E
:1053880029F0D0EF29F020EE02F00950D9260A5072
:10539800DA22DE2A000EDD221200000E876E000ED1
:1053A800866E000E836E000E846E000E856E070EEC
:1053B8008C6E070E886ED20E896EB00E8A6E7E0EC7
:1053C8008B6E7E0E0F01266F300E216F800E196FC7
:1053D800070E2E6F070E116F000E256F000E2D6F32
:1053E800000E186F000E106F000E206F000E2C6F4D
:1053F800000E0F6F000E176F000E1F6F000E246F48
:105408000E6916691E692369070E2B6F0D691569E8
:105418001D6922690F0E2A6F170E0E01B56F0B0E4C
:10542800EF6F090EFD6F090E8D6F12000E01C59FFB
:10543800F20E056E4D0E066ECBEC30F00E01C59DDA
:10544800AC0E056E5B0E066EC6EC30F0080E0E0153
:105458009F6F900E9D6F240E9E6FA00E9B6F010E86
:105468009C6F500E056E620E066ED5EC30F0220E63
:10547800056E620E066ED0EC30F0360E056E620ECA
:10548800066EDAEC30F0000E0001B96F000EBD6F49
:10549800000EBC6F200ECC6F000E5A6E000EBB6F54
:1054A800000EBA6F0E01C58F12000E01C59B380E93
:1054B800056E500E066EE4EC30F00E01C5997C0EB8
:1054C800056E5C0E066EDFEC30F0080E9F6E900ED7
:1054D8009D6E240E9E6EA00E9B6E010E9C6E520E4B
:1054E800056E620E066EEEEC30F03C0E056E620E36
:1054F800066EE9EC30F0420E056E620E066EF3ECB5
:1055080030F0000E0001B46F000EB86F000EB76FD8
:10551800100ECB6F000E596E000EB66F000EB56FF1
:105528000E01C58B120003C28FF00001906BB7EF1C
:105538002AF08D0E7D6FFC0E7E6F8FC07FF090C0BD
:1055480080F0D8908F35D96E9035DA6E000ED92656
:10555800040EDA22DECF81F0DDCF82F0FBEC2FF0F3
:1055680000018F4B902B06C205F0066A000E086EEC
:10557800020E076E97EC26F0055000018F5D9051E2
:10558800800A556E0650800A5558D8A0CEEF2AF0EA
:10559800D0EF2AF09DEF2AF0120018EC31F090ECD1
:1055A80030F00009D8B4DBEF2AF0DDEF2AF0D3EFB2
:1055B8002AF0000E0C6E000E0B6EF8EF2AF00B505E
:1055C8000624D96E0C500720DA6EDF5061EC2CF0FF
:1055D800A7EC30F00009D8B4F4EF2AF0F6EF2AF07F
:1055E800ECEF2AF00B4A0C2A08500B5C0C50800A8E
:1055F8000A6E0950800A0A58D8A005EF2BF007EF69
:105608002BF0E3EF2AF01200D8900634D96E073455
:10561800DA6E000ED926040EDA22DECF08F0DDCFCE
:1056280009F0000E0B6E000E0A6E2FEF2BF008A08B
:1056380020EF2BF022EF2BF027EF2BF0010EE7ECF9
:105648002FF02AEF2BF0000EE7EC2FF0D89009325C
:1056580008320A4A0B2A0001C2510A5CC3510B588E
:10566800D8A039EF2BF03BEF2BF01BEF2BF01200FB
:10567800380E00017D6FFC0E7E6FFBEC2FF0000EE4
:10568800566E000E556E62EF2BF08D0E7D6FFC0E80
:105698007E6F55C07FF056C080F0D8905534D96ED3
:1056A8005634DA6E000ED926030EDA22DECF81F0E8
:1056B800DDCF82F0FBEC2FF0554A562A0001C0518D
:1056C800555CC1515658D8A06CEF2BF06EEF2BF0FB
:1056D80049EF2BF01200830E00017D6FFB0E7E6FE9
:1056E800FBEC2FF0000E566E000E556E95EF2BF06A
:1056F8008D0E7D6FFC0E7E6F55C07FF056C080F01A
:10570800D8905534D96E5634DA6E000ED926040E68
:10571800DA22DECF81F0DDCF82F0FBEC2FF0554AA4
:10572800562A0001BE51555CBF515658D8A09FEF6C
:105738002BF0A1EF2BF07CEF2BF0120079C053F087
:105748007AC054F0000E0101886F000E876FC0EF19
:105758002BF077C049F078C04AF0530E4B6E000E1C
:105768004C6E7BC04DF07CC04EF06DEC08F049509B
:10577800010187274A50882353C0F6FF54C0F7FF1A
:10578800F86A0800F5500009D8A4CDEF2BF0CFEF48
:105798002BF0ADEF2BF087C177F088C178F01200BD
:1057A8000BC00FF00CC010F009C011F00AC012F0C5
:1057B8000F500D6E10500E6E0F4A102A0DC0F6FFD6
:1057C8000EC0F7FF000EF86E11C0D9FF12C0DAFF45
:1057D800114A122A0E0EF76403D00800F55005D0BE
:1057E800F6CFE9FFF7CFEAFFEF50DF6EDF50D8A41E
:1057F80000EF2CF002EF2CF0DCEF2BF012009F0EE4
:105808000D6EFF0E0E6E0BC00FF00CC010F00D5099
:105818000F260E50102210500AE11A0E0F5CD8A065
:1058280018EF2CF01BEF2CF0010E1CEF2CF0000EE3
:10583800116E126A11501210D8B425EF2CF027EF10
:105848002CF02DEF2CF05F0E0B140B6E0C6A31EF61
:105858002CF00BC00BF00CC00CF01200056E000110
:10586800CC51D8B43AEF2CF03CEF2CF033EF2CF0BD
:105878000E01C5BD42EF2CF044EF2CF048EF2CF0A0
:1058880005C09AFE5EEF2CF0C59D740E0001BD2583
:10589800D96EDA6A040EDA2205C0DFFFBD2B1F0EAF
:1058A800BD6559EF2CF05BEF2CF05DEF2CF0000E8E
:1058B800BD6FCC070E01C58D1200056E0001CB51DE
:1058C800D8B469EF2CF06BEF2CF062EF2CF00E01DE
:1058D800C5B971EF2CF073EF2CF077EF2CF005C001
:1058E8009AFF8DEF2CF0C599DC0E0001B825D96E12
:1058F800DA6A020EDA2205C0DFFFB82B0F0EB86590
:1059080088EF2CF08AEF2CF08CEF2CF0000EB86F9B
:10591800CB070E01C58912000001BA51D8B497EF20
:105928002CF099EF2CF090EF2CF0B80EBB25D96E27
:10593800DA6A030EDA22DF50B96F540EBB25D96E2E
:10594800DA6A040EDA22DF50056EBB2B1F0EBB6528
:10595800B0EF2CF0B2EF2CF0B4EF2CF0000EBB6FD0
:105968000E01C59F0001BA070E01C58F0550120030
:105978000001B551D8B4C3EF2CF0C5EF2CF0BCEF43
:105988002CF0000EB625D96EDA6A050EDA22DF5041
:10599800B46F640EB625D96EDA6A050EDA22DF50C6
:1059A800056EB62B630EB665DCEF2CF0DEEF2CF03F
:1059B800E0EF2CF0000EB66F0E01C59B0001B50795
:1059C8000E01C58B0550120020001F001E001D008F
:1059D8001C001B001A0019001800170016001500FB
:1059E800140013001200110010000F000E000D002B
:1059F8000C000B000A00090008000700060005005B
:105A080004000300020001005049534F204269740A
:105A1800730000000000000000000000010E0B6E83
:105A2800200E05180610D8B41CEF2DF01EEF2DF02F
:105A380037EF2DF0F70E076EFF0E086E05C009F060
:105A480006C00AF00750092608500A220A5009E140
:105A5800050E095CD8A033EF2DF035EF2DF037EFA8
:105A68002DF0000E0B6E0BC005F0066A1200000E3A
:105A78006A6E000E6B6E000E6C6E000E6D6E000E80
:105A8800686E000E696E000E666E000E0F015F6F85
:105A9800000E5D6F000E5E6F000E596F000E5A6F9C
:105AA800000E5B6F000E656E000E586F000E566F8D
:105AB800000E576F940E606E0A0E5C6F120005C0E0
:105AC80007F006C008F06BEF2DF0054A062A05C05E
