:020000040000FA
:0400000093EF00F08A
:100008005B82FACF01F0FBCF02F0D9CF03F0DACF51
:1000180004F0F2AC12EF00F014EF00F089EF00F0FA
:100028000E01C5AD1AEF00F01CEF00F032EF00F042
:10003800CDAD21EF00F023EF00F032EF00F002D851
:1000480030EF00F00500FA6E0001F851FD6EF9512D
:10005800FE6EFF6AFA50120089EF00F0C5AF37EF65
:1000680000F039EF00F04FEF00F0CDAF3EEF00F0B9
:1000780040EF00F04FEF00F002D84DEF00F0050020
:10008800FA6E0001F651FD6EF751FE6EFF6AFA50E6
:10009800120089EF00F0C5A954EF00F056EF00F008
:1000A8006CEF00F0CDA95BEF00F05DEF00F06CEFB6
:1000B80000F002D86AEF00F00500FA6E0001F45172
:1000C800FD6EF551FE6EFF6AFA50120089EF00F0DE
:1000D800C5AB71EF00F073EF00F089EF00F0CDAB26
:1000E80078EF00F07AEF00F089EF00F002D887EFA0
:1000F80000F00500FA6E0001F251FD6EF351FE6E3C
:10010800FF6AFA50120089EF00F004C0DAFF03C05A
:10011800D9FF02C0FBFF01C0FAFF5B9211009FEFFD
:0201280012F0D3
:100F000000427974652025692E2056616C3A2030A4
:100F10007825303278200D0A00496E6974616C6959
:100F20007365640D0A0A00004BC0D9FF4CC0DAFF9C
:100F3000DECFF6FFDDCFF7FFF86A0800F550250A8F
:100F4000D8A4A5EF07F0A7EF07F0AAEF09F04BC070
:100F5000D9FF4CC0DAFFDE2A000EDD22000E0001B0
:100F6000AB6F000EAA6FAAC057F0ABC058F0AC69C7
:100F7000AD69000ECF6F000ECE6F06EF08F0578000
:100F80004BC0D9FF4CC0DAFFDE2A000EDD2206EF8F
:100F900008F05782C0EF07F05784C0EF07F057867C
:100FA000C0EF07F05788C0EF07F0000ECF6F010EBB
:100FB000CE6F06EF08F04BC0D9FF4CC0DAFFDECF92
:100FC000F6FFDDCFF7FFF86A0800F5504F6E506A64
:100FD0005050000AD8B4EFEF07F0D5EF07F04F50AC
:100FE000200AD8B4CFEF07F0030AD8B4D2EF07F045
:100FF000080AD8B4CCEF07F0060AD8B4BFEF07F060
:101000001D0AD8B4C9EF07F0D5EF07F0CE51CF11C4
:10101000D8B40DEF08F00FEF08F0DBEF07F057A0A2
:1010200014EF08F016EF08F017EF08F057924BC0D6
:10103000D9FF4CC0DAFFDECFF6FFDDCFF7FFF86A4D
:101040000800F5502A0AD8A428EF08F02AEF08F083
:1010500053EF08F04BC0D9FF4CC0DAFFDE2A000E78
:10106000DD224DC0D9FF4EC0DAFFDFCF4FF0020EB8
:10107000DE26DFCF50F0000EDD224FC0D9FF50C07A
:10108000DAFFDECFAAF0DDCFABF0ABBF4CEF08F05C
:101090004AEF08F098EF08F05780AA6DAB1FD8B060
:1010A000AB2B98EF08F04BC0D9FF4CC0DAFFDECF76
:1010B0000CF0DDCF0DF0A2EC0CF00CC0AAF00DC0CE
:1010C000ABF06AEF08F04BC0D9FF4CC0DAFFDE2A64
:1010D000000EDD22D00E4F6EFF0E506E4BC0D9FFBA
:1010E0004CC0DAFFDECFF6FFDDCFF7FFF86A08006D
:1010F000F550516E526A4F50512650505222525064
:101100000AE10A0E515CD8A088EF08F08BEF08F0D6
:10111000010E8CEF08F0000E0001D06FD16BD051A2
:10112000D111D8A496EF08F098EF08F063EF08F01B
:101130004BC0D9FF4CC0DAFFDECFF6FFDDCFF7FFA3
:10114000F86A0800F550640AD8B4A9EF08F0ABEFCC
:1011500008F0BEEF08F04BC0D9FF4CC0DAFFDECF7D
:10116000F6FFDDCFF7FFF86A0800F550690AD8A44A
:10117000BCEF08F0BEEF08F0FEEF08F04BC0D9FF5F
:101180004CC0DAFFDE2A000EDD224DC0D9FF4EC072
:10119000DAFFDFCF4FF0020EDE26DFCF50F0000E79
:1011A000DD224FC0D9FF50C0DAFFDECFBEF0DDCF69
:1011B000BFF0000EBFBFFF0EC06FC16FC26FC36F25
:1011C000C46FC56F49C022F04AC023F0BEC024F0EE
:1011D000BFC025F0C0C026F0C1C027F0C2C028F0B3
:1011E000C3C029F0C4C02AF0C5C02BF0C7EC09F079
:1011F00022C049F023C04AF0C6EF09F04BC0D9FF26
:101200004CC0DAFFDECFF6FFDDCFF7FFF86A08004B
:10121000F550780AD8B40FEF09F011EF09F024EF78
:1012200009F04BC0D9FF4CC0DAFFDECFF6FFDDCFAF
:10123000F7FFF86A0800F550580AD8A422EF09F021
:1012400024EF09F073EF09F04BC0D9FF4CC0DAFF6F
:10125000DECFF6FFDDCFF7FFF86A0800F5CFD2F05A
:101260004BC0D9FF4CC0DAFFDE2A000EDD224DC094
:10127000D9FF4EC0DAFFDFCF4FF0020EDE26DFCF00
:1012800050F0000EDD224FC0D9FF50C0DAFFDECF94
:1012900051F0DDCF52F051C0C6F052C0C7F0C86B5C
:1012A000C96BCA6BCB6BCC6BCD6B49C022F04AC00B
:1012B00023F0C6C024F0C7C025F0C8C026F0C9C0BE
:1012C00027F0CAC028F0CBC029F0CCC02AF0CDC08E
:1012D0002BF0D2C02CF037EC0BF022C049F023C029
:1012E0004AF0C6EF09F04BC0D9FF4CC0DAFFDECFA1
:1012F000F6FFDDCFF7FFF86A0800F550250AD8A4FD
:1013000084EF09F086EF09F09DEF09F04BC0D9FF9B
:101310004CC0DAFFDE2A000EDD22000E086E250E1C
:10132000076E49C009F04AC00AF078EC10F0000ED0
:101330004A6E010E496EC6EF09F04BC0D9FF4CC092
:10134000DAFFDE2A000EDD22000E4A6E000E496E24
:10135000C6EF09F04BC0D9FF4CC0DAFFDECFF6FF75
:10136000DDCFF7FFF86A0800F550076E086A49C03C
:1013700009F04AC00AF078EC10F04BC0D9FF4CC01D
:10138000DAFFDE2A000EDD2297EF09F0120024C0FA
:101390003CF025C03DF026C03EF027C03FF028C0FD
:1013A00040F029C041F02AC042F02BC043F043BEB8
:1013B000DCEF09F0DFEF09F0010EE0EF09F0000EBD
:1013C0003A6E3B6A3A503B10D8B4E9EF09F0EBEFC4
:1013D00009F0FBEF09F0431E421E411E401E3F1E56
:1013E0003E1E3D1E3C6C000E3D223E223F2240220E
:1013F0004122422243220001ADBF01EF0AF003EF78
:101400000AF004EF0AF05792ADBF11EF0AF0AD51A8
:1014100006E1AC05D8B00FEF0AF011EF0AF017EFB4
:101420000AF0000E376E010E366E1BEF0AF0ACC0EC
:1014300036F0ADC037F0AAC038F0ABC039F03A5042
:101440003B10D8A426EF0AF028EF0AF02FEF0AF09D
:1014500057A42DEF0AF02FEF0AF032EF0AF038060A
:10146000D8A03906000E456E1F0E446E000E010115
:10147000836FB7EF0AF04406D8A04506640E4424F3
:10148000D96E010E4520DA6E3CC005F03DC006F075
:101490003EC007F03FC008F040C009F041C00AF06C
:1014A00042C00BF043C00CF00A0E0D6E000E0E6E23
:1014B000000E0F6E000E106E000E116E000E126EFA
:1014C000000E136E000E146E33EC0EF005C02CF0FF
:1014D00006C02DF007C02EF008C02FF009C030F074
:1014E0000AC031F00BC032F00CC033F02CC017F042
:1014F0002EC018F051EC13F01750300FDF6E360687
:10150000D8A037063806D8A039063CC005F03DC043
:1015100006F03EC007F03FC008F040C009F041C0EF
:101520000AF042C00BF043C00CF00A0E0D6E000E24
:101530000E6E000E0F6E000E106E000E116E000E7D
:10154000126E000E136E000E146E6FEC0DF005C0DF
:101550003CF006C03DF007C03EF008C03FF009C0B7
:1015600040F00AC041F00BC042F00CC043F045BE51
:10157000C2EF0AF0455008E14404D8A0C2EF0AF0D7
:10158000C4EF0AF0F4EF0AF03C503D103E103F105B
:101590004010411042104310D8A4D1EF0AF0D3EF0D
:1015A0000AF03BEF0AF037BEE0EF0AF0375006E1F1
:1015B0003604D8B0DEEF0AF0E0EF0AF03BEF0AF0B5
:1015C00039BEEBEF0AF0395008E13804D8A0EBEF50
:1015D0000AF0EDEF0AF0F4EF0AF057B2F2EF0AF07A
:1015E000F4EF0AF03BEF0AF03A503B10D8A4FBEFBF
:1015F0000AF0FDEF0AF004EF0BF057A402EF0BF036
:1016000004EF0BF022EF0BF04406D8A045063A5049
:101610003B10D8A40EEF0BF010EF0BF016EF0BF011
:10162000000E356E2B0E346E1AEF0BF0000E356E79
:101630002D0E346E640E4424D96E010E4520DA6EF0
:1016400034C0DFFF22C017F023C018F0640E44241A
:10165000196E010E45201A6E38C01BF039C01CF0FF
:1016600059EC0FF017C022F018C023F0120000014F
:10167000ADBF3DEF0BF03FEF0BF040EF0BF057929B
:10168000ADBF4DEF0BF0AD5106E1AC05D8B04BEF5F
:101690000BF04DEF0BF053EF0BF0000E3A6E010E16
:1016A000396E57EF0BF0ACC039F0ADC03AF0AAC0BC
:1016B0003BF0ABC03CF057A860EF0BF062EF0BF0D3
:1016C00066EF0BF0FE0E3B26FF0E3C2224C03DF0E1
:1016D00025C03EF026C03FF027C040F028C041F0B2
:1016E00029C042F02AC043F02BC044F0000E466EE1
:1016F0001F0E456E000E0101836F32EF0CF04506A0
:10170000D8A046060F0E3D14476E486A48BE92EFB9
:101710000BF0485009E10A0E475CD8A092EF0BF09D
:1017200094EF0BF09CEF0BF0570E4724476E000E22
:101730004820486EA2EF0BF0300E4724476E000E93
:101740004820486EBF0E2D6EFF0E2E6E2C502F6E51
:10175000306A2D502F262E50302230500AE11A0EBA
:101760002F5CD8A0B6EF0BF0B9EF0BF0010EBAEF7B
:101770000BF0000E356E366A35503610D8B4C3EF14
:101780000BF0C5EF0BF0F5EF0BF09F0E2D6EFF0E7B
:101790002E6E200E47102F6E000E4810306E2D500A
:1017A0002F262E50302230500AE11A0E2F5CD8A07E
:1017B000DCEF0BF0DFEF0BF0010EE0EF0BF0000EB3
:1017C000376E386A37503810D8B4E9EF0BF0EBEFCA
:1017D0000BF0F5EF0BF047C00BF048C00CF0ECEC51
:1017E00011F00BC047F00CC048F0640E4524D96ED0
:1017F000010E4620DA6E47C0DFFF3906D8A03A0650
:101800003B06D8A03C063DC02DF03EC02EF03FC0A8
:101810002FF040C030F041C031F042C032F043C040
:1018200033F044C034F0050E1FEF0CF0D890343282
:1018300033323232313230322F322E322D32E82EE4
:1018400016EF0CF02DC03DF02EC03EF02FC03FF043
:1018500030C040F031C041F032C042F033C043F0FC
:1018600034C044F046BE3EEF0CF0465009E1020E93
:10187000455CD8A03EEF0CF040EF0CF070EF0CF0A0
:101880003D503E103F104010411042104310441094
:10189000D8A44DEF0CF04FEF0CF07FEF0BF03ABEF9
:1018A0005CEF0CF03A5006E13904D8B05AEF0CF076
:1018B0005CEF0CF07FEF0BF03CBE67EF0CF03C50A0
:1018C00008E13B04D8A067EF0CF069EF0CF070EF73
:1018D0000CF057B26EEF0CF070EF0CF07FEF0BF0E6
:1018E00057A875EF0CF077EF0CF08DEF0CF0450674
:1018F000D8A04606640E4524D96E010E4620DA6E45
:101900002CC0DFFF4506D8A04606640E4524D96EDC
:10191000010E4620DA6E300EDF6E22C017F023C0B3
:1019200018F0640E4524196E010E46201A6E3BC055
:101930001BF03CC01CF059EC0FF017C022F018C08F
:1019400023F01200000E1A6E000E196E000E136EB8
:10195000000E126EAEEF0CF00C4A0D2A010E186E3E
:101960000CC0F6FF0DC0F7FFF86A0800F550200A1A
:10197000D8B4BDEF0CF0BFEF0CF0DDEF0CF0F70EBC
:101980000E6EFF0E0F6E0CC0F6FF0DC0F7FFF86A6B
:101990000800F550106E116A0E5010260F501122DB
:1019A000115009E1050E105CD8A0D9EF0CF0DBEF67
:1019B0000CF0DDEF0CF0000E186E18C014F0156A74
:1019C00014501510D8A4E7EF0CF0E9EF0CF0ACEFD1
:1019D0000CF0F3EF0CF0000E136E010E126E0C4AB9
:1019E0000D2A2AEF0DF00CC0F6FF0DC0F7FFF86AC4
:1019F0000800F5500E6E0F6A0F50000AD8B403EFBE
:101A00000DF02AEF0DF00E502B0AD8B4EFEF0CF0CA
:101A1000060AD8B4EBEF0CF02AEF0DF019C005F070
:101A20001AC006F0000E086E0A0E076E3EEC14F0A7
:101A30000CC0F6FF0DC0F7FFF86A0800F550055E10
:101A4000000E065A300E0524196E000E06201A6E7E
:101A5000EFEF0CF0D00E0E6EFF0E0F6E0CC0F6FF07
:101A60000DC0F7FFF86A0800F550106E116A0E50AD
:101A700010260F50112211500AE10A0E105CD8A056
:101A800044EF0DF047EF0DF0010E48EF0DF0000EA2
:101A9000166E176A16501710D8A451EF0DF053EFB9
:101AA0000DF00EEF0DF012501310D8A45AEF0DF0F8
:101AB0005CEF0DF06AEF0DF019C00EF01AC00FF0D8
:101AC0000E1E0F1E0E4A0F2A0EC00CF00FC00DF096
:101AD0006EEF0DF019C00CF01AC00DF01200000EE0
:101AE000166E14BE78EF0DF076EF0DF08AEF0DF064
:101AF000141E131E121E111E101E0F1E0E1E0D6C24
:101B0000000E0E220F221022112212221322142262
:101B1000010E166E0CBE91EF0DF08FEF0DF0A3EFDE
:101B20000DF00C1E0B1E0A1E091E081E071E061EA7
:101B3000056C000E06220722082209220A220B2227
:101B40000C22010E161A20EE17F0070EDE6AE806C8
:101B5000FDE20D500E100F10101011101210131086
:101B60001410D8B4B6EF0DF0B8EF0DF00AEF0EF088
:101B7000010E156EC6EF0DF0D8900D360E360F36ED
:101B800010361136123613361436152A14AECBEF32
:101B90000DF0CDEF0DF0BCEF0DF0D89017361836E4
:101BA00019361A361B361C361D361E360D50055C8E
:101BB0000E5006580F500758105008581150095829
:101BC00012500A5813500B5814500C58D8A0EBEF71
:101BD0000DF0EDEF0DF0FEEF0DF00D50055E0E5027
:101BE000065A0F50075A1050085A1150095A1250ED
:101BF0000A5A13500B5A14500C5A1780D8901432AA
:101C000013321232113210320F320E320D32152EC3
:101C1000CDEF0DF01650D8B410EF0EF012EF0EF01D
:101C200022EF0EF01E1E1D1E1C1E1B1E1A1E191E4C
:101C3000181E176C000E182219221A221B221C22B1
:101C40001D221E2217C005F018C006F019C007F0AB
:101C50001AC008F01BC009F01CC00AF01DC00BF030
:101C60001EC00CF01200000E166E0CBE3CEF0EF003
:101C70003AEF0EF04EEF0EF00C1E0B1E0A1E091E60
:101C8000081E071E061E056C000E062207220822EB
:101C900009220A220B220C22010E166E14BE55EFE9
:101CA0000EF053EF0EF065EF0EF0141E131E121E11
:101CB000111E101E0F1E0E1E0D6C000E0E220F2286
:101CC000102211221222132214220D500E100F1076
:101CD00010101110121013101410D8B472EF0EF06F
:101CE00074EF0EF0BCEF0EF0010E156E82EF0EF0E9
:101CF000D8900D360E360F36103611361236133692
:101D00001436152A14AE87EF0EF089EF0EF078EF37
:101D10000EF00D50055C0E5006580F50075810502D
:101D200008581150095812500A5813500B581450A3
:101D30000C58D8A09EEF0EF0A0EF0EF0B0EF0EF012
:101D40000D50055E0E50065A0F50075A1050085A93
:101D50001150095A12500A5A13500B5A14500C5A67
:101D6000D890143213321232113210320F320E3236
:101D70000D32152E89EF0EF01650D8B4C2EF0EF0CA
:101D8000C4EF0EF0D4EF0EF00C1E0B1E0A1E091E3F
:101D9000081E071E061E056C000E062207220822DA
:101DA00009220A220B220C2205C005F006C006F00B
:101DB00007C007F008C008F009C009F00AC00AF01F
:101DC0000BC00BF00CC00CF012005FEC14F0F28EA4
:101DD000F28C8398839A839C839E190E0001D96F9D
:101DE0000F0EDA6F2AEC14F0C5EC14F0C4EC12F00C
:101DF00087EC11F0000E0001E56F78EC14F000099B
:101E0000D8B405EF0FF007EF0FF02DEF0FF020EF34
:101E10000FF04AEC12F0566E000E0001AE25D96E9E
:101E2000010EAF21DA6E56C0DFFF150E566EC60EDC
:101E3000E82EFED7562EFCD700D00001AE4BAF2BBC
:101E400078EC14F00009D8A428EF0FF02AEF0FF077
:101E500009EF0FF0010E0001E56F0001E505D8A4C0
:101E600034EF0FF036EF0FF0FDEF0EF0AE07D8A015
:101E7000AF0787EC11F0C4EC12F0000E0001E56F23
:101E8000000EAF6F000EAE6F83B849EF0FF04CEF4E
:101E90000FF0010E4DEF0FF0000EFF0A566E563A8E
:101EA00083505618EF0B5618836EFDEF0EF093EF2C
:101EB00000F057A05EEF0FF060EF0FF06AEF0FF049
:101EC00019C010F01AC011F017C012F018C013F0AA
:101ED0000DEC13F01CBE6FEF0FF071EF0FF077EF0A
:101EE0000FF01BC020F01CC021F07BEF0FF0000EA4
:101EF000216E000E206E000E1F6E000E1E6E8DEF06
:101F00000FF0000E086E200E076E17C009F018C003
:101F10000AF078EC10F01E4A1F2A20501E5C1F5059
:101F2000800A1D6E2150800A1D58D8A09AEF0FF02C
:101F30009CEF0FF081EF0FF057B0A1EF0FF0A3EF80
:101F40000FF0ADEF0FF019C010F01AC011F017C06C
:101F500012F018C013F00DEC13F019C005F01AC000
:101F600006F0E3EC13F020500524176E21500620F4
:101F7000186E1200900E5A24D96EDA6A000EDA2218
:101F8000000EDF6E0E019DA5C8EF0FF0CAEF0FF037
:101F9000DEEF0FF0900E5A24D96EDA6A000EDA22C4
:101FA0000001DF8202D8DEEF0FF00500FA6EF0517B
:101FB000FD6EF151FE6EFF6AFA5012000E019DA3F4
:101FC000E4EF0FF0E6EF0FF0FAEF0FF0900E5A2467
:101FD000D96EDA6A000EDA220001DF8402D8FAEF45
:101FE0000FF00500FA6EEE51FD6EEF51FE6EFF6AC6
:101FF000FA501200900E5A24D96EDA6A000EDA22D4
:10200000DF50D8B406EF10F008EF10F017EF10F023
:1020100002D815EF10F00500FA6E0001EC51FD6ECC
:10202000ED51FE6EFF6AFA50120019EF10F0FEEC4F
:1020300013F01200600E5924D96EDA6A000EDA220B
:10204000000EDF6E9DA427EF10F029EF10F03DEF9A
:1020500010F0600E5924D96EDA6A000EDA220001FF
:10206000DF8202D83DEF10F00500FA6EEA51FD6EF6
:10207000EB51FE6EFF6AFA5012009DA242EF10F083
:1020800044EF10F058EF10F0600E5924D96EDA6A60
:10209000000EDA220001DF8402D858EF10F00500AC
:1020A000FA6EE851FD6EE951FE6EFF6AFA501200B9
:1020B000600E5924D96EDA6A000EDA22DF50D8B4E5
:1020C00064EF10F066EF10F075EF10F002D873EFC8
:1020D00010F00500FA6E0001E651FD6EE751FE6E4C
:1020E000FF6AFA50120077EF10F014EC14F01200AF
:1020F00009500A10D8B47FEF10F081EF10F08AEF8A
:1021000010F009500A10D8A488EF10F08AEF10F0F0
:102110008FEF10F00750BCEC14F0C2EF10F020EE7F
:1021200004F00950D9260A50DA22DE50DE10D8B465
:102130009CEF10F09EEF10F0B9EF10F020EE04F0DD
:102140000950D9260A50DA2210EE02F00950E12691
:102150000A50E222DE50E65CE650800A0F6EDE5046
:10216000800A0F58D8B0B7EF10F0B9EF10F0C2EFF7
:1021700010F020EE02F00950D9260A50DA22DE2AA9
:10218000000EDD221200000E876E000E866E000E1D
:10219000836E000E846E000E856E070E8C6E070E29
:1021A000886EBF0E896EBF0E8A6EFE0E8B6E0F019B
:1021B00026693B0E216F370E196F070E2E6F1169BE
:1021C000000E256F000E2D6F000E186F000E106FA1
:1021D000000E206F000E2C6F000E0F6F000E176F99
:1021E000000E1F6F000E246F0E6916691E692369A9
:1021F000070E2B6F0D6915691D6922690F0E2A6F75
:10220000170E0E01B56F0B0EF56F090EFD6F0F0E59
:102210008D6F12000E01C59F740E056E1F0E066EA7
:102220008FEC14F00E01C59DD20E056E250E066EC4
:102230008AEC14F0080E0E019F6F900E9D6F240E15
:102240009E6F400E9B6F030E9C6FA60E056E290EAF
:10225000066E99EC14F0820E056E290E066E94EC53
:1022600014F0900E056E290E066E9EEC14F0000E12
:102270000001B96F000EBD6F000EBC6F080EFB6F42
:10228000000E5A6E000EBB6F000EBA6F0E01C58FA6
:1022900012000E01C59B340E056E200E066EA8ECD2
:1022A00014F00E01C5995E0E056E260E066EA3ECA7
:1022B00014F0080E9F6E900E9D6E240E9E6E400EC2
:1022C0009B6E030E9C6EA80E056E290E066EB2EC78
:1022D00014F0960E056E290E066EADEC14F09C0EF1
:1022E000056E290E066EB7EC14F0000E0001B46FF7
:1022F000000EB86F000EB76F100EFA6F000E596E19
:10230000000EB66F000EB56F0E01C58B1200000EE9
:102310000001E46F000EE36F000EE46F000EE36F48
:10232000AAEF11F0010ED96F0F0EDA6FE3C0DBF0E8
:10233000E4C0DCF0000EE325D96E010EE421DA6E74
:10234000DF50556E5550DD6FDE6B2AEC14F0000146
:10235000E34BE42BAE51E35DE451800A556EAF517F
:10236000800A5558D8A0B7EF11F0B9EF11F092EFED
:1023700011F01200D5C053F0D6C054F0000E000189
:10238000A96F000EA86FD8EF11F0D3C049F0D4C0E8
:102390004AF0530E4B6E000E4C6ED7C04DF0D8C0B5
:1023A0004EF094EC07F049500001A8274A50A923A9
:1023B00053C0F6FF54C0F7FFF86A0800F550000953
:1023C000D8A4E5EF11F0E7EF11F0C5EF11F0A8C0C8
:1023D000D3F0A9C0D4F012009F0E0D6EFF0E0E6E4A
:1023E0000BC00FF00CC010F00D500F260E50102235
:1023F00010500AE11A0E0F5CD8A001EF12F004EFA2
:1024000012F0010E05EF12F0000E116E126A11505B
:102410001210D8B40EEF12F010EF12F016EF12F007
:102420005F0E0B140B6E0C6A1AEF12F00BC00BF060
:102430000CC00CF01200056E0001FB51D8B423EF64
:1024400012F025EF12F01CEF12F00E01C5BD2BEFBC
:1024500012F02DEF12F031EF12F005C09AFE47EFA7
:1024600012F0C59DA00E0001BD25D96EDA6A000EDE
:10247000DA2205C0DFFFBD2B070EBD6542EF12F06B
:1024800044EF12F046EF12F0000EBD6FFB070E0195
:10249000C58D12000001B551D8B451EF12F053EFC1
:1024A00012F04AEF12F0600EB625D96EDA6A000E0D
:1024B000DA22DF50B46F700EB625D96EDA6A000EDC
:1024C000DA22DF50056EB62B0F0EB6656AEF12F0FA
:1024D0006CEF12F06EEF12F0000EB66F0E01C59B9E
:1024E0000001B5070E01C58B05501200010E0B6EE1
:1024F000200E05180610D8B480EF12F082EF12F00B
:102500009BEF12F0F70E076EFF0E086E05C009F084
:1025100006C00AF00750092608500A220A5009E1AD
:10252000050E095CD8A097EF12F099EF12F09BEF1F
:1025300012F0000E0B6E0BC005F0066A1200080EBA
:10254000F66E290EF76E000EF86E01EE84F010EEB6
:102550000BF00900F5CFEEFFE550E150FAE101EE96
:1025600000F0840EEE6AE806FDE100EE60F05E0E1B
:10257000EE6AE806FDE15A6A596A586A576A5B9042
:102580005B920001E5EF0EF0000E076E000E066E86
:10259000000E076E000E066ED8EF12F0000E062435
:1025A000D96E010E0720DA6EFF0EDF6E064A072A8B
:1025B0000001AE51065C0750800A056EAF51800ADB
:1025C0000558D8A0E6EF12F0E8EF12F0CEEF12F0C7
:1025D0001200080E0001FB61F0EF12F0F2EF12F0B2
:1025E0000AEF13F0A00EBC25D96EDA6A000EDA22CB
:1025F000DF500E019A6F0001BC2B070EBC6503EF84
:1026000013F005EF13F007EF13F0000EBC6FFB2B78
:102610000CEF13F00E01C59D1200000E166E000E99
:10262000156E1EEF13F014C007F0086A12C009F00F
:1026300013C00AF078EC10F0154A162A1550102431
:10264000D96E16501120DA6EDF50146E1450D8A4D3
:102650002CEF13F02EEF13F013EF13F01200100E07
:102660000001FA6136EF13F038EF13F04EEF13F07C
:10267000800EB725D96EDA6A000EDA22DF509A6E24
:10268000B72B0F0EB76547EF13F049EF13F04BEF81
:1026900013F0000EB76FFA2B50EF13F00E01C5992F
:1026A000120018BE5EEF13F0185006E11704D8B000
:1026B0005CEF13F05EEF13F06CEF13F017C019F03E
:1026C00018C01AF0191E1A1E194A1A2A19C017F032
:1026D0001AC018F070EF13F017C017F018C018F0F8
:1026E00012009F0E076EFF0E086E200E0510096E79
:1026F000000E06100A6E0750092608500A220A50DA
:102700000AE11A0E095CD8A088EF13F08BEF13F0E2
:10271000010E8CEF13F0000E056E066A12009F0E7C
:10272000076EFF0E086E05C009F006C00AF00750DC
:10273000092608500A220A500AE11A0E095CD8A09C
:10274000A4EF13F0A7EF13F0010EA8EF13F0000EA3
:10275000056E066A1200BF0E076EFF0E086E05C0FA
:1027600009F006C00AF00750092608500A220A504C
:102770000AE11A0E095CD8A0C0EF13F0C3EF13F002
:10278000010EC4EF13F0000E056E066A1200D00EA3
:10279000076EFF0E086E05C009F006C00AF007506C
:1027A000092608500A220A500AE10A0E095CD8A03C
:1027B000DCEF13F0DFEF13F0010EE0EF13F0000E8B
:1027C000056E066A120005C007F006C008F0EBEFC0
:1027D00013F0054A062A05C0D9FF06C0DAFFDF500C
:1027E000D8A4F5EF13F0F7EF13F0E9EF13F007506B
:1027F000055C056E08500658066E1200980E5A24A5
:10280000D96EDA6A000EDA2299CEDFFF5A2A070E55
:102810005A640DEF14F00FEF14F011EF14F0000EE6
:102820005A6E0001BA2B1200700E5924D96EDA6A62
:10283000000EDA2299CFDFFF592A0F0E596423EFD9
:1028400014F025EF14F027EF14F0000E596E00017C
:10285000B52B1200DB0E0001E16F000EE26F000EDF
:10286000D36F000ED46FD9C0D5F0DAC0D6F0E10E28
:10287000D76F000ED86FBAEC11F0120005500702A6
:10288000F3CF09F0F4CF0AF005500802F3500A26FE
:1028900006500702F3500A2609C005F00AC006F0E8
:1028A0001200000E0E01E16F000EE26F000EE36FEA
:1028B000000EE46F000EE56F000EE66F1200D1EC23
:1028C00014F051EC14F0C3EC10F06CEC14F049EC83
:1028D00011F00AEC11F01200600E0E01D86F000E1C
:1028E000DA6F000EDC6F060EDE6F000EDD6F120079
:1028F0000001B551D8A47FEF14F082EF14F0010E5F
:1029000083EF14F0000E1200110306AE415652433D
:032910004049AD8E
:1029140005C0F8F006C0F9F0120005C0F6F006C0D4
:10292400F7F0120005C0EEF006C0EFF0120005C08B
:10293400F0F006C0F1F0120005C0ECF006C0EDF0B6
:10294400120005C0F4F006C0F5F0120005C0F2F064
:1029540006C0F3F0120005C0E8F006C0E9F012006A
:1029640005C0EAF006C0EBF0120005C0E6F006C0B0
:10297400E7F01200066E06501BEC12F012000E0176
:102984009D999D891200869083961200FEEC13F0A7
:1029940012009D989D88120014EC14F01200F29A13
:0629A400120012001200F7
:020000040020DA
:10000000FF0FFF0FFF0FFF0FFF0FFF0FFF0FFF0F80
:020000040030CA
:0C000000ECFFFFFF9FFFFFFFFFFFFFFF73
:00000001FF
