:020000040000FA
:0400000093EF00F08A
:100008005B82FACF01F0FBCF02F0D9CF03F0DACF51
:1000180004F0F2AC12EF00F014EF00F089EF00F0FA
:100028000E01C5AD1AEF00F01CEF00F032EF00F042
:10003800CDAD21EF00F023EF00F032EF00F002D851
:1000480030EF00F00500FA6E0101F151FD6EF2513A
:10005800FE6EFF6AFA50120089EF00F0C5AF37EF65
:1000680000F039EF00F04FEF00F0CDAF3EEF00F0B9
:1000780040EF00F04FEF00F002D84DEF00F0050020
:10008800FA6E0101EF51FD6EF051FE6EFF6AFA50F3
:10009800120089EF00F0C5A954EF00F056EF00F008
:1000A8006CEF00F0CDA95BEF00F05DEF00F06CEFB6
:1000B80000F002D86AEF00F00500FA6E0101ED5178
:1000C800FD6EEE51FE6EFF6AFA50120089EF00F0E5
:1000D800C5AB71EF00F073EF00F089EF00F0CDAB26
:1000E80078EF00F07AEF00F089EF00F002D887EFA0
:1000F80000F00500FA6E0101EB51FD6EEC51FE6E49
:10010800FF6AFA50120089EF00F004C0DAFF03C05A
:10011800D9FF02C0FBFF01C0FAFF5B9211001FEF7D
:1001280012F04BC0D9FF4CC0DAFFDECFF6FFDDCFAF
:10013800F7FFF86A0800F550250AD8A4A6EF00F0E2
:10014800A8EF00F03DEF03F04BC0D9FF4CC0DAFF39
:10015800DE2A000EDD22000E0001A46F000EA36F40
:10016800A3C057F0A4C058F0A569A669000E6C6F2B
:10017800000E6B6F07EF01F057804BC0D9FF4CC0E2
:10018800DAFFDE2A000EDD2207EF01F05782C1EF09
:1001980000F05784C1EF00F05786C1EF00F0578890
:1001A800C1EF00F0000E6C6F010E6B6F07EF01F0EE
:1001B8004BC0D9FF4CC0DAFFDECFF6FFDDCFF7FF2B
:1001C800F86A0800F5504F6E506A5050000AD8B4CB
:1001D800F0EF00F0D6EF00F04F50200AD8B4D0EF7F
:1001E80000F0030AD8B4D3EF00F0080AD8B4CDEF72
:1001F80000F0060AD8B4C0EF00F01D0AD8B4CAEF60
:1002080000F0D6EF00F06B516C11D8B40EEF01F08E
:1002180010EF01F0DCEF00F057A015EF01F017EF39
:1002280001F018EF01F057924BC0D9FF4CC0DAFF2C
:10023800DECFF6FFDDCFF7FFF86A0800F5502A0A8F
:10024800D8A429EF01F02BEF01F054EF01F04BC0D7
:10025800D9FF4CC0DAFFDE2A000EDD224DC0D9FFDF
:100268004EC0DAFFDFCF4FF0020EDE26DFCF50F0B0
:10027800000EDD224FC0D9FF50C0DAFFDECFA3F059
:10028800DDCFA4F0A4BF4DEF01F04BEF01F099EFE3
:1002980001F05780A36DA41FD8B0A42B99EF01F0EB
:1002A8004BC0D9FF4CC0DAFFDECF0CF0DDCF0DF02C
:1002B80044EC0CF00CC0A3F00DC0A4F06BEF01F0FF
:1002C8004BC0D9FF4CC0DAFFDE2A000EDD22D00E6B
:1002D8004F6EFF0E506E4BC0D9FF4CC0DAFFDECF19
:1002E800F6FFDDCFF7FFF86A0800F550516E526A45
:1002F8004F5051265050522252500AE10A0E515C7A
:10030800D8A089EF01F08CEF01F0010E8DEF01F01C
:10031800000E00016D6F6E6B6D516E11D8A497EFD2
:1003280001F099EF01F064EF01F04BC0D9FF4CC028
:10033800DAFFDECFF6FFDDCFF7FFF86A0800F550E9
:10034800640AD8B4AAEF01F0ACEF01F0BFEF01F0F6
:100358004BC0D9FF4CC0DAFFDECFF6FFDDCFF7FF89
:10036800F86A0800F550690AD8A4BDEF01F0BFEF9C
:1003780001F0FFEF01F04BC0D9FF4CC0DAFFDE2AD5
:10038800000EDD224DC0D9FF4EC0DAFFDFCF4FF09F
:10039800020EDE26DFCF50F0000EDD224FC0D9FF5F
:1003A80050C0DAFFDECF60F0DDCF61F0000E61BF34
:1003B800FF0E626F636F646F656F666F676F49C02A
:1003C80022F04AC023F060C024F061C025F062C06A
:1003D80026F063C027F064C028F065C029F066C025
:1003E8002AF067C02BF05AEC03F022C049F023C072
:1003F8004AF059EF03F04BC0D9FF4CC0DAFFDECF0B
:10040800F6FFDDCFF7FFF86A0800F550730AD8A4A5
:1004180010EF02F012EF02F03DEF02F04BC0D9FFEF
:100428004CC0DAFFDE2A000EDD224DC0D9FF4EC0D7
:10043800DAFFDFCF4FF0020EDE26DFCF50F0000EDE
:10044800DD224FC0D9FF50C0DAFFDECF68F0DDCF24
:1004580069F049C010F04AC011F068C012F069C0D4
:1004680013F077EC0BF010C049F011C04AF059EFC7
:1004780003F04BC0D9FF4CC0DAFFDECFF6FFDDCF6B
:10048800F7FFF86A0800F550750AD8A44EEF02F095
:1004980050EF02F091EF02F04BC0D9FF4CC0DAFFE9
:1004A800DE2A000EDD224DC0D9FF4EC0DAFFDFCFB5
:1004B8004FF0020EDE26DFCF50F0000EDD224FC0D7
:1004C800D9FF50C0DAFFDECF51F0DDCF52F051C076
:1004D8006FF052C070F0716B726B736B746B756BED
:1004E800766B49C022F04AC023F06FC024F070C078
:1004F80025F071C026F072C027F073C028F074C0D0
:1005080029F075C02AF076C02BF0A7EC09F022C0BC
:1005180049F023C04AF059EF03F04BC0D9FF4CC053
:10052800DAFFDECFF6FFDDCFF7FFF86A0800F550F7
:10053800780AD8B4A2EF02F0A4EF02F0B7EF02F005
:100548004BC0D9FF4CC0DAFFDECFF6FFDDCFF7FF97
:10055800F86A0800F550580AD8A4B5EF02F0B7EFCA
:1005680002F006EF03F04BC0D9FF4CC0DAFFDECF34
:10057800F6FFDDCFF7FFF86A0800F5CF6AF04BC049
:10058800D9FF4CC0DAFFDE2A000EDD224DC0D9FFAC
:100598004EC0DAFFDFCF4FF0020EDE26DFCF50F07D
:1005A800000EDD224FC0D9FF50C0DAFFDECF51F078
:1005B800DDCF52F051C06FF052C070F0716B726BAA
:1005C800736B746B756B766B49C022F04AC023F06D
:1005D8006FC024F070C025F071C026F072C027F0FB
:1005E80073C028F074C029F075C02AF076C02BF0CB
:1005F8006AC02CF0CAEC04F022C049F023C04AF0CB
:1006080059EF03F04BC0D9FF4CC0DAFFDECFF6FF3D
:10061800DDCFF7FFF86A0800F550250AD8A417EFD0
:1006280003F019EF03F030EF03F04BC0D9FF4CC0D3
:10063800DAFFDE2A000EDD22000E086E250E076E98
:1006480049C009F04AC00AF0AEEC16F0000E4A6E36
:10065800010E496E59EF03F04BC0D9FF4CC0DAFFC9
:10066800DE2A000EDD22000E4A6E000E496E59EF9A
:1006780003F04BC0D9FF4CC0DAFFDECFF6FFDDCF69
:10068800F7FFF86A0800F550076E086A49C009F0D4
:100698004AC00AF0AEEC16F04BC0D9FF4CC0DAFFE6
:1006A800DE2A000EDD222AEF03F0120024C03CF0FF
:1006B80025C03DF026C03EF027C03FF028C040F0DE
:1006C80029C041F02AC042F02BC043F043BE6FEF6F
:1006D80003F072EF03F0010E73EF03F0000E3A6EB1
:1006E8003B6A3A503B10D8B47CEF03F07EEF03F03E
:1006F8008EEF03F0431E421E411E401E3F1E3E1E4B
:100708003D1E3C6C000E3D223E223F2240224122EB
:10071800422243220001A6BF94EF03F096EF03F0B4
:1007280097EF03F05792A6BFA4EF03F0A65106E196
:10073800A505D8B0A2EF03F0A4EF03F0AAEF03F0E9
:10074800000E376E010E366EAEEF03F0A5C036F020
:10075800A6C037F0A3C038F0A4C039F03A503B1017
:10076800D8A4B9EF03F0BBEF03F0C2EF03F057A42E
:10077800C0EF03F0C2EF03F0C5EF03F03806D8A0CE
:100788003906000E456E1F0E446E000E0101CE6F35
:100798004AEF04F04406D8A04506AF0E4424D96EAB
:1007A800010E4520DA6E3CC005F03DC006F03EC0A3
:1007B80007F03FC008F040C009F041C00AF042C04D
:1007C8000BF043C00CF00A0E0D6E000E0E6E000EFC
:1007D8000F6E000E106E000E116E000E126E000EDF
:1007E800136E000E146E95EC0EF005C02CF006C0CA
:1007F8002DF007C02EF008C02FF009C030F00AC055
:1008080031F00BC032F00CC033F02CC017F02EC002
:1008180018F0EBEC1BF01750300FDF6E3606D8A03F
:1008280037063806D8A039063CC005F03DC006F0AA
:100838003EC007F03FC008F040C009F041C00AF0D0
:1008480042C00BF043C00CF00A0E0D6E000E0E6E87
:10085800000E0F6E000E106E000E116E000E126E5E
:10086800000E136E000E146E11EC0DF005C03CF076
:1008780006C03DF007C03EF008C03FF009C040F098
:100888000AC041F00BC042F00CC043F045BE55EF22
:1008980004F0455008E14404D8A055EF04F057EFA0
:1008A80004F087EF04F03C503D103E103F1040101C
:1008B800411042104310D8A464EF04F066EF04F02E
:1008C800CEEF03F037BE73EF04F0375006E136047D
:1008D800D8B071EF04F073EF04F0CEEF03F039BE37
:1008E8007EEF04F0395008E13804D8A07EEF04F018
:1008F80080EF04F087EF04F057B285EF04F087EF3C
:1009080004F0CEEF03F03A503B10D8A48EEF04F079
:1009180090EF04F097EF04F057A495EF04F097EFE9
:1009280004F0B5EF04F04406D8A045063A503B1051
:10093800D8A4A1EF04F0A3EF04F0A9EF04F0000E8F
:10094800356E2B0E346EADEF04F0000E356E2D0EA5
:10095800346EAF0E4424D96E010E4520DA6E34C0D1
:10096800DFFF22C017F023C018F0AF0E4424196E21
:10097800010E45201A6E38C01BF039C01CF036EC49
:1009880015F017C022F018C023F012000001A6BF0E
:10099800D0EF04F0D2EF04F0D3EF04F05792A6BFE3
:1009A800E0EF04F0A65106E1A505D8B0DEEF04F0AB
:1009B800E0EF04F0E6EF04F0000E3A6E010E396E37
:1009C800EAEF04F0A5C039F0A6C03AF0A3C03BF0A6
:1009D800A4C03CF057A8F3EF04F0F5EF04F0F9EFEA
:1009E80004F0FE0E3B26FF0E3C2224C03DF025C03D
:1009F8003EF026C03FF027C040F028C041F029C093
:100A080042F02AC043F02BC044F0000E466E1F0E81
:100A1800456E000E0101CE6FC5EF05F04506D8A062
:100A280046060F0E3D14476E486A48BE25EF05F08E
:100A3800485009E10A0E475CD8A025EF05F027EFDA
:100A480005F02FEF05F0570E4724476E000E48209B
:100A5800486E35EF05F0300E4724476E000E4820EB
:100A6800486EBF0E2D6EFF0E2E6E2C502F6E306A04
:100A78002D502F262E50302230500AE11A0E2F5CAE
:100A8800D8A049EF05F04CEF05F0010E4DEF05F049
:100A9800000E356E366A35503610D8B456EF05F06C
:100AA80058EF05F088EF05F09F0E2D6EFF0E2E6EA5
:100AB800200E47102F6E000E4810306E2D502F2636
:100AC8002E50302230500AE11A0E2F5CD8A06FEF5A
:100AD80005F072EF05F0010E73EF05F0000E376EAA
:100AE800386A37503810D8B47CEF05F07EEF05F03F
:100AF80088EF05F047C00BF048C00CF0A9EC19F0DE
:100B08000BC047F00CC048F0AF0E4524D96E010E5B
:100B18004620DA6E47C0DFFF3906D8A03A063B0602
:100B2800D8A03C063DC02DF03EC02EF03FC02FF0AF
:100B380040C030F041C031F042C032F043C033F021
:100B480044C034F0050EB2EF05F0D8903432333299
:100B58003232313230322F322E322D32E82EA9EF96
:100B680005F02DC03DF02EC03EF02FC03FF030C044
:100B780040F031C041F032C042F033C043F034C0DD
:100B880044F046BED1EF05F0465009E1020E455C3F
:100B9800D8A0D1EF05F0D3EF05F003EF06F03D50F4
:100BA8003E103F1040104110421043104410D8A48A
:100BB800E0EF05F0E2EF05F012EF05F03ABEEFEFD7
:100BC80005F03A5006E13904D8B0EDEF05F0EFEF43
:100BD80005F012EF05F03CBEFAEF05F03C5008E1D5
:100BE8003B04D8A0FAEF05F0FCEF05F003EF06F0A0
:100BF80057B201EF06F003EF06F012EF05F057A821
:100C080008EF06F00AEF06F020EF06F04506D8A038
:100C18004606AF0E4524D96E010E4620DA6E2CC06A
:100C2800DFFF4506D8A04606AF0E4524D96E010E53
:100C38004620DA6E300EDF6E22C017F023C018F09F
:100C4800AF0E4524196E010E46201A6E3BC01BF0EC
:100C58003CC01CF036EC15F017C022F018C023F089
:100C6800120093C09DF094C09EF06D0E00017D6F40
:100C7800FF0E7E6FE3EC1CF05B0E00017D6FFB0E38
:100C88007E6F8FC07FF090C080F091C081F092C0DD
:100C980082F093C083F094C084F095C085F096C02C
:100CA80086F0E3EC1CF0DC0E00017D6FFC0E7E6F1D
:100CB8008FC07FF090C080F095C081F096C082F020
:100CC800E3EC1CF0CF0E096E010E0A6E440E0B6E9B
:100CD800FF0E0C6E1CEC19F095C08BF096C08CF0D2
:100CE800F5EC0FF000018B518C11D8B47EEF06F0B3
:100CF80080EF06F070EF06F0460E7D6FFD0E7E6FFA
:100D0800CF0E7F6F010E806FE3EC1CF038EC1DF006
:100D18000009D8B492EF06F094EF06F08AEF06F0D7
:100D280007EC1AF000019C6F790E9C19D8B49FEF5C
:100D380006F0A1EF06F0AAEF06F0590E9C19D8A408
:100D4800A8EF06F0AAEF06F07EEF07F0530E7D6FCE
:100D5800FE0E7E6FE3EC1CF0CF0E056E010E066EE4
:100D680088EC1AF005C099F006C09AF0800E0001D0
:100D78007D6FFF0E7E6F99C07FF09AC080F0E3EC24
:100D88001CF093C08BF094C08CF095C08DF096C089
:100D98008EF04BEC19F0000E0001A06F000E9F6F53
:100DA8000CEF07F0890E7D6FFE0E7E6FCF0E9F252C
:100DB800D96E010EA021DA6EDF50976F97517F6FC1
:100DC800806B9DC081F09EC082F0E3EC1CF09DC05A
:100DD80005F09EC006F0CF0E00019F25D96E010ECA
:100DE800A021DA6EDF50076E45EC1BF000019D4B29
:100DF8009E2B030E0001986F080E976F770EE82E52
:100E0800FED7972FFCD7982FFAD700019F4BA02B1E
:100E1800CF0E056E010E066E88EC1AF00550000123
:100E28009F5D0650A059D8A01CEF07F01EEF07F0F1
:100E3800D6EF06F0BB0E7D6FFE0E7E6FE3EC1CF066
:100E480093C09DF094C09EF0030E0001986F080EA9
:100E5800976F770EE82EFED7972FFCD7982FFAD7E3
:100E6800000E0001A06F000E9F6F62EF07F09DC09B
:100E780005F09EC006F044EC1DF000019B6FA80E23
:100E88007D6FFD0E7E6F9BC07FF0806B9DC081F0F3
:100E98009EC082F0E3EC1CF000019D4B9E2B030EDC
:100EA8000001986F080E976F770EE82EFED7972FE0
:100EB800FCD7982FFAD700019F4BA02BCF0E056EB9
:100EC800010E066E88EC1AF0055000019F5D065071
:100ED800A059D8A072EF07F074EF07F03BEF07F0C6
:100EE800CF0E096E010E0A6E440E0B6EFF0E0C6ECD
:100EF8001CEC19F01200000E0001966F000E956FA1
:100F0800000E926F000E916F000EAA6F000EA96F6F
:100F18000201005100018D6F8E6BD890A935D96EF2
:100F2800AA35DA6E410ED926010EDA228DC0DEFF0F
:100F38008EC0DDFFA94BAA2B0201015100018D6F64
:100F48008E6BD890A935D96EAA35DA6E410ED9269E
:100F5800010EDA228DC0DEFF8EC0DDFFA94BAA2B61
:100F68000201025100018D6F8E6BD890A935D96EA0
:100F7800AA35DA6E410ED926010EDA228DC0DEFFBF
:100F88008EC0DDFFA94BAA2B0201035100018D6F12
:100F98008E6BD890A935D96EAA35DA6E410ED9264E
:100FA800010EDA228DC0DEFF8EC0DDFFA94BAA2B11
:100FB8000201045100018D6F8E6BD890A935D96E4E
:100FC800AA35DA6E410ED926010EDA228DC0DEFF6F
:100FD8008EC0DDFFA94BAA2B0201055100018D6FC0
:100FE8008E6BD890A935D96EAA35DA6E410ED926FE
:100FF800010EDA228DC0DEFF8EC0DDFFA94BAA2BC1
:10100800000E946F000E936F40EF08F0080E9525C0
:10101800D96E020E9621DA6EDF508D6F070E952578
:10102800D96E020E9621DA6EDF508E6F8E51906F58
:101038008F6B8D518F25916F000E9021926F020E4C
:101048009525956F000E9621966F020103510001B8
:1010580093258D6F000E94218E6FD8908D378E3723
:10106800640E8D25D96E040E8E21DA6E91C0DEFFD6
:1010780092C0DDFF934B942B0201055100018D6F47
:101088008E6B8D51935D9451800A8F6F8E51800ABB
:101098008F59D8A052EF08F054EF08F00AEF08F083
:1010A800A9C005F0AAC006F0010E076E86EC13F081
:1010B80005C0A7F006C0A8F0A9C005F0AAC006F0B0
:1010C800000E076E86EC13F005C0BDF006C0BEF03A
:1010D800D8900001A935D96EAA35DA6E410ED92605
:1010E800010EDA22A7C0DEFFA8C0DDFFD890A9351F
:1010F800D96EAA35DA6E430ED926010EDA22BDC0A2
:10110800DEFFBEC0DDFF020EA925A96F000EAA21D1
:10111800AA6FB005D8A493EF08F095EF08F099EFFF
:1011280008F0B6EC18F010EC13F0410E066E010E44
:10113800076EA9C008F0AAC009F07CEC18F01200EC
:10114800000E0001AA6F000EA96F020100510001F4
:101158008D6F8E6BD890A935D96EAA35DA6E410E8F
:10116800D926010EDA228DC0DEFF8EC0DDFFA94B25
:10117800AA2B0201015100018D6F8E6BD890A93501
:10118800D96EAA35DA6E410ED926010EDA228DC043
:10119800DEFF8EC0DDFFA94BAA2B02010551020D0F
:1011A800D8900001A935D96EAA35DA6E410ED92634
:1011B800010EDA22F3CFDEFFF4CFDDFFA94BAA2B15
:1011C800000E926F000E916F3AEF09F00201035181
:1011D800000191258D6F000E92218E6FD8908D376A
:1011E8008E37A40E8D25D96E030E8E21DA6EDECFD2
:1011F8008FF0DDCF90F08F51BD6FBE6B02010351B0
:10120800000191258D6F000E92218E6FD8908D3739
:101218008E37A40E8D25D96E030E8E21DA6EDECFA1
:101228008FF0DDCF90F09051A76FA86BD890A935BB
:10123800D96EAA35DA6E410ED926010EDA22A7C078
:10124800DEFFA8C0DDFFA94BAA2BD890A935D96E1F
:10125800AA35DA6E410ED926010EDA22BDC0DEFFAC
:10126800BEC0DDFFA94BAA2B914B922B0201055161
:1012780000018D6F8E6B8D51915D9251800A8F6F39
:101288008E51800A8F59D8A04CEF09F04EEF09F023
:10129800EAEF08F0A9C005F0AAC006F0010E076E33
:1012A80086EC13F005C0A7F006C0A8F0A9C005F0A9
:1012B800AAC006F0000E076E86EC13F005C0BDF05C
:1012C80006C0BEF0D8900001A935D96EAA35DA6EED
:1012D800410ED926010EDA22A7C0DEFFA8C0DDFF25
:1012E800D890A935D96EAA35DA6E430ED926010EE3
:1012F800DA22BDC0DEFFBEC0DDFF020EA925A96F40
:10130800000EAA21AA6F1B0E7D6FFE0E7E6FA9C06C
:101318007FF0AAC080F0E3EC1CF00001B005D8A46F
:1013280098EF09F09AEF09F09CEF09F010EC13F030
:10133800410E066E010E076EA9C008F0AAC009F09A
:101348007CEC18F012000001A6BFADEF09F0AFEF7A
:1013580009F0B0EF09F05792A6BFBDEF09F0A6510A
:1013680006E1A505D8B0BBEF09F0BDEF09F0C3EF62
:1013780009F0000E356E010E346EC7EF09F0A5C0F6
:1013880034F0A6C035F0A3C036F0A4C037F024C0AE
:1013980038F025C039F026C03AF027C03BF028C005
:1013A8003CF029C03DF02AC03EF02BC03FF0000EB3
:1013B800416E1F0E406E000E0101CE6F5AEF0AF00B
:1013C8004006D8A04106AF0E4024D96E010E412038
:1013D800DA6E38C005F039C006F03AC007F03BC0F5
:1013E80008F03CC009F03DC00AF03EC00BF03FC019
:1013F8000CF00A0E0D6E000E0E6E000E0F6E000E33
:10140800106E000E116E000E126E000E136E000E9E
:10141800146ECEEC14F005C02CF006C02DF007C0F9
:101428002EF008C02FF009C030F00AC031F00BC010
:1014380032F00CC033F02C50300FDF6E3406D8A0D9
:1014480035063606D8A0370638C005F039C006F08C
:101458003AC007F03BC008F03CC009F03DC00AF0B4
:101468003EC00BF03FC00CF00A0E0D6E000E0E6E63
:10147800000E0F6E000E106E000E116E000E126E32
:10148800000E136E000E146E98EC12F005C038F0C2
:1014980006C039F007C03AF008C03BF009C03CF07C
:1014A8000AC03DF00BC03EF00CC03FF04050411068
:1014B800D8B461EF0AF063EF0AF093EF0AF03850FE
:1014C80039103A103B103C103D103E103F10D8A484
:1014D80070EF0AF072EF0AF0E4EF09F035BE7FEF23
:1014E8000AF0355006E13404D8B07DEF0AF07FEFFA
:1014F8000AF0E4EF09F037BE8AEF0AF0375008E146
:101508003604D8A08AEF0AF08CEF0AF093EF0AF0BD
:1015180057B291EF0AF093EF0AF0E4EF09F022C016
:1015280017F023C018F0AF0E4024196E010E4120A9
:101538001A6E36C01BF037C01CF036EC15F017C019
:1015480022F018C023F01200C60E00017D6FFD0EB8
:101558007E6FCF0E7F6F010E806FE3EC1CF0CF0E15
:10156800056E010E066EEE0E076EFF0E086E42EC5B
:1015780018F005500610D8A4C4EF0AF0C6EF0AF018
:10158800CBEF0AF047EC1CF0010E76EF0BF0CF0E14
:10159800056E010E066EFD0E076EFF0E086E42EC1C
:1015A80018F005500610D8A4DCEF0AF0DEEF0AF0B8
:1015B800E2EF0AF057EC16F0C8EF0AF0CF0E056E0E
:1015C800010E066EE70E076EFF0E086E42EC18F06D
:1015D80005500610D8A4F3EF0AF0F5EF0AF013EF60
:1015E8000BF022EECCF014EEA4F0130EDBCFE3FFE9
:1015F800E806FCE2A40E00018F6F040E906F030E44
:10160800926F000E916F030E946F000E936F000E91
:10161800966F0A0E956F35EC06F0C8EF0AF0CF0EFC
:10162800056E010E066EF40E076EFF0E086E42EC94
:1016380018F005500610D8A424EF0BF026EF0BF095
:1016480044EF0BF022EEB8F014EEB8F0130EDBCF37
:10165800E3FFE806FCE2B80E00018F6F040E906FFE
:10166800010E926F000E916F010E946F000E936F32
:10167800000E966F100E956F35EC06F0C8EF0AF065
:10168800CF0E056E010E066EF90E076EFF0E086E80
:1016980042EC18F005500610D8A455EF0BF057EFA0
:1016A8000BF075EF0BF022EEA4F014EECCF0130E55
:1016B800DBCFE3FFE806FCE2CC0E00018F6F040EDF
:1016C800906F020E926F000E916F020E946F000ED3
:1016D800936F000E966F020E956F35EC06F0C8EF0B
:1016E8000AF0000E120021EE22F010EE15F0060EA0
:1016F800DBCFE3FFE806FCE212C020F013C021F0C4
:1017080020502110D8A48BEF0BF08DEF0BF091EF48
:101718000BF0150E206E000E216E20C005F021C0C2
:1017280006F088EC1AF005C024F006C025F0A5C024
:1017380022F0A6C023F023BEA4EF0BF0A6EF0BF017
:10174800BBEF0BF02450225C2350800A146E255006
:10175800800A1458D8A0B3EF0BF0B5EF0BF0B7EF31
:101768000BF0BBEF0BF022C024F023C025F024C0FF
:1017780022F025C023F0A3C01EF0A4C01FF057B06C
:10178800C8EF0BF0CAEF0BF0E7EF0BF0D8EF0BF058
:10179800000E086E200E076E10C009F011C00AF086
:1017A800AEEC16F0244A252A1E50245C2550800AE7
:1017B800146E1F50800A1458D8A0E5EF0BF0E7EF1D
:1017C8000BF0CCEF0BF0000E1D6E000E1C6E0CEF34
:1017D8000CF020C0F6FF21C0F7FF000EF86E0E0EC9
:1017E800F76403D00800F55005D0F6CFE9FFF7CF2E
:1017F800EAFFEF50146E1450076E086A10C009F023
:1018080011C00AF0AEEC16F0204A212A1C4A1D2A03
:1018180022501C5C1D50800A146E2350800A1458F4
:10182800D8A019EF0CF01BEF0CF0EDEF0BF057A060
:1018380020EF0CF022EF0CF03FEF0CF030EF0CF043
:10184800000E086E200E076E10C009F011C00AF0D5
:10185800AEEC16F0244A252A1E50245C2550800A36
:10186800146E1F50800A1458D8A03DEF0CF03FEFBB
:101878000CF024EF0CF024C010F025C011F0120079
:10188800000E1A6E000E196E000E136E000E126E08
:1018980050EF0CF00C4A0D2A010E186E0CC0F6FF22
:1018A8000DC0F7FFF86A0800F550200AD8B45FEFBA
:1018B8000CF061EF0CF07FEF0CF0F70E0E6EFF0EE0
:1018C8000F6E0CC0F6FF0DC0F7FFF86A0800F55060
:1018D800106E116A0E5010260F501122115009E196
:1018E800050E105CD8A07BEF0CF07DEF0CF07FEFBD
:1018F8000CF0000E186E18C014F0156A145015106C
:10190800D8A489EF0CF08BEF0CF04EEF0CF095EFAC
:101918000CF0000E136E010E126E0C4A0D2ACCEF5D
:101928000CF00CC0F6FF0DC0F7FFF86A0800F55080
:101938000E6E0F6A0F50000AD8B4A5EF0CF0CCEF6A
:101948000CF00E502B0AD8B491EF0CF0060AD8B45C
:101958008DEF0CF0CCEF0CF019C005F01AC006F0B2
:10196800000E086E0A0E076E0AEC1DF00CC0F6FF9A
:101978000DC0F7FFF86A0800F550055E000E065A1C
:10198800300E0524196E000E06201A6E91EF0CF029
:10199800D00E0E6EFF0E0F6E0CC0F6FF0DC0F7FFD7
:1019A800F86A0800F550106E116A0E5010260F5094
:1019B800112211500AE10A0E105CD8A0E6EF0CF0D3
:1019C800E9EF0CF0010EEAEF0CF0000E166E176A44
:1019D80016501710D8A4F3EF0CF0F5EF0CF0B0EF99
:1019E8000CF012501310D8A4FCEF0CF0FEEF0CF022
:1019F8000CEF0DF019C00EF01AC00FF00E1E0F1EDE
:101A08000E4A0F2A0EC00CF00FC00DF010EF0DF0AB
:101A180019C00CF01AC00DF01200000E166E14BE9C
:101A28001AEF0DF018EF0DF02CEF0DF0141E131E29
:101A3800121E111E101E0F1E0E1E0D6C000E0E2201
:101A48000F2210221122122213221422010E166EC6
:101A58000CBE33EF0DF031EF0DF045EF0DF00C1E1D
:101A68000B1E0A1E091E081E071E061E056C000E08
:101A780006220722082209220A220B220C22010E22
:101A8800161A20EE17F0070EDE6AE806FDE20D5082
:101A98000E100F1010101110121013101410D8B4CB
:101AA80058EF0DF05AEF0DF0ACEF0DF0010E156E7A
:101AB80068EF0DF0D8900D360E360F361036113609
:101AC800123613361436152A14AE6DEF0DF06FEF7B
:101AD8000DF05EEF0DF0D8901736183619361A3615
:101AE8001B361C361D361E360D50055C0E5006582A
:101AF8000F500758105008581150095812500A58DA
:101B080013500B5814500C58D8A08DEF0DF08FEFD0
:101B18000DF0A0EF0DF00D50055E0E50065A0F5057
:101B2800075A1050085A1150095A12500A5A13509D
:101B38000B5A14500C5A1780D890143213321232A0
:101B4800113210320F320E320D32152E6FEF0DF0AA
:101B58001650D8B4B2EF0DF0B4EF0DF0C4EF0DF09D
:101B68001E1E1D1E1C1E1B1E1A1E191E181E176C5B
:101B7800000E182219221A221B221C221D221E22A4
:101B880017C005F018C006F019C007F01AC008F011
:101B98001BC009F01CC00AF01DC00BF01EC00CF0E1
:101BA8001200D0EC1DF05CEC1DF00009D8B4DFEF9A
:101BB8000DF0E1EF0DF093EF0EF0D30E00017D6F05
:101BC800FE0E7E6FE3EC1CF05CEC1DF00009D8B44F
:101BD800F0EF0DF0F2EF0DF021EF0EF014EF0EF034
:101BE80033EC1AF0566E000E0001AB25D96E050EC7
:101BF800AC21DA6E56C0DFFFC20E7D6FFF0E7E6F1E
:101C0800000EAB25D96E050EAC21DA6EDF50566E8C
:101C180056507F6F806BE3EC1CF00001AB4BAC2B94
:101C28005CEC1DF00009D8A41CEF0EF01EEF0EF0BE
:101C3800F4EF0DF0010E0001AF6F0001AF05D8A45D
:101C480028EF0EF02AEF0EF046EF0EF065EC14F0D8
:101C5800FCEC1AF0000E0001AF6F000EAC6F000E26
:101C6800AB6F83B83AEF0EF03DEF0EF0010E3EEF8A
:101C78000EF0000EFF0A566E563A83505618EF0BB8
:101C88005618836E670E7D6FFD0E7E6FADC07FF0B8
:101C9800AEC080F03DC181F03EC182F0E3EC1CF0A3
:101CA80001013D510001AD1909E101013E51000159
:101CB800AE19D8A462EF0EF064EF0EF0E8EF0DF065
:101CC80083BA69EF0EF06CEF0EF0010E6DEF0EF0B7
:101CD800000EFF0A566E563A564683505618DF0BCA
:101CE8005618836E47EC0FF0E806D8A47EEF0EF086
:101CF80080EF0EF089EF0EF0300E00017D6FFF0EC1
:101D08007E6FE3EC1CF090EF0EF06E0E00017D6F1D
:101D1800FE0E7E6FE3EC1CF0010E94EF0EF0000E49
:101D28001200000E166E0CBE9EEF0EF09CEF0EF029
:101D3800B0EF0EF00C1E0B1E0A1E091E081E071E11
:101D4800061E056C000E06220722082209220A2216
:101D58000B220C22010E166E14BEB7EF0EF0B5EF73
:101D68000EF0C7EF0EF0141E131E121E111E101EC9
:101D78000F1E0E1E0D6C000E0E220F2210221122B5
:101D88001222132214220D500E100F1010101110D1
:101D9800121013101410D8B4D4EF0EF0D6EF0EF0C2
:101DA8001EEF0FF0010E156EE4EF0EF0D8900D3611
:101DB8000E360F3610361136123613361436152AEB
:101DC80014AEE9EF0EF0EBEF0EF0DAEF0EF00D5077
:101DD800055C0E5006580F500758105008581150FF
:101DE800095812500A5813500B5814500C58D8A0C0
:101DF80000EF0FF002EF0FF012EF0FF00D50055E3D
:101E08000E50065A0F50075A1050085A1150095AC6
:101E180012500A5A13500B5A14500C5AD8901432B4
:101E280013321232113210320F320E320D32152E99
:101E3800EBEF0EF01650D8B424EF0FF026EF0FF0AA
:101E480036EF0FF00C1E0B1E0A1E091E081E071E79
:101E5800061E056C000E06220722082209220A2205
:101E68000B220C2205C005F006C006F007C007F0DB
:101E780008C008F009C009F00AC00AF00BC00BF04E
:101E88000CC00CF01200000196699769000E936F60
:101E9800000E926F000E956F000E946F000E996FF2
:101EA800000E986F87EF0FF0000E9825D96E020E7E
:101EB8009921DA6EDF508B6F8B51961B000E956F50
:101EC800080E946F96A16BEF0FF06DEF0FF076EFA1
:101ED8000FF0D89097339633010E961BA00E971BE0
:101EE80079EF0FF0D890973396339407D8A09507D9
:101EF80094519511D8A483EF0FF085EF0FF066EF9A
:101F08000FF0984B992BFE0E8B6FFF0E8C6FADC0A8
:101F18008DF0AEC08EF08B518D278C518E238D5154
:101F2800985D9951800A8F6F8E51800A8F59D8A079
:101F3800A0EF0FF0A2EF0FF058EF0FF09651906F4F
:101F4800916B96C08BF097C08CF08CC08BF08C6B2B
:101F58008B51926F936BB005D8A4B5EF0FF0B7EF24
:101F68000FF0C5EF0FF0000E7D6FFD0E7E6F90C075
:101F78007FF091C080F092C081F093C082F0E3ECD2
:101F88001CF0000E00019825D96E020E9921DA6E18
:101F9800DF508B6F8C6B90518B1907E191518C1925
:101FA800D8A4D9EF0FF0DBEF0FF0F3EF0FF0010E2D
:101FB8009825D96E020E9921DA6EDF508B6F8C6BE3
:101FC80092518B1907E193518C19D8A4EEEF0FF0B9
:101FD800F0EF0FF0F3EF0FF0010EF4EF0FF0000E3B
:101FE800120039C155F03AC156F038EC1DF000091D
:101FF800D8B401EF10F003EF10F081EF10F038ECD7
:102008001DF00009D8B40BEF10F00DEF10F05DEFE4
:1020180010F007EC1AF0556E5550D8EC19F00D0E6B
:102028005518D8B41AEF10F01CEF10F026EF10F086
:10203800CF0E136E010E146E550E156E000E166E31
:10204800F7EC1CF0CF0E056E010E066E88EC1AF048
:10205800055000018B5D06508C59D8B036EF10F052
:1020680038EF10F04CEF10F0CF0E096E010E0A6E2B
:10207800D00E0B6E010E0C6ECF0E056E010E066EA5
:1020880088EC1AF005C00DF006C00EF0F7EC13F05E
:102098000D0E5518D8A453EF10F055EF10F05DEF62
:1020A80010F07A0E556E8BC08BF08CC08CF086EFDA
:1020B80010F00D0E5518D8A464EF10F066EF10F06C
:1020C80003EF10F0CF0E056E010E066E88EC1AF0C5
:1020D800CE0E0524D96E010E0620DA6E000EDF6ED4
:1020E800410E00017D6FFF0E7E6FE3EC1CF0CF0EFA
:1020F800056E010E066E88EC1AF0000E00018C6F5A
:10210800000E8B6F1200000E106E000E0F6E000E88
:10211800126E000E116E030E0C6E000E0B6E000E8A
:10212800106E000E0F6E0BC005F00CC006F044ECEC
:102138001DF00D6E030E0A6E080E096E770EE82E5E
:10214800FED7092EFCD70A2EFAD700F00D28D8B4EE
:10215800B0EF10F0B2EF10F0BCEF10F01150072400
:10216800D96E12500820DA6E0DC0DFFF114A122A0C
:102178000B4A0C2A0BC005F00CC006F044EC1DF00D
:102188000E6E0B4A0C2A030E0A6E080E096E770EA5
:10219800E82EFED7092EFCD70A2EFAD700F00E2813
:1021A800D8B4D9EF10F0DBEF10F0E5EF10F01150D4
:1021B8000724D96E12500820DA6E0EC0DFFF114ACC
:1021C800122A0E500DC009F00A6A09C00AF0096AFD
:1021D8000926000E0A22D8900F34D96E1034DA6E10
:1021E800180ED926010EDA2209C0DEFF0AC0DDFF6B
:1021F8000F4A102A10BE0AEF11F0105009E1040E20
:102208000F5CD8A00AEF11F00CEF11F097EF10F067
:1022180011500724D96E12500820DA6E000EDF6EB6
:102228001200000E0001AA6F000EA96F02010051F2
:1022380000018F6F906BD890A935D96EAA35DA6EE8
:10224800410ED926010EDA228FC0DEFF90C0DDFFD5
:10225800A94BAA2B0201015100018F6F906B800ED0
:102268008F27000E9023D890A935D96EAA35DA6E3B
:10227800410ED926010EDA228FC0DEFF90C0DDFFA5
:10228800A94BAA2BD890A935D96EAA35DA6E410E7A
:10229800D926010EDA228DC0DEFF8EC0DDFFA94BE4
:1022A800AA2BA9C005F0AAC006F0010E076E86EC9D
:1022B80013F005C0A7F006C0A8F0A9C005F0AAC091
:1022C80006F0000E076E86EC13F005C0BDF006C0E0
:1022D800BEF0D8900001A935D96EAA35DA6E410E44
:1022E800D926010EDA22A7C0DEFFA8C0DDFFD890EC
:1022F800A935D96EAA35DA6E430ED926010EDA222F
:10230800BDC0DEFFBEC0DDFF020EA925A96F000E0D
:10231800AA21AA6F10EC13F0410E066E010E076E8B
:10232800A9C008F0AAC009F07CEC18F012002BEC48
:102338001DF0F28EF28C8398839A839C839E57ECCF
:1023480016F0D0EC1DF0FCEC1AF0B0EC1AF0D5EC5D
:102358000DF0E806D8A4B3EF11F0B5EF11F0FCEFDB
:1023680011F00001B005D8A4BCEF11F0BEEF11F0D8
:10237800E5EF11F040EC17F0E5EF11F0A4EC08F0F0
:10238800D6EC1AF0B0EC1AF0ABEF11F0450E7D6FF9
:10239800FF0E7E6FE3EC1CF0B6EC18F07FEC07F054
:1023A800C4EF11F0370E7D6FFE0E7E6FE3EC1CF06C
:1023B800000E00018E6F010E8D6F15EC11F0C4EF49
:1023C80011F0020101510001A16FA26BA251000A94
:1023D800D8B4F1EF11F0D6EF11F0A151030AD8B437
:1023E800C2EF11F0130AD8B4CAEF11F0D6EF11F00A
:1023F800000E00018C6F100E8B6FF5EC0FF00001D2
:102408008B518C11D8B40BEF12F00DEF12F01BEFBB
:1024180012F0A8EC0AF0CF0E096E010E0A6E440EF7
:102428000B6EFF0E0C6E1CEC19F0ABEF11F0ABEF5E
:1024380011F093EF00F0960EF66E370EF76E000E61
:10244800F86E04EE64F010EE40F00900F5CFEEFFF0
:10245800E550E150FAE1560EF66E370EF76E000EB3
:10246800F86E03EEA4F010EE40F00900F5CFEEFF91
:10247800E550E150FAE1160EF66E380EF76E000ED2
:10248800F86E02EEA4F010EE3CF00900F5CFEEFF76
:10249800E550E150FAE1080EF66E2F0EF76E000EC9
:1024A800F86E01EE00F010EE81F00900F5CFEEFFB6
:1024B800E550E150FAE1C20EF66E3B0EF76E000EE3
:1024C800F86E0900F5CFBDF00900F5CFBEF005EEB6
:1024D80000F0640EEE6AE806FDE104EE00F0640E1A
:1024E800EE6AE806FDE103EE00F0A40EEE6AE806E7
:1024F800FDE102EE00F0A40EEE6AE806FDE101EE51
:1025080081F05E0EEE6AE806FDE100EEA3F0180E1B
:10251800EE6AE806FDE15A6A596A586A576A5B909A
:102528005B9200019BEF11F020EE15F0070EDE6ABA
:10253800E806FDE20D500E100F10101011101210C9
:1025480013101410D8B4ABEF12F0ADEF12F0FFEF88
:1025580012F0010E1D6EBBEF12F0D8900D360E363C
:102568000F36103611361236133614361D2A14AEAD
:10257800C0EF12F0C2EF12F0B1EF12F0D89015369A
:1025880016361736183619361A361B361C360D50BD
:10259800055C0E5006580F50075810500858115037
:1025A800095812500A5813500B5814500C58D8A0F8
:1025B800E0EF12F0E2EF12F0F3EF12F00D50055ECB
:1025C8000E50065A0F50075A1050085A1150095AFF
:1025D80012500A5A13500B5A14500C5A1580D8909E
:1025E800143213321232113210320F320E320D32CF
:1025F8001D2EC2EF12F015C005F016C006F017C068
:1026080007F018C008F019C009F01AC00AF01BC07A
:102618000BF01CC00CF012001B0E00017D6FFE0EAB
:102628007E6FA9C07FF0AAC080F0E3EC1CF074ECC8
:102638001DF00009D8B423EF13F025EF13F01BEFBA
:1026480013F0000E00018C6F000E8B6F5BEF13F020
:1026580074EC1DF00009D8B434EF13F036EF13F022
:102668002CEF13F0A20E00017D6FFE0E7E6F8BC063
:102678007FF08CC080F0D8908B35D96E8C35DA6EAF
:10268800410ED926010EDA22DECF81F0DDCF82F0AD
:10269800E3EC1CF080EC1DF00009D8B456EF13F001
:1026A80058EF13F04EEF13F000018B4B8C2BA95110
:1026B8008B5D8C51800A556EAA51800A5558D8A056
:1026C80068EF13F06AEF13F02CEF13F074EC1DF0C1
:1026D8000009D8B472EF13F074EF13F06AEF13F037
:1026E800410E00017D6FFF0E7E6FE3EC1CF080EC65
:1026F8001DF00009D8B483EF13F085EF13F07BEFDA
:1027080013F0120012681368000E0D6E000E0C6EA6
:10271800000E116E000E106E000E0F6E000E0E6E83
:10272800C8EF13F0D8900E34D96E0F34DA6E410E1C
:10273800D926010EDA22DE50121ADD50131A000EC5
:10274800116E080E106E12A0ACEF13F0AEEF13F07E
:10275800B7EF13F0D89013321232010E121AA00EEE
:10276800131ABAEF13F0D890133212321006D8A009
:10277800110610501110D8A4C4EF13F0C6EF13F0CF
:10278800A7EF13F00E4A0F2A05500E5C0F50800A6F
:10279800086E0650800A0858D8A0D5EF13F0D7EF76
:1027A80013F096EF13F012500A6E0B6A12C008F07D
:1027B80013C009F009C008F0096A08500C6E0D6AC8
:1027C8000704D8A4EAEF13F0ECEF13F0F2EF13F0DC
:1027D8000AC005F00BC006F0F6EF13F00CC005F0C8
:1027E8000DC006F012000BC013F00CC014F009C0A5
:1027F80011F00AC012F01150135C12501458D8B0DE
:1028080008EF14F00AEF14F041EF14F00D50132400
:102818000F6E0E501420106E0F50115C105012588D
:10282800D8B019EF14F01BEF14F041EF14F00D506D
:1028380013260E5014220D5011260E501222130684
:10284800D8A0140613C0D9FF14C0DAFF1106D8A007
:10285800120611C0E1FF12C0E2FFDFCFE7FF0D064D
:10286800D8A00E060D500E10D8A43DEF14F03FEF7F
:1028780014F023EF14F064EF14F00D500E10D8B4D8
:1028880048EF14F04AEF14F064EF14F013C0D9FFC6
:1028980014C0DAFF11C0E1FF12C0E2FFDFCFE7FF8B
:1028A800134A142A114A122A0D06D8A00E060D50F2
:1028B8000E10D8A462EF14F064EF14F04AEF14F08D
:1028C8001200000E00018C6F000E8B6F000E8C6FD3
:1028D800000E8B6F82EF14F0000E8B25D96E050E5B
:1028E8008C21DA6E000EAD25E16E020EAE21E26E8D
:1028F800DFCFE7FFAD4BAE2B8B4B8C2BAB518B5DFA
:102908008C51800A556EAC51800A5558D8A08FEF6B
:1029180014F091EF14F070EF14F0B005D8A497EF0D
:1029280014F099EF14F0AAEF14F0480E7D6FFC0E26
:102938007E6FE3EC1CF0FF0E00017D6FFD0E7E6FD5
:10294800ADC07FF0AEC080F0E3EC1CF00F0E0201CA
:102958000119D8A4B2EF14F0B4EF14F0BDEF14F0DD
:10296800090E062501013D6F3E6B000E3E23CDEF9B
:1029780014F0100E0119D8A4C4EF14F0C6EF14F027
:10298800C8EF14F0B4EF14F0000E01013E6F080E0A
:102998003D6F12000D500E100F1010101110121074
:1029A80013101410D8B4DBEF14F0DDEF14F025EF9A
:1029B80015F0010E156EEBEF14F0D8900D360E36AB
:1029C8000F3610361136123613361436152A14AE51
:1029D800F0EF14F0F2EF14F0E1EF14F00D50055C95
:1029E8000E5006580F5007581050085811500958E3
:1029F80012500A5813500B5814500C58D8A007EF0F
:102A080015F009EF15F019EF15F00D50055E0E5091
:102A1800065A0F50075A1050085A1150095A1250A6
:102A28000A5A13500B5A14500C5AD89014321332B5
:102A38001232113210320F320E320D32152EF2EFE1
:102A480014F005C005F006C006F007C007F008C07E
:102A580008F009C009F00AC00AF00BC00BF00CC05E
:102A68000CF0120057A03BEF15F03DEF15F047EFC3
:102A780015F019C010F01AC011F017C012F018C0E4
:102A880013F067EC1BF01CBE4CEF15F04EEF15F081
:102A980054EF15F01BC020F01CC021F058EF15F0C2
:102AA800000E216E000E206E000E1F6E000E1E6EB0
:102AB8006AEF15F0000E086E200E076E17C009F0B9
:102AC80018C00AF0AEEC16F01E4A1F2A20501E5CF1
:102AD8001F50800A1D6E2150800A1D58D8A077EF1C
:102AE80015F079EF15F05EEF15F057B07EEF15F0A1
:102AF80080EF15F08AEF15F019C010F01AC011F028
:102B080017C012F018C013F067EC1BF019C005F0DD
:102B18001AC006F088EC1AF020500524176E2150D0
:102B28000620186E1200810E5A24D96EDA6A010E38
:102B3800DA22000EDF6E0E019DA5A5EF15F0A7EFB6
:102B480015F0BBEF15F0810E5A24D96EDA6A010E22
:102B5800DA220101DF8202D8BBEF15F00500FA6E18
:102B6800E951FD6EEA51FE6EFF6AFA5012000E013D
:102B78009DA3C1EF15F0C3EF15F0D7EF15F0810E47
:102B88005A24D96EDA6A010EDA220101DF8402D8EA
:102B9800D7EF15F00500FA6EE751FD6EE851FE6EAD
:102BA800FF6AFA501200810E5A24D96EDA6A010EB1
:102BB800DA22DF50D8B4E3EF15F0E5EF15F0F4EFC3
:102BC80015F002D8F2EF15F00500FA6E0101E55193
:102BD800FD6EE651FE6EFF6AFA501200F6EF15F030
:102BE800B7EC1CF01200000E5924D96EDA6A030EF5
:102BF800DA22000EDF6E9DA404EF16F006EF16F041
:102C08001BEF16F0000E5924D96EDA6A030EDA2289
:102C18000301DF8202D81BEF16F00500FA6E0101EE
:102C2800E351FD6EE451FE6EFF6AFA5012009DA258
:102C380020EF16F022EF16F037EF16F0000E5924A9
:102C4800D96EDA6A030EDA220301DF8402D837EF7D
:102C580016F00500FA6E0101E151FD6EE251FE6EBB
:102C6800FF6AFA501200000E5924D96EDA6A030E70
:102C7800DA22DF50D8B443EF16F045EF16F054EFE0
:102C880016F002D852EF16F00500FA6E0101DF5176
:102C9800FD6EE051FE6EFF6AFA50120056EF16F014
:102CA800CDEC1CF0120020EE8BF00A0EDE6AE8066E
:102CB800FDE28B0E076E000E086E87EC10F09E0E7C
:102CC80000017D6FFB0E7E6FE3EC1CF0E2EC1DF063
:102CD8005A0E00017D6FFF0E7E6F8B0E7F6F000E08
:102CE800806FE3EC1CF01A0E00017D6FFF0E7E6F03
:102CF800E3EC1CF0B20E00017D6FFC0E7E6FD20E6D
:102D08007F6FFF0E806FDE0E816FFF0E826F080EE1
:102D1800846F340E836FE3EC1CF0E30E00017D6FCB
:102D2800FD0E7E6FE3EC1CF07E0E00017D6FFC0E45
:102D38007E6FE3EC1CF0120E00017D6FFC0E7E6FBF
:102D4800E3EC1CF0240E00017D6FFD0E7E6FE3ECBA
:102D58001CF0120009500A10D8B4B5EF16F0B7EFFE
:102D680016F0C0EF16F009500A10D8A4BEEF16F0FE
:102D7800C0EF16F0C5EF16F00750C7EC1DF0F8EFDE
:102D880016F020EE04F00950D9260A50DA22DE5057
:102D9800DE10D8B4D2EF16F0D4EF16F0EFEF16F03D
:102DA80020EE04F00950D9260A50DA2210EE02F07B
:102DB8000950E1260A50E222DE50E65CE650800A1D
:102DC8000F6EDE50800A0F58D8B0EDEF16F0EFEF17
:102DD80016F0F8EF16F020EE02F00950D9260A5046
:102DE800DA22DE2A000EDD221200000E876E000EA7
:102DF800866E000E836E000E846E000E856E070EC2
:102E08008C6E070E886EBF0E896EBF0E8A6EFE0E20
:102E18008B6E0F0126693B0E216F370E196F070E57
:102E28002E6F1169000E256F000E2D6F000E186FA2
:102E3800000E106F000E206F000E2C6F000E0F6F2B
:102E4800000E176F000E1F6F000E246F0E691669B3
:102E58001E692369070E2B6F0D6915691D692269A3
:102E68000F0E2A6F170E0E01B56F0B0EF56F090EB8
:102E7800FD6F0F0E8D6F1200880E00017D6FFD0E25
:102E88007E6FE3EC1CF00001B005D8A44EEF17F0FC
:102E980050EF17F083EF17F0000E8C6F000E8B6F5A
:102EA8006EEF17F0030E7D6FFF0E7E6F8BC07FF005
:102EB8008CC080F0000E8B25D96E020E8C21DA6E44
:102EC800DF50556E5550816F826BE3EC1CF00001AA
:102ED8008B4B8C2BAD518B5D8C51800A556EAE514E
:102EE800800A5558D8A07BEF17F07DEF17F056EF02
:102EF80017F0410E7D6FFF0E7E6FE3EC1CF01200A1
:102F080050413030363033303330302D0032554177
:102F180020473930303231323132393030300031B7
:102F28003930286E756C6C29005A04F100C40137D9
:102F380031353339344D0030305A00FFFF08000472
:102F480000FFFF000000000000000000000000007B
:102F58000000000000000000000000000000000069
:102F68000000000000000000000000000000000059
:102F78000000000000000000000000000000000049
:012F88000048
:102F8A000E01C59F2E0E056E2B0E066E9AEC1DF0D5
:102F9A000E01C59D420E056E360E066E95EC1DF0AD
:102FAA00080E0E019F6F900E9D6F240E9E6FA00E4D
:102FBA009B6F010E9C6FC60E056E3B0E066EA4EC4F
:102FCA001DF0980E056E3B0E066E9FEC1DF0AC0EC2
:102FDA00056E3B0E066EA9EC1DF0000E0001B66FE1
:102FEA00000EBA6F000EB96F200EBC6F000E5A6E3B
:102FFA00000EB86F000EB76F0E01C58F12000E01DA
:10300A00C59BEE0E056E2B0E066EB3EC1DF00E017F
:10301A00C599120E056E370E066EAEEC1DF0080E3F
:10302A009F6E900E9D6E240E9E6E400E9B6E030E3A
:10303A009C6EC80E056E3B0E066EBDEC1DF0B20E00
:10304A00056E3B0E066EB8EC1DF0B80E056E3B0E13
:10305A00066EC2EC1DF0000E0001B16F000EB56FD6
:10306A00000EB46F400EBB6F000E596E000EB36FA8
:10307A00000EB26F0E01C58B120048EF18F0054A18
:10308A00062A074A082A05C0D9FF06C0DAFFDF5018
:10309A00096E07C0F6FF08C0F7FFF86A0800F55086
:1030AA000918D8A45BEF18F05DEF18F069EF18F073
:1030BA0005C0D9FF06C0DAFFDF50D8A467EF18F0C1
:1030CA0069EF18F044EF18F005C0D9FF06C0DAFF1F
:1030DA00DF50096E07C0F6FF08C0F7FFF86A08005C
:1030EA00F550095C056E066AD8A006061200D3ECF4
:1030FA001DF068EC1DF00009D8B486EF18F088EFCF
:10310A0018F07EEF18F0000E0C6E000E0B6EA6EF94
:10311A0018F0D8900B34D96E0C34DA6E0650D926D2
:10312A000750DA22DF507AEC19F08BEC1DF0000917
:10313A00D8B4A2EF18F0A4EF18F09AEF18F00B4ADF
:10314A000C2A08500B5C0C50800A0A6E0950800A3F
:10315A000A58D8A0B3EF18F0B5EF18F08EEF18F0B0
:10316A001200B20E00017D6FFF0E7E6FE3EC1CF0C1
:10317A00000E566E000E556EEB0E00017D6FFE0EB0
:10318A007E6F55C07FF056C080F0D8905534D96E06
:10319A005634DA6E640ED926040EDA22DECF81F0B6
:1031AA00DDCF82F0E3EC1CF0554A562A56BEE7EF13
:1031BA0018F0565009E1200E555CD8A0E7EF18F038
:1031CA00E9EF18F0C1EF18F0120079C053F07AC095
:1031DA0054F0000E0101AD6F000EAC6F08EF19F04C
:1031EA0077C049F078C04AF0530E4B6E000E4C6E11
:1031FA007BC04DF07CC04EF095EC00F049500101C7
:10320A00AC274A50AD2353C0F6FF54C0F7FFF86A03
:10321A000800F5500009D8A415EF19F017EF19F0B6
:10322A00F5EF18F0ACC177F0ADC178F012000BC021
:10323A000FF00CC010F009C011F00AC012F00F50C4
:10324A000D6E10500E6E0F4A102A0DC0F6FF0EC0FA
:10325A00F7FF000EF86E11C0D9FF12C0DAFF114A4B
:10326A00122A0E0EF76403D00800F55005D0F6CFE7
:10327A00E9FFF7CFEAFFEF50DF6EDF50D8A448EF3F
:10328A0019F04AEF19F024EF19F01200DB0E0001D1
:10329A007D6FFB0E7E6F8BC07FF08CC080F08DC07F
:1032AA0081F08EC082F0E3EC1CF0000E566E000E28
:1032BA00556E6DEF19F08BC005F08CC006F0FF0E4D
:1032CA00076E45EC1BF000018B4B8C2B554A562A96
:1032DA0000018D51555C8E515658D8A077EF19F0E0
:1032EA0079EF19F060EF19F01200056E0001BB5179
:1032FA00D8B482EF19F084EF19F07BEF19F00E01C0
:10330A00C5B98AEF19F08CEF19F090EF19F005C0E2
:10331A009AFFA6EF19F0C599640E0001B525D96E7A
:10332A00DA6A030EDA2205C0DFFFB52B3F0EB56558
:10333A00A1EF19F0A3EF19F0A5EF19F0000EB56F80
:10334A00BB070E01C58912009F0E0D6EFF0E0E6E91
:10335A000BC00FF00CC010F00D500F260E501022AB
:10336A0010500AE11A0E0F5CD8A0BEEF19F0C1EF97
:10337A0019F0010EC2EF19F0000E116E126A115007
:10338A001210D8B4CBEF19F0CDEF19F0D3EF19F032
:10339A005F0E0B140B6E0C6AD7EF19F00BC00BF013
:1033AA000CC00CF01200056E0001BC51D8B4E0EF5D
:1033BA0019F0E2EF19F0D9EF19F00E01C5BDE8EFE7
:1033CA0019F0EAEF19F0EEEF19F005C09AFE04EFD2
:1033DA001AF0C59D840E0001BA25D96EDA6A020E6A
:1033EA00DA2205C0DFFFBA2B1F0EBA65FFEF19F00C
:1033FA0001EF1AF003EF1AF0000EBA6FBC070E01C4
:10340A00C58D12000001B751D8B40EEF1AF010EFB3
:10341A001AF007EF1AF0810EB825D96EDA6A010E92
:10342A00DA22DF50B66F640EB825D96EDA6A020E58
:10343A00DA22DF50056EB82B1F0EB86527EF1AF097
:10344A0029EF1AF02BEF1AF0000EB86F0E01C59F84
:10345A000001B7070E01C58F055012000001B251D5
:10346A00D8B43AEF1AF03CEF1AF033EF1AF0000E24
:10347A00B325D96EDA6A030EDA22DF50B16F000E75
:10348A00B325D96EDA6A040EDA22DF50056EB32B41
:10349A00630EB36553EF1AF055EF1AF057EF1AF0AF
:1034AA00000EB36F0E01C59B0001B2070E01C58B5A
:1034BA0005501200010E0B6E200E05180610D8B426
:1034CA0069EF1AF06BEF1AF084EF1AF0F70E076E35
:1034DA00FF0E086E05C009F006C00AF0075009265B
:1034EA0008500A220A5009E1050E095CD8A080EFAB
:1034FA001AF082EF1AF084EF1AF0000E0B6E0BC06E
:10350A0005F0066A120005C007F006C008F090EF41
:10351A001AF0054A062A05C0F6FF06C0F7FF000E94
:10352A00F86E0E0EF76403D00800F55005D0F6CFFA
:10353A00E9FFF7CFEAFFEF500009D8A4A7EF1AF086
:10354A00A9EF1AF08EEF1AF00750055C056E0850C5
:10355A000658066E1200000E066E000E056E000E6C
:10356A00066E000E056ED8900534D96E0634DA6EF2
:10357A00410ED926010EDA22FF0EDE6EFF0EDD6E37
:10358A00054A062A06BED3EF1AF0065009E1200EB4
:10359A00055CD8A0D3EF1AF0D5EF1AF0B8EF1AF0FD
:1035AA001200000E066E000E056E000E066E000E6C
:1035BA00056E000E0524D96E020E0620DA6EFF0E85
:1035CA00DF6E054A062A06BEF4EF1AF0065009E134
:1035DA00630E055CD8A0F4EF1AF0F6EF1AF0DEEFEE
:1035EA001AF0000E0001AE6F000EAD6F1200000E51
:1035FA00076E000E066E000E076E000E066E10EFC6
:10360A001BF0000E0624D96E050E0720DA6EFF0E97
:10361A00DF6E064A072A0001AB51065C0750800A92
:10362A00056EAC51800A0558D8A01EEF1BF020EF9A
:10363A001BF006EF1BF01200200E0001BC6128EF00
:10364A001BF02AEF1BF042EF1BF0840EB925D96E4E
:10365A00DA6A020EDA22DF500E019A6F0001B92BE4
:10366A001F0EB9653BEF1BF03DEF1BF03FEF1BF060
:10367A00000EB96FBC2B44EF1BF00E01C59D120062
:10368A00000EF2BE010E086E0650030B7F6E05C0D7
:10369A007EFF07C080FF3F0E81168184F29E550E81
:1036AA00826EAA0E826E818281B25EEF1BF060EF9B
:1036BA001BF059EF1BF0819408B002D0F29E01D0A2
:1036CA00F28E1200000E166E000E156E78EF1BF0C9
:1036DA0014C007F0086A12C009F013C00AF0AEEC71
:1036EA0016F0154A162A15501024D96E16501120B4
:1036FA00DA6EDF50146E1450D8A486EF1BF088EFF0
:10370A001BF06DEF1BF01200400E0001BB6190EF41
:10371A001BF092EF1BF0A8EF1BF0640EB425D96ED4
:10372A00DA6A030EDA22DF509A6EB42B3F0EB465C2
:10373A00A1EF1BF0A3EF1BF0A5EF1BF0000EB46F77
:10374A00BB2BAAEF1BF00E01C59912000100020063
:10375A0003000400050006000700080009000A002B
:10376A000B000C000D000E000F00100011001200DB
:10377A0013001400150016001700180019001A008B
:10378A001B001C001D001E001F00200020001F003F
:10379A001E001D001C001B001A001900180017004B
:1037AA0016001500140013001200110010000F007B
:1037BA000E000D000C000B000A00090008000700AB
:1037CA0006000500040003000200010018BEF8EF1D
:1037DA001BF0185006E11704D8B0F6EF1BF0F8EF0B
:1037EA001BF006EF1CF017C019F018C01AF0191ECA
:1037FA001A1E194A1A2A19C017F01AC018F00AEF25
:10380A001CF017C017F018C018F01200526576693C
:10381A0073696F6E000000000000000000000000E5
:10382A0050617274204E756D62657200000000006E
:10383A000000000053657269616C204E756D626507
:10384A0072000000000000009F0E076EFF0E086E57
:10385A00200E0510096E000E06100A6E0750092682
:10386A0008500A220A500AE11A0E095CD8A040EF51
:10387A001CF043EF1CF0010E44EF1CF0000E056E25
:10388A00066A12000001B051D8A44EEF1CF050EFA6
:10389A001CF05AEF1CF0010EB06FA20E7D6FFF0EE6
:1038AA007E6FE3EC1CF062EF1CF0000EB06F910E1D
:1038BA007D6FFF0E7E6FE3EC1CF012009F0E076E09
:1038CA00FF0E086E05C009F006C00AF00750092667
:1038DA0008500A220A500AE11A0E095CD8A078EFA9
:1038EA001CF07BEF1CF0010E7CEF1CF0000E056E45
:1038FA00066A1200BF0E076EFF0E086E05C009F0B9
:10390A0006C00AF00750092608500A220A500AE19E
:10391A001A0E095CD8A094EF1CF097EF1CF0010E68
:10392A0098EF1CF0000E056E066A1200D00E076EA4
:10393A00FF0E086E05C009F006C00AF007500926F6
:10394A0008500A220A500AE10A0E095CD8A0B0EF10
:10395A001CF0B3EF1CF0010EB4EF1CF0000E056E64
:10396A00066A1200640E5A24D96EDA6A020EDA2244
:10397A0099CEDFFF5A2A1F0E5A64C6EF1CF0C8EF11
:10398A001CF0CAEF1CF0000E5A6E0001B72B120091
:10399A00000E5924D96EDA6A040EDA2299CFDFFFB3
:1039AA00592A630E5964DCEF1CF0DEEF1CF0E0EFDD
:1039BA001CF0000E596E0001B22B12007F0E00019E
:1039CA00896F000E8A6F000E776F000E786F7DC0C8
:1039DA0079F07EC07AF0890E7B6F000E7C6FEAEC7C
:1039EA0018F0120013C005F014C006F088EC1AF0A3
:1039FA0005501324096E065014200A6E15C00BF0E8
:103A0A0016C00CF01CEC19F0120005500702F3CF97
:103A1A0009F0F4CF0AF005500802F3500A260650BE
:103A2A000702F3500A2609C005F00AC006F0120080
:103A3A00000E0E01E16F000EE26F000EE36F000E42
:103A4A00E46F000EE56F000EE66F1200DFEC1DF06A
:103A5A001DEC1DF0F9EC16F050EC1DF004EC18F01A
:103A6A00C5EC17F012000001B751D8A43FEF1DF0C2
:103A7A0042EF1DF0010E43EF1DF0000E120006503A
:103A8A00030B7F6E05C07EFF3F0E8116818000F01A
:103A9A0000F080501200600E0E01D86F000EDA6F2F
:103AAA00000EDC6F060EDE6F000EDD6F12000001E5
:103ABA00B251D8A463EF1DF066EF1DF0010E67EF57
:103ACA001DF0000E12000001BB51D8A46FEF1DF0CB
:103ADA0072EF1DF0010E73EF1DF0000E12000001CF
:103AEA00BC51D8A47BEF1DF07EEF1DF0010E7FEFD5
:103AFA001DF0000E12000E019EB386EF1DF089EF35
:103B0A001DF0010E8AEF1DF0000E12009EB290EF1A
:103B1A001DF093EF1DF0010E94EF1DF0000E120040
:103B2A0005C0F1F106C0F2F1120005C0EFF106C0BE
:103B3A00F0F1120005C0E7F106C0E8F1120005C075
:103B4A00E9F106C0EAF1120005C0E5F106C0E6F1A6
:103B5A00120005C0EDF106C0EEF1120005C0EBF14E
:103B6A0006C0ECF1120005C0E1F106C0E2F1120054
:103B7A0005C0E3F106C0E4F1120005C0DFF106C09A
:103B8A00E0F11200066E0650D8EC19F012000E0190
:103B9A009D999D891200869083961200868083865D
:103BAA001200B7EC1CF012009D989D881200CDEC13
:103BBA001CF01200F29A1200FF001200120012000A
:10FB5A00004E616D653A20257320204D4241646450
:10FB6A00726573733A203078253034782020206407
:10FB7A006174616565416464723A20307825303475
:10FB8A00782020204E756D42797465733A20256974
:10FB9A00200D0A000D44616E20616E642053616D70
:10FBAA002773204D6F64627573204750494F204573
:10FBBA007870616E73696F6E202D2041503030303D
:10FBCA0037303132352D303120526576202D0D0AED
:10FBDA0000436C656172696E6720454550524F4D0E
:10FBEA002066726F6D20416464726573733A2030C7
:10FBFA0078253034782C204E756D204279746573DF
:10FC0A003A202569200D0A00202020307831302042
:10FC1A002D205772697465204D756C7469706C6516
:10FC2A002052656769737465727320284D61782064
:10FC3A00333278203136626974290D0A0A00436F1B
:10FC4A006D706C6574656420416464696E672072C6
:10FC5A0078446174612042756666657220746F200B
:10FC6A004D6F646275734461746120417272617987
:10FC7A000D0A0A0020202030783033202D205265CA
:10FC8A006164204D756C7469706C65205265676992
:10FC9A00737465727320284D61782033327820316D
:10FCAA0036626974290D0A00436F6D70696C656468
:10FCBA00206F6E20257320617420257320627920BD
:10FCCA005843382076657273696F6E2025750D0A60
:10FCDA000A00456E74657220636172642025732080
:10FCEA00286D617820256920636861726163746593
:10FCFA007273293A2000637263486967683A203050
:10FD0A00782530327820206372634C6F773A20303E
:10FD1A00782530327820200D0A00496E6974616CAA
:10FD2A0069736174696F6E20436F6D706C65746579
:10FD3A00202D2052656164790D0A0A000D0A456E6C
:10FD4A0074657265643A202573200D0A20436F6E2C
:10FD5A006669726D2020597C4E3F3A20004D6F64CF
:10FD6A00446174436E743A2025692045787065743D
:10FD7A0065644279746573202569200D0A004D6F08
:10FD8A006462757320446174612043617074757292
:10FD9A006520436F6D706C6574653A0D0A004545C0
:10FDAA0050524F4D3A2030782530327820416464E1
:10FDBA003A20307825303278200D0A000D0A205674
:10FDCA00616C69646174696E6720436F6D6D616E01
:10FDDA00643A202573200D0A0046756E6374696FB4
:10FDEA006E20436F64657320537570706F7274650B
:10FDFA00643A0D0A004D6F6444617461436E742065
:10FE0A0073697474696E672061742025690D0A0A22
:10FE1A00004D6F6462757320526573706F6E7365FF
:10FE2A0020436F756E742025693A0D0A00556E736A
:10FE3A007570706F727465642046756E6374696F4D
:10FE4A006E20436F64650D0A00590D0A5361766985
:10FE5A006E672053657269616C204E756D626572BA
:10FE6A00200D0A0043524320646964204E4F5420F7
:10FE7A00636865636B206F75742E200D0A0A004350
:10FE8A006861722030782530327820696E203078A7
:10FE9A0025303278200D0A0020202042797465200E
:10FEAA0025303269203A20307825303278200D0A00
:10FEBA000053657269616C204E756D6265722053DC
:10FECA00617665642E200D0A00536F6D657468694A
:10FEDA006E6720696E2045535541525431200D0AF0
:10FEEA00005265673A20256920446174613A2030DE
:10FEFA007825303478200D0A002020204279746554
:10FF0A00202569203A20307825303278200D0A00E1
:10FF1A004361726420416464726573732E20307881
:10FF2A003035200D0A0043524320436865636B65F0
:10FF3A0064204F75742E200D0A0A0046756E63748C
:10FF4A00696F6E20436F646520307831300D0A0086
:10FF5A004361726420536572204E6F2E20257320F0
:10FF6A000D0A00536176696E67204361726420440A
:10FF7A006174610D0A004E756D2043686172733AAF
:10FF8A00202569200D0A004465627567204469735B
:10FF9A0061626C65640D0A00446562756720456E8E
:10FFAA0061626C65640D0A00557064617465644D24
:10FFBA0042343030200D0A00526561643A203078AC
:10FFCA0025303278200D0A004D61722031382032F6
:10FFDA003032310030303A34323A35390073657292
:10FFEA0069616C00646562756700706172740072A1
:06FFFA006576003F0000E7
:020000040020DA
:10000000FF0FFF0FFF0FFF0FFF0FFF0FFF0FFF0F80
:020000040030CA
:0C000000ECFFFFFF9FFFFFFFFFFFFFFF73
:00000001FF
