:020000040000FA
:0400000093EF00F08A
:100008005A82FACF01F0FBCF02F0D9CF03F0DACF52
:1000180004F0F2AC12EF00F014EF00F089EF00F0FA
:100028000E01C5AD1AEF00F01CEF00F032EF00F042
:10003800CDAD21EF00F023EF00F032EF00F002D851
:1000480030EF00F00500FA6E0001DF51FD6EE0515F
:10005800FE6EFF6AFA50120089EF00F0C5AF37EF65
:1000680000F039EF00F04FEF00F0CDAF3EEF00F0B9
:1000780040EF00F04FEF00F002D84DEF00F0050020
:10008800FA6E0001DD51FD6EDE51FE6EFF6AFA5018
:10009800120089EF00F0C5A954EF00F056EF00F008
:1000A8006CEF00F0CDA95BEF00F05DEF00F06CEFB6
:1000B80000F002D86AEF00F00500FA6E0001DB518B
:1000C800FD6EDC51FE6EFF6AFA50120089EF00F0F7
:1000D800C5AB71EF00F073EF00F089EF00F0CDAB26
:1000E80078EF00F07AEF00F089EF00F002D887EFA0
:1000F80000F00500FA6E0001D951FD6EDA51FE6E6E
:10010800FF6AFA50120089EF00F004C0DAFF03C05A
:10011800D9FF02C0FBFF01C0FAFF5A921100D2EFCB
:1001280010F04BC0D9FF4CC0DAFFDECFF6FFDDCFB1
:10013800F7FFF86A0800F550250AD8A4A6EF00F0E2
:10014800A8EF00F03DEF03F04BC0D9FF4CC0DAFF39
:10015800DE2A000EDD22000E00018B6F000E8A6F72
:100168008AC056F08BC057F08C698D69000EAB6F52
:10017800000EAA6F07EF01F056804BC0D9FF4CC0A4
:10018800DAFFDE2A000EDD2207EF01F05682C1EF0A
:1001980000F05684C1EF00F05686C1EF00F0568893
:1001A800C1EF00F0000EAB6F010EAA6F07EF01F070
:1001B8004BC0D9FF4CC0DAFFDECFF6FFDDCFF7FF2B
:1001C800F86A0800F5504F6E506A5050000AD8B4CB
:1001D800F0EF00F0D6EF00F04F50200AD8B4D0EF7F
:1001E80000F0030AD8B4D3EF00F0080AD8B4CDEF72
:1001F80000F0060AD8B4C0EF00F01D0AD8B4CAEF60
:1002080000F0D6EF00F0AA51AB11D8B40EEF01F010
:1002180010EF01F0DCEF00F056A015EF01F017EF3A
:1002280001F018EF01F056924BC0D9FF4CC0DAFF2D
:10023800DECFF6FFDDCFF7FFF86A0800F5502A0A8F
:10024800D8A429EF01F02BEF01F054EF01F04BC0D7
:10025800D9FF4CC0DAFFDE2A000EDD224DC0D9FFDF
:100268004EC0DAFFDFCF4FF0020EDE26DFCF50F0B0
:10027800000EDD224FC0D9FF50C0DAFFDECF8AF072
:10028800DDCF8BF08BBF4DEF01F04BEF01F099EF15
:1002980001F056808A6D8B1FD8B08B2B99EF01F037
:1002A8004BC0D9FF4CC0DAFFDECF0CF0DDCF0DF02C
:1002B80003EC08F00CC08AF00DC08BF06BEF01F076
:1002C8004BC0D9FF4CC0DAFFDE2A000EDD22D00E6B
:1002D8004F6EFF0E506E4BC0D9FF4CC0DAFFDECF19
:1002E800F6FFDDCFF7FFF86A0800F550516E526A45
:1002F8004F5051265050522252500AE10A0E515C7A
:10030800D8A089EF01F08CEF01F0010E8DEF01F01C
:10031800000E0001AC6FAD6BAC51AD11D8A497EFD6
:1003280001F099EF01F064EF01F04BC0D9FF4CC028
:10033800DAFFDECFF6FFDDCFF7FFF86A0800F550E9
:10034800640AD8B4AAEF01F0ACEF01F0BFEF01F0F6
:100358004BC0D9FF4CC0DAFFDECFF6FFDDCFF7FF89
:10036800F86A0800F550690AD8A4BDEF01F0BFEF9C
:1003780001F0FFEF01F04BC0D9FF4CC0DAFFDE2AD5
:10038800000EDD224DC0D9FF4EC0DAFFDFCF4FF09F
:10039800020EDE26DFCF50F0000EDD224FC0D9FF5F
:1003A80050C0DAFFDECF9FF0DDCFA0F0000EA0BF77
:1003B800FF0EA16FA26FA36FA46FA56FA66F49C0B0
:1003C80022F04AC023F09FC024F0A0C025F0A1C0AD
:1003D80026F0A2C027F0A3C028F0A4C029F0A5C029
:1003E8002AF0A6C02BF05AEC03F022C049F023C033
:1003F8004AF059EF03F04BC0D9FF4CC0DAFFDECF0B
:10040800F6FFDDCFF7FFF86A0800F550730AD8A4A5
:1004180010EF02F012EF02F03DEF02F04BC0D9FFEF
:100428004CC0DAFFDE2A000EDD224DC0D9FF4EC0D7
:10043800DAFFDFCF4FF0020EDE26DFCF50F0000EDE
:10044800DD224FC0D9FF50C0DAFFDECFA7F0DDCFE5
:10045800A8F049C010F04AC011F0A7C012F0A8C017
:1004680013F036EC07F010C049F011C04AF059EF0C
:1004780003F04BC0D9FF4CC0DAFFDECFF6FFDDCF6B
:10048800F7FFF86A0800F550750AD8A44EEF02F095
:1004980050EF02F091EF02F04BC0D9FF4CC0DAFFE9
:1004A800DE2A000EDD224DC0D9FF4EC0DAFFDFCFB5
:1004B8004FF0020EDE26DFCF50F0000EDD224FC0D7
:1004C800D9FF50C0DAFFDECF51F0DDCF52F051C076
:1004D800AEF052C0AFF0B06BB16BB26BB36BB46B34
:1004E800B56B49C022F04AC023F0AEC024F0AFC0BB
:1004F80025F0B0C026F0B1C027F0B2C028F0B3C0D4
:1005080029F0B4C02AF0B5C02BF035EC06F022C0B3
:1005180049F023C04AF059EF03F04BC0D9FF4CC053
:10052800DAFFDECFF6FFDDCFF7FFF86A0800F550F7
:10053800780AD8B4A2EF02F0A4EF02F0B7EF02F005
:100548004BC0D9FF4CC0DAFFDECFF6FFDDCFF7FF97
:10055800F86A0800F550580AD8A4B5EF02F0B7EFCA
:1005680002F006EF03F04BC0D9FF4CC0DAFFDECF34
:10057800F6FFDDCFF7FFF86A0800F5CFA9F04BC00A
:10058800D9FF4CC0DAFFDE2A000EDD224DC0D9FFAC
:100598004EC0DAFFDFCF4FF0020EDE26DFCF50F07D
:1005A800000EDD224FC0D9FF50C0DAFFDECF51F078
:1005B800DDCF52F051C0AEF052C0AFF0B06BB16BAE
:1005C800B26BB36BB46BB56B49C022F04AC023F071
:1005D800AEC024F0AFC025F0B0C026F0B1C027F0FF
:1005E800B2C028F0B3C029F0B4C02AF0B5C02BF0CF
:1005F800A9C02CF0CAEC04F022C049F023C04AF08C
:1006080059EF03F04BC0D9FF4CC0DAFFDECFF6FF3D
:10061800DDCFF7FFF86A0800F550250AD8A417EFD0
:1006280003F019EF03F030EF03F04BC0D9FF4CC0D3
:10063800DAFFDE2A000EDD22000E086E250E076E98
:1006480049C009F04AC00AF0E7EC0DF0000E4A6E06
:10065800010E496E59EF03F04BC0D9FF4CC0DAFFC9
:10066800DE2A000EDD22000E4A6E000E496E59EF9A
:1006780003F04BC0D9FF4CC0DAFFDECFF6FFDDCF69
:10068800F7FFF86A0800F550076E086A49C009F0D4
:100698004AC00AF0E7EC0DF04BC0D9FF4CC0DAFFB6
:1006A800DE2A000EDD222AEF03F0120024C03CF0FF
:1006B80025C03DF026C03EF027C03FF028C040F0DE
:1006C80029C041F02AC042F02BC043F043BE6FEF6F
:1006D80003F072EF03F0010E73EF03F0000E3A6EB1
:1006E8003B6A3A503B10D8B47CEF03F07EEF03F03E
:1006F8008EEF03F0431E421E411E401E3F1E3E1E4B
:100708003D1E3C6C000E3D223E223F2240224122EB
:100718004222432200018DBF94EF03F096EF03F0CD
:1007280097EF03F056928DBFA4EF03F08D5106E1C9
:100738008C05D8B0A2EF03F0A4EF03F0AAEF03F002
:10074800000E376E010E366EAEEF03F08CC036F039
:100758008DC037F08AC038F08BC039F03A503B1062
:10076800D8A4B9EF03F0BBEF03F0C2EF03F056A42F
:10077800C0EF03F0C2EF03F0C5EF03F03806D8A0CE
:100788003906000E456E1F0E446E000E0101E76F1C
:100798004AEF04F04406D8A04506C80E4424D96E92
:1007A800010E4520DA6E3CC005F03DC006F03EC0A3
:1007B80007F03FC008F040C009F041C00AF042C04D
:1007C8000BF043C00CF00A0E0D6E000E0E6E000EFC
:1007D8000F6E000E106E000E116E000E126E000EDF
:1007E800136E000E146E4FEC0AF005C02CF006C014
:1007F8002DF007C02EF008C02FF009C030F00AC055
:1008080031F00BC032F00CC033F02CC017F02EC002
:1008180018F001EC12F01750300FDF6E3606D8A032
:1008280037063806D8A039063CC005F03DC006F0AA
:100838003EC007F03FC008F040C009F041C00AF0D0
:1008480042C00BF043C00CF00A0E0D6E000E0E6E87
:10085800000E0F6E000E106E000E116E000E126E5E
:10086800000E136E000E146ED0EC08F005C03CF0BC
:1008780006C03DF007C03EF008C03FF009C040F098
:100888000AC041F00BC042F00CC043F045BE55EF22
:1008980004F0455008E14404D8A055EF04F057EFA0
:1008A80004F087EF04F03C503D103E103F1040101C
:1008B800411042104310D8A464EF04F066EF04F02E
:1008C800CEEF03F037BE73EF04F0375006E136047D
:1008D800D8B071EF04F073EF04F0CEEF03F039BE37
:1008E8007EEF04F0395008E13804D8A07EEF04F018
:1008F80080EF04F087EF04F056B285EF04F087EF3D
:1009080004F0CEEF03F03A503B10D8A48EEF04F079
:1009180090EF04F097EF04F056A495EF04F097EFEA
:1009280004F0B5EF04F04406D8A045063A503B1051
:10093800D8A4A1EF04F0A3EF04F0A9EF04F0000E8F
:10094800356E2B0E346EADEF04F0000E356E2D0EA5
:10095800346EC80E4424D96E010E4520DA6E34C0B8
:10096800DFFF22C017F023C018F0C80E4424196E08
:10097800010E45201A6E38C01BF039C01CF076EC09
:100988000CF017C022F018C023F0120000018DBF30
:10099800D0EF04F0D2EF04F0D3EF04F056928DBFFD
:1009A800E0EF04F08D5106E18C05D8B0DEEF04F0DD
:1009B800E0EF04F0E6EF04F0000E3A6E010E396E37
:1009C800EAEF04F08CC039F08DC03AF08AC03BF0F1
:1009D8008BC03CF056A8F3EF04F0F5EF04F0F9EF04
:1009E80004F0FE0E3B26FF0E3C2224C03DF025C03D
:1009F8003EF026C03FF027C040F028C041F029C093
:100A080042F02AC043F02BC044F0000E466E1F0E81
:100A1800456E000E0101E76FC5EF05F04506D8A049
:100A280046060F0E3D14476E486A48BE25EF05F08E
:100A3800485009E10A0E475CD8A025EF05F027EFDA
:100A480005F02FEF05F0570E4724476E000E48209B
:100A5800486E35EF05F0300E4724476E000E4820EB
:100A6800486EBF0E2D6EFF0E2E6E2C502F6E306A04
:100A78002D502F262E50302230500AE11A0E2F5CAE
:100A8800D8A049EF05F04CEF05F0010E4DEF05F049
:100A9800000E356E366A35503610D8B456EF05F06C
:100AA80058EF05F088EF05F09F0E2D6EFF0E2E6EA5
:100AB800200E47102F6E000E4810306E2D502F2636
:100AC8002E50302230500AE11A0E2F5CD8A06FEF5A
:100AD80005F072EF05F0010E73EF05F0000E376EAA
:100AE800386A37503810D8B47CEF05F07EEF05F03F
:100AF80088EF05F047C00BF048C00CF048EC10F048
:100B08000BC047F00CC048F0C80E4524D96E010E42
:100B18004620DA6E47C0DFFF3906D8A03A063B0602
:100B2800D8A03C063DC02DF03EC02EF03FC02FF0AF
:100B380040C030F041C031F042C032F043C033F021
:100B480044C034F0050EB2EF05F0D8903432333299
:100B58003232313230322F322E322D32E82EA9EF96
:100B680005F02DC03DF02EC03EF02FC03FF030C044
:100B780040F031C041F032C042F033C043F034C0DD
:100B880044F046BED1EF05F0465009E1020E455C3F
:100B9800D8A0D1EF05F0D3EF05F003EF06F03D50F4
:100BA8003E103F1040104110421043104410D8A48A
:100BB800E0EF05F0E2EF05F012EF05F03ABEEFEFD7
:100BC80005F03A5006E13904D8B0EDEF05F0EFEF43
:100BD80005F012EF05F03CBEFAEF05F03C5008E1D5
:100BE8003B04D8A0FAEF05F0FCEF05F003EF06F0A0
:100BF80056B201EF06F003EF06F012EF05F056A823
:100C080008EF06F00AEF06F020EF06F04506D8A038
:100C18004606C80E4524D96E010E4620DA6E2CC051
:100C2800DFFF4506D8A04606C80E4524D96E010E3A
:100C38004620DA6E300EDF6E22C017F023C018F09F
:100C4800C80E4524196E010E46201A6E3BC01BF0D3
:100C58003CC01CF076EC0CF017C022F018C023F052
:100C6800120000018DBF3BEF06F03DEF06F03EEFAE
:100C780006F056928DBF4BEF06F08D5106E18C05BC
:100C8800D8B049EF06F04BEF06F051EF06F0000E32
:100C9800356E010E346E55EF06F08CC034F08DC001
:100CA80035F08AC036F08BC037F024C038F025C044
:100CB80039F026C03AF027C03BF028C03CF029C0E4
:100CC8003DF02AC03EF02BC03FF0000E416E1F0ED3
:100CD800406E000E0101E76FE8EF06F04006D8A06D
:100CE8004106C80E4024D96E010E4120DA6E38C084
:100CF80005F039C006F03AC007F03BC008F03CC028
:100D080009F03DC00AF03EC00BF03FC00CF00A0EDF
:100D18000D6E000E0E6E000E0F6E000E106E000EA1
:100D2800116E000E126E000E136E000E146E0EEC95
:100D38000CF005C02CF006C02DF007C02EF008C03E
:100D48002FF009C030F00AC031F00BC032F00CC0EF
:100D580033F02C50300FDF6E3406D8A03506360637
:100D6800D8A0370638C005F039C006F03AC007F0F9
:100D78003BC008F03CC009F03DC00AF03EC00BF093
:100D88003FC00CF00A0E0D6E000E0E6E000E0F6EB8
:100D9800000E106E000E116E000E126E000E136E15
:100DA800000E146E96EC0BF005C038F006C039F052
:100DB80007C03AF008C03BF009C03CF00AC03DF05B
:100DC8000BC03EF00CC03FF040504110D8B4EFEFDC
:100DD80006F0F1EF06F021EF07F0385039103A101D
:100DE8003B103C103D103E103F10D8A4FEEF06F01B
:100DF80000EF07F072EF06F035BE0DEF07F0355043
:100E080006E13404D8B00BEF07F00DEF07F072EFEE
:100E180006F037BE18EF07F0375008E13604D8A0BF
:100E280018EF07F01AEF07F021EF07F056B21FEF9F
:100E380007F021EF07F072EF06F022C017F023C089
:100E480018F0C80E4024196E010E41201A6E36C0E3
:100E58001BF037C01CF076EC0CF017C022F018C05D
:100E680023F0120020EEE3F010EE15F0060EDBCFB3
:100E7800E3FFE806FCE212C020F013C021F0205086
:100E88002110D8A44AEF07F04CEF07F050EF07F015
:100E9800150E206E000E216E20C005F021C006F050
:100EA80026EC11F005C024F006C025F08CC022F015
:100EB8008DC023F023BE63EF07F065EF07F07AEFEC
:100EC80007F02450225C2350800A146E2550800AB3
:100ED8001458D8A072EF07F074EF07F076EF07F018
:100EE8007AEF07F022C024F023C025F024C022F0B6
:100EF80025C023F08AC01EF08BC01FF056B087EFC4
:100F080007F089EF07F0A6EF07F097EF07F0000E5C
:100F1800086E200E076E10C009F011C00AF0E7EC49
:100F28000DF0244A252A1E50245C2550800A146E90
:100F38001F50800A1458D8A0A4EF07F0A6EF07F0B6
:100F48008BEF07F0000E1D6E000E1C6ECBEF07F046
:100F580020C0F6FF21C0F7FF000EF86E0E0EF764F2
:100F680003D00800F55005D0F6CFE9FFF7CFEAFF28
:100F7800EF50146E1450076E086A10C009F011C0C3
:100F88000AF0E7EC0DF0204A212A1C4A1D2A2250BB
:100F98001C5C1D50800A146E2350800A1458D8A077
:100FA800D8EF07F0DAEF07F0ACEF07F056A0DFEF65
:100FB80007F0E1EF07F0FEEF07F0EFEF07F0000EA4
:100FC800086E200E076E10C009F011C00AF0E7EC99
:100FD8000DF0244A252A1E50245C2550800A146EE0
:100FE8001F50800A1458D8A0FCEF07F0FEEF07F056
:100FF800E3EF07F024C010F025C011F01200000E36
:101008001A6E000E196E000E136E000E126E0FEFA0
:1010180008F00C4A0D2A010E186E0CC0F6FF0DC020
:10102800F7FFF86A0800F550200AD8B41EEF08F058
:1010380020EF08F03EEF08F0F70E0E6EFF0E0F6E71
:101048000CC0F6FF0DC0F7FFF86A0800F550106EE7
:10105800116A0E5010260F501122115009E1050E89
:10106800105CD8A03AEF08F03CEF08F03EEF08F02B
:10107800000E186E18C014F0156A14501510D8A474
:1010880048EF08F04AEF08F00DEF08F054EF08F0C9
:10109800000E136E010E126E0C4A0D2A8BEF08F02B
:1010A8000CC0F6FF0DC0F7FFF86A0800F5500E6E89
:1010B8000F6A0F50000AD8B464EF08F08BEF08F0FD
:1010C8000E502B0AD8B450EF08F0060AD8B44CEFEB
:1010D80008F08BEF08F019C005F01AC006F0000EF2
:1010E800086E0A0E076ED3EC12F00CC0F6FF0DC0A6
:1010F800F7FFF86A0800F550055E000E065A300E34
:101108000524196E000E06201A6E50EF08F0D00E56
:101118000E6EFF0E0F6E0CC0F6FF0DC0F7FFF86ADB
:101128000800F550106E116A0E5010260F5011224B
:1011380011500AE10A0E105CD8A0A5EF08F0A8EF3C
:1011480008F0010EA9EF08F0000E166E176A165087
:101158001710D8A4B2EF08F0B4EF08F06FEF08F05A
:1011680012501310D8A4BBEF08F0BDEF08F0CBEF76
:1011780008F019C00EF01AC00FF00E1E0F1E0E4A0E
:101188000F2A0EC00CF00FC00DF0CFEF08F019C0F9
:101198000CF01AC00DF01200000E166E14BED9EF36
:1011A80008F0D7EF08F0EBEF08F0141E131E121E1C
:1011B800111E101E0F1E0E1E0D6C000E0E220F2289
:1011C80010221122122213221422010E166E0CBEB6
:1011D800F2EF08F0F0EF08F004EF09F00C1E0B1E18
:1011E8000A1E091E081E071E061E056C000E062292
:1011F8000722082209220A220B220C22010E161AA3
:1012080020EE17F0070EDE6AE806FDE20D500E101C
:101218000F1010101110121013101410D8B417EF6B
:1012280009F019EF09F06BEF09F0010E156E27EFC1
:1012380009F0D8900D360E360F36103611361236A4
:1012480013361436152A14AE2CEF09F02EEF09F0D8
:101258001DEF09F0D8901736183619361A361B368E
:101268001C361D361E360D50055C0E5006580F50A4
:101278000758105008581150095812500A5813505E
:101288000B5814500C58D8A04CEF09F04EEF09F049
:101298005FEF09F00D50055E0E50065A0F50075AC1
:1012A8001050085A1150095A12500A5A13500B5A22
:1012B80014500C5A1780D89014321332123211324B
:1012C80010320F320E320D32152E2EEF09F0165055
:1012D800D8B471EF09F073EF09F083EF09F01E1E1F
:1012E8001D1E1C1E1B1E1A1E191E181E176C000E12
:1012F800182219221A221B221C221D221E2217C064
:1013080005F018C006F019C007F01AC008F01BC095
:1013180009F01CC00AF01DC00BF01EC00CF0120032
:101328000101EE69EF69000EEB6F000EEA6F000E27
:10133800ED6F000EEC6F000EF16F000EF06FD7EF3F
:1013480009F0000E0101F025D96E010EF121DA6EC7
:10135800DF500001C86FC8510101EE1B000EED6F90
:10136800080EEC6FEEA1BBEF09F0BDEF09F0C6EF78
:1013780009F0D890EF33EE33010EEE1BA00EEF1BF1
:10138800C9EF09F0D890EF33EE33EC07D8A0ED079A
:10139800EC51ED11D8A4D3EF09F0D5EF09F0B6EF71
:1013A80009F0F04BF12BFE0E0001C86FFF0EC96F5C
:1013B80090C0CAF091C0CBF0C851CA27C951CB23FD
:1013C800CA510101F05DF151800A0001CC6FCB5187
:1013D800800ACC59D8A0F3EF09F0F5EF09F0A5EF92
:1013E80009F00101EE51E86FE96BEEC1C8F0EFC1F9
:1013F800C9F0C9C0C8F00001C96BC8510101EA6F42
:10140800EB6BE10E0001BC6FFE0EBD6FE8C1BEF0D4
:10141800E9C1BFF0EAC1C0F0EBC1C1F0BFEC12F006
:10142800000E0101F025D96E010EF121DA6EDF50B0
:101438000001C86FC96B0101E8510001C81909E131
:101448000101E9510001C919D8A42DEF0AF02FEFC5
:101458000AF04DEF0AF0010E0101F025D96E010ED8
:10146800F121DA6EDF500001C86FC96B0101EA5142
:101478000001C81909E10101EB510001C919D8A4FB
:1014880048EF0AF04AEF0AF04DEF0AF0010E4EEF6E
:101498000AF0000E1200000E166E0CBE58EF0AF08D
:1014A80056EF0AF06AEF0AF00C1E0B1E0A1E091E00
:1014B800081E071E061E056C000E062207220822BB
:1014C80009220A220B220C22010E166E14BE71EF9D
:1014D8000AF06FEF0AF081EF0AF0141E131E121EB5
:1014E800111E101E0F1E0E1E0D6C000E0E220F2256
:1014F800102211221222132214220D500E100F1046
:1015080010101110121013101410D8B48EEF0AF026
:1015180090EF0AF0D8EF0AF0010E156E9EEF0AF070
:10152800D8900D360E360F36103611361236133661
:101538001436152A14AEA3EF0AF0A5EF0AF094EFBB
:101548000AF00D50055C0E5006580F500758105001
:1015580008581150095812500A5813500B58145073
:101568000C58D8A0BAEF0AF0BCEF0AF0CCEF0AF09A
:101578000D50055E0E50065A0F50075A1050085A63
:101588001150095A12500A5A13500B5A14500C5A37
:10159800D890143213321232113210320F320E3206
:1015A8000D32152EA5EF0AF01650D8B4DEEF0AF06A
:1015B800E0EF0AF0F0EF0AF00C1E0B1E0A1E091EDF
:1015C800081E071E061E056C000E062207220822AA
:1015D80009220A220B220C2205C005F006C006F0DB
:1015E80007C007F008C008F009C009F00AC00AF0EF
:1015F8000BC00BF00CC00CF0120077EC13F019ECD8
:1016080013F00009D8B40BEF0BF00DEF0BF094EFCB
:101618000BF019EC13F00009D8B415EF0BF017EF25
:101628000BF034EF0BF027EF0BF0A6EC10F0556E33
:10163800000E00018E25D96E020E8F21DA6E55C07C
:10164800DFFF8E4B8F2B19EC13F00009D8A42FEF76
:101658000BF031EF0BF019EF0BF0010E0001936F57
:1016680000019305D8A43BEF0BF03DEF0BF059EFC9
:101678000BF097EC0DF074EC11F0000E0001936F75
:10168800000E8F6F000E8E6F83B84DEF0BF050EF8A
:101698000BF0010E51EF0BF0000EFF0A556E553A94
:1016A80083505518EF0B5518836EEA51901907E1CE
:1016B800EB519119D8A463EF0BF065EF0BF00DEF28
:1016C8000BF083BA6AEF0BF06DEF0BF0010E6EEFC3
:1016D8000BF0000EFF0A556E553A554683505518C3
:1016E800DF0B5518836E94EC09F0E806D8A47FEF59
:1016F8000BF081EF0BF08AEF0BF0CC0E0001BC6F02
:10170800FF0EBD6FBFEC12F091EF0BF0810E0001E0
:10171800BC6FFF0EBD6FBFEC12F0010E95EF0BF022
:10172800000E120020EE15F0070EDE6AE806FDE254
:101738000D500E100F10101011101210131014105D
:10174800D8B4A9EF0BF0ABEF0BF0FDEF0BF0010EE7
:101758001D6EB9EF0BF0D8900D360E360F361036D9
:1017680011361236133614361D2A14AEBEEF0BF09E
:10177800C0EF0BF0AFEF0BF0D890153616361736D2
:10178800183619361A361B361C360D50055C0E50A5
:1017980006580F5007581050085811500958125041
:1017A8000A5813500B5814500C58D8A0DEEF0BF001
:1017B800E0EF0BF0F1EF0BF00D50055E0E50065AFE
:1017C8000F50075A1050085A1150095A12500A5A05
:1017D80013500B5A14500C5A1580D89014321332E7
:1017E8001232113210320F320E320D321D2EC0EF6E
:1017F8000BF015C005F016C006F017C007F018C0AA
:1018080008F019C009F01AC00AF01BC00BF01CC080
:101818000CF012000D500E100F10101011101210B5
:1018280013101410D8B41BEF0CF01DEF0CF065EF7B
:101838000CF0010E156E2BEF0CF0D8900D360E360D
:101848000F3610361136123613361436152A14AEE2
:1018580030EF0CF032EF0CF021EF0CF00D50055C7E
:101868000E5006580F500758105008581150095874
:1018780012500A5813500B5814500C58D8A047EF60
:101888000CF049EF0CF059EF0CF00D50055E0E50BE
:10189800065A0F50075A1050085A1150095A125038
:1018A8000A5A13500B5A14500C5AD8901432133247
:1018B8001232113210320F320E320D32152E32EF33
:1018C8000CF005C005F006C006F007C007F008C018
:1018D80008F009C009F00AC00AF00BC00BF00CC0F0
:1018E8000CF0120056A07BEF0CF07DEF0CF087EFA8
:1018F8000CF019C010F01AC011F017C012F018C07F
:1019080013F0BDEC11F01CBE8CEF0CF08EEF0CF058
:1019180094EF0CF01BC020F01CC021F098EF0CF0E5
:10192800000E216E000E206E000E1F6E000E1E6E41
:10193800AAEF0CF0000E086E200E076E17C009F013
:1019480018C00AF0E7EC0DF01E4A1F2A20501E5C52
:101958001F50800A1D6E2150800A1D58D8A0B7EF6D
:101968000CF0B9EF0CF09EEF0CF056B0BEEF0CF097
:10197800C0EF0CF0CAEF0CF019C010F01AC011F04B
:1019880017C012F018C013F0BDEC11F019C005F023
:101998001AC006F026EC11F020500524176E2150CD
:1019A8000620186E1200700E5924D96EDA6A000EDD
:1019B800DA22000EDF6E0E019DA5E5EF0CF0E7EFD1
:1019C8000CF0FBEF0CF0700E5924D96EDA6A000E99
:1019D800DA220001DF8202D8FBEF0CF00500FA6E74
:1019E800D751FD6ED851FE6EFF6AFA5012000E01F3
:1019F8009DA301EF0DF003EF0DF017EF0DF0700E42
:101A08005924D96EDA6A000EDA220001DF8402D87E
:101A180017EF0DF00500FA6ED551FD6ED651FE6E2A
:101A2800FF6AFA501200700E5924D96EDA6A000E55
:101A3800DA22DF50D8B423EF0DF025EF0DF034EFA4
:101A48000DF002D832EF0DF00500FA6E0001D35107
:101A5800FD6ED451FE6EFF6AFA50120036EF0DF09B
:101A680093EC12F01200640E5824D96EDA6A010E53
:101A7800DA22000EDF6E9DA444EF0DF046EF0DF064
:101A88005BEF0DF0640E5824D96EDA6A010EDA2283
:101A98000101DF8202D85BEF0DF00500FA6E00014C
:101AA800D151FD6ED251FE6EFF6AFA5012009DA20E
:101AB80060EF0DF062EF0DF077EF0DF0640E582433
:101AC800D96EDA6A010EDA220101DF8402D877EFD3
:101AD8000DF00500FA6E0001CF51FD6ED051FE6E7B
:101AE800FF6AFA501200640E5824D96EDA6A010EA1
:101AF800DA22DF50D8B483EF0DF085EF0DF094EFC4
:101B08000DF002D892EF0DF00500FA6E0001CD51EC
:101B1800FD6ECE51FE6EFF6AFA50120096EF0DF080
:101B2800A9EC12F01200000E076E000E066E000EF1
:101B3800076E000E066EB3EF0DF0000E0624D96E88
:101B4800020E0720DA6E000E9025E16E010E91213B
:101B5800E26EDFCFE7FF904B912B064A072A000180
:101B68008E51065C0750800A056E8F51800A055811
:101B7800D8A0C1EF0DF0C3EF0DF0A1EF0DF00F0EDF
:101B880001010119D8A4CBEF0DF0CDEF0DF0D6EF80
:101B98000DF0090E06250001EA6FEB6B000EEB2332
:101BA800E6EF0DF0100E0119D8A4DDEF0DF0DFEF10
:101BB8000DF0E1EF0DF0CDEF0DF0000E0001EB6F31
:101BC800080EEA6F120009500A10D8B4EEEF0DF0B3
:101BD800F0EF0DF0F9EF0DF009500A10D8A4F7EF67
:101BE8000DF0F9EF0DF0FEEF0DF007506BEC13F070
:101BF80031EF0EF020EE04F00950D9260A50DA220F
:101C0800DE50DE10D8B40BEF0EF00DEF0EF028EF1B
:101C18000EF020EE04F00950D9260A50DA2210EE10
:101C280002F00950E1260A50E222DE50E65CE65056
:101C3800800A0F6EDE50800A0F58D8B026EF0EF0DB
:101C480028EF0EF031EF0EF020EE02F00950D92601
:101C58000A50DA22DE2A000EDD221200000E876EFC
:101C6800000E866E000E836E000E846E000E856E6A
:101C7800070E8C6E070E886EBF0E896EBF0E8A6EB9
:101C8800FE0E8B6E0F0126693B0E216F370E196F02
:101C9800070E2E6F1169000E256F000E2D6F000EB6
:101CA800186F000E106F000E206F000E2C6F000EC4
:101CB8000F6F000E176F000E1F6F000E246F0E6956
:101CC80016691E692369070E2B6F0D6915691D6951
:101CD80022690F0E2A6F170E0E01B56F0B0EF56FE6
:101CE800090EFD6F0F0E8D6F1200F4EC12F0F28EDC
:101CF800F28C8398839A839C839E36EC0FF077EC62
:101D080013F074EC11F001EC0BF0E806D8A48FEF97
:101D18000EF091EF0EF087EF0EF074EC0FF0030E5B
:101D280001010119D8A49BEF0EF09DEF0EF0A9EF69
:101D38000EF0EC0E066E000E076E000E096E0B0E0E
:101D4800086EB0EC0FF0B3EF0EF0650E0001BC6F3B
:101D5800FF0EBD6F01C1BEF0BF6BBFEC12F04EECC1
:101D680011F087EF0EF093EF00F00E01C59FAE0E55
:101D7800056E190E066E3EEC13F00E01C59D320E6F
:101D8800056E230E066E39EC13F0080E0E019F6FD8
:101D9800900E9D6F240E9E6F400E9B6F030E9C6FDE
:101DA8000A0E056E270E066E48EC13F0E00E056E5F
:101DB800260E066E43EC13F0F40E056E260E066E24
:101DC8004DEC13F0000E00019A6F000E9E6F000E8E
:101DD8009D6F080EE26F000E596E000E9C6F000E8C
:101DE8009B6F0E01C58F12000E01C59B6E0E056E0E
:101DF8001A0E066E57EC13F00E01C599BE0E056E4D
:101E0800230E066E52EC13F0080E9F6E900E9D6E18
:101E1800240E9E6E400E9B6E030E9C6E0C0E056E7D
:101E2800270E066E61EC13F0FA0E056E260E066E8E
:101E38005CEC13F0000E056E270E066E66EC13F0D0
:101E4800000E0001956F000E996F000E986F100E2E
:101E5800E16F000E586E000E976F000E966F0E0120
:101E6800C58B1200110E0001BC6FFE0EBD6FBFECDA
:101E780012F09C0E0001BC6FFF0EBD6FBFEC12F09C
:101E8800B60E0001BC6FFE0EBD6FE10EBE6FFF0EF9
:101E9800BF6FED0EC06FFF0EC16F080EC36F340E1B
:101EA800C26FBFEC12F0480E0001BC6FFF0EBD6F91
:101EB800BFEC12F0810E0001BC6FFE0EBD6FBFECCF
:101EC80012F04A0E0001BC6FFE0EBD6FBFEC12F09F
:101ED800050E0001BC6FFF0EBD6FBFEC12F01200C3
:101EE800280E0001BC6FFF0EBD6FBFEC12F0000E94
:101EF8000001C96F000EC86F9AEF0FF0B50EBC6FE6
:101F0800FF0EBD6FC8C0BEF0C9C0BFF0000EC82527
:101F1800D96E010EC921DA6EDF50556E5550C06F6B
:101F2800C16BBFEC12F00001C84BC92B9051C85DC2
:101F3800C951800A556E9151800A5558D8A0A7EF0B
:101F48000FF0A9EF0FF082EF0FF0DD0EBC6FFF0E60
:101F5800BD6FBFEC12F0120074EC13F001EC13F03B
:101F68000009D8B4BAEF0FF0BCEF0FF0B2EF0FF0E2
:101F7800000E0C6E000E0B6ED7EF0FF00B50062400
:101F8800D96E0C500720DA6EDF5019EC10F02FECE8
:101F980013F00009D8B4D3EF0FF0D5EF0FF0CBEF63
:101FA8000FF00B4A0C2A08500B5C0C50800A0A6E82
:101FB8000950800A0A58D8A0E4EF0FF0E6EF0FF0B6
:101FC800C2EF0FF01200B8C053F0B9C054F0000EC1
:101FD8000001896F000E886F05EF10F0B6C049F058
:101FE800B7C04AF0530E4B6E000E4C6EBAC04DF09F
:101FF800BBC04EF095EC00F04950000188274A50CC
:10200800892353C0F6FF54C0F7FFF86A0800F5505B
:102018000009D8A412EF10F014EF10F0F2EF0FF04F
:1020280088C0B6F089C0B7F01200056E0001E15112
:10203800D8B421EF10F023EF10F01AEF10F00E01D2
:10204800C5B929EF10F02BEF10F02FEF10F005C0F5
:102058009AFF45EF10F0C599600E00019925D96ED9
:10206800DA6A000EDA2205C0DFFF992B0F0E996598
:1020780040EF10F042EF10F044EF10F0000E996FAF
:10208800E1070E01C58912009F0E0D6EFF0E0E6E40
:102098000BC00FF00CC010F00D500F260E50102280
:1020A80010500AE11A0E0F5CD8A05DEF10F060EF37
:1020B80010F0010E61EF10F0000E116E126A11504F
:1020C8001210D8B46AEF10F06CEF10F072EF10F045
:1020D8005F0E0B140B6E0C6A76EF10F00BC00BF052
:1020E8000CC00CF01200056E0001E251D8B47FEF6D
:1020F80010F081EF10F078EF10F00E01C5BD87EFFA
:1021080010F089EF10F08DEF10F005C09AFEA3EFE4
:1021180010F0C59D800E00019E25D96EDA6A000E6A
:10212800DA2205C0DFFF9E2B070E9E659EEF10F09A
:10213800A0EF10F0A2EF10F0000E9E6FE2070E0164
:10214800C58D120000019651D8B4ADEF10F0AFEF75
:1021580010F0A6EF10F0640E9725D96EDA6A010E1A
:10216800DA22DF50956F640E9725D96EDA6A020E6F
:10217800DA22DF50056E972B630E9765C6EF10F0D5
:10218800C8EF10F0CAEF10F0000E976F0E01C59B54
:10219800000196070E01C58B055012004A0EF66E17
:1021A800260EF76E000EF86E00EEE3F010EE14F057
:1021B8000900F5CFEEFFE550E150FAE102EE00F03C
:1021C800C80EEE6AE806FDE101EE00F0E80EEE6AE0
:1021D800E806FDE100EE60F03F0EEE6AE806FDE17C
:1021E800596A586A576A566A5A905A92000179EFA2
:1021F8000EF0010E0B6E200E05180610D8B407EF6E
:1022080011F009EF11F022EF11F0F70E076EFF0E33
:10221800086E05C009F006C00AF0075009260850E4
:102228000A220A5009E1050E095CD8A01EEF11F038
:1022380020EF11F022EF11F0000E0B6E0BC005F02D
:10224800066A120005C007F006C008F02EEF11F06C
:10225800054A062A05C0F6FF06C0F7FF000EF86E0D
:102268000E0EF76403D00800F55005D0F6CFE9FF4D
:10227800F7CFEAFFEF500009D8A445EF11F047EF78
:1022880011F02CEF11F00750055C056E0850065848
:10229800066E1200000E066E000E056E000E066E2B
:1022A800000E056E000E0524D96E010E0620DA6EAA
:1022B800FF0EDF6E054A062A06BE6CEF11F00650C7
:1022C80009E1630E055CD8A06CEF11F06EEF11F018
:1022D80056EF11F0000E0001916F000E906F120082
:1022E800000E076E000E066E000E076E000E066EDC
:1022F80088EF11F0000E0624D96E020E0720DA6E60
:10230800FF0EDF6E064A072A00018E51065C075051
:10231800800A056E8F51800A0558D8A096EF11F0F3
:1023280098EF11F07EEF11F01200080E0001E26143
:10233800A0EF11F0A2EF11F0BAEF11F0800E9D2579
:10234800D96EDA6A000EDA22DF500E019A6F0001A8
:102358009D2B070E9D65B3EF11F0B5EF11F0B7EFA8
:1023680011F0000E9D6FE22BBCEF11F00E01C59D20
:102378001200000E166E000E156ECEEF11F014C08E
:1023880007F0086A12C009F013C00AF0E7EC0DF074
:10239800154A162A15501024D96E16501120DA6ED7
:1023A800DF50146E1450D8A4DCEF11F0DEEF11F0FA
:1023B800C3EF11F01200100E0001E161E6EF11F019
:1023C800E8EF11F0FEEF11F0600E9825D96EDA6A89
:1023D800000EDA22DF509A6E982B0F0E9865F7EFF1
:1023E80011F0F9EF11F0FBEF11F0000E986FE12BEF
:1023F80000EF12F00E01C599120018BE0EEF12F090
:10240800185006E11704D8B00CEF12F00EEF12F0D6
:102418001CEF12F017C019F018C01AF0191E1A1E76
:10242800194A1A2A19C017F01AC018F020EF12F02A
:1024380017C017F018C018F012009F0E076EFF0E95
:10244800086E200E0510096E000E06100A6E075061
:10245800092608500A220A500AE11A0E095CD8A077
:1024680038EF12F03BEF12F0010E3CEF12F0000EC5
:10247800056E066A12009F0E076EFF0E086E05C0F5
:1024880009F006C00AF00750092608500A220A5027
:102498000AE11A0E095CD8A054EF12F057EF12F0B7
:1024A800010E58EF12F0000E056E066A1200BF0EFC
:1024B800076EFF0E086E05C009F006C00AF0075047
:1024C800092608500A220A500AE11A0E095CD8A007
:1024D80070EF12F073EF12F0010E74EF12F0000EAD
:1024E800056E066A1200D00E076EFF0E086E05C054
:1024F80009F006C00AF00750092608500A220A50B7
:102508000AE10A0E095CD8A08CEF12F08FEF12F0E6
:10251800010E90EF12F0000E056E066A1200780E9A
:102528005924D96EDA6A000EDA2299CEDFFF592AC9
:10253800070E5964A2EF12F0A4EF12F0A6EF12F002
:10254800000E596E00019B2B1200640E5824D96EA0
:10255800DA6A020EDA2299CFDFFF582A630E58642E
:10256800B8EF12F0BAEF12F0BCEF12F0000E586E8E
:102578000001962B1200BE0E0001C66F000EC76F39
:10258800000EB66F000EB76FBCC0B8F0BDC0B9F092
:10259800C60EBA6F000EBB6FE7EC0FF012000550C5
:1025A8000702F3CF09F0F4CF0AF005500802F35000
:1025B8000A2606500702F3500A2609C005F00AC089
:1025C80006F01200000E0E01E16F000EE26F000E21
:1025D800E36F000EE46F000EE56F000EE66F120069
:1025E80083EC13F0E6EC12F032EC0EF00DEC13F085
:1025F800F8EC0EF0B9EC0EF012000001E151D8A48D
:1026080008EF13F00BEF13F0010E0CEF13F0000EB0
:102618001200600E0E01D86F000EDA6F000EDC6F2C
:10262800060EDE6F000EDD6F120000019651D8A471
:1026380020EF13F023EF13F0010E24EF13F0000E38
:102648001200286E756C6C29000800110306AE4153
:102658005652434049AD9EB234EF13F037EF13F0B2
:10266800010E38EF13F0000E120005C0DFF006C0AF
:10267800E0F0120005C0DDF006C0DEF0120005C073
:10268800D5F006C0D6F0120005C0D7F006C0D8F0C5
:10269800120005C0D3F006C0D4F0120005C0DBF06C
:1026A80006C0DCF0120005C0D9F006C0DAF012004E
:1026B80005C0CFF006C0D0F0120005C0D1F006C0AA
:1026C800D2F0120005C0CDF006C0CEF01200066EA2
:1026D800065077EC10F012000E019D999D891200AA
:1026E80086808386120086908396120093EC12F0FF
:1026F80012009D989D881200A9EC12F01200F29A1F
:0627080012001200120095
:10FE1000000D44616E20616E642053616D27732074
:10FE20004D6F64627573204750494F20457870616B
:10FE30006E73696F6E202D204150303030787878A5
:10FE400078782056302E310D0A000D202020307891
:10FE50003130202D205772697465204D756C74699E
:10FE6000706C652052656769737465727320284DE4
:10FE7000617820333278203136626974290D0A0A9C
:10FE8000000D20202030783033202D205265616411
:10FE9000204D756C7469706C652052656769737468
:10FEA00065727320284D61782033327820313662B4
:10FEB0006974290D0A000D436F6D70696C656420CB
:10FEC0006F6E20257320617420257320627920587D
:10FED00043382076657273696F6E2025750D0A0AA6
:10FEE00000637263486967683A2030782530327859
:10FEF00020206372634C6F773A2030782530327857
:10FF000020200D0A000D496E6974616C697361747B
:10FF1000696F6E20436F6D706C657465202D205283
:10FF2000656164790D0A0A004D6F6462757320443F
:10FF3000617461204361707475726520436F6D70E8
:10FF40006C6574653A0D0A000D46756E6374696FD1
:10FF50006E20436F64657320537570706F727465A3
:10FF6000643A0D0A0046756E6374696F6E20436FC4
:10FF700064652069733A20307825303278200D0A84
:10FF80000043524320646964204E4F5420636865E7
:10FF9000636B206F75742E200D0A0A000D43617289
:10FFA0006420536572204E6F2E20787878787878A8
:10FFB00078200D0A002020204279746520256920D0
:10FFC0003A20307825303278200D0A004352432001
:10FFD000436865636B6564204F75742E200D0A0AB3
:10FFE000004D617220203620323032310031333AF8
:0FFFF00033313A3032004352433A202569000042
:020000040020DA
:10000000FF0FFF0FFF0FFF0FFF0FFF0FFF0FFF0F80
:020000040030CA
:0C000000ECFFFFFF9FFFFFFFFFFFFFFF73
:00000001FF
